{
  "address": "0x645BD6fB363510e8D047566626ef4534d8dfEE21",
  "abi": [
    {
      "inputs": [
        {
          "internalType": "string",
          "name": "_name",
          "type": "string"
        },
        {
          "internalType": "string",
          "name": "_symbol",
          "type": "string"
        }
      ],
      "stateMutability": "nonpayable",
      "type": "constructor"
    },
    {
      "anonymous": false,
      "inputs": [
        {
          "indexed": true,
          "internalType": "address",
          "name": "owner",
          "type": "address"
        },
        {
          "indexed": true,
          "internalType": "address",
          "name": "approved",
          "type": "address"
        },
        {
          "indexed": true,
          "internalType": "uint256",
          "name": "tokenId",
          "type": "uint256"
        }
      ],
      "name": "Approval",
      "type": "event"
    },
    {
      "anonymous": false,
      "inputs": [
        {
          "indexed": true,
          "internalType": "address",
          "name": "owner",
          "type": "address"
        },
        {
          "indexed": true,
          "internalType": "address",
          "name": "operator",
          "type": "address"
        },
        {
          "indexed": false,
          "internalType": "bool",
          "name": "approved",
          "type": "bool"
        }
      ],
      "name": "ApprovalForAll",
      "type": "event"
    },
    {
      "anonymous": false,
      "inputs": [
        {
          "indexed": true,
          "internalType": "enum FleekAccessControl.Roles",
          "name": "role",
          "type": "uint8"
        },
        {
          "indexed": true,
          "internalType": "address",
          "name": "toAddress",
          "type": "address"
        },
        {
          "indexed": false,
          "internalType": "address",
          "name": "byAddress",
          "type": "address"
        }
      ],
      "name": "CollectionRoleGranted",
      "type": "event"
    },
    {
      "anonymous": false,
      "inputs": [
        {
          "indexed": true,
          "internalType": "enum FleekAccessControl.Roles",
          "name": "role",
          "type": "uint8"
        },
        {
          "indexed": true,
          "internalType": "address",
          "name": "toAddress",
          "type": "address"
        },
        {
          "indexed": false,
          "internalType": "address",
          "name": "byAddress",
          "type": "address"
        }
      ],
      "name": "CollectionRoleRevoked",
      "type": "event"
    },
    {
      "anonymous": false,
      "inputs": [
        {
          "indexed": true,
          "internalType": "uint256",
          "name": "token",
          "type": "uint256"
        },
        {
          "indexed": true,
          "internalType": "string",
          "name": "commitHash",
          "type": "string"
        },
        {
          "indexed": true,
          "internalType": "address",
          "name": "triggeredBy",
          "type": "address"
        }
      ],
      "name": "NewBuild",
      "type": "event"
    },
    {
      "anonymous": false,
      "inputs": [
        {
          "indexed": true,
          "internalType": "uint256",
          "name": "token",
          "type": "uint256"
        },
        {
          "indexed": true,
          "internalType": "string",
          "name": "description",
          "type": "string"
        },
        {
          "indexed": true,
          "internalType": "address",
          "name": "triggeredBy",
          "type": "address"
        }
      ],
      "name": "NewTokenDescription",
      "type": "event"
    },
    {
      "anonymous": false,
      "inputs": [
        {
          "indexed": true,
          "internalType": "uint256",
          "name": "token",
          "type": "uint256"
        },
        {
          "indexed": true,
          "internalType": "string",
          "name": "ENS",
          "type": "string"
        },
        {
          "indexed": true,
          "internalType": "address",
          "name": "triggeredBy",
          "type": "address"
        }
      ],
      "name": "NewTokenENS",
      "type": "event"
    },
    {
      "anonymous": false,
      "inputs": [
        {
          "indexed": true,
          "internalType": "uint256",
          "name": "token",
          "type": "uint256"
        },
        {
          "indexed": true,
          "internalType": "string",
          "name": "externalURL",
          "type": "string"
        },
        {
          "indexed": true,
          "internalType": "address",
          "name": "triggeredBy",
          "type": "address"
        }
      ],
      "name": "NewTokenExternalURL",
      "type": "event"
    },
    {
      "anonymous": false,
      "inputs": [
        {
          "indexed": true,
          "internalType": "uint256",
          "name": "token",
          "type": "uint256"
        },
        {
          "indexed": true,
          "internalType": "string",
          "name": "image",
          "type": "string"
        },
        {
          "indexed": true,
          "internalType": "address",
          "name": "triggeredBy",
          "type": "address"
        }
      ],
      "name": "NewTokenImage",
      "type": "event"
    },
    {
      "anonymous": false,
      "inputs": [
        {
          "indexed": true,
          "internalType": "uint256",
          "name": "token",
          "type": "uint256"
        },
        {
          "indexed": true,
          "internalType": "string",
          "name": "name",
          "type": "string"
        },
        {
          "indexed": true,
          "internalType": "address",
          "name": "triggeredBy",
          "type": "address"
        }
      ],
      "name": "NewTokenName",
      "type": "event"
    },
    {
      "anonymous": false,
      "inputs": [
        {
          "indexed": true,
          "internalType": "uint256",
          "name": "tokenId",
          "type": "uint256"
        },
        {
          "indexed": true,
          "internalType": "enum FleekAccessControl.Roles",
          "name": "role",
          "type": "uint8"
        },
        {
          "indexed": true,
          "internalType": "address",
          "name": "toAddress",
          "type": "address"
        },
        {
          "indexed": false,
          "internalType": "address",
          "name": "byAddress",
          "type": "address"
        }
      ],
      "name": "TokenRoleGranted",
      "type": "event"
    },
    {
      "anonymous": false,
      "inputs": [
        {
          "indexed": true,
          "internalType": "uint256",
          "name": "tokenId",
          "type": "uint256"
        },
        {
          "indexed": true,
          "internalType": "enum FleekAccessControl.Roles",
          "name": "role",
          "type": "uint8"
        },
        {
          "indexed": true,
          "internalType": "address",
          "name": "toAddress",
          "type": "address"
        },
        {
          "indexed": false,
          "internalType": "address",
          "name": "byAddress",
          "type": "address"
        }
      ],
      "name": "TokenRoleRevoked",
      "type": "event"
    },
    {
      "anonymous": false,
      "inputs": [
        {
          "indexed": true,
          "internalType": "address",
          "name": "from",
          "type": "address"
        },
        {
          "indexed": true,
          "internalType": "address",
          "name": "to",
          "type": "address"
        },
        {
          "indexed": true,
          "internalType": "uint256",
          "name": "tokenId",
          "type": "uint256"
        }
      ],
      "name": "Transfer",
      "type": "event"
    },
    {
      "inputs": [
        {
          "internalType": "address",
          "name": "to",
          "type": "address"
        },
        {
          "internalType": "uint256",
          "name": "tokenId",
          "type": "uint256"
        }
      ],
      "name": "approve",
      "outputs": [],
      "stateMutability": "nonpayable",
      "type": "function"
    },
    {
      "inputs": [
        {
          "internalType": "address",
          "name": "owner",
          "type": "address"
        }
      ],
      "name": "balanceOf",
      "outputs": [
        {
          "internalType": "uint256",
          "name": "",
          "type": "uint256"
        }
      ],
      "stateMutability": "view",
      "type": "function"
    },
    {
      "inputs": [
        {
          "internalType": "uint256",
          "name": "tokenId",
          "type": "uint256"
        }
      ],
      "name": "burn",
      "outputs": [],
      "stateMutability": "nonpayable",
      "type": "function"
    },
    {
      "inputs": [
        {
          "internalType": "uint256",
          "name": "tokenId",
          "type": "uint256"
        }
      ],
      "name": "getApproved",
      "outputs": [
        {
          "internalType": "address",
          "name": "",
          "type": "address"
        }
      ],
      "stateMutability": "view",
      "type": "function"
    },
    {
      "inputs": [
        {
          "internalType": "enum FleekAccessControl.Roles",
          "name": "role",
          "type": "uint8"
        }
      ],
      "name": "getCollectionRoleMembers",
      "outputs": [
        {
          "internalType": "address[]",
          "name": "",
          "type": "address[]"
        }
      ],
      "stateMutability": "view",
      "type": "function"
    },
    {
      "inputs": [
        {
          "internalType": "uint256",
          "name": "tokenId",
          "type": "uint256"
        },
        {
          "internalType": "enum FleekAccessControl.Roles",
          "name": "role",
          "type": "uint8"
        }
      ],
      "name": "getTokenRoleMembers",
      "outputs": [
        {
          "internalType": "address[]",
          "name": "",
          "type": "address[]"
        }
      ],
      "stateMutability": "view",
      "type": "function"
    },
    {
      "inputs": [
        {
          "internalType": "enum FleekAccessControl.Roles",
          "name": "role",
          "type": "uint8"
        },
        {
          "internalType": "address",
          "name": "account",
          "type": "address"
        }
      ],
      "name": "grantCollectionRole",
      "outputs": [],
      "stateMutability": "nonpayable",
      "type": "function"
    },
    {
      "inputs": [
        {
          "internalType": "uint256",
          "name": "tokenId",
          "type": "uint256"
        },
        {
          "internalType": "enum FleekAccessControl.Roles",
          "name": "role",
          "type": "uint8"
        },
        {
          "internalType": "address",
          "name": "account",
          "type": "address"
        }
      ],
      "name": "grantTokenRole",
      "outputs": [],
      "stateMutability": "nonpayable",
      "type": "function"
    },
    {
      "inputs": [
        {
          "internalType": "enum FleekAccessControl.Roles",
          "name": "role",
          "type": "uint8"
        },
        {
          "internalType": "address",
          "name": "account",
          "type": "address"
        }
      ],
      "name": "hasCollectionRole",
      "outputs": [
        {
          "internalType": "bool",
          "name": "",
          "type": "bool"
        }
      ],
      "stateMutability": "view",
      "type": "function"
    },
    {
      "inputs": [
        {
          "internalType": "uint256",
          "name": "tokenId",
          "type": "uint256"
        },
        {
          "internalType": "enum FleekAccessControl.Roles",
          "name": "role",
          "type": "uint8"
        },
        {
          "internalType": "address",
          "name": "account",
          "type": "address"
        }
      ],
      "name": "hasTokenRole",
      "outputs": [
        {
          "internalType": "bool",
          "name": "",
          "type": "bool"
        }
      ],
      "stateMutability": "view",
      "type": "function"
    },
    {
      "inputs": [
        {
          "internalType": "address",
          "name": "owner",
          "type": "address"
        },
        {
          "internalType": "address",
          "name": "operator",
          "type": "address"
        }
      ],
      "name": "isApprovedForAll",
      "outputs": [
        {
          "internalType": "bool",
          "name": "",
          "type": "bool"
        }
      ],
      "stateMutability": "view",
      "type": "function"
    },
    {
      "inputs": [
        {
          "internalType": "address",
          "name": "to",
          "type": "address"
        },
        {
          "internalType": "string",
          "name": "name",
          "type": "string"
        },
        {
          "internalType": "string",
          "name": "description",
          "type": "string"
        },
        {
          "internalType": "string",
          "name": "image",
          "type": "string"
        },
        {
          "internalType": "string",
          "name": "externalURL",
          "type": "string"
        },
        {
          "internalType": "string",
          "name": "ENS",
          "type": "string"
        },
        {
          "internalType": "string",
          "name": "commitHash",
          "type": "string"
        },
        {
          "internalType": "string",
          "name": "gitRepository",
          "type": "string"
        }
      ],
      "name": "mint",
      "outputs": [
        {
          "internalType": "uint256",
          "name": "",
          "type": "uint256"
        }
      ],
      "stateMutability": "payable",
      "type": "function"
    },
    {
      "inputs": [],
      "name": "name",
      "outputs": [
        {
          "internalType": "string",
          "name": "",
          "type": "string"
        }
      ],
      "stateMutability": "view",
      "type": "function"
    },
    {
      "inputs": [
        {
          "internalType": "uint256",
          "name": "tokenId",
          "type": "uint256"
        }
      ],
      "name": "ownerOf",
      "outputs": [
        {
          "internalType": "address",
          "name": "",
          "type": "address"
        }
      ],
      "stateMutability": "view",
      "type": "function"
    },
    {
      "inputs": [
        {
          "internalType": "enum FleekAccessControl.Roles",
          "name": "role",
          "type": "uint8"
        },
        {
          "internalType": "address",
          "name": "account",
          "type": "address"
        }
      ],
      "name": "revokeCollectionRole",
      "outputs": [],
      "stateMutability": "nonpayable",
      "type": "function"
    },
    {
      "inputs": [
        {
          "internalType": "uint256",
          "name": "tokenId",
          "type": "uint256"
        },
        {
          "internalType": "enum FleekAccessControl.Roles",
          "name": "role",
          "type": "uint8"
        },
        {
          "internalType": "address",
          "name": "account",
          "type": "address"
        }
      ],
      "name": "revokeTokenRole",
      "outputs": [],
      "stateMutability": "nonpayable",
      "type": "function"
    },
    {
      "inputs": [
        {
          "internalType": "address",
          "name": "from",
          "type": "address"
        },
        {
          "internalType": "address",
          "name": "to",
          "type": "address"
        },
        {
          "internalType": "uint256",
          "name": "tokenId",
          "type": "uint256"
        }
      ],
      "name": "safeTransferFrom",
      "outputs": [],
      "stateMutability": "nonpayable",
      "type": "function"
    },
    {
      "inputs": [
        {
          "internalType": "address",
          "name": "from",
          "type": "address"
        },
        {
          "internalType": "address",
          "name": "to",
          "type": "address"
        },
        {
          "internalType": "uint256",
          "name": "tokenId",
          "type": "uint256"
        },
        {
          "internalType": "bytes",
          "name": "data",
          "type": "bytes"
        }
      ],
      "name": "safeTransferFrom",
      "outputs": [],
      "stateMutability": "nonpayable",
      "type": "function"
    },
    {
      "inputs": [
        {
          "internalType": "address",
          "name": "operator",
          "type": "address"
        },
        {
          "internalType": "bool",
          "name": "approved",
          "type": "bool"
        }
      ],
      "name": "setApprovalForAll",
      "outputs": [],
      "stateMutability": "nonpayable",
      "type": "function"
    },
    {
      "inputs": [
        {
          "internalType": "uint256",
          "name": "tokenId",
          "type": "uint256"
        },
        {
          "internalType": "string",
          "name": "_commitHash",
          "type": "string"
        },
        {
          "internalType": "string",
          "name": "_gitRepository",
          "type": "string"
        }
      ],
      "name": "setTokenBuild",
      "outputs": [],
      "stateMutability": "nonpayable",
      "type": "function"
    },
    {
      "inputs": [
        {
          "internalType": "uint256",
          "name": "tokenId",
          "type": "uint256"
        },
        {
          "internalType": "string",
          "name": "_tokenDescription",
          "type": "string"
        }
      ],
      "name": "setTokenDescription",
      "outputs": [],
      "stateMutability": "nonpayable",
      "type": "function"
    },
    {
      "inputs": [
        {
          "internalType": "uint256",
          "name": "tokenId",
          "type": "uint256"
        },
        {
          "internalType": "string",
          "name": "_tokenENS",
          "type": "string"
        }
      ],
      "name": "setTokenENS",
      "outputs": [],
      "stateMutability": "nonpayable",
      "type": "function"
    },
    {
      "inputs": [
        {
          "internalType": "uint256",
          "name": "tokenId",
          "type": "uint256"
        },
        {
          "internalType": "string",
          "name": "_tokenExternalURL",
          "type": "string"
        }
      ],
      "name": "setTokenExternalURL",
      "outputs": [],
      "stateMutability": "nonpayable",
      "type": "function"
    },
    {
      "inputs": [
        {
          "internalType": "uint256",
          "name": "tokenId",
          "type": "uint256"
        },
        {
          "internalType": "string",
          "name": "_tokenImage",
          "type": "string"
        }
      ],
      "name": "setTokenImage",
      "outputs": [],
      "stateMutability": "nonpayable",
      "type": "function"
    },
    {
      "inputs": [
        {
          "internalType": "uint256",
          "name": "tokenId",
          "type": "uint256"
        },
        {
          "internalType": "string",
          "name": "_tokenName",
          "type": "string"
        }
      ],
      "name": "setTokenName",
      "outputs": [],
      "stateMutability": "nonpayable",
      "type": "function"
    },
    {
      "inputs": [
        {
          "internalType": "bytes4",
          "name": "interfaceId",
          "type": "bytes4"
        }
      ],
      "name": "supportsInterface",
      "outputs": [
        {
          "internalType": "bool",
          "name": "",
          "type": "bool"
        }
      ],
      "stateMutability": "view",
      "type": "function"
    },
    {
      "inputs": [],
      "name": "symbol",
      "outputs": [
        {
          "internalType": "string",
          "name": "",
          "type": "string"
        }
      ],
      "stateMutability": "view",
      "type": "function"
    },
    {
      "inputs": [
        {
          "internalType": "uint256",
          "name": "tokenId",
          "type": "uint256"
        }
      ],
      "name": "tokenURI",
      "outputs": [
        {
          "internalType": "string",
          "name": "",
          "type": "string"
        }
      ],
      "stateMutability": "view",
      "type": "function"
    },
    {
      "inputs": [
        {
          "internalType": "address",
          "name": "from",
          "type": "address"
        },
        {
          "internalType": "address",
          "name": "to",
          "type": "address"
        },
        {
          "internalType": "uint256",
          "name": "tokenId",
          "type": "uint256"
        }
      ],
      "name": "transferFrom",
      "outputs": [],
      "stateMutability": "nonpayable",
      "type": "function"
    }
  ],
  "transactionHash": "0xf0fd5f90e880efa81c1bd2e80c996e96860126503b4782f1c3a16ef58ab8a2fd",
  "args": [
    "FleekSites",
    "FLKSITE"
  ],
  "numDeployments": 2,
  "solcInputHash": "b88731ab6401d18abef5bd8425a23961",
  "bytecode": "0x60806040523480156200001157600080fd5b5060405162005d4738038062005d478339818101604052810190620000379190620003ab565b81818160009080519060200190620000519291906200027d565b5080600190805190602001906200006a9291906200027d565b505050620000806000336200008860201b60201c565b505062000645565b6000620000a160066200016d60201b62001b961760201c565b905062000102600760008381526020019081526020016000206000856001811115620000d257620000d162000593565b5b6001811115620000e757620000e662000593565b5b8152602001908152602001600020836200017b60201b60201c565b8173ffffffffffffffffffffffffffffffffffffffff168360018111156200012f576200012e62000593565b5b7fcf081ed2b728e3115904be00eb8927b2375ff3401839b37f7accfa1bb2bee15c3360405162000160919062000441565b60405180910390a3505050565b600081600001549050919050565b60008260000160008373ffffffffffffffffffffffffffffffffffffffff1673ffffffffffffffffffffffffffffffffffffffff168152602001908152602001600020541415620002795781600101819080600181540180825580915050600190039060005260206000200160009091909190916101000a81548173ffffffffffffffffffffffffffffffffffffffff021916908373ffffffffffffffffffffffffffffffffffffffff16021790555081600101805490508260000160008373ffffffffffffffffffffffffffffffffffffffff1673ffffffffffffffffffffffffffffffffffffffff168152602001908152602001600020819055505b5050565b8280546200028b9062000527565b90600052602060002090601f016020900481019282620002af5760008555620002fb565b82601f10620002ca57805160ff1916838001178555620002fb565b82800160010185558215620002fb579182015b82811115620002fa578251825591602001919060010190620002dd565b5b5090506200030a91906200030e565b5090565b5b80821115620003295760008160009055506001016200030f565b5090565b6000620003446200033e8462000487565b6200045e565b90508281526020810184848401111562000363576200036262000625565b5b62000370848285620004f1565b509392505050565b600082601f83011262000390576200038f62000620565b5b8151620003a28482602086016200032d565b91505092915050565b60008060408385031215620003c557620003c46200062f565b5b600083015167ffffffffffffffff811115620003e657620003e56200062a565b5b620003f48582860162000378565b925050602083015167ffffffffffffffff8111156200041857620004176200062a565b5b620004268582860162000378565b9150509250929050565b6200043b81620004bd565b82525050565b600060208201905062000458600083018462000430565b92915050565b60006200046a6200047d565b90506200047882826200055d565b919050565b6000604051905090565b600067ffffffffffffffff821115620004a557620004a4620005f1565b5b620004b08262000634565b9050602081019050919050565b6000620004ca82620004d1565b9050919050565b600073ffffffffffffffffffffffffffffffffffffffff82169050919050565b60005b8381101562000511578082015181840152602081019050620004f4565b8381111562000521576000848401525b50505050565b600060028204905060018216806200054057607f821691505b60208210811415620005575762000556620005c2565b5b50919050565b620005688262000634565b810181811067ffffffffffffffff821117156200058a5762000589620005f1565b5b80604052505050565b7f4e487b7100000000000000000000000000000000000000000000000000000000600052602160045260246000fd5b7f4e487b7100000000000000000000000000000000000000000000000000000000600052602260045260246000fd5b7f4e487b7100000000000000000000000000000000000000000000000000000000600052604160045260246000fd5b600080fd5b600080fd5b600080fd5b600080fd5b6000601f19601f8301169050919050565b6156f280620006556000396000f3fe6080604052600436106101c25760003560e01c806364140ec0116100f7578063b42dbe3811610095578063cdb0e89e11610064578063cdb0e89e14610673578063e94472501461069c578063e985e9c5146106d9578063f931517714610716576101c2565b8063b42dbe38146105a0578063b543be12146105dd578063b88d4fde1461060d578063c87b56dd14610636576101c2565b80638c3c0a44116100d15780638c3c0a44146104fa57806395d89b4114610523578063a22cb4651461054e578063a27d0b2714610577576101c2565b806364140ec01461046b57806370a082311461049457806378278cca146104d1576101c2565b80632d957aad116101645780633806f1521161013e5780633806f152146103b357806342842e0e146103dc57806342966c68146104055780636352211e1461042e576101c2565b80632d957aad146103105780632f1e8f0a14610339578063353b07a414610376576101c2565b8063081812fc116101a0578063081812fc14610258578063095ea7b31461029557806323b872dd146102be578063246a908b146102e7576101c2565b806301468deb146101c757806301ffc9a7146101f057806306fdde031461022d575b600080fd5b3480156101d357600080fd5b506101ee60048036038101906101e99190613ede565b61073f565b005b3480156101fc57600080fd5b5061021760048036038101906102129190613daa565b6107b1565b604051610224919061483b565b60405180910390f35b34801561023957600080fd5b506102426107c3565b60405161024f9190614856565b60405180910390f35b34801561026457600080fd5b5061027f600480360381019061027a9190613e71565b610855565b60405161028c91906147b2565b60405180910390f35b3480156102a157600080fd5b506102bc60048036038101906102b79190613d6a565b61089b565b005b3480156102ca57600080fd5b506102e560048036038101906102e09190613ada565b6109b3565b005b3480156102f357600080fd5b5061030e60048036038101906103099190613f31565b610a13565b005b34801561031c57600080fd5b5061033760048036038101906103329190613e31565b610b07565b005b34801561034557600080fd5b50610360600480360381019061035b9190613e9e565b610b73565b60405161036d9190614819565b60405180910390f35b34801561038257600080fd5b5061039d60048036038101906103989190613e04565b610c7e565b6040516103aa9190614819565b60405180910390f35b3480156103bf57600080fd5b506103da60048036038101906103d59190613f8d565b610d66565b005b3480156103e857600080fd5b5061040360048036038101906103fe9190613ada565b610ed1565b005b34801561041157600080fd5b5061042c60048036038101906104279190613e71565b610ef1565b005b34801561043a57600080fd5b5061045560048036038101906104509190613e71565b610ff8565b60405161046291906147b2565b60405180910390f35b34801561047757600080fd5b50610492600480360381019061048d9190613f31565b61107f565b005b3480156104a057600080fd5b506104bb60048036038101906104b69190613a6d565b611173565b6040516104c89190614a38565b60405180910390f35b3480156104dd57600080fd5b506104f860048036038101906104f39190613f31565b61122b565b005b34801561050657600080fd5b50610521600480360381019061051c9190613e31565b61131f565b005b34801561052f57600080fd5b5061053861138b565b6040516105459190614856565b60405180910390f35b34801561055a57600080fd5b5061057560048036038101906105709190613bb0565b61141d565b005b34801561058357600080fd5b5061059e60048036038101906105999190613ede565b611433565b005b3480156105ac57600080fd5b506105c760048036038101906105c29190613ede565b6114a5565b6040516105d4919061483b565b60405180910390f35b6105f760048036038101906105f29190613bf0565b61156d565b6040516106049190614a38565b60405180910390f35b34801561061957600080fd5b50610634600480360381019061062f9190613b2d565b611704565b005b34801561064257600080fd5b5061065d60048036038101906106589190613e71565b611766565b60405161066a9190614856565b60405180910390f35b34801561067f57600080fd5b5061069a60048036038101906106959190613f31565b611875565b005b3480156106a857600080fd5b506106c360048036038101906106be9190613e31565b611969565b6040516106d0919061483b565b60405180910390f35b3480156106e557600080fd5b5061070060048036038101906106fb9190613a9a565b611a0e565b60405161070d919061483b565b60405180910390f35b34801561072257600080fd5b5061073d60048036038101906107389190613f31565b611aa2565b005b82600061074d8282336114a5565b80610760575061075f826000336114a5565b5b61079f576040517f08c379a000000000000000000000000000000000000000000000000000000000815260040161079690614a18565b60405180910390fd5b6107aa858585611ba4565b5050505050565b60006107bc82611c8d565b9050919050565b6060600080546107d290614d60565b80601f01602080910402602001604051908101604052809291908181526020018280546107fe90614d60565b801561084b5780601f106108205761010080835404028352916020019161084b565b820191906000526020600020905b81548152906001019060200180831161082e57829003601f168201915b5050505050905090565b600061086082611d6f565b6004600083815260200190815260200160002060009054906101000a900473ffffffffffffffffffffffffffffffffffffffff169050919050565b60006108a682610ff8565b90508073ffffffffffffffffffffffffffffffffffffffff168373ffffffffffffffffffffffffffffffffffffffff161415610917576040517f08c379a000000000000000000000000000000000000000000000000000000000815260040161090e906149d8565b60405180910390fd5b8073ffffffffffffffffffffffffffffffffffffffff16610936611dba565b73ffffffffffffffffffffffffffffffffffffffff16148061096557506109648161095f611dba565b611a0e565b5b6109a4576040517f08c379a000000000000000000000000000000000000000000000000000000000815260040161099b906149f8565b60405180910390fd5b6109ae8383611dc2565b505050565b6109c46109be611dba565b82611e7b565b610a03576040517f08c379a00000000000000000000000000000000000000000000000000000000081526004016109fa90614898565b60405180910390fd5b610a0e838383611f10565b505050565b816001610a218282336114a5565b80610a345750610a33826000336114a5565b5b610a73576040517f08c379a0000000000000000000000000000000000000000000000000000000008152600401610a6a90614a18565b60405180910390fd5b610a7c84611d6f565b82600b60008681526020019081526020016000206001019080519060200190610aa692919061382c565b503373ffffffffffffffffffffffffffffffffffffffff1683604051610acc9190614606565b6040518091039020857fd771eaa1c1382b0a9867125fcd921fdeddd211538b5381353a877abfbe3b50a460405160405180910390a450505050565b6000610b138133611969565b80610b255750610b24600033611969565b5b610b64576040517f08c379a0000000000000000000000000000000000000000000000000000000008152600401610b5b90614918565b60405180910390fd5b610b6e838361220a565b505050565b60606000610b9260086000868152602001908152602001600020611b96565b90506009600085815260200190815260200160002060008281526020019081526020016000206000846001811115610bcd57610bcc614e6a565b5b6001811115610bdf57610bde614e6a565b5b8152602001908152602001600020600101805480602002602001604051908101604052809291908181526020018280548015610c7057602002820191906000526020600020905b8160009054906101000a900473ffffffffffffffffffffffffffffffffffffffff1673ffffffffffffffffffffffffffffffffffffffff1681526020019060010190808311610c26575b505050505091505092915050565b60606000610c8c6006611b96565b9050600760008281526020019081526020016000206000846001811115610cb657610cb5614e6a565b5b6001811115610cc857610cc7614e6a565b5b8152602001908152602001600020600101805480602002602001604051908101604052809291908181526020018280548015610d5957602002820191906000526020600020905b8160009054906101000a900473ffffffffffffffffffffffffffffffffffffffff1673ffffffffffffffffffffffffffffffffffffffff1681526020019060010190808311610d0f575b5050505050915050919050565b826001610d748282336114a5565b80610d875750610d86826000336114a5565b5b610dc6576040517f08c379a0000000000000000000000000000000000000000000000000000000008152600401610dbd90614a18565b60405180910390fd5b610dcf85611d6f565b604051806040016040528085815260200184815250600b60008781526020019081526020016000206006016000600b600089815260200190815260200160002060050160008154610e1f90614dc3565b91905081905581526020019081526020016000206000820151816000019080519060200190610e4f92919061382c565b506020820151816001019080519060200190610e6c92919061382c565b509050503373ffffffffffffffffffffffffffffffffffffffff1684604051610e959190614606565b6040518091039020867f73b929bf4db6be678cdbc6d41a5fe0a2cbb84ca95572062c4a978d8bd80a41b160405160405180910390a45050505050565b610eec83838360405180602001604052806000815250611704565b505050565b806000610eff8282336114a5565b80610f125750610f11826000336114a5565b5b610f51576040517f08c379a0000000000000000000000000000000000000000000000000000000008152600401610f4890614a18565b60405180910390fd5b610f5a836122cf565b6000600b60008581526020019081526020016000206003018054610f7d90614d60565b905014610ff357600b600084815260200190815260200160002060008082016000610fa891906138b2565b600182016000610fb891906138b2565b600282016000610fc891906138b2565b600382016000610fd891906138b2565b600482016000610fe891906138b2565b600582016000905550505b505050565b6000806110048361241d565b9050600073ffffffffffffffffffffffffffffffffffffffff168173ffffffffffffffffffffffffffffffffffffffff161415611076576040517f08c379a000000000000000000000000000000000000000000000000000000000815260040161106d906149b8565b60405180910390fd5b80915050919050565b81600161108d8282336114a5565b806110a0575061109f826000336114a5565b5b6110df576040517f08c379a00000000000000000000000000000000000000000000000000000000081526004016110d690614a18565b60405180910390fd5b6110e884611d6f565b82600b6000868152602001908152602001600020600201908051906020019061111292919061382c565b503373ffffffffffffffffffffffffffffffffffffffff16836040516111389190614606565b6040518091039020857f80f081796a13b5a4269815447e37462c5739a69ea7f1460301b595e0c4003d8360405160405180910390a450505050565b60008073ffffffffffffffffffffffffffffffffffffffff168273ffffffffffffffffffffffffffffffffffffffff1614156111e4576040517f08c379a00000000000000000000000000000000000000000000000000000000081526004016111db90614978565b60405180910390fd5b600360008373ffffffffffffffffffffffffffffffffffffffff1673ffffffffffffffffffffffffffffffffffffffff168152602001908152602001600020549050919050565b8160016112398282336114a5565b8061124c575061124b826000336114a5565b5b61128b576040517f08c379a000000000000000000000000000000000000000000000000000000000815260040161128290614a18565b60405180910390fd5b61129484611d6f565b82600b600086815260200190815260200160002060040190805190602001906112be92919061382c565b503373ffffffffffffffffffffffffffffffffffffffff16836040516112e49190614606565b6040518091039020857f91ce7fcd4462481791c3fe849f7049373c5b43ef44aed48e7f1ecce781586e1560405160405180910390a450505050565b600061132b8133611969565b8061133d575061133c600033611969565b5b61137c576040517f08c379a000000000000000000000000000000000000000000000000000000000815260040161137390614918565b60405180910390fd5b611386838361245a565b505050565b60606001805461139a90614d60565b80601f01602080910402602001604051908101604052809291908181526020018280546113c690614d60565b80156114135780601f106113e857610100808354040283529160200191611413565b820191906000526020600020905b8154815290600101906020018083116113f657829003601f168201915b5050505050905090565b61142f611428611dba565b838361251f565b5050565b8260006114418282336114a5565b806114545750611453826000336114a5565b5b611493576040517f08c379a000000000000000000000000000000000000000000000000000000000815260040161148a90614a18565b60405180910390fd5b61149e85858561268c565b5050505050565b6000806114c360086000878152602001908152602001600020611b96565b905060006009600087815260200190815260200160002060008381526020019081526020016000206000866001811115611500576114ff614e6a565b5b600181111561151257611511614e6a565b5b815260200190815260200160002060000160008573ffffffffffffffffffffffffffffffffffffffff1673ffffffffffffffffffffffffffffffffffffffff1681526020019081526020016000205414159150509392505050565b60008061157a8133611969565b8061158c575061158b600033611969565b5b6115cb576040517f08c379a00000000000000000000000000000000000000000000000000000000081526004016115c290614918565b60405180910390fd5b60006115d7600a611b96565b90506115e38b82612775565b6115ed600a612993565b6000600b600083815260200190815260200160002090508a81600001908051906020019061161c92919061382c565b508981600101908051906020019061163592919061382c565b508881600201908051906020019061164e92919061382c565b508781600301908051906020019061166792919061382c565b508681600401908051906020019061168092919061382c565b506000816005018190555060405180604001604052808781526020018681525081600601600080815260200190815260200160002060008201518160000190805190602001906116d192919061382c565b5060208201518160010190805190602001906116ee92919061382c565b5090505081935050505098975050505050505050565b61171561170f611dba565b83611e7b565b611754576040517f08c379a000000000000000000000000000000000000000000000000000000000815260040161174b90614898565b60405180910390fd5b611760848484846129a9565b50505050565b606061177182611d6f565b600061177c83610ff8565b90506000600b60008581526020019081526020016000209050600081600001826001016117c08573ffffffffffffffffffffffffffffffffffffffff166014612a05565b846003018560020186600401876006016000896005015481526020019081526020016000206000018860060160008a6005015481526020019081526020016000206001016118118a60050154612c41565b60405160200161182999989796959493929190614641565b6040516020818303038152906040529050611842612d19565b61184b82612d56565b60405160200161185c92919061461d565b6040516020818303038152906040529350505050919050565b8160016118838282336114a5565b806118965750611895826000336114a5565b5b6118d5576040517f08c379a00000000000000000000000000000000000000000000000000000000081526004016118cc90614a18565b60405180910390fd5b6118de84611d6f565b82600b6000868152602001908152602001600020600001908051906020019061190892919061382c565b503373ffffffffffffffffffffffffffffffffffffffff168360405161192e9190614606565b6040518091039020857ffbbfca16a2770c7ca6e7063ab1a7eea5fe441ffef818325db51752066a6b128a60405160405180910390a450505050565b6000806119766006611b96565b905060006007600083815260200190815260200160002060008660018111156119a2576119a1614e6a565b5b60018111156119b4576119b3614e6a565b5b815260200190815260200160002060000160008573ffffffffffffffffffffffffffffffffffffffff1673ffffffffffffffffffffffffffffffffffffffff16815260200190815260200160002054141591505092915050565b6000600560008473ffffffffffffffffffffffffffffffffffffffff1673ffffffffffffffffffffffffffffffffffffffff16815260200190815260200160002060008373ffffffffffffffffffffffffffffffffffffffff1673ffffffffffffffffffffffffffffffffffffffff16815260200190815260200160002060009054906101000a900460ff16905092915050565b816001611ab08282336114a5565b80611ac35750611ac2826000336114a5565b5b611b02576040517f08c379a0000000000000000000000000000000000000000000000000000000008152600401611af990614a18565b60405180910390fd5b611b0b84611d6f565b82600b60008681526020019081526020016000206003019080519060200190611b3592919061382c565b503373ffffffffffffffffffffffffffffffffffffffff1683604051611b5b9190614606565b6040518091039020857fedbf1209b3baa7c1b5c43052ce5c511e243b3241d9f67733141d14f1da88cba160405160405180910390a450505050565b600081600001549050919050565b6000611bc160086000868152602001908152602001600020611b96565b9050611c256009600086815260200190815260200160002060008381526020019081526020016000206000856001811115611bff57611bfe614e6a565b5b6001811115611c1157611c10614e6a565b5b815260200190815260200160002083612eba565b8173ffffffffffffffffffffffffffffffffffffffff16836001811115611c4f57611c4e614e6a565b5b857fe52d746e4c78c98c6bfa291b273406905c3e8550b7d911a6bea686368c2dc79d33604051611c7f91906147b2565b60405180910390a450505050565b60007f80ac58cd000000000000000000000000000000000000000000000000000000007bffffffffffffffffffffffffffffffffffffffffffffffffffffffff1916827bffffffffffffffffffffffffffffffffffffffffffffffffffffffff19161480611d5857507f5b5e139f000000000000000000000000000000000000000000000000000000007bffffffffffffffffffffffffffffffffffffffffffffffffffffffff1916827bffffffffffffffffffffffffffffffffffffffffffffffffffffffff1916145b80611d685750611d67826130f9565b5b9050919050565b611d7881613163565b611db7576040517f08c379a0000000000000000000000000000000000000000000000000000000008152600401611dae906149b8565b60405180910390fd5b50565b600033905090565b816004600083815260200190815260200160002060006101000a81548173ffffffffffffffffffffffffffffffffffffffff021916908373ffffffffffffffffffffffffffffffffffffffff160217905550808273ffffffffffffffffffffffffffffffffffffffff16611e3583610ff8565b73ffffffffffffffffffffffffffffffffffffffff167f8c5be1e5ebec7d5bd14f71427d1e84f3dd0314c0f7b2291e5b200ac8c7c3b92560405160405180910390a45050565b600080611e8783610ff8565b90508073ffffffffffffffffffffffffffffffffffffffff168473ffffffffffffffffffffffffffffffffffffffff161480611ec95750611ec88185611a0e565b5b80611f0757508373ffffffffffffffffffffffffffffffffffffffff16611eef84610855565b73ffffffffffffffffffffffffffffffffffffffff16145b91505092915050565b8273ffffffffffffffffffffffffffffffffffffffff16611f3082610ff8565b73ffffffffffffffffffffffffffffffffffffffff1614611f86576040517f08c379a0000000000000000000000000000000000000000000000000000000008152600401611f7d906148d8565b60405180910390fd5b600073ffffffffffffffffffffffffffffffffffffffff168273ffffffffffffffffffffffffffffffffffffffff161415611ff6576040517f08c379a0000000000000000000000000000000000000000000000000000000008152600401611fed90614938565b60405180910390fd5b61200383838360016131a4565b8273ffffffffffffffffffffffffffffffffffffffff1661202382610ff8565b73ffffffffffffffffffffffffffffffffffffffff1614612079576040517f08c379a0000000000000000000000000000000000000000000000000000000008152600401612070906148d8565b60405180910390fd5b6004600082815260200190815260200160002060006101000a81549073ffffffffffffffffffffffffffffffffffffffff02191690556001600360008573ffffffffffffffffffffffffffffffffffffffff1673ffffffffffffffffffffffffffffffffffffffff168152602001908152602001600020600082825403925050819055506001600360008473ffffffffffffffffffffffffffffffffffffffff1673ffffffffffffffffffffffffffffffffffffffff16815260200190815260200160002060008282540192505081905550816002600083815260200190815260200160002060006101000a81548173ffffffffffffffffffffffffffffffffffffffff021916908373ffffffffffffffffffffffffffffffffffffffff160217905550808273ffffffffffffffffffffffffffffffffffffffff168473ffffffffffffffffffffffffffffffffffffffff167fddf252ad1be2c89b69c2b068fc378daa952ba7f163c4a11628f55a4df523b3ef60405160405180910390a461220583838360016132bb565b505050565b60006122166006611b96565b905061226960076000838152602001908152602001600020600085600181111561224357612242614e6a565b5b600181111561225557612254614e6a565b5b8152602001908152602001600020836132c1565b8173ffffffffffffffffffffffffffffffffffffffff1683600181111561229357612292614e6a565b5b7fcf081ed2b728e3115904be00eb8927b2375ff3401839b37f7accfa1bb2bee15c336040516122c291906147b2565b60405180910390a3505050565b60006122da82610ff8565b90506122ea8160008460016131a4565b6122f382610ff8565b90506004600083815260200190815260200160002060006101000a81549073ffffffffffffffffffffffffffffffffffffffff02191690556001600360008373ffffffffffffffffffffffffffffffffffffffff1673ffffffffffffffffffffffffffffffffffffffff168152602001908152602001600020600082825403925050819055506002600083815260200190815260200160002060006101000a81549073ffffffffffffffffffffffffffffffffffffffff021916905581600073ffffffffffffffffffffffffffffffffffffffff168273ffffffffffffffffffffffffffffffffffffffff167fddf252ad1be2c89b69c2b068fc378daa952ba7f163c4a11628f55a4df523b3ef60405160405180910390a46124198160008460016132bb565b5050565b60006002600083815260200190815260200160002060009054906101000a900473ffffffffffffffffffffffffffffffffffffffff169050919050565b60006124666006611b96565b90506124b960076000838152602001908152602001600020600085600181111561249357612492614e6a565b5b60018111156124a5576124a4614e6a565b5b815260200190815260200160002083612eba565b8173ffffffffffffffffffffffffffffffffffffffff168360018111156124e3576124e2614e6a565b5b7faeff57f0f5e4d3d10a37d4a70fde8ed67a95e67b251d5c512c0ea98c380d2f953360405161251291906147b2565b60405180910390a3505050565b8173ffffffffffffffffffffffffffffffffffffffff168373ffffffffffffffffffffffffffffffffffffffff16141561258e576040517f08c379a000000000000000000000000000000000000000000000000000000000815260040161258590614958565b60405180910390fd5b80600560008573ffffffffffffffffffffffffffffffffffffffff1673ffffffffffffffffffffffffffffffffffffffff16815260200190815260200160002060008473ffffffffffffffffffffffffffffffffffffffff1673ffffffffffffffffffffffffffffffffffffffff16815260200190815260200160002060006101000a81548160ff0219169083151502179055508173ffffffffffffffffffffffffffffffffffffffff168373ffffffffffffffffffffffffffffffffffffffff167f17307eab39ab6107e8899845ad3d59bd9653f200f220920489ca2b5937696c318360405161267f919061483b565b60405180910390a3505050565b60006126a960086000868152602001908152602001600020611b96565b905061270d60096000868152602001908152602001600020600083815260200190815260200160002060008560018111156126e7576126e6614e6a565b5b60018111156126f9576126f8614e6a565b5b8152602001908152602001600020836132c1565b8173ffffffffffffffffffffffffffffffffffffffff1683600181111561273757612736614e6a565b5b857f0bf5a13b362503fcc74b8b9b1598aba2f3a9af85d05ba7978f7e9f447f22c2393360405161276791906147b2565b60405180910390a450505050565b600073ffffffffffffffffffffffffffffffffffffffff168273ffffffffffffffffffffffffffffffffffffffff1614156127e5576040517f08c379a00000000000000000000000000000000000000000000000000000000081526004016127dc90614998565b60405180910390fd5b6127ee81613163565b1561282e576040517f08c379a0000000000000000000000000000000000000000000000000000000008152600401612825906148f8565b60405180910390fd5b61283c6000838360016131a4565b61284581613163565b15612885576040517f08c379a000000000000000000000000000000000000000000000000000000000815260040161287c906148f8565b60405180910390fd5b6001600360008473ffffffffffffffffffffffffffffffffffffffff1673ffffffffffffffffffffffffffffffffffffffff16815260200190815260200160002060008282540192505081905550816002600083815260200190815260200160002060006101000a81548173ffffffffffffffffffffffffffffffffffffffff021916908373ffffffffffffffffffffffffffffffffffffffff160217905550808273ffffffffffffffffffffffffffffffffffffffff16600073ffffffffffffffffffffffffffffffffffffffff167fddf252ad1be2c89b69c2b068fc378daa952ba7f163c4a11628f55a4df523b3ef60405160405180910390a461298f6000838360016132bb565b5050565b6001816000016000828254019250508190555050565b6129b4848484611f10565b6129c0848484846133c2565b6129ff576040517f08c379a00000000000000000000000000000000000000000000000000000000081526004016129f6906148b8565b60405180910390fd5b50505050565b606060006002836002612a189190614bf2565b612a229190614b6b565b67ffffffffffffffff811115612a3b57612a3a614f26565b5b6040519080825280601f01601f191660200182016040528015612a6d5781602001600182028036833780820191505090505b5090507f300000000000000000000000000000000000000000000000000000000000000081600081518110612aa557612aa4614ef7565b5b60200101907effffffffffffffffffffffffffffffffffffffffffffffffffffffffffffff1916908160001a9053507f780000000000000000000000000000000000000000000000000000000000000081600181518110612b0957612b08614ef7565b5b60200101907effffffffffffffffffffffffffffffffffffffffffffffffffffffffffffff1916908160001a90535060006001846002612b499190614bf2565b612b539190614b6b565b90505b6001811115612bf3577f3031323334353637383961626364656600000000000000000000000000000000600f861660108110612b9557612b94614ef7565b5b1a60f81b828281518110612bac57612bab614ef7565b5b60200101907effffffffffffffffffffffffffffffffffffffffffffffffffffffffffffff1916908160001a905350600485901c945080612bec90614d36565b9050612b56565b5060008414612c37576040517f08c379a0000000000000000000000000000000000000000000000000000000008152600401612c2e90614878565b60405180910390fd5b8091505092915050565b606060006001612c5084613559565b01905060008167ffffffffffffffff811115612c6f57612c6e614f26565b5b6040519080825280601f01601f191660200182016040528015612ca15781602001600182028036833780820191505090505b509050600082602001820190505b600115612d0e578080600190039150507f3031323334353637383961626364656600000000000000000000000000000000600a86061a8153600a8581612cf857612cf7614e3b565b5b0494506000851415612d0957612d0e565b612caf565b819350505050919050565b60606040518060400160405280601d81526020017f646174613a6170706c69636174696f6e2f6a736f6e3b6261736536342c000000815250905090565b6060600082511415612d7957604051806020016040528060008152509050612eb5565b600060405180606001604052806040815260200161567d6040913990506000600360028551612da89190614b6b565b612db29190614bc1565b6004612dbe9190614bf2565b67ffffffffffffffff811115612dd757612dd6614f26565b5b6040519080825280601f01601f191660200182016040528015612e095781602001600182028036833780820191505090505b509050600182016020820185865187015b80821015612e75576003820191508151603f8160121c168501518453600184019350603f81600c1c168501518453600184019350603f8160061c168501518453600184019350603f8116850151845360018401935050612e1a565b5050600386510660018114612e915760028114612ea457612eac565b603d6001830353603d6002830353612eac565b603d60018303535b50505080925050505b919050565b60008260000160008373ffffffffffffffffffffffffffffffffffffffff1673ffffffffffffffffffffffffffffffffffffffff16815260200190815260200160002054146130f557600060018360000160008473ffffffffffffffffffffffffffffffffffffffff1673ffffffffffffffffffffffffffffffffffffffff16815260200190815260200160002054612f539190614c4c565b9050600060018460010180549050612f6b9190614c4c565b90506000846001018281548110612f8557612f84614ef7565b5b9060005260206000200160009054906101000a900473ffffffffffffffffffffffffffffffffffffffff16905080856001018481548110612fc957612fc8614ef7565b5b9060005260206000200160006101000a81548173ffffffffffffffffffffffffffffffffffffffff021916908373ffffffffffffffffffffffffffffffffffffffff16021790555060018361301e9190614b6b565b8560000160008373ffffffffffffffffffffffffffffffffffffffff1673ffffffffffffffffffffffffffffffffffffffff168152602001908152602001600020819055508460010180548061307757613076614ec8565b5b6001900381819060005260206000200160006101000a81549073ffffffffffffffffffffffffffffffffffffffff021916905590558460000160008573ffffffffffffffffffffffffffffffffffffffff1673ffffffffffffffffffffffffffffffffffffffff168152602001908152602001600020600090555050505b5050565b60007f01ffc9a7000000000000000000000000000000000000000000000000000000007bffffffffffffffffffffffffffffffffffffffffffffffffffffffff1916827bffffffffffffffffffffffffffffffffffffffffffffffffffffffff1916149050919050565b60008073ffffffffffffffffffffffffffffffffffffffff166131858361241d565b73ffffffffffffffffffffffffffffffffffffffff1614159050919050565b600073ffffffffffffffffffffffffffffffffffffffff168473ffffffffffffffffffffffffffffffffffffffff161415801561320e5750600073ffffffffffffffffffffffffffffffffffffffff168373ffffffffffffffffffffffffffffffffffffffff1614155b156132225761321d82846136ac565b6132a9565b600073ffffffffffffffffffffffffffffffffffffffff168473ffffffffffffffffffffffffffffffffffffffff161415613268576132638260008561268c565b6132a8565b600073ffffffffffffffffffffffffffffffffffffffff168373ffffffffffffffffffffffffffffffffffffffff1614156132a7576132a6826136c5565b5b5b5b6132b5848484846136e3565b50505050565b50505050565b60008260000160008373ffffffffffffffffffffffffffffffffffffffff1673ffffffffffffffffffffffffffffffffffffffff1681526020019081526020016000205414156133be5781600101819080600181540180825580915050600190039060005260206000200160009091909190916101000a81548173ffffffffffffffffffffffffffffffffffffffff021916908373ffffffffffffffffffffffffffffffffffffffff16021790555081600101805490508260000160008373ffffffffffffffffffffffffffffffffffffffff1673ffffffffffffffffffffffffffffffffffffffff168152602001908152602001600020819055505b5050565b60006133e38473ffffffffffffffffffffffffffffffffffffffff16613809565b1561354c578373ffffffffffffffffffffffffffffffffffffffff1663150b7a0261340c611dba565b8786866040518563ffffffff1660e01b815260040161342e94939291906147cd565b602060405180830381600087803b15801561344857600080fd5b505af192505050801561347957506040513d601f19601f820116820180604052508101906134769190613dd7565b60015b6134fc573d80600081146134a9576040519150601f19603f3d011682016040523d82523d6000602084013e6134ae565b606091505b506000815114156134f4576040517f08c379a00000000000000000000000000000000000000000000000000000000081526004016134eb906148b8565b60405180910390fd5b805181602001fd5b63150b7a0260e01b7bffffffffffffffffffffffffffffffffffffffffffffffffffffffff1916817bffffffffffffffffffffffffffffffffffffffffffffffffffffffff191614915050613551565b600190505b949350505050565b600080600090507a184f03e93ff9f4daa797ed6e38ed64bf6a1f01000000000000000083106135b7577a184f03e93ff9f4daa797ed6e38ed64bf6a1f01000000000000000083816135ad576135ac614e3b565b5b0492506040810190505b6d04ee2d6d415b85acef810000000083106135f4576d04ee2d6d415b85acef810000000083816135ea576135e9614e3b565b5b0492506020810190505b662386f26fc10000831061362357662386f26fc10000838161361957613618614e3b565b5b0492506010810190505b6305f5e100831061364c576305f5e100838161364257613641614e3b565b5b0492506008810190505b612710831061367157612710838161366757613666614e3b565b5b0492506004810190505b60648310613694576064838161368a57613689614e3b565b5b0492506002810190505b600a83106136a3576001810190505b80915050919050565b6136b5826136c5565b6136c18260008361268c565b5050565b6136e060086000838152602001908152602001600020612993565b50565b600181111561380357600073ffffffffffffffffffffffffffffffffffffffff168473ffffffffffffffffffffffffffffffffffffffff16146137775780600360008673ffffffffffffffffffffffffffffffffffffffff1673ffffffffffffffffffffffffffffffffffffffff168152602001908152602001600020600082825461376f9190614c4c565b925050819055505b600073ffffffffffffffffffffffffffffffffffffffff168373ffffffffffffffffffffffffffffffffffffffff16146138025780600360008573ffffffffffffffffffffffffffffffffffffffff1673ffffffffffffffffffffffffffffffffffffffff16815260200190815260200160002060008282546137fa9190614b6b565b925050819055505b5b50505050565b6000808273ffffffffffffffffffffffffffffffffffffffff163b119050919050565b82805461383890614d60565b90600052602060002090601f01602090048101928261385a57600085556138a1565b82601f1061387357805160ff19168380011785556138a1565b828001600101855582156138a1579182015b828111156138a0578251825591602001919060010190613885565b5b5090506138ae91906138f2565b5090565b5080546138be90614d60565b6000825580601f106138d057506138ef565b601f0160209004906000526020600020908101906138ee91906138f2565b5b50565b5b8082111561390b5760008160009055506001016138f3565b5090565b600061392261391d84614a78565b614a53565b90508281526020810184848401111561393e5761393d614f5a565b5b613949848285614cf4565b509392505050565b600061396461395f84614aa9565b614a53565b9050828152602081018484840111156139805761397f614f5a565b5b61398b848285614cf4565b509392505050565b6000813590506139a281615610565b92915050565b6000813590506139b781615627565b92915050565b6000813590506139cc8161563e565b92915050565b6000815190506139e18161563e565b92915050565b600082601f8301126139fc576139fb614f55565b5b8135613a0c84826020860161390f565b91505092915050565b600081359050613a2481615655565b92915050565b600082601f830112613a3f57613a3e614f55565b5b8135613a4f848260208601613951565b91505092915050565b600081359050613a6781615665565b92915050565b600060208284031215613a8357613a82614f64565b5b6000613a9184828501613993565b91505092915050565b60008060408385031215613ab157613ab0614f64565b5b6000613abf85828601613993565b9250506020613ad085828601613993565b9150509250929050565b600080600060608486031215613af357613af2614f64565b5b6000613b0186828701613993565b9350506020613b1286828701613993565b9250506040613b2386828701613a58565b9150509250925092565b60008060008060808587031215613b4757613b46614f64565b5b6000613b5587828801613993565b9450506020613b6687828801613993565b9350506040613b7787828801613a58565b925050606085013567ffffffffffffffff811115613b9857613b97614f5f565b5b613ba4878288016139e7565b91505092959194509250565b60008060408385031215613bc757613bc6614f64565b5b6000613bd585828601613993565b9250506020613be6858286016139a8565b9150509250929050565b600080600080600080600080610100898b031215613c1157613c10614f64565b5b6000613c1f8b828c01613993565b985050602089013567ffffffffffffffff811115613c4057613c3f614f5f565b5b613c4c8b828c01613a2a565b975050604089013567ffffffffffffffff811115613c6d57613c6c614f5f565b5b613c798b828c01613a2a565b965050606089013567ffffffffffffffff811115613c9a57613c99614f5f565b5b613ca68b828c01613a2a565b955050608089013567ffffffffffffffff811115613cc757613cc6614f5f565b5b613cd38b828c01613a2a565b94505060a089013567ffffffffffffffff811115613cf457613cf3614f5f565b5b613d008b828c01613a2a565b93505060c089013567ffffffffffffffff811115613d2157613d20614f5f565b5b613d2d8b828c01613a2a565b92505060e089013567ffffffffffffffff811115613d4e57613d4d614f5f565b5b613d5a8b828c01613a2a565b9150509295985092959890939650565b60008060408385031215613d8157613d80614f64565b5b6000613d8f85828601613993565b9250506020613da085828601613a58565b9150509250929050565b600060208284031215613dc057613dbf614f64565b5b6000613dce848285016139bd565b91505092915050565b600060208284031215613ded57613dec614f64565b5b6000613dfb848285016139d2565b91505092915050565b600060208284031215613e1a57613e19614f64565b5b6000613e2884828501613a15565b91505092915050565b60008060408385031215613e4857613e47614f64565b5b6000613e5685828601613a15565b9250506020613e6785828601613993565b9150509250929050565b600060208284031215613e8757613e86614f64565b5b6000613e9584828501613a58565b91505092915050565b60008060408385031215613eb557613eb4614f64565b5b6000613ec385828601613a58565b9250506020613ed485828601613a15565b9150509250929050565b600080600060608486031215613ef757613ef6614f64565b5b6000613f0586828701613a58565b9350506020613f1686828701613a15565b9250506040613f2786828701613993565b9150509250925092565b60008060408385031215613f4857613f47614f64565b5b6000613f5685828601613a58565b925050602083013567ffffffffffffffff811115613f7757613f76614f5f565b5b613f8385828601613a2a565b9150509250929050565b600080600060608486031215613fa657613fa5614f64565b5b6000613fb486828701613a58565b935050602084013567ffffffffffffffff811115613fd557613fd4614f5f565b5b613fe186828701613a2a565b925050604084013567ffffffffffffffff81111561400257614001614f5f565b5b61400e86828701613a2a565b9150509250925092565b60006140248383614030565b60208301905092915050565b61403981614c80565b82525050565b61404881614c80565b82525050565b600061405982614aff565b6140638185614b2d565b935061406e83614ada565b8060005b8381101561409f5781516140868882614018565b975061409183614b20565b925050600181019050614072565b5085935050505092915050565b6140b581614c92565b82525050565b60006140c682614b0a565b6140d08185614b3e565b93506140e0818560208601614d03565b6140e981614f69565b840191505092915050565b60006140ff82614b15565b6141098185614b4f565b9350614119818560208601614d03565b61412281614f69565b840191505092915050565b600061413882614b15565b6141428185614b60565b9350614152818560208601614d03565b80840191505092915050565b6000815461416b81614d60565b6141758186614b60565b9450600182166000811461419057600181146141a1576141d4565b60ff198316865281860193506141d4565b6141aa85614aea565b60005b838110156141cc578154818901526001820191506020810190506141ad565b838801955050505b50505092915050565b60006141ea602083614b4f565b91506141f582614f7a565b602082019050919050565b600061420d602d83614b4f565b915061421882614fa3565b604082019050919050565b6000614230601083614b60565b915061423b82614ff2565b601082019050919050565b6000614253603283614b4f565b915061425e8261501b565b604082019050919050565b6000614276600f83614b60565b91506142818261506a565b600f82019050919050565b6000614299600283614b60565b91506142a482615093565b600282019050919050565b60006142bc602583614b4f565b91506142c7826150bc565b604082019050919050565b60006142df602383614b60565b91506142ea8261510b565b602382019050919050565b6000614302601c83614b4f565b915061430d8261515a565b602082019050919050565b6000614325600383614b60565b915061433082615183565b600382019050919050565b6000614348602d83614b4f565b9150614353826151ac565b604082019050919050565b600061436b602483614b4f565b9150614376826151fb565b604082019050919050565b600061438e601983614b4f565b91506143998261524a565b602082019050919050565b60006143b1602683614b60565b91506143bc82615273565b602682019050919050565b60006143d4600883614b60565b91506143df826152c2565b600882019050919050565b60006143f7602983614b4f565b9150614402826152eb565b604082019050919050565b600061441a600983614b60565b91506144258261533a565b600982019050919050565b600061443d600283614b60565b915061444882615363565b600282019050919050565b6000614460602083614b4f565b915061446b8261538c565b602082019050919050565b6000614483600183614b60565b915061448e826153b5565b600182019050919050565b60006144a6600183614b60565b91506144b1826153de565b600182019050919050565b60006144c9600f83614b60565b91506144d482615407565b600f82019050919050565b60006144ec600983614b60565b91506144f782615430565b600982019050919050565b600061450f601883614b4f565b915061451a82615459565b602082019050919050565b6000614532601f83614b60565b915061453d82615482565b601f82019050919050565b6000614555600183614b60565b9150614560826154ab565b600182019050919050565b6000614578602183614b4f565b9150614583826154d4565b604082019050919050565b600061459b602783614b60565b91506145a682615523565b602782019050919050565b60006145be603d83614b4f565b91506145c982615572565b604082019050919050565b60006145e1602883614b4f565b91506145ec826155c1565b604082019050919050565b61460081614cea565b82525050565b6000614612828461412d565b915081905092915050565b6000614629828561412d565b9150614635828461412d565b91508190509392505050565b600061464c82614499565b9150614657826143c7565b9150614663828c61415e565b915061466e8261428c565b915061467982614269565b9150614685828b61415e565b91506146908261428c565b915061469b826144df565b91506146a7828a61412d565b91506146b28261428c565b91506146bd82614223565b91506146c9828961415e565b91506146d48261428c565b91506146df8261440d565b91506146eb828861415e565b91506146f68261428c565b9150614701826144bc565b915061470c82614525565b9150614718828761415e565b915061472382614318565b915061472e8261458e565b915061473a828661415e565b915061474582614318565b9150614750826143a4565b915061475c828561415e565b915061476782614318565b9150614772826142d2565b915061477e828461412d565b915061478982614430565b915061479482614548565b915061479f82614476565b91508190509a9950505050505050505050565b60006020820190506147c7600083018461403f565b92915050565b60006080820190506147e2600083018761403f565b6147ef602083018661403f565b6147fc60408301856145f7565b818103606083015261480e81846140bb565b905095945050505050565b60006020820190508181036000830152614833818461404e565b905092915050565b600060208201905061485060008301846140ac565b92915050565b6000602082019050818103600083015261487081846140f4565b905092915050565b60006020820190508181036000830152614891816141dd565b9050919050565b600060208201905081810360008301526148b181614200565b9050919050565b600060208201905081810360008301526148d181614246565b9050919050565b600060208201905081810360008301526148f1816142af565b9050919050565b60006020820190508181036000830152614911816142f5565b9050919050565b600060208201905081810360008301526149318161433b565b9050919050565b600060208201905081810360008301526149518161435e565b9050919050565b6000602082019050818103600083015261497181614381565b9050919050565b60006020820190508181036000830152614991816143ea565b9050919050565b600060208201905081810360008301526149b181614453565b9050919050565b600060208201905081810360008301526149d181614502565b9050919050565b600060208201905081810360008301526149f18161456b565b9050919050565b60006020820190508181036000830152614a11816145b1565b9050919050565b60006020820190508181036000830152614a31816145d4565b9050919050565b6000602082019050614a4d60008301846145f7565b92915050565b6000614a5d614a6e565b9050614a698282614d92565b919050565b6000604051905090565b600067ffffffffffffffff821115614a9357614a92614f26565b5b614a9c82614f69565b9050602081019050919050565b600067ffffffffffffffff821115614ac457614ac3614f26565b5b614acd82614f69565b9050602081019050919050565b6000819050602082019050919050565b60008190508160005260206000209050919050565b600081519050919050565b600081519050919050565b600081519050919050565b6000602082019050919050565b600082825260208201905092915050565b600082825260208201905092915050565b600082825260208201905092915050565b600081905092915050565b6000614b7682614cea565b9150614b8183614cea565b9250827fffffffffffffffffffffffffffffffffffffffffffffffffffffffffffffffff03821115614bb657614bb5614e0c565b5b828201905092915050565b6000614bcc82614cea565b9150614bd783614cea565b925082614be757614be6614e3b565b5b828204905092915050565b6000614bfd82614cea565b9150614c0883614cea565b9250817fffffffffffffffffffffffffffffffffffffffffffffffffffffffffffffffff0483118215151615614c4157614c40614e0c565b5b828202905092915050565b6000614c5782614cea565b9150614c6283614cea565b925082821015614c7557614c74614e0c565b5b828203905092915050565b6000614c8b82614cca565b9050919050565b60008115159050919050565b60007fffffffff0000000000000000000000000000000000000000000000000000000082169050919050565b600073ffffffffffffffffffffffffffffffffffffffff82169050919050565b6000819050919050565b82818337600083830152505050565b60005b83811015614d21578082015181840152602081019050614d06565b83811115614d30576000848401525b50505050565b6000614d4182614cea565b91506000821415614d5557614d54614e0c565b5b600182039050919050565b60006002820490506001821680614d7857607f821691505b60208210811415614d8c57614d8b614e99565b5b50919050565b614d9b82614f69565b810181811067ffffffffffffffff82111715614dba57614db9614f26565b5b80604052505050565b6000614dce82614cea565b91507fffffffffffffffffffffffffffffffffffffffffffffffffffffffffffffffff821415614e0157614e00614e0c565b5b600182019050919050565b7f4e487b7100000000000000000000000000000000000000000000000000000000600052601160045260246000fd5b7f4e487b7100000000000000000000000000000000000000000000000000000000600052601260045260246000fd5b7f4e487b7100000000000000000000000000000000000000000000000000000000600052602160045260246000fd5b7f4e487b7100000000000000000000000000000000000000000000000000000000600052602260045260246000fd5b7f4e487b7100000000000000000000000000000000000000000000000000000000600052603160045260246000fd5b7f4e487b7100000000000000000000000000000000000000000000000000000000600052603260045260246000fd5b7f4e487b7100000000000000000000000000000000000000000000000000000000600052604160045260246000fd5b600080fd5b600080fd5b600080fd5b600080fd5b6000601f19601f8301169050919050565b7f537472696e67733a20686578206c656e67746820696e73756666696369656e74600082015250565b7f4552433732313a2063616c6c6572206973206e6f7420746f6b656e206f776e6560008201527f72206f7220617070726f76656400000000000000000000000000000000000000602082015250565b7f2265787465726e616c5f75726c223a2200000000000000000000000000000000600082015250565b7f4552433732313a207472616e7366657220746f206e6f6e20455243373231526560008201527f63656976657220696d706c656d656e7465720000000000000000000000000000602082015250565b7f226465736372697074696f6e223a220000000000000000000000000000000000600082015250565b7f222c000000000000000000000000000000000000000000000000000000000000600082015250565b7f4552433732313a207472616e736665722066726f6d20696e636f72726563742060008201527f6f776e6572000000000000000000000000000000000000000000000000000000602082015250565b7f7b2274726169745f74797065223a202256657273696f6e222c202276616c756560008201527f223a220000000000000000000000000000000000000000000000000000000000602082015250565b7f4552433732313a20746f6b656e20616c7265616479206d696e74656400000000600082015250565b7f227d2c0000000000000000000000000000000000000000000000000000000000600082015250565b7f466c65656b416363657373436f6e74726f6c3a206d757374206861766520636f60008201527f6c6c656374696f6e20726f6c6500000000000000000000000000000000000000602082015250565b7f4552433732313a207472616e7366657220746f20746865207a65726f2061646460008201527f7265737300000000000000000000000000000000000000000000000000000000602082015250565b7f4552433732313a20617070726f766520746f2063616c6c657200000000000000600082015250565b7f7b2274726169745f74797065223a20225265706f7369746f7279222c2022766160008201527f6c7565223a220000000000000000000000000000000000000000000000000000602082015250565b7f226e616d65223a22000000000000000000000000000000000000000000000000600082015250565b7f4552433732313a2061646472657373207a65726f206973206e6f74206120766160008201527f6c6964206f776e65720000000000000000000000000000000000000000000000602082015250565b7f22696d616765223a220000000000000000000000000000000000000000000000600082015250565b7f227d000000000000000000000000000000000000000000000000000000000000600082015250565b7f4552433732313a206d696e7420746f20746865207a65726f2061646472657373600082015250565b7f7d00000000000000000000000000000000000000000000000000000000000000600082015250565b7f7b00000000000000000000000000000000000000000000000000000000000000600082015250565b7f2261747472696275746573223a205b0000000000000000000000000000000000600082015250565b7f226f776e6572223a220000000000000000000000000000000000000000000000600082015250565b7f4552433732313a20696e76616c696420746f6b656e2049440000000000000000600082015250565b7f7b2274726169745f74797065223a2022454e53222c202276616c7565223a2200600082015250565b7f5d00000000000000000000000000000000000000000000000000000000000000600082015250565b7f4552433732313a20617070726f76616c20746f2063757272656e74206f776e6560008201527f7200000000000000000000000000000000000000000000000000000000000000602082015250565b7f7b2274726169745f74797065223a2022436f6d6d69742048617368222c20227660008201527f616c7565223a2200000000000000000000000000000000000000000000000000602082015250565b7f4552433732313a20617070726f76652063616c6c6572206973206e6f7420746f60008201527f6b656e206f776e6572206f7220617070726f76656420666f7220616c6c000000602082015250565b7f466c65656b416363657373436f6e74726f6c3a206d757374206861766520746f60008201527f6b656e20726f6c65000000000000000000000000000000000000000000000000602082015250565b61561981614c80565b811461562457600080fd5b50565b61563081614c92565b811461563b57600080fd5b50565b61564781614c9e565b811461565257600080fd5b50565b6002811061566257600080fd5b50565b61566e81614cea565b811461567957600080fd5b5056fe4142434445464748494a4b4c4d4e4f505152535455565758595a6162636465666768696a6b6c6d6e6f707172737475767778797a303132333435363738392b2fa26469706673582212202ad793148892cb17843bc8ddfc8da3cf80fb0141adeabdb33bfc6d87fe628c9b64736f6c63430008070033",
  "devdoc": {
    "kind": "dev",
    "methods": {
      "approve(address,uint256)": {
        "details": "See {IERC721-approve}."
      },
      "balanceOf(address)": {
        "details": "See {IERC721-balanceOf}."
      },
      "burn(uint256)": {
        "details": "Burns a previously minted `tokenId`. May emit a {Transfer} event. Requirements: - the tokenId must be minted and valid. - the sender must have the `tokenOwner` role."
      },
      "getApproved(uint256)": {
        "details": "See {IERC721-getApproved}."
      },
      "getCollectionRoleMembers(uint8)": {
        "details": "Returns an array of addresses that all have the collection role."
      },
      "getTokenRoleMembers(uint256,uint8)": {
        "details": "Returns an array of addresses that all have the same token role for a certain tokenId."
      },
      "grantCollectionRole(uint8,address)": {
        "details": "Grants the collection role to an address. Requirements: - the caller should have the collection role."
      },
      "grantTokenRole(uint256,uint8,address)": {
        "details": "Grants the token role to an address. Requirements: - the caller should have the token role."
      },
      "hasCollectionRole(uint8,address)": {
        "details": "Returns `True` if a certain address has the collection role."
      },
      "hasTokenRole(uint256,uint8,address)": {
        "details": "Returns `True` if a certain address has the token role."
      },
      "isApprovedForAll(address,address)": {
        "details": "See {IERC721-isApprovedForAll}."
      },
      "mint(address,string,string,string,string,string,string,string)": {
        "details": "Mints a token and returns a tokenId. If the `tokenId` has not been minted before, and the `to` address is not zero, emits a {Transfer} event. Requirements: - the caller must have ``collectionOwner``'s admin role."
      },
      "name()": {
        "details": "See {IERC721Metadata-name}."
      },
      "ownerOf(uint256)": {
        "details": "See {IERC721-ownerOf}."
      },
      "revokeCollectionRole(uint8,address)": {
        "details": "Revokes the collection role of an address. Requirements: - the caller should have the collection role."
      },
      "revokeTokenRole(uint256,uint8,address)": {
        "details": "Revokes the token role of an address. Requirements: - the caller should have the token role."
      },
      "safeTransferFrom(address,address,uint256)": {
        "details": "See {IERC721-safeTransferFrom}."
      },
      "safeTransferFrom(address,address,uint256,bytes)": {
        "details": "See {IERC721-safeTransferFrom}."
      },
      "setApprovalForAll(address,bool)": {
        "details": "See {IERC721-setApprovalForAll}."
      },
      "setTokenBuild(uint256,string,string)": {
        "details": "Adds a new build to a minted `tokenId`'s builds mapping. May emit a {NewBuild} event. Requirements: - the tokenId must be minted and valid. - the sender must have the `tokenController` role."
      },
      "setTokenDescription(uint256,string)": {
        "details": "Updates the `description` metadata field of a minted `tokenId`. May emit a {NewTokenDescription} event. Requirements: - the tokenId must be minted and valid. - the sender must have the `tokenController` role."
      },
      "setTokenENS(uint256,string)": {
        "details": "Updates the `ENS` metadata field of a minted `tokenId`. May emit a {NewTokenENS} event. Requirements: - the tokenId must be minted and valid. - the sender must have the `tokenController` role."
      },
      "setTokenExternalURL(uint256,string)": {
        "details": "Updates the `externalURL` metadata field of a minted `tokenId`. May emit a {NewTokenExternalURL} event. Requirements: - the tokenId must be minted and valid. - the sender must have the `tokenController` role."
      },
      "setTokenImage(uint256,string)": {
        "details": "Updates the `image` metadata field of a minted `tokenId`. May emit a {NewTokenImage} event. Requirements: - the tokenId must be minted and valid. - the sender must have the `tokenController` role."
      },
      "setTokenName(uint256,string)": {
        "details": "Updates the `name` metadata field of a minted `tokenId`. May emit a {NewTokenName} event. Requirements: - the tokenId must be minted and valid. - the sender must have the `tokenController` role."
      },
      "supportsInterface(bytes4)": {
        "details": "See {IERC165-supportsInterface}."
      },
      "symbol()": {
        "details": "See {IERC721Metadata-symbol}."
      },
      "tokenURI(uint256)": {
        "details": "Returns the token metadata associated with the `tokenId`. Returns a based64 encoded string value of the URI. Requirements: - the tokenId must be minted and valid."
      },
      "transferFrom(address,address,uint256)": {
        "details": "See {IERC721-transferFrom}."
      }
    },
    "version": 1
  },
  "userdoc": {
    "kind": "user",
    "methods": {},
    "version": 1
  },
  "storageLayout": {
    "storage": [
      {
        "astId": 25,
        "contract": "contracts/FleekERC721.sol:FleekERC721",
        "label": "_name",
        "offset": 0,
        "slot": "0",
        "type": "t_string_storage"
      },
      {
        "astId": 27,
        "contract": "contracts/FleekERC721.sol:FleekERC721",
        "label": "_symbol",
        "offset": 0,
        "slot": "1",
        "type": "t_string_storage"
      },
      {
        "astId": 31,
        "contract": "contracts/FleekERC721.sol:FleekERC721",
        "label": "_owners",
        "offset": 0,
        "slot": "2",
        "type": "t_mapping(t_uint256,t_address)"
      },
      {
        "astId": 35,
        "contract": "contracts/FleekERC721.sol:FleekERC721",
        "label": "_balances",
        "offset": 0,
        "slot": "3",
        "type": "t_mapping(t_address,t_uint256)"
      },
      {
        "astId": 39,
        "contract": "contracts/FleekERC721.sol:FleekERC721",
        "label": "_tokenApprovals",
        "offset": 0,
        "slot": "4",
        "type": "t_mapping(t_uint256,t_address)"
      },
      {
        "astId": 45,
        "contract": "contracts/FleekERC721.sol:FleekERC721",
        "label": "_operatorApprovals",
        "offset": 0,
        "slot": "5",
        "type": "t_mapping(t_address,t_mapping(t_address,t_bool))"
      },
      {
        "astId": 2715,
        "contract": "contracts/FleekERC721.sol:FleekERC721",
        "label": "_collectionRolesVersion",
        "offset": 0,
        "slot": "6",
        "type": "t_struct(Counter)1510_storage"
      },
      {
        "astId": 2723,
        "contract": "contracts/FleekERC721.sol:FleekERC721",
        "label": "_collectionRoles",
        "offset": 0,
        "slot": "7",
        "type": "t_mapping(t_uint256,t_mapping(t_enum(Roles)2664,t_struct(Role)2712_storage))"
      },
      {
        "astId": 2728,
        "contract": "contracts/FleekERC721.sol:FleekERC721",
        "label": "_tokenRolesVersion",
        "offset": 0,
        "slot": "8",
        "type": "t_mapping(t_uint256,t_struct(Counter)1510_storage)"
      },
      {
        "astId": 2738,
        "contract": "contracts/FleekERC721.sol:FleekERC721",
        "label": "_tokenRoles",
        "offset": 0,
        "slot": "9",
        "type": "t_mapping(t_uint256,t_mapping(t_uint256,t_mapping(t_enum(Roles)2664,t_struct(Role)2712_storage)))"
      },
      {
        "astId": 3377,
        "contract": "contracts/FleekERC721.sol:FleekERC721",
        "label": "_tokenIds",
        "offset": 0,
        "slot": "10",
        "type": "t_struct(Counter)1510_storage"
      },
      {
        "astId": 3382,
        "contract": "contracts/FleekERC721.sol:FleekERC721",
        "label": "_apps",
        "offset": 0,
        "slot": "11",
        "type": "t_mapping(t_uint256,t_struct(App)3374_storage)"
      }
    ],
    "types": {
      "t_address": {
        "encoding": "inplace",
        "label": "address",
        "numberOfBytes": "20"
      },
      "t_array(t_address)dyn_storage": {
        "base": "t_address",
        "encoding": "dynamic_array",
        "label": "address[]",
        "numberOfBytes": "32"
      },
      "t_bool": {
        "encoding": "inplace",
        "label": "bool",
        "numberOfBytes": "1"
      },
      "t_enum(Roles)2664": {
        "encoding": "inplace",
        "label": "enum FleekAccessControl.Roles",
        "numberOfBytes": "1"
      },
      "t_mapping(t_address,t_bool)": {
        "encoding": "mapping",
        "key": "t_address",
        "label": "mapping(address => bool)",
        "numberOfBytes": "32",
        "value": "t_bool"
      },
      "t_mapping(t_address,t_mapping(t_address,t_bool))": {
        "encoding": "mapping",
        "key": "t_address",
        "label": "mapping(address => mapping(address => bool))",
        "numberOfBytes": "32",
        "value": "t_mapping(t_address,t_bool)"
      },
      "t_mapping(t_address,t_uint256)": {
        "encoding": "mapping",
        "key": "t_address",
        "label": "mapping(address => uint256)",
        "numberOfBytes": "32",
        "value": "t_uint256"
      },
      "t_mapping(t_enum(Roles)2664,t_struct(Role)2712_storage)": {
        "encoding": "mapping",
        "key": "t_enum(Roles)2664",
        "label": "mapping(enum FleekAccessControl.Roles => struct FleekAccessControl.Role)",
        "numberOfBytes": "32",
        "value": "t_struct(Role)2712_storage"
      },
      "t_mapping(t_uint256,t_address)": {
        "encoding": "mapping",
        "key": "t_uint256",
        "label": "mapping(uint256 => address)",
        "numberOfBytes": "32",
        "value": "t_address"
      },
      "t_mapping(t_uint256,t_mapping(t_enum(Roles)2664,t_struct(Role)2712_storage))": {
        "encoding": "mapping",
        "key": "t_uint256",
        "label": "mapping(uint256 => mapping(enum FleekAccessControl.Roles => struct FleekAccessControl.Role))",
        "numberOfBytes": "32",
        "value": "t_mapping(t_enum(Roles)2664,t_struct(Role)2712_storage)"
      },
      "t_mapping(t_uint256,t_mapping(t_uint256,t_mapping(t_enum(Roles)2664,t_struct(Role)2712_storage)))": {
        "encoding": "mapping",
        "key": "t_uint256",
        "label": "mapping(uint256 => mapping(uint256 => mapping(enum FleekAccessControl.Roles => struct FleekAccessControl.Role)))",
        "numberOfBytes": "32",
        "value": "t_mapping(t_uint256,t_mapping(t_enum(Roles)2664,t_struct(Role)2712_storage))"
      },
      "t_mapping(t_uint256,t_struct(App)3374_storage)": {
        "encoding": "mapping",
        "key": "t_uint256",
        "label": "mapping(uint256 => struct FleekERC721.App)",
        "numberOfBytes": "32",
        "value": "t_struct(App)3374_storage"
      },
      "t_mapping(t_uint256,t_struct(Build)3356_storage)": {
        "encoding": "mapping",
        "key": "t_uint256",
        "label": "mapping(uint256 => struct FleekERC721.Build)",
        "numberOfBytes": "32",
        "value": "t_struct(Build)3356_storage"
      },
      "t_mapping(t_uint256,t_struct(Counter)1510_storage)": {
        "encoding": "mapping",
        "key": "t_uint256",
        "label": "mapping(uint256 => struct Counters.Counter)",
        "numberOfBytes": "32",
        "value": "t_struct(Counter)1510_storage"
      },
      "t_string_storage": {
        "encoding": "bytes",
        "label": "string",
        "numberOfBytes": "32"
      },
      "t_struct(App)3374_storage": {
        "encoding": "inplace",
        "label": "struct FleekERC721.App",
        "members": [
          {
            "astId": 3358,
            "contract": "contracts/FleekERC721.sol:FleekERC721",
            "label": "name",
            "offset": 0,
            "slot": "0",
            "type": "t_string_storage"
          },
          {
            "astId": 3360,
            "contract": "contracts/FleekERC721.sol:FleekERC721",
            "label": "description",
            "offset": 0,
            "slot": "1",
            "type": "t_string_storage"
          },
          {
            "astId": 3362,
            "contract": "contracts/FleekERC721.sol:FleekERC721",
            "label": "image",
            "offset": 0,
            "slot": "2",
            "type": "t_string_storage"
          },
          {
            "astId": 3364,
            "contract": "contracts/FleekERC721.sol:FleekERC721",
            "label": "externalURL",
            "offset": 0,
            "slot": "3",
            "type": "t_string_storage"
          },
          {
            "astId": 3366,
            "contract": "contracts/FleekERC721.sol:FleekERC721",
            "label": "ENS",
            "offset": 0,
            "slot": "4",
            "type": "t_string_storage"
          },
          {
            "astId": 3368,
            "contract": "contracts/FleekERC721.sol:FleekERC721",
            "label": "currentBuild",
            "offset": 0,
            "slot": "5",
            "type": "t_uint256"
          },
          {
            "astId": 3373,
            "contract": "contracts/FleekERC721.sol:FleekERC721",
            "label": "builds",
            "offset": 0,
            "slot": "6",
            "type": "t_mapping(t_uint256,t_struct(Build)3356_storage)"
          }
        ],
        "numberOfBytes": "224"
      },
      "t_struct(Build)3356_storage": {
        "encoding": "inplace",
        "label": "struct FleekERC721.Build",
        "members": [
          {
            "astId": 3353,
            "contract": "contracts/FleekERC721.sol:FleekERC721",
            "label": "commitHash",
            "offset": 0,
            "slot": "0",
            "type": "t_string_storage"
          },
          {
            "astId": 3355,
            "contract": "contracts/FleekERC721.sol:FleekERC721",
            "label": "gitRepository",
            "offset": 0,
            "slot": "1",
            "type": "t_string_storage"
          }
        ],
        "numberOfBytes": "64"
      },
      "t_struct(Counter)1510_storage": {
        "encoding": "inplace",
        "label": "struct Counters.Counter",
        "members": [
          {
            "astId": 1509,
            "contract": "contracts/FleekERC721.sol:FleekERC721",
            "label": "_value",
            "offset": 0,
            "slot": "0",
            "type": "t_uint256"
          }
        ],
        "numberOfBytes": "32"
      },
      "t_struct(Role)2712_storage": {
        "encoding": "inplace",
        "label": "struct FleekAccessControl.Role",
        "members": [
          {
            "astId": 2708,
            "contract": "contracts/FleekERC721.sol:FleekERC721",
            "label": "indexes",
            "offset": 0,
            "slot": "0",
            "type": "t_mapping(t_address,t_uint256)"
          },
          {
            "astId": 2711,
            "contract": "contracts/FleekERC721.sol:FleekERC721",
            "label": "members",
            "offset": 0,
            "slot": "1",
            "type": "t_array(t_address)dyn_storage"
          }
        ],
        "numberOfBytes": "64"
      },
      "t_uint256": {
        "encoding": "inplace",
        "label": "uint256",
        "numberOfBytes": "32"
      }
    }
  }
}