{
  "contracts/FleekAccessControl.sol": {
    "FleekAccessControl": {
      "abi": [
        {
          "inputs": [],
          "stateMutability": "nonpayable",
          "type": "constructor"
        },
        {
          "anonymous": false,
          "inputs": [
            {
              "indexed": true,
              "internalType": "enum FleekAccessControl.Roles",
              "name": "role",
              "type": "uint8"
            },
            {
              "indexed": true,
              "internalType": "address",
              "name": "toAddress",
              "type": "address"
            },
            {
              "indexed": false,
              "internalType": "address",
              "name": "byAddress",
              "type": "address"
            }
          ],
          "name": "CollectionRoleGranted",
          "type": "event"
        },
        {
          "anonymous": false,
          "inputs": [
            {
              "indexed": true,
              "internalType": "enum FleekAccessControl.Roles",
              "name": "role",
              "type": "uint8"
            },
            {
              "indexed": true,
              "internalType": "address",
              "name": "toAddress",
              "type": "address"
            },
            {
              "indexed": false,
              "internalType": "address",
              "name": "byAddress",
              "type": "address"
            }
          ],
          "name": "CollectionRoleRevoked",
          "type": "event"
        },
        {
          "anonymous": false,
          "inputs": [
            {
              "indexed": true,
              "internalType": "uint256",
              "name": "tokenId",
              "type": "uint256"
            },
            {
              "indexed": true,
              "internalType": "enum FleekAccessControl.Roles",
              "name": "role",
              "type": "uint8"
            },
            {
              "indexed": true,
              "internalType": "address",
              "name": "toAddress",
              "type": "address"
            },
            {
              "indexed": false,
              "internalType": "address",
              "name": "byAddress",
              "type": "address"
            }
          ],
          "name": "TokenRoleGranted",
          "type": "event"
        },
        {
          "anonymous": false,
          "inputs": [
            {
              "indexed": true,
              "internalType": "uint256",
              "name": "tokenId",
              "type": "uint256"
            },
            {
              "indexed": true,
              "internalType": "enum FleekAccessControl.Roles",
              "name": "role",
              "type": "uint8"
            },
            {
              "indexed": true,
              "internalType": "address",
              "name": "toAddress",
              "type": "address"
            },
            {
              "indexed": false,
              "internalType": "address",
              "name": "byAddress",
              "type": "address"
            }
          ],
          "name": "TokenRoleRevoked",
          "type": "event"
        },
        {
          "inputs": [
            {
              "internalType": "enum FleekAccessControl.Roles",
              "name": "role",
              "type": "uint8"
            }
          ],
          "name": "getCollectionRoleMembers",
          "outputs": [
            {
              "internalType": "address[]",
              "name": "",
              "type": "address[]"
            }
          ],
          "stateMutability": "view",
          "type": "function"
        },
        {
          "inputs": [
            {
              "internalType": "uint256",
              "name": "tokenId",
              "type": "uint256"
            },
            {
              "internalType": "enum FleekAccessControl.Roles",
              "name": "role",
              "type": "uint8"
            }
          ],
          "name": "getTokenRoleMembers",
          "outputs": [
            {
              "internalType": "address[]",
              "name": "",
              "type": "address[]"
            }
          ],
          "stateMutability": "view",
          "type": "function"
        },
        {
          "inputs": [
            {
              "internalType": "enum FleekAccessControl.Roles",
              "name": "role",
              "type": "uint8"
            },
            {
              "internalType": "address",
              "name": "account",
              "type": "address"
            }
          ],
          "name": "grantCollectionRole",
          "outputs": [],
          "stateMutability": "nonpayable",
          "type": "function"
        },
        {
          "inputs": [
            {
              "internalType": "uint256",
              "name": "tokenId",
              "type": "uint256"
            },
            {
              "internalType": "enum FleekAccessControl.Roles",
              "name": "role",
              "type": "uint8"
            },
            {
              "internalType": "address",
              "name": "account",
              "type": "address"
            }
          ],
          "name": "grantTokenRole",
          "outputs": [],
          "stateMutability": "nonpayable",
          "type": "function"
        },
        {
          "inputs": [
            {
              "internalType": "enum FleekAccessControl.Roles",
              "name": "role",
              "type": "uint8"
            },
            {
              "internalType": "address",
              "name": "account",
              "type": "address"
            }
          ],
          "name": "hasCollectionRole",
          "outputs": [
            {
              "internalType": "bool",
              "name": "",
              "type": "bool"
            }
          ],
          "stateMutability": "view",
          "type": "function"
        },
        {
          "inputs": [
            {
              "internalType": "uint256",
              "name": "tokenId",
              "type": "uint256"
            },
            {
              "internalType": "enum FleekAccessControl.Roles",
              "name": "role",
              "type": "uint8"
            },
            {
              "internalType": "address",
              "name": "account",
              "type": "address"
            }
          ],
          "name": "hasTokenRole",
          "outputs": [
            {
              "internalType": "bool",
              "name": "",
              "type": "bool"
            }
          ],
          "stateMutability": "view",
          "type": "function"
        },
        {
          "inputs": [
            {
              "internalType": "enum FleekAccessControl.Roles",
              "name": "role",
              "type": "uint8"
            },
            {
              "internalType": "address",
              "name": "account",
              "type": "address"
            }
          ],
          "name": "revokeCollectionRole",
          "outputs": [],
          "stateMutability": "nonpayable",
          "type": "function"
        },
        {
          "inputs": [
            {
              "internalType": "uint256",
              "name": "tokenId",
              "type": "uint256"
            },
            {
              "internalType": "enum FleekAccessControl.Roles",
              "name": "role",
              "type": "uint8"
            },
            {
              "internalType": "address",
              "name": "account",
              "type": "address"
            }
          ],
          "name": "revokeTokenRole",
          "outputs": [],
          "stateMutability": "nonpayable",
          "type": "function"
        }
      ],
      "devdoc": {
        "kind": "dev",
        "methods": {
          "constructor": {
            "details": "Initializes the contract by granting the `Owner` role to the deployer."
          },
          "getCollectionRoleMembers(uint8)": {
            "details": "Returns an array of addresses that all have the collection role."
          },
          "getTokenRoleMembers(uint256,uint8)": {
            "details": "Returns an array of addresses that all have the same token role for a certain tokenId."
          },
          "grantCollectionRole(uint8,address)": {
            "details": "Grants the collection role to an address. Requirements: - the caller should have the collection role."
          },
          "grantTokenRole(uint256,uint8,address)": {
            "details": "Grants the token role to an address. Requirements: - the caller should have the token role."
          },
          "hasCollectionRole(uint8,address)": {
            "details": "Returns `True` if a certain address has the collection role."
          },
          "hasTokenRole(uint256,uint8,address)": {
            "details": "Returns `True` if a certain address has the token role."
          },
          "revokeCollectionRole(uint8,address)": {
            "details": "Revokes the collection role of an address. Requirements: - the caller should have the collection role."
          },
          "revokeTokenRole(uint256,uint8,address)": {
            "details": "Revokes the token role of an address. Requirements: - the caller should have the token role."
          }
        },
        "version": 1
      },
      "evm": {
        "bytecode": {
          "linkReferences": {},
          "object": "6080604052346100f85760008054815260016020908152604080832083805282528083203384529182905282205415610072575b506040513380825291907fcf081ed2b728e3115904be00eb8927b2375ff3401839b37f7accfa1bb2bee15c90602090a3604051610a8490816100fe8239f35b600181018054680100000000000000008110156100e157600181018083558110156100ca57818452602080852090910180546001600160a01b0319163390811790915591546000928352929052604090205538610033565b5050634e487b7160e01b8252506032600452602490fd5b5050634e487b7160e01b8252506041600452602490fd5b600080fdfe6040608081526004361015610015575b50600080fd5b600090813560e01c806301468deb146101a25780632d957aad1461018a5780632f1e8f0a14610126578063353b07a4146100ff5780638c3c0a44146100e7578063a27d0b27146100cc578063b42dbe38146100af5763e94472501461007a575061000f565b346100ab576100a79150610096610090366101ff565b90610659565b905190151581529081906020820190565b0390f35b5080fd5b50346100ab576100a791506100966100c6366101ba565b916106cc565b50346100ab576100e46100de366101ba565b91610420565b51f35b50346100ab576100e46100f9366101ff565b906104db565b50346100ab576100a7915061011b61011636610299565b61078e565b905191829182610255565b50346100ab576100a7915061011b600161018461017f61014536610236565b919061017061015e826000526002602052604060002090565b54916000526003602052604060002090565b90600052602052604060002090565b61060f565b01610715565b50346100ab576100e461019c366101ff565b90610317565b50346100ab576100e46101b4366101ba565b9161056d565b606090600319011261000f576004359060243560028110156101f757906044356001600160a01b0381168114156101ee5790565b50505050600080fd5b505050600080fd5b604090600319011261000f57600435600281101561022f57906024356001600160a01b0381168114156101f75790565b5050600080fd5b604090600319011261000f576004359060243560028110156101f75790565b6020908160408183019282815285518094520193019160005b82811061027c575050505090565b83516001600160a01b03168552938101939281019260010161026e565b602090600319011261000f57600435600281101561022f5790565b156102bb57565b5060405162461bcd60e51b815260206004820152602d60248201527f466c65656b416363657373436f6e74726f6c3a206d757374206861766520636f60448201526c6c6c656374696f6e20726f6c6560981b6064820152608490fd5b61032033610627565b80156103ae575b610330906102b4565b60005460005260016020526103528261034d83604060002061060f565b610850565b6002811015610395576040513381526001600160a01b03909216917fcf081ed2b728e3115904be00eb8927b2375ff3401839b37f7accfa1bb2bee15c90602090a3565b505050634e487b7160e01b600052602160045260246000fd5b506103306103bb33610627565b9050610327565b156103c957565b5060405162461bcd60e51b815260206004820152602860248201527f466c65656b416363657373436f6e74726f6c3a206d757374206861766520746f6044820152676b656e20726f6c6560c01b6064820152608490fd5b61042a338261068d565b80156104c6575b61043a906103c2565b6000818152600260205260408120546003602052604082209082526020526104698461034d856040852061060f565b60028310156104ad57506040513381526001600160a01b03909316927f0bf5a13b362503fcc74b8b9b1598aba2f3a9af85d05ba7978f7e9f447f22c23990602090a4565b634e487b7160e01b815260216004526024945092505050fd5b5061043a6104d4338361068d565b9050610431565b6104e433610627565b8015610559575b6104f4906102b4565b60005460005260016020526105168261051183604060002061060f565b610908565b6002811015610395576040513381526001600160a01b03909216917faeff57f0f5e4d3d10a37d4a70fde8ed67a95e67b251d5c512c0ea98c380d2f9590602090a3565b506104f461056633610627565b90506104eb565b610577338261068d565b80156105fa575b610587906103c2565b6000818152600260205260408120546003602052604082209082526020526105b684610511856040852061060f565b60028310156104ad57506040513381526001600160a01b03909316927fe52d746e4c78c98c6bfa291b273406905c3e8550b7d911a6bea686368c2dc79d90602090a4565b50610587610608338361068d565b905061057e565b90600281101561039557600052602052604060002090565b60008054815260016020908152604080832083805282528083206001600160a01b039094168352929052205b54151590565b90610676610653926000546000526001602052604060002061060f565b9060018060a01b0316600052602052604060002090565b60009081526002602090815260408083205460038352818420908452825280832083805282528083206001600160a01b03909416835292905220610653565b61065392916106769160005260026020526040600020546003602052604060002090600052602052604060002061060f565b50634e487b7160e01b600052604160045260246000fd5b906040519180548084526020908185019260005281600020916000905b82821061076e5750505050829003601f01601f1916820167ffffffffffffffff81118382101761076157604052565b6107696106fe565b604052565b83546001600160a01b031685529384019360019384019390910190610732565b600080548152600190816107aa6020948286526040842061060f565b01916040518094808554928381520194845280842093905b828210610801575050505050819003601f01601f1916810167ffffffffffffffff8111828210176107f4575b60405290565b6107fc6106fe565b6107ee565b84546001600160a01b031686529485019493830193908301906107c2565b80548210156108375760005260206000200190600090565b505050634e487b7160e01b600052603260045260246000fd5b6001600160a01b03821660009081526020829052604090209091905415610875575050565b6108e190600183016108c8826108a48354680100000000000000008110156108e4575b6001810185558461081f565b90919082549060031b9160018060a01b039283811b93849216901b16911916179055565b54929060018060a01b0316600052602052604060002090565b55565b6108ec6106fe565b610898565b50634e487b7160e01b600052601160045260246000fd5b6001600160a01b03821660009081526020829052604090209091905461092c575050565b6001600160a01b0381166000908152602083905260409020549060018210610a33575b6000199283830160018201936109ba61097487875460018110610a26575b018761081f565b90546001600160a01b039460039290921b1c841690610997826108a4838b61081f565b60011910610a19575b6001600160a01b0316600090815260208590526040902090565b5583549384156109fc576000956108e19501916109d7838361081f565b909182549160031b1b19169055559060018060a01b0316600052602052604060002090565b50505050505050634e487b7160e01b600052603160045260246000fd5b610a216108f1565b6109a0565b610a2e6108f1565b61096d565b610a3b6108f1565b61094f56fea3646970667358221220a184634af80636a286b6f1fb7d6788b947d3f1d83bd3f0581be6417bf67d25226c6578706572696d656e74616cf564736f6c634300080c0041",
          "opcodes": "PUSH1 0x80 PUSH1 0x40 MSTORE CALLVALUE PUSH2 0xF8 JUMPI PUSH1 0x0 DUP1 SLOAD DUP2 MSTORE PUSH1 0x1 PUSH1 0x20 SWAP1 DUP2 MSTORE PUSH1 0x40 DUP1 DUP4 KECCAK256 DUP4 DUP1 MSTORE DUP3 MSTORE DUP1 DUP4 KECCAK256 CALLER DUP5 MSTORE SWAP2 DUP3 SWAP1 MSTORE DUP3 KECCAK256 SLOAD ISZERO PUSH2 0x72 JUMPI JUMPDEST POP PUSH1 0x40 MLOAD CALLER DUP1 DUP3 MSTORE SWAP2 SWAP1 PUSH32 0xCF081ED2B728E3115904BE00EB8927B2375FF3401839B37F7ACCFA1BB2BEE15C SWAP1 PUSH1 0x20 SWAP1 LOG3 PUSH1 0x40 MLOAD PUSH2 0xA84 SWAP1 DUP2 PUSH2 0xFE DUP3 CODECOPY RETURN JUMPDEST PUSH1 0x1 DUP2 ADD DUP1 SLOAD PUSH9 0x10000000000000000 DUP2 LT ISZERO PUSH2 0xE1 JUMPI PUSH1 0x1 DUP2 ADD DUP1 DUP4 SSTORE DUP2 LT ISZERO PUSH2 0xCA JUMPI DUP2 DUP5 MSTORE PUSH1 0x20 DUP1 DUP6 KECCAK256 SWAP1 SWAP2 ADD DUP1 SLOAD PUSH1 0x1 PUSH1 0x1 PUSH1 0xA0 SHL SUB NOT AND CALLER SWAP1 DUP2 OR SWAP1 SWAP2 SSTORE SWAP2 SLOAD PUSH1 0x0 SWAP3 DUP4 MSTORE SWAP3 SWAP1 MSTORE PUSH1 0x40 SWAP1 KECCAK256 SSTORE CODESIZE PUSH2 0x33 JUMP JUMPDEST POP POP PUSH4 0x4E487B71 PUSH1 0xE0 SHL DUP3 MSTORE POP PUSH1 0x32 PUSH1 0x4 MSTORE PUSH1 0x24 SWAP1 REVERT JUMPDEST POP POP PUSH4 0x4E487B71 PUSH1 0xE0 SHL DUP3 MSTORE POP PUSH1 0x41 PUSH1 0x4 MSTORE PUSH1 0x24 SWAP1 REVERT JUMPDEST PUSH1 0x0 DUP1 REVERT INVALID PUSH1 0x40 PUSH1 0x80 DUP2 MSTORE PUSH1 0x4 CALLDATASIZE LT ISZERO PUSH2 0x15 JUMPI JUMPDEST POP PUSH1 0x0 DUP1 REVERT JUMPDEST PUSH1 0x0 SWAP1 DUP2 CALLDATALOAD PUSH1 0xE0 SHR DUP1 PUSH4 0x1468DEB EQ PUSH2 0x1A2 JUMPI DUP1 PUSH4 0x2D957AAD EQ PUSH2 0x18A JUMPI DUP1 PUSH4 0x2F1E8F0A EQ PUSH2 0x126 JUMPI DUP1 PUSH4 0x353B07A4 EQ PUSH2 0xFF JUMPI DUP1 PUSH4 0x8C3C0A44 EQ PUSH2 0xE7 JUMPI DUP1 PUSH4 0xA27D0B27 EQ PUSH2 0xCC JUMPI DUP1 PUSH4 0xB42DBE38 EQ PUSH2 0xAF JUMPI PUSH4 0xE9447250 EQ PUSH2 0x7A JUMPI POP PUSH2 0xF JUMP JUMPDEST CALLVALUE PUSH2 0xAB JUMPI PUSH2 0xA7 SWAP2 POP PUSH2 0x96 PUSH2 0x90 CALLDATASIZE PUSH2 0x1FF JUMP JUMPDEST SWAP1 PUSH2 0x659 JUMP JUMPDEST SWAP1 MLOAD SWAP1 ISZERO ISZERO DUP2 MSTORE SWAP1 DUP2 SWAP1 PUSH1 0x20 DUP3 ADD SWAP1 JUMP JUMPDEST SUB SWAP1 RETURN JUMPDEST POP DUP1 REVERT JUMPDEST POP CALLVALUE PUSH2 0xAB JUMPI PUSH2 0xA7 SWAP2 POP PUSH2 0x96 PUSH2 0xC6 CALLDATASIZE PUSH2 0x1BA JUMP JUMPDEST SWAP2 PUSH2 0x6CC JUMP JUMPDEST POP CALLVALUE PUSH2 0xAB JUMPI PUSH2 0xE4 PUSH2 0xDE CALLDATASIZE PUSH2 0x1BA JUMP JUMPDEST SWAP2 PUSH2 0x420 JUMP JUMPDEST MLOAD RETURN JUMPDEST POP CALLVALUE PUSH2 0xAB JUMPI PUSH2 0xE4 PUSH2 0xF9 CALLDATASIZE PUSH2 0x1FF JUMP JUMPDEST SWAP1 PUSH2 0x4DB JUMP JUMPDEST POP CALLVALUE PUSH2 0xAB JUMPI PUSH2 0xA7 SWAP2 POP PUSH2 0x11B PUSH2 0x116 CALLDATASIZE PUSH2 0x299 JUMP JUMPDEST PUSH2 0x78E JUMP JUMPDEST SWAP1 MLOAD SWAP2 DUP3 SWAP2 DUP3 PUSH2 0x255 JUMP JUMPDEST POP CALLVALUE PUSH2 0xAB JUMPI PUSH2 0xA7 SWAP2 POP PUSH2 0x11B PUSH1 0x1 PUSH2 0x184 PUSH2 0x17F PUSH2 0x145 CALLDATASIZE PUSH2 0x236 JUMP JUMPDEST SWAP2 SWAP1 PUSH2 0x170 PUSH2 0x15E DUP3 PUSH1 0x0 MSTORE PUSH1 0x2 PUSH1 0x20 MSTORE PUSH1 0x40 PUSH1 0x0 KECCAK256 SWAP1 JUMP JUMPDEST SLOAD SWAP2 PUSH1 0x0 MSTORE PUSH1 0x3 PUSH1 0x20 MSTORE PUSH1 0x40 PUSH1 0x0 KECCAK256 SWAP1 JUMP JUMPDEST SWAP1 PUSH1 0x0 MSTORE PUSH1 0x20 MSTORE PUSH1 0x40 PUSH1 0x0 KECCAK256 SWAP1 JUMP JUMPDEST PUSH2 0x60F JUMP JUMPDEST ADD PUSH2 0x715 JUMP JUMPDEST POP CALLVALUE PUSH2 0xAB JUMPI PUSH2 0xE4 PUSH2 0x19C CALLDATASIZE PUSH2 0x1FF JUMP JUMPDEST SWAP1 PUSH2 0x317 JUMP JUMPDEST POP CALLVALUE PUSH2 0xAB JUMPI PUSH2 0xE4 PUSH2 0x1B4 CALLDATASIZE PUSH2 0x1BA JUMP JUMPDEST SWAP2 PUSH2 0x56D JUMP JUMPDEST PUSH1 0x60 SWAP1 PUSH1 0x3 NOT ADD SLT PUSH2 0xF JUMPI PUSH1 0x4 CALLDATALOAD SWAP1 PUSH1 0x24 CALLDATALOAD PUSH1 0x2 DUP2 LT ISZERO PUSH2 0x1F7 JUMPI SWAP1 PUSH1 0x44 CALLDATALOAD PUSH1 0x1 PUSH1 0x1 PUSH1 0xA0 SHL SUB DUP2 AND DUP2 EQ ISZERO PUSH2 0x1EE JUMPI SWAP1 JUMP JUMPDEST POP POP POP POP PUSH1 0x0 DUP1 REVERT JUMPDEST POP POP POP PUSH1 0x0 DUP1 REVERT JUMPDEST PUSH1 0x40 SWAP1 PUSH1 0x3 NOT ADD SLT PUSH2 0xF JUMPI PUSH1 0x4 CALLDATALOAD PUSH1 0x2 DUP2 LT ISZERO PUSH2 0x22F JUMPI SWAP1 PUSH1 0x24 CALLDATALOAD PUSH1 0x1 PUSH1 0x1 PUSH1 0xA0 SHL SUB DUP2 AND DUP2 EQ ISZERO PUSH2 0x1F7 JUMPI SWAP1 JUMP JUMPDEST POP POP PUSH1 0x0 DUP1 REVERT JUMPDEST PUSH1 0x40 SWAP1 PUSH1 0x3 NOT ADD SLT PUSH2 0xF JUMPI PUSH1 0x4 CALLDATALOAD SWAP1 PUSH1 0x24 CALLDATALOAD PUSH1 0x2 DUP2 LT ISZERO PUSH2 0x1F7 JUMPI SWAP1 JUMP JUMPDEST PUSH1 0x20 SWAP1 DUP2 PUSH1 0x40 DUP2 DUP4 ADD SWAP3 DUP3 DUP2 MSTORE DUP6 MLOAD DUP1 SWAP5 MSTORE ADD SWAP4 ADD SWAP2 PUSH1 0x0 JUMPDEST DUP3 DUP2 LT PUSH2 0x27C JUMPI POP POP POP POP SWAP1 JUMP JUMPDEST DUP4 MLOAD PUSH1 0x1 PUSH1 0x1 PUSH1 0xA0 SHL SUB AND DUP6 MSTORE SWAP4 DUP2 ADD SWAP4 SWAP3 DUP2 ADD SWAP3 PUSH1 0x1 ADD PUSH2 0x26E JUMP JUMPDEST PUSH1 0x20 SWAP1 PUSH1 0x3 NOT ADD SLT PUSH2 0xF JUMPI PUSH1 0x4 CALLDATALOAD PUSH1 0x2 DUP2 LT ISZERO PUSH2 0x22F JUMPI SWAP1 JUMP JUMPDEST ISZERO PUSH2 0x2BB JUMPI JUMP JUMPDEST POP PUSH1 0x40 MLOAD PUSH3 0x461BCD PUSH1 0xE5 SHL DUP2 MSTORE PUSH1 0x20 PUSH1 0x4 DUP3 ADD MSTORE PUSH1 0x2D PUSH1 0x24 DUP3 ADD MSTORE PUSH32 0x466C65656B416363657373436F6E74726F6C3A206D757374206861766520636F PUSH1 0x44 DUP3 ADD MSTORE PUSH13 0x6C6C656374696F6E20726F6C65 PUSH1 0x98 SHL PUSH1 0x64 DUP3 ADD MSTORE PUSH1 0x84 SWAP1 REVERT JUMPDEST PUSH2 0x320 CALLER PUSH2 0x627 JUMP JUMPDEST DUP1 ISZERO PUSH2 0x3AE JUMPI JUMPDEST PUSH2 0x330 SWAP1 PUSH2 0x2B4 JUMP JUMPDEST PUSH1 0x0 SLOAD PUSH1 0x0 MSTORE PUSH1 0x1 PUSH1 0x20 MSTORE PUSH2 0x352 DUP3 PUSH2 0x34D DUP4 PUSH1 0x40 PUSH1 0x0 KECCAK256 PUSH2 0x60F JUMP JUMPDEST PUSH2 0x850 JUMP JUMPDEST PUSH1 0x2 DUP2 LT ISZERO PUSH2 0x395 JUMPI PUSH1 0x40 MLOAD CALLER DUP2 MSTORE PUSH1 0x1 PUSH1 0x1 PUSH1 0xA0 SHL SUB SWAP1 SWAP3 AND SWAP2 PUSH32 0xCF081ED2B728E3115904BE00EB8927B2375FF3401839B37F7ACCFA1BB2BEE15C SWAP1 PUSH1 0x20 SWAP1 LOG3 JUMP JUMPDEST POP POP POP PUSH4 0x4E487B71 PUSH1 0xE0 SHL PUSH1 0x0 MSTORE PUSH1 0x21 PUSH1 0x4 MSTORE PUSH1 0x24 PUSH1 0x0 REVERT JUMPDEST POP PUSH2 0x330 PUSH2 0x3BB CALLER PUSH2 0x627 JUMP JUMPDEST SWAP1 POP PUSH2 0x327 JUMP JUMPDEST ISZERO PUSH2 0x3C9 JUMPI JUMP JUMPDEST POP PUSH1 0x40 MLOAD PUSH3 0x461BCD PUSH1 0xE5 SHL DUP2 MSTORE PUSH1 0x20 PUSH1 0x4 DUP3 ADD MSTORE PUSH1 0x28 PUSH1 0x24 DUP3 ADD MSTORE PUSH32 0x466C65656B416363657373436F6E74726F6C3A206D757374206861766520746F PUSH1 0x44 DUP3 ADD MSTORE PUSH8 0x6B656E20726F6C65 PUSH1 0xC0 SHL PUSH1 0x64 DUP3 ADD MSTORE PUSH1 0x84 SWAP1 REVERT JUMPDEST PUSH2 0x42A CALLER DUP3 PUSH2 0x68D JUMP JUMPDEST DUP1 ISZERO PUSH2 0x4C6 JUMPI JUMPDEST PUSH2 0x43A SWAP1 PUSH2 0x3C2 JUMP JUMPDEST PUSH1 0x0 DUP2 DUP2 MSTORE PUSH1 0x2 PUSH1 0x20 MSTORE PUSH1 0x40 DUP2 KECCAK256 SLOAD PUSH1 0x3 PUSH1 0x20 MSTORE PUSH1 0x40 DUP3 KECCAK256 SWAP1 DUP3 MSTORE PUSH1 0x20 MSTORE PUSH2 0x469 DUP5 PUSH2 0x34D DUP6 PUSH1 0x40 DUP6 KECCAK256 PUSH2 0x60F JUMP JUMPDEST PUSH1 0x2 DUP4 LT ISZERO PUSH2 0x4AD JUMPI POP PUSH1 0x40 MLOAD CALLER DUP2 MSTORE PUSH1 0x1 PUSH1 0x1 PUSH1 0xA0 SHL SUB SWAP1 SWAP4 AND SWAP3 PUSH32 0xBF5A13B362503FCC74B8B9B1598ABA2F3A9AF85D05BA7978F7E9F447F22C239 SWAP1 PUSH1 0x20 SWAP1 LOG4 JUMP JUMPDEST PUSH4 0x4E487B71 PUSH1 0xE0 SHL DUP2 MSTORE PUSH1 0x21 PUSH1 0x4 MSTORE PUSH1 0x24 SWAP5 POP SWAP3 POP POP POP REVERT JUMPDEST POP PUSH2 0x43A PUSH2 0x4D4 CALLER DUP4 PUSH2 0x68D JUMP JUMPDEST SWAP1 POP PUSH2 0x431 JUMP JUMPDEST PUSH2 0x4E4 CALLER PUSH2 0x627 JUMP JUMPDEST DUP1 ISZERO PUSH2 0x559 JUMPI JUMPDEST PUSH2 0x4F4 SWAP1 PUSH2 0x2B4 JUMP JUMPDEST PUSH1 0x0 SLOAD PUSH1 0x0 MSTORE PUSH1 0x1 PUSH1 0x20 MSTORE PUSH2 0x516 DUP3 PUSH2 0x511 DUP4 PUSH1 0x40 PUSH1 0x0 KECCAK256 PUSH2 0x60F JUMP JUMPDEST PUSH2 0x908 JUMP JUMPDEST PUSH1 0x2 DUP2 LT ISZERO PUSH2 0x395 JUMPI PUSH1 0x40 MLOAD CALLER DUP2 MSTORE PUSH1 0x1 PUSH1 0x1 PUSH1 0xA0 SHL SUB SWAP1 SWAP3 AND SWAP2 PUSH32 0xAEFF57F0F5E4D3D10A37D4A70FDE8ED67A95E67B251D5C512C0EA98C380D2F95 SWAP1 PUSH1 0x20 SWAP1 LOG3 JUMP JUMPDEST POP PUSH2 0x4F4 PUSH2 0x566 CALLER PUSH2 0x627 JUMP JUMPDEST SWAP1 POP PUSH2 0x4EB JUMP JUMPDEST PUSH2 0x577 CALLER DUP3 PUSH2 0x68D JUMP JUMPDEST DUP1 ISZERO PUSH2 0x5FA JUMPI JUMPDEST PUSH2 0x587 SWAP1 PUSH2 0x3C2 JUMP JUMPDEST PUSH1 0x0 DUP2 DUP2 MSTORE PUSH1 0x2 PUSH1 0x20 MSTORE PUSH1 0x40 DUP2 KECCAK256 SLOAD PUSH1 0x3 PUSH1 0x20 MSTORE PUSH1 0x40 DUP3 KECCAK256 SWAP1 DUP3 MSTORE PUSH1 0x20 MSTORE PUSH2 0x5B6 DUP5 PUSH2 0x511 DUP6 PUSH1 0x40 DUP6 KECCAK256 PUSH2 0x60F JUMP JUMPDEST PUSH1 0x2 DUP4 LT ISZERO PUSH2 0x4AD JUMPI POP PUSH1 0x40 MLOAD CALLER DUP2 MSTORE PUSH1 0x1 PUSH1 0x1 PUSH1 0xA0 SHL SUB SWAP1 SWAP4 AND SWAP3 PUSH32 0xE52D746E4C78C98C6BFA291B273406905C3E8550B7D911A6BEA686368C2DC79D SWAP1 PUSH1 0x20 SWAP1 LOG4 JUMP JUMPDEST POP PUSH2 0x587 PUSH2 0x608 CALLER DUP4 PUSH2 0x68D JUMP JUMPDEST SWAP1 POP PUSH2 0x57E JUMP JUMPDEST SWAP1 PUSH1 0x2 DUP2 LT ISZERO PUSH2 0x395 JUMPI PUSH1 0x0 MSTORE PUSH1 0x20 MSTORE PUSH1 0x40 PUSH1 0x0 KECCAK256 SWAP1 JUMP JUMPDEST PUSH1 0x0 DUP1 SLOAD DUP2 MSTORE PUSH1 0x1 PUSH1 0x20 SWAP1 DUP2 MSTORE PUSH1 0x40 DUP1 DUP4 KECCAK256 DUP4 DUP1 MSTORE DUP3 MSTORE DUP1 DUP4 KECCAK256 PUSH1 0x1 PUSH1 0x1 PUSH1 0xA0 SHL SUB SWAP1 SWAP5 AND DUP4 MSTORE SWAP3 SWAP1 MSTORE KECCAK256 JUMPDEST SLOAD ISZERO ISZERO SWAP1 JUMP JUMPDEST SWAP1 PUSH2 0x676 PUSH2 0x653 SWAP3 PUSH1 0x0 SLOAD PUSH1 0x0 MSTORE PUSH1 0x1 PUSH1 0x20 MSTORE PUSH1 0x40 PUSH1 0x0 KECCAK256 PUSH2 0x60F JUMP JUMPDEST SWAP1 PUSH1 0x1 DUP1 PUSH1 0xA0 SHL SUB AND PUSH1 0x0 MSTORE PUSH1 0x20 MSTORE PUSH1 0x40 PUSH1 0x0 KECCAK256 SWAP1 JUMP JUMPDEST PUSH1 0x0 SWAP1 DUP2 MSTORE PUSH1 0x2 PUSH1 0x20 SWAP1 DUP2 MSTORE PUSH1 0x40 DUP1 DUP4 KECCAK256 SLOAD PUSH1 0x3 DUP4 MSTORE DUP2 DUP5 KECCAK256 SWAP1 DUP5 MSTORE DUP3 MSTORE DUP1 DUP4 KECCAK256 DUP4 DUP1 MSTORE DUP3 MSTORE DUP1 DUP4 KECCAK256 PUSH1 0x1 PUSH1 0x1 PUSH1 0xA0 SHL SUB SWAP1 SWAP5 AND DUP4 MSTORE SWAP3 SWAP1 MSTORE KECCAK256 PUSH2 0x653 JUMP JUMPDEST PUSH2 0x653 SWAP3 SWAP2 PUSH2 0x676 SWAP2 PUSH1 0x0 MSTORE PUSH1 0x2 PUSH1 0x20 MSTORE PUSH1 0x40 PUSH1 0x0 KECCAK256 SLOAD PUSH1 0x3 PUSH1 0x20 MSTORE PUSH1 0x40 PUSH1 0x0 KECCAK256 SWAP1 PUSH1 0x0 MSTORE PUSH1 0x20 MSTORE PUSH1 0x40 PUSH1 0x0 KECCAK256 PUSH2 0x60F JUMP JUMPDEST POP PUSH4 0x4E487B71 PUSH1 0xE0 SHL PUSH1 0x0 MSTORE PUSH1 0x41 PUSH1 0x4 MSTORE PUSH1 0x24 PUSH1 0x0 REVERT JUMPDEST SWAP1 PUSH1 0x40 MLOAD SWAP2 DUP1 SLOAD DUP1 DUP5 MSTORE PUSH1 0x20 SWAP1 DUP2 DUP6 ADD SWAP3 PUSH1 0x0 MSTORE DUP2 PUSH1 0x0 KECCAK256 SWAP2 PUSH1 0x0 SWAP1 JUMPDEST DUP3 DUP3 LT PUSH2 0x76E JUMPI POP POP POP POP DUP3 SWAP1 SUB PUSH1 0x1F ADD PUSH1 0x1F NOT AND DUP3 ADD PUSH8 0xFFFFFFFFFFFFFFFF DUP2 GT DUP4 DUP3 LT OR PUSH2 0x761 JUMPI PUSH1 0x40 MSTORE JUMP JUMPDEST PUSH2 0x769 PUSH2 0x6FE JUMP JUMPDEST PUSH1 0x40 MSTORE JUMP JUMPDEST DUP4 SLOAD PUSH1 0x1 PUSH1 0x1 PUSH1 0xA0 SHL SUB AND DUP6 MSTORE SWAP4 DUP5 ADD SWAP4 PUSH1 0x1 SWAP4 DUP5 ADD SWAP4 SWAP1 SWAP2 ADD SWAP1 PUSH2 0x732 JUMP JUMPDEST PUSH1 0x0 DUP1 SLOAD DUP2 MSTORE PUSH1 0x1 SWAP1 DUP2 PUSH2 0x7AA PUSH1 0x20 SWAP5 DUP3 DUP7 MSTORE PUSH1 0x40 DUP5 KECCAK256 PUSH2 0x60F JUMP JUMPDEST ADD SWAP2 PUSH1 0x40 MLOAD DUP1 SWAP5 DUP1 DUP6 SLOAD SWAP3 DUP4 DUP2 MSTORE ADD SWAP5 DUP5 MSTORE DUP1 DUP5 KECCAK256 SWAP4 SWAP1 JUMPDEST DUP3 DUP3 LT PUSH2 0x801 JUMPI POP POP POP POP POP DUP2 SWAP1 SUB PUSH1 0x1F ADD PUSH1 0x1F NOT AND DUP2 ADD PUSH8 0xFFFFFFFFFFFFFFFF DUP2 GT DUP3 DUP3 LT OR PUSH2 0x7F4 JUMPI JUMPDEST PUSH1 0x40 MSTORE SWAP1 JUMP JUMPDEST PUSH2 0x7FC PUSH2 0x6FE JUMP JUMPDEST PUSH2 0x7EE JUMP JUMPDEST DUP5 SLOAD PUSH1 0x1 PUSH1 0x1 PUSH1 0xA0 SHL SUB AND DUP7 MSTORE SWAP5 DUP6 ADD SWAP5 SWAP4 DUP4 ADD SWAP4 SWAP1 DUP4 ADD SWAP1 PUSH2 0x7C2 JUMP JUMPDEST DUP1 SLOAD DUP3 LT ISZERO PUSH2 0x837 JUMPI PUSH1 0x0 MSTORE PUSH1 0x20 PUSH1 0x0 KECCAK256 ADD SWAP1 PUSH1 0x0 SWAP1 JUMP JUMPDEST POP POP POP PUSH4 0x4E487B71 PUSH1 0xE0 SHL PUSH1 0x0 MSTORE PUSH1 0x32 PUSH1 0x4 MSTORE PUSH1 0x24 PUSH1 0x0 REVERT JUMPDEST PUSH1 0x1 PUSH1 0x1 PUSH1 0xA0 SHL SUB DUP3 AND PUSH1 0x0 SWAP1 DUP2 MSTORE PUSH1 0x20 DUP3 SWAP1 MSTORE PUSH1 0x40 SWAP1 KECCAK256 SWAP1 SWAP2 SWAP1 SLOAD ISZERO PUSH2 0x875 JUMPI POP POP JUMP JUMPDEST PUSH2 0x8E1 SWAP1 PUSH1 0x1 DUP4 ADD PUSH2 0x8C8 DUP3 PUSH2 0x8A4 DUP4 SLOAD PUSH9 0x10000000000000000 DUP2 LT ISZERO PUSH2 0x8E4 JUMPI JUMPDEST PUSH1 0x1 DUP2 ADD DUP6 SSTORE DUP5 PUSH2 0x81F JUMP JUMPDEST SWAP1 SWAP2 SWAP1 DUP3 SLOAD SWAP1 PUSH1 0x3 SHL SWAP2 PUSH1 0x1 DUP1 PUSH1 0xA0 SHL SUB SWAP3 DUP4 DUP2 SHL SWAP4 DUP5 SWAP3 AND SWAP1 SHL AND SWAP2 NOT AND OR SWAP1 SSTORE JUMP JUMPDEST SLOAD SWAP3 SWAP1 PUSH1 0x1 DUP1 PUSH1 0xA0 SHL SUB AND PUSH1 0x0 MSTORE PUSH1 0x20 MSTORE PUSH1 0x40 PUSH1 0x0 KECCAK256 SWAP1 JUMP JUMPDEST SSTORE JUMP JUMPDEST PUSH2 0x8EC PUSH2 0x6FE JUMP JUMPDEST PUSH2 0x898 JUMP JUMPDEST POP PUSH4 0x4E487B71 PUSH1 0xE0 SHL PUSH1 0x0 MSTORE PUSH1 0x11 PUSH1 0x4 MSTORE PUSH1 0x24 PUSH1 0x0 REVERT JUMPDEST PUSH1 0x1 PUSH1 0x1 PUSH1 0xA0 SHL SUB DUP3 AND PUSH1 0x0 SWAP1 DUP2 MSTORE PUSH1 0x20 DUP3 SWAP1 MSTORE PUSH1 0x40 SWAP1 KECCAK256 SWAP1 SWAP2 SWAP1 SLOAD PUSH2 0x92C JUMPI POP POP JUMP JUMPDEST PUSH1 0x1 PUSH1 0x1 PUSH1 0xA0 SHL SUB DUP2 AND PUSH1 0x0 SWAP1 DUP2 MSTORE PUSH1 0x20 DUP4 SWAP1 MSTORE PUSH1 0x40 SWAP1 KECCAK256 SLOAD SWAP1 PUSH1 0x1 DUP3 LT PUSH2 0xA33 JUMPI JUMPDEST PUSH1 0x0 NOT SWAP3 DUP4 DUP4 ADD PUSH1 0x1 DUP3 ADD SWAP4 PUSH2 0x9BA PUSH2 0x974 DUP8 DUP8 SLOAD PUSH1 0x1 DUP2 LT PUSH2 0xA26 JUMPI JUMPDEST ADD DUP8 PUSH2 0x81F JUMP JUMPDEST SWAP1 SLOAD PUSH1 0x1 PUSH1 0x1 PUSH1 0xA0 SHL SUB SWAP5 PUSH1 0x3 SWAP3 SWAP1 SWAP3 SHL SHR DUP5 AND SWAP1 PUSH2 0x997 DUP3 PUSH2 0x8A4 DUP4 DUP12 PUSH2 0x81F JUMP JUMPDEST PUSH1 0x1 NOT LT PUSH2 0xA19 JUMPI JUMPDEST PUSH1 0x1 PUSH1 0x1 PUSH1 0xA0 SHL SUB AND PUSH1 0x0 SWAP1 DUP2 MSTORE PUSH1 0x20 DUP6 SWAP1 MSTORE PUSH1 0x40 SWAP1 KECCAK256 SWAP1 JUMP JUMPDEST SSTORE DUP4 SLOAD SWAP4 DUP5 ISZERO PUSH2 0x9FC JUMPI PUSH1 0x0 SWAP6 PUSH2 0x8E1 SWAP6 ADD SWAP2 PUSH2 0x9D7 DUP4 DUP4 PUSH2 0x81F JUMP JUMPDEST SWAP1 SWAP2 DUP3 SLOAD SWAP2 PUSH1 0x3 SHL SHL NOT AND SWAP1 SSTORE SSTORE SWAP1 PUSH1 0x1 DUP1 PUSH1 0xA0 SHL SUB AND PUSH1 0x0 MSTORE PUSH1 0x20 MSTORE PUSH1 0x40 PUSH1 0x0 KECCAK256 SWAP1 JUMP JUMPDEST POP POP POP POP POP POP POP PUSH4 0x4E487B71 PUSH1 0xE0 SHL PUSH1 0x0 MSTORE PUSH1 0x31 PUSH1 0x4 MSTORE PUSH1 0x24 PUSH1 0x0 REVERT JUMPDEST PUSH2 0xA21 PUSH2 0x8F1 JUMP JUMPDEST PUSH2 0x9A0 JUMP JUMPDEST PUSH2 0xA2E PUSH2 0x8F1 JUMP JUMPDEST PUSH2 0x96D JUMP JUMPDEST PUSH2 0xA3B PUSH2 0x8F1 JUMP JUMPDEST PUSH2 0x94F JUMP INVALID LOG3 PUSH5 0x6970667358 0x22 SLT KECCAK256 LOG1 DUP5 PUSH4 0x4AF80636 LOG2 DUP7 0xB6 CALL 0xFB PUSH30 0x6788B947D3F1D83BD3F0581BE6417BF67D25226C6578706572696D656E74 PUSH2 0x6CF5 PUSH5 0x736F6C6343 STOP ADDMOD 0xC STOP COINBASE "
        },
        "gasEstimates": {
          "creation": {
            "codeDepositCost": "538400",
            "executionCost": "79665",
            "totalCost": "618065"
          },
          "external": {
            "getCollectionRoleMembers(uint8)": "infinite",
            "getTokenRoleMembers(uint256,uint8)": "infinite",
            "grantCollectionRole(uint8,address)": "infinite",
            "grantTokenRole(uint256,uint8,address)": "infinite",
            "hasCollectionRole(uint8,address)": "4986",
            "hasTokenRole(uint256,uint8,address)": "5098",
            "revokeCollectionRole(uint8,address)": "infinite",
            "revokeTokenRole(uint256,uint8,address)": "infinite"
          },
          "internal": {
            "_clearAllTokenRoles(uint256)": "infinite",
            "_clearAllTokenRoles(uint256,address)": "infinite",
            "_grantCollectionRole(enum FleekAccessControl.Roles,address)": "infinite",
            "_grantRole(struct FleekAccessControl.Role storage pointer,address)": "77300",
            "_grantTokenRole(uint256,enum FleekAccessControl.Roles,address)": "infinite",
            "_revokeCollectionRole(enum FleekAccessControl.Roles,address)": "infinite",
            "_revokeRole(struct FleekAccessControl.Role storage pointer,address)": "infinite",
            "_revokeTokenRole(uint256,enum FleekAccessControl.Roles,address)": "infinite"
          }
        },
        "methodIdentifiers": {
          "getCollectionRoleMembers(uint8)": "353b07a4",
          "getTokenRoleMembers(uint256,uint8)": "2f1e8f0a",
          "grantCollectionRole(uint8,address)": "2d957aad",
          "grantTokenRole(uint256,uint8,address)": "a27d0b27",
          "hasCollectionRole(uint8,address)": "e9447250",
          "hasTokenRole(uint256,uint8,address)": "b42dbe38",
          "revokeCollectionRole(uint8,address)": "8c3c0a44",
          "revokeTokenRole(uint256,uint8,address)": "01468deb"
        }
      },
      "storageLayout": {
        "storage": [
          {
            "astId": 2715,
            "contract": "contracts/FleekAccessControl.sol:FleekAccessControl",
            "label": "_collectionRolesVersion",
            "offset": 0,
            "slot": "0",
            "type": "t_struct(Counter)1510_storage"
          },
          {
            "astId": 2723,
            "contract": "contracts/FleekAccessControl.sol:FleekAccessControl",
            "label": "_collectionRoles",
            "offset": 0,
            "slot": "1",
            "type": "t_mapping(t_uint256,t_mapping(t_enum(Roles)2664,t_struct(Role)2712_storage))"
          },
          {
            "astId": 2728,
            "contract": "contracts/FleekAccessControl.sol:FleekAccessControl",
            "label": "_tokenRolesVersion",
            "offset": 0,
            "slot": "2",
            "type": "t_mapping(t_uint256,t_struct(Counter)1510_storage)"
          },
          {
            "astId": 2738,
            "contract": "contracts/FleekAccessControl.sol:FleekAccessControl",
            "label": "_tokenRoles",
            "offset": 0,
            "slot": "3",
            "type": "t_mapping(t_uint256,t_mapping(t_uint256,t_mapping(t_enum(Roles)2664,t_struct(Role)2712_storage)))"
          }
        ],
        "types": {
          "t_address": {
            "encoding": "inplace",
            "label": "address",
            "numberOfBytes": "20"
          },
          "t_array(t_address)dyn_storage": {
            "base": "t_address",
            "encoding": "dynamic_array",
            "label": "address[]",
            "numberOfBytes": "32"
          },
          "t_enum(Roles)2664": {
            "encoding": "inplace",
            "label": "enum FleekAccessControl.Roles",
            "numberOfBytes": "1"
          },
          "t_mapping(t_address,t_uint256)": {
            "encoding": "mapping",
            "key": "t_address",
            "label": "mapping(address => uint256)",
            "numberOfBytes": "32",
            "value": "t_uint256"
          },
          "t_mapping(t_enum(Roles)2664,t_struct(Role)2712_storage)": {
            "encoding": "mapping",
            "key": "t_enum(Roles)2664",
            "label": "mapping(enum FleekAccessControl.Roles => struct FleekAccessControl.Role)",
            "numberOfBytes": "32",
            "value": "t_struct(Role)2712_storage"
          },
          "t_mapping(t_uint256,t_mapping(t_enum(Roles)2664,t_struct(Role)2712_storage))": {
            "encoding": "mapping",
            "key": "t_uint256",
            "label": "mapping(uint256 => mapping(enum FleekAccessControl.Roles => struct FleekAccessControl.Role))",
            "numberOfBytes": "32",
            "value": "t_mapping(t_enum(Roles)2664,t_struct(Role)2712_storage)"
          },
          "t_mapping(t_uint256,t_mapping(t_uint256,t_mapping(t_enum(Roles)2664,t_struct(Role)2712_storage)))": {
            "encoding": "mapping",
            "key": "t_uint256",
            "label": "mapping(uint256 => mapping(uint256 => mapping(enum FleekAccessControl.Roles => struct FleekAccessControl.Role)))",
            "numberOfBytes": "32",
            "value": "t_mapping(t_uint256,t_mapping(t_enum(Roles)2664,t_struct(Role)2712_storage))"
          },
          "t_mapping(t_uint256,t_struct(Counter)1510_storage)": {
            "encoding": "mapping",
            "key": "t_uint256",
            "label": "mapping(uint256 => struct Counters.Counter)",
            "numberOfBytes": "32",
            "value": "t_struct(Counter)1510_storage"
          },
          "t_struct(Counter)1510_storage": {
            "encoding": "inplace",
            "label": "struct Counters.Counter",
            "members": [
              {
                "astId": 1509,
                "contract": "contracts/FleekAccessControl.sol:FleekAccessControl",
                "label": "_value",
                "offset": 0,
                "slot": "0",
                "type": "t_uint256"
              }
            ],
            "numberOfBytes": "32"
          },
          "t_struct(Role)2712_storage": {
            "encoding": "inplace",
            "label": "struct FleekAccessControl.Role",
            "members": [
              {
                "astId": 2708,
                "contract": "contracts/FleekAccessControl.sol:FleekAccessControl",
                "label": "indexes",
                "offset": 0,
                "slot": "0",
                "type": "t_mapping(t_address,t_uint256)"
              },
              {
                "astId": 2711,
                "contract": "contracts/FleekAccessControl.sol:FleekAccessControl",
                "label": "members",
                "offset": 0,
                "slot": "1",
                "type": "t_array(t_address)dyn_storage"
              }
            ],
            "numberOfBytes": "64"
          },
          "t_uint256": {
            "encoding": "inplace",
            "label": "uint256",
            "numberOfBytes": "32"
          }
        }
      },
      "userdoc": {
        "kind": "user",
        "methods": {},
        "version": 1
      }
    }
  }
}