{
  "contracts/FleekERC721.sol": {
    "FleekERC721": {
      "abi": [
        {
          "inputs": [
            {
              "internalType": "string",
              "name": "_name",
              "type": "string"
            },
            {
              "internalType": "string",
              "name": "_symbol",
              "type": "string"
            }
          ],
          "stateMutability": "nonpayable",
          "type": "constructor"
        },
        {
          "anonymous": false,
          "inputs": [
            {
              "indexed": true,
              "internalType": "address",
              "name": "owner",
              "type": "address"
            },
            {
              "indexed": true,
              "internalType": "address",
              "name": "approved",
              "type": "address"
            },
            {
              "indexed": true,
              "internalType": "uint256",
              "name": "tokenId",
              "type": "uint256"
            }
          ],
          "name": "Approval",
          "type": "event"
        },
        {
          "anonymous": false,
          "inputs": [
            {
              "indexed": true,
              "internalType": "address",
              "name": "owner",
              "type": "address"
            },
            {
              "indexed": true,
              "internalType": "address",
              "name": "operator",
              "type": "address"
            },
            {
              "indexed": false,
              "internalType": "bool",
              "name": "approved",
              "type": "bool"
            }
          ],
          "name": "ApprovalForAll",
          "type": "event"
        },
        {
          "anonymous": false,
          "inputs": [
            {
              "indexed": true,
              "internalType": "string",
              "name": "apName",
              "type": "string"
            },
            {
              "indexed": false,
              "internalType": "uint256",
              "name": "tokenId",
              "type": "uint256"
            },
            {
              "indexed": true,
              "internalType": "bool",
              "name": "verified",
              "type": "bool"
            },
            {
              "indexed": true,
              "internalType": "address",
              "name": "triggeredBy",
              "type": "address"
            }
          ],
          "name": "ChangeAccessPointContentVerify",
          "type": "event"
        },
        {
          "anonymous": false,
          "inputs": [
            {
              "indexed": true,
              "internalType": "string",
              "name": "apName",
              "type": "string"
            },
            {
              "indexed": false,
              "internalType": "uint256",
              "name": "tokenId",
              "type": "uint256"
            },
            {
              "indexed": true,
              "internalType": "bool",
              "name": "verified",
              "type": "bool"
            },
            {
              "indexed": true,
              "internalType": "address",
              "name": "triggeredBy",
              "type": "address"
            }
          ],
          "name": "ChangeAccessPointNameVerify",
          "type": "event"
        },
        {
          "anonymous": false,
          "inputs": [
            {
              "indexed": true,
              "internalType": "string",
              "name": "apName",
              "type": "string"
            },
            {
              "indexed": true,
              "internalType": "uint256",
              "name": "tokenId",
              "type": "uint256"
            },
            {
              "indexed": false,
              "internalType": "uint256",
              "name": "score",
              "type": "uint256"
            },
            {
              "indexed": true,
              "internalType": "address",
              "name": "triggeredBy",
              "type": "address"
            }
          ],
          "name": "ChangeAccessPointScore",
          "type": "event"
        },
        {
          "anonymous": false,
          "inputs": [
            {
              "indexed": true,
              "internalType": "enum FleekAccessControl.Roles",
              "name": "role",
              "type": "uint8"
            },
            {
              "indexed": true,
              "internalType": "address",
              "name": "toAddress",
              "type": "address"
            },
            {
              "indexed": false,
              "internalType": "address",
              "name": "byAddress",
              "type": "address"
            }
          ],
          "name": "CollectionRoleGranted",
          "type": "event"
        },
        {
          "anonymous": false,
          "inputs": [
            {
              "indexed": true,
              "internalType": "enum FleekAccessControl.Roles",
              "name": "role",
              "type": "uint8"
            },
            {
              "indexed": true,
              "internalType": "address",
              "name": "toAddress",
              "type": "address"
            },
            {
              "indexed": false,
              "internalType": "address",
              "name": "byAddress",
              "type": "address"
            }
          ],
          "name": "CollectionRoleRevoked",
          "type": "event"
        },
        {
          "anonymous": false,
          "inputs": [
            {
              "indexed": true,
              "internalType": "string",
              "name": "apName",
              "type": "string"
            },
            {
              "indexed": true,
              "internalType": "uint256",
              "name": "tokenId",
              "type": "uint256"
            },
            {
              "indexed": true,
              "internalType": "address",
              "name": "owner",
              "type": "address"
            }
          ],
          "name": "NewAccessPoint",
          "type": "event"
        },
        {
          "anonymous": false,
          "inputs": [
            {
              "indexed": true,
              "internalType": "uint256",
              "name": "token",
              "type": "uint256"
            },
            {
              "indexed": true,
              "internalType": "string",
              "name": "commitHash",
              "type": "string"
            },
            {
              "indexed": true,
              "internalType": "address",
              "name": "triggeredBy",
              "type": "address"
            }
          ],
          "name": "NewBuild",
          "type": "event"
        },
        {
          "anonymous": false,
          "inputs": [
            {
              "indexed": true,
              "internalType": "uint256",
              "name": "token",
              "type": "uint256"
            },
            {
              "indexed": true,
              "internalType": "string",
              "name": "description",
              "type": "string"
            },
            {
              "indexed": true,
              "internalType": "address",
              "name": "triggeredBy",
              "type": "address"
            }
          ],
          "name": "NewTokenDescription",
          "type": "event"
        },
        {
          "anonymous": false,
          "inputs": [
            {
              "indexed": true,
              "internalType": "uint256",
              "name": "token",
              "type": "uint256"
            },
            {
              "indexed": true,
              "internalType": "string",
              "name": "ENS",
              "type": "string"
            },
            {
              "indexed": true,
              "internalType": "address",
              "name": "triggeredBy",
              "type": "address"
            }
          ],
          "name": "NewTokenENS",
          "type": "event"
        },
        {
          "anonymous": false,
          "inputs": [
            {
              "indexed": true,
              "internalType": "uint256",
              "name": "token",
              "type": "uint256"
            },
            {
              "indexed": true,
              "internalType": "string",
              "name": "externalURL",
              "type": "string"
            },
            {
              "indexed": true,
              "internalType": "address",
              "name": "triggeredBy",
              "type": "address"
            }
          ],
          "name": "NewTokenExternalURL",
          "type": "event"
        },
        {
          "anonymous": false,
          "inputs": [
            {
              "indexed": true,
              "internalType": "uint256",
              "name": "token",
              "type": "uint256"
            },
            {
              "indexed": true,
              "internalType": "string",
              "name": "image",
              "type": "string"
            },
            {
              "indexed": true,
              "internalType": "address",
              "name": "triggeredBy",
              "type": "address"
            }
          ],
          "name": "NewTokenImage",
          "type": "event"
        },
        {
          "anonymous": false,
          "inputs": [
            {
              "indexed": true,
              "internalType": "uint256",
              "name": "token",
              "type": "uint256"
            },
            {
              "indexed": true,
              "internalType": "string",
              "name": "name",
              "type": "string"
            },
            {
              "indexed": true,
              "internalType": "address",
              "name": "triggeredBy",
              "type": "address"
            }
          ],
          "name": "NewTokenName",
          "type": "event"
        },
        {
          "anonymous": false,
          "inputs": [
            {
              "indexed": true,
              "internalType": "string",
              "name": "apName",
              "type": "string"
            },
            {
              "indexed": true,
              "internalType": "uint256",
              "name": "tokenId",
              "type": "uint256"
            },
            {
              "indexed": true,
              "internalType": "address",
              "name": "owner",
              "type": "address"
            }
          ],
          "name": "RemoveAccessPoint",
          "type": "event"
        },
        {
          "anonymous": false,
          "inputs": [
            {
              "indexed": true,
              "internalType": "uint256",
              "name": "tokenId",
              "type": "uint256"
            },
            {
              "indexed": true,
              "internalType": "enum FleekAccessControl.Roles",
              "name": "role",
              "type": "uint8"
            },
            {
              "indexed": true,
              "internalType": "address",
              "name": "toAddress",
              "type": "address"
            },
            {
              "indexed": false,
              "internalType": "address",
              "name": "byAddress",
              "type": "address"
            }
          ],
          "name": "TokenRoleGranted",
          "type": "event"
        },
        {
          "anonymous": false,
          "inputs": [
            {
              "indexed": true,
              "internalType": "uint256",
              "name": "tokenId",
              "type": "uint256"
            },
            {
              "indexed": true,
              "internalType": "enum FleekAccessControl.Roles",
              "name": "role",
              "type": "uint8"
            },
            {
              "indexed": true,
              "internalType": "address",
              "name": "toAddress",
              "type": "address"
            },
            {
              "indexed": false,
              "internalType": "address",
              "name": "byAddress",
              "type": "address"
            }
          ],
          "name": "TokenRoleRevoked",
          "type": "event"
        },
        {
          "anonymous": false,
          "inputs": [
            {
              "indexed": true,
              "internalType": "address",
              "name": "from",
              "type": "address"
            },
            {
              "indexed": true,
              "internalType": "address",
              "name": "to",
              "type": "address"
            },
            {
              "indexed": true,
              "internalType": "uint256",
              "name": "tokenId",
              "type": "uint256"
            }
          ],
          "name": "Transfer",
          "type": "event"
        },
        {
          "inputs": [
            {
              "internalType": "uint256",
              "name": "tokenId",
              "type": "uint256"
            },
            {
              "internalType": "string",
              "name": "apName",
              "type": "string"
            }
          ],
          "name": "addAccessPoint",
          "outputs": [],
          "stateMutability": "payable",
          "type": "function"
        },
        {
          "inputs": [
            {
              "internalType": "uint256",
              "name": "tokenId",
              "type": "uint256"
            }
          ],
          "name": "appAccessPoints",
          "outputs": [
            {
              "internalType": "string[]",
              "name": "",
              "type": "string[]"
            }
          ],
          "stateMutability": "view",
          "type": "function"
        },
        {
          "inputs": [
            {
              "internalType": "address",
              "name": "to",
              "type": "address"
            },
            {
              "internalType": "uint256",
              "name": "tokenId",
              "type": "uint256"
            }
          ],
          "name": "approve",
          "outputs": [],
          "stateMutability": "nonpayable",
          "type": "function"
        },
        {
          "inputs": [
            {
              "internalType": "address",
              "name": "owner",
              "type": "address"
            }
          ],
          "name": "balanceOf",
          "outputs": [
            {
              "internalType": "uint256",
              "name": "",
              "type": "uint256"
            }
          ],
          "stateMutability": "view",
          "type": "function"
        },
        {
          "inputs": [
            {
              "internalType": "uint256",
              "name": "tokenId",
              "type": "uint256"
            }
          ],
          "name": "burn",
          "outputs": [],
          "stateMutability": "nonpayable",
          "type": "function"
        },
        {
          "inputs": [
            {
              "internalType": "string",
              "name": "apName",
              "type": "string"
            }
          ],
          "name": "decreaseAccessPointScore",
          "outputs": [],
          "stateMutability": "nonpayable",
          "type": "function"
        },
        {
          "inputs": [
            {
              "internalType": "string",
              "name": "apName",
              "type": "string"
            }
          ],
          "name": "getAccessPointJSON",
          "outputs": [
            {
              "internalType": "string",
              "name": "",
              "type": "string"
            }
          ],
          "stateMutability": "view",
          "type": "function"
        },
        {
          "inputs": [
            {
              "internalType": "uint256",
              "name": "tokenId",
              "type": "uint256"
            }
          ],
          "name": "getApproved",
          "outputs": [
            {
              "internalType": "address",
              "name": "",
              "type": "address"
            }
          ],
          "stateMutability": "view",
          "type": "function"
        },
        {
          "inputs": [
            {
              "internalType": "enum FleekAccessControl.Roles",
              "name": "role",
              "type": "uint8"
            }
          ],
          "name": "getCollectionRoleMembers",
          "outputs": [
            {
              "internalType": "address[]",
              "name": "",
              "type": "address[]"
            }
          ],
          "stateMutability": "view",
          "type": "function"
        },
        {
          "inputs": [
            {
              "internalType": "uint256",
              "name": "tokenId",
              "type": "uint256"
            },
            {
              "internalType": "enum FleekAccessControl.Roles",
              "name": "role",
              "type": "uint8"
            }
          ],
          "name": "getTokenRoleMembers",
          "outputs": [
            {
              "internalType": "address[]",
              "name": "",
              "type": "address[]"
            }
          ],
          "stateMutability": "view",
          "type": "function"
        },
        {
          "inputs": [
            {
              "internalType": "enum FleekAccessControl.Roles",
              "name": "role",
              "type": "uint8"
            },
            {
              "internalType": "address",
              "name": "account",
              "type": "address"
            }
          ],
          "name": "grantCollectionRole",
          "outputs": [],
          "stateMutability": "nonpayable",
          "type": "function"
        },
        {
          "inputs": [
            {
              "internalType": "uint256",
              "name": "tokenId",
              "type": "uint256"
            },
            {
              "internalType": "enum FleekAccessControl.Roles",
              "name": "role",
              "type": "uint8"
            },
            {
              "internalType": "address",
              "name": "account",
              "type": "address"
            }
          ],
          "name": "grantTokenRole",
          "outputs": [],
          "stateMutability": "nonpayable",
          "type": "function"
        },
        {
          "inputs": [
            {
              "internalType": "enum FleekAccessControl.Roles",
              "name": "role",
              "type": "uint8"
            },
            {
              "internalType": "address",
              "name": "account",
              "type": "address"
            }
          ],
          "name": "hasCollectionRole",
          "outputs": [
            {
              "internalType": "bool",
              "name": "",
              "type": "bool"
            }
          ],
          "stateMutability": "view",
          "type": "function"
        },
        {
          "inputs": [
            {
              "internalType": "uint256",
              "name": "tokenId",
              "type": "uint256"
            },
            {
              "internalType": "enum FleekAccessControl.Roles",
              "name": "role",
              "type": "uint8"
            },
            {
              "internalType": "address",
              "name": "account",
              "type": "address"
            }
          ],
          "name": "hasTokenRole",
          "outputs": [
            {
              "internalType": "bool",
              "name": "",
              "type": "bool"
            }
          ],
          "stateMutability": "view",
          "type": "function"
        },
        {
          "inputs": [
            {
              "internalType": "string",
              "name": "apName",
              "type": "string"
            }
          ],
          "name": "increaseAccessPointScore",
          "outputs": [],
          "stateMutability": "nonpayable",
          "type": "function"
        },
        {
          "inputs": [
            {
              "internalType": "string",
              "name": "apName",
              "type": "string"
            }
          ],
          "name": "isAccessPointNameVerified",
          "outputs": [
            {
              "internalType": "bool",
              "name": "",
              "type": "bool"
            }
          ],
          "stateMutability": "view",
          "type": "function"
        },
        {
          "inputs": [
            {
              "internalType": "address",
              "name": "owner",
              "type": "address"
            },
            {
              "internalType": "address",
              "name": "operator",
              "type": "address"
            }
          ],
          "name": "isApprovedForAll",
          "outputs": [
            {
              "internalType": "bool",
              "name": "",
              "type": "bool"
            }
          ],
          "stateMutability": "view",
          "type": "function"
        },
        {
          "inputs": [
            {
              "internalType": "address",
              "name": "to",
              "type": "address"
            },
            {
              "internalType": "string",
              "name": "name",
              "type": "string"
            },
            {
              "internalType": "string",
              "name": "description",
              "type": "string"
            },
            {
              "internalType": "string",
              "name": "externalURL",
              "type": "string"
            },
            {
              "internalType": "string",
              "name": "ENS",
              "type": "string"
            },
            {
              "internalType": "string",
              "name": "commitHash",
              "type": "string"
            },
            {
              "internalType": "string",
              "name": "gitRepository",
              "type": "string"
            }
          ],
          "name": "mint",
          "outputs": [
            {
              "internalType": "uint256",
              "name": "",
              "type": "uint256"
            }
          ],
          "stateMutability": "payable",
          "type": "function"
        },
        {
          "inputs": [],
          "name": "name",
          "outputs": [
            {
              "internalType": "string",
              "name": "",
              "type": "string"
            }
          ],
          "stateMutability": "view",
          "type": "function"
        },
        {
          "inputs": [
            {
              "internalType": "uint256",
              "name": "tokenId",
              "type": "uint256"
            }
          ],
          "name": "ownerOf",
          "outputs": [
            {
              "internalType": "address",
              "name": "",
              "type": "address"
            }
          ],
          "stateMutability": "view",
          "type": "function"
        },
        {
          "inputs": [
            {
              "internalType": "string",
              "name": "apName",
              "type": "string"
            }
          ],
          "name": "removeAccessPoint",
          "outputs": [],
          "stateMutability": "nonpayable",
          "type": "function"
        },
        {
          "inputs": [
            {
              "internalType": "enum FleekAccessControl.Roles",
              "name": "role",
              "type": "uint8"
            },
            {
              "internalType": "address",
              "name": "account",
              "type": "address"
            }
          ],
          "name": "revokeCollectionRole",
          "outputs": [],
          "stateMutability": "nonpayable",
          "type": "function"
        },
        {
          "inputs": [
            {
              "internalType": "uint256",
              "name": "tokenId",
              "type": "uint256"
            },
            {
              "internalType": "enum FleekAccessControl.Roles",
              "name": "role",
              "type": "uint8"
            },
            {
              "internalType": "address",
              "name": "account",
              "type": "address"
            }
          ],
          "name": "revokeTokenRole",
          "outputs": [],
          "stateMutability": "nonpayable",
          "type": "function"
        },
        {
          "inputs": [
            {
              "internalType": "address",
              "name": "from",
              "type": "address"
            },
            {
              "internalType": "address",
              "name": "to",
              "type": "address"
            },
            {
              "internalType": "uint256",
              "name": "tokenId",
              "type": "uint256"
            }
          ],
          "name": "safeTransferFrom",
          "outputs": [],
          "stateMutability": "nonpayable",
          "type": "function"
        },
        {
          "inputs": [
            {
              "internalType": "address",
              "name": "from",
              "type": "address"
            },
            {
              "internalType": "address",
              "name": "to",
              "type": "address"
            },
            {
              "internalType": "uint256",
              "name": "tokenId",
              "type": "uint256"
            },
            {
              "internalType": "bytes",
              "name": "data",
              "type": "bytes"
            }
          ],
          "name": "safeTransferFrom",
          "outputs": [],
          "stateMutability": "nonpayable",
          "type": "function"
        },
        {
          "inputs": [
            {
              "internalType": "string",
              "name": "apName",
              "type": "string"
            },
            {
              "internalType": "bool",
              "name": "verified",
              "type": "bool"
            }
          ],
          "name": "setAccessPointContentVerify",
          "outputs": [],
          "stateMutability": "nonpayable",
          "type": "function"
        },
        {
          "inputs": [
            {
              "internalType": "string",
              "name": "apName",
              "type": "string"
            },
            {
              "internalType": "bool",
              "name": "verified",
              "type": "bool"
            }
          ],
          "name": "setAccessPointNameVerify",
          "outputs": [],
          "stateMutability": "nonpayable",
          "type": "function"
        },
        {
          "inputs": [
            {
              "internalType": "address",
              "name": "operator",
              "type": "address"
            },
            {
              "internalType": "bool",
              "name": "approved",
              "type": "bool"
            }
          ],
          "name": "setApprovalForAll",
          "outputs": [],
          "stateMutability": "nonpayable",
          "type": "function"
        },
        {
          "inputs": [
            {
              "internalType": "uint256",
              "name": "tokenId",
              "type": "uint256"
            },
            {
              "internalType": "string",
              "name": "_commitHash",
              "type": "string"
            },
            {
              "internalType": "string",
              "name": "_gitRepository",
              "type": "string"
            }
          ],
          "name": "setTokenBuild",
          "outputs": [],
          "stateMutability": "nonpayable",
          "type": "function"
        },
        {
          "inputs": [
            {
              "internalType": "uint256",
              "name": "tokenId",
              "type": "uint256"
            },
            {
              "internalType": "string",
              "name": "_tokenDescription",
              "type": "string"
            }
          ],
          "name": "setTokenDescription",
          "outputs": [],
          "stateMutability": "nonpayable",
          "type": "function"
        },
        {
          "inputs": [
            {
              "internalType": "uint256",
              "name": "tokenId",
              "type": "uint256"
            },
            {
              "internalType": "string",
              "name": "_tokenENS",
              "type": "string"
            }
          ],
          "name": "setTokenENS",
          "outputs": [],
          "stateMutability": "nonpayable",
          "type": "function"
        },
        {
          "inputs": [
            {
              "internalType": "uint256",
              "name": "tokenId",
              "type": "uint256"
            },
            {
              "internalType": "string",
              "name": "_tokenExternalURL",
              "type": "string"
            }
          ],
          "name": "setTokenExternalURL",
          "outputs": [],
          "stateMutability": "nonpayable",
          "type": "function"
        },
        {
          "inputs": [
            {
              "internalType": "uint256",
              "name": "tokenId",
              "type": "uint256"
            },
            {
              "internalType": "string",
              "name": "_tokenName",
              "type": "string"
            }
          ],
          "name": "setTokenName",
          "outputs": [],
          "stateMutability": "nonpayable",
          "type": "function"
        },
        {
          "inputs": [
            {
              "internalType": "bytes4",
              "name": "interfaceId",
              "type": "bytes4"
            }
          ],
          "name": "supportsInterface",
          "outputs": [
            {
              "internalType": "bool",
              "name": "",
              "type": "bool"
            }
          ],
          "stateMutability": "view",
          "type": "function"
        },
        {
          "inputs": [],
          "name": "symbol",
          "outputs": [
            {
              "internalType": "string",
              "name": "",
              "type": "string"
            }
          ],
          "stateMutability": "view",
          "type": "function"
        },
        {
          "inputs": [
            {
              "internalType": "uint256",
              "name": "tokenId",
              "type": "uint256"
            }
          ],
          "name": "tokenURI",
          "outputs": [
            {
              "internalType": "string",
              "name": "",
              "type": "string"
            }
          ],
          "stateMutability": "view",
          "type": "function"
        },
        {
          "inputs": [
            {
              "internalType": "address",
              "name": "from",
              "type": "address"
            },
            {
              "internalType": "address",
              "name": "to",
              "type": "address"
            },
            {
              "internalType": "uint256",
              "name": "tokenId",
              "type": "uint256"
            }
          ],
          "name": "transferFrom",
          "outputs": [],
          "stateMutability": "nonpayable",
          "type": "function"
        }
      ],
      "devdoc": {
        "kind": "dev",
        "methods": {
          "addAccessPoint(uint256,string)": {
            "details": "Add a new AccessPoint register for an app token. The AP name should be a DNS or ENS url and it should be unique. Anyone can add an AP but it should requires a payment. May emit a {NewAccessPoint} event. Requirements: - the tokenId must be minted and valid. IMPORTANT: The payment is not set yet"
          },
          "appAccessPoints(uint256)": {
            "details": "A view function to gether the list of mirrros for a given app. Requirements: - the tokenId must be minted and valid."
          },
          "approve(address,uint256)": {
            "details": "See {IERC721-approve}."
          },
          "balanceOf(address)": {
            "details": "See {IERC721-balanceOf}."
          },
          "burn(uint256)": {
            "details": "Burns a previously minted `tokenId`. May emit a {Transfer} event. Requirements: - the tokenId must be minted and valid. - the sender must have the `tokenOwner` role."
          },
          "constructor": {
            "details": "Initializes the contract by setting a `name` and a `symbol` to the token collection."
          },
          "decreaseAccessPointScore(string)": {
            "details": "Decreases the score of a AccessPoint registry if is greater than 0. May emit a {ChangeAccessPointScore} event. Requirements: - the AP must exist."
          },
          "getAccessPointJSON(string)": {
            "details": "A view function to gether information about an AccessPoint. It returns a JSON string representing the AccessPoint information. Requirements: - the AP must exist."
          },
          "getApproved(uint256)": {
            "details": "See {IERC721-getApproved}."
          },
          "getCollectionRoleMembers(uint8)": {
            "details": "Returns an array of addresses that all have the collection role."
          },
          "getTokenRoleMembers(uint256,uint8)": {
            "details": "Returns an array of addresses that all have the same token role for a certain tokenId."
          },
          "grantCollectionRole(uint8,address)": {
            "details": "Grants the collection role to an address. Requirements: - the caller should have the collection role."
          },
          "grantTokenRole(uint256,uint8,address)": {
            "details": "Grants the token role to an address. Requirements: - the caller should have the token role."
          },
          "hasCollectionRole(uint8,address)": {
            "details": "Returns `True` if a certain address has the collection role."
          },
          "hasTokenRole(uint256,uint8,address)": {
            "details": "Returns `True` if a certain address has the token role."
          },
          "increaseAccessPointScore(string)": {
            "details": "Increases the score of a AccessPoint registry. May emit a {ChangeAccessPointScore} event. Requirements: - the AP must exist."
          },
          "isAccessPointNameVerified(string)": {
            "details": "A view function to check if a AccessPoint is verified. Requirements: - the AP must exist."
          },
          "isApprovedForAll(address,address)": {
            "details": "See {IERC721-isApprovedForAll}."
          },
          "mint(address,string,string,string,string,string,string)": {
            "details": "Mints a token and returns a tokenId. If the `tokenId` has not been minted before, and the `to` address is not zero, emits a {Transfer} event. Requirements: - the caller must have ``collectionOwner``'s admin role."
          },
          "name()": {
            "details": "See {IERC721Metadata-name}."
          },
          "ownerOf(uint256)": {
            "details": "See {IERC721-ownerOf}."
          },
          "removeAccessPoint(string)": {
            "details": "Remove an AccessPoint registry for an app token. It will also remove the AP from the app token APs list. May emit a {RemoveAccessPoint} event. Requirements: - the AP must exist. - must be called by the AP owner."
          },
          "revokeCollectionRole(uint8,address)": {
            "details": "Revokes the collection role of an address. Requirements: - the caller should have the collection role."
          },
          "revokeTokenRole(uint256,uint8,address)": {
            "details": "Revokes the token role of an address. Requirements: - the caller should have the token role."
          },
          "safeTransferFrom(address,address,uint256)": {
            "details": "See {IERC721-safeTransferFrom}."
          },
          "safeTransferFrom(address,address,uint256,bytes)": {
            "details": "See {IERC721-safeTransferFrom}."
          },
          "setAccessPointContentVerify(string,bool)": {
            "details": "Set the content verification of a AccessPoint registry. May emit a {ChangeAccessPointContentVerify} event. Requirements: - the AP must exist. - the sender must have the token controller role."
          },
          "setAccessPointNameVerify(string,bool)": {
            "details": "Set the name verification of a AccessPoint registry. May emit a {ChangeAccessPointNameVerify} event. Requirements: - the AP must exist. - the sender must have the token controller role."
          },
          "setApprovalForAll(address,bool)": {
            "details": "See {IERC721-setApprovalForAll}."
          },
          "setTokenBuild(uint256,string,string)": {
            "details": "Adds a new build to a minted `tokenId`'s builds mapping. May emit a {NewBuild} event. Requirements: - the tokenId must be minted and valid. - the sender must have the `tokenController` role."
          },
          "setTokenDescription(uint256,string)": {
            "details": "Updates the `description` metadata field of a minted `tokenId`. May emit a {NewTokenDescription} event. Requirements: - the tokenId must be minted and valid. - the sender must have the `tokenController` role."
          },
          "setTokenENS(uint256,string)": {
            "details": "Updates the `ENS` metadata field of a minted `tokenId`. May emit a {NewTokenENS} event. Requirements: - the tokenId must be minted and valid. - the sender must have the `tokenController` role."
          },
          "setTokenExternalURL(uint256,string)": {
            "details": "Updates the `externalURL` metadata field of a minted `tokenId`. May emit a {NewTokenExternalURL} event. Requirements: - the tokenId must be minted and valid. - the sender must have the `tokenController` role."
          },
          "setTokenName(uint256,string)": {
            "details": "Updates the `name` metadata field of a minted `tokenId`. May emit a {NewTokenName} event. Requirements: - the tokenId must be minted and valid. - the sender must have the `tokenController` role."
          },
          "supportsInterface(bytes4)": {
            "details": "See {IERC165-supportsInterface}."
          },
          "symbol()": {
            "details": "See {IERC721Metadata-symbol}."
          },
          "tokenURI(uint256)": {
            "details": "Returns the token metadata associated with the `tokenId`. Returns a based64 encoded string value of the URI. Requirements: - the tokenId must be minted and valid."
          },
          "transferFrom(address,address,uint256)": {
            "details": "See {IERC721-transferFrom}."
          }
        },
        "version": 1
      },
      "evm": {
        "bytecode": {
          "linkReferences": {},
          "object": "608060405234620001a85762004bf4803803806200001d81620001c4565b9283398101604082820312620001a15781516001600160401b0391908281116200019857816200004f918501620001f9565b92602091828201518481116200018d576200006b9201620001f9565b9183519081116200017d575b60009162000091826200008b85546200029f565b620002de565b80601f8311600114620000ef57508190620000c8958492620000e3575b50508160011b916000199060031b1c191617905562000392565b620000d33362000494565b60405161465e9081620005968239f35b015190503880620000ae565b600080529194601f1986167f290decd9548b62a8d60345a988386fc84ba6bc95484008f6362f93160ef3e5639385905b82821062000164575050916001939187620000c89894106200014a575b505050811b01905562000392565b015160001960f88460031b161c191690553880806200013c565b806001869782949787015181550196019401906200011f565b62000187620001ad565b62000077565b505050505050600080fd5b50505050600080fd5b5050600080fd5b600080fd5b50634e487b7160e01b600052604160045260246000fd5b6040519190601f01601f191682016001600160401b03811183821017620001ea57604052565b620001f4620001ad565b604052565b81601f8201121562000297578051906001600160401b03821162000287575b6020906200022f601f8401601f19168301620001c4565b938385528284830101116200027d5782906000905b8383831062000264575050116200025a57505090565b6000918301015290565b8193508281939201015182828801015201839162000244565b5050505050600080fd5b62000291620001ad565b62000218565b505050600080fd5b90600182811c92168015620002d3575b6020831014620002bb57565b5050634e487b7160e01b600052602260045260246000fd5b91607f1691620002af565b601f8111620002eb575050565b60009081805260208220906020601f850160051c830194106200032b575b601f0160051c01915b8281106200031f57505050565b81815560010162000312565b909250829062000309565b90601f821162000344575050565b60019160009083825260208220906020601f850160051c8301941062000387575b601f0160051c01915b8281106200037c5750505050565b81815583016200036e565b909250829062000365565b80519091906001600160401b03811162000484575b600190620003c181620003bb84546200029f565b62000336565b602080601f8311600114620003ff575081929394600092620003f3575b5050600019600383901b1c191690821b179055565b015190503880620003de565b6001600052601f198316959091907fb10e2d527612073b26eecdfd717e6a320cf44b4afac2b0732d9fcbe2b7fa0cf6926000905b8882106200046c575050838596971062000452575b505050811b019055565b015160001960f88460031b161c1916905538808062000448565b80878596829496860151815501950193019062000433565b6200048e620001ad565b620003a7565b600654600090815260076020908152604080832083805282528083206001600160a01b0385168452918290528220541562000506575b506040513381526001600160a01b0392909216917fcf081ed2b728e3115904be00eb8927b2375ff3401839b37f7accfa1bb2bee15c90602090a3565b6001810180546801000000000000000081101562000585575b600181018083558110156200056b57818452602080852090910180546001600160a01b0319166001600160a01b03871690811790915591546000928352929052604090205538620004ca565b5050634e487b7160e01b8252506032600452602492509050fd5b6200058f620001ad565b6200051f56fe6040608081526004361015610015575b50600080fd5b600090813560e01c806301468deb1461063f57806301ffc9a71461062357806306fdde0314610607578063081812fc146105eb578063095ea7b3146105d357806323b872dd146105bb578063246a908b146105a357806327dc5cec146105875780632d957aad1461056f5780632f1e8f0a1461050b578063353b07a4146104e45780633806f152146104cc57806342842e0e146104b457806342966c681461049d57806342e44bbf146104855780636352211e1461045057806370a08231146104345780637469a03b1461041d57806378278cca146104055780638c3c0a44146103ed57806394ec65c5146103d657806395d89b41146103ba578063a22cb465146103a2578063a27d0b271461038a578063a397c83014610373578063aba8112514610346578063b20b94f11461032e578063b30437a01461031b578063b42dbe38146102fe578063b88d4fde146102e3578063c87b56dd146102bc578063cdb0e89e146102a4578063d7a75be114610288578063e94472501461026b578063e985e9c514610202578063f6be6b78146101d75763f9315177146101b9575061000f565b346101d3576101d06101ca36610900565b90612914565b51f35b5080fd5b50346101d3576101fe91506101f36101ee36610761565b61341c565b905191829182610c5c565b0390f35b50346101d3576101fe915061025a61025361023c61021f36610c29565b6001600160a01b0390911660009081526005602052604090209091565b9060018060a01b0316600052602052604060002090565b5460ff1690565b905190151581529081906020820190565b50346101d3576101fe915061025a61028236610959565b90611aec565b50346101d3576101fe915061025a61029f3661092f565b613154565b50346101d3576101d06102b636610900565b90612a74565b50346101d3576101fe91506102d86102d336610761565b6124fc565b905191829182610750565b50346101d3576101d06102f536610bb9565b929190916112c7565b50346101d3576101fe915061025a61031536610675565b91611b88565b506101d061032836610900565b90612c8a565b50346101d3576101d061034036610a4d565b906132e3565b506101fe915061036461035836610adc565b95949094939193612011565b90519081529081906020820190565b50346101d3576101d06103853661092f565b613208565b50346101d3576101d061039c36610675565b916118b1565b50346101d3576101d06103b436610aab565b90611131565b50346101d3576101fe91506103ce366106e8565b6102d8610e97565b50346101d3576101d06103e83661092f565b61317c565b50346101d3576101d06103ff36610959565b9061196c565b50346101d3576101d061041736610900565b906129d4565b50346101d3576101d061042f3661092f565b612e09565b50346101d3576101fe915061036461044b36610a88565b610cbe565b50346101d3576101fe915061046c61046736610761565b610d84565b90516001600160a01b0390911681529081906020820190565b50346101d3576101d061049736610a4d565b90613395565b50346101d3576101d06104af36610761565b6135a8565b50346101d3576101d06104c63661079a565b9161128d565b50346101d3576101d06104de36610a07565b916134bc565b50346101d3576101fe91506105006104fb366109ec565b611c12565b9051918291826109a8565b50346101d3576101fe9150610500600161056961056461052a36610989565b9190610555610543826000526008602052604060002090565b54916000526009602052604060002090565b90600052602052604060002090565b611aa0565b01611bba565b50346101d3576101d061058136610959565b906117a8565b50346101d3576101fe91506102d861059e3661092f565b612fdf565b50346101d3576101d06105b536610900565b90612b11565b50346101d3576101d06105cd3661079a565b9161125d565b50346101d3576101d06105e536610773565b90610fcd565b50346101d3576101fe915061046c61060236610761565b6110f3565b50346101d3576101fe915061061b366106e8565b6102d8610de3565b50346101d3576101fe915061025a61063a366106cd565b612855565b50346101d3576101d061065136610675565b916119fe565b600435906001600160a01b03821682141561066e57565b5050600080fd5b606090600319011261000f576004359060243560028110156106b257906044356001600160a01b0381168114156106a95790565b50505050600080fd5b505050600080fd5b6001600160e01b03198116141561000f57565b602090600319011261000f576004356106e5816106ba565b90565b600090600319011261000f57565b918091926000905b82821061071657501161070f575050565b6000910152565b915080602091830151818601520182916106fe565b90602091610744815180928185528580860191016106f6565b601f01601f1916010190565b9060206106e592818152019061072b565b602090600319011261000f5760043590565b604090600319011261000f576004356001600160a01b03811681141561066e579060243590565b606090600319011261000f576001600160a01b03906004358281168114156106b257916024359081168114156106b2579060443590565b50634e487b7160e01b600052604160045260246000fd5b604081019081106001600160401b0382111761080357604052565b61080b6107d1565b604052565b602081019081106001600160401b0382111761080357604052565b90601f801991011681019081106001600160401b0382111761080357604052565b60405190610859826107e8565b565b6040519060c082018281106001600160401b0382111761080357604052565b6020906001600160401b038111610897575b601f01601f19160190565b61089f6107d1565b61088c565b9291926108b08261087a565b916108be604051938461082b565b8294818452818301116108db578281602093846000960137010152565b5050505050600080fd5b9080601f830112156106b2578160206106e5933591016108a4565b90604060031983011261066e5760043591602435906001600160401b0382116106a9576106e5916004016108e5565b602060031982011261066e57600435906001600160401b0382116106b2576106e5916004016108e5565b604090600319011261000f57600435600281101561066e57906024356001600160a01b0381168114156106b25790565b604090600319011261000f576004359060243560028110156106b25790565b6020908160408183019282815285518094520193019160005b8281106109cf575050505090565b83516001600160a01b0316855293810193928101926001016109c1565b602090600319011261000f57600435600281101561066e5790565b606060031982011261066e57600435916001600160401b036024358181116108db5783610a36916004016108e5565b926044359182116108db576106e5916004016108e5565b604060031982011261066e57600435906001600160401b0382116106b257610a77916004016108e5565b906024358015158114156106b25790565b602090600319011261000f576004356001600160a01b03811681141561066e5790565b604090600319011261000f576004356001600160a01b03811681141561066e57906024358015158114156106b25790565b60e060031982011261066e57610af0610657565b916024356001600160401b03928382116108db57610b128160049384016108e5565b93604435818111610bad5782610b299185016108e5565b93606435828111610ba05783610b409186016108e5565b93608435838111610b925784610b579183016108e5565b9360a435848111610b835781610b6e9184016108e5565b9360c435908111610b83576106e592016108e5565b50505050505050505050600080fd5b505050505050505050600080fd5b5050505050505050600080fd5b50505050505050600080fd5b90608060031983011261066e576001600160a01b03916004358381168114156106a957926024359081168114156106a9579160443591606435906001600160401b038211610c1e5780602383011215610c1e578160246106e5936004013591016108a4565b505050505050600080fd5b604090600319011261000f576001600160a01b03906004358281168114156106b257916024359081168114156106b25790565b602080820190808352835180925260408301928160408460051b8301019501936000915b848310610c905750505050505090565b9091929394958480610cae600193603f198682030187528a5161072b565b9801930193019194939290610c80565b6001600160a01b03168015610cde57600052600360205260406000205490565b505060405162461bcd60e51b815260206004820152602960248201527f4552433732313a2061646472657373207a65726f206973206e6f7420612076616044820152683634b21037bbb732b960b91b6064820152608490fd5b15610d3e57565b5060405162461bcd60e51b815260206004820152601860248201527f4552433732313a20696e76616c696420746f6b656e20494400000000000000006044820152606490fd5b6000908152600260205260409020546001600160a01b03166106e5811515610d37565b90600182811c92168015610dd9575b6020831014610dc157565b5050634e487b7160e01b600052602260045260246000fd5b91607f1691610db6565b60405190600082815491610df683610da7565b80835292600190818116908115610e7a5750600114610e1d575b506108599250038361082b565b600080805291507f290decd9548b62a8d60345a988386fc84ba6bc95484008f6362f93160ef3e5635b848310610e5f5750610859935050810160200138610e10565b81935090816020925483858a01015201910190918592610e46565b94505050505060ff19166020830152610859826040810138610e10565b60405190600082600191825492610ead84610da7565b80845293818116908115610e7a5750600114610ed057506108599250038361082b565b600081815291507fb10e2d527612073b26eecdfd717e6a320cf44b4afac2b0732d9fcbe2b7fa0cf65b848310610f125750610859935050810160200138610e10565b81935090816020925483858a01015201910190918592610ef9565b9060405191826000825492610f4184610da7565b908184526001948581169081600014610fae5750600114610f6b575b50506108599250038361082b565b9093915060005260209081600020936000915b818310610f9657505061085993508201013880610f5d565b85548884018501529485019487945091830191610f7e565b9550505050505060ff1916602083015261085982604081013880610f5d565b90610fd781610d84565b6001600160a01b0381811690841681146110a0573314908115611072575b501561100457610859916115b1565b505060405162461bcd60e51b815260206004820152603d60248201527f4552433732313a20617070726f76652063616c6c6572206973206e6f7420746f60448201527f6b656e206f776e6572206f7220617070726f76656420666f7220616c6c000000606482015260849150fd5b6001600160a01b0316600090815260056020526040902060ff915061109890339061023c565b541638610ff5565b5050505050608460405162461bcd60e51b815260206004820152602160248201527f4552433732313a20617070726f76616c20746f2063757272656e74206f776e656044820152603960f91b6064820152fd5b600081815260026020526040902054611116906001600160a01b03161515610d37565b6000908152600460205260409020546001600160a01b031690565b6001600160a01b03811691903383146111b257816111716111829233600052600560205260406000209060018060a01b0316600052602052604060002090565b9060ff801983541691151516179055565b60405190151581527f17307eab39ab6107e8899845ad3d59bd9653f200f220920489ca2b5937696c3160203392a3565b50505050606460405162461bcd60e51b815260206004820152601960248201527f4552433732313a20617070726f766520746f2063616c6c6572000000000000006044820152fd5b1561120157565b5060405162461bcd60e51b815260206004820152602d60248201527f4552433732313a2063616c6c6572206973206e6f7420746f6b656e206f776e6560448201526c1c881bdc88185c1c1c9bdd9959609a1b6064820152608490fd5b9061085992916112756112708433611363565b6111fa565b611436565b6040519061128782610810565b60008252565b90916108599260405192602084018481106001600160401b038211176112ba575b604052600084526112c7565b6112c26107d1565b6112ae565b906112eb9392916112db6112708433611363565b6112e6838383611436565b61168d565b156112f257565b5060405162461bcd60e51b81528061130c60048201611310565b0390fd5b60809060208152603260208201527f4552433732313a207472616e7366657220746f206e6f6e20455243373231526560408201527131b2b4bb32b91034b6b83632b6b2b73a32b960711b60608201520190565b6001600160a01b038061137584610d84565b1692818316928484149485156113ab575b50508315611395575b50505090565b6113a1919293506110f3565b161438808061138f565b60009081526005602090815260408083206001600160a01b03949094168352929052205460ff1693503880611386565b156113e257565b5060405162461bcd60e51b815260206004820152602560248201527f4552433732313a207472616e736665722066726f6d20696e636f72726563742060448201526437bbb732b960d91b6064820152608490fd5b61145a9061144384610d84565b6001600160a01b03828116939091821684146113db565b831692831561155b576114d882611475878461153296612899565b611497856114916114858a610d84565b6001600160a01b031690565b146113db565b6114be6114ae886000526004602052604060002090565b80546001600160a01b0319169055565b6001600160a01b0316600090815260036020526040902090565b80546000190190556001600160a01b038116600090815260036020526040902060018154019055611513856000526002602052604060002090565b80546001600160a01b0319166001600160a01b03909216919091179055565b7fddf252ad1be2c89b69c2b068fc378daa952ba7f163c4a11628f55a4df523b3ef6000604051a4565b505050505050608460405162461bcd60e51b8152602060048201526024808201527f4552433732313a207472616e7366657220746f20746865207a65726f206164646044820152637265737360e01b6064820152fd5b600082815260046020526040902080546001600160a01b0319166001600160a01b0383161790556001600160a01b03806115ea84610d84565b169116907f8c5be1e5ebec7d5bd14f71427d1e84f3dd0314c0f7b2291e5b200ac8c7c3b9256000604051a4565b9081602091031261066e57516106e5816106ba565b6001600160a01b0391821681529116602082015260408101919091526080606082018190526106e59291019061072b565b3d15611688573d9061166e8261087a565b9161167c604051938461082b565b82523d6000602084013e565b606090565b92909190823b1561173c576116c0926020926000604051809681958294630a85bd0160e11b9a8b8552336004860161162c565b03926001600160a01b03165af16000918161171c575b5061170e575050506116e661165d565b8051908161170957505060405162461bcd60e51b81528061130c60048201611310565b602001fd5b6001600160e01b0319161490565b61173591925061172c3d8261082b565b3d810190611617565b90386116d6565b50505050600190565b1561174c57565b5060405162461bcd60e51b815260206004820152602d60248201527f466c65656b416363657373436f6e74726f6c3a206d757374206861766520636f60448201526c6c6c656374696f6e20726f6c6560981b6064820152608490fd5b6117b133611ab8565b801561183f575b6117c190611745565b60065460005260076020526117e3826117de836040600020611aa0565b611de9565b6002811015611826576040513381526001600160a01b03909216917fcf081ed2b728e3115904be00eb8927b2375ff3401839b37f7accfa1bb2bee15c90602090a3565b505050634e487b7160e01b600052602160045260246000fd5b506117c161184c33611ab8565b90506117b8565b1561185a57565b5060405162461bcd60e51b815260206004820152602860248201527f466c65656b416363657373436f6e74726f6c3a206d757374206861766520746f6044820152676b656e20726f6c6560c01b6064820152608490fd5b6118bb3382611b09565b8015611957575b6118cb90611853565b6000818152600860205260408120546009602052604082209082526020526118fa846117de8560408520611aa0565b600283101561193e57506040513381526001600160a01b03909316927f0bf5a13b362503fcc74b8b9b1598aba2f3a9af85d05ba7978f7e9f447f22c23990602090a4565b634e487b7160e01b815260216004526024945092505050fd5b506118cb6119653383611b09565b90506118c2565b61197533611ab8565b80156119ea575b61198590611745565b60065460005260076020526119a7826119a2836040600020611aa0565b611eec565b6002811015611826576040513381526001600160a01b03909216917faeff57f0f5e4d3d10a37d4a70fde8ed67a95e67b251d5c512c0ea98c380d2f9590602090a3565b506119856119f733611ab8565b905061197c565b611a083382611b09565b8015611a8b575b611a1890611853565b600081815260086020526040812054600960205260408220908252602052611a47846119a28560408520611aa0565b600283101561193e57506040513381526001600160a01b03909316927fe52d746e4c78c98c6bfa291b273406905c3e8550b7d911a6bea686368c2dc79d90602090a4565b50611a18611a993383611b09565b9050611a0f565b90600281101561182657600052602052604060002090565b600654600090815260076020908152604080832083805282528083206001600160a01b039094168352929052205b54151590565b9061023c611ae69260065460005260076020526040600020611aa0565b60009081526008602090815260408083205460098352818420908452825280832083805282528083206001600160a01b03909416835292905220611ae6565b6000908152600860209081526040808320546009835281842090845282528083206001845282528083206001600160a01b03909416835292905220611ae6565b611ae6929161023c91600052600860205260406000205460096020526040600020906000526020526040600020611aa0565b9060405191828154918282526020928383019160005283600020936000905b828210611bef575050506108599250038361082b565b85546001600160a01b031684526001958601958895509381019390910190611bd9565b611c32906006546000526020906007825260019283916040600020611aa0565b01604051918293849382845491828152019360005282600020926000905b828210611c68575050505050906106e591038261082b565b84546001600160a01b03168652879650948501949383019390830190611c50565b600081819282527f0bf5a13b362503fcc74b8b9b1598aba2f3a9af85d05ba7978f7e9f447f22c23960206008815260408085205460098352818620908652825280852085805282528085208083528186205415611ce9575b5051338152a4565b60018101611d0b8154600160401b811015611d2f575b60018101835582611dc3565b81549060018060a01b039060031b1b19169055549086805283528186205538611ce1565b611d376107d1565b611cff565b6000908082526008602052604082205460096020526040832090835260205260408220828052602052611d728360408420611de9565b6040513381526001600160a01b03909316927f0bf5a13b362503fcc74b8b9b1598aba2f3a9af85d05ba7978f7e9f447f22c23990602090a4565b50634e487b7160e01b600052603260045260246000fd5b8054821015611ddc575b60005260206000200190600090565b611de4611dac565b611dcd565b6001600160a01b03821660009081526020829052604090209091905415611e0e575050565b611e759060018301611e5c82611e388354600160401b811015611e78575b60018101855584611dc3565b90919082549060031b9160018060a01b039283811b93849216901b16911916179055565b54929060018060a01b0316600052602052604060002090565b55565b611e806107d1565b611e2c565b50634e487b7160e01b600052601160045260246000fd5b60018110611eac575b6000190190565b611eb4611e85565b611ea5565b6002906002198111611ec9570190565b611ed1611e85565b0190565b50634e487b7160e01b600052603160045260246000fd5b6001600160a01b038216600090815260208290526040902054611f0d575050565b6001600160a01b03821660009081526020829052604081209092611e759290915460018110612004575b841990818101916001840191611fa2611f5c83855460018110611ff7575b0185611dc3565b90546001600160a01b039660039290921b1c861690611f7f82611e388389611dc3565b60011910611fea575b6001600160a01b0316600090815260208790526040902090565b5581548015611fdd575b0191611fb88383611dc3565b909182549160031b1b19169055559060018060a01b0316600052602052604060002090565b611fe5611ed5565b611fac565b611ff2611e85565b611f88565b611fff611e85565b611f55565b61200c611e85565b611f37565b9294919590939561202133611ab8565b80156121ea575b61203190611745565b600a54966001600160a01b03851694851561219c576106e597612147612159948b61218b996120ea6121509661208b61208661208286600052600260205260018060a01b0360406000205416151590565b1590565b61249c565b6120958185611d3c565b6000848152600260205260409020546120b7906001600160a01b03161561249c565b6001600160a01b038116600090815260036020526040902060018154019055611513846000526002602052604060002090565b60007fddf252ad1be2c89b69c2b068fc378daa952ba7f163c4a11628f55a4df523b3ef81604051a46121206001600a5401600a55565b61213e6121378d600052600b602052604060002090565b9a8b612271565b60018a01612271565b60028801612271565b60038601612271565b6000600485015561216861084c565b91825260208201526121866005840160008052602052604060002090565b61234d565b6006612195612369565b9101612408565b50505050505050505050606460405162461bcd60e51b815260206004820152602060248201527f4552433732313a206d696e7420746f20746865207a65726f20616464726573736044820152fd5b506120316121f733611ab8565b9050612028565b50634e487b7160e01b600052600060045260246000fd5b818110612220575050565b60008155600101612215565b9190601f811161223b57505050565b610859926000526020600020906020601f840160051c83019310612267575b601f0160051c0190612215565b909150819061225a565b91909182516001600160401b038111612340575b612299816122938454610da7565b8461222c565b602080601f83116001146122d55750819293946000926122ca575b50508160011b916000199060031b1c1916179055565b0151905038806122b4565b90601f198316956122eb85600052602060002090565b926000905b8882106123285750508360019596971061230f575b505050811b019055565b015160001960f88460031b161c19169055388080612305565b806001859682949686015181550195019301906122f0565b6123486107d1565b612285565b6001602061085993612360815185612271565b01519101612271565b60405161237581610810565b6000815290565b6001600160fe1b038111600116612394575b60021b90565b61239c611e85565b61238e565b6123ab8154610da7565b90816123b5575050565b81601f600093116001146123c7575055565b818352602083206123e391601f0160051c810190600101612215565b8160208120915555565b61085992916123fb57612271565b6124036121fe565b612271565b815191600160401b831161248f575b8154838355808410612460575b50602080910191600052806000206000925b848410612444575050505050565b6001838261245483945186612271565b01920193019290612436565b8260005283602060002091820191015b81811061247d5750612424565b806124896001926123a1565b01612470565b6124976107d1565b612417565b156124a357565b5060405162461bcd60e51b815260206004820152601c60248201527f4552433732313a20746f6b656e20616c7265616479206d696e746564000000006044820152606490fd5b90611ed1602092828151948592016106f6565b6000818152600260205260409020546001600160a01b0316151561251f90610d37565b61252881610d84565b90600052600b602052604060002060405191612543836107e8565b601d83527f646174613a6170706c69636174696f6e2f6a736f6e3b6261736536342c000000602084015261257f906001600160a01b0316613b88565b6003820161258c83610f2d565b61259582610f2d565b61259e91613c37565b9060058401600485015491816125bf84809490600052602052604060002090565b926125d39190600052602052604060002090565b600101926125e0906139da565b604051607b60f81b602082015267113730b6b2911d1160c11b6021820152968796919591612611602989018361395d565b61088b60f21b81526002016e113232b9b1b934b83a34b7b7111d1160891b8152600f01612641906001840161395d565b61088b60f21b8152600201681137bbb732b9111d1160b91b8152600901612667916124e9565b61088b60f21b81526002016f1132bc3a32b93730b62fbab936111d1160811b81526010016126979160020161395d565b61088b60f21b8152600201681134b6b0b3b2911d1160b91b81526009016126bd916124e9565b61088b60f21b81526002016e2261747472696275746573223a205b60881b8152600f017f7b2274726169745f74797065223a2022454e53222c202276616c7565223a22008152601f0161270f9161395d565b62089f4b60ea1b81526003017f7b2274726169745f74797065223a2022436f6d6d69742048617368222c20227681526630b63ab2911d1160c91b602082015260270161275a9161395d565b62089f4b60ea1b81526003017f7b2274726169745f74797065223a20225265706f7369746f7279222c20227661815265363ab2911d1160d11b60208201526026016127a49161395d565b62089f4b60ea1b81526003017f7b2274726169745f74797065223a202256657273696f6e222c202276616c7565815262111d1160e91b60208201526023016127eb916124e9565b61227d60f01b8152600201605d60f81b8152600101607d60f81b81526001010390601f1991828101825261281f908261082b565b61282890613882565b916040519283916020830161283c916124e9565b612845916124e9565b0390810182526106e5908261082b565b63ffffffff60e01b166380ac58cd60e01b8114908115612888575b811561287a575090565b6301ffc9a760e01b14919050565b635b5e139f60e01b81149150612870565b6001600160a01b0390811615801580612909575b156128d7575050816128d2610859936000526008602052604060002060018154019055565b611d3c565b156128e6575061085991611d3c565b16156128ef5750565b610859906000526008602052604060002060018154019055565b5081831615156128ad565b61291e3382611b48565b801561299f575b61292e90611853565b600081815260026020526040902054612951906001600160a01b03161515610d37565b80600052600b60205261296b826002604060002001612271565b61297533926129b4565b907fedbf1209b3baa7c1b5c43052ce5c511e243b3241d9f67733141d14f1da88cba16000604051a4565b5061292e6129ad3383611b09565b9050612925565b6129cc906020604051928284809451938492016106f6565b810103902090565b6129de3382611b48565b8015612a5f575b6129ee90611853565b600081815260026020526040902054612a11906001600160a01b03161515610d37565b80600052600b602052612a2b826003604060002001612271565b612a3533926129b4565b907f91ce7fcd4462481791c3fe849f7049373c5b43ef44aed48e7f1ecce781586e156000604051a4565b506129ee612a6d3383611b09565b90506129e5565b612a7e3382611b48565b8015612afc575b612a8e90611853565b600081815260026020526040902054612ab1906001600160a01b03161515610d37565b80600052600b602052612ac8826040600020612271565b612ad233926129b4565b907ffbbfca16a2770c7ca6e7063ab1a7eea5fe441ffef818325db51752066a6b128a6000604051a4565b50612a8e612b0a3383611b09565b9050612a85565b612b1b3382611b48565b8015612b9c575b612b2b90611853565b600081815260026020526040902054612b4e906001600160a01b03161515610d37565b80600052600b602052612b68826001604060002001612271565b612b7233926129b4565b907fd771eaa1c1382b0a9867125fcd921fdeddd211538b5381353a877abfbe3b50a46000604051a4565b50612b2b612baa3383611b09565b9050612b22565b6020612bca9181604051938285809451938492016106f6565b8101600c81520301902090565b600360a0918351815560208401516001820155604084015160028201550191612c1260608201511515849060ff801983541691151516179055565b6080810151835461ff00191690151560081b61ff00161783550151815462010000600160b01b03191660109190911b62010000600160b01b0316179055565b90612c7461085992805490600160401b821015612c7d575b600182018155611dc3565b6123fb57612271565b612c856107d1565b612c69565b600081815260026020526040902054612cad906001600160a01b03161515610d37565b6001600160a01b036003612cc084612bb1565b015460101c16612d7457612d216006612ce383600052600b602052604060002090565b0154612ced61085b565b83815260208101919091526000604082018190526060820181905260808201523360a0820152612d1c84612bb1565b612bd7565b612d41826006612d3b84600052600b602052604060002090565b01612c51565b612d4b33926129b4565b7f8140554c907b4ba66a04ea1f43b882cba992d3db4cd5c49298a56402d7b36ca26000604051a4565b505060405162461bcd60e51b815260206004820152601e60248201527f466c65656b4552433732313a20415020616c7265616479206578697374730000604482015260649150fd5b15612dc357565b5060405162461bcd60e51b815260206004820152601760248201527f466c65656b4552433732313a20696e76616c69642041500000000000000000006044820152606490fd5b6001600160a01b03612e2d816003612e2085612bb1565b015460101c161515612dbc565b6003612e3883612bb1565b015460101c16331415612f1257612ee6612e5182612bb1565b5491612ebd612e6a84600052600b602052604060002090565b60066001612e7785612bb1565b01549101906001612eb6612e9d612e97612e918654611e9c565b86611dc3565b50610f2d565b612eb181612eab8688611dc3565b906123ed565b612bb1565b0155612f59565b612ee1612ec982612bb1565b60036000918281558260018201558260028201550155565b6129b4565b9033917fef2f6bed86b96d79b41799f5285f73b31274bb303ebe5d55a3cb48c567ab2db06000604051a4565b505060405162461bcd60e51b815260206004820152601d60248201527f466c65656b4552433732313a206d757374206265204150206f776e65720000006044820152606490fd5b80548015612fd2575b6000190190612f718282611dc3565b612fc5575b612f808154610da7565b9081612f8b57505055565b81601f60009311600114612f9e57505555565b81835260208320612fba91601f0160051c810190600101612215565b816020812091555555565b612fcd6121fe565b612f76565b612fda611ed5565b612f62565b6001600160a01b039081612ff282612bb1565b6003015460101c16151561300590612dbc565b61300e90612bb1565b90815461301a906139da565b906002830154613029906139da565b92600301548060081c60ff1661303e906145d4565b9161304b60ff83166145d4565b9160101c1661305990613b88565b604051607b60f81b60208201529485949193916021860169113a37b5b2b724b2111d60b11b8152600a0161308c916124e9565b600b60fa1b8152600101671139b1b7b932911d60c11b81526008016130b0916124e9565b600b60fa1b81526001016e113730b6b2ab32b934b334b2b2111d60891b8152600f016130db916124e9565b600b60fa1b8152600101711131b7b73a32b73a2b32b934b334b2b2111d60711b8152601201613109916124e9565b600b60fa1b8152600101681137bbb732b9111d1160b91b815260090161312e916124e9565b601160f91b8152600101607d60f81b815260010103601f19810182526106e5908261082b565b60ff9060039061317390612eb16001600160a01b0384612e2084612bb1565b015460081c1690565b6131926001600160a01b036003612e2084612bb1565b600261319d82612bb1565b016131a881546131f8565b90556131b381612bb1565b546131ca60026131c284612bb1565b0154926129b4565b6040519283527f3ea1c0fcf71b86fca8f96ccac3cf26fba8983d3bbbe7bd720f1865d67fbaee4360203394a4565b6001906000198114611ec9570190565b61321e6001600160a01b036003612e2084612bb1565b600261322982612bb1565b01541561329057600261323b82612bb1565b0161324681546132d6565b905561325181612bb1565b5461326060026131c284612bb1565b60405192835233927f3ea1c0fcf71b86fca8f96ccac3cf26fba8983d3bbbe7bd720f1865d67fbaee4390602090a4565b5050606460405162461bcd60e51b815260206004820152602060248201527f466c65656b4552433732313a2073636f72652063616e74206265206c6f7765726044820152fd5b8015611eac576000190190565b6132f96001600160a01b036003612e2084612bb1565b61331e61330582612bb1565b546133103382611b48565b908115613383575b50611853565b61333f82600361332d84612bb1565b019060ff801983541691151516179055565b61335261334b82612bb1565b54916129b4565b6040519182527fe2e598f7ff2dfd4bc3bd989635401b4c56846b7893cb7eace51d099f21e69bff60203394151593a4565b61338f91503390611b09565b38613318565b6133ab6001600160a01b036003612e2084612bb1565b6133b761330582612bb1565b6133df8260036133c684612bb1565b019061ff00825491151560081b169061ff001916179055565b6133eb61334b82612bb1565b6040519182527f17bd9b465aa0cdc6b308874903e9c38b13f561ecb1f2edaa8bf3969fe603d11c60203394151593a4565b60008181526002602052604090205461343f906001600160a01b03161515610d37565b6000526020600b815260066040600020018054906001600160401b0382116134af575b60405192613475818460051b018561082b565b82845260009182528082208185015b84841061349357505050505090565b60018381926134a185610f2d565b815201920193019290613484565b6134b76107d1565b613462565b9190916134c93382611b48565b8015613593575b6134d990611853565b6000818152600260205260409020546134fc906001600160a01b03161515610d37565b7f73b929bf4db6be678cdbc6d41a5fe0a2cbb84ca95572062c4a978d8bd80a41b16040928351908482018281106001600160401b03821117613586575b85528582526020820152613577600091848352600b60205260058684200160048785200161356781546131f8565b809155845260205285832061234d565b61358133956129b4565b9351a4565b61358e6107d1565b613539565b506134d96135a13383611b09565b90506134d0565b6135b23382611b09565b8015613706575b6135c290611853565b806001600160a01b03806135d583610d84565b16158015806136fe575b156136d157506135ff826000526008602052604060002060018154019055565b61360882611c89565b61361182610d84565b600083815260046020526040812080546001600160a01b0319169055911680825260036020526040822060001981540190558282526002602052613669604083206bffffffffffffffffffffffff60a01b8154169055565b7fddf252ad1be2c89b69c2b068fc378daa952ba7f163c4a11628f55a4df523b3ef82604051a46136ae60026136a883600052600b602052604060002090565b0161371b565b6136b55750565b6136cc61085991600052600b602052604060002090565b613725565b156136e4576136df82611c89565b613608565b6136df826000526008602052604060002060018154019055565b5060006135df565b506135c26137143383611b09565b90506135b9565b6106e59054610da7565b61372e816123a1565b600660019161373e8382016123a1565b61374a600282016123a1565b613756600382016123a1565b6000600482015501805490600081558161376f57505050565b6000526020600020908101905b81811061378857505050565b8061379384926123a1565b0161377c565b60405190606082018281106001600160401b03821117613809575b604052604082527f6768696a6b6c6d6e6f707172737475767778797a303132333435363738392b2f6040837f4142434445464748494a4b4c4d4e4f505152535455565758595a61626364656660208201520152565b6138116107d1565b6137b4565b60405190606082018281106001600160401b03821117613843575b604052602a8252604082602036910137565b61384b6107d1565b613831565b9061385a8261087a565b613867604051918261082b565b8281528092613878601f199161087a565b0190602036910137565b80511561395457613891613799565b6138b56138b06138ab6138a48551611eb9565b6003900490565b61237c565b613850565b9160208301918182518301915b828210613902575050506003905106806001146138ef576002146138e4575090565b603d90600019015390565b50603d9081600019820153600119015390565b9091936004906003809401938451600190603f9082828260121c16880101518553828282600c1c16880101518386015382828260061c16880101516002860153168501015190820153019391906138c2565b506106e561127a565b60009291815461396c81610da7565b926001918083169081156139c55750600114613989575b50505050565b90919293945060005260209081600020906000915b8583106139b45750505050019038808080613983565b80548584015291830191810161399e565b60ff1916845250505001915038808080613983565b806000917a184f03e93ff9f4daa797ed6e38ed64bf6a1f01000000000000000080821015613b0f575b506d04ee2d6d415b85acef810000000080831015613b00575b50662386f26fc1000080831015613af1575b506305f5e10080831015613ae2575b5061271080831015613ad3575b506064821015613ac3575b600a80921015613ab9575b600190816021613a71828701613850565b95860101905b613a83575b5050505090565b600019019083906f181899199a1a9b1b9c1cb0b131b232b360811b8282061a835304918215613ab457919082613a77565b613a7c565b9160010191613a60565b9190606460029104910191613a55565b60049193920491019138613a4a565b60089193920491019138613a3d565b60109193920491019138613a2e565b60209193920491019138613a1c565b604093508104915038613a03565b906020918051821015613b2f57010190565b613b37611dac565b010190565b15613b4357565b50606460405162461bcd60e51b815260206004820152602060248201527f537472696e67733a20686578206c656e67746820696e73756666696369656e746044820152fd5b613b90613816565b90815115613c2a575b603060208301538151600190811015613c1d575b90607860218401536029915b808311613bcc57506106e5915015613b3c565b9080600f613c0992166010811015613c10575b6f181899199a1a9b1b9c1cb0b131b232b360811b901a613bff8587613b1d565b5360041c926132d6565b9190613bb9565b613c18611dac565b613bdf565b613c25611dac565b613bad565b613c32611dac565b613b99565b604080517f3c73766720786d6c6e733d22687474703a2f2f7777772e77332e6f72672f323060208201527f30302f7376672220786d6c6e733a786c696e6b3d22687474703a2f2f7777772e918101919091527f77332e6f72672f313939392f786c696e6b222076657273696f6e3d22312e312260608201527f2077696474683d2236343022206865696768743d22343830222076696577426f60808201527f783d2230203020363430203438302220786d6c3a73706163653d22707265736560a082015264393b32911f60d91b60c0820152651e3232b3399f60d11b60c582015291829160cb8301661e17b232b3399f60c91b81526007017f3c67207472616e73666f726d3d226d617472697828332e34322030203020332e8152741a1910199818171c9c10191a99171c9c149110101f60591b60208201526035017f3c706f6c79676f6e207374796c653d227374726f6b653a2072676228302c302c81527f30293b207374726f6b652d77696474683a20383b207374726f6b652d6461736860208201527f61727261793a206e6f6e653b207374726f6b652d6c696e656361703a2062757460408201527f743b207374726f6b652d646173686f66667365743a20303b207374726f6b652d60608201527f6c696e656a6f696e3a206d697465723b207374726f6b652d6d697465726c696d60808201527f69743a20343b2066696c6c3a20726762283135322c3135322c313833293b206660a08201527f696c6c2d72756c653a206e6f6e7a65726f3b206f7061636974793a20313b222060c08201527f766563746f722d6566666563743d226e6f6e2d7363616c696e672d7374726f6b60e08201527f65222020706f696e74733d222d35302c2d3530202d35302c35302035302c35306101008201526b101a9816169a98101110179f60a11b61012082015261012c01631e17b39f60e11b81526004017f3c67207472616e73666f726d3d226d617472697828312030203020312033303381527f2e35203131352e36372922207374796c653d222220203e00000000000000000060208201526037017f3c7465787420786d6c3a73706163653d2270726573657276652220666f6e742d81527f66616d696c793d224f70656e2053616e732220666f6e742d73697a653d22323460208201527f2220666f6e742d7374796c653d226e6f726d616c2220666f6e742d776569676860408201527f743d226e6f726d616c22207374796c653d227374726f6b653a206e6f6e653b2060608201527f7374726f6b652d77696474683a20313b207374726f6b652d646173686172726160808201527f793a206e6f6e653b207374726f6b652d6c696e656361703a20627574743b207360a08201527f74726f6b652d646173686f66667365743a20303b207374726f6b652d6c696e6560c08201527f6a6f696e3a206d697465723b207374726f6b652d6d697465726c696d69743a2060e08201527f343b2066696c6c3a2072676228302c302c30293b2066696c6c2d72756c653a206101008201527f6e6f6e7a65726f3b206f7061636974793a20313b2077686974652d73706163656101208201527f3a207072653b22203e3c747370616e20783d222d34352e372220793d22352e366101408201527f3522207374796c653d227374726f6b652d77696474683a20313b20666f6e742d6101608201527f66616d696c793a20224f70656e2053616e73222c2073616e732d73657269663b6101808201527f20666f6e742d73697a653a20313870783b20666f6e742d7374796c653a206e6f6101a08201527f726d616c3b20666f6e742d7765696768743a206e6f726d616c3b2066696c6c3a6101c08201527f2072676228302c302c30293b20223e466c65656b204e4641733c2f747370616e6101e0820152671f1e17ba32bc3a1f60c11b61020082015261020801631e17b39f60e11b81526004017f3c67207472616e73666f726d3d226d617472697828312030203020312033303281527410191b18971a1b94911039ba3cb6329e911110101f60591b60208201526035017f3c7465787420786d6c3a73706163653d2270726573657276652220666f6e742d81527f66616d696c793d224f70656e2053616e732220666f6e742d73697a653d22323860208201527f2220666f6e742d7374796c653d226e6f726d616c2220666f6e742d776569676860408201527f743d226e6f726d616c22207374796c653d227374726f6b653a206e6f6e653b2060608201527f7374726f6b652d77696474683a20313b207374726f6b652d646173686172726160808201527f793a206e6f6e653b207374726f6b652d6c696e656361703a20627574743b207360a08201527f74726f6b652d646173686f66667365743a20303b207374726f6b652d6c696e6560c08201527f6a6f696e3a206d697465723b207374726f6b652d6d697465726c696d69743a2060e08201527f343b2066696c6c3a2072676228302c302c30293b2066696c6c2d72756c653a206101008201527f6e6f6e7a65726f3b206f7061636974793a20313b2077686974652d73706163656101208201527f3a207072653b22203e3c747370616e20783d222d34342e32362220793d222d366101408201527f2e313422207374796c653d227374726f6b652d77696474683a20313b20666f6e6101608201527f742d66616d696c793a20224f70656e2053616e73222c2073616e732d736572696101808201527f663b20666f6e742d73697a653a20313870783b20666f6e742d7374796c653a206101a08201527f6e6f726d616c3b20666f6e742d7765696768743a206e6f726d616c3b2066696c6101c082015270361d103933b1141816181618149d90111f60791b6101e08201526101f10161446c916124e9565b7f3c2f747370616e3e3c747370616e20783d222d33372e31342220793d2231372e81527f343522207374796c653d227374726f6b652d77696474683a20313b20666f6e7460208201527f2d66616d696c793a20224f70656e2053616e73222c2073616e732d736572696660408201527f3b20666f6e742d73697a653a20313870783b20666f6e742d7374796c653a206e60608201527f6f726d616c3b20666f6e742d7765696768743a206e6f726d616c3b2066696c6c60808201526f1d103933b1141816181618149d90111f60811b60a082015260b00161454c916124e9565b6e1e17ba39b830b71f1e17ba32bc3a1f60891b8152600f01631e17b39f60e11b8152600401651e17b9bb339f60d11b81526006010390601f19918281018252614595908261082b565b61459e90613882565b6040517f646174613a6170706c69636174696f6e2f6a736f6e3b6261736536342c000000602082015291908290603d820161283c565b156145f9576040516145e5816107e8565b60048152637472756560e01b602082015290565b604051614605816107e8565b600581526466616c736560d81b60208201529056fea364697066735822122068c2c48eb3ccede8f14a554da8bfac0598abe0dcf3e1d816e4b1ceb4e255c8866c6578706572696d656e74616cf564736f6c634300080c0041",
          "opcodes": "PUSH1 0x80 PUSH1 0x40 MSTORE CALLVALUE PUSH3 0x1A8 JUMPI PUSH3 0x4BF4 DUP1 CODESIZE SUB DUP1 PUSH3 0x1D DUP2 PUSH3 0x1C4 JUMP JUMPDEST SWAP3 DUP4 CODECOPY DUP2 ADD PUSH1 0x40 DUP3 DUP3 SUB SLT PUSH3 0x1A1 JUMPI DUP2 MLOAD PUSH1 0x1 PUSH1 0x1 PUSH1 0x40 SHL SUB SWAP2 SWAP1 DUP3 DUP2 GT PUSH3 0x198 JUMPI DUP2 PUSH3 0x4F SWAP2 DUP6 ADD PUSH3 0x1F9 JUMP JUMPDEST SWAP3 PUSH1 0x20 SWAP2 DUP3 DUP3 ADD MLOAD DUP5 DUP2 GT PUSH3 0x18D JUMPI PUSH3 0x6B SWAP3 ADD PUSH3 0x1F9 JUMP JUMPDEST SWAP2 DUP4 MLOAD SWAP1 DUP2 GT PUSH3 0x17D JUMPI JUMPDEST PUSH1 0x0 SWAP2 PUSH3 0x91 DUP3 PUSH3 0x8B DUP6 SLOAD PUSH3 0x29F JUMP JUMPDEST PUSH3 0x2DE JUMP JUMPDEST DUP1 PUSH1 0x1F DUP4 GT PUSH1 0x1 EQ PUSH3 0xEF JUMPI POP DUP2 SWAP1 PUSH3 0xC8 SWAP6 DUP5 SWAP3 PUSH3 0xE3 JUMPI JUMPDEST POP POP DUP2 PUSH1 0x1 SHL SWAP2 PUSH1 0x0 NOT SWAP1 PUSH1 0x3 SHL SHR NOT AND OR SWAP1 SSTORE PUSH3 0x392 JUMP JUMPDEST PUSH3 0xD3 CALLER PUSH3 0x494 JUMP JUMPDEST PUSH1 0x40 MLOAD PUSH2 0x465E SWAP1 DUP2 PUSH3 0x596 DUP3 CODECOPY RETURN JUMPDEST ADD MLOAD SWAP1 POP CODESIZE DUP1 PUSH3 0xAE JUMP JUMPDEST PUSH1 0x0 DUP1 MSTORE SWAP2 SWAP5 PUSH1 0x1F NOT DUP7 AND PUSH32 0x290DECD9548B62A8D60345A988386FC84BA6BC95484008F6362F93160EF3E563 SWAP4 DUP6 SWAP1 JUMPDEST DUP3 DUP3 LT PUSH3 0x164 JUMPI POP POP SWAP2 PUSH1 0x1 SWAP4 SWAP2 DUP8 PUSH3 0xC8 SWAP9 SWAP5 LT PUSH3 0x14A JUMPI JUMPDEST POP POP POP DUP2 SHL ADD SWAP1 SSTORE PUSH3 0x392 JUMP JUMPDEST ADD MLOAD PUSH1 0x0 NOT PUSH1 0xF8 DUP5 PUSH1 0x3 SHL AND SHR NOT AND SWAP1 SSTORE CODESIZE DUP1 DUP1 PUSH3 0x13C JUMP JUMPDEST DUP1 PUSH1 0x1 DUP7 SWAP8 DUP3 SWAP5 SWAP8 DUP8 ADD MLOAD DUP2 SSTORE ADD SWAP7 ADD SWAP5 ADD SWAP1 PUSH3 0x11F JUMP JUMPDEST PUSH3 0x187 PUSH3 0x1AD JUMP JUMPDEST PUSH3 0x77 JUMP JUMPDEST POP POP POP POP POP POP PUSH1 0x0 DUP1 REVERT JUMPDEST POP POP POP POP PUSH1 0x0 DUP1 REVERT JUMPDEST POP POP PUSH1 0x0 DUP1 REVERT JUMPDEST PUSH1 0x0 DUP1 REVERT JUMPDEST POP PUSH4 0x4E487B71 PUSH1 0xE0 SHL PUSH1 0x0 MSTORE PUSH1 0x41 PUSH1 0x4 MSTORE PUSH1 0x24 PUSH1 0x0 REVERT JUMPDEST PUSH1 0x40 MLOAD SWAP2 SWAP1 PUSH1 0x1F ADD PUSH1 0x1F NOT AND DUP3 ADD PUSH1 0x1 PUSH1 0x1 PUSH1 0x40 SHL SUB DUP2 GT DUP4 DUP3 LT OR PUSH3 0x1EA JUMPI PUSH1 0x40 MSTORE JUMP JUMPDEST PUSH3 0x1F4 PUSH3 0x1AD JUMP JUMPDEST PUSH1 0x40 MSTORE JUMP JUMPDEST DUP2 PUSH1 0x1F DUP3 ADD SLT ISZERO PUSH3 0x297 JUMPI DUP1 MLOAD SWAP1 PUSH1 0x1 PUSH1 0x1 PUSH1 0x40 SHL SUB DUP3 GT PUSH3 0x287 JUMPI JUMPDEST PUSH1 0x20 SWAP1 PUSH3 0x22F PUSH1 0x1F DUP5 ADD PUSH1 0x1F NOT AND DUP4 ADD PUSH3 0x1C4 JUMP JUMPDEST SWAP4 DUP4 DUP6 MSTORE DUP3 DUP5 DUP4 ADD ADD GT PUSH3 0x27D JUMPI DUP3 SWAP1 PUSH1 0x0 SWAP1 JUMPDEST DUP4 DUP4 DUP4 LT PUSH3 0x264 JUMPI POP POP GT PUSH3 0x25A JUMPI POP POP SWAP1 JUMP JUMPDEST PUSH1 0x0 SWAP2 DUP4 ADD ADD MSTORE SWAP1 JUMP JUMPDEST DUP2 SWAP4 POP DUP3 DUP2 SWAP4 SWAP3 ADD ADD MLOAD DUP3 DUP3 DUP9 ADD ADD MSTORE ADD DUP4 SWAP2 PUSH3 0x244 JUMP JUMPDEST POP POP POP POP POP PUSH1 0x0 DUP1 REVERT JUMPDEST PUSH3 0x291 PUSH3 0x1AD JUMP JUMPDEST PUSH3 0x218 JUMP JUMPDEST POP POP POP PUSH1 0x0 DUP1 REVERT JUMPDEST SWAP1 PUSH1 0x1 DUP3 DUP2 SHR SWAP3 AND DUP1 ISZERO PUSH3 0x2D3 JUMPI JUMPDEST PUSH1 0x20 DUP4 LT EQ PUSH3 0x2BB JUMPI JUMP JUMPDEST POP POP PUSH4 0x4E487B71 PUSH1 0xE0 SHL PUSH1 0x0 MSTORE PUSH1 0x22 PUSH1 0x4 MSTORE PUSH1 0x24 PUSH1 0x0 REVERT JUMPDEST SWAP2 PUSH1 0x7F AND SWAP2 PUSH3 0x2AF JUMP JUMPDEST PUSH1 0x1F DUP2 GT PUSH3 0x2EB JUMPI POP POP JUMP JUMPDEST PUSH1 0x0 SWAP1 DUP2 DUP1 MSTORE PUSH1 0x20 DUP3 KECCAK256 SWAP1 PUSH1 0x20 PUSH1 0x1F DUP6 ADD PUSH1 0x5 SHR DUP4 ADD SWAP5 LT PUSH3 0x32B JUMPI JUMPDEST PUSH1 0x1F ADD PUSH1 0x5 SHR ADD SWAP2 JUMPDEST DUP3 DUP2 LT PUSH3 0x31F JUMPI POP POP POP JUMP JUMPDEST DUP2 DUP2 SSTORE PUSH1 0x1 ADD PUSH3 0x312 JUMP JUMPDEST SWAP1 SWAP3 POP DUP3 SWAP1 PUSH3 0x309 JUMP JUMPDEST SWAP1 PUSH1 0x1F DUP3 GT PUSH3 0x344 JUMPI POP POP JUMP JUMPDEST PUSH1 0x1 SWAP2 PUSH1 0x0 SWAP1 DUP4 DUP3 MSTORE PUSH1 0x20 DUP3 KECCAK256 SWAP1 PUSH1 0x20 PUSH1 0x1F DUP6 ADD PUSH1 0x5 SHR DUP4 ADD SWAP5 LT PUSH3 0x387 JUMPI JUMPDEST PUSH1 0x1F ADD PUSH1 0x5 SHR ADD SWAP2 JUMPDEST DUP3 DUP2 LT PUSH3 0x37C JUMPI POP POP POP POP JUMP JUMPDEST DUP2 DUP2 SSTORE DUP4 ADD PUSH3 0x36E JUMP JUMPDEST SWAP1 SWAP3 POP DUP3 SWAP1 PUSH3 0x365 JUMP JUMPDEST DUP1 MLOAD SWAP1 SWAP2 SWAP1 PUSH1 0x1 PUSH1 0x1 PUSH1 0x40 SHL SUB DUP2 GT PUSH3 0x484 JUMPI JUMPDEST PUSH1 0x1 SWAP1 PUSH3 0x3C1 DUP2 PUSH3 0x3BB DUP5 SLOAD PUSH3 0x29F JUMP JUMPDEST PUSH3 0x336 JUMP JUMPDEST PUSH1 0x20 DUP1 PUSH1 0x1F DUP4 GT PUSH1 0x1 EQ PUSH3 0x3FF JUMPI POP DUP2 SWAP3 SWAP4 SWAP5 PUSH1 0x0 SWAP3 PUSH3 0x3F3 JUMPI JUMPDEST POP POP PUSH1 0x0 NOT PUSH1 0x3 DUP4 SWAP1 SHL SHR NOT AND SWAP1 DUP3 SHL OR SWAP1 SSTORE JUMP JUMPDEST ADD MLOAD SWAP1 POP CODESIZE DUP1 PUSH3 0x3DE JUMP JUMPDEST PUSH1 0x1 PUSH1 0x0 MSTORE PUSH1 0x1F NOT DUP4 AND SWAP6 SWAP1 SWAP2 SWAP1 PUSH32 0xB10E2D527612073B26EECDFD717E6A320CF44B4AFAC2B0732D9FCBE2B7FA0CF6 SWAP3 PUSH1 0x0 SWAP1 JUMPDEST DUP9 DUP3 LT PUSH3 0x46C JUMPI POP POP DUP4 DUP6 SWAP7 SWAP8 LT PUSH3 0x452 JUMPI JUMPDEST POP POP POP DUP2 SHL ADD SWAP1 SSTORE JUMP JUMPDEST ADD MLOAD PUSH1 0x0 NOT PUSH1 0xF8 DUP5 PUSH1 0x3 SHL AND SHR NOT AND SWAP1 SSTORE CODESIZE DUP1 DUP1 PUSH3 0x448 JUMP JUMPDEST DUP1 DUP8 DUP6 SWAP7 DUP3 SWAP5 SWAP7 DUP7 ADD MLOAD DUP2 SSTORE ADD SWAP6 ADD SWAP4 ADD SWAP1 PUSH3 0x433 JUMP JUMPDEST PUSH3 0x48E PUSH3 0x1AD JUMP JUMPDEST PUSH3 0x3A7 JUMP JUMPDEST PUSH1 0x6 SLOAD PUSH1 0x0 SWAP1 DUP2 MSTORE PUSH1 0x7 PUSH1 0x20 SWAP1 DUP2 MSTORE PUSH1 0x40 DUP1 DUP4 KECCAK256 DUP4 DUP1 MSTORE DUP3 MSTORE DUP1 DUP4 KECCAK256 PUSH1 0x1 PUSH1 0x1 PUSH1 0xA0 SHL SUB DUP6 AND DUP5 MSTORE SWAP2 DUP3 SWAP1 MSTORE DUP3 KECCAK256 SLOAD ISZERO PUSH3 0x506 JUMPI JUMPDEST POP PUSH1 0x40 MLOAD CALLER DUP2 MSTORE PUSH1 0x1 PUSH1 0x1 PUSH1 0xA0 SHL SUB SWAP3 SWAP1 SWAP3 AND SWAP2 PUSH32 0xCF081ED2B728E3115904BE00EB8927B2375FF3401839B37F7ACCFA1BB2BEE15C SWAP1 PUSH1 0x20 SWAP1 LOG3 JUMP JUMPDEST PUSH1 0x1 DUP2 ADD DUP1 SLOAD PUSH9 0x10000000000000000 DUP2 LT ISZERO PUSH3 0x585 JUMPI JUMPDEST PUSH1 0x1 DUP2 ADD DUP1 DUP4 SSTORE DUP2 LT ISZERO PUSH3 0x56B JUMPI DUP2 DUP5 MSTORE PUSH1 0x20 DUP1 DUP6 KECCAK256 SWAP1 SWAP2 ADD DUP1 SLOAD PUSH1 0x1 PUSH1 0x1 PUSH1 0xA0 SHL SUB NOT AND PUSH1 0x1 PUSH1 0x1 PUSH1 0xA0 SHL SUB DUP8 AND SWAP1 DUP2 OR SWAP1 SWAP2 SSTORE SWAP2 SLOAD PUSH1 0x0 SWAP3 DUP4 MSTORE SWAP3 SWAP1 MSTORE PUSH1 0x40 SWAP1 KECCAK256 SSTORE CODESIZE PUSH3 0x4CA JUMP JUMPDEST POP POP PUSH4 0x4E487B71 PUSH1 0xE0 SHL DUP3 MSTORE POP PUSH1 0x32 PUSH1 0x4 MSTORE PUSH1 0x24 SWAP3 POP SWAP1 POP REVERT JUMPDEST PUSH3 0x58F PUSH3 0x1AD JUMP JUMPDEST PUSH3 0x51F JUMP INVALID PUSH1 0x40 PUSH1 0x80 DUP2 MSTORE PUSH1 0x4 CALLDATASIZE LT ISZERO PUSH2 0x15 JUMPI JUMPDEST POP PUSH1 0x0 DUP1 REVERT JUMPDEST PUSH1 0x0 SWAP1 DUP2 CALLDATALOAD PUSH1 0xE0 SHR DUP1 PUSH4 0x1468DEB EQ PUSH2 0x63F JUMPI DUP1 PUSH4 0x1FFC9A7 EQ PUSH2 0x623 JUMPI DUP1 PUSH4 0x6FDDE03 EQ PUSH2 0x607 JUMPI DUP1 PUSH4 0x81812FC EQ PUSH2 0x5EB JUMPI DUP1 PUSH4 0x95EA7B3 EQ PUSH2 0x5D3 JUMPI DUP1 PUSH4 0x23B872DD EQ PUSH2 0x5BB JUMPI DUP1 PUSH4 0x246A908B EQ PUSH2 0x5A3 JUMPI DUP1 PUSH4 0x27DC5CEC EQ PUSH2 0x587 JUMPI DUP1 PUSH4 0x2D957AAD EQ PUSH2 0x56F JUMPI DUP1 PUSH4 0x2F1E8F0A EQ PUSH2 0x50B JUMPI DUP1 PUSH4 0x353B07A4 EQ PUSH2 0x4E4 JUMPI DUP1 PUSH4 0x3806F152 EQ PUSH2 0x4CC JUMPI DUP1 PUSH4 0x42842E0E EQ PUSH2 0x4B4 JUMPI DUP1 PUSH4 0x42966C68 EQ PUSH2 0x49D JUMPI DUP1 PUSH4 0x42E44BBF EQ PUSH2 0x485 JUMPI DUP1 PUSH4 0x6352211E EQ PUSH2 0x450 JUMPI DUP1 PUSH4 0x70A08231 EQ PUSH2 0x434 JUMPI DUP1 PUSH4 0x7469A03B EQ PUSH2 0x41D JUMPI DUP1 PUSH4 0x78278CCA EQ PUSH2 0x405 JUMPI DUP1 PUSH4 0x8C3C0A44 EQ PUSH2 0x3ED JUMPI DUP1 PUSH4 0x94EC65C5 EQ PUSH2 0x3D6 JUMPI DUP1 PUSH4 0x95D89B41 EQ PUSH2 0x3BA JUMPI DUP1 PUSH4 0xA22CB465 EQ PUSH2 0x3A2 JUMPI DUP1 PUSH4 0xA27D0B27 EQ PUSH2 0x38A JUMPI DUP1 PUSH4 0xA397C830 EQ PUSH2 0x373 JUMPI DUP1 PUSH4 0xABA81125 EQ PUSH2 0x346 JUMPI DUP1 PUSH4 0xB20B94F1 EQ PUSH2 0x32E JUMPI DUP1 PUSH4 0xB30437A0 EQ PUSH2 0x31B JUMPI DUP1 PUSH4 0xB42DBE38 EQ PUSH2 0x2FE JUMPI DUP1 PUSH4 0xB88D4FDE EQ PUSH2 0x2E3 JUMPI DUP1 PUSH4 0xC87B56DD EQ PUSH2 0x2BC JUMPI DUP1 PUSH4 0xCDB0E89E EQ PUSH2 0x2A4 JUMPI DUP1 PUSH4 0xD7A75BE1 EQ PUSH2 0x288 JUMPI DUP1 PUSH4 0xE9447250 EQ PUSH2 0x26B JUMPI DUP1 PUSH4 0xE985E9C5 EQ PUSH2 0x202 JUMPI DUP1 PUSH4 0xF6BE6B78 EQ PUSH2 0x1D7 JUMPI PUSH4 0xF9315177 EQ PUSH2 0x1B9 JUMPI POP PUSH2 0xF JUMP JUMPDEST CALLVALUE PUSH2 0x1D3 JUMPI PUSH2 0x1D0 PUSH2 0x1CA CALLDATASIZE PUSH2 0x900 JUMP JUMPDEST SWAP1 PUSH2 0x2914 JUMP JUMPDEST MLOAD RETURN JUMPDEST POP DUP1 REVERT JUMPDEST POP CALLVALUE PUSH2 0x1D3 JUMPI PUSH2 0x1FE SWAP2 POP PUSH2 0x1F3 PUSH2 0x1EE CALLDATASIZE PUSH2 0x761 JUMP JUMPDEST PUSH2 0x341C JUMP JUMPDEST SWAP1 MLOAD SWAP2 DUP3 SWAP2 DUP3 PUSH2 0xC5C JUMP JUMPDEST SUB SWAP1 RETURN JUMPDEST POP CALLVALUE PUSH2 0x1D3 JUMPI PUSH2 0x1FE SWAP2 POP PUSH2 0x25A PUSH2 0x253 PUSH2 0x23C PUSH2 0x21F CALLDATASIZE PUSH2 0xC29 JUMP JUMPDEST PUSH1 0x1 PUSH1 0x1 PUSH1 0xA0 SHL SUB SWAP1 SWAP2 AND PUSH1 0x0 SWAP1 DUP2 MSTORE PUSH1 0x5 PUSH1 0x20 MSTORE PUSH1 0x40 SWAP1 KECCAK256 SWAP1 SWAP2 JUMP JUMPDEST SWAP1 PUSH1 0x1 DUP1 PUSH1 0xA0 SHL SUB AND PUSH1 0x0 MSTORE PUSH1 0x20 MSTORE PUSH1 0x40 PUSH1 0x0 KECCAK256 SWAP1 JUMP JUMPDEST SLOAD PUSH1 0xFF AND SWAP1 JUMP JUMPDEST SWAP1 MLOAD SWAP1 ISZERO ISZERO DUP2 MSTORE SWAP1 DUP2 SWAP1 PUSH1 0x20 DUP3 ADD SWAP1 JUMP JUMPDEST POP CALLVALUE PUSH2 0x1D3 JUMPI PUSH2 0x1FE SWAP2 POP PUSH2 0x25A PUSH2 0x282 CALLDATASIZE PUSH2 0x959 JUMP JUMPDEST SWAP1 PUSH2 0x1AEC JUMP JUMPDEST POP CALLVALUE PUSH2 0x1D3 JUMPI PUSH2 0x1FE SWAP2 POP PUSH2 0x25A PUSH2 0x29F CALLDATASIZE PUSH2 0x92F JUMP JUMPDEST PUSH2 0x3154 JUMP JUMPDEST POP CALLVALUE PUSH2 0x1D3 JUMPI PUSH2 0x1D0 PUSH2 0x2B6 CALLDATASIZE PUSH2 0x900 JUMP JUMPDEST SWAP1 PUSH2 0x2A74 JUMP JUMPDEST POP CALLVALUE PUSH2 0x1D3 JUMPI PUSH2 0x1FE SWAP2 POP PUSH2 0x2D8 PUSH2 0x2D3 CALLDATASIZE PUSH2 0x761 JUMP JUMPDEST PUSH2 0x24FC JUMP JUMPDEST SWAP1 MLOAD SWAP2 DUP3 SWAP2 DUP3 PUSH2 0x750 JUMP JUMPDEST POP CALLVALUE PUSH2 0x1D3 JUMPI PUSH2 0x1D0 PUSH2 0x2F5 CALLDATASIZE PUSH2 0xBB9 JUMP JUMPDEST SWAP3 SWAP2 SWAP1 SWAP2 PUSH2 0x12C7 JUMP JUMPDEST POP CALLVALUE PUSH2 0x1D3 JUMPI PUSH2 0x1FE SWAP2 POP PUSH2 0x25A PUSH2 0x315 CALLDATASIZE PUSH2 0x675 JUMP JUMPDEST SWAP2 PUSH2 0x1B88 JUMP JUMPDEST POP PUSH2 0x1D0 PUSH2 0x328 CALLDATASIZE PUSH2 0x900 JUMP JUMPDEST SWAP1 PUSH2 0x2C8A JUMP JUMPDEST POP CALLVALUE PUSH2 0x1D3 JUMPI PUSH2 0x1D0 PUSH2 0x340 CALLDATASIZE PUSH2 0xA4D JUMP JUMPDEST SWAP1 PUSH2 0x32E3 JUMP JUMPDEST POP PUSH2 0x1FE SWAP2 POP PUSH2 0x364 PUSH2 0x358 CALLDATASIZE PUSH2 0xADC JUMP JUMPDEST SWAP6 SWAP5 SWAP1 SWAP5 SWAP4 SWAP2 SWAP4 PUSH2 0x2011 JUMP JUMPDEST SWAP1 MLOAD SWAP1 DUP2 MSTORE SWAP1 DUP2 SWAP1 PUSH1 0x20 DUP3 ADD SWAP1 JUMP JUMPDEST POP CALLVALUE PUSH2 0x1D3 JUMPI PUSH2 0x1D0 PUSH2 0x385 CALLDATASIZE PUSH2 0x92F JUMP JUMPDEST PUSH2 0x3208 JUMP JUMPDEST POP CALLVALUE PUSH2 0x1D3 JUMPI PUSH2 0x1D0 PUSH2 0x39C CALLDATASIZE PUSH2 0x675 JUMP JUMPDEST SWAP2 PUSH2 0x18B1 JUMP JUMPDEST POP CALLVALUE PUSH2 0x1D3 JUMPI PUSH2 0x1D0 PUSH2 0x3B4 CALLDATASIZE PUSH2 0xAAB JUMP JUMPDEST SWAP1 PUSH2 0x1131 JUMP JUMPDEST POP CALLVALUE PUSH2 0x1D3 JUMPI PUSH2 0x1FE SWAP2 POP PUSH2 0x3CE CALLDATASIZE PUSH2 0x6E8 JUMP JUMPDEST PUSH2 0x2D8 PUSH2 0xE97 JUMP JUMPDEST POP CALLVALUE PUSH2 0x1D3 JUMPI PUSH2 0x1D0 PUSH2 0x3E8 CALLDATASIZE PUSH2 0x92F JUMP JUMPDEST PUSH2 0x317C JUMP JUMPDEST POP CALLVALUE PUSH2 0x1D3 JUMPI PUSH2 0x1D0 PUSH2 0x3FF CALLDATASIZE PUSH2 0x959 JUMP JUMPDEST SWAP1 PUSH2 0x196C JUMP JUMPDEST POP CALLVALUE PUSH2 0x1D3 JUMPI PUSH2 0x1D0 PUSH2 0x417 CALLDATASIZE PUSH2 0x900 JUMP JUMPDEST SWAP1 PUSH2 0x29D4 JUMP JUMPDEST POP CALLVALUE PUSH2 0x1D3 JUMPI PUSH2 0x1D0 PUSH2 0x42F CALLDATASIZE PUSH2 0x92F JUMP JUMPDEST PUSH2 0x2E09 JUMP JUMPDEST POP CALLVALUE PUSH2 0x1D3 JUMPI PUSH2 0x1FE SWAP2 POP PUSH2 0x364 PUSH2 0x44B CALLDATASIZE PUSH2 0xA88 JUMP JUMPDEST PUSH2 0xCBE JUMP JUMPDEST POP CALLVALUE PUSH2 0x1D3 JUMPI PUSH2 0x1FE SWAP2 POP PUSH2 0x46C PUSH2 0x467 CALLDATASIZE PUSH2 0x761 JUMP JUMPDEST PUSH2 0xD84 JUMP JUMPDEST SWAP1 MLOAD PUSH1 0x1 PUSH1 0x1 PUSH1 0xA0 SHL SUB SWAP1 SWAP2 AND DUP2 MSTORE SWAP1 DUP2 SWAP1 PUSH1 0x20 DUP3 ADD SWAP1 JUMP JUMPDEST POP CALLVALUE PUSH2 0x1D3 JUMPI PUSH2 0x1D0 PUSH2 0x497 CALLDATASIZE PUSH2 0xA4D JUMP JUMPDEST SWAP1 PUSH2 0x3395 JUMP JUMPDEST POP CALLVALUE PUSH2 0x1D3 JUMPI PUSH2 0x1D0 PUSH2 0x4AF CALLDATASIZE PUSH2 0x761 JUMP JUMPDEST PUSH2 0x35A8 JUMP JUMPDEST POP CALLVALUE PUSH2 0x1D3 JUMPI PUSH2 0x1D0 PUSH2 0x4C6 CALLDATASIZE PUSH2 0x79A JUMP JUMPDEST SWAP2 PUSH2 0x128D JUMP JUMPDEST POP CALLVALUE PUSH2 0x1D3 JUMPI PUSH2 0x1D0 PUSH2 0x4DE CALLDATASIZE PUSH2 0xA07 JUMP JUMPDEST SWAP2 PUSH2 0x34BC JUMP JUMPDEST POP CALLVALUE PUSH2 0x1D3 JUMPI PUSH2 0x1FE SWAP2 POP PUSH2 0x500 PUSH2 0x4FB CALLDATASIZE PUSH2 0x9EC JUMP JUMPDEST PUSH2 0x1C12 JUMP JUMPDEST SWAP1 MLOAD SWAP2 DUP3 SWAP2 DUP3 PUSH2 0x9A8 JUMP JUMPDEST POP CALLVALUE PUSH2 0x1D3 JUMPI PUSH2 0x1FE SWAP2 POP PUSH2 0x500 PUSH1 0x1 PUSH2 0x569 PUSH2 0x564 PUSH2 0x52A CALLDATASIZE PUSH2 0x989 JUMP JUMPDEST SWAP2 SWAP1 PUSH2 0x555 PUSH2 0x543 DUP3 PUSH1 0x0 MSTORE PUSH1 0x8 PUSH1 0x20 MSTORE PUSH1 0x40 PUSH1 0x0 KECCAK256 SWAP1 JUMP JUMPDEST SLOAD SWAP2 PUSH1 0x0 MSTORE PUSH1 0x9 PUSH1 0x20 MSTORE PUSH1 0x40 PUSH1 0x0 KECCAK256 SWAP1 JUMP JUMPDEST SWAP1 PUSH1 0x0 MSTORE PUSH1 0x20 MSTORE PUSH1 0x40 PUSH1 0x0 KECCAK256 SWAP1 JUMP JUMPDEST PUSH2 0x1AA0 JUMP JUMPDEST ADD PUSH2 0x1BBA JUMP JUMPDEST POP CALLVALUE PUSH2 0x1D3 JUMPI PUSH2 0x1D0 PUSH2 0x581 CALLDATASIZE PUSH2 0x959 JUMP JUMPDEST SWAP1 PUSH2 0x17A8 JUMP JUMPDEST POP CALLVALUE PUSH2 0x1D3 JUMPI PUSH2 0x1FE SWAP2 POP PUSH2 0x2D8 PUSH2 0x59E CALLDATASIZE PUSH2 0x92F JUMP JUMPDEST PUSH2 0x2FDF JUMP JUMPDEST POP CALLVALUE PUSH2 0x1D3 JUMPI PUSH2 0x1D0 PUSH2 0x5B5 CALLDATASIZE PUSH2 0x900 JUMP JUMPDEST SWAP1 PUSH2 0x2B11 JUMP JUMPDEST POP CALLVALUE PUSH2 0x1D3 JUMPI PUSH2 0x1D0 PUSH2 0x5CD CALLDATASIZE PUSH2 0x79A JUMP JUMPDEST SWAP2 PUSH2 0x125D JUMP JUMPDEST POP CALLVALUE PUSH2 0x1D3 JUMPI PUSH2 0x1D0 PUSH2 0x5E5 CALLDATASIZE PUSH2 0x773 JUMP JUMPDEST SWAP1 PUSH2 0xFCD JUMP JUMPDEST POP CALLVALUE PUSH2 0x1D3 JUMPI PUSH2 0x1FE SWAP2 POP PUSH2 0x46C PUSH2 0x602 CALLDATASIZE PUSH2 0x761 JUMP JUMPDEST PUSH2 0x10F3 JUMP JUMPDEST POP CALLVALUE PUSH2 0x1D3 JUMPI PUSH2 0x1FE SWAP2 POP PUSH2 0x61B CALLDATASIZE PUSH2 0x6E8 JUMP JUMPDEST PUSH2 0x2D8 PUSH2 0xDE3 JUMP JUMPDEST POP CALLVALUE PUSH2 0x1D3 JUMPI PUSH2 0x1FE SWAP2 POP PUSH2 0x25A PUSH2 0x63A CALLDATASIZE PUSH2 0x6CD JUMP JUMPDEST PUSH2 0x2855 JUMP JUMPDEST POP CALLVALUE PUSH2 0x1D3 JUMPI PUSH2 0x1D0 PUSH2 0x651 CALLDATASIZE PUSH2 0x675 JUMP JUMPDEST SWAP2 PUSH2 0x19FE JUMP JUMPDEST PUSH1 0x4 CALLDATALOAD SWAP1 PUSH1 0x1 PUSH1 0x1 PUSH1 0xA0 SHL SUB DUP3 AND DUP3 EQ ISZERO PUSH2 0x66E JUMPI JUMP JUMPDEST POP POP PUSH1 0x0 DUP1 REVERT JUMPDEST PUSH1 0x60 SWAP1 PUSH1 0x3 NOT ADD SLT PUSH2 0xF JUMPI PUSH1 0x4 CALLDATALOAD SWAP1 PUSH1 0x24 CALLDATALOAD PUSH1 0x2 DUP2 LT ISZERO PUSH2 0x6B2 JUMPI SWAP1 PUSH1 0x44 CALLDATALOAD PUSH1 0x1 PUSH1 0x1 PUSH1 0xA0 SHL SUB DUP2 AND DUP2 EQ ISZERO PUSH2 0x6A9 JUMPI SWAP1 JUMP JUMPDEST POP POP POP POP PUSH1 0x0 DUP1 REVERT JUMPDEST POP POP POP PUSH1 0x0 DUP1 REVERT JUMPDEST PUSH1 0x1 PUSH1 0x1 PUSH1 0xE0 SHL SUB NOT DUP2 AND EQ ISZERO PUSH2 0xF JUMPI JUMP JUMPDEST PUSH1 0x20 SWAP1 PUSH1 0x3 NOT ADD SLT PUSH2 0xF JUMPI PUSH1 0x4 CALLDATALOAD PUSH2 0x6E5 DUP2 PUSH2 0x6BA JUMP JUMPDEST SWAP1 JUMP JUMPDEST PUSH1 0x0 SWAP1 PUSH1 0x3 NOT ADD SLT PUSH2 0xF JUMPI JUMP JUMPDEST SWAP2 DUP1 SWAP2 SWAP3 PUSH1 0x0 SWAP1 JUMPDEST DUP3 DUP3 LT PUSH2 0x716 JUMPI POP GT PUSH2 0x70F JUMPI POP POP JUMP JUMPDEST PUSH1 0x0 SWAP2 ADD MSTORE JUMP JUMPDEST SWAP2 POP DUP1 PUSH1 0x20 SWAP2 DUP4 ADD MLOAD DUP2 DUP7 ADD MSTORE ADD DUP3 SWAP2 PUSH2 0x6FE JUMP JUMPDEST SWAP1 PUSH1 0x20 SWAP2 PUSH2 0x744 DUP2 MLOAD DUP1 SWAP3 DUP2 DUP6 MSTORE DUP6 DUP1 DUP7 ADD SWAP2 ADD PUSH2 0x6F6 JUMP JUMPDEST PUSH1 0x1F ADD PUSH1 0x1F NOT AND ADD ADD SWAP1 JUMP JUMPDEST SWAP1 PUSH1 0x20 PUSH2 0x6E5 SWAP3 DUP2 DUP2 MSTORE ADD SWAP1 PUSH2 0x72B JUMP JUMPDEST PUSH1 0x20 SWAP1 PUSH1 0x3 NOT ADD SLT PUSH2 0xF JUMPI PUSH1 0x4 CALLDATALOAD SWAP1 JUMP JUMPDEST PUSH1 0x40 SWAP1 PUSH1 0x3 NOT ADD SLT PUSH2 0xF JUMPI PUSH1 0x4 CALLDATALOAD PUSH1 0x1 PUSH1 0x1 PUSH1 0xA0 SHL SUB DUP2 AND DUP2 EQ ISZERO PUSH2 0x66E JUMPI SWAP1 PUSH1 0x24 CALLDATALOAD SWAP1 JUMP JUMPDEST PUSH1 0x60 SWAP1 PUSH1 0x3 NOT ADD SLT PUSH2 0xF JUMPI PUSH1 0x1 PUSH1 0x1 PUSH1 0xA0 SHL SUB SWAP1 PUSH1 0x4 CALLDATALOAD DUP3 DUP2 AND DUP2 EQ ISZERO PUSH2 0x6B2 JUMPI SWAP2 PUSH1 0x24 CALLDATALOAD SWAP1 DUP2 AND DUP2 EQ ISZERO PUSH2 0x6B2 JUMPI SWAP1 PUSH1 0x44 CALLDATALOAD SWAP1 JUMP JUMPDEST POP PUSH4 0x4E487B71 PUSH1 0xE0 SHL PUSH1 0x0 MSTORE PUSH1 0x41 PUSH1 0x4 MSTORE PUSH1 0x24 PUSH1 0x0 REVERT JUMPDEST PUSH1 0x40 DUP2 ADD SWAP1 DUP2 LT PUSH1 0x1 PUSH1 0x1 PUSH1 0x40 SHL SUB DUP3 GT OR PUSH2 0x803 JUMPI PUSH1 0x40 MSTORE JUMP JUMPDEST PUSH2 0x80B PUSH2 0x7D1 JUMP JUMPDEST PUSH1 0x40 MSTORE JUMP JUMPDEST PUSH1 0x20 DUP2 ADD SWAP1 DUP2 LT PUSH1 0x1 PUSH1 0x1 PUSH1 0x40 SHL SUB DUP3 GT OR PUSH2 0x803 JUMPI PUSH1 0x40 MSTORE JUMP JUMPDEST SWAP1 PUSH1 0x1F DUP1 NOT SWAP2 ADD AND DUP2 ADD SWAP1 DUP2 LT PUSH1 0x1 PUSH1 0x1 PUSH1 0x40 SHL SUB DUP3 GT OR PUSH2 0x803 JUMPI PUSH1 0x40 MSTORE JUMP JUMPDEST PUSH1 0x40 MLOAD SWAP1 PUSH2 0x859 DUP3 PUSH2 0x7E8 JUMP JUMPDEST JUMP JUMPDEST PUSH1 0x40 MLOAD SWAP1 PUSH1 0xC0 DUP3 ADD DUP3 DUP2 LT PUSH1 0x1 PUSH1 0x1 PUSH1 0x40 SHL SUB DUP3 GT OR PUSH2 0x803 JUMPI PUSH1 0x40 MSTORE JUMP JUMPDEST PUSH1 0x20 SWAP1 PUSH1 0x1 PUSH1 0x1 PUSH1 0x40 SHL SUB DUP2 GT PUSH2 0x897 JUMPI JUMPDEST PUSH1 0x1F ADD PUSH1 0x1F NOT AND ADD SWAP1 JUMP JUMPDEST PUSH2 0x89F PUSH2 0x7D1 JUMP JUMPDEST PUSH2 0x88C JUMP JUMPDEST SWAP3 SWAP2 SWAP3 PUSH2 0x8B0 DUP3 PUSH2 0x87A JUMP JUMPDEST SWAP2 PUSH2 0x8BE PUSH1 0x40 MLOAD SWAP4 DUP5 PUSH2 0x82B JUMP JUMPDEST DUP3 SWAP5 DUP2 DUP5 MSTORE DUP2 DUP4 ADD GT PUSH2 0x8DB JUMPI DUP3 DUP2 PUSH1 0x20 SWAP4 DUP5 PUSH1 0x0 SWAP7 ADD CALLDATACOPY ADD ADD MSTORE JUMP JUMPDEST POP POP POP POP POP PUSH1 0x0 DUP1 REVERT JUMPDEST SWAP1 DUP1 PUSH1 0x1F DUP4 ADD SLT ISZERO PUSH2 0x6B2 JUMPI DUP2 PUSH1 0x20 PUSH2 0x6E5 SWAP4 CALLDATALOAD SWAP2 ADD PUSH2 0x8A4 JUMP JUMPDEST SWAP1 PUSH1 0x40 PUSH1 0x3 NOT DUP4 ADD SLT PUSH2 0x66E JUMPI PUSH1 0x4 CALLDATALOAD SWAP2 PUSH1 0x24 CALLDATALOAD SWAP1 PUSH1 0x1 PUSH1 0x1 PUSH1 0x40 SHL SUB DUP3 GT PUSH2 0x6A9 JUMPI PUSH2 0x6E5 SWAP2 PUSH1 0x4 ADD PUSH2 0x8E5 JUMP JUMPDEST PUSH1 0x20 PUSH1 0x3 NOT DUP3 ADD SLT PUSH2 0x66E JUMPI PUSH1 0x4 CALLDATALOAD SWAP1 PUSH1 0x1 PUSH1 0x1 PUSH1 0x40 SHL SUB DUP3 GT PUSH2 0x6B2 JUMPI PUSH2 0x6E5 SWAP2 PUSH1 0x4 ADD PUSH2 0x8E5 JUMP JUMPDEST PUSH1 0x40 SWAP1 PUSH1 0x3 NOT ADD SLT PUSH2 0xF JUMPI PUSH1 0x4 CALLDATALOAD PUSH1 0x2 DUP2 LT ISZERO PUSH2 0x66E JUMPI SWAP1 PUSH1 0x24 CALLDATALOAD PUSH1 0x1 PUSH1 0x1 PUSH1 0xA0 SHL SUB DUP2 AND DUP2 EQ ISZERO PUSH2 0x6B2 JUMPI SWAP1 JUMP JUMPDEST PUSH1 0x40 SWAP1 PUSH1 0x3 NOT ADD SLT PUSH2 0xF JUMPI PUSH1 0x4 CALLDATALOAD SWAP1 PUSH1 0x24 CALLDATALOAD PUSH1 0x2 DUP2 LT ISZERO PUSH2 0x6B2 JUMPI SWAP1 JUMP JUMPDEST PUSH1 0x20 SWAP1 DUP2 PUSH1 0x40 DUP2 DUP4 ADD SWAP3 DUP3 DUP2 MSTORE DUP6 MLOAD DUP1 SWAP5 MSTORE ADD SWAP4 ADD SWAP2 PUSH1 0x0 JUMPDEST DUP3 DUP2 LT PUSH2 0x9CF JUMPI POP POP POP POP SWAP1 JUMP JUMPDEST DUP4 MLOAD PUSH1 0x1 PUSH1 0x1 PUSH1 0xA0 SHL SUB AND DUP6 MSTORE SWAP4 DUP2 ADD SWAP4 SWAP3 DUP2 ADD SWAP3 PUSH1 0x1 ADD PUSH2 0x9C1 JUMP JUMPDEST PUSH1 0x20 SWAP1 PUSH1 0x3 NOT ADD SLT PUSH2 0xF JUMPI PUSH1 0x4 CALLDATALOAD PUSH1 0x2 DUP2 LT ISZERO PUSH2 0x66E JUMPI SWAP1 JUMP JUMPDEST PUSH1 0x60 PUSH1 0x3 NOT DUP3 ADD SLT PUSH2 0x66E JUMPI PUSH1 0x4 CALLDATALOAD SWAP2 PUSH1 0x1 PUSH1 0x1 PUSH1 0x40 SHL SUB PUSH1 0x24 CALLDATALOAD DUP2 DUP2 GT PUSH2 0x8DB JUMPI DUP4 PUSH2 0xA36 SWAP2 PUSH1 0x4 ADD PUSH2 0x8E5 JUMP JUMPDEST SWAP3 PUSH1 0x44 CALLDATALOAD SWAP2 DUP3 GT PUSH2 0x8DB JUMPI PUSH2 0x6E5 SWAP2 PUSH1 0x4 ADD PUSH2 0x8E5 JUMP JUMPDEST PUSH1 0x40 PUSH1 0x3 NOT DUP3 ADD SLT PUSH2 0x66E JUMPI PUSH1 0x4 CALLDATALOAD SWAP1 PUSH1 0x1 PUSH1 0x1 PUSH1 0x40 SHL SUB DUP3 GT PUSH2 0x6B2 JUMPI PUSH2 0xA77 SWAP2 PUSH1 0x4 ADD PUSH2 0x8E5 JUMP JUMPDEST SWAP1 PUSH1 0x24 CALLDATALOAD DUP1 ISZERO ISZERO DUP2 EQ ISZERO PUSH2 0x6B2 JUMPI SWAP1 JUMP JUMPDEST PUSH1 0x20 SWAP1 PUSH1 0x3 NOT ADD SLT PUSH2 0xF JUMPI PUSH1 0x4 CALLDATALOAD PUSH1 0x1 PUSH1 0x1 PUSH1 0xA0 SHL SUB DUP2 AND DUP2 EQ ISZERO PUSH2 0x66E JUMPI SWAP1 JUMP JUMPDEST PUSH1 0x40 SWAP1 PUSH1 0x3 NOT ADD SLT PUSH2 0xF JUMPI PUSH1 0x4 CALLDATALOAD PUSH1 0x1 PUSH1 0x1 PUSH1 0xA0 SHL SUB DUP2 AND DUP2 EQ ISZERO PUSH2 0x66E JUMPI SWAP1 PUSH1 0x24 CALLDATALOAD DUP1 ISZERO ISZERO DUP2 EQ ISZERO PUSH2 0x6B2 JUMPI SWAP1 JUMP JUMPDEST PUSH1 0xE0 PUSH1 0x3 NOT DUP3 ADD SLT PUSH2 0x66E JUMPI PUSH2 0xAF0 PUSH2 0x657 JUMP JUMPDEST SWAP2 PUSH1 0x24 CALLDATALOAD PUSH1 0x1 PUSH1 0x1 PUSH1 0x40 SHL SUB SWAP3 DUP4 DUP3 GT PUSH2 0x8DB JUMPI PUSH2 0xB12 DUP2 PUSH1 0x4 SWAP4 DUP5 ADD PUSH2 0x8E5 JUMP JUMPDEST SWAP4 PUSH1 0x44 CALLDATALOAD DUP2 DUP2 GT PUSH2 0xBAD JUMPI DUP3 PUSH2 0xB29 SWAP2 DUP6 ADD PUSH2 0x8E5 JUMP JUMPDEST SWAP4 PUSH1 0x64 CALLDATALOAD DUP3 DUP2 GT PUSH2 0xBA0 JUMPI DUP4 PUSH2 0xB40 SWAP2 DUP7 ADD PUSH2 0x8E5 JUMP JUMPDEST SWAP4 PUSH1 0x84 CALLDATALOAD DUP4 DUP2 GT PUSH2 0xB92 JUMPI DUP5 PUSH2 0xB57 SWAP2 DUP4 ADD PUSH2 0x8E5 JUMP JUMPDEST SWAP4 PUSH1 0xA4 CALLDATALOAD DUP5 DUP2 GT PUSH2 0xB83 JUMPI DUP2 PUSH2 0xB6E SWAP2 DUP5 ADD PUSH2 0x8E5 JUMP JUMPDEST SWAP4 PUSH1 0xC4 CALLDATALOAD SWAP1 DUP2 GT PUSH2 0xB83 JUMPI PUSH2 0x6E5 SWAP3 ADD PUSH2 0x8E5 JUMP JUMPDEST POP POP POP POP POP POP POP POP POP POP PUSH1 0x0 DUP1 REVERT JUMPDEST POP POP POP POP POP POP POP POP POP PUSH1 0x0 DUP1 REVERT JUMPDEST POP POP POP POP POP POP POP POP PUSH1 0x0 DUP1 REVERT JUMPDEST POP POP POP POP POP POP POP PUSH1 0x0 DUP1 REVERT JUMPDEST SWAP1 PUSH1 0x80 PUSH1 0x3 NOT DUP4 ADD SLT PUSH2 0x66E JUMPI PUSH1 0x1 PUSH1 0x1 PUSH1 0xA0 SHL SUB SWAP2 PUSH1 0x4 CALLDATALOAD DUP4 DUP2 AND DUP2 EQ ISZERO PUSH2 0x6A9 JUMPI SWAP3 PUSH1 0x24 CALLDATALOAD SWAP1 DUP2 AND DUP2 EQ ISZERO PUSH2 0x6A9 JUMPI SWAP2 PUSH1 0x44 CALLDATALOAD SWAP2 PUSH1 0x64 CALLDATALOAD SWAP1 PUSH1 0x1 PUSH1 0x1 PUSH1 0x40 SHL SUB DUP3 GT PUSH2 0xC1E JUMPI DUP1 PUSH1 0x23 DUP4 ADD SLT ISZERO PUSH2 0xC1E JUMPI DUP2 PUSH1 0x24 PUSH2 0x6E5 SWAP4 PUSH1 0x4 ADD CALLDATALOAD SWAP2 ADD PUSH2 0x8A4 JUMP JUMPDEST POP POP POP POP POP POP PUSH1 0x0 DUP1 REVERT JUMPDEST PUSH1 0x40 SWAP1 PUSH1 0x3 NOT ADD SLT PUSH2 0xF JUMPI PUSH1 0x1 PUSH1 0x1 PUSH1 0xA0 SHL SUB SWAP1 PUSH1 0x4 CALLDATALOAD DUP3 DUP2 AND DUP2 EQ ISZERO PUSH2 0x6B2 JUMPI SWAP2 PUSH1 0x24 CALLDATALOAD SWAP1 DUP2 AND DUP2 EQ ISZERO PUSH2 0x6B2 JUMPI SWAP1 JUMP JUMPDEST PUSH1 0x20 DUP1 DUP3 ADD SWAP1 DUP1 DUP4 MSTORE DUP4 MLOAD DUP1 SWAP3 MSTORE PUSH1 0x40 DUP4 ADD SWAP3 DUP2 PUSH1 0x40 DUP5 PUSH1 0x5 SHL DUP4 ADD ADD SWAP6 ADD SWAP4 PUSH1 0x0 SWAP2 JUMPDEST DUP5 DUP4 LT PUSH2 0xC90 JUMPI POP POP POP POP POP POP SWAP1 JUMP JUMPDEST SWAP1 SWAP2 SWAP3 SWAP4 SWAP5 SWAP6 DUP5 DUP1 PUSH2 0xCAE PUSH1 0x1 SWAP4 PUSH1 0x3F NOT DUP7 DUP3 SUB ADD DUP8 MSTORE DUP11 MLOAD PUSH2 0x72B JUMP JUMPDEST SWAP9 ADD SWAP4 ADD SWAP4 ADD SWAP2 SWAP5 SWAP4 SWAP3 SWAP1 PUSH2 0xC80 JUMP JUMPDEST PUSH1 0x1 PUSH1 0x1 PUSH1 0xA0 SHL SUB AND DUP1 ISZERO PUSH2 0xCDE JUMPI PUSH1 0x0 MSTORE PUSH1 0x3 PUSH1 0x20 MSTORE PUSH1 0x40 PUSH1 0x0 KECCAK256 SLOAD SWAP1 JUMP JUMPDEST POP POP PUSH1 0x40 MLOAD PUSH3 0x461BCD PUSH1 0xE5 SHL DUP2 MSTORE PUSH1 0x20 PUSH1 0x4 DUP3 ADD MSTORE PUSH1 0x29 PUSH1 0x24 DUP3 ADD MSTORE PUSH32 0x4552433732313A2061646472657373207A65726F206973206E6F742061207661 PUSH1 0x44 DUP3 ADD MSTORE PUSH9 0x3634B21037BBB732B9 PUSH1 0xB9 SHL PUSH1 0x64 DUP3 ADD MSTORE PUSH1 0x84 SWAP1 REVERT JUMPDEST ISZERO PUSH2 0xD3E JUMPI JUMP JUMPDEST POP PUSH1 0x40 MLOAD PUSH3 0x461BCD PUSH1 0xE5 SHL DUP2 MSTORE PUSH1 0x20 PUSH1 0x4 DUP3 ADD MSTORE PUSH1 0x18 PUSH1 0x24 DUP3 ADD MSTORE PUSH32 0x4552433732313A20696E76616C696420746F6B656E2049440000000000000000 PUSH1 0x44 DUP3 ADD MSTORE PUSH1 0x64 SWAP1 REVERT JUMPDEST PUSH1 0x0 SWAP1 DUP2 MSTORE PUSH1 0x2 PUSH1 0x20 MSTORE PUSH1 0x40 SWAP1 KECCAK256 SLOAD PUSH1 0x1 PUSH1 0x1 PUSH1 0xA0 SHL SUB AND PUSH2 0x6E5 DUP2 ISZERO ISZERO PUSH2 0xD37 JUMP JUMPDEST SWAP1 PUSH1 0x1 DUP3 DUP2 SHR SWAP3 AND DUP1 ISZERO PUSH2 0xDD9 JUMPI JUMPDEST PUSH1 0x20 DUP4 LT EQ PUSH2 0xDC1 JUMPI JUMP JUMPDEST POP POP PUSH4 0x4E487B71 PUSH1 0xE0 SHL PUSH1 0x0 MSTORE PUSH1 0x22 PUSH1 0x4 MSTORE PUSH1 0x24 PUSH1 0x0 REVERT JUMPDEST SWAP2 PUSH1 0x7F AND SWAP2 PUSH2 0xDB6 JUMP JUMPDEST PUSH1 0x40 MLOAD SWAP1 PUSH1 0x0 DUP3 DUP2 SLOAD SWAP2 PUSH2 0xDF6 DUP4 PUSH2 0xDA7 JUMP JUMPDEST DUP1 DUP4 MSTORE SWAP3 PUSH1 0x1 SWAP1 DUP2 DUP2 AND SWAP1 DUP2 ISZERO PUSH2 0xE7A JUMPI POP PUSH1 0x1 EQ PUSH2 0xE1D JUMPI JUMPDEST POP PUSH2 0x859 SWAP3 POP SUB DUP4 PUSH2 0x82B JUMP JUMPDEST PUSH1 0x0 DUP1 DUP1 MSTORE SWAP2 POP PUSH32 0x290DECD9548B62A8D60345A988386FC84BA6BC95484008F6362F93160EF3E563 JUMPDEST DUP5 DUP4 LT PUSH2 0xE5F JUMPI POP PUSH2 0x859 SWAP4 POP POP DUP2 ADD PUSH1 0x20 ADD CODESIZE PUSH2 0xE10 JUMP JUMPDEST DUP2 SWAP4 POP SWAP1 DUP2 PUSH1 0x20 SWAP3 SLOAD DUP4 DUP6 DUP11 ADD ADD MSTORE ADD SWAP2 ADD SWAP1 SWAP2 DUP6 SWAP3 PUSH2 0xE46 JUMP JUMPDEST SWAP5 POP POP POP POP POP PUSH1 0xFF NOT AND PUSH1 0x20 DUP4 ADD MSTORE PUSH2 0x859 DUP3 PUSH1 0x40 DUP2 ADD CODESIZE PUSH2 0xE10 JUMP JUMPDEST PUSH1 0x40 MLOAD SWAP1 PUSH1 0x0 DUP3 PUSH1 0x1 SWAP2 DUP3 SLOAD SWAP3 PUSH2 0xEAD DUP5 PUSH2 0xDA7 JUMP JUMPDEST DUP1 DUP5 MSTORE SWAP4 DUP2 DUP2 AND SWAP1 DUP2 ISZERO PUSH2 0xE7A JUMPI POP PUSH1 0x1 EQ PUSH2 0xED0 JUMPI POP PUSH2 0x859 SWAP3 POP SUB DUP4 PUSH2 0x82B JUMP JUMPDEST PUSH1 0x0 DUP2 DUP2 MSTORE SWAP2 POP PUSH32 0xB10E2D527612073B26EECDFD717E6A320CF44B4AFAC2B0732D9FCBE2B7FA0CF6 JUMPDEST DUP5 DUP4 LT PUSH2 0xF12 JUMPI POP PUSH2 0x859 SWAP4 POP POP DUP2 ADD PUSH1 0x20 ADD CODESIZE PUSH2 0xE10 JUMP JUMPDEST DUP2 SWAP4 POP SWAP1 DUP2 PUSH1 0x20 SWAP3 SLOAD DUP4 DUP6 DUP11 ADD ADD MSTORE ADD SWAP2 ADD SWAP1 SWAP2 DUP6 SWAP3 PUSH2 0xEF9 JUMP JUMPDEST SWAP1 PUSH1 0x40 MLOAD SWAP2 DUP3 PUSH1 0x0 DUP3 SLOAD SWAP3 PUSH2 0xF41 DUP5 PUSH2 0xDA7 JUMP JUMPDEST SWAP1 DUP2 DUP5 MSTORE PUSH1 0x1 SWAP5 DUP6 DUP2 AND SWAP1 DUP2 PUSH1 0x0 EQ PUSH2 0xFAE JUMPI POP PUSH1 0x1 EQ PUSH2 0xF6B JUMPI JUMPDEST POP POP PUSH2 0x859 SWAP3 POP SUB DUP4 PUSH2 0x82B JUMP JUMPDEST SWAP1 SWAP4 SWAP2 POP PUSH1 0x0 MSTORE PUSH1 0x20 SWAP1 DUP2 PUSH1 0x0 KECCAK256 SWAP4 PUSH1 0x0 SWAP2 JUMPDEST DUP2 DUP4 LT PUSH2 0xF96 JUMPI POP POP PUSH2 0x859 SWAP4 POP DUP3 ADD ADD CODESIZE DUP1 PUSH2 0xF5D JUMP JUMPDEST DUP6 SLOAD DUP9 DUP5 ADD DUP6 ADD MSTORE SWAP5 DUP6 ADD SWAP5 DUP8 SWAP5 POP SWAP2 DUP4 ADD SWAP2 PUSH2 0xF7E JUMP JUMPDEST SWAP6 POP POP POP POP POP POP PUSH1 0xFF NOT AND PUSH1 0x20 DUP4 ADD MSTORE PUSH2 0x859 DUP3 PUSH1 0x40 DUP2 ADD CODESIZE DUP1 PUSH2 0xF5D JUMP JUMPDEST SWAP1 PUSH2 0xFD7 DUP2 PUSH2 0xD84 JUMP JUMPDEST PUSH1 0x1 PUSH1 0x1 PUSH1 0xA0 SHL SUB DUP2 DUP2 AND SWAP1 DUP5 AND DUP2 EQ PUSH2 0x10A0 JUMPI CALLER EQ SWAP1 DUP2 ISZERO PUSH2 0x1072 JUMPI JUMPDEST POP ISZERO PUSH2 0x1004 JUMPI PUSH2 0x859 SWAP2 PUSH2 0x15B1 JUMP JUMPDEST POP POP PUSH1 0x40 MLOAD PUSH3 0x461BCD PUSH1 0xE5 SHL DUP2 MSTORE PUSH1 0x20 PUSH1 0x4 DUP3 ADD MSTORE PUSH1 0x3D PUSH1 0x24 DUP3 ADD MSTORE PUSH32 0x4552433732313A20617070726F76652063616C6C6572206973206E6F7420746F PUSH1 0x44 DUP3 ADD MSTORE PUSH32 0x6B656E206F776E6572206F7220617070726F76656420666F7220616C6C000000 PUSH1 0x64 DUP3 ADD MSTORE PUSH1 0x84 SWAP2 POP REVERT JUMPDEST PUSH1 0x1 PUSH1 0x1 PUSH1 0xA0 SHL SUB AND PUSH1 0x0 SWAP1 DUP2 MSTORE PUSH1 0x5 PUSH1 0x20 MSTORE PUSH1 0x40 SWAP1 KECCAK256 PUSH1 0xFF SWAP2 POP PUSH2 0x1098 SWAP1 CALLER SWAP1 PUSH2 0x23C JUMP JUMPDEST SLOAD AND CODESIZE PUSH2 0xFF5 JUMP JUMPDEST POP POP POP POP POP PUSH1 0x84 PUSH1 0x40 MLOAD PUSH3 0x461BCD PUSH1 0xE5 SHL DUP2 MSTORE PUSH1 0x20 PUSH1 0x4 DUP3 ADD MSTORE PUSH1 0x21 PUSH1 0x24 DUP3 ADD MSTORE PUSH32 0x4552433732313A20617070726F76616C20746F2063757272656E74206F776E65 PUSH1 0x44 DUP3 ADD MSTORE PUSH1 0x39 PUSH1 0xF9 SHL PUSH1 0x64 DUP3 ADD MSTORE REVERT JUMPDEST PUSH1 0x0 DUP2 DUP2 MSTORE PUSH1 0x2 PUSH1 0x20 MSTORE PUSH1 0x40 SWAP1 KECCAK256 SLOAD PUSH2 0x1116 SWAP1 PUSH1 0x1 PUSH1 0x1 PUSH1 0xA0 SHL SUB AND ISZERO ISZERO PUSH2 0xD37 JUMP JUMPDEST PUSH1 0x0 SWAP1 DUP2 MSTORE PUSH1 0x4 PUSH1 0x20 MSTORE PUSH1 0x40 SWAP1 KECCAK256 SLOAD PUSH1 0x1 PUSH1 0x1 PUSH1 0xA0 SHL SUB AND SWAP1 JUMP JUMPDEST PUSH1 0x1 PUSH1 0x1 PUSH1 0xA0 SHL SUB DUP2 AND SWAP2 SWAP1 CALLER DUP4 EQ PUSH2 0x11B2 JUMPI DUP2 PUSH2 0x1171 PUSH2 0x1182 SWAP3 CALLER PUSH1 0x0 MSTORE PUSH1 0x5 PUSH1 0x20 MSTORE PUSH1 0x40 PUSH1 0x0 KECCAK256 SWAP1 PUSH1 0x1 DUP1 PUSH1 0xA0 SHL SUB AND PUSH1 0x0 MSTORE PUSH1 0x20 MSTORE PUSH1 0x40 PUSH1 0x0 KECCAK256 SWAP1 JUMP JUMPDEST SWAP1 PUSH1 0xFF DUP1 NOT DUP4 SLOAD AND SWAP2 ISZERO ISZERO AND OR SWAP1 SSTORE JUMP JUMPDEST PUSH1 0x40 MLOAD SWAP1 ISZERO ISZERO DUP2 MSTORE PUSH32 0x17307EAB39AB6107E8899845AD3D59BD9653F200F220920489CA2B5937696C31 PUSH1 0x20 CALLER SWAP3 LOG3 JUMP JUMPDEST POP POP POP POP PUSH1 0x64 PUSH1 0x40 MLOAD PUSH3 0x461BCD PUSH1 0xE5 SHL DUP2 MSTORE PUSH1 0x20 PUSH1 0x4 DUP3 ADD MSTORE PUSH1 0x19 PUSH1 0x24 DUP3 ADD MSTORE PUSH32 0x4552433732313A20617070726F766520746F2063616C6C657200000000000000 PUSH1 0x44 DUP3 ADD MSTORE REVERT JUMPDEST ISZERO PUSH2 0x1201 JUMPI JUMP JUMPDEST POP PUSH1 0x40 MLOAD PUSH3 0x461BCD PUSH1 0xE5 SHL DUP2 MSTORE PUSH1 0x20 PUSH1 0x4 DUP3 ADD MSTORE PUSH1 0x2D PUSH1 0x24 DUP3 ADD MSTORE PUSH32 0x4552433732313A2063616C6C6572206973206E6F7420746F6B656E206F776E65 PUSH1 0x44 DUP3 ADD MSTORE PUSH13 0x1C881BDC88185C1C1C9BDD9959 PUSH1 0x9A SHL PUSH1 0x64 DUP3 ADD MSTORE PUSH1 0x84 SWAP1 REVERT JUMPDEST SWAP1 PUSH2 0x859 SWAP3 SWAP2 PUSH2 0x1275 PUSH2 0x1270 DUP5 CALLER PUSH2 0x1363 JUMP JUMPDEST PUSH2 0x11FA JUMP JUMPDEST PUSH2 0x1436 JUMP JUMPDEST PUSH1 0x40 MLOAD SWAP1 PUSH2 0x1287 DUP3 PUSH2 0x810 JUMP JUMPDEST PUSH1 0x0 DUP3 MSTORE JUMP JUMPDEST SWAP1 SWAP2 PUSH2 0x859 SWAP3 PUSH1 0x40 MLOAD SWAP3 PUSH1 0x20 DUP5 ADD DUP5 DUP2 LT PUSH1 0x1 PUSH1 0x1 PUSH1 0x40 SHL SUB DUP3 GT OR PUSH2 0x12BA JUMPI JUMPDEST PUSH1 0x40 MSTORE PUSH1 0x0 DUP5 MSTORE PUSH2 0x12C7 JUMP JUMPDEST PUSH2 0x12C2 PUSH2 0x7D1 JUMP JUMPDEST PUSH2 0x12AE JUMP JUMPDEST SWAP1 PUSH2 0x12EB SWAP4 SWAP3 SWAP2 PUSH2 0x12DB PUSH2 0x1270 DUP5 CALLER PUSH2 0x1363 JUMP JUMPDEST PUSH2 0x12E6 DUP4 DUP4 DUP4 PUSH2 0x1436 JUMP JUMPDEST PUSH2 0x168D JUMP JUMPDEST ISZERO PUSH2 0x12F2 JUMPI JUMP JUMPDEST POP PUSH1 0x40 MLOAD PUSH3 0x461BCD PUSH1 0xE5 SHL DUP2 MSTORE DUP1 PUSH2 0x130C PUSH1 0x4 DUP3 ADD PUSH2 0x1310 JUMP JUMPDEST SUB SWAP1 REVERT JUMPDEST PUSH1 0x80 SWAP1 PUSH1 0x20 DUP2 MSTORE PUSH1 0x32 PUSH1 0x20 DUP3 ADD MSTORE PUSH32 0x4552433732313A207472616E7366657220746F206E6F6E204552433732315265 PUSH1 0x40 DUP3 ADD MSTORE PUSH18 0x31B2B4BB32B91034B6B83632B6B2B73A32B9 PUSH1 0x71 SHL PUSH1 0x60 DUP3 ADD MSTORE ADD SWAP1 JUMP JUMPDEST PUSH1 0x1 PUSH1 0x1 PUSH1 0xA0 SHL SUB DUP1 PUSH2 0x1375 DUP5 PUSH2 0xD84 JUMP JUMPDEST AND SWAP3 DUP2 DUP4 AND SWAP3 DUP5 DUP5 EQ SWAP5 DUP6 ISZERO PUSH2 0x13AB JUMPI JUMPDEST POP POP DUP4 ISZERO PUSH2 0x1395 JUMPI JUMPDEST POP POP POP SWAP1 JUMP JUMPDEST PUSH2 0x13A1 SWAP2 SWAP3 SWAP4 POP PUSH2 0x10F3 JUMP JUMPDEST AND EQ CODESIZE DUP1 DUP1 PUSH2 0x138F JUMP JUMPDEST PUSH1 0x0 SWAP1 DUP2 MSTORE PUSH1 0x5 PUSH1 0x20 SWAP1 DUP2 MSTORE PUSH1 0x40 DUP1 DUP4 KECCAK256 PUSH1 0x1 PUSH1 0x1 PUSH1 0xA0 SHL SUB SWAP5 SWAP1 SWAP5 AND DUP4 MSTORE SWAP3 SWAP1 MSTORE KECCAK256 SLOAD PUSH1 0xFF AND SWAP4 POP CODESIZE DUP1 PUSH2 0x1386 JUMP JUMPDEST ISZERO PUSH2 0x13E2 JUMPI JUMP JUMPDEST POP PUSH1 0x40 MLOAD PUSH3 0x461BCD PUSH1 0xE5 SHL DUP2 MSTORE PUSH1 0x20 PUSH1 0x4 DUP3 ADD MSTORE PUSH1 0x25 PUSH1 0x24 DUP3 ADD MSTORE PUSH32 0x4552433732313A207472616E736665722066726F6D20696E636F727265637420 PUSH1 0x44 DUP3 ADD MSTORE PUSH5 0x37BBB732B9 PUSH1 0xD9 SHL PUSH1 0x64 DUP3 ADD MSTORE PUSH1 0x84 SWAP1 REVERT JUMPDEST PUSH2 0x145A SWAP1 PUSH2 0x1443 DUP5 PUSH2 0xD84 JUMP JUMPDEST PUSH1 0x1 PUSH1 0x1 PUSH1 0xA0 SHL SUB DUP3 DUP2 AND SWAP4 SWAP1 SWAP2 DUP3 AND DUP5 EQ PUSH2 0x13DB JUMP JUMPDEST DUP4 AND SWAP3 DUP4 ISZERO PUSH2 0x155B JUMPI PUSH2 0x14D8 DUP3 PUSH2 0x1475 DUP8 DUP5 PUSH2 0x1532 SWAP7 PUSH2 0x2899 JUMP JUMPDEST PUSH2 0x1497 DUP6 PUSH2 0x1491 PUSH2 0x1485 DUP11 PUSH2 0xD84 JUMP JUMPDEST PUSH1 0x1 PUSH1 0x1 PUSH1 0xA0 SHL SUB AND SWAP1 JUMP JUMPDEST EQ PUSH2 0x13DB JUMP JUMPDEST PUSH2 0x14BE PUSH2 0x14AE DUP9 PUSH1 0x0 MSTORE PUSH1 0x4 PUSH1 0x20 MSTORE PUSH1 0x40 PUSH1 0x0 KECCAK256 SWAP1 JUMP JUMPDEST DUP1 SLOAD PUSH1 0x1 PUSH1 0x1 PUSH1 0xA0 SHL SUB NOT AND SWAP1 SSTORE JUMP JUMPDEST PUSH1 0x1 PUSH1 0x1 PUSH1 0xA0 SHL SUB AND PUSH1 0x0 SWAP1 DUP2 MSTORE PUSH1 0x3 PUSH1 0x20 MSTORE PUSH1 0x40 SWAP1 KECCAK256 SWAP1 JUMP JUMPDEST DUP1 SLOAD PUSH1 0x0 NOT ADD SWAP1 SSTORE PUSH1 0x1 PUSH1 0x1 PUSH1 0xA0 SHL SUB DUP2 AND PUSH1 0x0 SWAP1 DUP2 MSTORE PUSH1 0x3 PUSH1 0x20 MSTORE PUSH1 0x40 SWAP1 KECCAK256 PUSH1 0x1 DUP2 SLOAD ADD SWAP1 SSTORE PUSH2 0x1513 DUP6 PUSH1 0x0 MSTORE PUSH1 0x2 PUSH1 0x20 MSTORE PUSH1 0x40 PUSH1 0x0 KECCAK256 SWAP1 JUMP JUMPDEST DUP1 SLOAD PUSH1 0x1 PUSH1 0x1 PUSH1 0xA0 SHL SUB NOT AND PUSH1 0x1 PUSH1 0x1 PUSH1 0xA0 SHL SUB SWAP1 SWAP3 AND SWAP2 SWAP1 SWAP2 OR SWAP1 SSTORE JUMP JUMPDEST PUSH32 0xDDF252AD1BE2C89B69C2B068FC378DAA952BA7F163C4A11628F55A4DF523B3EF PUSH1 0x0 PUSH1 0x40 MLOAD LOG4 JUMP JUMPDEST POP POP POP POP POP POP PUSH1 0x84 PUSH1 0x40 MLOAD PUSH3 0x461BCD PUSH1 0xE5 SHL DUP2 MSTORE PUSH1 0x20 PUSH1 0x4 DUP3 ADD MSTORE PUSH1 0x24 DUP1 DUP3 ADD MSTORE PUSH32 0x4552433732313A207472616E7366657220746F20746865207A65726F20616464 PUSH1 0x44 DUP3 ADD MSTORE PUSH4 0x72657373 PUSH1 0xE0 SHL PUSH1 0x64 DUP3 ADD MSTORE REVERT JUMPDEST PUSH1 0x0 DUP3 DUP2 MSTORE PUSH1 0x4 PUSH1 0x20 MSTORE PUSH1 0x40 SWAP1 KECCAK256 DUP1 SLOAD PUSH1 0x1 PUSH1 0x1 PUSH1 0xA0 SHL SUB NOT AND PUSH1 0x1 PUSH1 0x1 PUSH1 0xA0 SHL SUB DUP4 AND OR SWAP1 SSTORE PUSH1 0x1 PUSH1 0x1 PUSH1 0xA0 SHL SUB DUP1 PUSH2 0x15EA DUP5 PUSH2 0xD84 JUMP JUMPDEST AND SWAP2 AND SWAP1 PUSH32 0x8C5BE1E5EBEC7D5BD14F71427D1E84F3DD0314C0F7B2291E5B200AC8C7C3B925 PUSH1 0x0 PUSH1 0x40 MLOAD LOG4 JUMP JUMPDEST SWAP1 DUP2 PUSH1 0x20 SWAP2 SUB SLT PUSH2 0x66E JUMPI MLOAD PUSH2 0x6E5 DUP2 PUSH2 0x6BA JUMP JUMPDEST PUSH1 0x1 PUSH1 0x1 PUSH1 0xA0 SHL SUB SWAP2 DUP3 AND DUP2 MSTORE SWAP2 AND PUSH1 0x20 DUP3 ADD MSTORE PUSH1 0x40 DUP2 ADD SWAP2 SWAP1 SWAP2 MSTORE PUSH1 0x80 PUSH1 0x60 DUP3 ADD DUP2 SWAP1 MSTORE PUSH2 0x6E5 SWAP3 SWAP2 ADD SWAP1 PUSH2 0x72B JUMP JUMPDEST RETURNDATASIZE ISZERO PUSH2 0x1688 JUMPI RETURNDATASIZE SWAP1 PUSH2 0x166E DUP3 PUSH2 0x87A JUMP JUMPDEST SWAP2 PUSH2 0x167C PUSH1 0x40 MLOAD SWAP4 DUP5 PUSH2 0x82B JUMP JUMPDEST DUP3 MSTORE RETURNDATASIZE PUSH1 0x0 PUSH1 0x20 DUP5 ADD RETURNDATACOPY JUMP JUMPDEST PUSH1 0x60 SWAP1 JUMP JUMPDEST SWAP3 SWAP1 SWAP2 SWAP1 DUP3 EXTCODESIZE ISZERO PUSH2 0x173C JUMPI PUSH2 0x16C0 SWAP3 PUSH1 0x20 SWAP3 PUSH1 0x0 PUSH1 0x40 MLOAD DUP1 SWAP7 DUP2 SWAP6 DUP3 SWAP5 PUSH4 0xA85BD01 PUSH1 0xE1 SHL SWAP11 DUP12 DUP6 MSTORE CALLER PUSH1 0x4 DUP7 ADD PUSH2 0x162C JUMP JUMPDEST SUB SWAP3 PUSH1 0x1 PUSH1 0x1 PUSH1 0xA0 SHL SUB AND GAS CALL PUSH1 0x0 SWAP2 DUP2 PUSH2 0x171C JUMPI JUMPDEST POP PUSH2 0x170E JUMPI POP POP POP PUSH2 0x16E6 PUSH2 0x165D JUMP JUMPDEST DUP1 MLOAD SWAP1 DUP2 PUSH2 0x1709 JUMPI POP POP PUSH1 0x40 MLOAD PUSH3 0x461BCD PUSH1 0xE5 SHL DUP2 MSTORE DUP1 PUSH2 0x130C PUSH1 0x4 DUP3 ADD PUSH2 0x1310 JUMP JUMPDEST PUSH1 0x20 ADD REVERT JUMPDEST PUSH1 0x1 PUSH1 0x1 PUSH1 0xE0 SHL SUB NOT AND EQ SWAP1 JUMP JUMPDEST PUSH2 0x1735 SWAP2 SWAP3 POP PUSH2 0x172C RETURNDATASIZE DUP3 PUSH2 0x82B JUMP JUMPDEST RETURNDATASIZE DUP2 ADD SWAP1 PUSH2 0x1617 JUMP JUMPDEST SWAP1 CODESIZE PUSH2 0x16D6 JUMP JUMPDEST POP POP POP POP PUSH1 0x1 SWAP1 JUMP JUMPDEST ISZERO PUSH2 0x174C JUMPI JUMP JUMPDEST POP PUSH1 0x40 MLOAD PUSH3 0x461BCD PUSH1 0xE5 SHL DUP2 MSTORE PUSH1 0x20 PUSH1 0x4 DUP3 ADD MSTORE PUSH1 0x2D PUSH1 0x24 DUP3 ADD MSTORE PUSH32 0x466C65656B416363657373436F6E74726F6C3A206D757374206861766520636F PUSH1 0x44 DUP3 ADD MSTORE PUSH13 0x6C6C656374696F6E20726F6C65 PUSH1 0x98 SHL PUSH1 0x64 DUP3 ADD MSTORE PUSH1 0x84 SWAP1 REVERT JUMPDEST PUSH2 0x17B1 CALLER PUSH2 0x1AB8 JUMP JUMPDEST DUP1 ISZERO PUSH2 0x183F JUMPI JUMPDEST PUSH2 0x17C1 SWAP1 PUSH2 0x1745 JUMP JUMPDEST PUSH1 0x6 SLOAD PUSH1 0x0 MSTORE PUSH1 0x7 PUSH1 0x20 MSTORE PUSH2 0x17E3 DUP3 PUSH2 0x17DE DUP4 PUSH1 0x40 PUSH1 0x0 KECCAK256 PUSH2 0x1AA0 JUMP JUMPDEST PUSH2 0x1DE9 JUMP JUMPDEST PUSH1 0x2 DUP2 LT ISZERO PUSH2 0x1826 JUMPI PUSH1 0x40 MLOAD CALLER DUP2 MSTORE PUSH1 0x1 PUSH1 0x1 PUSH1 0xA0 SHL SUB SWAP1 SWAP3 AND SWAP2 PUSH32 0xCF081ED2B728E3115904BE00EB8927B2375FF3401839B37F7ACCFA1BB2BEE15C SWAP1 PUSH1 0x20 SWAP1 LOG3 JUMP JUMPDEST POP POP POP PUSH4 0x4E487B71 PUSH1 0xE0 SHL PUSH1 0x0 MSTORE PUSH1 0x21 PUSH1 0x4 MSTORE PUSH1 0x24 PUSH1 0x0 REVERT JUMPDEST POP PUSH2 0x17C1 PUSH2 0x184C CALLER PUSH2 0x1AB8 JUMP JUMPDEST SWAP1 POP PUSH2 0x17B8 JUMP JUMPDEST ISZERO PUSH2 0x185A JUMPI JUMP JUMPDEST POP PUSH1 0x40 MLOAD PUSH3 0x461BCD PUSH1 0xE5 SHL DUP2 MSTORE PUSH1 0x20 PUSH1 0x4 DUP3 ADD MSTORE PUSH1 0x28 PUSH1 0x24 DUP3 ADD MSTORE PUSH32 0x466C65656B416363657373436F6E74726F6C3A206D757374206861766520746F PUSH1 0x44 DUP3 ADD MSTORE PUSH8 0x6B656E20726F6C65 PUSH1 0xC0 SHL PUSH1 0x64 DUP3 ADD MSTORE PUSH1 0x84 SWAP1 REVERT JUMPDEST PUSH2 0x18BB CALLER DUP3 PUSH2 0x1B09 JUMP JUMPDEST DUP1 ISZERO PUSH2 0x1957 JUMPI JUMPDEST PUSH2 0x18CB SWAP1 PUSH2 0x1853 JUMP JUMPDEST PUSH1 0x0 DUP2 DUP2 MSTORE PUSH1 0x8 PUSH1 0x20 MSTORE PUSH1 0x40 DUP2 KECCAK256 SLOAD PUSH1 0x9 PUSH1 0x20 MSTORE PUSH1 0x40 DUP3 KECCAK256 SWAP1 DUP3 MSTORE PUSH1 0x20 MSTORE PUSH2 0x18FA DUP5 PUSH2 0x17DE DUP6 PUSH1 0x40 DUP6 KECCAK256 PUSH2 0x1AA0 JUMP JUMPDEST PUSH1 0x2 DUP4 LT ISZERO PUSH2 0x193E JUMPI POP PUSH1 0x40 MLOAD CALLER DUP2 MSTORE PUSH1 0x1 PUSH1 0x1 PUSH1 0xA0 SHL SUB SWAP1 SWAP4 AND SWAP3 PUSH32 0xBF5A13B362503FCC74B8B9B1598ABA2F3A9AF85D05BA7978F7E9F447F22C239 SWAP1 PUSH1 0x20 SWAP1 LOG4 JUMP JUMPDEST PUSH4 0x4E487B71 PUSH1 0xE0 SHL DUP2 MSTORE PUSH1 0x21 PUSH1 0x4 MSTORE PUSH1 0x24 SWAP5 POP SWAP3 POP POP POP REVERT JUMPDEST POP PUSH2 0x18CB PUSH2 0x1965 CALLER DUP4 PUSH2 0x1B09 JUMP JUMPDEST SWAP1 POP PUSH2 0x18C2 JUMP JUMPDEST PUSH2 0x1975 CALLER PUSH2 0x1AB8 JUMP JUMPDEST DUP1 ISZERO PUSH2 0x19EA JUMPI JUMPDEST PUSH2 0x1985 SWAP1 PUSH2 0x1745 JUMP JUMPDEST PUSH1 0x6 SLOAD PUSH1 0x0 MSTORE PUSH1 0x7 PUSH1 0x20 MSTORE PUSH2 0x19A7 DUP3 PUSH2 0x19A2 DUP4 PUSH1 0x40 PUSH1 0x0 KECCAK256 PUSH2 0x1AA0 JUMP JUMPDEST PUSH2 0x1EEC JUMP JUMPDEST PUSH1 0x2 DUP2 LT ISZERO PUSH2 0x1826 JUMPI PUSH1 0x40 MLOAD CALLER DUP2 MSTORE PUSH1 0x1 PUSH1 0x1 PUSH1 0xA0 SHL SUB SWAP1 SWAP3 AND SWAP2 PUSH32 0xAEFF57F0F5E4D3D10A37D4A70FDE8ED67A95E67B251D5C512C0EA98C380D2F95 SWAP1 PUSH1 0x20 SWAP1 LOG3 JUMP JUMPDEST POP PUSH2 0x1985 PUSH2 0x19F7 CALLER PUSH2 0x1AB8 JUMP JUMPDEST SWAP1 POP PUSH2 0x197C JUMP JUMPDEST PUSH2 0x1A08 CALLER DUP3 PUSH2 0x1B09 JUMP JUMPDEST DUP1 ISZERO PUSH2 0x1A8B JUMPI JUMPDEST PUSH2 0x1A18 SWAP1 PUSH2 0x1853 JUMP JUMPDEST PUSH1 0x0 DUP2 DUP2 MSTORE PUSH1 0x8 PUSH1 0x20 MSTORE PUSH1 0x40 DUP2 KECCAK256 SLOAD PUSH1 0x9 PUSH1 0x20 MSTORE PUSH1 0x40 DUP3 KECCAK256 SWAP1 DUP3 MSTORE PUSH1 0x20 MSTORE PUSH2 0x1A47 DUP5 PUSH2 0x19A2 DUP6 PUSH1 0x40 DUP6 KECCAK256 PUSH2 0x1AA0 JUMP JUMPDEST PUSH1 0x2 DUP4 LT ISZERO PUSH2 0x193E JUMPI POP PUSH1 0x40 MLOAD CALLER DUP2 MSTORE PUSH1 0x1 PUSH1 0x1 PUSH1 0xA0 SHL SUB SWAP1 SWAP4 AND SWAP3 PUSH32 0xE52D746E4C78C98C6BFA291B273406905C3E8550B7D911A6BEA686368C2DC79D SWAP1 PUSH1 0x20 SWAP1 LOG4 JUMP JUMPDEST POP PUSH2 0x1A18 PUSH2 0x1A99 CALLER DUP4 PUSH2 0x1B09 JUMP JUMPDEST SWAP1 POP PUSH2 0x1A0F JUMP JUMPDEST SWAP1 PUSH1 0x2 DUP2 LT ISZERO PUSH2 0x1826 JUMPI PUSH1 0x0 MSTORE PUSH1 0x20 MSTORE PUSH1 0x40 PUSH1 0x0 KECCAK256 SWAP1 JUMP JUMPDEST PUSH1 0x6 SLOAD PUSH1 0x0 SWAP1 DUP2 MSTORE PUSH1 0x7 PUSH1 0x20 SWAP1 DUP2 MSTORE PUSH1 0x40 DUP1 DUP4 KECCAK256 DUP4 DUP1 MSTORE DUP3 MSTORE DUP1 DUP4 KECCAK256 PUSH1 0x1 PUSH1 0x1 PUSH1 0xA0 SHL SUB SWAP1 SWAP5 AND DUP4 MSTORE SWAP3 SWAP1 MSTORE KECCAK256 JUMPDEST SLOAD ISZERO ISZERO SWAP1 JUMP JUMPDEST SWAP1 PUSH2 0x23C PUSH2 0x1AE6 SWAP3 PUSH1 0x6 SLOAD PUSH1 0x0 MSTORE PUSH1 0x7 PUSH1 0x20 MSTORE PUSH1 0x40 PUSH1 0x0 KECCAK256 PUSH2 0x1AA0 JUMP JUMPDEST PUSH1 0x0 SWAP1 DUP2 MSTORE PUSH1 0x8 PUSH1 0x20 SWAP1 DUP2 MSTORE PUSH1 0x40 DUP1 DUP4 KECCAK256 SLOAD PUSH1 0x9 DUP4 MSTORE DUP2 DUP5 KECCAK256 SWAP1 DUP5 MSTORE DUP3 MSTORE DUP1 DUP4 KECCAK256 DUP4 DUP1 MSTORE DUP3 MSTORE DUP1 DUP4 KECCAK256 PUSH1 0x1 PUSH1 0x1 PUSH1 0xA0 SHL SUB SWAP1 SWAP5 AND DUP4 MSTORE SWAP3 SWAP1 MSTORE KECCAK256 PUSH2 0x1AE6 JUMP JUMPDEST PUSH1 0x0 SWAP1 DUP2 MSTORE PUSH1 0x8 PUSH1 0x20 SWAP1 DUP2 MSTORE PUSH1 0x40 DUP1 DUP4 KECCAK256 SLOAD PUSH1 0x9 DUP4 MSTORE DUP2 DUP5 KECCAK256 SWAP1 DUP5 MSTORE DUP3 MSTORE DUP1 DUP4 KECCAK256 PUSH1 0x1 DUP5 MSTORE DUP3 MSTORE DUP1 DUP4 KECCAK256 PUSH1 0x1 PUSH1 0x1 PUSH1 0xA0 SHL SUB SWAP1 SWAP5 AND DUP4 MSTORE SWAP3 SWAP1 MSTORE KECCAK256 PUSH2 0x1AE6 JUMP JUMPDEST PUSH2 0x1AE6 SWAP3 SWAP2 PUSH2 0x23C SWAP2 PUSH1 0x0 MSTORE PUSH1 0x8 PUSH1 0x20 MSTORE PUSH1 0x40 PUSH1 0x0 KECCAK256 SLOAD PUSH1 0x9 PUSH1 0x20 MSTORE PUSH1 0x40 PUSH1 0x0 KECCAK256 SWAP1 PUSH1 0x0 MSTORE PUSH1 0x20 MSTORE PUSH1 0x40 PUSH1 0x0 KECCAK256 PUSH2 0x1AA0 JUMP JUMPDEST SWAP1 PUSH1 0x40 MLOAD SWAP2 DUP3 DUP2 SLOAD SWAP2 DUP3 DUP3 MSTORE PUSH1 0x20 SWAP3 DUP4 DUP4 ADD SWAP2 PUSH1 0x0 MSTORE DUP4 PUSH1 0x0 KECCAK256 SWAP4 PUSH1 0x0 SWAP1 JUMPDEST DUP3 DUP3 LT PUSH2 0x1BEF JUMPI POP POP POP PUSH2 0x859 SWAP3 POP SUB DUP4 PUSH2 0x82B JUMP JUMPDEST DUP6 SLOAD PUSH1 0x1 PUSH1 0x1 PUSH1 0xA0 SHL SUB AND DUP5 MSTORE PUSH1 0x1 SWAP6 DUP7 ADD SWAP6 DUP9 SWAP6 POP SWAP4 DUP2 ADD SWAP4 SWAP1 SWAP2 ADD SWAP1 PUSH2 0x1BD9 JUMP JUMPDEST PUSH2 0x1C32 SWAP1 PUSH1 0x6 SLOAD PUSH1 0x0 MSTORE PUSH1 0x20 SWAP1 PUSH1 0x7 DUP3 MSTORE PUSH1 0x1 SWAP3 DUP4 SWAP2 PUSH1 0x40 PUSH1 0x0 KECCAK256 PUSH2 0x1AA0 JUMP JUMPDEST ADD PUSH1 0x40 MLOAD SWAP2 DUP3 SWAP4 DUP5 SWAP4 DUP3 DUP5 SLOAD SWAP2 DUP3 DUP2 MSTORE ADD SWAP4 PUSH1 0x0 MSTORE DUP3 PUSH1 0x0 KECCAK256 SWAP3 PUSH1 0x0 SWAP1 JUMPDEST DUP3 DUP3 LT PUSH2 0x1C68 JUMPI POP POP POP POP POP SWAP1 PUSH2 0x6E5 SWAP2 SUB DUP3 PUSH2 0x82B JUMP JUMPDEST DUP5 SLOAD PUSH1 0x1 PUSH1 0x1 PUSH1 0xA0 SHL SUB AND DUP7 MSTORE DUP8 SWAP7 POP SWAP5 DUP6 ADD SWAP5 SWAP4 DUP4 ADD SWAP4 SWAP1 DUP4 ADD SWAP1 PUSH2 0x1C50 JUMP JUMPDEST PUSH1 0x0 DUP2 DUP2 SWAP3 DUP3 MSTORE PUSH32 0xBF5A13B362503FCC74B8B9B1598ABA2F3A9AF85D05BA7978F7E9F447F22C239 PUSH1 0x20 PUSH1 0x8 DUP2 MSTORE PUSH1 0x40 DUP1 DUP6 KECCAK256 SLOAD PUSH1 0x9 DUP4 MSTORE DUP2 DUP7 KECCAK256 SWAP1 DUP7 MSTORE DUP3 MSTORE DUP1 DUP6 KECCAK256 DUP6 DUP1 MSTORE DUP3 MSTORE DUP1 DUP6 KECCAK256 DUP1 DUP4 MSTORE DUP2 DUP7 KECCAK256 SLOAD ISZERO PUSH2 0x1CE9 JUMPI JUMPDEST POP MLOAD CALLER DUP2 MSTORE LOG4 JUMP JUMPDEST PUSH1 0x1 DUP2 ADD PUSH2 0x1D0B DUP2 SLOAD PUSH1 0x1 PUSH1 0x40 SHL DUP2 LT ISZERO PUSH2 0x1D2F JUMPI JUMPDEST PUSH1 0x1 DUP2 ADD DUP4 SSTORE DUP3 PUSH2 0x1DC3 JUMP JUMPDEST DUP2 SLOAD SWAP1 PUSH1 0x1 DUP1 PUSH1 0xA0 SHL SUB SWAP1 PUSH1 0x3 SHL SHL NOT AND SWAP1 SSTORE SLOAD SWAP1 DUP7 DUP1 MSTORE DUP4 MSTORE DUP2 DUP7 KECCAK256 SSTORE CODESIZE PUSH2 0x1CE1 JUMP JUMPDEST PUSH2 0x1D37 PUSH2 0x7D1 JUMP JUMPDEST PUSH2 0x1CFF JUMP JUMPDEST PUSH1 0x0 SWAP1 DUP1 DUP3 MSTORE PUSH1 0x8 PUSH1 0x20 MSTORE PUSH1 0x40 DUP3 KECCAK256 SLOAD PUSH1 0x9 PUSH1 0x20 MSTORE PUSH1 0x40 DUP4 KECCAK256 SWAP1 DUP4 MSTORE PUSH1 0x20 MSTORE PUSH1 0x40 DUP3 KECCAK256 DUP3 DUP1 MSTORE PUSH1 0x20 MSTORE PUSH2 0x1D72 DUP4 PUSH1 0x40 DUP5 KECCAK256 PUSH2 0x1DE9 JUMP JUMPDEST PUSH1 0x40 MLOAD CALLER DUP2 MSTORE PUSH1 0x1 PUSH1 0x1 PUSH1 0xA0 SHL SUB SWAP1 SWAP4 AND SWAP3 PUSH32 0xBF5A13B362503FCC74B8B9B1598ABA2F3A9AF85D05BA7978F7E9F447F22C239 SWAP1 PUSH1 0x20 SWAP1 LOG4 JUMP JUMPDEST POP PUSH4 0x4E487B71 PUSH1 0xE0 SHL PUSH1 0x0 MSTORE PUSH1 0x32 PUSH1 0x4 MSTORE PUSH1 0x24 PUSH1 0x0 REVERT JUMPDEST DUP1 SLOAD DUP3 LT ISZERO PUSH2 0x1DDC JUMPI JUMPDEST PUSH1 0x0 MSTORE PUSH1 0x20 PUSH1 0x0 KECCAK256 ADD SWAP1 PUSH1 0x0 SWAP1 JUMP JUMPDEST PUSH2 0x1DE4 PUSH2 0x1DAC JUMP JUMPDEST PUSH2 0x1DCD JUMP JUMPDEST PUSH1 0x1 PUSH1 0x1 PUSH1 0xA0 SHL SUB DUP3 AND PUSH1 0x0 SWAP1 DUP2 MSTORE PUSH1 0x20 DUP3 SWAP1 MSTORE PUSH1 0x40 SWAP1 KECCAK256 SWAP1 SWAP2 SWAP1 SLOAD ISZERO PUSH2 0x1E0E JUMPI POP POP JUMP JUMPDEST PUSH2 0x1E75 SWAP1 PUSH1 0x1 DUP4 ADD PUSH2 0x1E5C DUP3 PUSH2 0x1E38 DUP4 SLOAD PUSH1 0x1 PUSH1 0x40 SHL DUP2 LT ISZERO PUSH2 0x1E78 JUMPI JUMPDEST PUSH1 0x1 DUP2 ADD DUP6 SSTORE DUP5 PUSH2 0x1DC3 JUMP JUMPDEST SWAP1 SWAP2 SWAP1 DUP3 SLOAD SWAP1 PUSH1 0x3 SHL SWAP2 PUSH1 0x1 DUP1 PUSH1 0xA0 SHL SUB SWAP3 DUP4 DUP2 SHL SWAP4 DUP5 SWAP3 AND SWAP1 SHL AND SWAP2 NOT AND OR SWAP1 SSTORE JUMP JUMPDEST SLOAD SWAP3 SWAP1 PUSH1 0x1 DUP1 PUSH1 0xA0 SHL SUB AND PUSH1 0x0 MSTORE PUSH1 0x20 MSTORE PUSH1 0x40 PUSH1 0x0 KECCAK256 SWAP1 JUMP JUMPDEST SSTORE JUMP JUMPDEST PUSH2 0x1E80 PUSH2 0x7D1 JUMP JUMPDEST PUSH2 0x1E2C JUMP JUMPDEST POP PUSH4 0x4E487B71 PUSH1 0xE0 SHL PUSH1 0x0 MSTORE PUSH1 0x11 PUSH1 0x4 MSTORE PUSH1 0x24 PUSH1 0x0 REVERT JUMPDEST PUSH1 0x1 DUP2 LT PUSH2 0x1EAC JUMPI JUMPDEST PUSH1 0x0 NOT ADD SWAP1 JUMP JUMPDEST PUSH2 0x1EB4 PUSH2 0x1E85 JUMP JUMPDEST PUSH2 0x1EA5 JUMP JUMPDEST PUSH1 0x2 SWAP1 PUSH1 0x2 NOT DUP2 GT PUSH2 0x1EC9 JUMPI ADD SWAP1 JUMP JUMPDEST PUSH2 0x1ED1 PUSH2 0x1E85 JUMP JUMPDEST ADD SWAP1 JUMP JUMPDEST POP PUSH4 0x4E487B71 PUSH1 0xE0 SHL PUSH1 0x0 MSTORE PUSH1 0x31 PUSH1 0x4 MSTORE PUSH1 0x24 PUSH1 0x0 REVERT JUMPDEST PUSH1 0x1 PUSH1 0x1 PUSH1 0xA0 SHL SUB DUP3 AND PUSH1 0x0 SWAP1 DUP2 MSTORE PUSH1 0x20 DUP3 SWAP1 MSTORE PUSH1 0x40 SWAP1 KECCAK256 SLOAD PUSH2 0x1F0D JUMPI POP POP JUMP JUMPDEST PUSH1 0x1 PUSH1 0x1 PUSH1 0xA0 SHL SUB DUP3 AND PUSH1 0x0 SWAP1 DUP2 MSTORE PUSH1 0x20 DUP3 SWAP1 MSTORE PUSH1 0x40 DUP2 KECCAK256 SWAP1 SWAP3 PUSH2 0x1E75 SWAP3 SWAP1 SWAP2 SLOAD PUSH1 0x1 DUP2 LT PUSH2 0x2004 JUMPI JUMPDEST DUP5 NOT SWAP1 DUP2 DUP2 ADD SWAP2 PUSH1 0x1 DUP5 ADD SWAP2 PUSH2 0x1FA2 PUSH2 0x1F5C DUP4 DUP6 SLOAD PUSH1 0x1 DUP2 LT PUSH2 0x1FF7 JUMPI JUMPDEST ADD DUP6 PUSH2 0x1DC3 JUMP JUMPDEST SWAP1 SLOAD PUSH1 0x1 PUSH1 0x1 PUSH1 0xA0 SHL SUB SWAP7 PUSH1 0x3 SWAP3 SWAP1 SWAP3 SHL SHR DUP7 AND SWAP1 PUSH2 0x1F7F DUP3 PUSH2 0x1E38 DUP4 DUP10 PUSH2 0x1DC3 JUMP JUMPDEST PUSH1 0x1 NOT LT PUSH2 0x1FEA JUMPI JUMPDEST PUSH1 0x1 PUSH1 0x1 PUSH1 0xA0 SHL SUB AND PUSH1 0x0 SWAP1 DUP2 MSTORE PUSH1 0x20 DUP8 SWAP1 MSTORE PUSH1 0x40 SWAP1 KECCAK256 SWAP1 JUMP JUMPDEST SSTORE DUP2 SLOAD DUP1 ISZERO PUSH2 0x1FDD JUMPI JUMPDEST ADD SWAP2 PUSH2 0x1FB8 DUP4 DUP4 PUSH2 0x1DC3 JUMP JUMPDEST SWAP1 SWAP2 DUP3 SLOAD SWAP2 PUSH1 0x3 SHL SHL NOT AND SWAP1 SSTORE SSTORE SWAP1 PUSH1 0x1 DUP1 PUSH1 0xA0 SHL SUB AND PUSH1 0x0 MSTORE PUSH1 0x20 MSTORE PUSH1 0x40 PUSH1 0x0 KECCAK256 SWAP1 JUMP JUMPDEST PUSH2 0x1FE5 PUSH2 0x1ED5 JUMP JUMPDEST PUSH2 0x1FAC JUMP JUMPDEST PUSH2 0x1FF2 PUSH2 0x1E85 JUMP JUMPDEST PUSH2 0x1F88 JUMP JUMPDEST PUSH2 0x1FFF PUSH2 0x1E85 JUMP JUMPDEST PUSH2 0x1F55 JUMP JUMPDEST PUSH2 0x200C PUSH2 0x1E85 JUMP JUMPDEST PUSH2 0x1F37 JUMP JUMPDEST SWAP3 SWAP5 SWAP2 SWAP6 SWAP1 SWAP4 SWAP6 PUSH2 0x2021 CALLER PUSH2 0x1AB8 JUMP JUMPDEST DUP1 ISZERO PUSH2 0x21EA JUMPI JUMPDEST PUSH2 0x2031 SWAP1 PUSH2 0x1745 JUMP JUMPDEST PUSH1 0xA SLOAD SWAP7 PUSH1 0x1 PUSH1 0x1 PUSH1 0xA0 SHL SUB DUP6 AND SWAP5 DUP6 ISZERO PUSH2 0x219C JUMPI PUSH2 0x6E5 SWAP8 PUSH2 0x2147 PUSH2 0x2159 SWAP5 DUP12 PUSH2 0x218B SWAP10 PUSH2 0x20EA PUSH2 0x2150 SWAP7 PUSH2 0x208B PUSH2 0x2086 PUSH2 0x2082 DUP7 PUSH1 0x0 MSTORE PUSH1 0x2 PUSH1 0x20 MSTORE PUSH1 0x1 DUP1 PUSH1 0xA0 SHL SUB PUSH1 0x40 PUSH1 0x0 KECCAK256 SLOAD AND ISZERO ISZERO SWAP1 JUMP JUMPDEST ISZERO SWAP1 JUMP JUMPDEST PUSH2 0x249C JUMP JUMPDEST PUSH2 0x2095 DUP2 DUP6 PUSH2 0x1D3C JUMP JUMPDEST PUSH1 0x0 DUP5 DUP2 MSTORE PUSH1 0x2 PUSH1 0x20 MSTORE PUSH1 0x40 SWAP1 KECCAK256 SLOAD PUSH2 0x20B7 SWAP1 PUSH1 0x1 PUSH1 0x1 PUSH1 0xA0 SHL SUB AND ISZERO PUSH2 0x249C JUMP JUMPDEST PUSH1 0x1 PUSH1 0x1 PUSH1 0xA0 SHL SUB DUP2 AND PUSH1 0x0 SWAP1 DUP2 MSTORE PUSH1 0x3 PUSH1 0x20 MSTORE PUSH1 0x40 SWAP1 KECCAK256 PUSH1 0x1 DUP2 SLOAD ADD SWAP1 SSTORE PUSH2 0x1513 DUP5 PUSH1 0x0 MSTORE PUSH1 0x2 PUSH1 0x20 MSTORE PUSH1 0x40 PUSH1 0x0 KECCAK256 SWAP1 JUMP JUMPDEST PUSH1 0x0 PUSH32 0xDDF252AD1BE2C89B69C2B068FC378DAA952BA7F163C4A11628F55A4DF523B3EF DUP2 PUSH1 0x40 MLOAD LOG4 PUSH2 0x2120 PUSH1 0x1 PUSH1 0xA SLOAD ADD PUSH1 0xA SSTORE JUMP JUMPDEST PUSH2 0x213E PUSH2 0x2137 DUP14 PUSH1 0x0 MSTORE PUSH1 0xB PUSH1 0x20 MSTORE PUSH1 0x40 PUSH1 0x0 KECCAK256 SWAP1 JUMP JUMPDEST SWAP11 DUP12 PUSH2 0x2271 JUMP JUMPDEST PUSH1 0x1 DUP11 ADD PUSH2 0x2271 JUMP JUMPDEST PUSH1 0x2 DUP9 ADD PUSH2 0x2271 JUMP JUMPDEST PUSH1 0x3 DUP7 ADD PUSH2 0x2271 JUMP JUMPDEST PUSH1 0x0 PUSH1 0x4 DUP6 ADD SSTORE PUSH2 0x2168 PUSH2 0x84C JUMP JUMPDEST SWAP2 DUP3 MSTORE PUSH1 0x20 DUP3 ADD MSTORE PUSH2 0x2186 PUSH1 0x5 DUP5 ADD PUSH1 0x0 DUP1 MSTORE PUSH1 0x20 MSTORE PUSH1 0x40 PUSH1 0x0 KECCAK256 SWAP1 JUMP JUMPDEST PUSH2 0x234D JUMP JUMPDEST PUSH1 0x6 PUSH2 0x2195 PUSH2 0x2369 JUMP JUMPDEST SWAP2 ADD PUSH2 0x2408 JUMP JUMPDEST POP POP POP POP POP POP POP POP POP POP PUSH1 0x64 PUSH1 0x40 MLOAD PUSH3 0x461BCD PUSH1 0xE5 SHL DUP2 MSTORE PUSH1 0x20 PUSH1 0x4 DUP3 ADD MSTORE PUSH1 0x20 PUSH1 0x24 DUP3 ADD MSTORE PUSH32 0x4552433732313A206D696E7420746F20746865207A65726F2061646472657373 PUSH1 0x44 DUP3 ADD MSTORE REVERT JUMPDEST POP PUSH2 0x2031 PUSH2 0x21F7 CALLER PUSH2 0x1AB8 JUMP JUMPDEST SWAP1 POP PUSH2 0x2028 JUMP JUMPDEST POP PUSH4 0x4E487B71 PUSH1 0xE0 SHL PUSH1 0x0 MSTORE PUSH1 0x0 PUSH1 0x4 MSTORE PUSH1 0x24 PUSH1 0x0 REVERT JUMPDEST DUP2 DUP2 LT PUSH2 0x2220 JUMPI POP POP JUMP JUMPDEST PUSH1 0x0 DUP2 SSTORE PUSH1 0x1 ADD PUSH2 0x2215 JUMP JUMPDEST SWAP2 SWAP1 PUSH1 0x1F DUP2 GT PUSH2 0x223B JUMPI POP POP POP JUMP JUMPDEST PUSH2 0x859 SWAP3 PUSH1 0x0 MSTORE PUSH1 0x20 PUSH1 0x0 KECCAK256 SWAP1 PUSH1 0x20 PUSH1 0x1F DUP5 ADD PUSH1 0x5 SHR DUP4 ADD SWAP4 LT PUSH2 0x2267 JUMPI JUMPDEST PUSH1 0x1F ADD PUSH1 0x5 SHR ADD SWAP1 PUSH2 0x2215 JUMP JUMPDEST SWAP1 SWAP2 POP DUP2 SWAP1 PUSH2 0x225A JUMP JUMPDEST SWAP2 SWAP1 SWAP2 DUP3 MLOAD PUSH1 0x1 PUSH1 0x1 PUSH1 0x40 SHL SUB DUP2 GT PUSH2 0x2340 JUMPI JUMPDEST PUSH2 0x2299 DUP2 PUSH2 0x2293 DUP5 SLOAD PUSH2 0xDA7 JUMP JUMPDEST DUP5 PUSH2 0x222C JUMP JUMPDEST PUSH1 0x20 DUP1 PUSH1 0x1F DUP4 GT PUSH1 0x1 EQ PUSH2 0x22D5 JUMPI POP DUP2 SWAP3 SWAP4 SWAP5 PUSH1 0x0 SWAP3 PUSH2 0x22CA JUMPI JUMPDEST POP POP DUP2 PUSH1 0x1 SHL SWAP2 PUSH1 0x0 NOT SWAP1 PUSH1 0x3 SHL SHR NOT AND OR SWAP1 SSTORE JUMP JUMPDEST ADD MLOAD SWAP1 POP CODESIZE DUP1 PUSH2 0x22B4 JUMP JUMPDEST SWAP1 PUSH1 0x1F NOT DUP4 AND SWAP6 PUSH2 0x22EB DUP6 PUSH1 0x0 MSTORE PUSH1 0x20 PUSH1 0x0 KECCAK256 SWAP1 JUMP JUMPDEST SWAP3 PUSH1 0x0 SWAP1 JUMPDEST DUP9 DUP3 LT PUSH2 0x2328 JUMPI POP POP DUP4 PUSH1 0x1 SWAP6 SWAP7 SWAP8 LT PUSH2 0x230F JUMPI JUMPDEST POP POP POP DUP2 SHL ADD SWAP1 SSTORE JUMP JUMPDEST ADD MLOAD PUSH1 0x0 NOT PUSH1 0xF8 DUP5 PUSH1 0x3 SHL AND SHR NOT AND SWAP1 SSTORE CODESIZE DUP1 DUP1 PUSH2 0x2305 JUMP JUMPDEST DUP1 PUSH1 0x1 DUP6 SWAP7 DUP3 SWAP5 SWAP7 DUP7 ADD MLOAD DUP2 SSTORE ADD SWAP6 ADD SWAP4 ADD SWAP1 PUSH2 0x22F0 JUMP JUMPDEST PUSH2 0x2348 PUSH2 0x7D1 JUMP JUMPDEST PUSH2 0x2285 JUMP JUMPDEST PUSH1 0x1 PUSH1 0x20 PUSH2 0x859 SWAP4 PUSH2 0x2360 DUP2 MLOAD DUP6 PUSH2 0x2271 JUMP JUMPDEST ADD MLOAD SWAP2 ADD PUSH2 0x2271 JUMP JUMPDEST PUSH1 0x40 MLOAD PUSH2 0x2375 DUP2 PUSH2 0x810 JUMP JUMPDEST PUSH1 0x0 DUP2 MSTORE SWAP1 JUMP JUMPDEST PUSH1 0x1 PUSH1 0x1 PUSH1 0xFE SHL SUB DUP2 GT PUSH1 0x1 AND PUSH2 0x2394 JUMPI JUMPDEST PUSH1 0x2 SHL SWAP1 JUMP JUMPDEST PUSH2 0x239C PUSH2 0x1E85 JUMP JUMPDEST PUSH2 0x238E JUMP JUMPDEST PUSH2 0x23AB DUP2 SLOAD PUSH2 0xDA7 JUMP JUMPDEST SWAP1 DUP2 PUSH2 0x23B5 JUMPI POP POP JUMP JUMPDEST DUP2 PUSH1 0x1F PUSH1 0x0 SWAP4 GT PUSH1 0x1 EQ PUSH2 0x23C7 JUMPI POP SSTORE JUMP JUMPDEST DUP2 DUP4 MSTORE PUSH1 0x20 DUP4 KECCAK256 PUSH2 0x23E3 SWAP2 PUSH1 0x1F ADD PUSH1 0x5 SHR DUP2 ADD SWAP1 PUSH1 0x1 ADD PUSH2 0x2215 JUMP JUMPDEST DUP2 PUSH1 0x20 DUP2 KECCAK256 SWAP2 SSTORE SSTORE JUMP JUMPDEST PUSH2 0x859 SWAP3 SWAP2 PUSH2 0x23FB JUMPI PUSH2 0x2271 JUMP JUMPDEST PUSH2 0x2403 PUSH2 0x21FE JUMP JUMPDEST PUSH2 0x2271 JUMP JUMPDEST DUP2 MLOAD SWAP2 PUSH1 0x1 PUSH1 0x40 SHL DUP4 GT PUSH2 0x248F JUMPI JUMPDEST DUP2 SLOAD DUP4 DUP4 SSTORE DUP1 DUP5 LT PUSH2 0x2460 JUMPI JUMPDEST POP PUSH1 0x20 DUP1 SWAP2 ADD SWAP2 PUSH1 0x0 MSTORE DUP1 PUSH1 0x0 KECCAK256 PUSH1 0x0 SWAP3 JUMPDEST DUP5 DUP5 LT PUSH2 0x2444 JUMPI POP POP POP POP POP JUMP JUMPDEST PUSH1 0x1 DUP4 DUP3 PUSH2 0x2454 DUP4 SWAP5 MLOAD DUP7 PUSH2 0x2271 JUMP JUMPDEST ADD SWAP3 ADD SWAP4 ADD SWAP3 SWAP1 PUSH2 0x2436 JUMP JUMPDEST DUP3 PUSH1 0x0 MSTORE DUP4 PUSH1 0x20 PUSH1 0x0 KECCAK256 SWAP2 DUP3 ADD SWAP2 ADD JUMPDEST DUP2 DUP2 LT PUSH2 0x247D JUMPI POP PUSH2 0x2424 JUMP JUMPDEST DUP1 PUSH2 0x2489 PUSH1 0x1 SWAP3 PUSH2 0x23A1 JUMP JUMPDEST ADD PUSH2 0x2470 JUMP JUMPDEST PUSH2 0x2497 PUSH2 0x7D1 JUMP JUMPDEST PUSH2 0x2417 JUMP JUMPDEST ISZERO PUSH2 0x24A3 JUMPI JUMP JUMPDEST POP PUSH1 0x40 MLOAD PUSH3 0x461BCD PUSH1 0xE5 SHL DUP2 MSTORE PUSH1 0x20 PUSH1 0x4 DUP3 ADD MSTORE PUSH1 0x1C PUSH1 0x24 DUP3 ADD MSTORE PUSH32 0x4552433732313A20746F6B656E20616C7265616479206D696E74656400000000 PUSH1 0x44 DUP3 ADD MSTORE PUSH1 0x64 SWAP1 REVERT JUMPDEST SWAP1 PUSH2 0x1ED1 PUSH1 0x20 SWAP3 DUP3 DUP2 MLOAD SWAP5 DUP6 SWAP3 ADD PUSH2 0x6F6 JUMP JUMPDEST PUSH1 0x0 DUP2 DUP2 MSTORE PUSH1 0x2 PUSH1 0x20 MSTORE PUSH1 0x40 SWAP1 KECCAK256 SLOAD PUSH1 0x1 PUSH1 0x1 PUSH1 0xA0 SHL SUB AND ISZERO ISZERO PUSH2 0x251F SWAP1 PUSH2 0xD37 JUMP JUMPDEST PUSH2 0x2528 DUP2 PUSH2 0xD84 JUMP JUMPDEST SWAP1 PUSH1 0x0 MSTORE PUSH1 0xB PUSH1 0x20 MSTORE PUSH1 0x40 PUSH1 0x0 KECCAK256 PUSH1 0x40 MLOAD SWAP2 PUSH2 0x2543 DUP4 PUSH2 0x7E8 JUMP JUMPDEST PUSH1 0x1D DUP4 MSTORE PUSH32 0x646174613A6170706C69636174696F6E2F6A736F6E3B6261736536342C000000 PUSH1 0x20 DUP5 ADD MSTORE PUSH2 0x257F SWAP1 PUSH1 0x1 PUSH1 0x1 PUSH1 0xA0 SHL SUB AND PUSH2 0x3B88 JUMP JUMPDEST PUSH1 0x3 DUP3 ADD PUSH2 0x258C DUP4 PUSH2 0xF2D JUMP JUMPDEST PUSH2 0x2595 DUP3 PUSH2 0xF2D JUMP JUMPDEST PUSH2 0x259E SWAP2 PUSH2 0x3C37 JUMP JUMPDEST SWAP1 PUSH1 0x5 DUP5 ADD PUSH1 0x4 DUP6 ADD SLOAD SWAP2 DUP2 PUSH2 0x25BF DUP5 DUP1 SWAP5 SWAP1 PUSH1 0x0 MSTORE PUSH1 0x20 MSTORE PUSH1 0x40 PUSH1 0x0 KECCAK256 SWAP1 JUMP JUMPDEST SWAP3 PUSH2 0x25D3 SWAP2 SWAP1 PUSH1 0x0 MSTORE PUSH1 0x20 MSTORE PUSH1 0x40 PUSH1 0x0 KECCAK256 SWAP1 JUMP JUMPDEST PUSH1 0x1 ADD SWAP3 PUSH2 0x25E0 SWAP1 PUSH2 0x39DA JUMP JUMPDEST PUSH1 0x40 MLOAD PUSH1 0x7B PUSH1 0xF8 SHL PUSH1 0x20 DUP3 ADD MSTORE PUSH8 0x113730B6B2911D11 PUSH1 0xC1 SHL PUSH1 0x21 DUP3 ADD MSTORE SWAP7 DUP8 SWAP7 SWAP2 SWAP6 SWAP2 PUSH2 0x2611 PUSH1 0x29 DUP10 ADD DUP4 PUSH2 0x395D JUMP JUMPDEST PUSH2 0x88B PUSH1 0xF2 SHL DUP2 MSTORE PUSH1 0x2 ADD PUSH15 0x113232B9B1B934B83A34B7B7111D11 PUSH1 0x89 SHL DUP2 MSTORE PUSH1 0xF ADD PUSH2 0x2641 SWAP1 PUSH1 0x1 DUP5 ADD PUSH2 0x395D JUMP JUMPDEST PUSH2 0x88B PUSH1 0xF2 SHL DUP2 MSTORE PUSH1 0x2 ADD PUSH9 0x1137BBB732B9111D11 PUSH1 0xB9 SHL DUP2 MSTORE PUSH1 0x9 ADD PUSH2 0x2667 SWAP2 PUSH2 0x24E9 JUMP JUMPDEST PUSH2 0x88B PUSH1 0xF2 SHL DUP2 MSTORE PUSH1 0x2 ADD PUSH16 0x1132BC3A32B93730B62FBAB936111D11 PUSH1 0x81 SHL DUP2 MSTORE PUSH1 0x10 ADD PUSH2 0x2697 SWAP2 PUSH1 0x2 ADD PUSH2 0x395D JUMP JUMPDEST PUSH2 0x88B PUSH1 0xF2 SHL DUP2 MSTORE PUSH1 0x2 ADD PUSH9 0x1134B6B0B3B2911D11 PUSH1 0xB9 SHL DUP2 MSTORE PUSH1 0x9 ADD PUSH2 0x26BD SWAP2 PUSH2 0x24E9 JUMP JUMPDEST PUSH2 0x88B PUSH1 0xF2 SHL DUP2 MSTORE PUSH1 0x2 ADD PUSH15 0x2261747472696275746573223A205B PUSH1 0x88 SHL DUP2 MSTORE PUSH1 0xF ADD PUSH32 0x7B2274726169745F74797065223A2022454E53222C202276616C7565223A2200 DUP2 MSTORE PUSH1 0x1F ADD PUSH2 0x270F SWAP2 PUSH2 0x395D JUMP JUMPDEST PUSH3 0x89F4B PUSH1 0xEA SHL DUP2 MSTORE PUSH1 0x3 ADD PUSH32 0x7B2274726169745F74797065223A2022436F6D6D69742048617368222C202276 DUP2 MSTORE PUSH7 0x30B63AB2911D11 PUSH1 0xC9 SHL PUSH1 0x20 DUP3 ADD MSTORE PUSH1 0x27 ADD PUSH2 0x275A SWAP2 PUSH2 0x395D JUMP JUMPDEST PUSH3 0x89F4B PUSH1 0xEA SHL DUP2 MSTORE PUSH1 0x3 ADD PUSH32 0x7B2274726169745F74797065223A20225265706F7369746F7279222C20227661 DUP2 MSTORE PUSH6 0x363AB2911D11 PUSH1 0xD1 SHL PUSH1 0x20 DUP3 ADD MSTORE PUSH1 0x26 ADD PUSH2 0x27A4 SWAP2 PUSH2 0x395D JUMP JUMPDEST PUSH3 0x89F4B PUSH1 0xEA SHL DUP2 MSTORE PUSH1 0x3 ADD PUSH32 0x7B2274726169745F74797065223A202256657273696F6E222C202276616C7565 DUP2 MSTORE PUSH3 0x111D11 PUSH1 0xE9 SHL PUSH1 0x20 DUP3 ADD MSTORE PUSH1 0x23 ADD PUSH2 0x27EB SWAP2 PUSH2 0x24E9 JUMP JUMPDEST PUSH2 0x227D PUSH1 0xF0 SHL DUP2 MSTORE PUSH1 0x2 ADD PUSH1 0x5D PUSH1 0xF8 SHL DUP2 MSTORE PUSH1 0x1 ADD PUSH1 0x7D PUSH1 0xF8 SHL DUP2 MSTORE PUSH1 0x1 ADD SUB SWAP1 PUSH1 0x1F NOT SWAP2 DUP3 DUP2 ADD DUP3 MSTORE PUSH2 0x281F SWAP1 DUP3 PUSH2 0x82B JUMP JUMPDEST PUSH2 0x2828 SWAP1 PUSH2 0x3882 JUMP JUMPDEST SWAP2 PUSH1 0x40 MLOAD SWAP3 DUP4 SWAP2 PUSH1 0x20 DUP4 ADD PUSH2 0x283C SWAP2 PUSH2 0x24E9 JUMP JUMPDEST PUSH2 0x2845 SWAP2 PUSH2 0x24E9 JUMP JUMPDEST SUB SWAP1 DUP2 ADD DUP3 MSTORE PUSH2 0x6E5 SWAP1 DUP3 PUSH2 0x82B JUMP JUMPDEST PUSH4 0xFFFFFFFF PUSH1 0xE0 SHL AND PUSH4 0x80AC58CD PUSH1 0xE0 SHL DUP2 EQ SWAP1 DUP2 ISZERO PUSH2 0x2888 JUMPI JUMPDEST DUP2 ISZERO PUSH2 0x287A JUMPI POP SWAP1 JUMP JUMPDEST PUSH4 0x1FFC9A7 PUSH1 0xE0 SHL EQ SWAP2 SWAP1 POP JUMP JUMPDEST PUSH4 0x5B5E139F PUSH1 0xE0 SHL DUP2 EQ SWAP2 POP PUSH2 0x2870 JUMP JUMPDEST PUSH1 0x1 PUSH1 0x1 PUSH1 0xA0 SHL SUB SWAP1 DUP2 AND ISZERO DUP1 ISZERO DUP1 PUSH2 0x2909 JUMPI JUMPDEST ISZERO PUSH2 0x28D7 JUMPI POP POP DUP2 PUSH2 0x28D2 PUSH2 0x859 SWAP4 PUSH1 0x0 MSTORE PUSH1 0x8 PUSH1 0x20 MSTORE PUSH1 0x40 PUSH1 0x0 KECCAK256 PUSH1 0x1 DUP2 SLOAD ADD SWAP1 SSTORE JUMP JUMPDEST PUSH2 0x1D3C JUMP JUMPDEST ISZERO PUSH2 0x28E6 JUMPI POP PUSH2 0x859 SWAP2 PUSH2 0x1D3C JUMP JUMPDEST AND ISZERO PUSH2 0x28EF JUMPI POP JUMP JUMPDEST PUSH2 0x859 SWAP1 PUSH1 0x0 MSTORE PUSH1 0x8 PUSH1 0x20 MSTORE PUSH1 0x40 PUSH1 0x0 KECCAK256 PUSH1 0x1 DUP2 SLOAD ADD SWAP1 SSTORE JUMP JUMPDEST POP DUP2 DUP4 AND ISZERO ISZERO PUSH2 0x28AD JUMP JUMPDEST PUSH2 0x291E CALLER DUP3 PUSH2 0x1B48 JUMP JUMPDEST DUP1 ISZERO PUSH2 0x299F JUMPI JUMPDEST PUSH2 0x292E SWAP1 PUSH2 0x1853 JUMP JUMPDEST PUSH1 0x0 DUP2 DUP2 MSTORE PUSH1 0x2 PUSH1 0x20 MSTORE PUSH1 0x40 SWAP1 KECCAK256 SLOAD PUSH2 0x2951 SWAP1 PUSH1 0x1 PUSH1 0x1 PUSH1 0xA0 SHL SUB AND ISZERO ISZERO PUSH2 0xD37 JUMP JUMPDEST DUP1 PUSH1 0x0 MSTORE PUSH1 0xB PUSH1 0x20 MSTORE PUSH2 0x296B DUP3 PUSH1 0x2 PUSH1 0x40 PUSH1 0x0 KECCAK256 ADD PUSH2 0x2271 JUMP JUMPDEST PUSH2 0x2975 CALLER SWAP3 PUSH2 0x29B4 JUMP JUMPDEST SWAP1 PUSH32 0xEDBF1209B3BAA7C1B5C43052CE5C511E243B3241D9F67733141D14F1DA88CBA1 PUSH1 0x0 PUSH1 0x40 MLOAD LOG4 JUMP JUMPDEST POP PUSH2 0x292E PUSH2 0x29AD CALLER DUP4 PUSH2 0x1B09 JUMP JUMPDEST SWAP1 POP PUSH2 0x2925 JUMP JUMPDEST PUSH2 0x29CC SWAP1 PUSH1 0x20 PUSH1 0x40 MLOAD SWAP3 DUP3 DUP5 DUP1 SWAP5 MLOAD SWAP4 DUP5 SWAP3 ADD PUSH2 0x6F6 JUMP JUMPDEST DUP2 ADD SUB SWAP1 KECCAK256 SWAP1 JUMP JUMPDEST PUSH2 0x29DE CALLER DUP3 PUSH2 0x1B48 JUMP JUMPDEST DUP1 ISZERO PUSH2 0x2A5F JUMPI JUMPDEST PUSH2 0x29EE SWAP1 PUSH2 0x1853 JUMP JUMPDEST PUSH1 0x0 DUP2 DUP2 MSTORE PUSH1 0x2 PUSH1 0x20 MSTORE PUSH1 0x40 SWAP1 KECCAK256 SLOAD PUSH2 0x2A11 SWAP1 PUSH1 0x1 PUSH1 0x1 PUSH1 0xA0 SHL SUB AND ISZERO ISZERO PUSH2 0xD37 JUMP JUMPDEST DUP1 PUSH1 0x0 MSTORE PUSH1 0xB PUSH1 0x20 MSTORE PUSH2 0x2A2B DUP3 PUSH1 0x3 PUSH1 0x40 PUSH1 0x0 KECCAK256 ADD PUSH2 0x2271 JUMP JUMPDEST PUSH2 0x2A35 CALLER SWAP3 PUSH2 0x29B4 JUMP JUMPDEST SWAP1 PUSH32 0x91CE7FCD4462481791C3FE849F7049373C5B43EF44AED48E7F1ECCE781586E15 PUSH1 0x0 PUSH1 0x40 MLOAD LOG4 JUMP JUMPDEST POP PUSH2 0x29EE PUSH2 0x2A6D CALLER DUP4 PUSH2 0x1B09 JUMP JUMPDEST SWAP1 POP PUSH2 0x29E5 JUMP JUMPDEST PUSH2 0x2A7E CALLER DUP3 PUSH2 0x1B48 JUMP JUMPDEST DUP1 ISZERO PUSH2 0x2AFC JUMPI JUMPDEST PUSH2 0x2A8E SWAP1 PUSH2 0x1853 JUMP JUMPDEST PUSH1 0x0 DUP2 DUP2 MSTORE PUSH1 0x2 PUSH1 0x20 MSTORE PUSH1 0x40 SWAP1 KECCAK256 SLOAD PUSH2 0x2AB1 SWAP1 PUSH1 0x1 PUSH1 0x1 PUSH1 0xA0 SHL SUB AND ISZERO ISZERO PUSH2 0xD37 JUMP JUMPDEST DUP1 PUSH1 0x0 MSTORE PUSH1 0xB PUSH1 0x20 MSTORE PUSH2 0x2AC8 DUP3 PUSH1 0x40 PUSH1 0x0 KECCAK256 PUSH2 0x2271 JUMP JUMPDEST PUSH2 0x2AD2 CALLER SWAP3 PUSH2 0x29B4 JUMP JUMPDEST SWAP1 PUSH32 0xFBBFCA16A2770C7CA6E7063AB1A7EEA5FE441FFEF818325DB51752066A6B128A PUSH1 0x0 PUSH1 0x40 MLOAD LOG4 JUMP JUMPDEST POP PUSH2 0x2A8E PUSH2 0x2B0A CALLER DUP4 PUSH2 0x1B09 JUMP JUMPDEST SWAP1 POP PUSH2 0x2A85 JUMP JUMPDEST PUSH2 0x2B1B CALLER DUP3 PUSH2 0x1B48 JUMP JUMPDEST DUP1 ISZERO PUSH2 0x2B9C JUMPI JUMPDEST PUSH2 0x2B2B SWAP1 PUSH2 0x1853 JUMP JUMPDEST PUSH1 0x0 DUP2 DUP2 MSTORE PUSH1 0x2 PUSH1 0x20 MSTORE PUSH1 0x40 SWAP1 KECCAK256 SLOAD PUSH2 0x2B4E SWAP1 PUSH1 0x1 PUSH1 0x1 PUSH1 0xA0 SHL SUB AND ISZERO ISZERO PUSH2 0xD37 JUMP JUMPDEST DUP1 PUSH1 0x0 MSTORE PUSH1 0xB PUSH1 0x20 MSTORE PUSH2 0x2B68 DUP3 PUSH1 0x1 PUSH1 0x40 PUSH1 0x0 KECCAK256 ADD PUSH2 0x2271 JUMP JUMPDEST PUSH2 0x2B72 CALLER SWAP3 PUSH2 0x29B4 JUMP JUMPDEST SWAP1 PUSH32 0xD771EAA1C1382B0A9867125FCD921FDEDDD211538B5381353A877ABFBE3B50A4 PUSH1 0x0 PUSH1 0x40 MLOAD LOG4 JUMP JUMPDEST POP PUSH2 0x2B2B PUSH2 0x2BAA CALLER DUP4 PUSH2 0x1B09 JUMP JUMPDEST SWAP1 POP PUSH2 0x2B22 JUMP JUMPDEST PUSH1 0x20 PUSH2 0x2BCA SWAP2 DUP2 PUSH1 0x40 MLOAD SWAP4 DUP3 DUP6 DUP1 SWAP5 MLOAD SWAP4 DUP5 SWAP3 ADD PUSH2 0x6F6 JUMP JUMPDEST DUP2 ADD PUSH1 0xC DUP2 MSTORE SUB ADD SWAP1 KECCAK256 SWAP1 JUMP JUMPDEST PUSH1 0x3 PUSH1 0xA0 SWAP2 DUP4 MLOAD DUP2 SSTORE PUSH1 0x20 DUP5 ADD MLOAD PUSH1 0x1 DUP3 ADD SSTORE PUSH1 0x40 DUP5 ADD MLOAD PUSH1 0x2 DUP3 ADD SSTORE ADD SWAP2 PUSH2 0x2C12 PUSH1 0x60 DUP3 ADD MLOAD ISZERO ISZERO DUP5 SWAP1 PUSH1 0xFF DUP1 NOT DUP4 SLOAD AND SWAP2 ISZERO ISZERO AND OR SWAP1 SSTORE JUMP JUMPDEST PUSH1 0x80 DUP2 ADD MLOAD DUP4 SLOAD PUSH2 0xFF00 NOT AND SWAP1 ISZERO ISZERO PUSH1 0x8 SHL PUSH2 0xFF00 AND OR DUP4 SSTORE ADD MLOAD DUP2 SLOAD PUSH3 0x10000 PUSH1 0x1 PUSH1 0xB0 SHL SUB NOT AND PUSH1 0x10 SWAP2 SWAP1 SWAP2 SHL PUSH3 0x10000 PUSH1 0x1 PUSH1 0xB0 SHL SUB AND OR SWAP1 SSTORE JUMP JUMPDEST SWAP1 PUSH2 0x2C74 PUSH2 0x859 SWAP3 DUP1 SLOAD SWAP1 PUSH1 0x1 PUSH1 0x40 SHL DUP3 LT ISZERO PUSH2 0x2C7D JUMPI JUMPDEST PUSH1 0x1 DUP3 ADD DUP2 SSTORE PUSH2 0x1DC3 JUMP JUMPDEST PUSH2 0x23FB JUMPI PUSH2 0x2271 JUMP JUMPDEST PUSH2 0x2C85 PUSH2 0x7D1 JUMP JUMPDEST PUSH2 0x2C69 JUMP JUMPDEST PUSH1 0x0 DUP2 DUP2 MSTORE PUSH1 0x2 PUSH1 0x20 MSTORE PUSH1 0x40 SWAP1 KECCAK256 SLOAD PUSH2 0x2CAD SWAP1 PUSH1 0x1 PUSH1 0x1 PUSH1 0xA0 SHL SUB AND ISZERO ISZERO PUSH2 0xD37 JUMP JUMPDEST PUSH1 0x1 PUSH1 0x1 PUSH1 0xA0 SHL SUB PUSH1 0x3 PUSH2 0x2CC0 DUP5 PUSH2 0x2BB1 JUMP JUMPDEST ADD SLOAD PUSH1 0x10 SHR AND PUSH2 0x2D74 JUMPI PUSH2 0x2D21 PUSH1 0x6 PUSH2 0x2CE3 DUP4 PUSH1 0x0 MSTORE PUSH1 0xB PUSH1 0x20 MSTORE PUSH1 0x40 PUSH1 0x0 KECCAK256 SWAP1 JUMP JUMPDEST ADD SLOAD PUSH2 0x2CED PUSH2 0x85B JUMP JUMPDEST DUP4 DUP2 MSTORE PUSH1 0x20 DUP2 ADD SWAP2 SWAP1 SWAP2 MSTORE PUSH1 0x0 PUSH1 0x40 DUP3 ADD DUP2 SWAP1 MSTORE PUSH1 0x60 DUP3 ADD DUP2 SWAP1 MSTORE PUSH1 0x80 DUP3 ADD MSTORE CALLER PUSH1 0xA0 DUP3 ADD MSTORE PUSH2 0x2D1C DUP5 PUSH2 0x2BB1 JUMP JUMPDEST PUSH2 0x2BD7 JUMP JUMPDEST PUSH2 0x2D41 DUP3 PUSH1 0x6 PUSH2 0x2D3B DUP5 PUSH1 0x0 MSTORE PUSH1 0xB PUSH1 0x20 MSTORE PUSH1 0x40 PUSH1 0x0 KECCAK256 SWAP1 JUMP JUMPDEST ADD PUSH2 0x2C51 JUMP JUMPDEST PUSH2 0x2D4B CALLER SWAP3 PUSH2 0x29B4 JUMP JUMPDEST PUSH32 0x8140554C907B4BA66A04EA1F43B882CBA992D3DB4CD5C49298A56402D7B36CA2 PUSH1 0x0 PUSH1 0x40 MLOAD LOG4 JUMP JUMPDEST POP POP PUSH1 0x40 MLOAD PUSH3 0x461BCD PUSH1 0xE5 SHL DUP2 MSTORE PUSH1 0x20 PUSH1 0x4 DUP3 ADD MSTORE PUSH1 0x1E PUSH1 0x24 DUP3 ADD MSTORE PUSH32 0x466C65656B4552433732313A20415020616C7265616479206578697374730000 PUSH1 0x44 DUP3 ADD MSTORE PUSH1 0x64 SWAP2 POP REVERT JUMPDEST ISZERO PUSH2 0x2DC3 JUMPI JUMP JUMPDEST POP PUSH1 0x40 MLOAD PUSH3 0x461BCD PUSH1 0xE5 SHL DUP2 MSTORE PUSH1 0x20 PUSH1 0x4 DUP3 ADD MSTORE PUSH1 0x17 PUSH1 0x24 DUP3 ADD MSTORE PUSH32 0x466C65656B4552433732313A20696E76616C6964204150000000000000000000 PUSH1 0x44 DUP3 ADD MSTORE PUSH1 0x64 SWAP1 REVERT JUMPDEST PUSH1 0x1 PUSH1 0x1 PUSH1 0xA0 SHL SUB PUSH2 0x2E2D DUP2 PUSH1 0x3 PUSH2 0x2E20 DUP6 PUSH2 0x2BB1 JUMP JUMPDEST ADD SLOAD PUSH1 0x10 SHR AND ISZERO ISZERO PUSH2 0x2DBC JUMP JUMPDEST PUSH1 0x3 PUSH2 0x2E38 DUP4 PUSH2 0x2BB1 JUMP JUMPDEST ADD SLOAD PUSH1 0x10 SHR AND CALLER EQ ISZERO PUSH2 0x2F12 JUMPI PUSH2 0x2EE6 PUSH2 0x2E51 DUP3 PUSH2 0x2BB1 JUMP JUMPDEST SLOAD SWAP2 PUSH2 0x2EBD PUSH2 0x2E6A DUP5 PUSH1 0x0 MSTORE PUSH1 0xB PUSH1 0x20 MSTORE PUSH1 0x40 PUSH1 0x0 KECCAK256 SWAP1 JUMP JUMPDEST PUSH1 0x6 PUSH1 0x1 PUSH2 0x2E77 DUP6 PUSH2 0x2BB1 JUMP JUMPDEST ADD SLOAD SWAP2 ADD SWAP1 PUSH1 0x1 PUSH2 0x2EB6 PUSH2 0x2E9D PUSH2 0x2E97 PUSH2 0x2E91 DUP7 SLOAD PUSH2 0x1E9C JUMP JUMPDEST DUP7 PUSH2 0x1DC3 JUMP JUMPDEST POP PUSH2 0xF2D JUMP JUMPDEST PUSH2 0x2EB1 DUP2 PUSH2 0x2EAB DUP7 DUP9 PUSH2 0x1DC3 JUMP JUMPDEST SWAP1 PUSH2 0x23ED JUMP JUMPDEST PUSH2 0x2BB1 JUMP JUMPDEST ADD SSTORE PUSH2 0x2F59 JUMP JUMPDEST PUSH2 0x2EE1 PUSH2 0x2EC9 DUP3 PUSH2 0x2BB1 JUMP JUMPDEST PUSH1 0x3 PUSH1 0x0 SWAP2 DUP3 DUP2 SSTORE DUP3 PUSH1 0x1 DUP3 ADD SSTORE DUP3 PUSH1 0x2 DUP3 ADD SSTORE ADD SSTORE JUMP JUMPDEST PUSH2 0x29B4 JUMP JUMPDEST SWAP1 CALLER SWAP2 PUSH32 0xEF2F6BED86B96D79B41799F5285F73B31274BB303EBE5D55A3CB48C567AB2DB0 PUSH1 0x0 PUSH1 0x40 MLOAD LOG4 JUMP JUMPDEST POP POP PUSH1 0x40 MLOAD PUSH3 0x461BCD PUSH1 0xE5 SHL DUP2 MSTORE PUSH1 0x20 PUSH1 0x4 DUP3 ADD MSTORE PUSH1 0x1D PUSH1 0x24 DUP3 ADD MSTORE PUSH32 0x466C65656B4552433732313A206D757374206265204150206F776E6572000000 PUSH1 0x44 DUP3 ADD MSTORE PUSH1 0x64 SWAP1 REVERT JUMPDEST DUP1 SLOAD DUP1 ISZERO PUSH2 0x2FD2 JUMPI JUMPDEST PUSH1 0x0 NOT ADD SWAP1 PUSH2 0x2F71 DUP3 DUP3 PUSH2 0x1DC3 JUMP JUMPDEST PUSH2 0x2FC5 JUMPI JUMPDEST PUSH2 0x2F80 DUP2 SLOAD PUSH2 0xDA7 JUMP JUMPDEST SWAP1 DUP2 PUSH2 0x2F8B JUMPI POP POP SSTORE JUMP JUMPDEST DUP2 PUSH1 0x1F PUSH1 0x0 SWAP4 GT PUSH1 0x1 EQ PUSH2 0x2F9E JUMPI POP SSTORE SSTORE JUMP JUMPDEST DUP2 DUP4 MSTORE PUSH1 0x20 DUP4 KECCAK256 PUSH2 0x2FBA SWAP2 PUSH1 0x1F ADD PUSH1 0x5 SHR DUP2 ADD SWAP1 PUSH1 0x1 ADD PUSH2 0x2215 JUMP JUMPDEST DUP2 PUSH1 0x20 DUP2 KECCAK256 SWAP2 SSTORE SSTORE SSTORE JUMP JUMPDEST PUSH2 0x2FCD PUSH2 0x21FE JUMP JUMPDEST PUSH2 0x2F76 JUMP JUMPDEST PUSH2 0x2FDA PUSH2 0x1ED5 JUMP JUMPDEST PUSH2 0x2F62 JUMP JUMPDEST PUSH1 0x1 PUSH1 0x1 PUSH1 0xA0 SHL SUB SWAP1 DUP2 PUSH2 0x2FF2 DUP3 PUSH2 0x2BB1 JUMP JUMPDEST PUSH1 0x3 ADD SLOAD PUSH1 0x10 SHR AND ISZERO ISZERO PUSH2 0x3005 SWAP1 PUSH2 0x2DBC JUMP JUMPDEST PUSH2 0x300E SWAP1 PUSH2 0x2BB1 JUMP JUMPDEST SWAP1 DUP2 SLOAD PUSH2 0x301A SWAP1 PUSH2 0x39DA JUMP JUMPDEST SWAP1 PUSH1 0x2 DUP4 ADD SLOAD PUSH2 0x3029 SWAP1 PUSH2 0x39DA JUMP JUMPDEST SWAP3 PUSH1 0x3 ADD SLOAD DUP1 PUSH1 0x8 SHR PUSH1 0xFF AND PUSH2 0x303E SWAP1 PUSH2 0x45D4 JUMP JUMPDEST SWAP2 PUSH2 0x304B PUSH1 0xFF DUP4 AND PUSH2 0x45D4 JUMP JUMPDEST SWAP2 PUSH1 0x10 SHR AND PUSH2 0x3059 SWAP1 PUSH2 0x3B88 JUMP JUMPDEST PUSH1 0x40 MLOAD PUSH1 0x7B PUSH1 0xF8 SHL PUSH1 0x20 DUP3 ADD MSTORE SWAP5 DUP6 SWAP5 SWAP2 SWAP4 SWAP2 PUSH1 0x21 DUP7 ADD PUSH10 0x113A37B5B2B724B2111D PUSH1 0xB1 SHL DUP2 MSTORE PUSH1 0xA ADD PUSH2 0x308C SWAP2 PUSH2 0x24E9 JUMP JUMPDEST PUSH1 0xB PUSH1 0xFA SHL DUP2 MSTORE PUSH1 0x1 ADD PUSH8 0x1139B1B7B932911D PUSH1 0xC1 SHL DUP2 MSTORE PUSH1 0x8 ADD PUSH2 0x30B0 SWAP2 PUSH2 0x24E9 JUMP JUMPDEST PUSH1 0xB PUSH1 0xFA SHL DUP2 MSTORE PUSH1 0x1 ADD PUSH15 0x113730B6B2AB32B934B334B2B2111D PUSH1 0x89 SHL DUP2 MSTORE PUSH1 0xF ADD PUSH2 0x30DB SWAP2 PUSH2 0x24E9 JUMP JUMPDEST PUSH1 0xB PUSH1 0xFA SHL DUP2 MSTORE PUSH1 0x1 ADD PUSH18 0x1131B7B73A32B73A2B32B934B334B2B2111D PUSH1 0x71 SHL DUP2 MSTORE PUSH1 0x12 ADD PUSH2 0x3109 SWAP2 PUSH2 0x24E9 JUMP JUMPDEST PUSH1 0xB PUSH1 0xFA SHL DUP2 MSTORE PUSH1 0x1 ADD PUSH9 0x1137BBB732B9111D11 PUSH1 0xB9 SHL DUP2 MSTORE PUSH1 0x9 ADD PUSH2 0x312E SWAP2 PUSH2 0x24E9 JUMP JUMPDEST PUSH1 0x11 PUSH1 0xF9 SHL DUP2 MSTORE PUSH1 0x1 ADD PUSH1 0x7D PUSH1 0xF8 SHL DUP2 MSTORE PUSH1 0x1 ADD SUB PUSH1 0x1F NOT DUP2 ADD DUP3 MSTORE PUSH2 0x6E5 SWAP1 DUP3 PUSH2 0x82B JUMP JUMPDEST PUSH1 0xFF SWAP1 PUSH1 0x3 SWAP1 PUSH2 0x3173 SWAP1 PUSH2 0x2EB1 PUSH1 0x1 PUSH1 0x1 PUSH1 0xA0 SHL SUB DUP5 PUSH2 0x2E20 DUP5 PUSH2 0x2BB1 JUMP JUMPDEST ADD SLOAD PUSH1 0x8 SHR AND SWAP1 JUMP JUMPDEST PUSH2 0x3192 PUSH1 0x1 PUSH1 0x1 PUSH1 0xA0 SHL SUB PUSH1 0x3 PUSH2 0x2E20 DUP5 PUSH2 0x2BB1 JUMP JUMPDEST PUSH1 0x2 PUSH2 0x319D DUP3 PUSH2 0x2BB1 JUMP JUMPDEST ADD PUSH2 0x31A8 DUP2 SLOAD PUSH2 0x31F8 JUMP JUMPDEST SWAP1 SSTORE PUSH2 0x31B3 DUP2 PUSH2 0x2BB1 JUMP JUMPDEST SLOAD PUSH2 0x31CA PUSH1 0x2 PUSH2 0x31C2 DUP5 PUSH2 0x2BB1 JUMP JUMPDEST ADD SLOAD SWAP3 PUSH2 0x29B4 JUMP JUMPDEST PUSH1 0x40 MLOAD SWAP3 DUP4 MSTORE PUSH32 0x3EA1C0FCF71B86FCA8F96CCAC3CF26FBA8983D3BBBE7BD720F1865D67FBAEE43 PUSH1 0x20 CALLER SWAP5 LOG4 JUMP JUMPDEST PUSH1 0x1 SWAP1 PUSH1 0x0 NOT DUP2 EQ PUSH2 0x1EC9 JUMPI ADD SWAP1 JUMP JUMPDEST PUSH2 0x321E PUSH1 0x1 PUSH1 0x1 PUSH1 0xA0 SHL SUB PUSH1 0x3 PUSH2 0x2E20 DUP5 PUSH2 0x2BB1 JUMP JUMPDEST PUSH1 0x2 PUSH2 0x3229 DUP3 PUSH2 0x2BB1 JUMP JUMPDEST ADD SLOAD ISZERO PUSH2 0x3290 JUMPI PUSH1 0x2 PUSH2 0x323B DUP3 PUSH2 0x2BB1 JUMP JUMPDEST ADD PUSH2 0x3246 DUP2 SLOAD PUSH2 0x32D6 JUMP JUMPDEST SWAP1 SSTORE PUSH2 0x3251 DUP2 PUSH2 0x2BB1 JUMP JUMPDEST SLOAD PUSH2 0x3260 PUSH1 0x2 PUSH2 0x31C2 DUP5 PUSH2 0x2BB1 JUMP JUMPDEST PUSH1 0x40 MLOAD SWAP3 DUP4 MSTORE CALLER SWAP3 PUSH32 0x3EA1C0FCF71B86FCA8F96CCAC3CF26FBA8983D3BBBE7BD720F1865D67FBAEE43 SWAP1 PUSH1 0x20 SWAP1 LOG4 JUMP JUMPDEST POP POP PUSH1 0x64 PUSH1 0x40 MLOAD PUSH3 0x461BCD PUSH1 0xE5 SHL DUP2 MSTORE PUSH1 0x20 PUSH1 0x4 DUP3 ADD MSTORE PUSH1 0x20 PUSH1 0x24 DUP3 ADD MSTORE PUSH32 0x466C65656B4552433732313A2073636F72652063616E74206265206C6F776572 PUSH1 0x44 DUP3 ADD MSTORE REVERT JUMPDEST DUP1 ISZERO PUSH2 0x1EAC JUMPI PUSH1 0x0 NOT ADD SWAP1 JUMP JUMPDEST PUSH2 0x32F9 PUSH1 0x1 PUSH1 0x1 PUSH1 0xA0 SHL SUB PUSH1 0x3 PUSH2 0x2E20 DUP5 PUSH2 0x2BB1 JUMP JUMPDEST PUSH2 0x331E PUSH2 0x3305 DUP3 PUSH2 0x2BB1 JUMP JUMPDEST SLOAD PUSH2 0x3310 CALLER DUP3 PUSH2 0x1B48 JUMP JUMPDEST SWAP1 DUP2 ISZERO PUSH2 0x3383 JUMPI JUMPDEST POP PUSH2 0x1853 JUMP JUMPDEST PUSH2 0x333F DUP3 PUSH1 0x3 PUSH2 0x332D DUP5 PUSH2 0x2BB1 JUMP JUMPDEST ADD SWAP1 PUSH1 0xFF DUP1 NOT DUP4 SLOAD AND SWAP2 ISZERO ISZERO AND OR SWAP1 SSTORE JUMP JUMPDEST PUSH2 0x3352 PUSH2 0x334B DUP3 PUSH2 0x2BB1 JUMP JUMPDEST SLOAD SWAP2 PUSH2 0x29B4 JUMP JUMPDEST PUSH1 0x40 MLOAD SWAP2 DUP3 MSTORE PUSH32 0xE2E598F7FF2DFD4BC3BD989635401B4C56846B7893CB7EACE51D099F21E69BFF PUSH1 0x20 CALLER SWAP5 ISZERO ISZERO SWAP4 LOG4 JUMP JUMPDEST PUSH2 0x338F SWAP2 POP CALLER SWAP1 PUSH2 0x1B09 JUMP JUMPDEST CODESIZE PUSH2 0x3318 JUMP JUMPDEST PUSH2 0x33AB PUSH1 0x1 PUSH1 0x1 PUSH1 0xA0 SHL SUB PUSH1 0x3 PUSH2 0x2E20 DUP5 PUSH2 0x2BB1 JUMP JUMPDEST PUSH2 0x33B7 PUSH2 0x3305 DUP3 PUSH2 0x2BB1 JUMP JUMPDEST PUSH2 0x33DF DUP3 PUSH1 0x3 PUSH2 0x33C6 DUP5 PUSH2 0x2BB1 JUMP JUMPDEST ADD SWAP1 PUSH2 0xFF00 DUP3 SLOAD SWAP2 ISZERO ISZERO PUSH1 0x8 SHL AND SWAP1 PUSH2 0xFF00 NOT AND OR SWAP1 SSTORE JUMP JUMPDEST PUSH2 0x33EB PUSH2 0x334B DUP3 PUSH2 0x2BB1 JUMP JUMPDEST PUSH1 0x40 MLOAD SWAP2 DUP3 MSTORE PUSH32 0x17BD9B465AA0CDC6B308874903E9C38B13F561ECB1F2EDAA8BF3969FE603D11C PUSH1 0x20 CALLER SWAP5 ISZERO ISZERO SWAP4 LOG4 JUMP JUMPDEST PUSH1 0x0 DUP2 DUP2 MSTORE PUSH1 0x2 PUSH1 0x20 MSTORE PUSH1 0x40 SWAP1 KECCAK256 SLOAD PUSH2 0x343F SWAP1 PUSH1 0x1 PUSH1 0x1 PUSH1 0xA0 SHL SUB AND ISZERO ISZERO PUSH2 0xD37 JUMP JUMPDEST PUSH1 0x0 MSTORE PUSH1 0x20 PUSH1 0xB DUP2 MSTORE PUSH1 0x6 PUSH1 0x40 PUSH1 0x0 KECCAK256 ADD DUP1 SLOAD SWAP1 PUSH1 0x1 PUSH1 0x1 PUSH1 0x40 SHL SUB DUP3 GT PUSH2 0x34AF JUMPI JUMPDEST PUSH1 0x40 MLOAD SWAP3 PUSH2 0x3475 DUP2 DUP5 PUSH1 0x5 SHL ADD DUP6 PUSH2 0x82B JUMP JUMPDEST DUP3 DUP5 MSTORE PUSH1 0x0 SWAP2 DUP3 MSTORE DUP1 DUP3 KECCAK256 DUP2 DUP6 ADD JUMPDEST DUP5 DUP5 LT PUSH2 0x3493 JUMPI POP POP POP POP POP SWAP1 JUMP JUMPDEST PUSH1 0x1 DUP4 DUP2 SWAP3 PUSH2 0x34A1 DUP6 PUSH2 0xF2D JUMP JUMPDEST DUP2 MSTORE ADD SWAP3 ADD SWAP4 ADD SWAP3 SWAP1 PUSH2 0x3484 JUMP JUMPDEST PUSH2 0x34B7 PUSH2 0x7D1 JUMP JUMPDEST PUSH2 0x3462 JUMP JUMPDEST SWAP2 SWAP1 SWAP2 PUSH2 0x34C9 CALLER DUP3 PUSH2 0x1B48 JUMP JUMPDEST DUP1 ISZERO PUSH2 0x3593 JUMPI JUMPDEST PUSH2 0x34D9 SWAP1 PUSH2 0x1853 JUMP JUMPDEST PUSH1 0x0 DUP2 DUP2 MSTORE PUSH1 0x2 PUSH1 0x20 MSTORE PUSH1 0x40 SWAP1 KECCAK256 SLOAD PUSH2 0x34FC SWAP1 PUSH1 0x1 PUSH1 0x1 PUSH1 0xA0 SHL SUB AND ISZERO ISZERO PUSH2 0xD37 JUMP JUMPDEST PUSH32 0x73B929BF4DB6BE678CDBC6D41A5FE0A2CBB84CA95572062C4A978D8BD80A41B1 PUSH1 0x40 SWAP3 DUP4 MLOAD SWAP1 DUP5 DUP3 ADD DUP3 DUP2 LT PUSH1 0x1 PUSH1 0x1 PUSH1 0x40 SHL SUB DUP3 GT OR PUSH2 0x3586 JUMPI JUMPDEST DUP6 MSTORE DUP6 DUP3 MSTORE PUSH1 0x20 DUP3 ADD MSTORE PUSH2 0x3577 PUSH1 0x0 SWAP2 DUP5 DUP4 MSTORE PUSH1 0xB PUSH1 0x20 MSTORE PUSH1 0x5 DUP7 DUP5 KECCAK256 ADD PUSH1 0x4 DUP8 DUP6 KECCAK256 ADD PUSH2 0x3567 DUP2 SLOAD PUSH2 0x31F8 JUMP JUMPDEST DUP1 SWAP2 SSTORE DUP5 MSTORE PUSH1 0x20 MSTORE DUP6 DUP4 KECCAK256 PUSH2 0x234D JUMP JUMPDEST PUSH2 0x3581 CALLER SWAP6 PUSH2 0x29B4 JUMP JUMPDEST SWAP4 MLOAD LOG4 JUMP JUMPDEST PUSH2 0x358E PUSH2 0x7D1 JUMP JUMPDEST PUSH2 0x3539 JUMP JUMPDEST POP PUSH2 0x34D9 PUSH2 0x35A1 CALLER DUP4 PUSH2 0x1B09 JUMP JUMPDEST SWAP1 POP PUSH2 0x34D0 JUMP JUMPDEST PUSH2 0x35B2 CALLER DUP3 PUSH2 0x1B09 JUMP JUMPDEST DUP1 ISZERO PUSH2 0x3706 JUMPI JUMPDEST PUSH2 0x35C2 SWAP1 PUSH2 0x1853 JUMP JUMPDEST DUP1 PUSH1 0x1 PUSH1 0x1 PUSH1 0xA0 SHL SUB DUP1 PUSH2 0x35D5 DUP4 PUSH2 0xD84 JUMP JUMPDEST AND ISZERO DUP1 ISZERO DUP1 PUSH2 0x36FE JUMPI JUMPDEST ISZERO PUSH2 0x36D1 JUMPI POP PUSH2 0x35FF DUP3 PUSH1 0x0 MSTORE PUSH1 0x8 PUSH1 0x20 MSTORE PUSH1 0x40 PUSH1 0x0 KECCAK256 PUSH1 0x1 DUP2 SLOAD ADD SWAP1 SSTORE JUMP JUMPDEST PUSH2 0x3608 DUP3 PUSH2 0x1C89 JUMP JUMPDEST PUSH2 0x3611 DUP3 PUSH2 0xD84 JUMP JUMPDEST PUSH1 0x0 DUP4 DUP2 MSTORE PUSH1 0x4 PUSH1 0x20 MSTORE PUSH1 0x40 DUP2 KECCAK256 DUP1 SLOAD PUSH1 0x1 PUSH1 0x1 PUSH1 0xA0 SHL SUB NOT AND SWAP1 SSTORE SWAP2 AND DUP1 DUP3 MSTORE PUSH1 0x3 PUSH1 0x20 MSTORE PUSH1 0x40 DUP3 KECCAK256 PUSH1 0x0 NOT DUP2 SLOAD ADD SWAP1 SSTORE DUP3 DUP3 MSTORE PUSH1 0x2 PUSH1 0x20 MSTORE PUSH2 0x3669 PUSH1 0x40 DUP4 KECCAK256 PUSH12 0xFFFFFFFFFFFFFFFFFFFFFFFF PUSH1 0xA0 SHL DUP2 SLOAD AND SWAP1 SSTORE JUMP JUMPDEST PUSH32 0xDDF252AD1BE2C89B69C2B068FC378DAA952BA7F163C4A11628F55A4DF523B3EF DUP3 PUSH1 0x40 MLOAD LOG4 PUSH2 0x36AE PUSH1 0x2 PUSH2 0x36A8 DUP4 PUSH1 0x0 MSTORE PUSH1 0xB PUSH1 0x20 MSTORE PUSH1 0x40 PUSH1 0x0 KECCAK256 SWAP1 JUMP JUMPDEST ADD PUSH2 0x371B JUMP JUMPDEST PUSH2 0x36B5 JUMPI POP JUMP JUMPDEST PUSH2 0x36CC PUSH2 0x859 SWAP2 PUSH1 0x0 MSTORE PUSH1 0xB PUSH1 0x20 MSTORE PUSH1 0x40 PUSH1 0x0 KECCAK256 SWAP1 JUMP JUMPDEST PUSH2 0x3725 JUMP JUMPDEST ISZERO PUSH2 0x36E4 JUMPI PUSH2 0x36DF DUP3 PUSH2 0x1C89 JUMP JUMPDEST PUSH2 0x3608 JUMP JUMPDEST PUSH2 0x36DF DUP3 PUSH1 0x0 MSTORE PUSH1 0x8 PUSH1 0x20 MSTORE PUSH1 0x40 PUSH1 0x0 KECCAK256 PUSH1 0x1 DUP2 SLOAD ADD SWAP1 SSTORE JUMP JUMPDEST POP PUSH1 0x0 PUSH2 0x35DF JUMP JUMPDEST POP PUSH2 0x35C2 PUSH2 0x3714 CALLER DUP4 PUSH2 0x1B09 JUMP JUMPDEST SWAP1 POP PUSH2 0x35B9 JUMP JUMPDEST PUSH2 0x6E5 SWAP1 SLOAD PUSH2 0xDA7 JUMP JUMPDEST PUSH2 0x372E DUP2 PUSH2 0x23A1 JUMP JUMPDEST PUSH1 0x6 PUSH1 0x1 SWAP2 PUSH2 0x373E DUP4 DUP3 ADD PUSH2 0x23A1 JUMP JUMPDEST PUSH2 0x374A PUSH1 0x2 DUP3 ADD PUSH2 0x23A1 JUMP JUMPDEST PUSH2 0x3756 PUSH1 0x3 DUP3 ADD PUSH2 0x23A1 JUMP JUMPDEST PUSH1 0x0 PUSH1 0x4 DUP3 ADD SSTORE ADD DUP1 SLOAD SWAP1 PUSH1 0x0 DUP2 SSTORE DUP2 PUSH2 0x376F JUMPI POP POP POP JUMP JUMPDEST PUSH1 0x0 MSTORE PUSH1 0x20 PUSH1 0x0 KECCAK256 SWAP1 DUP2 ADD SWAP1 JUMPDEST DUP2 DUP2 LT PUSH2 0x3788 JUMPI POP POP POP JUMP JUMPDEST DUP1 PUSH2 0x3793 DUP5 SWAP3 PUSH2 0x23A1 JUMP JUMPDEST ADD PUSH2 0x377C JUMP JUMPDEST PUSH1 0x40 MLOAD SWAP1 PUSH1 0x60 DUP3 ADD DUP3 DUP2 LT PUSH1 0x1 PUSH1 0x1 PUSH1 0x40 SHL SUB DUP3 GT OR PUSH2 0x3809 JUMPI JUMPDEST PUSH1 0x40 MSTORE PUSH1 0x40 DUP3 MSTORE PUSH32 0x6768696A6B6C6D6E6F707172737475767778797A303132333435363738392B2F PUSH1 0x40 DUP4 PUSH32 0x4142434445464748494A4B4C4D4E4F505152535455565758595A616263646566 PUSH1 0x20 DUP3 ADD MSTORE ADD MSTORE JUMP JUMPDEST PUSH2 0x3811 PUSH2 0x7D1 JUMP JUMPDEST PUSH2 0x37B4 JUMP JUMPDEST PUSH1 0x40 MLOAD SWAP1 PUSH1 0x60 DUP3 ADD DUP3 DUP2 LT PUSH1 0x1 PUSH1 0x1 PUSH1 0x40 SHL SUB DUP3 GT OR PUSH2 0x3843 JUMPI JUMPDEST PUSH1 0x40 MSTORE PUSH1 0x2A DUP3 MSTORE PUSH1 0x40 DUP3 PUSH1 0x20 CALLDATASIZE SWAP2 ADD CALLDATACOPY JUMP JUMPDEST PUSH2 0x384B PUSH2 0x7D1 JUMP JUMPDEST PUSH2 0x3831 JUMP JUMPDEST SWAP1 PUSH2 0x385A DUP3 PUSH2 0x87A JUMP JUMPDEST PUSH2 0x3867 PUSH1 0x40 MLOAD SWAP2 DUP3 PUSH2 0x82B JUMP JUMPDEST DUP3 DUP2 MSTORE DUP1 SWAP3 PUSH2 0x3878 PUSH1 0x1F NOT SWAP2 PUSH2 0x87A JUMP JUMPDEST ADD SWAP1 PUSH1 0x20 CALLDATASIZE SWAP2 ADD CALLDATACOPY JUMP JUMPDEST DUP1 MLOAD ISZERO PUSH2 0x3954 JUMPI PUSH2 0x3891 PUSH2 0x3799 JUMP JUMPDEST PUSH2 0x38B5 PUSH2 0x38B0 PUSH2 0x38AB PUSH2 0x38A4 DUP6 MLOAD PUSH2 0x1EB9 JUMP JUMPDEST PUSH1 0x3 SWAP1 DIV SWAP1 JUMP JUMPDEST PUSH2 0x237C JUMP JUMPDEST PUSH2 0x3850 JUMP JUMPDEST SWAP2 PUSH1 0x20 DUP4 ADD SWAP2 DUP2 DUP3 MLOAD DUP4 ADD SWAP2 JUMPDEST DUP3 DUP3 LT PUSH2 0x3902 JUMPI POP POP POP PUSH1 0x3 SWAP1 MLOAD MOD DUP1 PUSH1 0x1 EQ PUSH2 0x38EF JUMPI PUSH1 0x2 EQ PUSH2 0x38E4 JUMPI POP SWAP1 JUMP JUMPDEST PUSH1 0x3D SWAP1 PUSH1 0x0 NOT ADD MSTORE8 SWAP1 JUMP JUMPDEST POP PUSH1 0x3D SWAP1 DUP2 PUSH1 0x0 NOT DUP3 ADD MSTORE8 PUSH1 0x1 NOT ADD MSTORE8 SWAP1 JUMP JUMPDEST SWAP1 SWAP2 SWAP4 PUSH1 0x4 SWAP1 PUSH1 0x3 DUP1 SWAP5 ADD SWAP4 DUP5 MLOAD PUSH1 0x1 SWAP1 PUSH1 0x3F SWAP1 DUP3 DUP3 DUP3 PUSH1 0x12 SHR AND DUP9 ADD ADD MLOAD DUP6 MSTORE8 DUP3 DUP3 DUP3 PUSH1 0xC SHR AND DUP9 ADD ADD MLOAD DUP4 DUP7 ADD MSTORE8 DUP3 DUP3 DUP3 PUSH1 0x6 SHR AND DUP9 ADD ADD MLOAD PUSH1 0x2 DUP7 ADD MSTORE8 AND DUP6 ADD ADD MLOAD SWAP1 DUP3 ADD MSTORE8 ADD SWAP4 SWAP2 SWAP1 PUSH2 0x38C2 JUMP JUMPDEST POP PUSH2 0x6E5 PUSH2 0x127A JUMP JUMPDEST PUSH1 0x0 SWAP3 SWAP2 DUP2 SLOAD PUSH2 0x396C DUP2 PUSH2 0xDA7 JUMP JUMPDEST SWAP3 PUSH1 0x1 SWAP2 DUP1 DUP4 AND SWAP1 DUP2 ISZERO PUSH2 0x39C5 JUMPI POP PUSH1 0x1 EQ PUSH2 0x3989 JUMPI JUMPDEST POP POP POP POP JUMP JUMPDEST SWAP1 SWAP2 SWAP3 SWAP4 SWAP5 POP PUSH1 0x0 MSTORE PUSH1 0x20 SWAP1 DUP2 PUSH1 0x0 KECCAK256 SWAP1 PUSH1 0x0 SWAP2 JUMPDEST DUP6 DUP4 LT PUSH2 0x39B4 JUMPI POP POP POP POP ADD SWAP1 CODESIZE DUP1 DUP1 DUP1 PUSH2 0x3983 JUMP JUMPDEST DUP1 SLOAD DUP6 DUP5 ADD MSTORE SWAP2 DUP4 ADD SWAP2 DUP2 ADD PUSH2 0x399E JUMP JUMPDEST PUSH1 0xFF NOT AND DUP5 MSTORE POP POP POP ADD SWAP2 POP CODESIZE DUP1 DUP1 DUP1 PUSH2 0x3983 JUMP JUMPDEST DUP1 PUSH1 0x0 SWAP2 PUSH27 0x184F03E93FF9F4DAA797ED6E38ED64BF6A1F010000000000000000 DUP1 DUP3 LT ISZERO PUSH2 0x3B0F JUMPI JUMPDEST POP PUSH14 0x4EE2D6D415B85ACEF8100000000 DUP1 DUP4 LT ISZERO PUSH2 0x3B00 JUMPI JUMPDEST POP PUSH7 0x2386F26FC10000 DUP1 DUP4 LT ISZERO PUSH2 0x3AF1 JUMPI JUMPDEST POP PUSH4 0x5F5E100 DUP1 DUP4 LT ISZERO PUSH2 0x3AE2 JUMPI JUMPDEST POP PUSH2 0x2710 DUP1 DUP4 LT ISZERO PUSH2 0x3AD3 JUMPI JUMPDEST POP PUSH1 0x64 DUP3 LT ISZERO PUSH2 0x3AC3 JUMPI JUMPDEST PUSH1 0xA DUP1 SWAP3 LT ISZERO PUSH2 0x3AB9 JUMPI JUMPDEST PUSH1 0x1 SWAP1 DUP2 PUSH1 0x21 PUSH2 0x3A71 DUP3 DUP8 ADD PUSH2 0x3850 JUMP JUMPDEST SWAP6 DUP7 ADD ADD SWAP1 JUMPDEST PUSH2 0x3A83 JUMPI JUMPDEST POP POP POP POP SWAP1 JUMP JUMPDEST PUSH1 0x0 NOT ADD SWAP1 DUP4 SWAP1 PUSH16 0x181899199A1A9B1B9C1CB0B131B232B3 PUSH1 0x81 SHL DUP3 DUP3 MOD BYTE DUP4 MSTORE8 DIV SWAP2 DUP3 ISZERO PUSH2 0x3AB4 JUMPI SWAP2 SWAP1 DUP3 PUSH2 0x3A77 JUMP JUMPDEST PUSH2 0x3A7C JUMP JUMPDEST SWAP2 PUSH1 0x1 ADD SWAP2 PUSH2 0x3A60 JUMP JUMPDEST SWAP2 SWAP1 PUSH1 0x64 PUSH1 0x2 SWAP2 DIV SWAP2 ADD SWAP2 PUSH2 0x3A55 JUMP JUMPDEST PUSH1 0x4 SWAP2 SWAP4 SWAP3 DIV SWAP2 ADD SWAP2 CODESIZE PUSH2 0x3A4A JUMP JUMPDEST PUSH1 0x8 SWAP2 SWAP4 SWAP3 DIV SWAP2 ADD SWAP2 CODESIZE PUSH2 0x3A3D JUMP JUMPDEST PUSH1 0x10 SWAP2 SWAP4 SWAP3 DIV SWAP2 ADD SWAP2 CODESIZE PUSH2 0x3A2E JUMP JUMPDEST PUSH1 0x20 SWAP2 SWAP4 SWAP3 DIV SWAP2 ADD SWAP2 CODESIZE PUSH2 0x3A1C JUMP JUMPDEST PUSH1 0x40 SWAP4 POP DUP2 DIV SWAP2 POP CODESIZE PUSH2 0x3A03 JUMP JUMPDEST SWAP1 PUSH1 0x20 SWAP2 DUP1 MLOAD DUP3 LT ISZERO PUSH2 0x3B2F JUMPI ADD ADD SWAP1 JUMP JUMPDEST PUSH2 0x3B37 PUSH2 0x1DAC JUMP JUMPDEST ADD ADD SWAP1 JUMP JUMPDEST ISZERO PUSH2 0x3B43 JUMPI JUMP JUMPDEST POP PUSH1 0x64 PUSH1 0x40 MLOAD PUSH3 0x461BCD PUSH1 0xE5 SHL DUP2 MSTORE PUSH1 0x20 PUSH1 0x4 DUP3 ADD MSTORE PUSH1 0x20 PUSH1 0x24 DUP3 ADD MSTORE PUSH32 0x537472696E67733A20686578206C656E67746820696E73756666696369656E74 PUSH1 0x44 DUP3 ADD MSTORE REVERT JUMPDEST PUSH2 0x3B90 PUSH2 0x3816 JUMP JUMPDEST SWAP1 DUP2 MLOAD ISZERO PUSH2 0x3C2A JUMPI JUMPDEST PUSH1 0x30 PUSH1 0x20 DUP4 ADD MSTORE8 DUP2 MLOAD PUSH1 0x1 SWAP1 DUP2 LT ISZERO PUSH2 0x3C1D JUMPI JUMPDEST SWAP1 PUSH1 0x78 PUSH1 0x21 DUP5 ADD MSTORE8 PUSH1 0x29 SWAP2 JUMPDEST DUP1 DUP4 GT PUSH2 0x3BCC JUMPI POP PUSH2 0x6E5 SWAP2 POP ISZERO PUSH2 0x3B3C JUMP JUMPDEST SWAP1 DUP1 PUSH1 0xF PUSH2 0x3C09 SWAP3 AND PUSH1 0x10 DUP2 LT ISZERO PUSH2 0x3C10 JUMPI JUMPDEST PUSH16 0x181899199A1A9B1B9C1CB0B131B232B3 PUSH1 0x81 SHL SWAP1 BYTE PUSH2 0x3BFF DUP6 DUP8 PUSH2 0x3B1D JUMP JUMPDEST MSTORE8 PUSH1 0x4 SHR SWAP3 PUSH2 0x32D6 JUMP JUMPDEST SWAP2 SWAP1 PUSH2 0x3BB9 JUMP JUMPDEST PUSH2 0x3C18 PUSH2 0x1DAC JUMP JUMPDEST PUSH2 0x3BDF JUMP JUMPDEST PUSH2 0x3C25 PUSH2 0x1DAC JUMP JUMPDEST PUSH2 0x3BAD JUMP JUMPDEST PUSH2 0x3C32 PUSH2 0x1DAC JUMP JUMPDEST PUSH2 0x3B99 JUMP JUMPDEST PUSH1 0x40 DUP1 MLOAD PUSH32 0x3C73766720786D6C6E733D22687474703A2F2F7777772E77332E6F72672F3230 PUSH1 0x20 DUP3 ADD MSTORE PUSH32 0x30302F7376672220786D6C6E733A786C696E6B3D22687474703A2F2F7777772E SWAP2 DUP2 ADD SWAP2 SWAP1 SWAP2 MSTORE PUSH32 0x77332E6F72672F313939392F786C696E6B222076657273696F6E3D22312E3122 PUSH1 0x60 DUP3 ADD MSTORE PUSH32 0x2077696474683D2236343022206865696768743D22343830222076696577426F PUSH1 0x80 DUP3 ADD MSTORE PUSH32 0x783D2230203020363430203438302220786D6C3A73706163653D227072657365 PUSH1 0xA0 DUP3 ADD MSTORE PUSH5 0x393B32911F PUSH1 0xD9 SHL PUSH1 0xC0 DUP3 ADD MSTORE PUSH6 0x1E3232B3399F PUSH1 0xD1 SHL PUSH1 0xC5 DUP3 ADD MSTORE SWAP2 DUP3 SWAP2 PUSH1 0xCB DUP4 ADD PUSH7 0x1E17B232B3399F PUSH1 0xC9 SHL DUP2 MSTORE PUSH1 0x7 ADD PUSH32 0x3C67207472616E73666F726D3D226D617472697828332E34322030203020332E DUP2 MSTORE PUSH21 0x1A1910199818171C9C10191A99171C9C149110101F PUSH1 0x59 SHL PUSH1 0x20 DUP3 ADD MSTORE PUSH1 0x35 ADD PUSH32 0x3C706F6C79676F6E207374796C653D227374726F6B653A2072676228302C302C DUP2 MSTORE PUSH32 0x30293B207374726F6B652D77696474683A20383B207374726F6B652D64617368 PUSH1 0x20 DUP3 ADD MSTORE PUSH32 0x61727261793A206E6F6E653B207374726F6B652D6C696E656361703A20627574 PUSH1 0x40 DUP3 ADD MSTORE PUSH32 0x743B207374726F6B652D646173686F66667365743A20303B207374726F6B652D PUSH1 0x60 DUP3 ADD MSTORE PUSH32 0x6C696E656A6F696E3A206D697465723B207374726F6B652D6D697465726C696D PUSH1 0x80 DUP3 ADD MSTORE PUSH32 0x69743A20343B2066696C6C3A20726762283135322C3135322C313833293B2066 PUSH1 0xA0 DUP3 ADD MSTORE PUSH32 0x696C6C2D72756C653A206E6F6E7A65726F3B206F7061636974793A20313B2220 PUSH1 0xC0 DUP3 ADD MSTORE PUSH32 0x766563746F722D6566666563743D226E6F6E2D7363616C696E672D7374726F6B PUSH1 0xE0 DUP3 ADD MSTORE PUSH32 0x65222020706F696E74733D222D35302C2D3530202D35302C35302035302C3530 PUSH2 0x100 DUP3 ADD MSTORE PUSH12 0x101A9816169A98101110179F PUSH1 0xA1 SHL PUSH2 0x120 DUP3 ADD MSTORE PUSH2 0x12C ADD PUSH4 0x1E17B39F PUSH1 0xE1 SHL DUP2 MSTORE PUSH1 0x4 ADD PUSH32 0x3C67207472616E73666F726D3D226D6174726978283120302030203120333033 DUP2 MSTORE PUSH32 0x2E35203131352E36372922207374796C653D222220203E000000000000000000 PUSH1 0x20 DUP3 ADD MSTORE PUSH1 0x37 ADD PUSH32 0x3C7465787420786D6C3A73706163653D2270726573657276652220666F6E742D DUP2 MSTORE PUSH32 0x66616D696C793D224F70656E2053616E732220666F6E742D73697A653D223234 PUSH1 0x20 DUP3 ADD MSTORE PUSH32 0x2220666F6E742D7374796C653D226E6F726D616C2220666F6E742D7765696768 PUSH1 0x40 DUP3 ADD MSTORE PUSH32 0x743D226E6F726D616C22207374796C653D227374726F6B653A206E6F6E653B20 PUSH1 0x60 DUP3 ADD MSTORE PUSH32 0x7374726F6B652D77696474683A20313B207374726F6B652D6461736861727261 PUSH1 0x80 DUP3 ADD MSTORE PUSH32 0x793A206E6F6E653B207374726F6B652D6C696E656361703A20627574743B2073 PUSH1 0xA0 DUP3 ADD MSTORE PUSH32 0x74726F6B652D646173686F66667365743A20303B207374726F6B652D6C696E65 PUSH1 0xC0 DUP3 ADD MSTORE PUSH32 0x6A6F696E3A206D697465723B207374726F6B652D6D697465726C696D69743A20 PUSH1 0xE0 DUP3 ADD MSTORE PUSH32 0x343B2066696C6C3A2072676228302C302C30293B2066696C6C2D72756C653A20 PUSH2 0x100 DUP3 ADD MSTORE PUSH32 0x6E6F6E7A65726F3B206F7061636974793A20313B2077686974652D7370616365 PUSH2 0x120 DUP3 ADD MSTORE PUSH32 0x3A207072653B22203E3C747370616E20783D222D34352E372220793D22352E36 PUSH2 0x140 DUP3 ADD MSTORE PUSH32 0x3522207374796C653D227374726F6B652D77696474683A20313B20666F6E742D PUSH2 0x160 DUP3 ADD MSTORE PUSH32 0x66616D696C793A20224F70656E2053616E73222C2073616E732D73657269663B PUSH2 0x180 DUP3 ADD MSTORE PUSH32 0x20666F6E742D73697A653A20313870783B20666F6E742D7374796C653A206E6F PUSH2 0x1A0 DUP3 ADD MSTORE PUSH32 0x726D616C3B20666F6E742D7765696768743A206E6F726D616C3B2066696C6C3A PUSH2 0x1C0 DUP3 ADD MSTORE PUSH32 0x2072676228302C302C30293B20223E466C65656B204E4641733C2F747370616E PUSH2 0x1E0 DUP3 ADD MSTORE PUSH8 0x1F1E17BA32BC3A1F PUSH1 0xC1 SHL PUSH2 0x200 DUP3 ADD MSTORE PUSH2 0x208 ADD PUSH4 0x1E17B39F PUSH1 0xE1 SHL DUP2 MSTORE PUSH1 0x4 ADD PUSH32 0x3C67207472616E73666F726D3D226D6174726978283120302030203120333032 DUP2 MSTORE PUSH21 0x10191B18971A1B94911039BA3CB6329E911110101F PUSH1 0x59 SHL PUSH1 0x20 DUP3 ADD MSTORE PUSH1 0x35 ADD PUSH32 0x3C7465787420786D6C3A73706163653D2270726573657276652220666F6E742D DUP2 MSTORE PUSH32 0x66616D696C793D224F70656E2053616E732220666F6E742D73697A653D223238 PUSH1 0x20 DUP3 ADD MSTORE PUSH32 0x2220666F6E742D7374796C653D226E6F726D616C2220666F6E742D7765696768 PUSH1 0x40 DUP3 ADD MSTORE PUSH32 0x743D226E6F726D616C22207374796C653D227374726F6B653A206E6F6E653B20 PUSH1 0x60 DUP3 ADD MSTORE PUSH32 0x7374726F6B652D77696474683A20313B207374726F6B652D6461736861727261 PUSH1 0x80 DUP3 ADD MSTORE PUSH32 0x793A206E6F6E653B207374726F6B652D6C696E656361703A20627574743B2073 PUSH1 0xA0 DUP3 ADD MSTORE PUSH32 0x74726F6B652D646173686F66667365743A20303B207374726F6B652D6C696E65 PUSH1 0xC0 DUP3 ADD MSTORE PUSH32 0x6A6F696E3A206D697465723B207374726F6B652D6D697465726C696D69743A20 PUSH1 0xE0 DUP3 ADD MSTORE PUSH32 0x343B2066696C6C3A2072676228302C302C30293B2066696C6C2D72756C653A20 PUSH2 0x100 DUP3 ADD MSTORE PUSH32 0x6E6F6E7A65726F3B206F7061636974793A20313B2077686974652D7370616365 PUSH2 0x120 DUP3 ADD MSTORE PUSH32 0x3A207072653B22203E3C747370616E20783D222D34342E32362220793D222D36 PUSH2 0x140 DUP3 ADD MSTORE PUSH32 0x2E313422207374796C653D227374726F6B652D77696474683A20313B20666F6E PUSH2 0x160 DUP3 ADD MSTORE PUSH32 0x742D66616D696C793A20224F70656E2053616E73222C2073616E732D73657269 PUSH2 0x180 DUP3 ADD MSTORE PUSH32 0x663B20666F6E742D73697A653A20313870783B20666F6E742D7374796C653A20 PUSH2 0x1A0 DUP3 ADD MSTORE PUSH32 0x6E6F726D616C3B20666F6E742D7765696768743A206E6F726D616C3B2066696C PUSH2 0x1C0 DUP3 ADD MSTORE PUSH17 0x361D103933B1141816181618149D90111F PUSH1 0x79 SHL PUSH2 0x1E0 DUP3 ADD MSTORE PUSH2 0x1F1 ADD PUSH2 0x446C SWAP2 PUSH2 0x24E9 JUMP JUMPDEST PUSH32 0x3C2F747370616E3E3C747370616E20783D222D33372E31342220793D2231372E DUP2 MSTORE PUSH32 0x343522207374796C653D227374726F6B652D77696474683A20313B20666F6E74 PUSH1 0x20 DUP3 ADD MSTORE PUSH32 0x2D66616D696C793A20224F70656E2053616E73222C2073616E732D7365726966 PUSH1 0x40 DUP3 ADD MSTORE PUSH32 0x3B20666F6E742D73697A653A20313870783B20666F6E742D7374796C653A206E PUSH1 0x60 DUP3 ADD MSTORE PUSH32 0x6F726D616C3B20666F6E742D7765696768743A206E6F726D616C3B2066696C6C PUSH1 0x80 DUP3 ADD MSTORE PUSH16 0x1D103933B1141816181618149D90111F PUSH1 0x81 SHL PUSH1 0xA0 DUP3 ADD MSTORE PUSH1 0xB0 ADD PUSH2 0x454C SWAP2 PUSH2 0x24E9 JUMP JUMPDEST PUSH15 0x1E17BA39B830B71F1E17BA32BC3A1F PUSH1 0x89 SHL DUP2 MSTORE PUSH1 0xF ADD PUSH4 0x1E17B39F PUSH1 0xE1 SHL DUP2 MSTORE PUSH1 0x4 ADD PUSH6 0x1E17B9BB339F PUSH1 0xD1 SHL DUP2 MSTORE PUSH1 0x6 ADD SUB SWAP1 PUSH1 0x1F NOT SWAP2 DUP3 DUP2 ADD DUP3 MSTORE PUSH2 0x4595 SWAP1 DUP3 PUSH2 0x82B JUMP JUMPDEST PUSH2 0x459E SWAP1 PUSH2 0x3882 JUMP JUMPDEST PUSH1 0x40 MLOAD PUSH32 0x646174613A6170706C69636174696F6E2F6A736F6E3B6261736536342C000000 PUSH1 0x20 DUP3 ADD MSTORE SWAP2 SWAP1 DUP3 SWAP1 PUSH1 0x3D DUP3 ADD PUSH2 0x283C JUMP JUMPDEST ISZERO PUSH2 0x45F9 JUMPI PUSH1 0x40 MLOAD PUSH2 0x45E5 DUP2 PUSH2 0x7E8 JUMP JUMPDEST PUSH1 0x4 DUP2 MSTORE PUSH4 0x74727565 PUSH1 0xE0 SHL PUSH1 0x20 DUP3 ADD MSTORE SWAP1 JUMP JUMPDEST PUSH1 0x40 MLOAD PUSH2 0x4605 DUP2 PUSH2 0x7E8 JUMP JUMPDEST PUSH1 0x5 DUP2 MSTORE PUSH5 0x66616C7365 PUSH1 0xD8 SHL PUSH1 0x20 DUP3 ADD MSTORE SWAP1 JUMP INVALID LOG3 PUSH5 0x6970667358 0x22 SLT KECCAK256 PUSH9 0xC2C48EB3CCEDE8F14A SSTORE 0x4D 0xA8 0xBF 0xAC SDIV SWAP9 0xAB 0xE0 0xDC RETURN 0xE1 0xD8 AND 0xE4 0xB1 0xCE 0xB4 0xE2 SSTORE 0xC8 DUP7 PUSH13 0x6578706572696D656E74616CF5 PUSH5 0x736F6C6343 STOP ADDMOD 0xC STOP COINBASE "
        },
        "gasEstimates": {
          "creation": {
            "codeDepositCost": "3602800",
            "executionCost": "infinite",
            "totalCost": "infinite"
          },
          "external": {
            "addAccessPoint(uint256,string)": "infinite",
            "appAccessPoints(uint256)": "infinite",
            "approve(address,uint256)": "infinite",
            "balanceOf(address)": "2857",
            "burn(uint256)": "infinite",
            "decreaseAccessPointScore(string)": "infinite",
            "getAccessPointJSON(string)": "infinite",
            "getApproved(uint256)": "4772",
            "getCollectionRoleMembers(uint8)": "infinite",
            "getTokenRoleMembers(uint256,uint8)": "infinite",
            "grantCollectionRole(uint8,address)": "infinite",
            "grantTokenRole(uint256,uint8,address)": "infinite",
            "hasCollectionRole(uint8,address)": "5563",
            "hasTokenRole(uint256,uint8,address)": "5582",
            "increaseAccessPointScore(string)": "infinite",
            "isAccessPointNameVerified(string)": "infinite",
            "isApprovedForAll(address,address)": "3406",
            "mint(address,string,string,string,string,string,string)": "infinite",
            "name()": "infinite",
            "ownerOf(uint256)": "2849",
            "removeAccessPoint(string)": "infinite",
            "revokeCollectionRole(uint8,address)": "infinite",
            "revokeTokenRole(uint256,uint8,address)": "infinite",
            "safeTransferFrom(address,address,uint256)": "infinite",
            "safeTransferFrom(address,address,uint256,bytes)": "infinite",
            "setAccessPointContentVerify(string,bool)": "infinite",
            "setAccessPointNameVerify(string,bool)": "infinite",
            "setApprovalForAll(address,bool)": "27024",
            "setTokenBuild(uint256,string,string)": "infinite",
            "setTokenDescription(uint256,string)": "infinite",
            "setTokenENS(uint256,string)": "infinite",
            "setTokenExternalURL(uint256,string)": "infinite",
            "setTokenName(uint256,string)": "infinite",
            "supportsInterface(bytes4)": "479",
            "symbol()": "infinite",
            "tokenURI(uint256)": "infinite",
            "transferFrom(address,address,uint256)": "infinite"
          },
          "internal": {
            "_baseURI()": "infinite",
            "_beforeTokenTransfer(address,address,uint256,uint256)": "infinite"
          }
        },
        "methodIdentifiers": {
          "addAccessPoint(uint256,string)": "b30437a0",
          "appAccessPoints(uint256)": "f6be6b78",
          "approve(address,uint256)": "095ea7b3",
          "balanceOf(address)": "70a08231",
          "burn(uint256)": "42966c68",
          "decreaseAccessPointScore(string)": "a397c830",
          "getAccessPointJSON(string)": "27dc5cec",
          "getApproved(uint256)": "081812fc",
          "getCollectionRoleMembers(uint8)": "353b07a4",
          "getTokenRoleMembers(uint256,uint8)": "2f1e8f0a",
          "grantCollectionRole(uint8,address)": "2d957aad",
          "grantTokenRole(uint256,uint8,address)": "a27d0b27",
          "hasCollectionRole(uint8,address)": "e9447250",
          "hasTokenRole(uint256,uint8,address)": "b42dbe38",
          "increaseAccessPointScore(string)": "94ec65c5",
          "isAccessPointNameVerified(string)": "d7a75be1",
          "isApprovedForAll(address,address)": "e985e9c5",
          "mint(address,string,string,string,string,string,string)": "aba81125",
          "name()": "06fdde03",
          "ownerOf(uint256)": "6352211e",
          "removeAccessPoint(string)": "7469a03b",
          "revokeCollectionRole(uint8,address)": "8c3c0a44",
          "revokeTokenRole(uint256,uint8,address)": "01468deb",
          "safeTransferFrom(address,address,uint256)": "42842e0e",
          "safeTransferFrom(address,address,uint256,bytes)": "b88d4fde",
          "setAccessPointContentVerify(string,bool)": "b20b94f1",
          "setAccessPointNameVerify(string,bool)": "42e44bbf",
          "setApprovalForAll(address,bool)": "a22cb465",
          "setTokenBuild(uint256,string,string)": "3806f152",
          "setTokenDescription(uint256,string)": "246a908b",
          "setTokenENS(uint256,string)": "78278cca",
          "setTokenExternalURL(uint256,string)": "f9315177",
          "setTokenName(uint256,string)": "cdb0e89e",
          "supportsInterface(bytes4)": "01ffc9a7",
          "symbol()": "95d89b41",
          "tokenURI(uint256)": "c87b56dd",
          "transferFrom(address,address,uint256)": "23b872dd"
        }
      },
      "storageLayout": {
        "storage": [
          {
            "astId": 25,
            "contract": "contracts/FleekERC721.sol:FleekERC721",
            "label": "_name",
            "offset": 0,
            "slot": "0",
            "type": "t_string_storage"
          },
          {
            "astId": 27,
            "contract": "contracts/FleekERC721.sol:FleekERC721",
            "label": "_symbol",
            "offset": 0,
            "slot": "1",
            "type": "t_string_storage"
          },
          {
            "astId": 31,
            "contract": "contracts/FleekERC721.sol:FleekERC721",
            "label": "_owners",
            "offset": 0,
            "slot": "2",
            "type": "t_mapping(t_uint256,t_address)"
          },
          {
            "astId": 35,
            "contract": "contracts/FleekERC721.sol:FleekERC721",
            "label": "_balances",
            "offset": 0,
            "slot": "3",
            "type": "t_mapping(t_address,t_uint256)"
          },
          {
            "astId": 39,
            "contract": "contracts/FleekERC721.sol:FleekERC721",
            "label": "_tokenApprovals",
            "offset": 0,
            "slot": "4",
            "type": "t_mapping(t_uint256,t_address)"
          },
          {
            "astId": 45,
            "contract": "contracts/FleekERC721.sol:FleekERC721",
            "label": "_operatorApprovals",
            "offset": 0,
            "slot": "5",
            "type": "t_mapping(t_address,t_mapping(t_address,t_bool))"
          },
          {
            "astId": 2715,
            "contract": "contracts/FleekERC721.sol:FleekERC721",
            "label": "_collectionRolesVersion",
            "offset": 0,
            "slot": "6",
            "type": "t_struct(Counter)1510_storage"
          },
          {
            "astId": 2723,
            "contract": "contracts/FleekERC721.sol:FleekERC721",
            "label": "_collectionRoles",
            "offset": 0,
            "slot": "7",
            "type": "t_mapping(t_uint256,t_mapping(t_enum(Roles)2664,t_struct(Role)2712_storage))"
          },
          {
            "astId": 2728,
            "contract": "contracts/FleekERC721.sol:FleekERC721",
            "label": "_tokenRolesVersion",
            "offset": 0,
            "slot": "8",
            "type": "t_mapping(t_uint256,t_struct(Counter)1510_storage)"
          },
          {
            "astId": 2738,
            "contract": "contracts/FleekERC721.sol:FleekERC721",
            "label": "_tokenRoles",
            "offset": 0,
            "slot": "9",
            "type": "t_mapping(t_uint256,t_mapping(t_uint256,t_mapping(t_enum(Roles)2664,t_struct(Role)2712_storage)))"
          },
          {
            "astId": 3449,
            "contract": "contracts/FleekERC721.sol:FleekERC721",
            "label": "_appIds",
            "offset": 0,
            "slot": "10",
            "type": "t_struct(Counter)1510_storage"
          },
          {
            "astId": 3454,
            "contract": "contracts/FleekERC721.sol:FleekERC721",
            "label": "_apps",
            "offset": 0,
            "slot": "11",
            "type": "t_mapping(t_uint256,t_struct(App)3428_storage)"
          },
          {
            "astId": 3459,
            "contract": "contracts/FleekERC721.sol:FleekERC721",
            "label": "_accessPoints",
            "offset": 0,
            "slot": "12",
            "type": "t_mapping(t_string_memory_ptr,t_struct(AccessPoint)3446_storage)"
          }
        ],
        "types": {
          "t_address": {
            "encoding": "inplace",
            "label": "address",
            "numberOfBytes": "20"
          },
          "t_array(t_address)dyn_storage": {
            "base": "t_address",
            "encoding": "dynamic_array",
            "label": "address[]",
            "numberOfBytes": "32"
          },
          "t_array(t_string_storage)dyn_storage": {
            "base": "t_string_storage",
            "encoding": "dynamic_array",
            "label": "string[]",
            "numberOfBytes": "32"
          },
          "t_bool": {
            "encoding": "inplace",
            "label": "bool",
            "numberOfBytes": "1"
          },
          "t_enum(Roles)2664": {
            "encoding": "inplace",
            "label": "enum FleekAccessControl.Roles",
            "numberOfBytes": "1"
          },
          "t_mapping(t_address,t_bool)": {
            "encoding": "mapping",
            "key": "t_address",
            "label": "mapping(address => bool)",
            "numberOfBytes": "32",
            "value": "t_bool"
          },
          "t_mapping(t_address,t_mapping(t_address,t_bool))": {
            "encoding": "mapping",
            "key": "t_address",
            "label": "mapping(address => mapping(address => bool))",
            "numberOfBytes": "32",
            "value": "t_mapping(t_address,t_bool)"
          },
          "t_mapping(t_address,t_uint256)": {
            "encoding": "mapping",
            "key": "t_address",
            "label": "mapping(address => uint256)",
            "numberOfBytes": "32",
            "value": "t_uint256"
          },
          "t_mapping(t_enum(Roles)2664,t_struct(Role)2712_storage)": {
            "encoding": "mapping",
            "key": "t_enum(Roles)2664",
            "label": "mapping(enum FleekAccessControl.Roles => struct FleekAccessControl.Role)",
            "numberOfBytes": "32",
            "value": "t_struct(Role)2712_storage"
          },
          "t_mapping(t_string_memory_ptr,t_struct(AccessPoint)3446_storage)": {
            "encoding": "mapping",
            "key": "t_string_memory_ptr",
            "label": "mapping(string => struct FleekERC721.AccessPoint)",
            "numberOfBytes": "32",
            "value": "t_struct(AccessPoint)3446_storage"
          },
          "t_mapping(t_uint256,t_address)": {
            "encoding": "mapping",
            "key": "t_uint256",
            "label": "mapping(uint256 => address)",
            "numberOfBytes": "32",
            "value": "t_address"
          },
          "t_mapping(t_uint256,t_mapping(t_enum(Roles)2664,t_struct(Role)2712_storage))": {
            "encoding": "mapping",
            "key": "t_uint256",
            "label": "mapping(uint256 => mapping(enum FleekAccessControl.Roles => struct FleekAccessControl.Role))",
            "numberOfBytes": "32",
            "value": "t_mapping(t_enum(Roles)2664,t_struct(Role)2712_storage)"
          },
          "t_mapping(t_uint256,t_mapping(t_uint256,t_mapping(t_enum(Roles)2664,t_struct(Role)2712_storage)))": {
            "encoding": "mapping",
            "key": "t_uint256",
            "label": "mapping(uint256 => mapping(uint256 => mapping(enum FleekAccessControl.Roles => struct FleekAccessControl.Role)))",
            "numberOfBytes": "32",
            "value": "t_mapping(t_uint256,t_mapping(t_enum(Roles)2664,t_struct(Role)2712_storage))"
          },
          "t_mapping(t_uint256,t_struct(App)3428_storage)": {
            "encoding": "mapping",
            "key": "t_uint256",
            "label": "mapping(uint256 => struct FleekERC721.App)",
            "numberOfBytes": "32",
            "value": "t_struct(App)3428_storage"
          },
          "t_mapping(t_uint256,t_struct(Build)3433_storage)": {
            "encoding": "mapping",
            "key": "t_uint256",
            "label": "mapping(uint256 => struct FleekERC721.Build)",
            "numberOfBytes": "32",
            "value": "t_struct(Build)3433_storage"
          },
          "t_mapping(t_uint256,t_struct(Counter)1510_storage)": {
            "encoding": "mapping",
            "key": "t_uint256",
            "label": "mapping(uint256 => struct Counters.Counter)",
            "numberOfBytes": "32",
            "value": "t_struct(Counter)1510_storage"
          },
          "t_string_memory_ptr": {
            "encoding": "bytes",
            "label": "string",
            "numberOfBytes": "32"
          },
          "t_string_storage": {
            "encoding": "bytes",
            "label": "string",
            "numberOfBytes": "32"
          },
          "t_struct(AccessPoint)3446_storage": {
            "encoding": "inplace",
            "label": "struct FleekERC721.AccessPoint",
            "members": [
              {
                "astId": 3435,
                "contract": "contracts/FleekERC721.sol:FleekERC721",
                "label": "tokenId",
                "offset": 0,
                "slot": "0",
                "type": "t_uint256"
              },
              {
                "astId": 3437,
                "contract": "contracts/FleekERC721.sol:FleekERC721",
                "label": "index",
                "offset": 0,
                "slot": "1",
                "type": "t_uint256"
              },
              {
                "astId": 3439,
                "contract": "contracts/FleekERC721.sol:FleekERC721",
                "label": "score",
                "offset": 0,
                "slot": "2",
                "type": "t_uint256"
              },
              {
                "astId": 3441,
                "contract": "contracts/FleekERC721.sol:FleekERC721",
                "label": "contentVerified",
                "offset": 0,
                "slot": "3",
                "type": "t_bool"
              },
              {
                "astId": 3443,
                "contract": "contracts/FleekERC721.sol:FleekERC721",
                "label": "nameVerified",
                "offset": 1,
                "slot": "3",
                "type": "t_bool"
              },
              {
                "astId": 3445,
                "contract": "contracts/FleekERC721.sol:FleekERC721",
                "label": "owner",
                "offset": 2,
                "slot": "3",
                "type": "t_address"
              }
            ],
            "numberOfBytes": "128"
          },
          "t_struct(App)3428_storage": {
            "encoding": "inplace",
            "label": "struct FleekERC721.App",
            "members": [
              {
                "astId": 3411,
                "contract": "contracts/FleekERC721.sol:FleekERC721",
                "label": "name",
                "offset": 0,
                "slot": "0",
                "type": "t_string_storage"
              },
              {
                "astId": 3413,
                "contract": "contracts/FleekERC721.sol:FleekERC721",
                "label": "description",
                "offset": 0,
                "slot": "1",
                "type": "t_string_storage"
              },
              {
                "astId": 3415,
                "contract": "contracts/FleekERC721.sol:FleekERC721",
                "label": "externalURL",
                "offset": 0,
                "slot": "2",
                "type": "t_string_storage"
              },
              {
                "astId": 3417,
                "contract": "contracts/FleekERC721.sol:FleekERC721",
                "label": "ENS",
                "offset": 0,
                "slot": "3",
                "type": "t_string_storage"
              },
              {
                "astId": 3419,
                "contract": "contracts/FleekERC721.sol:FleekERC721",
                "label": "currentBuild",
                "offset": 0,
                "slot": "4",
                "type": "t_uint256"
              },
              {
                "astId": 3424,
                "contract": "contracts/FleekERC721.sol:FleekERC721",
                "label": "builds",
                "offset": 0,
                "slot": "5",
                "type": "t_mapping(t_uint256,t_struct(Build)3433_storage)"
              },
              {
                "astId": 3427,
                "contract": "contracts/FleekERC721.sol:FleekERC721",
                "label": "accessPoints",
                "offset": 0,
                "slot": "6",
                "type": "t_array(t_string_storage)dyn_storage"
              }
            ],
            "numberOfBytes": "224"
          },
          "t_struct(Build)3433_storage": {
            "encoding": "inplace",
            "label": "struct FleekERC721.Build",
            "members": [
              {
                "astId": 3430,
                "contract": "contracts/FleekERC721.sol:FleekERC721",
                "label": "commitHash",
                "offset": 0,
                "slot": "0",
                "type": "t_string_storage"
              },
              {
                "astId": 3432,
                "contract": "contracts/FleekERC721.sol:FleekERC721",
                "label": "gitRepository",
                "offset": 0,
                "slot": "1",
                "type": "t_string_storage"
              }
            ],
            "numberOfBytes": "64"
          },
          "t_struct(Counter)1510_storage": {
            "encoding": "inplace",
            "label": "struct Counters.Counter",
            "members": [
              {
                "astId": 1509,
                "contract": "contracts/FleekERC721.sol:FleekERC721",
                "label": "_value",
                "offset": 0,
                "slot": "0",
                "type": "t_uint256"
              }
            ],
            "numberOfBytes": "32"
          },
          "t_struct(Role)2712_storage": {
            "encoding": "inplace",
            "label": "struct FleekAccessControl.Role",
            "members": [
              {
                "astId": 2708,
                "contract": "contracts/FleekERC721.sol:FleekERC721",
                "label": "indexes",
                "offset": 0,
                "slot": "0",
                "type": "t_mapping(t_address,t_uint256)"
              },
              {
                "astId": 2711,
                "contract": "contracts/FleekERC721.sol:FleekERC721",
                "label": "members",
                "offset": 0,
                "slot": "1",
                "type": "t_array(t_address)dyn_storage"
              }
            ],
            "numberOfBytes": "64"
          },
          "t_uint256": {
            "encoding": "inplace",
            "label": "uint256",
            "numberOfBytes": "32"
          }
        }
      },
      "userdoc": {
        "kind": "user",
        "methods": {},
        "version": 1
      }
    }
  }
}