{
  "_format": "hh-sol-artifact-1",
  "contractName": "SitesNFTs",
  "sourceName": "contracts/SitesNFTs.sol",
  "abi": [
    {
      "inputs": [
        {
          "internalType": "string",
          "name": "name",
          "type": "string"
        },
        {
          "internalType": "string",
          "name": "symbol",
          "type": "string"
        }
      ],
      "stateMutability": "nonpayable",
      "type": "constructor"
    },
    {
      "anonymous": false,
      "inputs": [
        {
          "indexed": true,
          "internalType": "address",
          "name": "owner",
          "type": "address"
        },
        {
          "indexed": true,
          "internalType": "address",
          "name": "approved",
          "type": "address"
        },
        {
          "indexed": true,
          "internalType": "uint256",
          "name": "tokenId",
          "type": "uint256"
        }
      ],
      "name": "Approval",
      "type": "event"
    },
    {
      "anonymous": false,
      "inputs": [
        {
          "indexed": true,
          "internalType": "address",
          "name": "owner",
          "type": "address"
        },
        {
          "indexed": true,
          "internalType": "address",
          "name": "operator",
          "type": "address"
        },
        {
          "indexed": false,
          "internalType": "bool",
          "name": "approved",
          "type": "bool"
        }
      ],
      "name": "ApprovalForAll",
      "type": "event"
    },
    {
      "anonymous": false,
      "inputs": [
        {
          "indexed": true,
          "internalType": "bytes32",
          "name": "role",
          "type": "bytes32"
        },
        {
          "indexed": true,
          "internalType": "bytes32",
          "name": "previousAdminRole",
          "type": "bytes32"
        },
        {
          "indexed": true,
          "internalType": "bytes32",
          "name": "newAdminRole",
          "type": "bytes32"
        }
      ],
      "name": "RoleAdminChanged",
      "type": "event"
    },
    {
      "anonymous": false,
      "inputs": [
        {
          "indexed": true,
          "internalType": "bytes32",
          "name": "role",
          "type": "bytes32"
        },
        {
          "indexed": true,
          "internalType": "address",
          "name": "account",
          "type": "address"
        },
        {
          "indexed": true,
          "internalType": "address",
          "name": "sender",
          "type": "address"
        }
      ],
      "name": "RoleGranted",
      "type": "event"
    },
    {
      "anonymous": false,
      "inputs": [
        {
          "indexed": true,
          "internalType": "bytes32",
          "name": "role",
          "type": "bytes32"
        },
        {
          "indexed": true,
          "internalType": "address",
          "name": "account",
          "type": "address"
        },
        {
          "indexed": true,
          "internalType": "address",
          "name": "sender",
          "type": "address"
        }
      ],
      "name": "RoleRevoked",
      "type": "event"
    },
    {
      "anonymous": false,
      "inputs": [
        {
          "indexed": true,
          "internalType": "address",
          "name": "from",
          "type": "address"
        },
        {
          "indexed": true,
          "internalType": "address",
          "name": "to",
          "type": "address"
        },
        {
          "indexed": true,
          "internalType": "uint256",
          "name": "tokenId",
          "type": "uint256"
        }
      ],
      "name": "Transfer",
      "type": "event"
    },
    {
      "stateMutability": "nonpayable",
      "type": "fallback"
    },
    {
      "inputs": [],
      "name": "DEFAULT_ADMIN_ROLE",
      "outputs": [
        {
          "internalType": "bytes32",
          "name": "",
          "type": "bytes32"
        }
      ],
      "stateMutability": "view",
      "type": "function"
    },
    {
      "inputs": [],
      "name": "MINTER_ROLE",
      "outputs": [
        {
          "internalType": "bytes32",
          "name": "",
          "type": "bytes32"
        }
      ],
      "stateMutability": "view",
      "type": "function"
    },
    {
      "inputs": [
        {
          "internalType": "address",
          "name": "to",
          "type": "address"
        },
        {
          "internalType": "uint256",
          "name": "tokenId",
          "type": "uint256"
        }
      ],
      "name": "approve",
      "outputs": [],
      "stateMutability": "nonpayable",
      "type": "function"
    },
    {
      "inputs": [
        {
          "internalType": "address",
          "name": "owner",
          "type": "address"
        }
      ],
      "name": "balanceOf",
      "outputs": [
        {
          "internalType": "uint256",
          "name": "",
          "type": "uint256"
        }
      ],
      "stateMutability": "view",
      "type": "function"
    },
    {
      "inputs": [
        {
          "internalType": "uint256",
          "name": "tokenId",
          "type": "uint256"
        }
      ],
      "name": "getApproved",
      "outputs": [
        {
          "internalType": "address",
          "name": "",
          "type": "address"
        }
      ],
      "stateMutability": "view",
      "type": "function"
    },
    {
      "inputs": [],
      "name": "getCurrentTokenId",
      "outputs": [
        {
          "internalType": "uint256",
          "name": "",
          "type": "uint256"
        }
      ],
      "stateMutability": "view",
      "type": "function"
    },
    {
      "inputs": [
        {
          "internalType": "bytes32",
          "name": "role",
          "type": "bytes32"
        }
      ],
      "name": "getRoleAdmin",
      "outputs": [
        {
          "internalType": "bytes32",
          "name": "",
          "type": "bytes32"
        }
      ],
      "stateMutability": "view",
      "type": "function"
    },
    {
      "inputs": [
        {
          "internalType": "bytes32",
          "name": "role",
          "type": "bytes32"
        },
        {
          "internalType": "address",
          "name": "account",
          "type": "address"
        }
      ],
      "name": "grantRole",
      "outputs": [],
      "stateMutability": "nonpayable",
      "type": "function"
    },
    {
      "inputs": [
        {
          "internalType": "bytes32",
          "name": "role",
          "type": "bytes32"
        },
        {
          "internalType": "address",
          "name": "account",
          "type": "address"
        }
      ],
      "name": "hasRole",
      "outputs": [
        {
          "internalType": "bool",
          "name": "",
          "type": "bool"
        }
      ],
      "stateMutability": "view",
      "type": "function"
    },
    {
      "inputs": [
        {
          "internalType": "address",
          "name": "owner",
          "type": "address"
        },
        {
          "internalType": "address",
          "name": "operator",
          "type": "address"
        }
      ],
      "name": "isApprovedForAll",
      "outputs": [
        {
          "internalType": "bool",
          "name": "",
          "type": "bool"
        }
      ],
      "stateMutability": "view",
      "type": "function"
    },
    {
      "inputs": [
        {
          "internalType": "string",
          "name": "_tokenURI",
          "type": "string"
        },
        {
          "internalType": "address",
          "name": "account",
          "type": "address"
        }
      ],
      "name": "mint",
      "outputs": [
        {
          "internalType": "uint256",
          "name": "",
          "type": "uint256"
        }
      ],
      "stateMutability": "nonpayable",
      "type": "function"
    },
    {
      "inputs": [],
      "name": "name",
      "outputs": [
        {
          "internalType": "string",
          "name": "",
          "type": "string"
        }
      ],
      "stateMutability": "view",
      "type": "function"
    },
    {
      "inputs": [
        {
          "internalType": "uint256",
          "name": "tokenId",
          "type": "uint256"
        }
      ],
      "name": "ownerOf",
      "outputs": [
        {
          "internalType": "address",
          "name": "",
          "type": "address"
        }
      ],
      "stateMutability": "view",
      "type": "function"
    },
    {
      "inputs": [
        {
          "internalType": "bytes32",
          "name": "role",
          "type": "bytes32"
        },
        {
          "internalType": "address",
          "name": "account",
          "type": "address"
        }
      ],
      "name": "renounceRole",
      "outputs": [],
      "stateMutability": "nonpayable",
      "type": "function"
    },
    {
      "inputs": [
        {
          "internalType": "bytes32",
          "name": "role",
          "type": "bytes32"
        },
        {
          "internalType": "address",
          "name": "account",
          "type": "address"
        }
      ],
      "name": "revokeRole",
      "outputs": [],
      "stateMutability": "nonpayable",
      "type": "function"
    },
    {
      "inputs": [
        {
          "internalType": "address",
          "name": "from",
          "type": "address"
        },
        {
          "internalType": "address",
          "name": "to",
          "type": "address"
        },
        {
          "internalType": "uint256",
          "name": "tokenId",
          "type": "uint256"
        }
      ],
      "name": "safeTransferFrom",
      "outputs": [],
      "stateMutability": "nonpayable",
      "type": "function"
    },
    {
      "inputs": [
        {
          "internalType": "address",
          "name": "from",
          "type": "address"
        },
        {
          "internalType": "address",
          "name": "to",
          "type": "address"
        },
        {
          "internalType": "uint256",
          "name": "tokenId",
          "type": "uint256"
        },
        {
          "internalType": "bytes",
          "name": "data",
          "type": "bytes"
        }
      ],
      "name": "safeTransferFrom",
      "outputs": [],
      "stateMutability": "nonpayable",
      "type": "function"
    },
    {
      "inputs": [
        {
          "internalType": "address",
          "name": "operator",
          "type": "address"
        },
        {
          "internalType": "bool",
          "name": "approved",
          "type": "bool"
        }
      ],
      "name": "setApprovalForAll",
      "outputs": [],
      "stateMutability": "nonpayable",
      "type": "function"
    },
    {
      "inputs": [
        {
          "internalType": "string",
          "name": "_newBbaseURI",
          "type": "string"
        }
      ],
      "name": "setBaseURI",
      "outputs": [],
      "stateMutability": "nonpayable",
      "type": "function"
    },
    {
      "inputs": [
        {
          "internalType": "bytes4",
          "name": "interfaceId",
          "type": "bytes4"
        }
      ],
      "name": "supportsInterface",
      "outputs": [
        {
          "internalType": "bool",
          "name": "",
          "type": "bool"
        }
      ],
      "stateMutability": "view",
      "type": "function"
    },
    {
      "inputs": [],
      "name": "symbol",
      "outputs": [
        {
          "internalType": "string",
          "name": "",
          "type": "string"
        }
      ],
      "stateMutability": "view",
      "type": "function"
    },
    {
      "inputs": [
        {
          "internalType": "uint256",
          "name": "tokenId",
          "type": "uint256"
        }
      ],
      "name": "tokenURI",
      "outputs": [
        {
          "internalType": "string",
          "name": "",
          "type": "string"
        }
      ],
      "stateMutability": "view",
      "type": "function"
    },
    {
      "inputs": [
        {
          "internalType": "address",
          "name": "from",
          "type": "address"
        },
        {
          "internalType": "address",
          "name": "to",
          "type": "address"
        },
        {
          "internalType": "uint256",
          "name": "tokenId",
          "type": "uint256"
        }
      ],
      "name": "transferFrom",
      "outputs": [],
      "stateMutability": "nonpayable",
      "type": "function"
    },
    {
      "stateMutability": "payable",
      "type": "receive"
    }
  ],
  "bytecode": "0x60806040523480156200001157600080fd5b5060405162003ce138038062003ce1833981810160405281019062000037919062000381565b818181600090805190602001906200005192919062000253565b5080600190805190602001906200006a92919062000253565b5050506040518060400160405280601d81526020017f646174613a6170706c69636174696f6e2f6a736f6e3b6261736536342c00000081525060099080519060200190620000ba92919062000253565b50620000d06000801b33620000d860201b60201c565b50506200058a565b620000ea8282620000ee60201b60201c565b5050565b620001008282620001e060201b60201c565b620001dc5760016007600084815260200190815260200160002060000160008373ffffffffffffffffffffffffffffffffffffffff1673ffffffffffffffffffffffffffffffffffffffff16815260200190815260200160002060006101000a81548160ff021916908315150217905550620001816200024b60201b60201c565b73ffffffffffffffffffffffffffffffffffffffff168173ffffffffffffffffffffffffffffffffffffffff16837f2f8788117e7eff1d82e926ec794901d17c78024a50270940304540a733656f0d60405160405180910390a45b5050565b60006007600084815260200190815260200160002060000160008373ffffffffffffffffffffffffffffffffffffffff1673ffffffffffffffffffffffffffffffffffffffff16815260200190815260200160002060009054906101000a900460ff16905092915050565b600033905090565b82805462000261906200049b565b90600052602060002090601f016020900481019282620002855760008555620002d1565b82601f10620002a057805160ff1916838001178555620002d1565b82800160010185558215620002d1579182015b82811115620002d0578251825591602001919060010190620002b3565b5b509050620002e09190620002e4565b5090565b5b80821115620002ff576000816000905550600101620002e5565b5090565b60006200031a62000314846200042f565b62000406565b9050828152602081018484840111156200033957620003386200056a565b5b6200034684828562000465565b509392505050565b600082601f83011262000366576200036562000565565b5b81516200037884826020860162000303565b91505092915050565b600080604083850312156200039b576200039a62000574565b5b600083015167ffffffffffffffff811115620003bc57620003bb6200056f565b5b620003ca858286016200034e565b925050602083015167ffffffffffffffff811115620003ee57620003ed6200056f565b5b620003fc858286016200034e565b9150509250929050565b60006200041262000425565b9050620004208282620004d1565b919050565b6000604051905090565b600067ffffffffffffffff8211156200044d576200044c62000536565b5b620004588262000579565b9050602081019050919050565b60005b838110156200048557808201518184015260208101905062000468565b8381111562000495576000848401525b50505050565b60006002820490506001821680620004b457607f821691505b60208210811415620004cb57620004ca62000507565b5b50919050565b620004dc8262000579565b810181811067ffffffffffffffff82111715620004fe57620004fd62000536565b5b80604052505050565b7f4e487b7100000000000000000000000000000000000000000000000000000000600052602260045260246000fd5b7f4e487b7100000000000000000000000000000000000000000000000000000000600052604160045260246000fd5b600080fd5b600080fd5b600080fd5b600080fd5b6000601f19601f8301169050919050565b613747806200059a6000396000f3fe6080604052600436106101445760003560e01c806356189236116100b6578063a22cb4651161006f578063a22cb465146104a7578063b88d4fde146104d0578063c87b56dd146104f9578063d539139314610536578063d547741f14610561578063e985e9c51461058a5761014b565b8063561892361461036f5780636352211e1461039a57806370a08231146103d757806391d148541461041457806395d89b4114610451578063a217fddf1461047c5761014b565b806323b872dd1161010857806323b872dd14610265578063248a9ca31461028e5780632f2ff15d146102cb57806336568abe146102f457806342842e0e1461031d57806355f804b3146103465761014b565b806301ffc9a71461015a57806306fdde0314610197578063081812fc146101c2578063095ea7b3146101ff5780631c351a9d146102285761014b565b3661014b57005b34801561015757600080fd5b50005b34801561016657600080fd5b50610181600480360381019061017c919061263d565b6105c7565b60405161018e9190612b60565b60405180910390f35b3480156101a357600080fd5b506101ac6105d9565b6040516101b99190612b96565b60405180910390f35b3480156101ce57600080fd5b506101e960048036038101906101e4919061273c565b61066b565b6040516101f69190612af9565b60405180910390f35b34801561020b57600080fd5b5061022660048036038101906102219190612590565b6106b1565b005b34801561023457600080fd5b5061024f600480360381019061024a91906126e0565b6107c9565b60405161025c9190612d98565b60405180910390f35b34801561027157600080fd5b5061028c6004803603810190610287919061247a565b610886565b005b34801561029a57600080fd5b506102b560048036038101906102b091906125d0565b6108e6565b6040516102c29190612b7b565b60405180910390f35b3480156102d757600080fd5b506102f260048036038101906102ed91906125fd565b610906565b005b34801561030057600080fd5b5061031b600480360381019061031691906125fd565b610927565b005b34801561032957600080fd5b50610344600480360381019061033f919061247a565b6109aa565b005b34801561035257600080fd5b5061036d60048036038101906103689190612697565b6109ca565b005b34801561037b57600080fd5b506103846109e4565b6040516103919190612d98565b60405180910390f35b3480156103a657600080fd5b506103c160048036038101906103bc919061273c565b6109f5565b6040516103ce9190612af9565b60405180910390f35b3480156103e357600080fd5b506103fe60048036038101906103f9919061240d565b610aa7565b60405161040b9190612d98565b60405180910390f35b34801561042057600080fd5b5061043b600480360381019061043691906125fd565b610b5f565b6040516104489190612b60565b60405180910390f35b34801561045d57600080fd5b50610466610bca565b6040516104739190612b96565b60405180910390f35b34801561048857600080fd5b50610491610c5c565b60405161049e9190612b7b565b60405180910390f35b3480156104b357600080fd5b506104ce60048036038101906104c99190612550565b610c63565b005b3480156104dc57600080fd5b506104f760048036038101906104f291906124cd565b610c79565b005b34801561050557600080fd5b50610520600480360381019061051b919061273c565b610cdb565b60405161052d9190612b96565b60405180910390f35b34801561054257600080fd5b5061054b610dee565b6040516105589190612b7b565b60405180910390f35b34801561056d57600080fd5b50610588600480360381019061058391906125fd565b610e15565b005b34801561059657600080fd5b506105b160048036038101906105ac919061243a565b610e36565b6040516105be9190612b60565b60405180910390f35b60006105d282610eca565b9050919050565b6060600080546105e89061307c565b80601f01602080910402602001604051908101604052809291908181526020018280546106149061307c565b80156106615780601f1061063657610100808354040283529160200191610661565b820191906000526020600020905b81548152906001019060200180831161064457829003601f168201915b5050505050905090565b600061067682610f44565b6004600083815260200190815260200160002060009054906101000a900473ffffffffffffffffffffffffffffffffffffffff169050919050565b60006106bc826109f5565b90508073ffffffffffffffffffffffffffffffffffffffff168373ffffffffffffffffffffffffffffffffffffffff16141561072d576040517f08c379a000000000000000000000000000000000000000000000000000000000815260040161072490612d38565b60405180910390fd5b8073ffffffffffffffffffffffffffffffffffffffff1661074c610f8f565b73ffffffffffffffffffffffffffffffffffffffff16148061077b575061077a81610775610f8f565b610e36565b5b6107ba576040517f08c379a00000000000000000000000000000000000000000000000000000000081526004016107b190612cd8565b60405180910390fd5b6107c48383610f97565b505050565b6000806107f97f4d494e5445525f524f4c4500000000000000000000000000000000000000000060001b33610b5f565b8061080d575061080c6000801b33610b5f565b5b90508061084f576040517f08c379a000000000000000000000000000000000000000000000000000000000815260040161084690612cb8565b60405180910390fd5b600061085b6008611050565b9050610867848261105e565b610871818661107c565b61087b60086110f0565b809250505092915050565b610897610891610f8f565b82611106565b6108d6576040517f08c379a00000000000000000000000000000000000000000000000000000000081526004016108cd90612d58565b60405180910390fd5b6108e183838361119b565b505050565b600060076000838152602001908152602001600020600101549050919050565b61090f826108e6565b61091881611402565b6109228383611416565b505050565b61092f610f8f565b73ffffffffffffffffffffffffffffffffffffffff168173ffffffffffffffffffffffffffffffffffffffff161461099c576040517f08c379a000000000000000000000000000000000000000000000000000000000815260040161099390612d78565b60405180910390fd5b6109a682826114f7565b5050565b6109c583838360405180602001604052806000815250610c79565b505050565b80600990805190602001906109e092919061220c565b5050565b60006109f06008611050565b905090565b6000806002600084815260200190815260200160002060009054906101000a900473ffffffffffffffffffffffffffffffffffffffff169050600073ffffffffffffffffffffffffffffffffffffffff168173ffffffffffffffffffffffffffffffffffffffff161415610a9e576040517f08c379a0000000000000000000000000000000000000000000000000000000008152600401610a9590612d18565b60405180910390fd5b80915050919050565b60008073ffffffffffffffffffffffffffffffffffffffff168273ffffffffffffffffffffffffffffffffffffffff161415610b18576040517f08c379a0000000000000000000000000000000000000000000000000000000008152600401610b0f90612c78565b60405180910390fd5b600360008373ffffffffffffffffffffffffffffffffffffffff1673ffffffffffffffffffffffffffffffffffffffff168152602001908152602001600020549050919050565b60006007600084815260200190815260200160002060000160008373ffffffffffffffffffffffffffffffffffffffff1673ffffffffffffffffffffffffffffffffffffffff16815260200190815260200160002060009054906101000a900460ff16905092915050565b606060018054610bd99061307c565b80601f0160208091040260200160405190810160405280929190818152602001828054610c059061307c565b8015610c525780601f10610c2757610100808354040283529160200191610c52565b820191906000526020600020905b815481529060010190602001808311610c3557829003601f168201915b5050505050905090565b6000801b81565b610c75610c6e610f8f565b83836115d9565b5050565b610c8a610c84610f8f565b83611106565b610cc9576040517f08c379a0000000000000000000000000000000000000000000000000000000008152600401610cc090612d58565b60405180910390fd5b610cd584848484611746565b50505050565b6060610ce682610f44565b6000600660008481526020019081526020016000208054610d069061307c565b80601f0160208091040260200160405190810160405280929190818152602001828054610d329061307c565b8015610d7f5780601f10610d5457610100808354040283529160200191610d7f565b820191906000526020600020905b815481529060010190602001808311610d6257829003601f168201915b505050505090506000610d906117a2565b9050600081511415610da6578192505050610de9565b600082511115610ddb578082604051602001610dc3929190612a9b565b60405160208183030381529060405292505050610de9565b610de4846117b9565b925050505b919050565b7f4d494e5445525f524f4c4500000000000000000000000000000000000000000060001b81565b610e1e826108e6565b610e2781611402565b610e3183836114f7565b505050565b6000600560008473ffffffffffffffffffffffffffffffffffffffff1673ffffffffffffffffffffffffffffffffffffffff16815260200190815260200160002060008373ffffffffffffffffffffffffffffffffffffffff1673ffffffffffffffffffffffffffffffffffffffff16815260200190815260200160002060009054906101000a900460ff16905092915050565b60007f7965db0b000000000000000000000000000000000000000000000000000000007bffffffffffffffffffffffffffffffffffffffffffffffffffffffff1916827bffffffffffffffffffffffffffffffffffffffffffffffffffffffff19161480610f3d5750610f3c82611821565b5b9050919050565b610f4d81611903565b610f8c576040517f08c379a0000000000000000000000000000000000000000000000000000000008152600401610f8390612d18565b60405180910390fd5b50565b600033905090565b816004600083815260200190815260200160002060006101000a81548173ffffffffffffffffffffffffffffffffffffffff021916908373ffffffffffffffffffffffffffffffffffffffff160217905550808273ffffffffffffffffffffffffffffffffffffffff1661100a836109f5565b73ffffffffffffffffffffffffffffffffffffffff167f8c5be1e5ebec7d5bd14f71427d1e84f3dd0314c0f7b2291e5b200ac8c7c3b92560405160405180910390a45050565b600081600001549050919050565b61107882826040518060200160405280600081525061196f565b5050565b61108582611903565b6110c4576040517f08c379a00000000000000000000000000000000000000000000000000000000081526004016110bb90612c98565b60405180910390fd5b806006600084815260200190815260200160002090805190602001906110eb92919061220c565b505050565b6001816000016000828254019250508190555050565b600080611112836109f5565b90508073ffffffffffffffffffffffffffffffffffffffff168473ffffffffffffffffffffffffffffffffffffffff16148061115457506111538185610e36565b5b8061119257508373ffffffffffffffffffffffffffffffffffffffff1661117a8461066b565b73ffffffffffffffffffffffffffffffffffffffff16145b91505092915050565b8273ffffffffffffffffffffffffffffffffffffffff166111bb826109f5565b73ffffffffffffffffffffffffffffffffffffffff1614611211576040517f08c379a000000000000000000000000000000000000000000000000000000000815260040161120890612bf8565b60405180910390fd5b600073ffffffffffffffffffffffffffffffffffffffff168273ffffffffffffffffffffffffffffffffffffffff161415611281576040517f08c379a000000000000000000000000000000000000000000000000000000000815260040161127890612c38565b60405180910390fd5b61128c8383836119ca565b611297600082610f97565b6001600360008573ffffffffffffffffffffffffffffffffffffffff1673ffffffffffffffffffffffffffffffffffffffff16815260200190815260200160002060008282546112e79190612f5e565b925050819055506001600360008473ffffffffffffffffffffffffffffffffffffffff1673ffffffffffffffffffffffffffffffffffffffff168152602001908152602001600020600082825461133e9190612e7d565b92505081905550816002600083815260200190815260200160002060006101000a81548173ffffffffffffffffffffffffffffffffffffffff021916908373ffffffffffffffffffffffffffffffffffffffff160217905550808273ffffffffffffffffffffffffffffffffffffffff168473ffffffffffffffffffffffffffffffffffffffff167fddf252ad1be2c89b69c2b068fc378daa952ba7f163c4a11628f55a4df523b3ef60405160405180910390a46113fd8383836119cf565b505050565b6114138161140e610f8f565b6119d4565b50565b6114208282610b5f565b6114f35760016007600084815260200190815260200160002060000160008373ffffffffffffffffffffffffffffffffffffffff1673ffffffffffffffffffffffffffffffffffffffff16815260200190815260200160002060006101000a81548160ff021916908315150217905550611498610f8f565b73ffffffffffffffffffffffffffffffffffffffff168173ffffffffffffffffffffffffffffffffffffffff16837f2f8788117e7eff1d82e926ec794901d17c78024a50270940304540a733656f0d60405160405180910390a45b5050565b6115018282610b5f565b156115d55760006007600084815260200190815260200160002060000160008373ffffffffffffffffffffffffffffffffffffffff1673ffffffffffffffffffffffffffffffffffffffff16815260200190815260200160002060006101000a81548160ff02191690831515021790555061157a610f8f565b73ffffffffffffffffffffffffffffffffffffffff168173ffffffffffffffffffffffffffffffffffffffff16837ff6391f5c32d9c69d2a47ea670b442974b53935d1edc7fd64eb21e047a839171b60405160405180910390a45b5050565b8173ffffffffffffffffffffffffffffffffffffffff168373ffffffffffffffffffffffffffffffffffffffff161415611648576040517f08c379a000000000000000000000000000000000000000000000000000000000815260040161163f90612c58565b60405180910390fd5b80600560008573ffffffffffffffffffffffffffffffffffffffff1673ffffffffffffffffffffffffffffffffffffffff16815260200190815260200160002060008473ffffffffffffffffffffffffffffffffffffffff1673ffffffffffffffffffffffffffffffffffffffff16815260200190815260200160002060006101000a81548160ff0219169083151502179055508173ffffffffffffffffffffffffffffffffffffffff168373ffffffffffffffffffffffffffffffffffffffff167f17307eab39ab6107e8899845ad3d59bd9653f200f220920489ca2b5937696c31836040516117399190612b60565b60405180910390a3505050565b61175184848461119b565b61175d84848484611a71565b61179c576040517f08c379a000000000000000000000000000000000000000000000000000000000815260040161179390612bd8565b60405180910390fd5b50505050565b606060405180602001604052806000815250905090565b60606117c482610f44565b60006117ce6117a2565b905060008151116117ee5760405180602001604052806000815250611819565b806117f884611c08565b604051602001611809929190612a9b565b6040516020818303038152906040525b915050919050565b60007f80ac58cd000000000000000000000000000000000000000000000000000000007bffffffffffffffffffffffffffffffffffffffffffffffffffffffff1916827bffffffffffffffffffffffffffffffffffffffffffffffffffffffff191614806118ec57507f5b5e139f000000000000000000000000000000000000000000000000000000007bffffffffffffffffffffffffffffffffffffffffffffffffffffffff1916827bffffffffffffffffffffffffffffffffffffffffffffffffffffffff1916145b806118fc57506118fb82611d69565b5b9050919050565b60008073ffffffffffffffffffffffffffffffffffffffff166002600084815260200190815260200160002060009054906101000a900473ffffffffffffffffffffffffffffffffffffffff1673ffffffffffffffffffffffffffffffffffffffff1614159050919050565b6119798383611dd3565b6119866000848484611a71565b6119c5576040517f08c379a00000000000000000000000000000000000000000000000000000000081526004016119bc90612bd8565b60405180910390fd5b505050565b505050565b505050565b6119de8282610b5f565b611a6d57611a038173ffffffffffffffffffffffffffffffffffffffff166014611fad565b611a118360001c6020611fad565b604051602001611a22929190612abf565b6040516020818303038152906040526040517f08c379a0000000000000000000000000000000000000000000000000000000008152600401611a649190612b96565b60405180910390fd5b5050565b6000611a928473ffffffffffffffffffffffffffffffffffffffff166121e9565b15611bfb578373ffffffffffffffffffffffffffffffffffffffff1663150b7a02611abb610f8f565b8786866040518563ffffffff1660e01b8152600401611add9493929190612b14565b602060405180830381600087803b158015611af757600080fd5b505af1925050508015611b2857506040513d601f19601f82011682018060405250810190611b25919061266a565b60015b611bab573d8060008114611b58576040519150601f19603f3d011682016040523d82523d6000602084013e611b5d565b606091505b50600081511415611ba3576040517f08c379a0000000000000000000000000000000000000000000000000000000008152600401611b9a90612bd8565b60405180910390fd5b805181602001fd5b63150b7a0260e01b7bffffffffffffffffffffffffffffffffffffffffffffffffffffffff1916817bffffffffffffffffffffffffffffffffffffffffffffffffffffffff191614915050611c00565b600190505b949350505050565b60606000821415611c50576040518060400160405280600181526020017f30000000000000000000000000000000000000000000000000000000000000008152509050611d64565b600082905060005b60008214611c82578080611c6b906130df565b915050600a82611c7b9190612ed3565b9150611c58565b60008167ffffffffffffffff811115611c9e57611c9d613215565b5b6040519080825280601f01601f191660200182016040528015611cd05781602001600182028036833780820191505090505b5090505b60008514611d5d57600182611ce99190612f5e565b9150600a85611cf89190613128565b6030611d049190612e7d565b60f81b818381518110611d1a57611d196131e6565b5b60200101907effffffffffffffffffffffffffffffffffffffffffffffffffffffffffffff1916908160001a905350600a85611d569190612ed3565b9450611cd4565b8093505050505b919050565b60007f01ffc9a7000000000000000000000000000000000000000000000000000000007bffffffffffffffffffffffffffffffffffffffffffffffffffffffff1916827bffffffffffffffffffffffffffffffffffffffffffffffffffffffff1916149050919050565b600073ffffffffffffffffffffffffffffffffffffffff168273ffffffffffffffffffffffffffffffffffffffff161415611e43576040517f08c379a0000000000000000000000000000000000000000000000000000000008152600401611e3a90612cf8565b60405180910390fd5b611e4c81611903565b15611e8c576040517f08c379a0000000000000000000000000000000000000000000000000000000008152600401611e8390612c18565b60405180910390fd5b611e98600083836119ca565b6001600360008473ffffffffffffffffffffffffffffffffffffffff1673ffffffffffffffffffffffffffffffffffffffff1681526020019081526020016000206000828254611ee89190612e7d565b92505081905550816002600083815260200190815260200160002060006101000a81548173ffffffffffffffffffffffffffffffffffffffff021916908373ffffffffffffffffffffffffffffffffffffffff160217905550808273ffffffffffffffffffffffffffffffffffffffff16600073ffffffffffffffffffffffffffffffffffffffff167fddf252ad1be2c89b69c2b068fc378daa952ba7f163c4a11628f55a4df523b3ef60405160405180910390a4611fa9600083836119cf565b5050565b606060006002836002611fc09190612f04565b611fca9190612e7d565b67ffffffffffffffff811115611fe357611fe2613215565b5b6040519080825280601f01601f1916602001820160405280156120155781602001600182028036833780820191505090505b5090507f30000000000000000000000000000000000000000000000000000000000000008160008151811061204d5761204c6131e6565b5b60200101907effffffffffffffffffffffffffffffffffffffffffffffffffffffffffffff1916908160001a9053507f7800000000000000000000000000000000000000000000000000000000000000816001815181106120b1576120b06131e6565b5b60200101907effffffffffffffffffffffffffffffffffffffffffffffffffffffffffffff1916908160001a905350600060018460026120f19190612f04565b6120fb9190612e7d565b90505b600181111561219b577f3031323334353637383961626364656600000000000000000000000000000000600f86166010811061213d5761213c6131e6565b5b1a60f81b828281518110612154576121536131e6565b5b60200101907effffffffffffffffffffffffffffffffffffffffffffffffffffffffffffff1916908160001a905350600485901c94508061219490613052565b90506120fe565b50600084146121df576040517f08c379a00000000000000000000000000000000000000000000000000000000081526004016121d690612bb8565b60405180910390fd5b8091505092915050565b6000808273ffffffffffffffffffffffffffffffffffffffff163b119050919050565b8280546122189061307c565b90600052602060002090601f01602090048101928261223a5760008555612281565b82601f1061225357805160ff1916838001178555612281565b82800160010185558215612281579182015b82811115612280578251825591602001919060010190612265565b5b50905061228e9190612292565b5090565b5b808211156122ab576000816000905550600101612293565b5090565b60006122c26122bd84612dd8565b612db3565b9050828152602081018484840111156122de576122dd613249565b5b6122e9848285613010565b509392505050565b60006123046122ff84612e09565b612db3565b9050828152602081018484840111156123205761231f613249565b5b61232b848285613010565b509392505050565b6000813590506123428161369e565b92915050565b600081359050612357816136b5565b92915050565b60008135905061236c816136cc565b92915050565b600081359050612381816136e3565b92915050565b600081519050612396816136e3565b92915050565b600082601f8301126123b1576123b0613244565b5b81356123c18482602086016122af565b91505092915050565b600082601f8301126123df576123de613244565b5b81356123ef8482602086016122f1565b91505092915050565b600081359050612407816136fa565b92915050565b60006020828403121561242357612422613253565b5b600061243184828501612333565b91505092915050565b6000806040838503121561245157612450613253565b5b600061245f85828601612333565b925050602061247085828601612333565b9150509250929050565b60008060006060848603121561249357612492613253565b5b60006124a186828701612333565b93505060206124b286828701612333565b92505060406124c3868287016123f8565b9150509250925092565b600080600080608085870312156124e7576124e6613253565b5b60006124f587828801612333565b945050602061250687828801612333565b9350506040612517878288016123f8565b925050606085013567ffffffffffffffff8111156125385761253761324e565b5b6125448782880161239c565b91505092959194509250565b6000806040838503121561256757612566613253565b5b600061257585828601612333565b925050602061258685828601612348565b9150509250929050565b600080604083850312156125a7576125a6613253565b5b60006125b585828601612333565b92505060206125c6858286016123f8565b9150509250929050565b6000602082840312156125e6576125e5613253565b5b60006125f48482850161235d565b91505092915050565b6000806040838503121561261457612613613253565b5b60006126228582860161235d565b925050602061263385828601612333565b9150509250929050565b60006020828403121561265357612652613253565b5b600061266184828501612372565b91505092915050565b6000602082840312156126805761267f613253565b5b600061268e84828501612387565b91505092915050565b6000602082840312156126ad576126ac613253565b5b600082013567ffffffffffffffff8111156126cb576126ca61324e565b5b6126d7848285016123ca565b91505092915050565b600080604083850312156126f7576126f6613253565b5b600083013567ffffffffffffffff8111156127155761271461324e565b5b612721858286016123ca565b925050602061273285828601612333565b9150509250929050565b60006020828403121561275257612751613253565b5b6000612760848285016123f8565b91505092915050565b61277281612f92565b82525050565b61278181612fa4565b82525050565b61279081612fb0565b82525050565b60006127a182612e3a565b6127ab8185612e50565b93506127bb81856020860161301f565b6127c481613258565b840191505092915050565b60006127da82612e45565b6127e48185612e61565b93506127f481856020860161301f565b6127fd81613258565b840191505092915050565b600061281382612e45565b61281d8185612e72565b935061282d81856020860161301f565b80840191505092915050565b6000612846602083612e61565b915061285182613269565b602082019050919050565b6000612869603283612e61565b915061287482613292565b604082019050919050565b600061288c602583612e61565b9150612897826132e1565b604082019050919050565b60006128af601c83612e61565b91506128ba82613330565b602082019050919050565b60006128d2602483612e61565b91506128dd82613359565b604082019050919050565b60006128f5601983612e61565b9150612900826133a8565b602082019050919050565b6000612918602983612e61565b9150612923826133d1565b604082019050919050565b600061293b602e83612e61565b915061294682613420565b604082019050919050565b600061295e602183612e61565b91506129698261346f565b604082019050919050565b6000612981603e83612e61565b915061298c826134be565b604082019050919050565b60006129a4602083612e61565b91506129af8261350d565b602082019050919050565b60006129c7601883612e61565b91506129d282613536565b602082019050919050565b60006129ea602183612e61565b91506129f58261355f565b604082019050919050565b6000612a0d601783612e72565b9150612a18826135ae565b601782019050919050565b6000612a30602e83612e61565b9150612a3b826135d7565b604082019050919050565b6000612a53601183612e72565b9150612a5e82613626565b601182019050919050565b6000612a76602f83612e61565b9150612a818261364f565b604082019050919050565b612a9581613006565b82525050565b6000612aa78285612808565b9150612ab38284612808565b91508190509392505050565b6000612aca82612a00565b9150612ad68285612808565b9150612ae182612a46565b9150612aed8284612808565b91508190509392505050565b6000602082019050612b0e6000830184612769565b92915050565b6000608082019050612b296000830187612769565b612b366020830186612769565b612b436040830185612a8c565b8181036060830152612b558184612796565b905095945050505050565b6000602082019050612b756000830184612778565b92915050565b6000602082019050612b906000830184612787565b92915050565b60006020820190508181036000830152612bb081846127cf565b905092915050565b60006020820190508181036000830152612bd181612839565b9050919050565b60006020820190508181036000830152612bf18161285c565b9050919050565b60006020820190508181036000830152612c118161287f565b9050919050565b60006020820190508181036000830152612c31816128a2565b9050919050565b60006020820190508181036000830152612c51816128c5565b9050919050565b60006020820190508181036000830152612c71816128e8565b9050919050565b60006020820190508181036000830152612c918161290b565b9050919050565b60006020820190508181036000830152612cb18161292e565b9050919050565b60006020820190508181036000830152612cd181612951565b9050919050565b60006020820190508181036000830152612cf181612974565b9050919050565b60006020820190508181036000830152612d1181612997565b9050919050565b60006020820190508181036000830152612d31816129ba565b9050919050565b60006020820190508181036000830152612d51816129dd565b9050919050565b60006020820190508181036000830152612d7181612a23565b9050919050565b60006020820190508181036000830152612d9181612a69565b9050919050565b6000602082019050612dad6000830184612a8c565b92915050565b6000612dbd612dce565b9050612dc982826130ae565b919050565b6000604051905090565b600067ffffffffffffffff821115612df357612df2613215565b5b612dfc82613258565b9050602081019050919050565b600067ffffffffffffffff821115612e2457612e23613215565b5b612e2d82613258565b9050602081019050919050565b600081519050919050565b600081519050919050565b600082825260208201905092915050565b600082825260208201905092915050565b600081905092915050565b6000612e8882613006565b9150612e9383613006565b9250827fffffffffffffffffffffffffffffffffffffffffffffffffffffffffffffffff03821115612ec857612ec7613159565b5b828201905092915050565b6000612ede82613006565b9150612ee983613006565b925082612ef957612ef8613188565b5b828204905092915050565b6000612f0f82613006565b9150612f1a83613006565b9250817fffffffffffffffffffffffffffffffffffffffffffffffffffffffffffffffff0483118215151615612f5357612f52613159565b5b828202905092915050565b6000612f6982613006565b9150612f7483613006565b925082821015612f8757612f86613159565b5b828203905092915050565b6000612f9d82612fe6565b9050919050565b60008115159050919050565b6000819050919050565b60007fffffffff0000000000000000000000000000000000000000000000000000000082169050919050565b600073ffffffffffffffffffffffffffffffffffffffff82169050919050565b6000819050919050565b82818337600083830152505050565b60005b8381101561303d578082015181840152602081019050613022565b8381111561304c576000848401525b50505050565b600061305d82613006565b9150600082141561307157613070613159565b5b600182039050919050565b6000600282049050600182168061309457607f821691505b602082108114156130a8576130a76131b7565b5b50919050565b6130b782613258565b810181811067ffffffffffffffff821117156130d6576130d5613215565b5b80604052505050565b60006130ea82613006565b91507fffffffffffffffffffffffffffffffffffffffffffffffffffffffffffffffff82141561311d5761311c613159565b5b600182019050919050565b600061313382613006565b915061313e83613006565b92508261314e5761314d613188565b5b828206905092915050565b7f4e487b7100000000000000000000000000000000000000000000000000000000600052601160045260246000fd5b7f4e487b7100000000000000000000000000000000000000000000000000000000600052601260045260246000fd5b7f4e487b7100000000000000000000000000000000000000000000000000000000600052602260045260246000fd5b7f4e487b7100000000000000000000000000000000000000000000000000000000600052603260045260246000fd5b7f4e487b7100000000000000000000000000000000000000000000000000000000600052604160045260246000fd5b600080fd5b600080fd5b600080fd5b600080fd5b6000601f19601f8301169050919050565b7f537472696e67733a20686578206c656e67746820696e73756666696369656e74600082015250565b7f4552433732313a207472616e7366657220746f206e6f6e20455243373231526560008201527f63656976657220696d706c656d656e7465720000000000000000000000000000602082015250565b7f4552433732313a207472616e736665722066726f6d20696e636f72726563742060008201527f6f776e6572000000000000000000000000000000000000000000000000000000602082015250565b7f4552433732313a20746f6b656e20616c7265616479206d696e74656400000000600082015250565b7f4552433732313a207472616e7366657220746f20746865207a65726f2061646460008201527f7265737300000000000000000000000000000000000000000000000000000000602082015250565b7f4552433732313a20617070726f766520746f2063616c6c657200000000000000600082015250565b7f4552433732313a2061646472657373207a65726f206973206e6f74206120766160008201527f6c6964206f776e65720000000000000000000000000000000000000000000000602082015250565b7f45524337323155524953746f726167653a2055524920736574206f66206e6f6e60008201527f6578697374656e7420746f6b656e000000000000000000000000000000000000602082015250565b7f43616c6c657220686173206e6f207065726d697373696f6e20746f206d696e7460008201527f2e00000000000000000000000000000000000000000000000000000000000000602082015250565b7f4552433732313a20617070726f76652063616c6c6572206973206e6f7420746f60008201527f6b656e206f776e6572206e6f7220617070726f76656420666f7220616c6c0000602082015250565b7f4552433732313a206d696e7420746f20746865207a65726f2061646472657373600082015250565b7f4552433732313a20696e76616c696420746f6b656e2049440000000000000000600082015250565b7f4552433732313a20617070726f76616c20746f2063757272656e74206f776e6560008201527f7200000000000000000000000000000000000000000000000000000000000000602082015250565b7f416363657373436f6e74726f6c3a206163636f756e7420000000000000000000600082015250565b7f4552433732313a2063616c6c6572206973206e6f7420746f6b656e206f776e6560008201527f72206e6f7220617070726f766564000000000000000000000000000000000000602082015250565b7f206973206d697373696e6720726f6c6520000000000000000000000000000000600082015250565b7f416363657373436f6e74726f6c3a2063616e206f6e6c792072656e6f756e636560008201527f20726f6c657320666f722073656c660000000000000000000000000000000000602082015250565b6136a781612f92565b81146136b257600080fd5b50565b6136be81612fa4565b81146136c957600080fd5b50565b6136d581612fb0565b81146136e057600080fd5b50565b6136ec81612fba565b81146136f757600080fd5b50565b61370381613006565b811461370e57600080fd5b5056fea264697066735822122006caf0d135737649614cb40c831b48d96b862d843be7949f6386544d4d548a6164736f6c63430008070033",
  "linkReferences": {},
  "deployedLinkReferences": {}
}