{
  "_format": "hh-sol-artifact-1",
  "contractName": "SitesNFTs",
  "sourceName": "contracts/SitesNFTs.sol",
  "abi": [
    {
      "inputs": [
        {
          "internalType": "string",
          "name": "name",
          "type": "string"
        },
        {
          "internalType": "string",
          "name": "symbol",
          "type": "string"
        }
      ],
      "stateMutability": "nonpayable",
      "type": "constructor"
    },
    {
      "anonymous": false,
      "inputs": [
        {
          "indexed": true,
          "internalType": "address",
          "name": "owner",
          "type": "address"
        },
        {
          "indexed": true,
          "internalType": "address",
          "name": "approved",
          "type": "address"
        },
        {
          "indexed": true,
          "internalType": "uint256",
          "name": "tokenId",
          "type": "uint256"
        }
      ],
      "name": "Approval",
      "type": "event"
    },
    {
      "anonymous": false,
      "inputs": [
        {
          "indexed": true,
          "internalType": "address",
          "name": "owner",
          "type": "address"
        },
        {
          "indexed": true,
          "internalType": "address",
          "name": "operator",
          "type": "address"
        },
        {
          "indexed": false,
          "internalType": "bool",
          "name": "approved",
          "type": "bool"
        }
      ],
      "name": "ApprovalForAll",
      "type": "event"
    },
    {
      "anonymous": false,
      "inputs": [
        {
          "indexed": true,
          "internalType": "bytes32",
          "name": "role",
          "type": "bytes32"
        },
        {
          "indexed": true,
          "internalType": "bytes32",
          "name": "previousAdminRole",
          "type": "bytes32"
        },
        {
          "indexed": true,
          "internalType": "bytes32",
          "name": "newAdminRole",
          "type": "bytes32"
        }
      ],
      "name": "RoleAdminChanged",
      "type": "event"
    },
    {
      "anonymous": false,
      "inputs": [
        {
          "indexed": true,
          "internalType": "bytes32",
          "name": "role",
          "type": "bytes32"
        },
        {
          "indexed": true,
          "internalType": "address",
          "name": "account",
          "type": "address"
        },
        {
          "indexed": true,
          "internalType": "address",
          "name": "sender",
          "type": "address"
        }
      ],
      "name": "RoleGranted",
      "type": "event"
    },
    {
      "anonymous": false,
      "inputs": [
        {
          "indexed": true,
          "internalType": "bytes32",
          "name": "role",
          "type": "bytes32"
        },
        {
          "indexed": true,
          "internalType": "address",
          "name": "account",
          "type": "address"
        },
        {
          "indexed": true,
          "internalType": "address",
          "name": "sender",
          "type": "address"
        }
      ],
      "name": "RoleRevoked",
      "type": "event"
    },
    {
      "anonymous": false,
      "inputs": [
        {
          "indexed": true,
          "internalType": "address",
          "name": "from",
          "type": "address"
        },
        {
          "indexed": true,
          "internalType": "address",
          "name": "to",
          "type": "address"
        },
        {
          "indexed": true,
          "internalType": "uint256",
          "name": "tokenId",
          "type": "uint256"
        }
      ],
      "name": "Transfer",
      "type": "event"
    },
    {
      "stateMutability": "nonpayable",
      "type": "fallback"
    },
    {
      "inputs": [],
      "name": "DEFAULT_ADMIN_ROLE",
      "outputs": [
        {
          "internalType": "bytes32",
          "name": "",
          "type": "bytes32"
        }
      ],
      "stateMutability": "view",
      "type": "function"
    },
    {
      "inputs": [],
      "name": "MINTER_ROLE",
      "outputs": [
        {
          "internalType": "bytes32",
          "name": "",
          "type": "bytes32"
        }
      ],
      "stateMutability": "view",
      "type": "function"
    },
    {
      "inputs": [
        {
          "internalType": "address",
          "name": "to",
          "type": "address"
        },
        {
          "internalType": "uint256",
          "name": "tokenId",
          "type": "uint256"
        }
      ],
      "name": "approve",
      "outputs": [],
      "stateMutability": "nonpayable",
      "type": "function"
    },
    {
      "inputs": [
        {
          "internalType": "address",
          "name": "owner",
          "type": "address"
        }
      ],
      "name": "balanceOf",
      "outputs": [
        {
          "internalType": "uint256",
          "name": "",
          "type": "uint256"
        }
      ],
      "stateMutability": "view",
      "type": "function"
    },
    {
      "inputs": [
        {
          "internalType": "uint256",
          "name": "tokenId",
          "type": "uint256"
        }
      ],
      "name": "getApproved",
      "outputs": [
        {
          "internalType": "address",
          "name": "",
          "type": "address"
        }
      ],
      "stateMutability": "view",
      "type": "function"
    },
    {
      "inputs": [],
      "name": "getCurrentTokenId",
      "outputs": [
        {
          "internalType": "uint256",
          "name": "",
          "type": "uint256"
        }
      ],
      "stateMutability": "view",
      "type": "function"
    },
    {
      "inputs": [
        {
          "internalType": "bytes32",
          "name": "role",
          "type": "bytes32"
        }
      ],
      "name": "getRoleAdmin",
      "outputs": [
        {
          "internalType": "bytes32",
          "name": "",
          "type": "bytes32"
        }
      ],
      "stateMutability": "view",
      "type": "function"
    },
    {
      "inputs": [
        {
          "internalType": "bytes32",
          "name": "role",
          "type": "bytes32"
        },
        {
          "internalType": "address",
          "name": "account",
          "type": "address"
        }
      ],
      "name": "grantRole",
      "outputs": [],
      "stateMutability": "nonpayable",
      "type": "function"
    },
    {
      "inputs": [
        {
          "internalType": "bytes32",
          "name": "role",
          "type": "bytes32"
        },
        {
          "internalType": "address",
          "name": "account",
          "type": "address"
        }
      ],
      "name": "hasRole",
      "outputs": [
        {
          "internalType": "bool",
          "name": "",
          "type": "bool"
        }
      ],
      "stateMutability": "view",
      "type": "function"
    },
    {
      "inputs": [
        {
          "internalType": "address",
          "name": "owner",
          "type": "address"
        },
        {
          "internalType": "address",
          "name": "operator",
          "type": "address"
        }
      ],
      "name": "isApprovedForAll",
      "outputs": [
        {
          "internalType": "bool",
          "name": "",
          "type": "bool"
        }
      ],
      "stateMutability": "view",
      "type": "function"
    },
    {
      "inputs": [
        {
          "internalType": "string",
          "name": "_tokenURI",
          "type": "string"
        }
      ],
      "name": "mintNFT",
      "outputs": [
        {
          "internalType": "uint256",
          "name": "",
          "type": "uint256"
        }
      ],
      "stateMutability": "nonpayable",
      "type": "function"
    },
    {
      "inputs": [],
      "name": "name",
      "outputs": [
        {
          "internalType": "string",
          "name": "",
          "type": "string"
        }
      ],
      "stateMutability": "view",
      "type": "function"
    },
    {
      "inputs": [
        {
          "internalType": "uint256",
          "name": "tokenId",
          "type": "uint256"
        }
      ],
      "name": "ownerOf",
      "outputs": [
        {
          "internalType": "address",
          "name": "",
          "type": "address"
        }
      ],
      "stateMutability": "view",
      "type": "function"
    },
    {
      "inputs": [
        {
          "internalType": "bytes32",
          "name": "role",
          "type": "bytes32"
        },
        {
          "internalType": "address",
          "name": "account",
          "type": "address"
        }
      ],
      "name": "renounceRole",
      "outputs": [],
      "stateMutability": "nonpayable",
      "type": "function"
    },
    {
      "inputs": [
        {
          "internalType": "bytes32",
          "name": "role",
          "type": "bytes32"
        },
        {
          "internalType": "address",
          "name": "account",
          "type": "address"
        }
      ],
      "name": "revokeRole",
      "outputs": [],
      "stateMutability": "nonpayable",
      "type": "function"
    },
    {
      "inputs": [
        {
          "internalType": "address",
          "name": "from",
          "type": "address"
        },
        {
          "internalType": "address",
          "name": "to",
          "type": "address"
        },
        {
          "internalType": "uint256",
          "name": "tokenId",
          "type": "uint256"
        }
      ],
      "name": "safeTransferFrom",
      "outputs": [],
      "stateMutability": "nonpayable",
      "type": "function"
    },
    {
      "inputs": [
        {
          "internalType": "address",
          "name": "from",
          "type": "address"
        },
        {
          "internalType": "address",
          "name": "to",
          "type": "address"
        },
        {
          "internalType": "uint256",
          "name": "tokenId",
          "type": "uint256"
        },
        {
          "internalType": "bytes",
          "name": "data",
          "type": "bytes"
        }
      ],
      "name": "safeTransferFrom",
      "outputs": [],
      "stateMutability": "nonpayable",
      "type": "function"
    },
    {
      "inputs": [
        {
          "internalType": "address",
          "name": "operator",
          "type": "address"
        },
        {
          "internalType": "bool",
          "name": "approved",
          "type": "bool"
        }
      ],
      "name": "setApprovalForAll",
      "outputs": [],
      "stateMutability": "nonpayable",
      "type": "function"
    },
    {
      "inputs": [
        {
          "internalType": "string",
          "name": "_newBbaseURI",
          "type": "string"
        }
      ],
      "name": "setBaseURI",
      "outputs": [],
      "stateMutability": "nonpayable",
      "type": "function"
    },
    {
      "inputs": [
        {
          "internalType": "bytes4",
          "name": "interfaceId",
          "type": "bytes4"
        }
      ],
      "name": "supportsInterface",
      "outputs": [
        {
          "internalType": "bool",
          "name": "",
          "type": "bool"
        }
      ],
      "stateMutability": "view",
      "type": "function"
    },
    {
      "inputs": [],
      "name": "symbol",
      "outputs": [
        {
          "internalType": "string",
          "name": "",
          "type": "string"
        }
      ],
      "stateMutability": "view",
      "type": "function"
    },
    {
      "inputs": [
        {
          "internalType": "uint256",
          "name": "tokenId",
          "type": "uint256"
        }
      ],
      "name": "tokenURI",
      "outputs": [
        {
          "internalType": "string",
          "name": "",
          "type": "string"
        }
      ],
      "stateMutability": "view",
      "type": "function"
    },
    {
      "inputs": [
        {
          "internalType": "address",
          "name": "from",
          "type": "address"
        },
        {
          "internalType": "address",
          "name": "to",
          "type": "address"
        },
        {
          "internalType": "uint256",
          "name": "tokenId",
          "type": "uint256"
        }
      ],
      "name": "transferFrom",
      "outputs": [],
      "stateMutability": "nonpayable",
      "type": "function"
    },
    {
      "stateMutability": "payable",
      "type": "receive"
    }
  ],
  "bytecode": "0x60806040523480156200001157600080fd5b5060405162003b9538038062003b95833981810160405281019062000037919062000381565b818181600090805190602001906200005192919062000253565b5080600190805190602001906200006a92919062000253565b5050506040518060400160405280601d81526020017f646174613a6170706c69636174696f6e2f6a736f6e3b6261736536342c00000081525060099080519060200190620000ba92919062000253565b50620000d06000801b33620000d860201b60201c565b50506200058a565b620000ea8282620000ee60201b60201c565b5050565b620001008282620001e060201b60201c565b620001dc5760016007600084815260200190815260200160002060000160008373ffffffffffffffffffffffffffffffffffffffff1673ffffffffffffffffffffffffffffffffffffffff16815260200190815260200160002060006101000a81548160ff021916908315150217905550620001816200024b60201b60201c565b73ffffffffffffffffffffffffffffffffffffffff168173ffffffffffffffffffffffffffffffffffffffff16837f2f8788117e7eff1d82e926ec794901d17c78024a50270940304540a733656f0d60405160405180910390a45b5050565b60006007600084815260200190815260200160002060000160008373ffffffffffffffffffffffffffffffffffffffff1673ffffffffffffffffffffffffffffffffffffffff16815260200190815260200160002060009054906101000a900460ff16905092915050565b600033905090565b82805462000261906200049b565b90600052602060002090601f016020900481019282620002855760008555620002d1565b82601f10620002a057805160ff1916838001178555620002d1565b82800160010185558215620002d1579182015b82811115620002d0578251825591602001919060010190620002b3565b5b509050620002e09190620002e4565b5090565b5b80821115620002ff576000816000905550600101620002e5565b5090565b60006200031a62000314846200042f565b62000406565b9050828152602081018484840111156200033957620003386200056a565b5b6200034684828562000465565b509392505050565b600082601f83011262000366576200036562000565565b5b81516200037884826020860162000303565b91505092915050565b600080604083850312156200039b576200039a62000574565b5b600083015167ffffffffffffffff811115620003bc57620003bb6200056f565b5b620003ca858286016200034e565b925050602083015167ffffffffffffffff811115620003ee57620003ed6200056f565b5b620003fc858286016200034e565b9150509250929050565b60006200041262000425565b9050620004208282620004d1565b919050565b6000604051905090565b600067ffffffffffffffff8211156200044d576200044c62000536565b5b620004588262000579565b9050602081019050919050565b60005b838110156200048557808201518184015260208101905062000468565b8381111562000495576000848401525b50505050565b60006002820490506001821680620004b457607f821691505b60208210811415620004cb57620004ca62000507565b5b50919050565b620004dc8262000579565b810181811067ffffffffffffffff82111715620004fe57620004fd62000536565b5b80604052505050565b7f4e487b7100000000000000000000000000000000000000000000000000000000600052602260045260246000fd5b7f4e487b7100000000000000000000000000000000000000000000000000000000600052604160045260246000fd5b600080fd5b600080fd5b600080fd5b600080fd5b6000601f19601f8301169050919050565b6135fb806200059a6000396000f3fe6080604052600436106101445760003560e01c80636352211e116100b6578063b88d4fde1161006f578063b88d4fde14610493578063c87b56dd146104bc578063d5391393146104f9578063d547741f14610524578063e985e9c51461054d578063fb37e8831461058a5761014b565b80636352211e1461035d57806370a082311461039a57806391d14854146103d757806395d89b4114610414578063a217fddf1461043f578063a22cb4651461046a5761014b565b8063248a9ca311610108578063248a9ca3146102515780632f2ff15d1461028e57806336568abe146102b757806342842e0e146102e057806355f804b31461030957806356189236146103325761014b565b806301ffc9a71461015a57806306fdde0314610197578063081812fc146101c2578063095ea7b3146101ff57806323b872dd146102285761014b565b3661014b57005b34801561015757600080fd5b50005b34801561016657600080fd5b50610181600480360381019061017c91906125df565b6105c7565b60405161018e9190612a83565b60405180910390f35b3480156101a357600080fd5b506101ac6105d9565b6040516101b99190612ab9565b60405180910390f35b3480156101ce57600080fd5b506101e960048036038101906101e49190612682565b61066b565b6040516101f69190612a1c565b60405180910390f35b34801561020b57600080fd5b5061022660048036038101906102219190612532565b6106b1565b005b34801561023457600080fd5b5061024f600480360381019061024a919061241c565b6107c9565b005b34801561025d57600080fd5b5061027860048036038101906102739190612572565b610829565b6040516102859190612a9e565b60405180910390f35b34801561029a57600080fd5b506102b560048036038101906102b0919061259f565b610849565b005b3480156102c357600080fd5b506102de60048036038101906102d9919061259f565b61086a565b005b3480156102ec57600080fd5b506103076004803603810190610302919061241c565b6108ed565b005b34801561031557600080fd5b50610330600480360381019061032b9190612639565b61090d565b005b34801561033e57600080fd5b50610347610927565b6040516103549190612c9b565b60405180910390f35b34801561036957600080fd5b50610384600480360381019061037f9190612682565b610938565b6040516103919190612a1c565b60405180910390f35b3480156103a657600080fd5b506103c160048036038101906103bc91906123af565b6109ea565b6040516103ce9190612c9b565b60405180910390f35b3480156103e357600080fd5b506103fe60048036038101906103f9919061259f565b610aa2565b60405161040b9190612a83565b60405180910390f35b34801561042057600080fd5b50610429610b0d565b6040516104369190612ab9565b60405180910390f35b34801561044b57600080fd5b50610454610b9f565b6040516104619190612a9e565b60405180910390f35b34801561047657600080fd5b50610491600480360381019061048c91906124f2565b610ba6565b005b34801561049f57600080fd5b506104ba60048036038101906104b5919061246f565b610bbc565b005b3480156104c857600080fd5b506104e360048036038101906104de9190612682565b610c1e565b6040516104f09190612ab9565b60405180910390f35b34801561050557600080fd5b5061050e610d31565b60405161051b9190612a9e565b60405180910390f35b34801561053057600080fd5b5061054b6004803603810190610546919061259f565b610d55565b005b34801561055957600080fd5b50610574600480360381019061056f91906123dc565b610d76565b6040516105819190612a83565b60405180910390f35b34801561059657600080fd5b506105b160048036038101906105ac9190612639565b610e0a565b6040516105be9190612c9b565b60405180910390f35b60006105d282610e6c565b9050919050565b6060600080546105e890612f7f565b80601f016020809104026020016040519081016040528092919081815260200182805461061490612f7f565b80156106615780601f1061063657610100808354040283529160200191610661565b820191906000526020600020905b81548152906001019060200180831161064457829003601f168201915b5050505050905090565b600061067682610ee6565b6004600083815260200190815260200160002060009054906101000a900473ffffffffffffffffffffffffffffffffffffffff169050919050565b60006106bc82610938565b90508073ffffffffffffffffffffffffffffffffffffffff168373ffffffffffffffffffffffffffffffffffffffff16141561072d576040517f08c379a000000000000000000000000000000000000000000000000000000000815260040161072490612c3b565b60405180910390fd5b8073ffffffffffffffffffffffffffffffffffffffff1661074c610f31565b73ffffffffffffffffffffffffffffffffffffffff16148061077b575061077a81610775610f31565b610d76565b5b6107ba576040517f08c379a00000000000000000000000000000000000000000000000000000000081526004016107b190612bdb565b60405180910390fd5b6107c48383610f39565b505050565b6107da6107d4610f31565b82610ff2565b610819576040517f08c379a000000000000000000000000000000000000000000000000000000000815260040161081090612c5b565b60405180910390fd5b610824838383611087565b505050565b600060076000838152602001908152602001600020600101549050919050565b61085282610829565b61085b816112ee565b6108658383611302565b505050565b610872610f31565b73ffffffffffffffffffffffffffffffffffffffff168173ffffffffffffffffffffffffffffffffffffffff16146108df576040517f08c379a00000000000000000000000000000000000000000000000000000000081526004016108d690612c7b565b60405180910390fd5b6108e982826113e3565b5050565b61090883838360405180602001604052806000815250610bbc565b505050565b80600990805190602001906109239291906121ae565b5050565b600061093360086114c5565b905090565b6000806002600084815260200190815260200160002060009054906101000a900473ffffffffffffffffffffffffffffffffffffffff169050600073ffffffffffffffffffffffffffffffffffffffff168173ffffffffffffffffffffffffffffffffffffffff1614156109e1576040517f08c379a00000000000000000000000000000000000000000000000000000000081526004016109d890612c1b565b60405180910390fd5b80915050919050565b60008073ffffffffffffffffffffffffffffffffffffffff168273ffffffffffffffffffffffffffffffffffffffff161415610a5b576040517f08c379a0000000000000000000000000000000000000000000000000000000008152600401610a5290612b9b565b60405180910390fd5b600360008373ffffffffffffffffffffffffffffffffffffffff1673ffffffffffffffffffffffffffffffffffffffff168152602001908152602001600020549050919050565b60006007600084815260200190815260200160002060000160008373ffffffffffffffffffffffffffffffffffffffff1673ffffffffffffffffffffffffffffffffffffffff16815260200190815260200160002060009054906101000a900460ff16905092915050565b606060018054610b1c90612f7f565b80601f0160208091040260200160405190810160405280929190818152602001828054610b4890612f7f565b8015610b955780601f10610b6a57610100808354040283529160200191610b95565b820191906000526020600020905b815481529060010190602001808311610b7857829003601f168201915b5050505050905090565b6000801b81565b610bb8610bb1610f31565b83836114d3565b5050565b610bcd610bc7610f31565b83610ff2565b610c0c576040517f08c379a0000000000000000000000000000000000000000000000000000000008152600401610c0390612c5b565b60405180910390fd5b610c1884848484611640565b50505050565b6060610c2982610ee6565b6000600660008481526020019081526020016000208054610c4990612f7f565b80601f0160208091040260200160405190810160405280929190818152602001828054610c7590612f7f565b8015610cc25780601f10610c9757610100808354040283529160200191610cc2565b820191906000526020600020905b815481529060010190602001808311610ca557829003601f168201915b505050505090506000610cd361169c565b9050600081511415610ce9578192505050610d2c565b600082511115610d1e578082604051602001610d069291906129be565b60405160208183030381529060405292505050610d2c565b610d27846116b3565b925050505b919050565b7f9f2df0fed2c77648de5860a4cc508cd0818c85b8b8a1ab4ceeef8d981c8956a681565b610d5e82610829565b610d67816112ee565b610d7183836113e3565b505050565b6000600560008473ffffffffffffffffffffffffffffffffffffffff1673ffffffffffffffffffffffffffffffffffffffff16815260200190815260200160002060008373ffffffffffffffffffffffffffffffffffffffff1673ffffffffffffffffffffffffffffffffffffffff16815260200190815260200160002060009054906101000a900460ff16905092915050565b60007f9f2df0fed2c77648de5860a4cc508cd0818c85b8b8a1ab4ceeef8d981c8956a6610e36816112ee565b6000610e4260086114c5565b9050610e4e338261171b565b610e588185611739565b610e6260086117ad565b8092505050919050565b60007f7965db0b000000000000000000000000000000000000000000000000000000007bffffffffffffffffffffffffffffffffffffffffffffffffffffffff1916827bffffffffffffffffffffffffffffffffffffffffffffffffffffffff19161480610edf5750610ede826117c3565b5b9050919050565b610eef816118a5565b610f2e576040517f08c379a0000000000000000000000000000000000000000000000000000000008152600401610f2590612c1b565b60405180910390fd5b50565b600033905090565b816004600083815260200190815260200160002060006101000a81548173ffffffffffffffffffffffffffffffffffffffff021916908373ffffffffffffffffffffffffffffffffffffffff160217905550808273ffffffffffffffffffffffffffffffffffffffff16610fac83610938565b73ffffffffffffffffffffffffffffffffffffffff167f8c5be1e5ebec7d5bd14f71427d1e84f3dd0314c0f7b2291e5b200ac8c7c3b92560405160405180910390a45050565b600080610ffe83610938565b90508073ffffffffffffffffffffffffffffffffffffffff168473ffffffffffffffffffffffffffffffffffffffff161480611040575061103f8185610d76565b5b8061107e57508373ffffffffffffffffffffffffffffffffffffffff166110668461066b565b73ffffffffffffffffffffffffffffffffffffffff16145b91505092915050565b8273ffffffffffffffffffffffffffffffffffffffff166110a782610938565b73ffffffffffffffffffffffffffffffffffffffff16146110fd576040517f08c379a00000000000000000000000000000000000000000000000000000000081526004016110f490612b1b565b60405180910390fd5b600073ffffffffffffffffffffffffffffffffffffffff168273ffffffffffffffffffffffffffffffffffffffff16141561116d576040517f08c379a000000000000000000000000000000000000000000000000000000000815260040161116490612b5b565b60405180910390fd5b611178838383611911565b611183600082610f39565b6001600360008573ffffffffffffffffffffffffffffffffffffffff1673ffffffffffffffffffffffffffffffffffffffff16815260200190815260200160002060008282546111d39190612e61565b925050819055506001600360008473ffffffffffffffffffffffffffffffffffffffff1673ffffffffffffffffffffffffffffffffffffffff168152602001908152602001600020600082825461122a9190612d80565b92505081905550816002600083815260200190815260200160002060006101000a81548173ffffffffffffffffffffffffffffffffffffffff021916908373ffffffffffffffffffffffffffffffffffffffff160217905550808273ffffffffffffffffffffffffffffffffffffffff168473ffffffffffffffffffffffffffffffffffffffff167fddf252ad1be2c89b69c2b068fc378daa952ba7f163c4a11628f55a4df523b3ef60405160405180910390a46112e9838383611916565b505050565b6112ff816112fa610f31565b61191b565b50565b61130c8282610aa2565b6113df5760016007600084815260200190815260200160002060000160008373ffffffffffffffffffffffffffffffffffffffff1673ffffffffffffffffffffffffffffffffffffffff16815260200190815260200160002060006101000a81548160ff021916908315150217905550611384610f31565b73ffffffffffffffffffffffffffffffffffffffff168173ffffffffffffffffffffffffffffffffffffffff16837f2f8788117e7eff1d82e926ec794901d17c78024a50270940304540a733656f0d60405160405180910390a45b5050565b6113ed8282610aa2565b156114c15760006007600084815260200190815260200160002060000160008373ffffffffffffffffffffffffffffffffffffffff1673ffffffffffffffffffffffffffffffffffffffff16815260200190815260200160002060006101000a81548160ff021916908315150217905550611466610f31565b73ffffffffffffffffffffffffffffffffffffffff168173ffffffffffffffffffffffffffffffffffffffff16837ff6391f5c32d9c69d2a47ea670b442974b53935d1edc7fd64eb21e047a839171b60405160405180910390a45b5050565b600081600001549050919050565b8173ffffffffffffffffffffffffffffffffffffffff168373ffffffffffffffffffffffffffffffffffffffff161415611542576040517f08c379a000000000000000000000000000000000000000000000000000000000815260040161153990612b7b565b60405180910390fd5b80600560008573ffffffffffffffffffffffffffffffffffffffff1673ffffffffffffffffffffffffffffffffffffffff16815260200190815260200160002060008473ffffffffffffffffffffffffffffffffffffffff1673ffffffffffffffffffffffffffffffffffffffff16815260200190815260200160002060006101000a81548160ff0219169083151502179055508173ffffffffffffffffffffffffffffffffffffffff168373ffffffffffffffffffffffffffffffffffffffff167f17307eab39ab6107e8899845ad3d59bd9653f200f220920489ca2b5937696c31836040516116339190612a83565b60405180910390a3505050565b61164b848484611087565b611657848484846119b8565b611696576040517f08c379a000000000000000000000000000000000000000000000000000000000815260040161168d90612afb565b60405180910390fd5b50505050565b606060405180602001604052806000815250905090565b60606116be82610ee6565b60006116c861169c565b905060008151116116e85760405180602001604052806000815250611713565b806116f284611b4f565b6040516020016117039291906129be565b6040516020818303038152906040525b915050919050565b611735828260405180602001604052806000815250611cb0565b5050565b611742826118a5565b611781576040517f08c379a000000000000000000000000000000000000000000000000000000000815260040161177890612bbb565b60405180910390fd5b806006600084815260200190815260200160002090805190602001906117a89291906121ae565b505050565b6001816000016000828254019250508190555050565b60007f80ac58cd000000000000000000000000000000000000000000000000000000007bffffffffffffffffffffffffffffffffffffffffffffffffffffffff1916827bffffffffffffffffffffffffffffffffffffffffffffffffffffffff1916148061188e57507f5b5e139f000000000000000000000000000000000000000000000000000000007bffffffffffffffffffffffffffffffffffffffffffffffffffffffff1916827bffffffffffffffffffffffffffffffffffffffffffffffffffffffff1916145b8061189e575061189d82611d0b565b5b9050919050565b60008073ffffffffffffffffffffffffffffffffffffffff166002600084815260200190815260200160002060009054906101000a900473ffffffffffffffffffffffffffffffffffffffff1673ffffffffffffffffffffffffffffffffffffffff1614159050919050565b505050565b505050565b6119258282610aa2565b6119b45761194a8173ffffffffffffffffffffffffffffffffffffffff166014611d75565b6119588360001c6020611d75565b6040516020016119699291906129e2565b6040516020818303038152906040526040517f08c379a00000000000000000000000000000000000000000000000000000000081526004016119ab9190612ab9565b60405180910390fd5b5050565b60006119d98473ffffffffffffffffffffffffffffffffffffffff16611fb1565b15611b42578373ffffffffffffffffffffffffffffffffffffffff1663150b7a02611a02610f31565b8786866040518563ffffffff1660e01b8152600401611a249493929190612a37565b602060405180830381600087803b158015611a3e57600080fd5b505af1925050508015611a6f57506040513d601f19601f82011682018060405250810190611a6c919061260c565b60015b611af2573d8060008114611a9f576040519150601f19603f3d011682016040523d82523d6000602084013e611aa4565b606091505b50600081511415611aea576040517f08c379a0000000000000000000000000000000000000000000000000000000008152600401611ae190612afb565b60405180910390fd5b805181602001fd5b63150b7a0260e01b7bffffffffffffffffffffffffffffffffffffffffffffffffffffffff1916817bffffffffffffffffffffffffffffffffffffffffffffffffffffffff191614915050611b47565b600190505b949350505050565b60606000821415611b97576040518060400160405280600181526020017f30000000000000000000000000000000000000000000000000000000000000008152509050611cab565b600082905060005b60008214611bc9578080611bb290612fe2565b915050600a82611bc29190612dd6565b9150611b9f565b60008167ffffffffffffffff811115611be557611be4613118565b5b6040519080825280601f01601f191660200182016040528015611c175781602001600182028036833780820191505090505b5090505b60008514611ca457600182611c309190612e61565b9150600a85611c3f919061302b565b6030611c4b9190612d80565b60f81b818381518110611c6157611c606130e9565b5b60200101907effffffffffffffffffffffffffffffffffffffffffffffffffffffffffffff1916908160001a905350600a85611c9d9190612dd6565b9450611c1b565b8093505050505b919050565b611cba8383611fd4565b611cc760008484846119b8565b611d06576040517f08c379a0000000000000000000000000000000000000000000000000000000008152600401611cfd90612afb565b60405180910390fd5b505050565b60007f01ffc9a7000000000000000000000000000000000000000000000000000000007bffffffffffffffffffffffffffffffffffffffffffffffffffffffff1916827bffffffffffffffffffffffffffffffffffffffffffffffffffffffff1916149050919050565b606060006002836002611d889190612e07565b611d929190612d80565b67ffffffffffffffff811115611dab57611daa613118565b5b6040519080825280601f01601f191660200182016040528015611ddd5781602001600182028036833780820191505090505b5090507f300000000000000000000000000000000000000000000000000000000000000081600081518110611e1557611e146130e9565b5b60200101907effffffffffffffffffffffffffffffffffffffffffffffffffffffffffffff1916908160001a9053507f780000000000000000000000000000000000000000000000000000000000000081600181518110611e7957611e786130e9565b5b60200101907effffffffffffffffffffffffffffffffffffffffffffffffffffffffffffff1916908160001a90535060006001846002611eb99190612e07565b611ec39190612d80565b90505b6001811115611f63577f3031323334353637383961626364656600000000000000000000000000000000600f861660108110611f0557611f046130e9565b5b1a60f81b828281518110611f1c57611f1b6130e9565b5b60200101907effffffffffffffffffffffffffffffffffffffffffffffffffffffffffffff1916908160001a905350600485901c945080611f5c90612f55565b9050611ec6565b5060008414611fa7576040517f08c379a0000000000000000000000000000000000000000000000000000000008152600401611f9e90612adb565b60405180910390fd5b8091505092915050565b6000808273ffffffffffffffffffffffffffffffffffffffff163b119050919050565b600073ffffffffffffffffffffffffffffffffffffffff168273ffffffffffffffffffffffffffffffffffffffff161415612044576040517f08c379a000000000000000000000000000000000000000000000000000000000815260040161203b90612bfb565b60405180910390fd5b61204d816118a5565b1561208d576040517f08c379a000000000000000000000000000000000000000000000000000000000815260040161208490612b3b565b60405180910390fd5b61209960008383611911565b6001600360008473ffffffffffffffffffffffffffffffffffffffff1673ffffffffffffffffffffffffffffffffffffffff16815260200190815260200160002060008282546120e99190612d80565b92505081905550816002600083815260200190815260200160002060006101000a81548173ffffffffffffffffffffffffffffffffffffffff021916908373ffffffffffffffffffffffffffffffffffffffff160217905550808273ffffffffffffffffffffffffffffffffffffffff16600073ffffffffffffffffffffffffffffffffffffffff167fddf252ad1be2c89b69c2b068fc378daa952ba7f163c4a11628f55a4df523b3ef60405160405180910390a46121aa60008383611916565b5050565b8280546121ba90612f7f565b90600052602060002090601f0160209004810192826121dc5760008555612223565b82601f106121f557805160ff1916838001178555612223565b82800160010185558215612223579182015b82811115612222578251825591602001919060010190612207565b5b5090506122309190612234565b5090565b5b8082111561224d576000816000905550600101612235565b5090565b600061226461225f84612cdb565b612cb6565b9050828152602081018484840111156122805761227f61314c565b5b61228b848285612f13565b509392505050565b60006122a66122a184612d0c565b612cb6565b9050828152602081018484840111156122c2576122c161314c565b5b6122cd848285612f13565b509392505050565b6000813590506122e481613552565b92915050565b6000813590506122f981613569565b92915050565b60008135905061230e81613580565b92915050565b60008135905061232381613597565b92915050565b60008151905061233881613597565b92915050565b600082601f83011261235357612352613147565b5b8135612363848260208601612251565b91505092915050565b600082601f83011261238157612380613147565b5b8135612391848260208601612293565b91505092915050565b6000813590506123a9816135ae565b92915050565b6000602082840312156123c5576123c4613156565b5b60006123d3848285016122d5565b91505092915050565b600080604083850312156123f3576123f2613156565b5b6000612401858286016122d5565b9250506020612412858286016122d5565b9150509250929050565b60008060006060848603121561243557612434613156565b5b6000612443868287016122d5565b9350506020612454868287016122d5565b92505060406124658682870161239a565b9150509250925092565b6000806000806080858703121561248957612488613156565b5b6000612497878288016122d5565b94505060206124a8878288016122d5565b93505060406124b98782880161239a565b925050606085013567ffffffffffffffff8111156124da576124d9613151565b5b6124e68782880161233e565b91505092959194509250565b6000806040838503121561250957612508613156565b5b6000612517858286016122d5565b9250506020612528858286016122ea565b9150509250929050565b6000806040838503121561254957612548613156565b5b6000612557858286016122d5565b92505060206125688582860161239a565b9150509250929050565b60006020828403121561258857612587613156565b5b6000612596848285016122ff565b91505092915050565b600080604083850312156125b6576125b5613156565b5b60006125c4858286016122ff565b92505060206125d5858286016122d5565b9150509250929050565b6000602082840312156125f5576125f4613156565b5b600061260384828501612314565b91505092915050565b60006020828403121561262257612621613156565b5b600061263084828501612329565b91505092915050565b60006020828403121561264f5761264e613156565b5b600082013567ffffffffffffffff81111561266d5761266c613151565b5b6126798482850161236c565b91505092915050565b60006020828403121561269857612697613156565b5b60006126a68482850161239a565b91505092915050565b6126b881612e95565b82525050565b6126c781612ea7565b82525050565b6126d681612eb3565b82525050565b60006126e782612d3d565b6126f18185612d53565b9350612701818560208601612f22565b61270a8161315b565b840191505092915050565b600061272082612d48565b61272a8185612d64565b935061273a818560208601612f22565b6127438161315b565b840191505092915050565b600061275982612d48565b6127638185612d75565b9350612773818560208601612f22565b80840191505092915050565b600061278c602083612d64565b91506127978261316c565b602082019050919050565b60006127af603283612d64565b91506127ba82613195565b604082019050919050565b60006127d2602583612d64565b91506127dd826131e4565b604082019050919050565b60006127f5601c83612d64565b915061280082613233565b602082019050919050565b6000612818602483612d64565b91506128238261325c565b604082019050919050565b600061283b601983612d64565b9150612846826132ab565b602082019050919050565b600061285e602983612d64565b9150612869826132d4565b604082019050919050565b6000612881602e83612d64565b915061288c82613323565b604082019050919050565b60006128a4603e83612d64565b91506128af82613372565b604082019050919050565b60006128c7602083612d64565b91506128d2826133c1565b602082019050919050565b60006128ea601883612d64565b91506128f5826133ea565b602082019050919050565b600061290d602183612d64565b915061291882613413565b604082019050919050565b6000612930601783612d75565b915061293b82613462565b601782019050919050565b6000612953602e83612d64565b915061295e8261348b565b604082019050919050565b6000612976601183612d75565b9150612981826134da565b601182019050919050565b6000612999602f83612d64565b91506129a482613503565b604082019050919050565b6129b881612f09565b82525050565b60006129ca828561274e565b91506129d6828461274e565b91508190509392505050565b60006129ed82612923565b91506129f9828561274e565b9150612a0482612969565b9150612a10828461274e565b91508190509392505050565b6000602082019050612a3160008301846126af565b92915050565b6000608082019050612a4c60008301876126af565b612a5960208301866126af565b612a6660408301856129af565b8181036060830152612a7881846126dc565b905095945050505050565b6000602082019050612a9860008301846126be565b92915050565b6000602082019050612ab360008301846126cd565b92915050565b60006020820190508181036000830152612ad38184612715565b905092915050565b60006020820190508181036000830152612af48161277f565b9050919050565b60006020820190508181036000830152612b14816127a2565b9050919050565b60006020820190508181036000830152612b34816127c5565b9050919050565b60006020820190508181036000830152612b54816127e8565b9050919050565b60006020820190508181036000830152612b748161280b565b9050919050565b60006020820190508181036000830152612b948161282e565b9050919050565b60006020820190508181036000830152612bb481612851565b9050919050565b60006020820190508181036000830152612bd481612874565b9050919050565b60006020820190508181036000830152612bf481612897565b9050919050565b60006020820190508181036000830152612c14816128ba565b9050919050565b60006020820190508181036000830152612c34816128dd565b9050919050565b60006020820190508181036000830152612c5481612900565b9050919050565b60006020820190508181036000830152612c7481612946565b9050919050565b60006020820190508181036000830152612c948161298c565b9050919050565b6000602082019050612cb060008301846129af565b92915050565b6000612cc0612cd1565b9050612ccc8282612fb1565b919050565b6000604051905090565b600067ffffffffffffffff821115612cf657612cf5613118565b5b612cff8261315b565b9050602081019050919050565b600067ffffffffffffffff821115612d2757612d26613118565b5b612d308261315b565b9050602081019050919050565b600081519050919050565b600081519050919050565b600082825260208201905092915050565b600082825260208201905092915050565b600081905092915050565b6000612d8b82612f09565b9150612d9683612f09565b9250827fffffffffffffffffffffffffffffffffffffffffffffffffffffffffffffffff03821115612dcb57612dca61305c565b5b828201905092915050565b6000612de182612f09565b9150612dec83612f09565b925082612dfc57612dfb61308b565b5b828204905092915050565b6000612e1282612f09565b9150612e1d83612f09565b9250817fffffffffffffffffffffffffffffffffffffffffffffffffffffffffffffffff0483118215151615612e5657612e5561305c565b5b828202905092915050565b6000612e6c82612f09565b9150612e7783612f09565b925082821015612e8a57612e8961305c565b5b828203905092915050565b6000612ea082612ee9565b9050919050565b60008115159050919050565b6000819050919050565b60007fffffffff0000000000000000000000000000000000000000000000000000000082169050919050565b600073ffffffffffffffffffffffffffffffffffffffff82169050919050565b6000819050919050565b82818337600083830152505050565b60005b83811015612f40578082015181840152602081019050612f25565b83811115612f4f576000848401525b50505050565b6000612f6082612f09565b91506000821415612f7457612f7361305c565b5b600182039050919050565b60006002820490506001821680612f9757607f821691505b60208210811415612fab57612faa6130ba565b5b50919050565b612fba8261315b565b810181811067ffffffffffffffff82111715612fd957612fd8613118565b5b80604052505050565b6000612fed82612f09565b91507fffffffffffffffffffffffffffffffffffffffffffffffffffffffffffffffff8214156130205761301f61305c565b5b600182019050919050565b600061303682612f09565b915061304183612f09565b9250826130515761305061308b565b5b828206905092915050565b7f4e487b7100000000000000000000000000000000000000000000000000000000600052601160045260246000fd5b7f4e487b7100000000000000000000000000000000000000000000000000000000600052601260045260246000fd5b7f4e487b7100000000000000000000000000000000000000000000000000000000600052602260045260246000fd5b7f4e487b7100000000000000000000000000000000000000000000000000000000600052603260045260246000fd5b7f4e487b7100000000000000000000000000000000000000000000000000000000600052604160045260246000fd5b600080fd5b600080fd5b600080fd5b600080fd5b6000601f19601f8301169050919050565b7f537472696e67733a20686578206c656e67746820696e73756666696369656e74600082015250565b7f4552433732313a207472616e7366657220746f206e6f6e20455243373231526560008201527f63656976657220696d706c656d656e7465720000000000000000000000000000602082015250565b7f4552433732313a207472616e736665722066726f6d20696e636f72726563742060008201527f6f776e6572000000000000000000000000000000000000000000000000000000602082015250565b7f4552433732313a20746f6b656e20616c7265616479206d696e74656400000000600082015250565b7f4552433732313a207472616e7366657220746f20746865207a65726f2061646460008201527f7265737300000000000000000000000000000000000000000000000000000000602082015250565b7f4552433732313a20617070726f766520746f2063616c6c657200000000000000600082015250565b7f4552433732313a2061646472657373207a65726f206973206e6f74206120766160008201527f6c6964206f776e65720000000000000000000000000000000000000000000000602082015250565b7f45524337323155524953746f726167653a2055524920736574206f66206e6f6e60008201527f6578697374656e7420746f6b656e000000000000000000000000000000000000602082015250565b7f4552433732313a20617070726f76652063616c6c6572206973206e6f7420746f60008201527f6b656e206f776e6572206e6f7220617070726f76656420666f7220616c6c0000602082015250565b7f4552433732313a206d696e7420746f20746865207a65726f2061646472657373600082015250565b7f4552433732313a20696e76616c696420746f6b656e2049440000000000000000600082015250565b7f4552433732313a20617070726f76616c20746f2063757272656e74206f776e6560008201527f7200000000000000000000000000000000000000000000000000000000000000602082015250565b7f416363657373436f6e74726f6c3a206163636f756e7420000000000000000000600082015250565b7f4552433732313a2063616c6c6572206973206e6f7420746f6b656e206f776e6560008201527f72206e6f7220617070726f766564000000000000000000000000000000000000602082015250565b7f206973206d697373696e6720726f6c6520000000000000000000000000000000600082015250565b7f416363657373436f6e74726f6c3a2063616e206f6e6c792072656e6f756e636560008201527f20726f6c657320666f722073656c660000000000000000000000000000000000602082015250565b61355b81612e95565b811461356657600080fd5b50565b61357281612ea7565b811461357d57600080fd5b50565b61358981612eb3565b811461359457600080fd5b50565b6135a081612ebd565b81146135ab57600080fd5b50565b6135b781612f09565b81146135c257600080fd5b5056fea26469706673582212201917778275b75c804cd29312d0aba76108c6d79f60e364ef77117291366e2aa764736f6c63430008070033",
  "linkReferences": {},
  "deployedLinkReferences": {}
}