{
  "_format": "hh-sol-artifact-1",
  "contractName": "SitesNFTs",
  "sourceName": "contracts/SitesNFTs.sol",
  "abi": [
    {
      "inputs": [],
      "stateMutability": "nonpayable",
      "type": "constructor"
    },
    {
      "anonymous": false,
      "inputs": [
        {
          "indexed": true,
          "internalType": "address",
          "name": "owner",
          "type": "address"
        },
        {
          "indexed": true,
          "internalType": "address",
          "name": "approved",
          "type": "address"
        },
        {
          "indexed": true,
          "internalType": "uint256",
          "name": "tokenId",
          "type": "uint256"
        }
      ],
      "name": "Approval",
      "type": "event"
    },
    {
      "anonymous": false,
      "inputs": [
        {
          "indexed": true,
          "internalType": "address",
          "name": "owner",
          "type": "address"
        },
        {
          "indexed": true,
          "internalType": "address",
          "name": "operator",
          "type": "address"
        },
        {
          "indexed": false,
          "internalType": "bool",
          "name": "approved",
          "type": "bool"
        }
      ],
      "name": "ApprovalForAll",
      "type": "event"
    },
    {
      "anonymous": false,
      "inputs": [
        {
          "indexed": true,
          "internalType": "address",
          "name": "from",
          "type": "address"
        },
        {
          "indexed": true,
          "internalType": "address",
          "name": "to",
          "type": "address"
        },
        {
          "indexed": true,
          "internalType": "uint256",
          "name": "tokenId",
          "type": "uint256"
        }
      ],
      "name": "Transfer",
      "type": "event"
    },
    {
      "inputs": [
        {
          "internalType": "address",
          "name": "to",
          "type": "address"
        },
        {
          "internalType": "uint256",
          "name": "tokenId",
          "type": "uint256"
        }
      ],
      "name": "approve",
      "outputs": [],
      "stateMutability": "nonpayable",
      "type": "function"
    },
    {
      "inputs": [
        {
          "internalType": "address",
          "name": "owner",
          "type": "address"
        }
      ],
      "name": "balanceOf",
      "outputs": [
        {
          "internalType": "uint256",
          "name": "",
          "type": "uint256"
        }
      ],
      "stateMutability": "view",
      "type": "function"
    },
    {
      "inputs": [
        {
          "internalType": "uint256",
          "name": "tokenId",
          "type": "uint256"
        }
      ],
      "name": "getApproved",
      "outputs": [
        {
          "internalType": "address",
          "name": "",
          "type": "address"
        }
      ],
      "stateMutability": "view",
      "type": "function"
    },
    {
      "inputs": [
        {
          "internalType": "address",
          "name": "owner",
          "type": "address"
        },
        {
          "internalType": "address",
          "name": "operator",
          "type": "address"
        }
      ],
      "name": "isApprovedForAll",
      "outputs": [
        {
          "internalType": "bool",
          "name": "",
          "type": "bool"
        }
      ],
      "stateMutability": "view",
      "type": "function"
    },
    {
      "inputs": [
        {
          "internalType": "string",
          "name": "tokenURI",
          "type": "string"
        }
      ],
      "name": "mintNFT",
      "outputs": [
        {
          "internalType": "uint256",
          "name": "",
          "type": "uint256"
        }
      ],
      "stateMutability": "nonpayable",
      "type": "function"
    },
    {
      "inputs": [],
      "name": "name",
      "outputs": [
        {
          "internalType": "string",
          "name": "",
          "type": "string"
        }
      ],
      "stateMutability": "view",
      "type": "function"
    },
    {
      "inputs": [
        {
          "internalType": "uint256",
          "name": "tokenId",
          "type": "uint256"
        }
      ],
      "name": "ownerOf",
      "outputs": [
        {
          "internalType": "address",
          "name": "",
          "type": "address"
        }
      ],
      "stateMutability": "view",
      "type": "function"
    },
    {
      "inputs": [
        {
          "internalType": "address",
          "name": "from",
          "type": "address"
        },
        {
          "internalType": "address",
          "name": "to",
          "type": "address"
        },
        {
          "internalType": "uint256",
          "name": "tokenId",
          "type": "uint256"
        }
      ],
      "name": "safeTransferFrom",
      "outputs": [],
      "stateMutability": "nonpayable",
      "type": "function"
    },
    {
      "inputs": [
        {
          "internalType": "address",
          "name": "from",
          "type": "address"
        },
        {
          "internalType": "address",
          "name": "to",
          "type": "address"
        },
        {
          "internalType": "uint256",
          "name": "tokenId",
          "type": "uint256"
        },
        {
          "internalType": "bytes",
          "name": "data",
          "type": "bytes"
        }
      ],
      "name": "safeTransferFrom",
      "outputs": [],
      "stateMutability": "nonpayable",
      "type": "function"
    },
    {
      "inputs": [
        {
          "internalType": "address",
          "name": "operator",
          "type": "address"
        },
        {
          "internalType": "bool",
          "name": "approved",
          "type": "bool"
        }
      ],
      "name": "setApprovalForAll",
      "outputs": [],
      "stateMutability": "nonpayable",
      "type": "function"
    },
    {
      "inputs": [
        {
          "internalType": "bytes4",
          "name": "interfaceId",
          "type": "bytes4"
        }
      ],
      "name": "supportsInterface",
      "outputs": [
        {
          "internalType": "bool",
          "name": "",
          "type": "bool"
        }
      ],
      "stateMutability": "view",
      "type": "function"
    },
    {
      "inputs": [],
      "name": "symbol",
      "outputs": [
        {
          "internalType": "string",
          "name": "",
          "type": "string"
        }
      ],
      "stateMutability": "view",
      "type": "function"
    },
    {
      "inputs": [
        {
          "internalType": "uint256",
          "name": "tokenId",
          "type": "uint256"
        }
      ],
      "name": "tokenURI",
      "outputs": [
        {
          "internalType": "string",
          "name": "",
          "type": "string"
        }
      ],
      "stateMutability": "view",
      "type": "function"
    },
    {
      "inputs": [
        {
          "internalType": "address",
          "name": "from",
          "type": "address"
        },
        {
          "internalType": "address",
          "name": "to",
          "type": "address"
        },
        {
          "internalType": "uint256",
          "name": "tokenId",
          "type": "uint256"
        }
      ],
      "name": "transferFrom",
      "outputs": [],
      "stateMutability": "nonpayable",
      "type": "function"
    }
  ],
  "bytecode": "0x60806040523480156200001157600080fd5b506040518060400160405280600a81526020017f5369746573204e465473000000000000000000000000000000000000000000008152506040518060400160405280600481526020017f534e465400000000000000000000000000000000000000000000000000000000815250816000908051906020019062000096929190620000b8565b508060019080519060200190620000af929190620000b8565b505050620001cd565b828054620000c69062000168565b90600052602060002090601f016020900481019282620000ea576000855562000136565b82601f106200010557805160ff191683800117855562000136565b8280016001018555821562000136579182015b828111156200013557825182559160200191906001019062000118565b5b50905062000145919062000149565b5090565b5b80821115620001645760008160009055506001016200014a565b5090565b600060028204905060018216806200018157607f821691505b602082108114156200019857620001976200019e565b5b50919050565b7f4e487b7100000000000000000000000000000000000000000000000000000000600052602260045260246000fd5b61290c80620001dd6000396000f3fe608060405234801561001057600080fd5b50600436106100ea5760003560e01c806370a082311161008c578063b88d4fde11610066578063b88d4fde1461025b578063c87b56dd14610277578063e985e9c5146102a7578063fb37e883146102d7576100ea565b806370a08231146101f157806395d89b4114610221578063a22cb4651461023f576100ea565b8063095ea7b3116100c8578063095ea7b31461016d57806323b872dd1461018957806342842e0e146101a55780636352211e146101c1576100ea565b806301ffc9a7146100ef57806306fdde031461011f578063081812fc1461013d575b600080fd5b61010960048036038101906101049190611b8f565b610307565b6040516101169190611f5e565b60405180910390f35b6101276103e9565b6040516101349190611f79565b60405180910390f35b61015760048036038101906101529190611c32565b61047b565b6040516101649190611ef7565b60405180910390f35b61018760048036038101906101829190611b4f565b6104c1565b005b6101a3600480360381019061019e9190611a39565b6105d9565b005b6101bf60048036038101906101ba9190611a39565b610639565b005b6101db60048036038101906101d69190611c32565b610659565b6040516101e89190611ef7565b60405180910390f35b61020b600480360381019061020691906119cc565b61070b565b604051610218919061211b565b60405180910390f35b6102296107c3565b6040516102369190611f79565b60405180910390f35b61025960048036038101906102549190611b0f565b610855565b005b61027560048036038101906102709190611a8c565b61086b565b005b610291600480360381019061028c9190611c32565b6108cd565b60405161029e9190611f79565b60405180910390f35b6102c160048036038101906102bc91906119f9565b6109e0565b6040516102ce9190611f5e565b60405180910390f35b6102f160048036038101906102ec9190611be9565b610a74565b6040516102fe919061211b565b60405180910390f35b60007f80ac58cd000000000000000000000000000000000000000000000000000000007bffffffffffffffffffffffffffffffffffffffffffffffffffffffff1916827bffffffffffffffffffffffffffffffffffffffffffffffffffffffff191614806103d257507f5b5e139f000000000000000000000000000000000000000000000000000000007bffffffffffffffffffffffffffffffffffffffffffffffffffffffff1916827bffffffffffffffffffffffffffffffffffffffffffffffffffffffff1916145b806103e257506103e182610aaa565b5b9050919050565b6060600080546103f890612371565b80601f016020809104026020016040519081016040528092919081815260200182805461042490612371565b80156104715780601f1061044657610100808354040283529160200191610471565b820191906000526020600020905b81548152906001019060200180831161045457829003601f168201915b5050505050905090565b600061048682610b14565b6004600083815260200190815260200160002060009054906101000a900473ffffffffffffffffffffffffffffffffffffffff169050919050565b60006104cc82610659565b90508073ffffffffffffffffffffffffffffffffffffffff168373ffffffffffffffffffffffffffffffffffffffff16141561053d576040517f08c379a0000000000000000000000000000000000000000000000000000000008152600401610534906120db565b60405180910390fd5b8073ffffffffffffffffffffffffffffffffffffffff1661055c610b5f565b73ffffffffffffffffffffffffffffffffffffffff16148061058b575061058a81610585610b5f565b6109e0565b5b6105ca576040517f08c379a00000000000000000000000000000000000000000000000000000000081526004016105c19061207b565b60405180910390fd5b6105d48383610b67565b505050565b6105ea6105e4610b5f565b82610c20565b610629576040517f08c379a0000000000000000000000000000000000000000000000000000000008152600401610620906120fb565b60405180910390fd5b610634838383610cb5565b505050565b6106548383836040518060200160405280600081525061086b565b505050565b6000806002600084815260200190815260200160002060009054906101000a900473ffffffffffffffffffffffffffffffffffffffff169050600073ffffffffffffffffffffffffffffffffffffffff168173ffffffffffffffffffffffffffffffffffffffff161415610702576040517f08c379a00000000000000000000000000000000000000000000000000000000081526004016106f9906120bb565b60405180910390fd5b80915050919050565b60008073ffffffffffffffffffffffffffffffffffffffff168273ffffffffffffffffffffffffffffffffffffffff16141561077c576040517f08c379a00000000000000000000000000000000000000000000000000000000081526004016107739061203b565b60405180910390fd5b600360008373ffffffffffffffffffffffffffffffffffffffff1673ffffffffffffffffffffffffffffffffffffffff168152602001908152602001600020549050919050565b6060600180546107d290612371565b80601f01602080910402602001604051908101604052809291908181526020018280546107fe90612371565b801561084b5780601f106108205761010080835404028352916020019161084b565b820191906000526020600020905b81548152906001019060200180831161082e57829003601f168201915b5050505050905090565b610867610860610b5f565b8383610f1c565b5050565b61087c610876610b5f565b83610c20565b6108bb576040517f08c379a00000000000000000000000000000000000000000000000000000000081526004016108b2906120fb565b60405180910390fd5b6108c784848484611089565b50505050565b60606108d882610b14565b60006006600084815260200190815260200160002080546108f890612371565b80601f016020809104026020016040519081016040528092919081815260200182805461092490612371565b80156109715780601f1061094657610100808354040283529160200191610971565b820191906000526020600020905b81548152906001019060200180831161095457829003601f168201915b5050505050905060006109826110e5565b90506000815114156109985781925050506109db565b6000825111156109cd5780826040516020016109b5929190611ed3565b604051602081830303815290604052925050506109db565b6109d6846110fc565b925050505b919050565b6000600560008473ffffffffffffffffffffffffffffffffffffffff1673ffffffffffffffffffffffffffffffffffffffff16815260200190815260200160002060008373ffffffffffffffffffffffffffffffffffffffff1673ffffffffffffffffffffffffffffffffffffffff16815260200190815260200160002060009054906101000a900460ff16905092915050565b600080610a816007611164565b9050610a8d3382611172565b610a978184611190565b610aa16007611204565b80915050919050565b60007f01ffc9a7000000000000000000000000000000000000000000000000000000007bffffffffffffffffffffffffffffffffffffffffffffffffffffffff1916827bffffffffffffffffffffffffffffffffffffffffffffffffffffffff1916149050919050565b610b1d8161121a565b610b5c576040517f08c379a0000000000000000000000000000000000000000000000000000000008152600401610b53906120bb565b60405180910390fd5b50565b600033905090565b816004600083815260200190815260200160002060006101000a81548173ffffffffffffffffffffffffffffffffffffffff021916908373ffffffffffffffffffffffffffffffffffffffff160217905550808273ffffffffffffffffffffffffffffffffffffffff16610bda83610659565b73ffffffffffffffffffffffffffffffffffffffff167f8c5be1e5ebec7d5bd14f71427d1e84f3dd0314c0f7b2291e5b200ac8c7c3b92560405160405180910390a45050565b600080610c2c83610659565b90508073ffffffffffffffffffffffffffffffffffffffff168473ffffffffffffffffffffffffffffffffffffffff161480610c6e5750610c6d81856109e0565b5b80610cac57508373ffffffffffffffffffffffffffffffffffffffff16610c948461047b565b73ffffffffffffffffffffffffffffffffffffffff16145b91505092915050565b8273ffffffffffffffffffffffffffffffffffffffff16610cd582610659565b73ffffffffffffffffffffffffffffffffffffffff1614610d2b576040517f08c379a0000000000000000000000000000000000000000000000000000000008152600401610d2290611fbb565b60405180910390fd5b600073ffffffffffffffffffffffffffffffffffffffff168273ffffffffffffffffffffffffffffffffffffffff161415610d9b576040517f08c379a0000000000000000000000000000000000000000000000000000000008152600401610d9290611ffb565b60405180910390fd5b610da6838383611286565b610db1600082610b67565b6001600360008573ffffffffffffffffffffffffffffffffffffffff1673ffffffffffffffffffffffffffffffffffffffff1681526020019081526020016000206000828254610e019190612287565b925050819055506001600360008473ffffffffffffffffffffffffffffffffffffffff1673ffffffffffffffffffffffffffffffffffffffff1681526020019081526020016000206000828254610e589190612200565b92505081905550816002600083815260200190815260200160002060006101000a81548173ffffffffffffffffffffffffffffffffffffffff021916908373ffffffffffffffffffffffffffffffffffffffff160217905550808273ffffffffffffffffffffffffffffffffffffffff168473ffffffffffffffffffffffffffffffffffffffff167fddf252ad1be2c89b69c2b068fc378daa952ba7f163c4a11628f55a4df523b3ef60405160405180910390a4610f1783838361128b565b505050565b8173ffffffffffffffffffffffffffffffffffffffff168373ffffffffffffffffffffffffffffffffffffffff161415610f8b576040517f08c379a0000000000000000000000000000000000000000000000000000000008152600401610f829061201b565b60405180910390fd5b80600560008573ffffffffffffffffffffffffffffffffffffffff1673ffffffffffffffffffffffffffffffffffffffff16815260200190815260200160002060008473ffffffffffffffffffffffffffffffffffffffff1673ffffffffffffffffffffffffffffffffffffffff16815260200190815260200160002060006101000a81548160ff0219169083151502179055508173ffffffffffffffffffffffffffffffffffffffff168373ffffffffffffffffffffffffffffffffffffffff167f17307eab39ab6107e8899845ad3d59bd9653f200f220920489ca2b5937696c318360405161107c9190611f5e565b60405180910390a3505050565b611094848484610cb5565b6110a084848484611290565b6110df576040517f08c379a00000000000000000000000000000000000000000000000000000000081526004016110d690611f9b565b60405180910390fd5b50505050565b606060405180602001604052806000815250905090565b606061110782610b14565b60006111116110e5565b90506000815111611131576040518060200160405280600081525061115c565b8061113b84611427565b60405160200161114c929190611ed3565b6040516020818303038152906040525b915050919050565b600081600001549050919050565b61118c828260405180602001604052806000815250611588565b5050565b6111998261121a565b6111d8576040517f08c379a00000000000000000000000000000000000000000000000000000000081526004016111cf9061205b565b60405180910390fd5b806006600084815260200190815260200160002090805190602001906111ff9291906117e0565b505050565b6001816000016000828254019250508190555050565b60008073ffffffffffffffffffffffffffffffffffffffff166002600084815260200190815260200160002060009054906101000a900473ffffffffffffffffffffffffffffffffffffffff1673ffffffffffffffffffffffffffffffffffffffff1614159050919050565b505050565b505050565b60006112b18473ffffffffffffffffffffffffffffffffffffffff166115e3565b1561141a578373ffffffffffffffffffffffffffffffffffffffff1663150b7a026112da610b5f565b8786866040518563ffffffff1660e01b81526004016112fc9493929190611f12565b602060405180830381600087803b15801561131657600080fd5b505af192505050801561134757506040513d601f19601f820116820180604052508101906113449190611bbc565b60015b6113ca573d8060008114611377576040519150601f19603f3d011682016040523d82523d6000602084013e61137c565b606091505b506000815114156113c2576040517f08c379a00000000000000000000000000000000000000000000000000000000081526004016113b990611f9b565b60405180910390fd5b805181602001fd5b63150b7a0260e01b7bffffffffffffffffffffffffffffffffffffffffffffffffffffffff1916817bffffffffffffffffffffffffffffffffffffffffffffffffffffffff19161491505061141f565b600190505b949350505050565b6060600082141561146f576040518060400160405280600181526020017f30000000000000000000000000000000000000000000000000000000000000008152509050611583565b600082905060005b600082146114a157808061148a906123d4565b915050600a8261149a9190612256565b9150611477565b60008167ffffffffffffffff8111156114bd576114bc61250a565b5b6040519080825280601f01601f1916602001820160405280156114ef5781602001600182028036833780820191505090505b5090505b6000851461157c576001826115089190612287565b9150600a85611517919061241d565b60306115239190612200565b60f81b818381518110611539576115386124db565b5b60200101907effffffffffffffffffffffffffffffffffffffffffffffffffffffffffffff1916908160001a905350600a856115759190612256565b94506114f3565b8093505050505b919050565b6115928383611606565b61159f6000848484611290565b6115de576040517f08c379a00000000000000000000000000000000000000000000000000000000081526004016115d590611f9b565b60405180910390fd5b505050565b6000808273ffffffffffffffffffffffffffffffffffffffff163b119050919050565b600073ffffffffffffffffffffffffffffffffffffffff168273ffffffffffffffffffffffffffffffffffffffff161415611676576040517f08c379a000000000000000000000000000000000000000000000000000000000815260040161166d9061209b565b60405180910390fd5b61167f8161121a565b156116bf576040517f08c379a00000000000000000000000000000000000000000000000000000000081526004016116b690611fdb565b60405180910390fd5b6116cb60008383611286565b6001600360008473ffffffffffffffffffffffffffffffffffffffff1673ffffffffffffffffffffffffffffffffffffffff168152602001908152602001600020600082825461171b9190612200565b92505081905550816002600083815260200190815260200160002060006101000a81548173ffffffffffffffffffffffffffffffffffffffff021916908373ffffffffffffffffffffffffffffffffffffffff160217905550808273ffffffffffffffffffffffffffffffffffffffff16600073ffffffffffffffffffffffffffffffffffffffff167fddf252ad1be2c89b69c2b068fc378daa952ba7f163c4a11628f55a4df523b3ef60405160405180910390a46117dc6000838361128b565b5050565b8280546117ec90612371565b90600052602060002090601f01602090048101928261180e5760008555611855565b82601f1061182757805160ff1916838001178555611855565b82800160010185558215611855579182015b82811115611854578251825591602001919060010190611839565b5b5090506118629190611866565b5090565b5b8082111561187f576000816000905550600101611867565b5090565b60006118966118918461215b565b612136565b9050828152602081018484840111156118b2576118b161253e565b5b6118bd84828561232f565b509392505050565b60006118d86118d38461218c565b612136565b9050828152602081018484840111156118f4576118f361253e565b5b6118ff84828561232f565b509392505050565b6000813590506119168161287a565b92915050565b60008135905061192b81612891565b92915050565b600081359050611940816128a8565b92915050565b600081519050611955816128a8565b92915050565b600082601f8301126119705761196f612539565b5b8135611980848260208601611883565b91505092915050565b600082601f83011261199e5761199d612539565b5b81356119ae8482602086016118c5565b91505092915050565b6000813590506119c6816128bf565b92915050565b6000602082840312156119e2576119e1612548565b5b60006119f084828501611907565b91505092915050565b60008060408385031215611a1057611a0f612548565b5b6000611a1e85828601611907565b9250506020611a2f85828601611907565b9150509250929050565b600080600060608486031215611a5257611a51612548565b5b6000611a6086828701611907565b9350506020611a7186828701611907565b9250506040611a82868287016119b7565b9150509250925092565b60008060008060808587031215611aa657611aa5612548565b5b6000611ab487828801611907565b9450506020611ac587828801611907565b9350506040611ad6878288016119b7565b925050606085013567ffffffffffffffff811115611af757611af6612543565b5b611b038782880161195b565b91505092959194509250565b60008060408385031215611b2657611b25612548565b5b6000611b3485828601611907565b9250506020611b458582860161191c565b9150509250929050565b60008060408385031215611b6657611b65612548565b5b6000611b7485828601611907565b9250506020611b85858286016119b7565b9150509250929050565b600060208284031215611ba557611ba4612548565b5b6000611bb384828501611931565b91505092915050565b600060208284031215611bd257611bd1612548565b5b6000611be084828501611946565b91505092915050565b600060208284031215611bff57611bfe612548565b5b600082013567ffffffffffffffff811115611c1d57611c1c612543565b5b611c2984828501611989565b91505092915050565b600060208284031215611c4857611c47612548565b5b6000611c56848285016119b7565b91505092915050565b611c68816122bb565b82525050565b611c77816122cd565b82525050565b6000611c88826121bd565b611c9281856121d3565b9350611ca281856020860161233e565b611cab8161254d565b840191505092915050565b6000611cc1826121c8565b611ccb81856121e4565b9350611cdb81856020860161233e565b611ce48161254d565b840191505092915050565b6000611cfa826121c8565b611d0481856121f5565b9350611d1481856020860161233e565b80840191505092915050565b6000611d2d6032836121e4565b9150611d388261255e565b604082019050919050565b6000611d506025836121e4565b9150611d5b826125ad565b604082019050919050565b6000611d73601c836121e4565b9150611d7e826125fc565b602082019050919050565b6000611d966024836121e4565b9150611da182612625565b604082019050919050565b6000611db96019836121e4565b9150611dc482612674565b602082019050919050565b6000611ddc6029836121e4565b9150611de78261269d565b604082019050919050565b6000611dff602e836121e4565b9150611e0a826126ec565b604082019050919050565b6000611e22603e836121e4565b9150611e2d8261273b565b604082019050919050565b6000611e456020836121e4565b9150611e508261278a565b602082019050919050565b6000611e686018836121e4565b9150611e73826127b3565b602082019050919050565b6000611e8b6021836121e4565b9150611e96826127dc565b604082019050919050565b6000611eae602e836121e4565b9150611eb98261282b565b604082019050919050565b611ecd81612325565b82525050565b6000611edf8285611cef565b9150611eeb8284611cef565b91508190509392505050565b6000602082019050611f0c6000830184611c5f565b92915050565b6000608082019050611f276000830187611c5f565b611f346020830186611c5f565b611f416040830185611ec4565b8181036060830152611f538184611c7d565b905095945050505050565b6000602082019050611f736000830184611c6e565b92915050565b60006020820190508181036000830152611f938184611cb6565b905092915050565b60006020820190508181036000830152611fb481611d20565b9050919050565b60006020820190508181036000830152611fd481611d43565b9050919050565b60006020820190508181036000830152611ff481611d66565b9050919050565b6000602082019050818103600083015261201481611d89565b9050919050565b6000602082019050818103600083015261203481611dac565b9050919050565b6000602082019050818103600083015261205481611dcf565b9050919050565b6000602082019050818103600083015261207481611df2565b9050919050565b6000602082019050818103600083015261209481611e15565b9050919050565b600060208201905081810360008301526120b481611e38565b9050919050565b600060208201905081810360008301526120d481611e5b565b9050919050565b600060208201905081810360008301526120f481611e7e565b9050919050565b6000602082019050818103600083015261211481611ea1565b9050919050565b60006020820190506121306000830184611ec4565b92915050565b6000612140612151565b905061214c82826123a3565b919050565b6000604051905090565b600067ffffffffffffffff8211156121765761217561250a565b5b61217f8261254d565b9050602081019050919050565b600067ffffffffffffffff8211156121a7576121a661250a565b5b6121b08261254d565b9050602081019050919050565b600081519050919050565b600081519050919050565b600082825260208201905092915050565b600082825260208201905092915050565b600081905092915050565b600061220b82612325565b915061221683612325565b9250827fffffffffffffffffffffffffffffffffffffffffffffffffffffffffffffffff0382111561224b5761224a61244e565b5b828201905092915050565b600061226182612325565b915061226c83612325565b92508261227c5761227b61247d565b5b828204905092915050565b600061229282612325565b915061229d83612325565b9250828210156122b0576122af61244e565b5b828203905092915050565b60006122c682612305565b9050919050565b60008115159050919050565b60007fffffffff0000000000000000000000000000000000000000000000000000000082169050919050565b600073ffffffffffffffffffffffffffffffffffffffff82169050919050565b6000819050919050565b82818337600083830152505050565b60005b8381101561235c578082015181840152602081019050612341565b8381111561236b576000848401525b50505050565b6000600282049050600182168061238957607f821691505b6020821081141561239d5761239c6124ac565b5b50919050565b6123ac8261254d565b810181811067ffffffffffffffff821117156123cb576123ca61250a565b5b80604052505050565b60006123df82612325565b91507fffffffffffffffffffffffffffffffffffffffffffffffffffffffffffffffff8214156124125761241161244e565b5b600182019050919050565b600061242882612325565b915061243383612325565b9250826124435761244261247d565b5b828206905092915050565b7f4e487b7100000000000000000000000000000000000000000000000000000000600052601160045260246000fd5b7f4e487b7100000000000000000000000000000000000000000000000000000000600052601260045260246000fd5b7f4e487b7100000000000000000000000000000000000000000000000000000000600052602260045260246000fd5b7f4e487b7100000000000000000000000000000000000000000000000000000000600052603260045260246000fd5b7f4e487b7100000000000000000000000000000000000000000000000000000000600052604160045260246000fd5b600080fd5b600080fd5b600080fd5b600080fd5b6000601f19601f8301169050919050565b7f4552433732313a207472616e7366657220746f206e6f6e20455243373231526560008201527f63656976657220696d706c656d656e7465720000000000000000000000000000602082015250565b7f4552433732313a207472616e736665722066726f6d20696e636f72726563742060008201527f6f776e6572000000000000000000000000000000000000000000000000000000602082015250565b7f4552433732313a20746f6b656e20616c7265616479206d696e74656400000000600082015250565b7f4552433732313a207472616e7366657220746f20746865207a65726f2061646460008201527f7265737300000000000000000000000000000000000000000000000000000000602082015250565b7f4552433732313a20617070726f766520746f2063616c6c657200000000000000600082015250565b7f4552433732313a2061646472657373207a65726f206973206e6f74206120766160008201527f6c6964206f776e65720000000000000000000000000000000000000000000000602082015250565b7f45524337323155524953746f726167653a2055524920736574206f66206e6f6e60008201527f6578697374656e7420746f6b656e000000000000000000000000000000000000602082015250565b7f4552433732313a20617070726f76652063616c6c6572206973206e6f7420746f60008201527f6b656e206f776e6572206e6f7220617070726f76656420666f7220616c6c0000602082015250565b7f4552433732313a206d696e7420746f20746865207a65726f2061646472657373600082015250565b7f4552433732313a20696e76616c696420746f6b656e2049440000000000000000600082015250565b7f4552433732313a20617070726f76616c20746f2063757272656e74206f776e6560008201527f7200000000000000000000000000000000000000000000000000000000000000602082015250565b7f4552433732313a2063616c6c6572206973206e6f7420746f6b656e206f776e6560008201527f72206e6f7220617070726f766564000000000000000000000000000000000000602082015250565b612883816122bb565b811461288e57600080fd5b50565b61289a816122cd565b81146128a557600080fd5b50565b6128b1816122d9565b81146128bc57600080fd5b50565b6128c881612325565b81146128d357600080fd5b5056fea26469706673582212200d7e983b22ee0946a379a037b05257c864853fba7f4e22cd1fca55bf9a41e9fb64736f6c63430008070033",
  "linkReferences": {},
  "deployedLinkReferences": {}
}