{
  "address": "0x6a553D65FB19B36078a432c2296cEB2a349aC7A8",
  "abi": [
    {
      "inputs": [
        {
          "internalType": "string",
          "name": "_name",
          "type": "string"
        },
        {
          "internalType": "string",
          "name": "_symbol",
          "type": "string"
        }
      ],
      "stateMutability": "nonpayable",
      "type": "constructor"
    },
    {
      "anonymous": false,
      "inputs": [
        {
          "indexed": true,
          "internalType": "address",
          "name": "owner",
          "type": "address"
        },
        {
          "indexed": true,
          "internalType": "address",
          "name": "approved",
          "type": "address"
        },
        {
          "indexed": true,
          "internalType": "uint256",
          "name": "tokenId",
          "type": "uint256"
        }
      ],
      "name": "Approval",
      "type": "event"
    },
    {
      "anonymous": false,
      "inputs": [
        {
          "indexed": true,
          "internalType": "address",
          "name": "owner",
          "type": "address"
        },
        {
          "indexed": true,
          "internalType": "address",
          "name": "operator",
          "type": "address"
        },
        {
          "indexed": false,
          "internalType": "bool",
          "name": "approved",
          "type": "bool"
        }
      ],
      "name": "ApprovalForAll",
      "type": "event"
    },
    {
      "anonymous": false,
      "inputs": [
        {
          "indexed": true,
          "internalType": "bytes32",
          "name": "role",
          "type": "bytes32"
        },
        {
          "indexed": true,
          "internalType": "bytes32",
          "name": "previousAdminRole",
          "type": "bytes32"
        },
        {
          "indexed": true,
          "internalType": "bytes32",
          "name": "newAdminRole",
          "type": "bytes32"
        }
      ],
      "name": "RoleAdminChanged",
      "type": "event"
    },
    {
      "anonymous": false,
      "inputs": [
        {
          "indexed": true,
          "internalType": "bytes32",
          "name": "role",
          "type": "bytes32"
        },
        {
          "indexed": true,
          "internalType": "address",
          "name": "account",
          "type": "address"
        },
        {
          "indexed": true,
          "internalType": "address",
          "name": "sender",
          "type": "address"
        }
      ],
      "name": "RoleGranted",
      "type": "event"
    },
    {
      "anonymous": false,
      "inputs": [
        {
          "indexed": true,
          "internalType": "bytes32",
          "name": "role",
          "type": "bytes32"
        },
        {
          "indexed": true,
          "internalType": "address",
          "name": "account",
          "type": "address"
        },
        {
          "indexed": true,
          "internalType": "address",
          "name": "sender",
          "type": "address"
        }
      ],
      "name": "RoleRevoked",
      "type": "event"
    },
    {
      "anonymous": false,
      "inputs": [
        {
          "indexed": true,
          "internalType": "address",
          "name": "from",
          "type": "address"
        },
        {
          "indexed": true,
          "internalType": "address",
          "name": "to",
          "type": "address"
        },
        {
          "indexed": true,
          "internalType": "uint256",
          "name": "tokenId",
          "type": "uint256"
        }
      ],
      "name": "Transfer",
      "type": "event"
    },
    {
      "inputs": [],
      "name": "COLLECTION_CONTROLLER_ROLE",
      "outputs": [
        {
          "internalType": "bytes32",
          "name": "",
          "type": "bytes32"
        }
      ],
      "stateMutability": "view",
      "type": "function"
    },
    {
      "inputs": [],
      "name": "COLLECTION_OWNER_ROLE",
      "outputs": [
        {
          "internalType": "bytes32",
          "name": "",
          "type": "bytes32"
        }
      ],
      "stateMutability": "view",
      "type": "function"
    },
    {
      "inputs": [],
      "name": "DEFAULT_ADMIN_ROLE",
      "outputs": [
        {
          "internalType": "bytes32",
          "name": "",
          "type": "bytes32"
        }
      ],
      "stateMutability": "view",
      "type": "function"
    },
    {
      "inputs": [
        {
          "internalType": "uint256",
          "name": "tokenId",
          "type": "uint256"
        },
        {
          "internalType": "address",
          "name": "controller",
          "type": "address"
        }
      ],
      "name": "addTokenController",
      "outputs": [],
      "stateMutability": "nonpayable",
      "type": "function"
    },
    {
      "inputs": [
        {
          "internalType": "address",
          "name": "to",
          "type": "address"
        },
        {
          "internalType": "uint256",
          "name": "tokenId",
          "type": "uint256"
        }
      ],
      "name": "approve",
      "outputs": [],
      "stateMutability": "nonpayable",
      "type": "function"
    },
    {
      "inputs": [
        {
          "internalType": "address",
          "name": "owner",
          "type": "address"
        }
      ],
      "name": "balanceOf",
      "outputs": [
        {
          "internalType": "uint256",
          "name": "",
          "type": "uint256"
        }
      ],
      "stateMutability": "view",
      "type": "function"
    },
    {
      "inputs": [
        {
          "internalType": "uint256",
          "name": "tokenId",
          "type": "uint256"
        }
      ],
      "name": "getApproved",
      "outputs": [
        {
          "internalType": "address",
          "name": "",
          "type": "address"
        }
      ],
      "stateMutability": "view",
      "type": "function"
    },
    {
      "inputs": [
        {
          "internalType": "bytes32",
          "name": "role",
          "type": "bytes32"
        }
      ],
      "name": "getRoleAdmin",
      "outputs": [
        {
          "internalType": "bytes32",
          "name": "",
          "type": "bytes32"
        }
      ],
      "stateMutability": "view",
      "type": "function"
    },
    {
      "inputs": [
        {
          "internalType": "bytes32",
          "name": "role",
          "type": "bytes32"
        },
        {
          "internalType": "address",
          "name": "account",
          "type": "address"
        }
      ],
      "name": "grantRole",
      "outputs": [],
      "stateMutability": "nonpayable",
      "type": "function"
    },
    {
      "inputs": [
        {
          "internalType": "bytes32",
          "name": "role",
          "type": "bytes32"
        },
        {
          "internalType": "address",
          "name": "account",
          "type": "address"
        }
      ],
      "name": "hasRole",
      "outputs": [
        {
          "internalType": "bool",
          "name": "",
          "type": "bool"
        }
      ],
      "stateMutability": "view",
      "type": "function"
    },
    {
      "inputs": [
        {
          "internalType": "address",
          "name": "owner",
          "type": "address"
        },
        {
          "internalType": "address",
          "name": "operator",
          "type": "address"
        }
      ],
      "name": "isApprovedForAll",
      "outputs": [
        {
          "internalType": "bool",
          "name": "",
          "type": "bool"
        }
      ],
      "stateMutability": "view",
      "type": "function"
    },
    {
      "inputs": [
        {
          "internalType": "address",
          "name": "to",
          "type": "address"
        },
        {
          "internalType": "bytes32",
          "name": "external_url",
          "type": "bytes32"
        },
        {
          "internalType": "bytes32",
          "name": "ENS",
          "type": "bytes32"
        },
        {
          "internalType": "string",
          "name": "commit_hash",
          "type": "string"
        },
        {
          "internalType": "string",
          "name": "git_repository",
          "type": "string"
        }
      ],
      "name": "mint",
      "outputs": [
        {
          "internalType": "uint256",
          "name": "",
          "type": "uint256"
        }
      ],
      "stateMutability": "payable",
      "type": "function"
    },
    {
      "inputs": [],
      "name": "name",
      "outputs": [
        {
          "internalType": "string",
          "name": "",
          "type": "string"
        }
      ],
      "stateMutability": "view",
      "type": "function"
    },
    {
      "inputs": [
        {
          "internalType": "uint256",
          "name": "tokenId",
          "type": "uint256"
        }
      ],
      "name": "ownerOf",
      "outputs": [
        {
          "internalType": "address",
          "name": "",
          "type": "address"
        }
      ],
      "stateMutability": "view",
      "type": "function"
    },
    {
      "inputs": [
        {
          "internalType": "uint256",
          "name": "tokenId",
          "type": "uint256"
        },
        {
          "internalType": "address",
          "name": "controller",
          "type": "address"
        }
      ],
      "name": "removeTokenController",
      "outputs": [],
      "stateMutability": "nonpayable",
      "type": "function"
    },
    {
      "inputs": [
        {
          "internalType": "bytes32",
          "name": "role",
          "type": "bytes32"
        },
        {
          "internalType": "address",
          "name": "account",
          "type": "address"
        }
      ],
      "name": "renounceRole",
      "outputs": [],
      "stateMutability": "nonpayable",
      "type": "function"
    },
    {
      "inputs": [
        {
          "internalType": "bytes32",
          "name": "role",
          "type": "bytes32"
        },
        {
          "internalType": "address",
          "name": "account",
          "type": "address"
        }
      ],
      "name": "revokeRole",
      "outputs": [],
      "stateMutability": "nonpayable",
      "type": "function"
    },
    {
      "inputs": [
        {
          "internalType": "address",
          "name": "from",
          "type": "address"
        },
        {
          "internalType": "address",
          "name": "to",
          "type": "address"
        },
        {
          "internalType": "uint256",
          "name": "tokenId",
          "type": "uint256"
        }
      ],
      "name": "safeTransferFrom",
      "outputs": [],
      "stateMutability": "nonpayable",
      "type": "function"
    },
    {
      "inputs": [
        {
          "internalType": "address",
          "name": "from",
          "type": "address"
        },
        {
          "internalType": "address",
          "name": "to",
          "type": "address"
        },
        {
          "internalType": "uint256",
          "name": "tokenId",
          "type": "uint256"
        },
        {
          "internalType": "bytes",
          "name": "data",
          "type": "bytes"
        }
      ],
      "name": "safeTransferFrom",
      "outputs": [],
      "stateMutability": "nonpayable",
      "type": "function"
    },
    {
      "inputs": [
        {
          "internalType": "address",
          "name": "operator",
          "type": "address"
        },
        {
          "internalType": "bool",
          "name": "approved",
          "type": "bool"
        }
      ],
      "name": "setApprovalForAll",
      "outputs": [],
      "stateMutability": "nonpayable",
      "type": "function"
    },
    {
      "inputs": [
        {
          "internalType": "bytes4",
          "name": "interfaceId",
          "type": "bytes4"
        }
      ],
      "name": "supportsInterface",
      "outputs": [
        {
          "internalType": "bool",
          "name": "",
          "type": "bool"
        }
      ],
      "stateMutability": "view",
      "type": "function"
    },
    {
      "inputs": [],
      "name": "symbol",
      "outputs": [
        {
          "internalType": "string",
          "name": "",
          "type": "string"
        }
      ],
      "stateMutability": "view",
      "type": "function"
    },
    {
      "inputs": [
        {
          "internalType": "uint256",
          "name": "tokenId",
          "type": "uint256"
        }
      ],
      "name": "tokenURI",
      "outputs": [
        {
          "internalType": "string",
          "name": "",
          "type": "string"
        }
      ],
      "stateMutability": "view",
      "type": "function"
    },
    {
      "inputs": [
        {
          "internalType": "address",
          "name": "from",
          "type": "address"
        },
        {
          "internalType": "address",
          "name": "to",
          "type": "address"
        },
        {
          "internalType": "uint256",
          "name": "tokenId",
          "type": "uint256"
        }
      ],
      "name": "transferFrom",
      "outputs": [],
      "stateMutability": "nonpayable",
      "type": "function"
    },
    {
      "inputs": [
        {
          "internalType": "uint256",
          "name": "tokenId",
          "type": "uint256"
        },
        {
          "internalType": "string",
          "name": "commit",
          "type": "string"
        },
        {
          "internalType": "string",
          "name": "repository",
          "type": "string"
        }
      ],
      "name": "upgradeTokenBuild",
      "outputs": [],
      "stateMutability": "payable",
      "type": "function"
    }
  ],
  "transactionHash": "0x6ba4ca416b138e63c325341579b35f24ca79634e2a8793967d263b7ef2736dbb",
  "args": [
    "FleekSites",
    "FLKSITE"
  ],
  "numDeployments": 1,
  "solcInputHash": "8aabd8091114725afcd541b4735c2ca2",
  "bytecode": "0x60806040523480156200001157600080fd5b506040516200478e3803806200478e8339818101604052810190620000379190620003f3565b8181816000908051906020019062000051929190620002c5565b5080600190805190602001906200006a929190620002c5565b505050620000a27fcac50f86c292f6863f130b9e1133a5f875e8e957fed41745b8fa2498550cbdfc6000801b620000dc60201b60201c565b620000d47fcac50f86c292f6863f130b9e1133a5f875e8e957fed41745b8fa2498550cbdfc336200014060201b60201c565b5050620005fc565b6000620000ef836200023260201b60201c565b90508160066000858152602001908152602001600020600101819055508181847fbd79b86ffe0ab8e8776151514217cd7cacd52c909f66475c3af44e129f0b00ff60405160405180910390a4505050565b6200015282826200025260201b60201c565b6200022e5760016006600084815260200190815260200160002060000160008373ffffffffffffffffffffffffffffffffffffffff1673ffffffffffffffffffffffffffffffffffffffff16815260200190815260200160002060006101000a81548160ff021916908315150217905550620001d3620002bd60201b60201c565b73ffffffffffffffffffffffffffffffffffffffff168173ffffffffffffffffffffffffffffffffffffffff16837f2f8788117e7eff1d82e926ec794901d17c78024a50270940304540a733656f0d60405160405180910390a45b5050565b600060066000838152602001908152602001600020600101549050919050565b60006006600084815260200190815260200160002060000160008373ffffffffffffffffffffffffffffffffffffffff1673ffffffffffffffffffffffffffffffffffffffff16815260200190815260200160002060009054906101000a900460ff16905092915050565b600033905090565b828054620002d3906200050d565b90600052602060002090601f016020900481019282620002f7576000855562000343565b82601f106200031257805160ff191683800117855562000343565b8280016001018555821562000343579182015b828111156200034257825182559160200191906001019062000325565b5b50905062000352919062000356565b5090565b5b808211156200037157600081600090555060010162000357565b5090565b60006200038c6200038684620004a1565b62000478565b905082815260208101848484011115620003ab57620003aa620005dc565b5b620003b8848285620004d7565b509392505050565b600082601f830112620003d857620003d7620005d7565b5b8151620003ea84826020860162000375565b91505092915050565b600080604083850312156200040d576200040c620005e6565b5b600083015167ffffffffffffffff8111156200042e576200042d620005e1565b5b6200043c85828601620003c0565b925050602083015167ffffffffffffffff81111562000460576200045f620005e1565b5b6200046e85828601620003c0565b9150509250929050565b60006200048462000497565b905062000492828262000543565b919050565b6000604051905090565b600067ffffffffffffffff821115620004bf57620004be620005a8565b5b620004ca82620005eb565b9050602081019050919050565b60005b83811015620004f7578082015181840152602081019050620004da565b8381111562000507576000848401525b50505050565b600060028204905060018216806200052657607f821691505b602082108114156200053d576200053c62000579565b5b50919050565b6200054e82620005eb565b810181811067ffffffffffffffff8211171562000570576200056f620005a8565b5b80604052505050565b7f4e487b7100000000000000000000000000000000000000000000000000000000600052602260045260246000fd5b7f4e487b7100000000000000000000000000000000000000000000000000000000600052604160045260246000fd5b600080fd5b600080fd5b600080fd5b600080fd5b6000601f19601f8301169050919050565b614182806200060c6000396000f3fe6080604052600436106101665760003560e01c806395d89b41116100d1578063b88d4fde1161008a578063d547741f11610064578063d547741f14610556578063dcd781861461057f578063e46f29c8146105a8578063e985e9c5146105d357610166565b8063b88d4fde146104c7578063befaa6a3146104f0578063c87b56dd1461051957610166565b806395d89b41146103d1578063987c26fd146103fc57806398b7079314610418578063a0c5a75e14610443578063a217fddf14610473578063a22cb4651461049e57610166565b80632f2ff15d116101235780632f2ff15d1461029f57806336568abe146102c857806342842e0e146102f15780636352211e1461031a57806370a082311461035757806391d148541461039457610166565b806301ffc9a71461016b57806306fdde03146101a8578063081812fc146101d3578063095ea7b31461021057806323b872dd14610239578063248a9ca314610262575b600080fd5b34801561017757600080fd5b50610192600480360381019061018d9190612a96565b610610565b60405161019f91906133db565b60405180910390f35b3480156101b457600080fd5b506101bd610622565b6040516101ca9190613411565b60405180910390f35b3480156101df57600080fd5b506101fa60048036038101906101f59190612af0565b6106b4565b6040516102079190613374565b60405180910390f35b34801561021c57600080fd5b50610237600480360381019061023291906129e9565b6106fa565b005b34801561024557600080fd5b50610260600480360381019061025b9190612820565b610812565b005b34801561026e57600080fd5b5061028960048036038101906102849190612a29565b610872565b60405161029691906133f6565b60405180910390f35b3480156102ab57600080fd5b506102c660048036038101906102c19190612a56565b610892565b005b3480156102d457600080fd5b506102ef60048036038101906102ea9190612a56565b6108b3565b005b3480156102fd57600080fd5b5061031860048036038101906103139190612820565b610936565b005b34801561032657600080fd5b50610341600480360381019061033c9190612af0565b610956565b60405161034e9190613374565b60405180910390f35b34801561036357600080fd5b5061037e600480360381019061037991906127b3565b6109dd565b60405161038b9190613633565b60405180910390f35b3480156103a057600080fd5b506103bb60048036038101906103b69190612a56565b610a95565b6040516103c891906133db565b60405180910390f35b3480156103dd57600080fd5b506103e6610b00565b6040516103f39190613411565b60405180910390f35b61041660048036038101906104119190612b5d565b610b92565b005b34801561042457600080fd5b5061042d610c23565b60405161043a91906133f6565b60405180910390f35b61045d60048036038101906104589190612936565b610c47565b60405161046a9190613633565b60405180910390f35b34801561047f57600080fd5b50610488610d86565b60405161049591906133f6565b60405180910390f35b3480156104aa57600080fd5b506104c560048036038101906104c091906128f6565b610d8d565b005b3480156104d357600080fd5b506104ee60048036038101906104e99190612873565b610da3565b005b3480156104fc57600080fd5b5061051760048036038101906105129190612b1d565b610e05565b005b34801561052557600080fd5b50610540600480360381019061053b9190612af0565b610ed2565b60405161054d9190613411565b60405180910390f35b34801561056257600080fd5b5061057d60048036038101906105789190612a56565b610fa4565b005b34801561058b57600080fd5b506105a660048036038101906105a19190612b1d565b610fc5565b005b3480156105b457600080fd5b506105bd611092565b6040516105ca91906133f6565b60405180910390f35b3480156105df57600080fd5b506105fa60048036038101906105f591906127e0565b6110b6565b60405161060791906133db565b60405180910390f35b600061061b8261114a565b9050919050565b60606000805461063190613906565b80601f016020809104026020016040519081016040528092919081815260200182805461065d90613906565b80156106aa5780601f1061067f576101008083540402835291602001916106aa565b820191906000526020600020905b81548152906001019060200180831161068d57829003601f168201915b5050505050905090565b60006106bf826111c4565b6004600083815260200190815260200160002060009054906101000a900473ffffffffffffffffffffffffffffffffffffffff169050919050565b600061070582610956565b90508073ffffffffffffffffffffffffffffffffffffffff168373ffffffffffffffffffffffffffffffffffffffff161415610776576040517f08c379a000000000000000000000000000000000000000000000000000000000815260040161076d90613593565b60405180910390fd5b8073ffffffffffffffffffffffffffffffffffffffff1661079561120f565b73ffffffffffffffffffffffffffffffffffffffff1614806107c457506107c3816107be61120f565b6110b6565b5b610803576040517f08c379a00000000000000000000000000000000000000000000000000000000081526004016107fa906135b3565b60405180910390fd5b61080d8383611217565b505050565b61082361081d61120f565b826112d0565b610862576040517f08c379a000000000000000000000000000000000000000000000000000000000815260040161085990613453565b60405180910390fd5b61086d838383611365565b505050565b600060066000838152602001908152602001600020600101549050919050565b61089b82610872565b6108a48161165f565b6108ae8383611673565b505050565b6108bb61120f565b73ffffffffffffffffffffffffffffffffffffffff168173ffffffffffffffffffffffffffffffffffffffff1614610928576040517f08c379a000000000000000000000000000000000000000000000000000000000815260040161091f90613613565b60405180910390fd5b6109328282611754565b5050565b61095183838360405180602001604052806000815250610da3565b505050565b60008061096283611836565b9050600073ffffffffffffffffffffffffffffffffffffffff168173ffffffffffffffffffffffffffffffffffffffff1614156109d4576040517f08c379a00000000000000000000000000000000000000000000000000000000081526004016109cb90613573565b60405180910390fd5b80915050919050565b60008073ffffffffffffffffffffffffffffffffffffffff168273ffffffffffffffffffffffffffffffffffffffff161415610a4e576040517f08c379a0000000000000000000000000000000000000000000000000000000008152600401610a4590613513565b60405180910390fd5b600360008373ffffffffffffffffffffffffffffffffffffffff1673ffffffffffffffffffffffffffffffffffffffff168152602001908152602001600020549050919050565b60006006600084815260200190815260200160002060000160008373ffffffffffffffffffffffffffffffffffffffff1673ffffffffffffffffffffffffffffffffffffffff16815260200190815260200160002060009054906101000a900460ff16905092915050565b606060018054610b0f90613906565b80601f0160208091040260200160405190810160405280929190818152602001828054610b3b90613906565b8015610b885780601f10610b5d57610100808354040283529160200191610b88565b820191906000526020600020905b815481529060010190602001808311610b6b57829003601f168201915b5050505050905090565b82610b9c81610956565b73ffffffffffffffffffffffffffffffffffffffff163373ffffffffffffffffffffffffffffffffffffffff1614610c09576040517f08c379a0000000000000000000000000000000000000000000000000000000008152600401610c0090613553565b60405180910390fd5b610c12846111c4565b610c1d848484611873565b50505050565b7fcac50f86c292f6863f130b9e1133a5f875e8e957fed41745b8fa2498550cbdfc81565b6000610c737fcac50f86c292f6863f130b9e1133a5f875e8e957fed41745b8fa2498550cbdfc33610a95565b610cb2576040517f08c379a0000000000000000000000000000000000000000000000000000000008152600401610ca9906135d3565b60405180910390fd5b6000610cbe60076119d6565b9050610cca87826119e4565b610cd48188610fc5565b610cde6007611c02565b6000600860008381526020019081526020016000209050868160000181905550858160010181905550600081600201819055506040518060400160405280868152602001858152508160030160008081526020019081526020016000206000820151816000019080519060200190610d579291906125b2565b506020820151816001019080519060200190610d749291906125b2565b50905050819250505095945050505050565b6000801b81565b610d9f610d9861120f565b8383611c18565b5050565b610db4610dae61120f565b836112d0565b610df3576040517f08c379a0000000000000000000000000000000000000000000000000000000008152600401610dea90613453565b60405180910390fd5b610dff84848484611d85565b50505050565b81610e0f81610956565b73ffffffffffffffffffffffffffffffffffffffff163373ffffffffffffffffffffffffffffffffffffffff1614610e7c576040517f08c379a0000000000000000000000000000000000000000000000000000000008152600401610e7390613553565b60405180910390fd5b610e85836111c4565b610ecd610ec7846040518060400160405280600a81526020017f434f4e54524f4c4c455200000000000000000000000000000000000000000000815250611de1565b83611754565b505050565b6060610edd826111c4565b6000610ee883610956565b905060006008600085815260200190815260200160002090506000828260010154836000015484600201548560030160008760020154815260200190815260200160002060000186600301600088600201548152602001908152602001600020600101604051602001610f609695949392919061322d565b6040516020818303038152906040529050610f79611e14565b81604051602001610f8b9291906131d6565b6040516020818303038152906040529350505050919050565b610fad82610872565b610fb68161165f565b610fc08383611754565b505050565b81610fcf81610956565b73ffffffffffffffffffffffffffffffffffffffff163373ffffffffffffffffffffffffffffffffffffffff161461103c576040517f08c379a000000000000000000000000000000000000000000000000000000000815260040161103390613553565b60405180910390fd5b611045836111c4565b61108d611087846040518060400160405280600a81526020017f434f4e54524f4c4c455200000000000000000000000000000000000000000000815250611de1565b83611673565b505050565b7f54812023c8fe13756580f3420840aeb566f69714bea27346e22e4c654756d77e81565b6000600560008473ffffffffffffffffffffffffffffffffffffffff1673ffffffffffffffffffffffffffffffffffffffff16815260200190815260200160002060008373ffffffffffffffffffffffffffffffffffffffff1673ffffffffffffffffffffffffffffffffffffffff16815260200190815260200160002060009054906101000a900460ff16905092915050565b60007f7965db0b000000000000000000000000000000000000000000000000000000007bffffffffffffffffffffffffffffffffffffffffffffffffffffffff1916827bffffffffffffffffffffffffffffffffffffffffffffffffffffffff191614806111bd57506111bc82611e51565b5b9050919050565b6111cd81611f33565b61120c576040517f08c379a000000000000000000000000000000000000000000000000000000000815260040161120390613573565b60405180910390fd5b50565b600033905090565b816004600083815260200190815260200160002060006101000a81548173ffffffffffffffffffffffffffffffffffffffff021916908373ffffffffffffffffffffffffffffffffffffffff160217905550808273ffffffffffffffffffffffffffffffffffffffff1661128a83610956565b73ffffffffffffffffffffffffffffffffffffffff167f8c5be1e5ebec7d5bd14f71427d1e84f3dd0314c0f7b2291e5b200ac8c7c3b92560405160405180910390a45050565b6000806112dc83610956565b90508073ffffffffffffffffffffffffffffffffffffffff168473ffffffffffffffffffffffffffffffffffffffff16148061131e575061131d81856110b6565b5b8061135c57508373ffffffffffffffffffffffffffffffffffffffff16611344846106b4565b73ffffffffffffffffffffffffffffffffffffffff16145b91505092915050565b8273ffffffffffffffffffffffffffffffffffffffff1661138582610956565b73ffffffffffffffffffffffffffffffffffffffff16146113db576040517f08c379a00000000000000000000000000000000000000000000000000000000081526004016113d290613493565b60405180910390fd5b600073ffffffffffffffffffffffffffffffffffffffff168273ffffffffffffffffffffffffffffffffffffffff16141561144b576040517f08c379a0000000000000000000000000000000000000000000000000000000008152600401611442906134d3565b60405180910390fd5b6114588383836001611f74565b8273ffffffffffffffffffffffffffffffffffffffff1661147882610956565b73ffffffffffffffffffffffffffffffffffffffff16146114ce576040517f08c379a00000000000000000000000000000000000000000000000000000000081526004016114c590613493565b60405180910390fd5b6004600082815260200190815260200160002060006101000a81549073ffffffffffffffffffffffffffffffffffffffff02191690556001600360008573ffffffffffffffffffffffffffffffffffffffff1673ffffffffffffffffffffffffffffffffffffffff168152602001908152602001600020600082825403925050819055506001600360008473ffffffffffffffffffffffffffffffffffffffff1673ffffffffffffffffffffffffffffffffffffffff16815260200190815260200160002060008282540192505081905550816002600083815260200190815260200160002060006101000a81548173ffffffffffffffffffffffffffffffffffffffff021916908373ffffffffffffffffffffffffffffffffffffffff160217905550808273ffffffffffffffffffffffffffffffffffffffff168473ffffffffffffffffffffffffffffffffffffffff167fddf252ad1be2c89b69c2b068fc378daa952ba7f163c4a11628f55a4df523b3ef60405160405180910390a461165a838383600161209a565b505050565b6116708161166b61120f565b6120a0565b50565b61167d8282610a95565b6117505760016006600084815260200190815260200160002060000160008373ffffffffffffffffffffffffffffffffffffffff1673ffffffffffffffffffffffffffffffffffffffff16815260200190815260200160002060006101000a81548160ff0219169083151502179055506116f561120f565b73ffffffffffffffffffffffffffffffffffffffff168173ffffffffffffffffffffffffffffffffffffffff16837f2f8788117e7eff1d82e926ec794901d17c78024a50270940304540a733656f0d60405160405180910390a45b5050565b61175e8282610a95565b156118325760006006600084815260200190815260200160002060000160008373ffffffffffffffffffffffffffffffffffffffff1673ffffffffffffffffffffffffffffffffffffffff16815260200190815260200160002060006101000a81548160ff0219169083151502179055506117d761120f565b73ffffffffffffffffffffffffffffffffffffffff168173ffffffffffffffffffffffffffffffffffffffff16837ff6391f5c32d9c69d2a47ea670b442974b53935d1edc7fd64eb21e047a839171b60405160405180910390a45b5050565b60006002600083815260200190815260200160002060009054906101000a900473ffffffffffffffffffffffffffffffffffffffff169050919050565b826118bc6118b6826040518060400160405280600a81526020017f434f4e54524f4c4c455200000000000000000000000000000000000000000000815250611de1565b33610a95565b6118fb576040517f08c379a00000000000000000000000000000000000000000000000000000000081526004016118f2906135f3565b60405180910390fd5b611904846111c4565b600160086000868152602001908152602001600020600201546119279190613738565b60086000868152602001908152602001600020600201819055506040518060400160405280848152602001838152506008600086815260200190815260200160002060030160006008600088815260200190815260200160002060020154815260200190815260200160002060008201518160000190805190602001906119af9291906125b2565b5060208201518160010190805190602001906119cc9291906125b2565b5090505050505050565b600081600001549050919050565b600073ffffffffffffffffffffffffffffffffffffffff168273ffffffffffffffffffffffffffffffffffffffff161415611a54576040517f08c379a0000000000000000000000000000000000000000000000000000000008152600401611a4b90613533565b60405180910390fd5b611a5d81611f33565b15611a9d576040517f08c379a0000000000000000000000000000000000000000000000000000000008152600401611a94906134b3565b60405180910390fd5b611aab600083836001611f74565b611ab481611f33565b15611af4576040517f08c379a0000000000000000000000000000000000000000000000000000000008152600401611aeb906134b3565b60405180910390fd5b6001600360008473ffffffffffffffffffffffffffffffffffffffff1673ffffffffffffffffffffffffffffffffffffffff16815260200190815260200160002060008282540192505081905550816002600083815260200190815260200160002060006101000a81548173ffffffffffffffffffffffffffffffffffffffff021916908373ffffffffffffffffffffffffffffffffffffffff160217905550808273ffffffffffffffffffffffffffffffffffffffff16600073ffffffffffffffffffffffffffffffffffffffff167fddf252ad1be2c89b69c2b068fc378daa952ba7f163c4a11628f55a4df523b3ef60405160405180910390a4611bfe60008383600161209a565b5050565b6001816000016000828254019250508190555050565b8173ffffffffffffffffffffffffffffffffffffffff168373ffffffffffffffffffffffffffffffffffffffff161415611c87576040517f08c379a0000000000000000000000000000000000000000000000000000000008152600401611c7e906134f3565b60405180910390fd5b80600560008573ffffffffffffffffffffffffffffffffffffffff1673ffffffffffffffffffffffffffffffffffffffff16815260200190815260200160002060008473ffffffffffffffffffffffffffffffffffffffff1673ffffffffffffffffffffffffffffffffffffffff16815260200190815260200160002060006101000a81548160ff0219169083151502179055508173ffffffffffffffffffffffffffffffffffffffff168373ffffffffffffffffffffffffffffffffffffffff167f17307eab39ab6107e8899845ad3d59bd9653f200f220920489ca2b5937696c3183604051611d7891906133db565b60405180910390a3505050565b611d90848484611365565b611d9c84848484612125565b611ddb576040517f08c379a0000000000000000000000000000000000000000000000000000000008152600401611dd290613473565b60405180910390fd5b50505050565b60008183604051602001611df69291906131fa565b60405160208183030381529060405280519060200120905092915050565b60606040518060400160405280601d81526020017f646174613a6170706c69636174696f6e2f6a736f6e3b6261736536342c000000815250905090565b60007f80ac58cd000000000000000000000000000000000000000000000000000000007bffffffffffffffffffffffffffffffffffffffffffffffffffffffff1916827bffffffffffffffffffffffffffffffffffffffffffffffffffffffff19161480611f1c57507f5b5e139f000000000000000000000000000000000000000000000000000000007bffffffffffffffffffffffffffffffffffffffffffffffffffffffff1916827bffffffffffffffffffffffffffffffffffffffffffffffffffffffff1916145b80611f2c5750611f2b826122bc565b5b9050919050565b60008073ffffffffffffffffffffffffffffffffffffffff16611f5583611836565b73ffffffffffffffffffffffffffffffffffffffff1614159050919050565b600181111561209457600073ffffffffffffffffffffffffffffffffffffffff168473ffffffffffffffffffffffffffffffffffffffff16146120085780600360008673ffffffffffffffffffffffffffffffffffffffff1673ffffffffffffffffffffffffffffffffffffffff168152602001908152602001600020600082825461200091906137e8565b925050819055505b600073ffffffffffffffffffffffffffffffffffffffff168373ffffffffffffffffffffffffffffffffffffffff16146120935780600360008573ffffffffffffffffffffffffffffffffffffffff1673ffffffffffffffffffffffffffffffffffffffff168152602001908152602001600020600082825461208b9190613738565b925050819055505b5b50505050565b50505050565b6120aa8282610a95565b612121576120b781612326565b6120c58360001c6020612353565b6040516020016120d692919061333a565b6040516020818303038152906040526040517f08c379a00000000000000000000000000000000000000000000000000000000081526004016121189190613411565b60405180910390fd5b5050565b60006121468473ffffffffffffffffffffffffffffffffffffffff1661258f565b156122af578373ffffffffffffffffffffffffffffffffffffffff1663150b7a0261216f61120f565b8786866040518563ffffffff1660e01b8152600401612191949392919061338f565b602060405180830381600087803b1580156121ab57600080fd5b505af19250505080156121dc57506040513d601f19601f820116820180604052508101906121d99190612ac3565b60015b61225f573d806000811461220c576040519150601f19603f3d011682016040523d82523d6000602084013e612211565b606091505b50600081511415612257576040517f08c379a000000000000000000000000000000000000000000000000000000000815260040161224e90613473565b60405180910390fd5b805181602001fd5b63150b7a0260e01b7bffffffffffffffffffffffffffffffffffffffffffffffffffffffff1916817bffffffffffffffffffffffffffffffffffffffffffffffffffffffff1916149150506122b4565b600190505b949350505050565b60007f01ffc9a7000000000000000000000000000000000000000000000000000000007bffffffffffffffffffffffffffffffffffffffffffffffffffffffff1916827bffffffffffffffffffffffffffffffffffffffffffffffffffffffff1916149050919050565b606061234c8273ffffffffffffffffffffffffffffffffffffffff16601460ff16612353565b9050919050565b606060006002836002612366919061378e565b6123709190613738565b67ffffffffffffffff81111561238957612388613a2e565b5b6040519080825280601f01601f1916602001820160405280156123bb5781602001600182028036833780820191505090505b5090507f3000000000000000000000000000000000000000000000000000000000000000816000815181106123f3576123f26139ff565b5b60200101907effffffffffffffffffffffffffffffffffffffffffffffffffffffffffffff1916908160001a9053507f780000000000000000000000000000000000000000000000000000000000000081600181518110612457576124566139ff565b5b60200101907effffffffffffffffffffffffffffffffffffffffffffffffffffffffffffff1916908160001a90535060006001846002612497919061378e565b6124a19190613738565b90505b6001811115612541577f3031323334353637383961626364656600000000000000000000000000000000600f8616601081106124e3576124e26139ff565b5b1a60f81b8282815181106124fa576124f96139ff565b5b60200101907effffffffffffffffffffffffffffffffffffffffffffffffffffffffffffff1916908160001a905350600485901c94508061253a906138dc565b90506124a4565b5060008414612585576040517f08c379a000000000000000000000000000000000000000000000000000000000815260040161257c90613433565b60405180910390fd5b8091505092915050565b6000808273ffffffffffffffffffffffffffffffffffffffff163b119050919050565b8280546125be90613906565b90600052602060002090601f0160209004810192826125e05760008555612627565b82601f106125f957805160ff1916838001178555612627565b82800160010185558215612627579182015b8281111561262657825182559160200191906001019061260b565b5b5090506126349190612638565b5090565b5b80821115612651576000816000905550600101612639565b5090565b600061266861266384613673565b61364e565b90508281526020810184848401111561268457612683613a62565b5b61268f84828561389a565b509392505050565b60006126aa6126a5846136a4565b61364e565b9050828152602081018484840111156126c6576126c5613a62565b5b6126d184828561389a565b509392505050565b6000813590506126e8816140d9565b92915050565b6000813590506126fd816140f0565b92915050565b60008135905061271281614107565b92915050565b6000813590506127278161411e565b92915050565b60008151905061273c8161411e565b92915050565b600082601f83011261275757612756613a5d565b5b8135612767848260208601612655565b91505092915050565b600082601f83011261278557612784613a5d565b5b8135612795848260208601612697565b91505092915050565b6000813590506127ad81614135565b92915050565b6000602082840312156127c9576127c8613a6c565b5b60006127d7848285016126d9565b91505092915050565b600080604083850312156127f7576127f6613a6c565b5b6000612805858286016126d9565b9250506020612816858286016126d9565b9150509250929050565b60008060006060848603121561283957612838613a6c565b5b6000612847868287016126d9565b9350506020612858868287016126d9565b92505060406128698682870161279e565b9150509250925092565b6000806000806080858703121561288d5761288c613a6c565b5b600061289b878288016126d9565b94505060206128ac878288016126d9565b93505060406128bd8782880161279e565b925050606085013567ffffffffffffffff8111156128de576128dd613a67565b5b6128ea87828801612742565b91505092959194509250565b6000806040838503121561290d5761290c613a6c565b5b600061291b858286016126d9565b925050602061292c858286016126ee565b9150509250929050565b600080600080600060a0868803121561295257612951613a6c565b5b6000612960888289016126d9565b955050602061297188828901612703565b945050604061298288828901612703565b935050606086013567ffffffffffffffff8111156129a3576129a2613a67565b5b6129af88828901612770565b925050608086013567ffffffffffffffff8111156129d0576129cf613a67565b5b6129dc88828901612770565b9150509295509295909350565b60008060408385031215612a00576129ff613a6c565b5b6000612a0e858286016126d9565b9250506020612a1f8582860161279e565b9150509250929050565b600060208284031215612a3f57612a3e613a6c565b5b6000612a4d84828501612703565b91505092915050565b60008060408385031215612a6d57612a6c613a6c565b5b6000612a7b85828601612703565b9250506020612a8c858286016126d9565b9150509250929050565b600060208284031215612aac57612aab613a6c565b5b6000612aba84828501612718565b91505092915050565b600060208284031215612ad957612ad8613a6c565b5b6000612ae78482850161272d565b91505092915050565b600060208284031215612b0657612b05613a6c565b5b6000612b148482850161279e565b91505092915050565b60008060408385031215612b3457612b33613a6c565b5b6000612b428582860161279e565b9250506020612b53858286016126d9565b9150509250929050565b600080600060608486031215612b7657612b75613a6c565b5b6000612b848682870161279e565b935050602084013567ffffffffffffffff811115612ba557612ba4613a67565b5b612bb186828701612770565b925050604084013567ffffffffffffffff811115612bd257612bd1613a67565b5b612bde86828701612770565b9150509250925092565b612bf18161381c565b82525050565b612c08612c038261381c565b613969565b82525050565b612c178161382e565b82525050565b612c268161383a565b82525050565b612c3d612c388261383a565b61397b565b82525050565b6000612c4e826136ea565b612c588185613700565b9350612c688185602086016138a9565b612c7181613a71565b840191505092915050565b6000612c87826136ea565b612c918185613711565b9350612ca18185602086016138a9565b80840191505092915050565b6000612cb8826136f5565b612cc2818561371c565b9350612cd28185602086016138a9565b612cdb81613a71565b840191505092915050565b6000612cf1826136f5565b612cfb818561372d565b9350612d0b8185602086016138a9565b80840191505092915050565b60008154612d2481613906565b612d2e818661372d565b94506001821660008114612d495760018114612d5a57612d8d565b60ff19831686528186019350612d8d565b612d63856136d5565b60005b83811015612d8557815481890152600182019150602081019050612d66565b838801955050505b50505092915050565b6000612da360208361371c565b9150612dae82613a8f565b602082019050919050565b6000612dc6602d8361371c565b9150612dd182613ab8565b604082019050919050565b6000612de9600e8361372d565b9150612df482613b07565b600e82019050919050565b6000612e0c60108361372d565b9150612e1782613b30565b601082019050919050565b6000612e2f60328361371c565b9150612e3a82613b59565b604082019050919050565b6000612e5260028361372d565b9150612e5d82613ba8565b600282019050919050565b6000612e7560068361372d565b9150612e8082613bd1565b600682019050919050565b6000612e9860258361371c565b9150612ea382613bfa565b604082019050919050565b6000612ebb601c8361371c565b9150612ec682613c49565b602082019050919050565b6000612ede60248361371c565b9150612ee982613c72565b604082019050919050565b6000612f0160198361371c565b9150612f0c82613cc1565b602082019050919050565b6000612f24600f8361372d565b9150612f2f82613cea565b600f82019050919050565b6000612f4760068361372d565b9150612f5282613d13565b600682019050919050565b6000612f6a60298361371c565b9150612f7582613d3c565b604082019050919050565b6000612f8d60028361372d565b9150612f9882613d8b565b600282019050919050565b6000612fb060208361371c565b9150612fbb82613db4565b602082019050919050565b6000612fd360018361372d565b9150612fde82613ddd565b600182019050919050565b6000612ff660208361371c565b915061300182613e06565b602082019050919050565b600061301960018361372d565b915061302482613e2f565b600182019050919050565b600061303c60098361372d565b915061304782613e58565b600982019050919050565b600061305f60188361371c565b915061306a82613e81565b602082019050919050565b600061308260088361372d565b915061308d82613eaa565b600882019050919050565b60006130a560218361371c565b91506130b082613ed3565b604082019050919050565b60006130c8603d8361371c565b91506130d382613f22565b604082019050919050565b60006130eb60178361372d565b91506130f682613f71565b601782019050919050565b600061310e60338361371c565b915061311982613f9a565b604082019050919050565b600061313160288361371c565b915061313c82613fe9565b604082019050919050565b600061315460078361372d565b915061315f82614038565b600782019050919050565b600061317760118361372d565b915061318282614061565b601182019050919050565b600061319a602f8361371c565b91506131a58261408a565b604082019050919050565b6131b981613890565b82525050565b6131d06131cb82613890565b613997565b82525050565b60006131e28285612ce6565b91506131ee8284612c7c565b91508190509392505050565b600061320582612f3a565b91506132118285612ce6565b915061321d82846131bf565b6020820191508190509392505050565b60006132388261300c565b91506132438261302f565b915061324f8289612bf7565b60148201915061325e82612e45565b915061326982613147565b91506132758288612c2c565b60208201915061328482612e45565b915061328f82612dff565b915061329b8287612c2c565b6020820191506132aa82612e45565b91506132b582613075565b91506132c082612e68565b91506132cc82866131bf565b6020820191506132db82612e45565b91506132e682612f17565b91506132f28285612d17565b91506132fd82612e45565b915061330882612ddc565b91506133148284612d17565b915061331f82612f80565b915061332a82612fc6565b9150819050979650505050505050565b6000613345826130de565b91506133518285612ce6565b915061335c8261316a565b91506133688284612ce6565b91508190509392505050565b60006020820190506133896000830184612be8565b92915050565b60006080820190506133a46000830187612be8565b6133b16020830186612be8565b6133be60408301856131b0565b81810360608301526133d08184612c43565b905095945050505050565b60006020820190506133f06000830184612c0e565b92915050565b600060208201905061340b6000830184612c1d565b92915050565b6000602082019050818103600083015261342b8184612cad565b905092915050565b6000602082019050818103600083015261344c81612d96565b9050919050565b6000602082019050818103600083015261346c81612db9565b9050919050565b6000602082019050818103600083015261348c81612e22565b9050919050565b600060208201905081810360008301526134ac81612e8b565b9050919050565b600060208201905081810360008301526134cc81612eae565b9050919050565b600060208201905081810360008301526134ec81612ed1565b9050919050565b6000602082019050818103600083015261350c81612ef4565b9050919050565b6000602082019050818103600083015261352c81612f5d565b9050919050565b6000602082019050818103600083015261354c81612fa3565b9050919050565b6000602082019050818103600083015261356c81612fe9565b9050919050565b6000602082019050818103600083015261358c81613052565b9050919050565b600060208201905081810360008301526135ac81613098565b9050919050565b600060208201905081810360008301526135cc816130bb565b9050919050565b600060208201905081810360008301526135ec81613101565b9050919050565b6000602082019050818103600083015261360c81613124565b9050919050565b6000602082019050818103600083015261362c8161318d565b9050919050565b600060208201905061364860008301846131b0565b92915050565b6000613658613669565b90506136648282613938565b919050565b6000604051905090565b600067ffffffffffffffff82111561368e5761368d613a2e565b5b61369782613a71565b9050602081019050919050565b600067ffffffffffffffff8211156136bf576136be613a2e565b5b6136c882613a71565b9050602081019050919050565b60008190508160005260206000209050919050565b600081519050919050565b600081519050919050565b600082825260208201905092915050565b600081905092915050565b600082825260208201905092915050565b600081905092915050565b600061374382613890565b915061374e83613890565b9250827fffffffffffffffffffffffffffffffffffffffffffffffffffffffffffffffff03821115613783576137826139a1565b5b828201905092915050565b600061379982613890565b91506137a483613890565b9250817fffffffffffffffffffffffffffffffffffffffffffffffffffffffffffffffff04831182151516156137dd576137dc6139a1565b5b828202905092915050565b60006137f382613890565b91506137fe83613890565b925082821015613811576138106139a1565b5b828203905092915050565b600061382782613870565b9050919050565b60008115159050919050565b6000819050919050565b60007fffffffff0000000000000000000000000000000000000000000000000000000082169050919050565b600073ffffffffffffffffffffffffffffffffffffffff82169050919050565b6000819050919050565b82818337600083830152505050565b60005b838110156138c75780820151818401526020810190506138ac565b838111156138d6576000848401525b50505050565b60006138e782613890565b915060008214156138fb576138fa6139a1565b5b600182039050919050565b6000600282049050600182168061391e57607f821691505b60208210811415613932576139316139d0565b5b50919050565b61394182613a71565b810181811067ffffffffffffffff821117156139605761395f613a2e565b5b80604052505050565b600061397482613985565b9050919050565b6000819050919050565b600061399082613a82565b9050919050565b6000819050919050565b7f4e487b7100000000000000000000000000000000000000000000000000000000600052601160045260246000fd5b7f4e487b7100000000000000000000000000000000000000000000000000000000600052602260045260246000fd5b7f4e487b7100000000000000000000000000000000000000000000000000000000600052603260045260246000fd5b7f4e487b7100000000000000000000000000000000000000000000000000000000600052604160045260246000fd5b600080fd5b600080fd5b600080fd5b600080fd5b6000601f19601f8301169050919050565b60008160601b9050919050565b7f537472696e67733a20686578206c656e67746820696e73756666696369656e74600082015250565b7f4552433732313a2063616c6c6572206973206e6f7420746f6b656e206f776e6560008201527f72206f7220617070726f76656400000000000000000000000000000000000000602082015250565b7f227265706f7369746f7279223a22000000000000000000000000000000000000600082015250565b7f2265787465726e616c5f75726c223a2200000000000000000000000000000000600082015250565b7f4552433732313a207472616e7366657220746f206e6f6e20455243373231526560008201527f63656976657220696d706c656d656e7465720000000000000000000000000000602082015250565b7f222c000000000000000000000000000000000000000000000000000000000000600082015250565b7f226964223a220000000000000000000000000000000000000000000000000000600082015250565b7f4552433732313a207472616e736665722066726f6d20696e636f72726563742060008201527f6f776e6572000000000000000000000000000000000000000000000000000000602082015250565b7f4552433732313a20746f6b656e20616c7265616479206d696e74656400000000600082015250565b7f4552433732313a207472616e7366657220746f20746865207a65726f2061646460008201527f7265737300000000000000000000000000000000000000000000000000000000602082015250565b7f4552433732313a20617070726f766520746f2063616c6c657200000000000000600082015250565b7f22636f6d6d69745f68617368223a220000000000000000000000000000000000600082015250565b7f544f4b454e5f0000000000000000000000000000000000000000000000000000600082015250565b7f4552433732313a2061646472657373207a65726f206973206e6f74206120766160008201527f6c6964206f776e65720000000000000000000000000000000000000000000000602082015250565b7f227d000000000000000000000000000000000000000000000000000000000000600082015250565b7f4552433732313a206d696e7420746f20746865207a65726f2061646472657373600082015250565b7f7d00000000000000000000000000000000000000000000000000000000000000600082015250565b7f466c65656b4552433732313a206d75737420626520746f6b656e206f776e6572600082015250565b7f7b00000000000000000000000000000000000000000000000000000000000000600082015250565b7f226f776e6572223a220000000000000000000000000000000000000000000000600082015250565b7f4552433732313a20696e76616c696420746f6b656e2049440000000000000000600082015250565b7f226275696c643a7b000000000000000000000000000000000000000000000000600082015250565b7f4552433732313a20617070726f76616c20746f2063757272656e74206f776e6560008201527f7200000000000000000000000000000000000000000000000000000000000000602082015250565b7f4552433732313a20617070726f76652063616c6c6572206973206e6f7420746f60008201527f6b656e206f776e6572206f7220617070726f76656420666f7220616c6c000000602082015250565b7f416363657373436f6e74726f6c3a206163636f756e7420000000000000000000600082015250565b7f466c65656b416363657373436f6e74726f6c3a206d757374206861766520636f60008201527f6c6c656374696f6e206f776e657220726f6c6500000000000000000000000000602082015250565b7f466c65656b416363657373436f6e74726f6c3a206d757374206861766520746f60008201527f6b656e20726f6c65000000000000000000000000000000000000000000000000602082015250565b7f22454e53223a2200000000000000000000000000000000000000000000000000600082015250565b7f206973206d697373696e6720726f6c6520000000000000000000000000000000600082015250565b7f416363657373436f6e74726f6c3a2063616e206f6e6c792072656e6f756e636560008201527f20726f6c657320666f722073656c660000000000000000000000000000000000602082015250565b6140e28161381c565b81146140ed57600080fd5b50565b6140f98161382e565b811461410457600080fd5b50565b6141108161383a565b811461411b57600080fd5b50565b61412781613844565b811461413257600080fd5b50565b61413e81613890565b811461414957600080fd5b5056fea2646970667358221220c4edc7cb389c93bcf23badc1cedebad1e9dff69c63b2d153d574a1821eaa448864736f6c63430008070033",
  "devdoc": {
    "kind": "dev",
    "methods": {
      "approve(address,uint256)": {
        "details": "See {IERC721-approve}."
      },
      "balanceOf(address)": {
        "details": "See {IERC721-balanceOf}."
      },
      "getApproved(uint256)": {
        "details": "See {IERC721-getApproved}."
      },
      "getRoleAdmin(bytes32)": {
        "details": "Returns the admin role that controls `role`. See {grantRole} and {revokeRole}. To change a role's admin, use {_setRoleAdmin}."
      },
      "grantRole(bytes32,address)": {
        "details": "Grants `role` to `account`. If `account` had not been already granted `role`, emits a {RoleGranted} event. Requirements: - the caller must have ``role``'s admin role. May emit a {RoleGranted} event."
      },
      "hasRole(bytes32,address)": {
        "details": "Returns `true` if `account` has been granted `role`."
      },
      "isApprovedForAll(address,address)": {
        "details": "See {IERC721-isApprovedForAll}."
      },
      "name()": {
        "details": "See {IERC721Metadata-name}."
      },
      "ownerOf(uint256)": {
        "details": "See {IERC721-ownerOf}."
      },
      "renounceRole(bytes32,address)": {
        "details": "Revokes `role` from the calling account. Roles are often managed via {grantRole} and {revokeRole}: this function's purpose is to provide a mechanism for accounts to lose their privileges if they are compromised (such as when a trusted device is misplaced). If the calling account had been revoked `role`, emits a {RoleRevoked} event. Requirements: - the caller must be `account`. May emit a {RoleRevoked} event."
      },
      "revokeRole(bytes32,address)": {
        "details": "Revokes `role` from `account`. If `account` had been granted `role`, emits a {RoleRevoked} event. Requirements: - the caller must have ``role``'s admin role. May emit a {RoleRevoked} event."
      },
      "safeTransferFrom(address,address,uint256)": {
        "details": "See {IERC721-safeTransferFrom}."
      },
      "safeTransferFrom(address,address,uint256,bytes)": {
        "details": "See {IERC721-safeTransferFrom}."
      },
      "setApprovalForAll(address,bool)": {
        "details": "See {IERC721-setApprovalForAll}."
      },
      "symbol()": {
        "details": "See {IERC721Metadata-symbol}."
      },
      "tokenURI(uint256)": {
        "details": "See {IERC721Metadata-tokenURI}."
      },
      "transferFrom(address,address,uint256)": {
        "details": "See {IERC721-transferFrom}."
      }
    },
    "version": 1
  },
  "userdoc": {
    "kind": "user",
    "methods": {},
    "version": 1
  },
  "storageLayout": {
    "storage": [
      {
        "astId": 414,
        "contract": "contracts/FleekERC721.sol:FleekERC721",
        "label": "_name",
        "offset": 0,
        "slot": "0",
        "type": "t_string_storage"
      },
      {
        "astId": 416,
        "contract": "contracts/FleekERC721.sol:FleekERC721",
        "label": "_symbol",
        "offset": 0,
        "slot": "1",
        "type": "t_string_storage"
      },
      {
        "astId": 420,
        "contract": "contracts/FleekERC721.sol:FleekERC721",
        "label": "_owners",
        "offset": 0,
        "slot": "2",
        "type": "t_mapping(t_uint256,t_address)"
      },
      {
        "astId": 424,
        "contract": "contracts/FleekERC721.sol:FleekERC721",
        "label": "_balances",
        "offset": 0,
        "slot": "3",
        "type": "t_mapping(t_address,t_uint256)"
      },
      {
        "astId": 428,
        "contract": "contracts/FleekERC721.sol:FleekERC721",
        "label": "_tokenApprovals",
        "offset": 0,
        "slot": "4",
        "type": "t_mapping(t_uint256,t_address)"
      },
      {
        "astId": 434,
        "contract": "contracts/FleekERC721.sol:FleekERC721",
        "label": "_operatorApprovals",
        "offset": 0,
        "slot": "5",
        "type": "t_mapping(t_address,t_mapping(t_address,t_bool))"
      },
      {
        "astId": 24,
        "contract": "contracts/FleekERC721.sol:FleekERC721",
        "label": "_roles",
        "offset": 0,
        "slot": "6",
        "type": "t_mapping(t_bytes32,t_struct(RoleData)19_storage)"
      },
      {
        "astId": 3132,
        "contract": "contracts/FleekERC721.sol:FleekERC721",
        "label": "_tokenIds",
        "offset": 0,
        "slot": "7",
        "type": "t_struct(Counter)1852_storage"
      },
      {
        "astId": 3137,
        "contract": "contracts/FleekERC721.sol:FleekERC721",
        "label": "_sites",
        "offset": 0,
        "slot": "8",
        "type": "t_mapping(t_uint256,t_struct(Site)3129_storage)"
      }
    ],
    "types": {
      "t_address": {
        "encoding": "inplace",
        "label": "address",
        "numberOfBytes": "20"
      },
      "t_bool": {
        "encoding": "inplace",
        "label": "bool",
        "numberOfBytes": "1"
      },
      "t_bytes32": {
        "encoding": "inplace",
        "label": "bytes32",
        "numberOfBytes": "32"
      },
      "t_mapping(t_address,t_bool)": {
        "encoding": "mapping",
        "key": "t_address",
        "label": "mapping(address => bool)",
        "numberOfBytes": "32",
        "value": "t_bool"
      },
      "t_mapping(t_address,t_mapping(t_address,t_bool))": {
        "encoding": "mapping",
        "key": "t_address",
        "label": "mapping(address => mapping(address => bool))",
        "numberOfBytes": "32",
        "value": "t_mapping(t_address,t_bool)"
      },
      "t_mapping(t_address,t_uint256)": {
        "encoding": "mapping",
        "key": "t_address",
        "label": "mapping(address => uint256)",
        "numberOfBytes": "32",
        "value": "t_uint256"
      },
      "t_mapping(t_bytes32,t_struct(RoleData)19_storage)": {
        "encoding": "mapping",
        "key": "t_bytes32",
        "label": "mapping(bytes32 => struct AccessControl.RoleData)",
        "numberOfBytes": "32",
        "value": "t_struct(RoleData)19_storage"
      },
      "t_mapping(t_uint256,t_address)": {
        "encoding": "mapping",
        "key": "t_uint256",
        "label": "mapping(uint256 => address)",
        "numberOfBytes": "32",
        "value": "t_address"
      },
      "t_mapping(t_uint256,t_struct(Build)3117_storage)": {
        "encoding": "mapping",
        "key": "t_uint256",
        "label": "mapping(uint256 => struct FleekERC721.Build)",
        "numberOfBytes": "32",
        "value": "t_struct(Build)3117_storage"
      },
      "t_mapping(t_uint256,t_struct(Site)3129_storage)": {
        "encoding": "mapping",
        "key": "t_uint256",
        "label": "mapping(uint256 => struct FleekERC721.Site)",
        "numberOfBytes": "32",
        "value": "t_struct(Site)3129_storage"
      },
      "t_string_storage": {
        "encoding": "bytes",
        "label": "string",
        "numberOfBytes": "32"
      },
      "t_struct(Build)3117_storage": {
        "encoding": "inplace",
        "label": "struct FleekERC721.Build",
        "members": [
          {
            "astId": 3114,
            "contract": "contracts/FleekERC721.sol:FleekERC721",
            "label": "commit_hash",
            "offset": 0,
            "slot": "0",
            "type": "t_string_storage"
          },
          {
            "astId": 3116,
            "contract": "contracts/FleekERC721.sol:FleekERC721",
            "label": "git_repository",
            "offset": 0,
            "slot": "1",
            "type": "t_string_storage"
          }
        ],
        "numberOfBytes": "64"
      },
      "t_struct(Counter)1852_storage": {
        "encoding": "inplace",
        "label": "struct Counters.Counter",
        "members": [
          {
            "astId": 1851,
            "contract": "contracts/FleekERC721.sol:FleekERC721",
            "label": "_value",
            "offset": 0,
            "slot": "0",
            "type": "t_uint256"
          }
        ],
        "numberOfBytes": "32"
      },
      "t_struct(RoleData)19_storage": {
        "encoding": "inplace",
        "label": "struct AccessControl.RoleData",
        "members": [
          {
            "astId": 16,
            "contract": "contracts/FleekERC721.sol:FleekERC721",
            "label": "members",
            "offset": 0,
            "slot": "0",
            "type": "t_mapping(t_address,t_bool)"
          },
          {
            "astId": 18,
            "contract": "contracts/FleekERC721.sol:FleekERC721",
            "label": "adminRole",
            "offset": 0,
            "slot": "1",
            "type": "t_bytes32"
          }
        ],
        "numberOfBytes": "64"
      },
      "t_struct(Site)3129_storage": {
        "encoding": "inplace",
        "label": "struct FleekERC721.Site",
        "members": [
          {
            "astId": 3119,
            "contract": "contracts/FleekERC721.sol:FleekERC721",
            "label": "external_url",
            "offset": 0,
            "slot": "0",
            "type": "t_bytes32"
          },
          {
            "astId": 3121,
            "contract": "contracts/FleekERC721.sol:FleekERC721",
            "label": "ENS",
            "offset": 0,
            "slot": "1",
            "type": "t_bytes32"
          },
          {
            "astId": 3123,
            "contract": "contracts/FleekERC721.sol:FleekERC721",
            "label": "current_build",
            "offset": 0,
            "slot": "2",
            "type": "t_uint256"
          },
          {
            "astId": 3128,
            "contract": "contracts/FleekERC721.sol:FleekERC721",
            "label": "builds",
            "offset": 0,
            "slot": "3",
            "type": "t_mapping(t_uint256,t_struct(Build)3117_storage)"
          }
        ],
        "numberOfBytes": "128"
      },
      "t_uint256": {
        "encoding": "inplace",
        "label": "uint256",
        "numberOfBytes": "32"
      }
    }
  }
}