{
  "_format": "hh-sol-artifact-1",
  "contractName": "FleekAccessControl",
  "sourceName": "contracts/FleekAccessControl.sol",
  "abi": [
    {
      "inputs": [],
      "stateMutability": "nonpayable",
      "type": "constructor"
    },
    {
      "anonymous": false,
      "inputs": [
        {
          "indexed": true,
          "internalType": "enum FleekAccessControl.Roles",
          "name": "role",
          "type": "uint8"
        },
        {
          "indexed": true,
          "internalType": "address",
          "name": "toAddress",
          "type": "address"
        },
        {
          "indexed": false,
          "internalType": "address",
          "name": "byAddress",
          "type": "address"
        }
      ],
      "name": "CollectionRoleGranted",
      "type": "event"
    },
    {
      "anonymous": false,
      "inputs": [
        {
          "indexed": true,
          "internalType": "enum FleekAccessControl.Roles",
          "name": "role",
          "type": "uint8"
        },
        {
          "indexed": true,
          "internalType": "address",
          "name": "toAddress",
          "type": "address"
        },
        {
          "indexed": false,
          "internalType": "address",
          "name": "byAddress",
          "type": "address"
        }
      ],
      "name": "CollectionRoleRevoked",
      "type": "event"
    },
    {
      "anonymous": false,
      "inputs": [
        {
          "indexed": true,
          "internalType": "uint256",
          "name": "tokenId",
          "type": "uint256"
        },
        {
          "indexed": true,
          "internalType": "enum FleekAccessControl.Roles",
          "name": "role",
          "type": "uint8"
        },
        {
          "indexed": true,
          "internalType": "address",
          "name": "toAddress",
          "type": "address"
        },
        {
          "indexed": false,
          "internalType": "address",
          "name": "byAddress",
          "type": "address"
        }
      ],
      "name": "TokenRoleGranted",
      "type": "event"
    },
    {
      "anonymous": false,
      "inputs": [
        {
          "indexed": true,
          "internalType": "uint256",
          "name": "tokenId",
          "type": "uint256"
        },
        {
          "indexed": true,
          "internalType": "enum FleekAccessControl.Roles",
          "name": "role",
          "type": "uint8"
        },
        {
          "indexed": true,
          "internalType": "address",
          "name": "toAddress",
          "type": "address"
        },
        {
          "indexed": false,
          "internalType": "address",
          "name": "byAddress",
          "type": "address"
        }
      ],
      "name": "TokenRoleRevoked",
      "type": "event"
    },
    {
      "inputs": [
        {
          "internalType": "enum FleekAccessControl.Roles",
          "name": "role",
          "type": "uint8"
        }
      ],
      "name": "getCollectionRoleMembers",
      "outputs": [
        {
          "internalType": "address[]",
          "name": "",
          "type": "address[]"
        }
      ],
      "stateMutability": "view",
      "type": "function"
    },
    {
      "inputs": [
        {
          "internalType": "uint256",
          "name": "tokenId",
          "type": "uint256"
        },
        {
          "internalType": "enum FleekAccessControl.Roles",
          "name": "role",
          "type": "uint8"
        }
      ],
      "name": "getTokenRoleMembers",
      "outputs": [
        {
          "internalType": "address[]",
          "name": "",
          "type": "address[]"
        }
      ],
      "stateMutability": "view",
      "type": "function"
    },
    {
      "inputs": [
        {
          "internalType": "enum FleekAccessControl.Roles",
          "name": "role",
          "type": "uint8"
        },
        {
          "internalType": "address",
          "name": "account",
          "type": "address"
        }
      ],
      "name": "grantCollectionRole",
      "outputs": [],
      "stateMutability": "nonpayable",
      "type": "function"
    },
    {
      "inputs": [
        {
          "internalType": "uint256",
          "name": "tokenId",
          "type": "uint256"
        },
        {
          "internalType": "enum FleekAccessControl.Roles",
          "name": "role",
          "type": "uint8"
        },
        {
          "internalType": "address",
          "name": "account",
          "type": "address"
        }
      ],
      "name": "grantTokenRole",
      "outputs": [],
      "stateMutability": "nonpayable",
      "type": "function"
    },
    {
      "inputs": [
        {
          "internalType": "enum FleekAccessControl.Roles",
          "name": "role",
          "type": "uint8"
        },
        {
          "internalType": "address",
          "name": "account",
          "type": "address"
        }
      ],
      "name": "hasCollectionRole",
      "outputs": [
        {
          "internalType": "bool",
          "name": "",
          "type": "bool"
        }
      ],
      "stateMutability": "view",
      "type": "function"
    },
    {
      "inputs": [
        {
          "internalType": "uint256",
          "name": "tokenId",
          "type": "uint256"
        },
        {
          "internalType": "enum FleekAccessControl.Roles",
          "name": "role",
          "type": "uint8"
        },
        {
          "internalType": "address",
          "name": "account",
          "type": "address"
        }
      ],
      "name": "hasTokenRole",
      "outputs": [
        {
          "internalType": "bool",
          "name": "",
          "type": "bool"
        }
      ],
      "stateMutability": "view",
      "type": "function"
    },
    {
      "inputs": [
        {
          "internalType": "enum FleekAccessControl.Roles",
          "name": "role",
          "type": "uint8"
        },
        {
          "internalType": "address",
          "name": "account",
          "type": "address"
        }
      ],
      "name": "revokeCollectionRole",
      "outputs": [],
      "stateMutability": "nonpayable",
      "type": "function"
    },
    {
      "inputs": [
        {
          "internalType": "uint256",
          "name": "tokenId",
          "type": "uint256"
        },
        {
          "internalType": "enum FleekAccessControl.Roles",
          "name": "role",
          "type": "uint8"
        },
        {
          "internalType": "address",
          "name": "account",
          "type": "address"
        }
      ],
      "name": "revokeTokenRole",
      "outputs": [],
      "stateMutability": "nonpayable",
      "type": "function"
    }
  ],
  "bytecode": "0x6080604052346100f85760008054815260016020908152604080832083805282528083203384529182905282205415610072575b506040513380825291907fcf081ed2b728e3115904be00eb8927b2375ff3401839b37f7accfa1bb2bee15c90602090a3604051610a8490816100fe8239f35b600181018054680100000000000000008110156100e157600181018083558110156100ca57818452602080852090910180546001600160a01b0319163390811790915591546000928352929052604090205538610033565b5050634e487b7160e01b8252506032600452602490fd5b5050634e487b7160e01b8252506041600452602490fd5b600080fdfe6040608081526004361015610015575b50600080fd5b600090813560e01c806301468deb146101a25780632d957aad1461018a5780632f1e8f0a14610126578063353b07a4146100ff5780638c3c0a44146100e7578063a27d0b27146100cc578063b42dbe38146100af5763e94472501461007a575061000f565b346100ab576100a79150610096610090366101ff565b90610659565b905190151581529081906020820190565b0390f35b5080fd5b50346100ab576100a791506100966100c6366101ba565b916106cc565b50346100ab576100e46100de366101ba565b91610420565b51f35b50346100ab576100e46100f9366101ff565b906104db565b50346100ab576100a7915061011b61011636610299565b61078e565b905191829182610255565b50346100ab576100a7915061011b600161018461017f61014536610236565b919061017061015e826000526002602052604060002090565b54916000526003602052604060002090565b90600052602052604060002090565b61060f565b01610715565b50346100ab576100e461019c366101ff565b90610317565b50346100ab576100e46101b4366101ba565b9161056d565b606090600319011261000f576004359060243560028110156101f757906044356001600160a01b0381168114156101ee5790565b50505050600080fd5b505050600080fd5b604090600319011261000f57600435600281101561022f57906024356001600160a01b0381168114156101f75790565b5050600080fd5b604090600319011261000f576004359060243560028110156101f75790565b6020908160408183019282815285518094520193019160005b82811061027c575050505090565b83516001600160a01b03168552938101939281019260010161026e565b602090600319011261000f57600435600281101561022f5790565b156102bb57565b5060405162461bcd60e51b815260206004820152602d60248201527f466c65656b416363657373436f6e74726f6c3a206d757374206861766520636f60448201526c6c6c656374696f6e20726f6c6560981b6064820152608490fd5b61032033610627565b80156103ae575b610330906102b4565b60005460005260016020526103528261034d83604060002061060f565b610850565b6002811015610395576040513381526001600160a01b03909216917fcf081ed2b728e3115904be00eb8927b2375ff3401839b37f7accfa1bb2bee15c90602090a3565b505050634e487b7160e01b600052602160045260246000fd5b506103306103bb33610627565b9050610327565b156103c957565b5060405162461bcd60e51b815260206004820152602860248201527f466c65656b416363657373436f6e74726f6c3a206d757374206861766520746f6044820152676b656e20726f6c6560c01b6064820152608490fd5b61042a338261068d565b80156104c6575b61043a906103c2565b6000818152600260205260408120546003602052604082209082526020526104698461034d856040852061060f565b60028310156104ad57506040513381526001600160a01b03909316927f0bf5a13b362503fcc74b8b9b1598aba2f3a9af85d05ba7978f7e9f447f22c23990602090a4565b634e487b7160e01b815260216004526024945092505050fd5b5061043a6104d4338361068d565b9050610431565b6104e433610627565b8015610559575b6104f4906102b4565b60005460005260016020526105168261051183604060002061060f565b610908565b6002811015610395576040513381526001600160a01b03909216917faeff57f0f5e4d3d10a37d4a70fde8ed67a95e67b251d5c512c0ea98c380d2f9590602090a3565b506104f461056633610627565b90506104eb565b610577338261068d565b80156105fa575b610587906103c2565b6000818152600260205260408120546003602052604082209082526020526105b684610511856040852061060f565b60028310156104ad57506040513381526001600160a01b03909316927fe52d746e4c78c98c6bfa291b273406905c3e8550b7d911a6bea686368c2dc79d90602090a4565b50610587610608338361068d565b905061057e565b90600281101561039557600052602052604060002090565b60008054815260016020908152604080832083805282528083206001600160a01b039094168352929052205b54151590565b90610676610653926000546000526001602052604060002061060f565b9060018060a01b0316600052602052604060002090565b60009081526002602090815260408083205460038352818420908452825280832083805282528083206001600160a01b03909416835292905220610653565b61065392916106769160005260026020526040600020546003602052604060002090600052602052604060002061060f565b50634e487b7160e01b600052604160045260246000fd5b906040519180548084526020908185019260005281600020916000905b82821061076e5750505050829003601f01601f1916820167ffffffffffffffff81118382101761076157604052565b6107696106fe565b604052565b83546001600160a01b031685529384019360019384019390910190610732565b600080548152600190816107aa6020948286526040842061060f565b01916040518094808554928381520194845280842093905b828210610801575050505050819003601f01601f1916810167ffffffffffffffff8111828210176107f4575b60405290565b6107fc6106fe565b6107ee565b84546001600160a01b031686529485019493830193908301906107c2565b80548210156108375760005260206000200190600090565b505050634e487b7160e01b600052603260045260246000fd5b6001600160a01b03821660009081526020829052604090209091905415610875575050565b6108e190600183016108c8826108a48354680100000000000000008110156108e4575b6001810185558461081f565b90919082549060031b9160018060a01b039283811b93849216901b16911916179055565b54929060018060a01b0316600052602052604060002090565b55565b6108ec6106fe565b610898565b50634e487b7160e01b600052601160045260246000fd5b6001600160a01b03821660009081526020829052604090209091905461092c575050565b6001600160a01b0381166000908152602083905260409020549060018210610a33575b6000199283830160018201936109ba61097487875460018110610a26575b018761081f565b90546001600160a01b039460039290921b1c841690610997826108a4838b61081f565b60011910610a19575b6001600160a01b0316600090815260208590526040902090565b5583549384156109fc576000956108e19501916109d7838361081f565b909182549160031b1b19169055559060018060a01b0316600052602052604060002090565b50505050505050634e487b7160e01b600052603160045260246000fd5b610a216108f1565b6109a0565b610a2e6108f1565b61096d565b610a3b6108f1565b61094f56fea3646970667358221220a184634af80636a286b6f1fb7d6788b947d3f1d83bd3f0581be6417bf67d25226c6578706572696d656e74616cf564736f6c634300080c0041",
  "linkReferences": {},
  "deployedLinkReferences": {}
}