{
  "address": "0x8464135c8F25Da09e49BC8782676a84730C318bC",
  "abi": [
    {
      "inputs": [
        {
          "internalType": "string",
          "name": "_name",
          "type": "string"
        },
        {
          "internalType": "string",
          "name": "_symbol",
          "type": "string"
        }
      ],
      "stateMutability": "nonpayable",
      "type": "constructor"
    },
    {
      "anonymous": false,
      "inputs": [
        {
          "indexed": true,
          "internalType": "address",
          "name": "owner",
          "type": "address"
        },
        {
          "indexed": true,
          "internalType": "address",
          "name": "approved",
          "type": "address"
        },
        {
          "indexed": true,
          "internalType": "uint256",
          "name": "tokenId",
          "type": "uint256"
        }
      ],
      "name": "Approval",
      "type": "event"
    },
    {
      "anonymous": false,
      "inputs": [
        {
          "indexed": true,
          "internalType": "address",
          "name": "owner",
          "type": "address"
        },
        {
          "indexed": true,
          "internalType": "address",
          "name": "operator",
          "type": "address"
        },
        {
          "indexed": false,
          "internalType": "bool",
          "name": "approved",
          "type": "bool"
        }
      ],
      "name": "ApprovalForAll",
      "type": "event"
    },
    {
      "anonymous": false,
      "inputs": [
        {
          "indexed": true,
          "internalType": "bytes32",
          "name": "role",
          "type": "bytes32"
        },
        {
          "indexed": true,
          "internalType": "bytes32",
          "name": "previousAdminRole",
          "type": "bytes32"
        },
        {
          "indexed": true,
          "internalType": "bytes32",
          "name": "newAdminRole",
          "type": "bytes32"
        }
      ],
      "name": "RoleAdminChanged",
      "type": "event"
    },
    {
      "anonymous": false,
      "inputs": [
        {
          "indexed": true,
          "internalType": "bytes32",
          "name": "role",
          "type": "bytes32"
        },
        {
          "indexed": true,
          "internalType": "address",
          "name": "account",
          "type": "address"
        },
        {
          "indexed": true,
          "internalType": "address",
          "name": "sender",
          "type": "address"
        }
      ],
      "name": "RoleGranted",
      "type": "event"
    },
    {
      "anonymous": false,
      "inputs": [
        {
          "indexed": true,
          "internalType": "bytes32",
          "name": "role",
          "type": "bytes32"
        },
        {
          "indexed": true,
          "internalType": "address",
          "name": "account",
          "type": "address"
        },
        {
          "indexed": true,
          "internalType": "address",
          "name": "sender",
          "type": "address"
        }
      ],
      "name": "RoleRevoked",
      "type": "event"
    },
    {
      "anonymous": false,
      "inputs": [
        {
          "indexed": true,
          "internalType": "address",
          "name": "from",
          "type": "address"
        },
        {
          "indexed": true,
          "internalType": "address",
          "name": "to",
          "type": "address"
        },
        {
          "indexed": true,
          "internalType": "uint256",
          "name": "tokenId",
          "type": "uint256"
        }
      ],
      "name": "Transfer",
      "type": "event"
    },
    {
      "inputs": [],
      "name": "COLLECTION_CONTROLLER_ROLE",
      "outputs": [
        {
          "internalType": "bytes32",
          "name": "",
          "type": "bytes32"
        }
      ],
      "stateMutability": "view",
      "type": "function"
    },
    {
      "inputs": [],
      "name": "COLLECTION_OWNER_ROLE",
      "outputs": [
        {
          "internalType": "bytes32",
          "name": "",
          "type": "bytes32"
        }
      ],
      "stateMutability": "view",
      "type": "function"
    },
    {
      "inputs": [],
      "name": "DEFAULT_ADMIN_ROLE",
      "outputs": [
        {
          "internalType": "bytes32",
          "name": "",
          "type": "bytes32"
        }
      ],
      "stateMutability": "view",
      "type": "function"
    },
    {
      "inputs": [
        {
          "internalType": "uint256",
          "name": "tokenId",
          "type": "uint256"
        },
        {
          "internalType": "address",
          "name": "controller",
          "type": "address"
        }
      ],
      "name": "addTokenController",
      "outputs": [],
      "stateMutability": "nonpayable",
      "type": "function"
    },
    {
      "inputs": [
        {
          "internalType": "address",
          "name": "to",
          "type": "address"
        },
        {
          "internalType": "uint256",
          "name": "tokenId",
          "type": "uint256"
        }
      ],
      "name": "approve",
      "outputs": [],
      "stateMutability": "nonpayable",
      "type": "function"
    },
    {
      "inputs": [
        {
          "internalType": "address",
          "name": "owner",
          "type": "address"
        }
      ],
      "name": "balanceOf",
      "outputs": [
        {
          "internalType": "uint256",
          "name": "",
          "type": "uint256"
        }
      ],
      "stateMutability": "view",
      "type": "function"
    },
    {
      "inputs": [
        {
          "internalType": "uint256",
          "name": "tokenId",
          "type": "uint256"
        }
      ],
      "name": "burn",
      "outputs": [],
      "stateMutability": "payable",
      "type": "function"
    },
    {
      "inputs": [
        {
          "internalType": "uint256",
          "name": "tokenId",
          "type": "uint256"
        }
      ],
      "name": "getApproved",
      "outputs": [
        {
          "internalType": "address",
          "name": "",
          "type": "address"
        }
      ],
      "stateMutability": "view",
      "type": "function"
    },
    {
      "inputs": [
        {
          "internalType": "bytes32",
          "name": "role",
          "type": "bytes32"
        }
      ],
      "name": "getRoleAdmin",
      "outputs": [
        {
          "internalType": "bytes32",
          "name": "",
          "type": "bytes32"
        }
      ],
      "stateMutability": "view",
      "type": "function"
    },
    {
      "inputs": [
        {
          "internalType": "bytes32",
          "name": "role",
          "type": "bytes32"
        },
        {
          "internalType": "address",
          "name": "account",
          "type": "address"
        }
      ],
      "name": "grantRole",
      "outputs": [],
      "stateMutability": "nonpayable",
      "type": "function"
    },
    {
      "inputs": [
        {
          "internalType": "bytes32",
          "name": "role",
          "type": "bytes32"
        },
        {
          "internalType": "address",
          "name": "account",
          "type": "address"
        }
      ],
      "name": "hasRole",
      "outputs": [
        {
          "internalType": "bool",
          "name": "",
          "type": "bool"
        }
      ],
      "stateMutability": "view",
      "type": "function"
    },
    {
      "inputs": [
        {
          "internalType": "address",
          "name": "owner",
          "type": "address"
        },
        {
          "internalType": "address",
          "name": "operator",
          "type": "address"
        }
      ],
      "name": "isApprovedForAll",
      "outputs": [
        {
          "internalType": "bool",
          "name": "",
          "type": "bool"
        }
      ],
      "stateMutability": "view",
      "type": "function"
    },
    {
      "inputs": [
        {
          "internalType": "address",
          "name": "to",
          "type": "address"
        },
        {
          "internalType": "bytes32",
          "name": "external_url",
          "type": "bytes32"
        },
        {
          "internalType": "bytes32",
          "name": "ENS",
          "type": "bytes32"
        },
        {
          "internalType": "string",
          "name": "commit_hash",
          "type": "string"
        },
        {
          "internalType": "string",
          "name": "git_repository",
          "type": "string"
        }
      ],
      "name": "mint",
      "outputs": [
        {
          "internalType": "uint256",
          "name": "",
          "type": "uint256"
        }
      ],
      "stateMutability": "payable",
      "type": "function"
    },
    {
      "inputs": [],
      "name": "name",
      "outputs": [
        {
          "internalType": "string",
          "name": "",
          "type": "string"
        }
      ],
      "stateMutability": "view",
      "type": "function"
    },
    {
      "inputs": [
        {
          "internalType": "uint256",
          "name": "tokenId",
          "type": "uint256"
        }
      ],
      "name": "ownerOf",
      "outputs": [
        {
          "internalType": "address",
          "name": "",
          "type": "address"
        }
      ],
      "stateMutability": "view",
      "type": "function"
    },
    {
      "inputs": [
        {
          "internalType": "uint256",
          "name": "tokenId",
          "type": "uint256"
        },
        {
          "internalType": "address",
          "name": "controller",
          "type": "address"
        }
      ],
      "name": "removeTokenController",
      "outputs": [],
      "stateMutability": "nonpayable",
      "type": "function"
    },
    {
      "inputs": [
        {
          "internalType": "bytes32",
          "name": "role",
          "type": "bytes32"
        },
        {
          "internalType": "address",
          "name": "account",
          "type": "address"
        }
      ],
      "name": "renounceRole",
      "outputs": [],
      "stateMutability": "nonpayable",
      "type": "function"
    },
    {
      "inputs": [
        {
          "internalType": "bytes32",
          "name": "role",
          "type": "bytes32"
        },
        {
          "internalType": "address",
          "name": "account",
          "type": "address"
        }
      ],
      "name": "revokeRole",
      "outputs": [],
      "stateMutability": "nonpayable",
      "type": "function"
    },
    {
      "inputs": [
        {
          "internalType": "address",
          "name": "from",
          "type": "address"
        },
        {
          "internalType": "address",
          "name": "to",
          "type": "address"
        },
        {
          "internalType": "uint256",
          "name": "tokenId",
          "type": "uint256"
        }
      ],
      "name": "safeTransferFrom",
      "outputs": [],
      "stateMutability": "nonpayable",
      "type": "function"
    },
    {
      "inputs": [
        {
          "internalType": "address",
          "name": "from",
          "type": "address"
        },
        {
          "internalType": "address",
          "name": "to",
          "type": "address"
        },
        {
          "internalType": "uint256",
          "name": "tokenId",
          "type": "uint256"
        },
        {
          "internalType": "bytes",
          "name": "data",
          "type": "bytes"
        }
      ],
      "name": "safeTransferFrom",
      "outputs": [],
      "stateMutability": "nonpayable",
      "type": "function"
    },
    {
      "inputs": [
        {
          "internalType": "address",
          "name": "operator",
          "type": "address"
        },
        {
          "internalType": "bool",
          "name": "approved",
          "type": "bool"
        }
      ],
      "name": "setApprovalForAll",
      "outputs": [],
      "stateMutability": "nonpayable",
      "type": "function"
    },
    {
      "inputs": [
        {
          "internalType": "uint256",
          "name": "tokenId",
          "type": "uint256"
        },
        {
          "internalType": "string",
          "name": "_commit_hash",
          "type": "string"
        },
        {
          "internalType": "string",
          "name": "_git_repository",
          "type": "string"
        }
      ],
      "name": "setTokenBuild",
      "outputs": [],
      "stateMutability": "payable",
      "type": "function"
    },
    {
      "inputs": [
        {
          "internalType": "uint256",
          "name": "tokenId",
          "type": "uint256"
        },
        {
          "internalType": "bytes32",
          "name": "_tokenENS",
          "type": "bytes32"
        }
      ],
      "name": "setTokenENS",
      "outputs": [],
      "stateMutability": "payable",
      "type": "function"
    },
    {
      "inputs": [
        {
          "internalType": "uint256",
          "name": "tokenId",
          "type": "uint256"
        },
        {
          "internalType": "bytes32",
          "name": "_tokenExternalURL",
          "type": "bytes32"
        }
      ],
      "name": "setTokenExternalURL",
      "outputs": [],
      "stateMutability": "payable",
      "type": "function"
    },
    {
      "inputs": [
        {
          "internalType": "bytes4",
          "name": "interfaceId",
          "type": "bytes4"
        }
      ],
      "name": "supportsInterface",
      "outputs": [
        {
          "internalType": "bool",
          "name": "",
          "type": "bool"
        }
      ],
      "stateMutability": "view",
      "type": "function"
    },
    {
      "inputs": [],
      "name": "symbol",
      "outputs": [
        {
          "internalType": "string",
          "name": "",
          "type": "string"
        }
      ],
      "stateMutability": "view",
      "type": "function"
    },
    {
      "inputs": [
        {
          "internalType": "uint256",
          "name": "tokenId",
          "type": "uint256"
        }
      ],
      "name": "tokenURI",
      "outputs": [
        {
          "internalType": "string",
          "name": "",
          "type": "string"
        }
      ],
      "stateMutability": "view",
      "type": "function"
    },
    {
      "inputs": [
        {
          "internalType": "address",
          "name": "from",
          "type": "address"
        },
        {
          "internalType": "address",
          "name": "to",
          "type": "address"
        },
        {
          "internalType": "uint256",
          "name": "tokenId",
          "type": "uint256"
        }
      ],
      "name": "transferFrom",
      "outputs": [],
      "stateMutability": "nonpayable",
      "type": "function"
    },
    {
      "inputs": [
        {
          "internalType": "uint256",
          "name": "tokenId",
          "type": "uint256"
        },
        {
          "internalType": "string",
          "name": "commit",
          "type": "string"
        },
        {
          "internalType": "string",
          "name": "repository",
          "type": "string"
        }
      ],
      "name": "upgradeTokenBuild",
      "outputs": [],
      "stateMutability": "payable",
      "type": "function"
    }
  ],
  "transactionHash": "0x9bbd2193ba51263e584935885aafa1c561f3d6e3a6ac9b672c98f847a3bc423b",
  "args": [
    "FleekSites",
    "FLKSITE"
  ],
  "numDeployments": 1,
  "solcInputHash": "c5d3d1f992d02d48f8722ea8871105d5",
  "bytecode": "0x60806040523480156200001157600080fd5b5060405162004cc238038062004cc28339818101604052810190620000379190620003f3565b8181816000908051906020019062000051929190620002c5565b5080600190805190602001906200006a929190620002c5565b505050620000a27fcac50f86c292f6863f130b9e1133a5f875e8e957fed41745b8fa2498550cbdfc6000801b620000dc60201b60201c565b620000d47fcac50f86c292f6863f130b9e1133a5f875e8e957fed41745b8fa2498550cbdfc336200014060201b60201c565b5050620005fc565b6000620000ef836200023260201b60201c565b90508160066000858152602001908152602001600020600101819055508181847fbd79b86ffe0ab8e8776151514217cd7cacd52c909f66475c3af44e129f0b00ff60405160405180910390a4505050565b6200015282826200025260201b60201c565b6200022e5760016006600084815260200190815260200160002060000160008373ffffffffffffffffffffffffffffffffffffffff1673ffffffffffffffffffffffffffffffffffffffff16815260200190815260200160002060006101000a81548160ff021916908315150217905550620001d3620002bd60201b60201c565b73ffffffffffffffffffffffffffffffffffffffff168173ffffffffffffffffffffffffffffffffffffffff16837f2f8788117e7eff1d82e926ec794901d17c78024a50270940304540a733656f0d60405160405180910390a45b5050565b600060066000838152602001908152602001600020600101549050919050565b60006006600084815260200190815260200160002060000160008373ffffffffffffffffffffffffffffffffffffffff1673ffffffffffffffffffffffffffffffffffffffff16815260200190815260200160002060009054906101000a900460ff16905092915050565b600033905090565b828054620002d3906200050d565b90600052602060002090601f016020900481019282620002f7576000855562000343565b82601f106200031257805160ff191683800117855562000343565b8280016001018555821562000343579182015b828111156200034257825182559160200191906001019062000325565b5b50905062000352919062000356565b5090565b5b808211156200037157600081600090555060010162000357565b5090565b60006200038c6200038684620004a1565b62000478565b905082815260208101848484011115620003ab57620003aa620005dc565b5b620003b8848285620004d7565b509392505050565b600082601f830112620003d857620003d7620005d7565b5b8151620003ea84826020860162000375565b91505092915050565b600080604083850312156200040d576200040c620005e6565b5b600083015167ffffffffffffffff8111156200042e576200042d620005e1565b5b6200043c85828601620003c0565b925050602083015167ffffffffffffffff81111562000460576200045f620005e1565b5b6200046e85828601620003c0565b9150509250929050565b60006200048462000497565b905062000492828262000543565b919050565b6000604051905090565b600067ffffffffffffffff821115620004bf57620004be620005a8565b5b620004ca82620005eb565b9050602081019050919050565b60005b83811015620004f7578082015181840152602081019050620004da565b8381111562000507576000848401525b50505050565b600060028204905060018216806200052657607f821691505b602082108114156200053d576200053c62000579565b5b50919050565b6200054e82620005eb565b810181811067ffffffffffffffff8211171562000570576200056f620005a8565b5b80604052505050565b7f4e487b7100000000000000000000000000000000000000000000000000000000600052602260045260246000fd5b7f4e487b7100000000000000000000000000000000000000000000000000000000600052604160045260246000fd5b600080fd5b600080fd5b600080fd5b600080fd5b6000601f19601f8301169050919050565b6146b6806200060c6000396000f3fe6080604052600436106101c25760003560e01c806391d14854116100f7578063b88d4fde11610095578063d547741f11610064578063d547741f14610622578063dcd781861461064b578063e46f29c814610674578063e985e9c51461069f576101c2565b8063b88d4fde14610577578063befaa6a3146105a0578063c87b56dd146105c9578063ceade7b614610606576101c2565b806398b70793116100d157806398b70793146104c8578063a0c5a75e146104f3578063a217fddf14610523578063a22cb4651461054e576101c2565b806391d148541461044457806395d89b4114610481578063987c26fd146104ac576101c2565b806336568abe1161016457806342966c681161013e57806342966c68146103925780636352211e146103ae578063651a32b9146103eb57806370a0823114610407576101c2565b806336568abe146103245780633806f1521461034d57806342842e0e14610369576101c2565b8063095ea7b3116101a0578063095ea7b31461026c57806323b872dd14610295578063248a9ca3146102be5780632f2ff15d146102fb576101c2565b806301ffc9a7146101c757806306fdde0314610204578063081812fc1461022f575b600080fd5b3480156101d357600080fd5b506101ee60048036038101906101e99190612f41565b6106dc565b6040516101fb91906138c6565b60405180910390f35b34801561021057600080fd5b506102196106ee565b60405161022691906138fc565b60405180910390f35b34801561023b57600080fd5b5061025660048036038101906102519190612f9b565b610780565b604051610263919061385f565b60405180910390f35b34801561027857600080fd5b50610293600480360381019061028e9190612e94565b6107c6565b005b3480156102a157600080fd5b506102bc60048036038101906102b79190612ccb565b6108de565b005b3480156102ca57600080fd5b506102e560048036038101906102e09190612ed4565b61093e565b6040516102f291906138e1565b60405180910390f35b34801561030757600080fd5b50610322600480360381019061031d9190612f01565b61095e565b005b34801561033057600080fd5b5061034b60048036038101906103469190612f01565b61097f565b005b61036760048036038101906103629190613048565b610a02565b005b34801561037557600080fd5b50610390600480360381019061038b9190612ccb565b610b3a565b005b6103ac60048036038101906103a79190612f9b565b610b5a565b005b3480156103ba57600080fd5b506103d560048036038101906103d09190612f9b565b610cb4565b6040516103e2919061385f565b60405180910390f35b61040560048036038101906104009190613008565b610d3b565b005b34801561041357600080fd5b5061042e60048036038101906104299190612c5e565b610dec565b60405161043b9190613b1e565b60405180910390f35b34801561045057600080fd5b5061046b60048036038101906104669190612f01565b610ea4565b60405161047891906138c6565b60405180910390f35b34801561048d57600080fd5b50610496610f0f565b6040516104a391906138fc565b60405180910390f35b6104c660048036038101906104c19190613048565b610fa1565b005b3480156104d457600080fd5b506104dd611032565b6040516104ea91906138e1565b60405180910390f35b61050d60048036038101906105089190612de1565b611056565b60405161051a9190613b1e565b60405180910390f35b34801561052f57600080fd5b50610538611195565b60405161054591906138e1565b60405180910390f35b34801561055a57600080fd5b5061057560048036038101906105709190612da1565b61119c565b005b34801561058357600080fd5b5061059e60048036038101906105999190612d1e565b6111b2565b005b3480156105ac57600080fd5b506105c760048036038101906105c29190612fc8565b611214565b005b3480156105d557600080fd5b506105f060048036038101906105eb9190612f9b565b6112e1565b6040516105fd91906138fc565b60405180910390f35b610620600480360381019061061b9190613008565b6113b3565b005b34801561062e57600080fd5b5061064960048036038101906106449190612f01565b611464565b005b34801561065757600080fd5b50610672600480360381019061066d9190612fc8565b611485565b005b34801561068057600080fd5b50610689611552565b60405161069691906138e1565b60405180910390f35b3480156106ab57600080fd5b506106c660048036038101906106c19190612c8b565b611576565b6040516106d391906138c6565b60405180910390f35b60006106e78261160a565b9050919050565b6060600080546106fd90613df1565b80601f016020809104026020016040519081016040528092919081815260200182805461072990613df1565b80156107765780601f1061074b57610100808354040283529160200191610776565b820191906000526020600020905b81548152906001019060200180831161075957829003601f168201915b5050505050905090565b600061078b82611684565b6004600083815260200190815260200160002060009054906101000a900473ffffffffffffffffffffffffffffffffffffffff169050919050565b60006107d182610cb4565b90508073ffffffffffffffffffffffffffffffffffffffff168373ffffffffffffffffffffffffffffffffffffffff161415610842576040517f08c379a000000000000000000000000000000000000000000000000000000000815260040161083990613a7e565b60405180910390fd5b8073ffffffffffffffffffffffffffffffffffffffff166108616116cf565b73ffffffffffffffffffffffffffffffffffffffff161480610890575061088f8161088a6116cf565b611576565b5b6108cf576040517f08c379a00000000000000000000000000000000000000000000000000000000081526004016108c690613a9e565b60405180910390fd5b6108d983836116d7565b505050565b6108ef6108e96116cf565b82611790565b61092e576040517f08c379a00000000000000000000000000000000000000000000000000000000081526004016109259061393e565b60405180910390fd5b610939838383611825565b505050565b600060066000838152602001908152602001600020600101549050919050565b6109678261093e565b61097081611b1f565b61097a8383611b33565b505050565b6109876116cf565b73ffffffffffffffffffffffffffffffffffffffff168173ffffffffffffffffffffffffffffffffffffffff16146109f4576040517f08c379a00000000000000000000000000000000000000000000000000000000081526004016109eb90613afe565b60405180910390fd5b6109fe8282611c14565b5050565b82610a4b610a45826040518060400160405280600a81526020017f434f4e54524f4c4c455200000000000000000000000000000000000000000000815250611cf6565b33610ea4565b610a8a576040517f08c379a0000000000000000000000000000000000000000000000000000000008152600401610a8190613ade565b60405180910390fd5b610a9384611684565b6040518060400160405280848152602001838152506008600086815260200190815260200160002060030160006008600088815260200190815260200160002060020160008154610ae390613e54565b91905081905581526020019081526020016000206000820151816000019080519060200190610b13929190612a5d565b506020820151816001019080519060200190610b30929190612a5d565b5090505050505050565b610b55838383604051806020016040528060008152506111b2565b505050565b80610ba3610b9d826040518060400160405280600a81526020017f434f4e54524f4c4c455200000000000000000000000000000000000000000000815250611cf6565b33610ea4565b610be2576040517f08c379a0000000000000000000000000000000000000000000000000000000008152600401610bd990613ade565b60405180910390fd5b3373ffffffffffffffffffffffffffffffffffffffff16610c0283610cb4565b73ffffffffffffffffffffffffffffffffffffffff1614610c58576040517f08c379a0000000000000000000000000000000000000000000000000000000008152600401610c4f90613a3e565b60405180910390fd5b610c6182611d29565b60006008600084815260200190815260200160002050602060ff1614610cb057600860008381526020019081526020016000206000808201600090556001820160009055600282016000905550505b5050565b600080610cc083611e77565b9050600073ffffffffffffffffffffffffffffffffffffffff168173ffffffffffffffffffffffffffffffffffffffff161415610d32576040517f08c379a0000000000000000000000000000000000000000000000000000000008152600401610d2990613a5e565b60405180910390fd5b80915050919050565b81610d84610d7e826040518060400160405280600a81526020017f434f4e54524f4c4c455200000000000000000000000000000000000000000000815250611cf6565b33610ea4565b610dc3576040517f08c379a0000000000000000000000000000000000000000000000000000000008152600401610dba90613ade565b60405180910390fd5b610dcc83611684565b816008600085815260200190815260200160002060000181905550505050565b60008073ffffffffffffffffffffffffffffffffffffffff168273ffffffffffffffffffffffffffffffffffffffff161415610e5d576040517f08c379a0000000000000000000000000000000000000000000000000000000008152600401610e54906139fe565b60405180910390fd5b600360008373ffffffffffffffffffffffffffffffffffffffff1673ffffffffffffffffffffffffffffffffffffffff168152602001908152602001600020549050919050565b60006006600084815260200190815260200160002060000160008373ffffffffffffffffffffffffffffffffffffffff1673ffffffffffffffffffffffffffffffffffffffff16815260200190815260200160002060009054906101000a900460ff16905092915050565b606060018054610f1e90613df1565b80601f0160208091040260200160405190810160405280929190818152602001828054610f4a90613df1565b8015610f975780601f10610f6c57610100808354040283529160200191610f97565b820191906000526020600020905b815481529060010190602001808311610f7a57829003601f168201915b5050505050905090565b82610fab81610cb4565b73ffffffffffffffffffffffffffffffffffffffff163373ffffffffffffffffffffffffffffffffffffffff1614611018576040517f08c379a000000000000000000000000000000000000000000000000000000000815260040161100f90613a3e565b60405180910390fd5b61102184611684565b61102c848484610a02565b50505050565b7fcac50f86c292f6863f130b9e1133a5f875e8e957fed41745b8fa2498550cbdfc81565b60006110827fcac50f86c292f6863f130b9e1133a5f875e8e957fed41745b8fa2498550cbdfc33610ea4565b6110c1576040517f08c379a00000000000000000000000000000000000000000000000000000000081526004016110b890613abe565b60405180910390fd5b60006110cd6007611eb4565b90506110d98782611ec2565b6110e38188611485565b6110ed60076120e0565b6000600860008381526020019081526020016000209050868160000181905550858160010181905550600081600201819055506040518060400160405280868152602001858152508160030160008081526020019081526020016000206000820151816000019080519060200190611166929190612a5d565b506020820151816001019080519060200190611183929190612a5d565b50905050819250505095945050505050565b6000801b81565b6111ae6111a76116cf565b83836120f6565b5050565b6111c36111bd6116cf565b83611790565b611202576040517f08c379a00000000000000000000000000000000000000000000000000000000081526004016111f99061393e565b60405180910390fd5b61120e84848484612263565b50505050565b8161121e81610cb4565b73ffffffffffffffffffffffffffffffffffffffff163373ffffffffffffffffffffffffffffffffffffffff161461128b576040517f08c379a000000000000000000000000000000000000000000000000000000000815260040161128290613a3e565b60405180910390fd5b61129483611684565b6112dc6112d6846040518060400160405280600a81526020017f434f4e54524f4c4c455200000000000000000000000000000000000000000000815250611cf6565b83611c14565b505050565b60606112ec82611684565b60006112f783610cb4565b90506000600860008581526020019081526020016000209050600082826001015483600001548460020154856003016000876002015481526020019081526020016000206000018660030160008860020154815260200190815260200160002060010160405160200161136f96959493929190613718565b60405160208183030381529060405290506113886122bf565b8160405160200161139a9291906136c1565b6040516020818303038152906040529350505050919050565b816113fc6113f6826040518060400160405280600a81526020017f434f4e54524f4c4c455200000000000000000000000000000000000000000000815250611cf6565b33610ea4565b61143b576040517f08c379a000000000000000000000000000000000000000000000000000000000815260040161143290613ade565b60405180910390fd5b61144483611684565b816008600085815260200190815260200160002060010181905550505050565b61146d8261093e565b61147681611b1f565b6114808383611c14565b505050565b8161148f81610cb4565b73ffffffffffffffffffffffffffffffffffffffff163373ffffffffffffffffffffffffffffffffffffffff16146114fc576040517f08c379a00000000000000000000000000000000000000000000000000000000081526004016114f390613a3e565b60405180910390fd5b61150583611684565b61154d611547846040518060400160405280600a81526020017f434f4e54524f4c4c455200000000000000000000000000000000000000000000815250611cf6565b83611b33565b505050565b7f54812023c8fe13756580f3420840aeb566f69714bea27346e22e4c654756d77e81565b6000600560008473ffffffffffffffffffffffffffffffffffffffff1673ffffffffffffffffffffffffffffffffffffffff16815260200190815260200160002060008373ffffffffffffffffffffffffffffffffffffffff1673ffffffffffffffffffffffffffffffffffffffff16815260200190815260200160002060009054906101000a900460ff16905092915050565b60007f7965db0b000000000000000000000000000000000000000000000000000000007bffffffffffffffffffffffffffffffffffffffffffffffffffffffff1916827bffffffffffffffffffffffffffffffffffffffffffffffffffffffff1916148061167d575061167c826122fc565b5b9050919050565b61168d816123de565b6116cc576040517f08c379a00000000000000000000000000000000000000000000000000000000081526004016116c390613a5e565b60405180910390fd5b50565b600033905090565b816004600083815260200190815260200160002060006101000a81548173ffffffffffffffffffffffffffffffffffffffff021916908373ffffffffffffffffffffffffffffffffffffffff160217905550808273ffffffffffffffffffffffffffffffffffffffff1661174a83610cb4565b73ffffffffffffffffffffffffffffffffffffffff167f8c5be1e5ebec7d5bd14f71427d1e84f3dd0314c0f7b2291e5b200ac8c7c3b92560405160405180910390a45050565b60008061179c83610cb4565b90508073ffffffffffffffffffffffffffffffffffffffff168473ffffffffffffffffffffffffffffffffffffffff1614806117de57506117dd8185611576565b5b8061181c57508373ffffffffffffffffffffffffffffffffffffffff1661180484610780565b73ffffffffffffffffffffffffffffffffffffffff16145b91505092915050565b8273ffffffffffffffffffffffffffffffffffffffff1661184582610cb4565b73ffffffffffffffffffffffffffffffffffffffff161461189b576040517f08c379a00000000000000000000000000000000000000000000000000000000081526004016118929061397e565b60405180910390fd5b600073ffffffffffffffffffffffffffffffffffffffff168273ffffffffffffffffffffffffffffffffffffffff16141561190b576040517f08c379a0000000000000000000000000000000000000000000000000000000008152600401611902906139be565b60405180910390fd5b611918838383600161241f565b8273ffffffffffffffffffffffffffffffffffffffff1661193882610cb4565b73ffffffffffffffffffffffffffffffffffffffff161461198e576040517f08c379a00000000000000000000000000000000000000000000000000000000081526004016119859061397e565b60405180910390fd5b6004600082815260200190815260200160002060006101000a81549073ffffffffffffffffffffffffffffffffffffffff02191690556001600360008573ffffffffffffffffffffffffffffffffffffffff1673ffffffffffffffffffffffffffffffffffffffff168152602001908152602001600020600082825403925050819055506001600360008473ffffffffffffffffffffffffffffffffffffffff1673ffffffffffffffffffffffffffffffffffffffff16815260200190815260200160002060008282540192505081905550816002600083815260200190815260200160002060006101000a81548173ffffffffffffffffffffffffffffffffffffffff021916908373ffffffffffffffffffffffffffffffffffffffff160217905550808273ffffffffffffffffffffffffffffffffffffffff168473ffffffffffffffffffffffffffffffffffffffff167fddf252ad1be2c89b69c2b068fc378daa952ba7f163c4a11628f55a4df523b3ef60405160405180910390a4611b1a8383836001612545565b505050565b611b3081611b2b6116cf565b61254b565b50565b611b3d8282610ea4565b611c105760016006600084815260200190815260200160002060000160008373ffffffffffffffffffffffffffffffffffffffff1673ffffffffffffffffffffffffffffffffffffffff16815260200190815260200160002060006101000a81548160ff021916908315150217905550611bb56116cf565b73ffffffffffffffffffffffffffffffffffffffff168173ffffffffffffffffffffffffffffffffffffffff16837f2f8788117e7eff1d82e926ec794901d17c78024a50270940304540a733656f0d60405160405180910390a45b5050565b611c1e8282610ea4565b15611cf25760006006600084815260200190815260200160002060000160008373ffffffffffffffffffffffffffffffffffffffff1673ffffffffffffffffffffffffffffffffffffffff16815260200190815260200160002060006101000a81548160ff021916908315150217905550611c976116cf565b73ffffffffffffffffffffffffffffffffffffffff168173ffffffffffffffffffffffffffffffffffffffff16837ff6391f5c32d9c69d2a47ea670b442974b53935d1edc7fd64eb21e047a839171b60405160405180910390a45b5050565b60008183604051602001611d0b9291906136e5565b60405160208183030381529060405280519060200120905092915050565b6000611d3482610cb4565b9050611d4481600084600161241f565b611d4d82610cb4565b90506004600083815260200190815260200160002060006101000a81549073ffffffffffffffffffffffffffffffffffffffff02191690556001600360008373ffffffffffffffffffffffffffffffffffffffff1673ffffffffffffffffffffffffffffffffffffffff168152602001908152602001600020600082825403925050819055506002600083815260200190815260200160002060006101000a81549073ffffffffffffffffffffffffffffffffffffffff021916905581600073ffffffffffffffffffffffffffffffffffffffff168273ffffffffffffffffffffffffffffffffffffffff167fddf252ad1be2c89b69c2b068fc378daa952ba7f163c4a11628f55a4df523b3ef60405160405180910390a4611e73816000846001612545565b5050565b60006002600083815260200190815260200160002060009054906101000a900473ffffffffffffffffffffffffffffffffffffffff169050919050565b600081600001549050919050565b600073ffffffffffffffffffffffffffffffffffffffff168273ffffffffffffffffffffffffffffffffffffffff161415611f32576040517f08c379a0000000000000000000000000000000000000000000000000000000008152600401611f2990613a1e565b60405180910390fd5b611f3b816123de565b15611f7b576040517f08c379a0000000000000000000000000000000000000000000000000000000008152600401611f729061399e565b60405180910390fd5b611f8960008383600161241f565b611f92816123de565b15611fd2576040517f08c379a0000000000000000000000000000000000000000000000000000000008152600401611fc99061399e565b60405180910390fd5b6001600360008473ffffffffffffffffffffffffffffffffffffffff1673ffffffffffffffffffffffffffffffffffffffff16815260200190815260200160002060008282540192505081905550816002600083815260200190815260200160002060006101000a81548173ffffffffffffffffffffffffffffffffffffffff021916908373ffffffffffffffffffffffffffffffffffffffff160217905550808273ffffffffffffffffffffffffffffffffffffffff16600073ffffffffffffffffffffffffffffffffffffffff167fddf252ad1be2c89b69c2b068fc378daa952ba7f163c4a11628f55a4df523b3ef60405160405180910390a46120dc600083836001612545565b5050565b6001816000016000828254019250508190555050565b8173ffffffffffffffffffffffffffffffffffffffff168373ffffffffffffffffffffffffffffffffffffffff161415612165576040517f08c379a000000000000000000000000000000000000000000000000000000000815260040161215c906139de565b60405180910390fd5b80600560008573ffffffffffffffffffffffffffffffffffffffff1673ffffffffffffffffffffffffffffffffffffffff16815260200190815260200160002060008473ffffffffffffffffffffffffffffffffffffffff1673ffffffffffffffffffffffffffffffffffffffff16815260200190815260200160002060006101000a81548160ff0219169083151502179055508173ffffffffffffffffffffffffffffffffffffffff168373ffffffffffffffffffffffffffffffffffffffff167f17307eab39ab6107e8899845ad3d59bd9653f200f220920489ca2b5937696c318360405161225691906138c6565b60405180910390a3505050565b61226e848484611825565b61227a848484846125d0565b6122b9576040517f08c379a00000000000000000000000000000000000000000000000000000000081526004016122b09061395e565b60405180910390fd5b50505050565b60606040518060400160405280601d81526020017f646174613a6170706c69636174696f6e2f6a736f6e3b6261736536342c000000815250905090565b60007f80ac58cd000000000000000000000000000000000000000000000000000000007bffffffffffffffffffffffffffffffffffffffffffffffffffffffff1916827bffffffffffffffffffffffffffffffffffffffffffffffffffffffff191614806123c757507f5b5e139f000000000000000000000000000000000000000000000000000000007bffffffffffffffffffffffffffffffffffffffffffffffffffffffff1916827bffffffffffffffffffffffffffffffffffffffffffffffffffffffff1916145b806123d757506123d682612767565b5b9050919050565b60008073ffffffffffffffffffffffffffffffffffffffff1661240083611e77565b73ffffffffffffffffffffffffffffffffffffffff1614159050919050565b600181111561253f57600073ffffffffffffffffffffffffffffffffffffffff168473ffffffffffffffffffffffffffffffffffffffff16146124b35780600360008673ffffffffffffffffffffffffffffffffffffffff1673ffffffffffffffffffffffffffffffffffffffff16815260200190815260200160002060008282546124ab9190613cd3565b925050819055505b600073ffffffffffffffffffffffffffffffffffffffff168373ffffffffffffffffffffffffffffffffffffffff161461253e5780600360008573ffffffffffffffffffffffffffffffffffffffff1673ffffffffffffffffffffffffffffffffffffffff16815260200190815260200160002060008282546125369190613c23565b925050819055505b5b50505050565b50505050565b6125558282610ea4565b6125cc57612562816127d1565b6125708360001c60206127fe565b604051602001612581929190613825565b6040516020818303038152906040526040517f08c379a00000000000000000000000000000000000000000000000000000000081526004016125c391906138fc565b60405180910390fd5b5050565b60006125f18473ffffffffffffffffffffffffffffffffffffffff16612a3a565b1561275a578373ffffffffffffffffffffffffffffffffffffffff1663150b7a0261261a6116cf565b8786866040518563ffffffff1660e01b815260040161263c949392919061387a565b602060405180830381600087803b15801561265657600080fd5b505af192505050801561268757506040513d601f19601f820116820180604052508101906126849190612f6e565b60015b61270a573d80600081146126b7576040519150601f19603f3d011682016040523d82523d6000602084013e6126bc565b606091505b50600081511415612702576040517f08c379a00000000000000000000000000000000000000000000000000000000081526004016126f99061395e565b60405180910390fd5b805181602001fd5b63150b7a0260e01b7bffffffffffffffffffffffffffffffffffffffffffffffffffffffff1916817bffffffffffffffffffffffffffffffffffffffffffffffffffffffff19161491505061275f565b600190505b949350505050565b60007f01ffc9a7000000000000000000000000000000000000000000000000000000007bffffffffffffffffffffffffffffffffffffffffffffffffffffffff1916827bffffffffffffffffffffffffffffffffffffffffffffffffffffffff1916149050919050565b60606127f78273ffffffffffffffffffffffffffffffffffffffff16601460ff166127fe565b9050919050565b6060600060028360026128119190613c79565b61281b9190613c23565b67ffffffffffffffff81111561283457612833613f62565b5b6040519080825280601f01601f1916602001820160405280156128665781602001600182028036833780820191505090505b5090507f30000000000000000000000000000000000000000000000000000000000000008160008151811061289e5761289d613f33565b5b60200101907effffffffffffffffffffffffffffffffffffffffffffffffffffffffffffff1916908160001a9053507f78000000000000000000000000000000000000000000000000000000000000008160018151811061290257612901613f33565b5b60200101907effffffffffffffffffffffffffffffffffffffffffffffffffffffffffffff1916908160001a905350600060018460026129429190613c79565b61294c9190613c23565b90505b60018111156129ec577f3031323334353637383961626364656600000000000000000000000000000000600f86166010811061298e5761298d613f33565b5b1a60f81b8282815181106129a5576129a4613f33565b5b60200101907effffffffffffffffffffffffffffffffffffffffffffffffffffffffffffff1916908160001a905350600485901c9450806129e590613dc7565b905061294f565b5060008414612a30576040517f08c379a0000000000000000000000000000000000000000000000000000000008152600401612a279061391e565b60405180910390fd5b8091505092915050565b6000808273ffffffffffffffffffffffffffffffffffffffff163b119050919050565b828054612a6990613df1565b90600052602060002090601f016020900481019282612a8b5760008555612ad2565b82601f10612aa457805160ff1916838001178555612ad2565b82800160010185558215612ad2579182015b82811115612ad1578251825591602001919060010190612ab6565b5b509050612adf9190612ae3565b5090565b5b80821115612afc576000816000905550600101612ae4565b5090565b6000612b13612b0e84613b5e565b613b39565b905082815260208101848484011115612b2f57612b2e613f96565b5b612b3a848285613d85565b509392505050565b6000612b55612b5084613b8f565b613b39565b905082815260208101848484011115612b7157612b70613f96565b5b612b7c848285613d85565b509392505050565b600081359050612b938161460d565b92915050565b600081359050612ba881614624565b92915050565b600081359050612bbd8161463b565b92915050565b600081359050612bd281614652565b92915050565b600081519050612be781614652565b92915050565b600082601f830112612c0257612c01613f91565b5b8135612c12848260208601612b00565b91505092915050565b600082601f830112612c3057612c2f613f91565b5b8135612c40848260208601612b42565b91505092915050565b600081359050612c5881614669565b92915050565b600060208284031215612c7457612c73613fa0565b5b6000612c8284828501612b84565b91505092915050565b60008060408385031215612ca257612ca1613fa0565b5b6000612cb085828601612b84565b9250506020612cc185828601612b84565b9150509250929050565b600080600060608486031215612ce457612ce3613fa0565b5b6000612cf286828701612b84565b9350506020612d0386828701612b84565b9250506040612d1486828701612c49565b9150509250925092565b60008060008060808587031215612d3857612d37613fa0565b5b6000612d4687828801612b84565b9450506020612d5787828801612b84565b9350506040612d6887828801612c49565b925050606085013567ffffffffffffffff811115612d8957612d88613f9b565b5b612d9587828801612bed565b91505092959194509250565b60008060408385031215612db857612db7613fa0565b5b6000612dc685828601612b84565b9250506020612dd785828601612b99565b9150509250929050565b600080600080600060a08688031215612dfd57612dfc613fa0565b5b6000612e0b88828901612b84565b9550506020612e1c88828901612bae565b9450506040612e2d88828901612bae565b935050606086013567ffffffffffffffff811115612e4e57612e4d613f9b565b5b612e5a88828901612c1b565b925050608086013567ffffffffffffffff811115612e7b57612e7a613f9b565b5b612e8788828901612c1b565b9150509295509295909350565b60008060408385031215612eab57612eaa613fa0565b5b6000612eb985828601612b84565b9250506020612eca85828601612c49565b9150509250929050565b600060208284031215612eea57612ee9613fa0565b5b6000612ef884828501612bae565b91505092915050565b60008060408385031215612f1857612f17613fa0565b5b6000612f2685828601612bae565b9250506020612f3785828601612b84565b9150509250929050565b600060208284031215612f5757612f56613fa0565b5b6000612f6584828501612bc3565b91505092915050565b600060208284031215612f8457612f83613fa0565b5b6000612f9284828501612bd8565b91505092915050565b600060208284031215612fb157612fb0613fa0565b5b6000612fbf84828501612c49565b91505092915050565b60008060408385031215612fdf57612fde613fa0565b5b6000612fed85828601612c49565b9250506020612ffe85828601612b84565b9150509250929050565b6000806040838503121561301f5761301e613fa0565b5b600061302d85828601612c49565b925050602061303e85828601612bae565b9150509250929050565b60008060006060848603121561306157613060613fa0565b5b600061306f86828701612c49565b935050602084013567ffffffffffffffff8111156130905761308f613f9b565b5b61309c86828701612c1b565b925050604084013567ffffffffffffffff8111156130bd576130bc613f9b565b5b6130c986828701612c1b565b9150509250925092565b6130dc81613d07565b82525050565b6130f36130ee82613d07565b613e9d565b82525050565b61310281613d19565b82525050565b61311181613d25565b82525050565b61312861312382613d25565b613eaf565b82525050565b600061313982613bd5565b6131438185613beb565b9350613153818560208601613d94565b61315c81613fa5565b840191505092915050565b600061317282613bd5565b61317c8185613bfc565b935061318c818560208601613d94565b80840191505092915050565b60006131a382613be0565b6131ad8185613c07565b93506131bd818560208601613d94565b6131c681613fa5565b840191505092915050565b60006131dc82613be0565b6131e68185613c18565b93506131f6818560208601613d94565b80840191505092915050565b6000815461320f81613df1565b6132198186613c18565b94506001821660008114613234576001811461324557613278565b60ff19831686528186019350613278565b61324e85613bc0565b60005b8381101561327057815481890152600182019150602081019050613251565b838801955050505b50505092915050565b600061328e602083613c07565b915061329982613fc3565b602082019050919050565b60006132b1602d83613c07565b91506132bc82613fec565b604082019050919050565b60006132d4600e83613c18565b91506132df8261403b565b600e82019050919050565b60006132f7601083613c18565b915061330282614064565b601082019050919050565b600061331a603283613c07565b91506133258261408d565b604082019050919050565b600061333d600283613c18565b9150613348826140dc565b600282019050919050565b6000613360600683613c18565b915061336b82614105565b600682019050919050565b6000613383602583613c07565b915061338e8261412e565b604082019050919050565b60006133a6601c83613c07565b91506133b18261417d565b602082019050919050565b60006133c9602483613c07565b91506133d4826141a6565b604082019050919050565b60006133ec601983613c07565b91506133f7826141f5565b602082019050919050565b600061340f600f83613c18565b915061341a8261421e565b600f82019050919050565b6000613432600683613c18565b915061343d82614247565b600682019050919050565b6000613455602983613c07565b915061346082614270565b604082019050919050565b6000613478600283613c18565b9150613483826142bf565b600282019050919050565b600061349b602083613c07565b91506134a6826142e8565b602082019050919050565b60006134be600183613c18565b91506134c982614311565b600182019050919050565b60006134e1602083613c07565b91506134ec8261433a565b602082019050919050565b6000613504600183613c18565b915061350f82614363565b600182019050919050565b6000613527600983613c18565b91506135328261438c565b600982019050919050565b600061354a601883613c07565b9150613555826143b5565b602082019050919050565b600061356d600883613c18565b9150613578826143de565b600882019050919050565b6000613590602183613c07565b915061359b82614407565b604082019050919050565b60006135b3603d83613c07565b91506135be82614456565b604082019050919050565b60006135d6601783613c18565b91506135e1826144a5565b601782019050919050565b60006135f9603383613c07565b9150613604826144ce565b604082019050919050565b600061361c602883613c07565b91506136278261451d565b604082019050919050565b600061363f600783613c18565b915061364a8261456c565b600782019050919050565b6000613662601183613c18565b915061366d82614595565b601182019050919050565b6000613685602f83613c07565b9150613690826145be565b604082019050919050565b6136a481613d7b565b82525050565b6136bb6136b682613d7b565b613ecb565b82525050565b60006136cd82856131d1565b91506136d98284613167565b91508190509392505050565b60006136f082613425565b91506136fc82856131d1565b915061370882846136aa565b6020820191508190509392505050565b6000613723826134f7565b915061372e8261351a565b915061373a82896130e2565b60148201915061374982613330565b915061375482613632565b91506137608288613117565b60208201915061376f82613330565b915061377a826132ea565b91506137868287613117565b60208201915061379582613330565b91506137a082613560565b91506137ab82613353565b91506137b782866136aa565b6020820191506137c682613330565b91506137d182613402565b91506137dd8285613202565b91506137e882613330565b91506137f3826132c7565b91506137ff8284613202565b915061380a8261346b565b9150613815826134b1565b9150819050979650505050505050565b6000613830826135c9565b915061383c82856131d1565b915061384782613655565b915061385382846131d1565b91508190509392505050565b600060208201905061387460008301846130d3565b92915050565b600060808201905061388f60008301876130d3565b61389c60208301866130d3565b6138a9604083018561369b565b81810360608301526138bb818461312e565b905095945050505050565b60006020820190506138db60008301846130f9565b92915050565b60006020820190506138f66000830184613108565b92915050565b600060208201905081810360008301526139168184613198565b905092915050565b6000602082019050818103600083015261393781613281565b9050919050565b60006020820190508181036000830152613957816132a4565b9050919050565b600060208201905081810360008301526139778161330d565b9050919050565b6000602082019050818103600083015261399781613376565b9050919050565b600060208201905081810360008301526139b781613399565b9050919050565b600060208201905081810360008301526139d7816133bc565b9050919050565b600060208201905081810360008301526139f7816133df565b9050919050565b60006020820190508181036000830152613a1781613448565b9050919050565b60006020820190508181036000830152613a378161348e565b9050919050565b60006020820190508181036000830152613a57816134d4565b9050919050565b60006020820190508181036000830152613a778161353d565b9050919050565b60006020820190508181036000830152613a9781613583565b9050919050565b60006020820190508181036000830152613ab7816135a6565b9050919050565b60006020820190508181036000830152613ad7816135ec565b9050919050565b60006020820190508181036000830152613af78161360f565b9050919050565b60006020820190508181036000830152613b1781613678565b9050919050565b6000602082019050613b33600083018461369b565b92915050565b6000613b43613b54565b9050613b4f8282613e23565b919050565b6000604051905090565b600067ffffffffffffffff821115613b7957613b78613f62565b5b613b8282613fa5565b9050602081019050919050565b600067ffffffffffffffff821115613baa57613ba9613f62565b5b613bb382613fa5565b9050602081019050919050565b60008190508160005260206000209050919050565b600081519050919050565b600081519050919050565b600082825260208201905092915050565b600081905092915050565b600082825260208201905092915050565b600081905092915050565b6000613c2e82613d7b565b9150613c3983613d7b565b9250827fffffffffffffffffffffffffffffffffffffffffffffffffffffffffffffffff03821115613c6e57613c6d613ed5565b5b828201905092915050565b6000613c8482613d7b565b9150613c8f83613d7b565b9250817fffffffffffffffffffffffffffffffffffffffffffffffffffffffffffffffff0483118215151615613cc857613cc7613ed5565b5b828202905092915050565b6000613cde82613d7b565b9150613ce983613d7b565b925082821015613cfc57613cfb613ed5565b5b828203905092915050565b6000613d1282613d5b565b9050919050565b60008115159050919050565b6000819050919050565b60007fffffffff0000000000000000000000000000000000000000000000000000000082169050919050565b600073ffffffffffffffffffffffffffffffffffffffff82169050919050565b6000819050919050565b82818337600083830152505050565b60005b83811015613db2578082015181840152602081019050613d97565b83811115613dc1576000848401525b50505050565b6000613dd282613d7b565b91506000821415613de657613de5613ed5565b5b600182039050919050565b60006002820490506001821680613e0957607f821691505b60208210811415613e1d57613e1c613f04565b5b50919050565b613e2c82613fa5565b810181811067ffffffffffffffff82111715613e4b57613e4a613f62565b5b80604052505050565b6000613e5f82613d7b565b91507fffffffffffffffffffffffffffffffffffffffffffffffffffffffffffffffff821415613e9257613e91613ed5565b5b600182019050919050565b6000613ea882613eb9565b9050919050565b6000819050919050565b6000613ec482613fb6565b9050919050565b6000819050919050565b7f4e487b7100000000000000000000000000000000000000000000000000000000600052601160045260246000fd5b7f4e487b7100000000000000000000000000000000000000000000000000000000600052602260045260246000fd5b7f4e487b7100000000000000000000000000000000000000000000000000000000600052603260045260246000fd5b7f4e487b7100000000000000000000000000000000000000000000000000000000600052604160045260246000fd5b600080fd5b600080fd5b600080fd5b600080fd5b6000601f19601f8301169050919050565b60008160601b9050919050565b7f537472696e67733a20686578206c656e67746820696e73756666696369656e74600082015250565b7f4552433732313a2063616c6c6572206973206e6f7420746f6b656e206f776e6560008201527f72206f7220617070726f76656400000000000000000000000000000000000000602082015250565b7f227265706f7369746f7279223a22000000000000000000000000000000000000600082015250565b7f2265787465726e616c5f75726c223a2200000000000000000000000000000000600082015250565b7f4552433732313a207472616e7366657220746f206e6f6e20455243373231526560008201527f63656976657220696d706c656d656e7465720000000000000000000000000000602082015250565b7f222c000000000000000000000000000000000000000000000000000000000000600082015250565b7f226964223a220000000000000000000000000000000000000000000000000000600082015250565b7f4552433732313a207472616e736665722066726f6d20696e636f72726563742060008201527f6f776e6572000000000000000000000000000000000000000000000000000000602082015250565b7f4552433732313a20746f6b656e20616c7265616479206d696e74656400000000600082015250565b7f4552433732313a207472616e7366657220746f20746865207a65726f2061646460008201527f7265737300000000000000000000000000000000000000000000000000000000602082015250565b7f4552433732313a20617070726f766520746f2063616c6c657200000000000000600082015250565b7f22636f6d6d69745f68617368223a220000000000000000000000000000000000600082015250565b7f544f4b454e5f0000000000000000000000000000000000000000000000000000600082015250565b7f4552433732313a2061646472657373207a65726f206973206e6f74206120766160008201527f6c6964206f776e65720000000000000000000000000000000000000000000000602082015250565b7f227d000000000000000000000000000000000000000000000000000000000000600082015250565b7f4552433732313a206d696e7420746f20746865207a65726f2061646472657373600082015250565b7f7d00000000000000000000000000000000000000000000000000000000000000600082015250565b7f466c65656b4552433732313a206d75737420626520746f6b656e206f776e6572600082015250565b7f7b00000000000000000000000000000000000000000000000000000000000000600082015250565b7f226f776e6572223a220000000000000000000000000000000000000000000000600082015250565b7f4552433732313a20696e76616c696420746f6b656e2049440000000000000000600082015250565b7f226275696c643a7b000000000000000000000000000000000000000000000000600082015250565b7f4552433732313a20617070726f76616c20746f2063757272656e74206f776e6560008201527f7200000000000000000000000000000000000000000000000000000000000000602082015250565b7f4552433732313a20617070726f76652063616c6c6572206973206e6f7420746f60008201527f6b656e206f776e6572206f7220617070726f76656420666f7220616c6c000000602082015250565b7f416363657373436f6e74726f6c3a206163636f756e7420000000000000000000600082015250565b7f466c65656b416363657373436f6e74726f6c3a206d757374206861766520636f60008201527f6c6c656374696f6e206f776e657220726f6c6500000000000000000000000000602082015250565b7f466c65656b416363657373436f6e74726f6c3a206d757374206861766520746f60008201527f6b656e20726f6c65000000000000000000000000000000000000000000000000602082015250565b7f22454e53223a2200000000000000000000000000000000000000000000000000600082015250565b7f206973206d697373696e6720726f6c6520000000000000000000000000000000600082015250565b7f416363657373436f6e74726f6c3a2063616e206f6e6c792072656e6f756e636560008201527f20726f6c657320666f722073656c660000000000000000000000000000000000602082015250565b61461681613d07565b811461462157600080fd5b50565b61462d81613d19565b811461463857600080fd5b50565b61464481613d25565b811461464f57600080fd5b50565b61465b81613d2f565b811461466657600080fd5b50565b61467281613d7b565b811461467d57600080fd5b5056fea264697066735822122035e4184e342cd37d9e3641cfc2af27ec44489dde9313dcb89431f93aff08385e64736f6c63430008070033",
  "devdoc": {
    "kind": "dev",
    "methods": {
      "approve(address,uint256)": {
        "details": "See {IERC721-approve}."
      },
      "balanceOf(address)": {
        "details": "See {IERC721-balanceOf}."
      },
      "getApproved(uint256)": {
        "details": "See {IERC721-getApproved}."
      },
      "getRoleAdmin(bytes32)": {
        "details": "Returns the admin role that controls `role`. See {grantRole} and {revokeRole}. To change a role's admin, use {_setRoleAdmin}."
      },
      "grantRole(bytes32,address)": {
        "details": "Grants `role` to `account`. If `account` had not been already granted `role`, emits a {RoleGranted} event. Requirements: - the caller must have ``role``'s admin role. May emit a {RoleGranted} event."
      },
      "hasRole(bytes32,address)": {
        "details": "Returns `true` if `account` has been granted `role`."
      },
      "isApprovedForAll(address,address)": {
        "details": "See {IERC721-isApprovedForAll}."
      },
      "name()": {
        "details": "See {IERC721Metadata-name}."
      },
      "ownerOf(uint256)": {
        "details": "See {IERC721-ownerOf}."
      },
      "renounceRole(bytes32,address)": {
        "details": "Revokes `role` from the calling account. Roles are often managed via {grantRole} and {revokeRole}: this function's purpose is to provide a mechanism for accounts to lose their privileges if they are compromised (such as when a trusted device is misplaced). If the calling account had been revoked `role`, emits a {RoleRevoked} event. Requirements: - the caller must be `account`. May emit a {RoleRevoked} event."
      },
      "revokeRole(bytes32,address)": {
        "details": "Revokes `role` from `account`. If `account` had been granted `role`, emits a {RoleRevoked} event. Requirements: - the caller must have ``role``'s admin role. May emit a {RoleRevoked} event."
      },
      "safeTransferFrom(address,address,uint256)": {
        "details": "See {IERC721-safeTransferFrom}."
      },
      "safeTransferFrom(address,address,uint256,bytes)": {
        "details": "See {IERC721-safeTransferFrom}."
      },
      "setApprovalForAll(address,bool)": {
        "details": "See {IERC721-setApprovalForAll}."
      },
      "symbol()": {
        "details": "See {IERC721Metadata-symbol}."
      },
      "tokenURI(uint256)": {
        "details": "See {IERC721Metadata-tokenURI}."
      },
      "transferFrom(address,address,uint256)": {
        "details": "See {IERC721-transferFrom}."
      }
    },
    "version": 1
  },
  "userdoc": {
    "kind": "user",
    "methods": {},
    "version": 1
  },
  "storageLayout": {
    "storage": [
      {
        "astId": 414,
        "contract": "contracts/FleekERC721.sol:FleekERC721",
        "label": "_name",
        "offset": 0,
        "slot": "0",
        "type": "t_string_storage"
      },
      {
        "astId": 416,
        "contract": "contracts/FleekERC721.sol:FleekERC721",
        "label": "_symbol",
        "offset": 0,
        "slot": "1",
        "type": "t_string_storage"
      },
      {
        "astId": 420,
        "contract": "contracts/FleekERC721.sol:FleekERC721",
        "label": "_owners",
        "offset": 0,
        "slot": "2",
        "type": "t_mapping(t_uint256,t_address)"
      },
      {
        "astId": 424,
        "contract": "contracts/FleekERC721.sol:FleekERC721",
        "label": "_balances",
        "offset": 0,
        "slot": "3",
        "type": "t_mapping(t_address,t_uint256)"
      },
      {
        "astId": 428,
        "contract": "contracts/FleekERC721.sol:FleekERC721",
        "label": "_tokenApprovals",
        "offset": 0,
        "slot": "4",
        "type": "t_mapping(t_uint256,t_address)"
      },
      {
        "astId": 434,
        "contract": "contracts/FleekERC721.sol:FleekERC721",
        "label": "_operatorApprovals",
        "offset": 0,
        "slot": "5",
        "type": "t_mapping(t_address,t_mapping(t_address,t_bool))"
      },
      {
        "astId": 24,
        "contract": "contracts/FleekERC721.sol:FleekERC721",
        "label": "_roles",
        "offset": 0,
        "slot": "6",
        "type": "t_mapping(t_bytes32,t_struct(RoleData)19_storage)"
      },
      {
        "astId": 3132,
        "contract": "contracts/FleekERC721.sol:FleekERC721",
        "label": "_tokenIds",
        "offset": 0,
        "slot": "7",
        "type": "t_struct(Counter)1852_storage"
      },
      {
        "astId": 3137,
        "contract": "contracts/FleekERC721.sol:FleekERC721",
        "label": "_sites",
        "offset": 0,
        "slot": "8",
        "type": "t_mapping(t_uint256,t_struct(Site)3129_storage)"
      }
    ],
    "types": {
      "t_address": {
        "encoding": "inplace",
        "label": "address",
        "numberOfBytes": "20"
      },
      "t_bool": {
        "encoding": "inplace",
        "label": "bool",
        "numberOfBytes": "1"
      },
      "t_bytes32": {
        "encoding": "inplace",
        "label": "bytes32",
        "numberOfBytes": "32"
      },
      "t_mapping(t_address,t_bool)": {
        "encoding": "mapping",
        "key": "t_address",
        "label": "mapping(address => bool)",
        "numberOfBytes": "32",
        "value": "t_bool"
      },
      "t_mapping(t_address,t_mapping(t_address,t_bool))": {
        "encoding": "mapping",
        "key": "t_address",
        "label": "mapping(address => mapping(address => bool))",
        "numberOfBytes": "32",
        "value": "t_mapping(t_address,t_bool)"
      },
      "t_mapping(t_address,t_uint256)": {
        "encoding": "mapping",
        "key": "t_address",
        "label": "mapping(address => uint256)",
        "numberOfBytes": "32",
        "value": "t_uint256"
      },
      "t_mapping(t_bytes32,t_struct(RoleData)19_storage)": {
        "encoding": "mapping",
        "key": "t_bytes32",
        "label": "mapping(bytes32 => struct AccessControl.RoleData)",
        "numberOfBytes": "32",
        "value": "t_struct(RoleData)19_storage"
      },
      "t_mapping(t_uint256,t_address)": {
        "encoding": "mapping",
        "key": "t_uint256",
        "label": "mapping(uint256 => address)",
        "numberOfBytes": "32",
        "value": "t_address"
      },
      "t_mapping(t_uint256,t_struct(Build)3117_storage)": {
        "encoding": "mapping",
        "key": "t_uint256",
        "label": "mapping(uint256 => struct FleekERC721.Build)",
        "numberOfBytes": "32",
        "value": "t_struct(Build)3117_storage"
      },
      "t_mapping(t_uint256,t_struct(Site)3129_storage)": {
        "encoding": "mapping",
        "key": "t_uint256",
        "label": "mapping(uint256 => struct FleekERC721.Site)",
        "numberOfBytes": "32",
        "value": "t_struct(Site)3129_storage"
      },
      "t_string_storage": {
        "encoding": "bytes",
        "label": "string",
        "numberOfBytes": "32"
      },
      "t_struct(Build)3117_storage": {
        "encoding": "inplace",
        "label": "struct FleekERC721.Build",
        "members": [
          {
            "astId": 3114,
            "contract": "contracts/FleekERC721.sol:FleekERC721",
            "label": "commit_hash",
            "offset": 0,
            "slot": "0",
            "type": "t_string_storage"
          },
          {
            "astId": 3116,
            "contract": "contracts/FleekERC721.sol:FleekERC721",
            "label": "git_repository",
            "offset": 0,
            "slot": "1",
            "type": "t_string_storage"
          }
        ],
        "numberOfBytes": "64"
      },
      "t_struct(Counter)1852_storage": {
        "encoding": "inplace",
        "label": "struct Counters.Counter",
        "members": [
          {
            "astId": 1851,
            "contract": "contracts/FleekERC721.sol:FleekERC721",
            "label": "_value",
            "offset": 0,
            "slot": "0",
            "type": "t_uint256"
          }
        ],
        "numberOfBytes": "32"
      },
      "t_struct(RoleData)19_storage": {
        "encoding": "inplace",
        "label": "struct AccessControl.RoleData",
        "members": [
          {
            "astId": 16,
            "contract": "contracts/FleekERC721.sol:FleekERC721",
            "label": "members",
            "offset": 0,
            "slot": "0",
            "type": "t_mapping(t_address,t_bool)"
          },
          {
            "astId": 18,
            "contract": "contracts/FleekERC721.sol:FleekERC721",
            "label": "adminRole",
            "offset": 0,
            "slot": "1",
            "type": "t_bytes32"
          }
        ],
        "numberOfBytes": "64"
      },
      "t_struct(Site)3129_storage": {
        "encoding": "inplace",
        "label": "struct FleekERC721.Site",
        "members": [
          {
            "astId": 3119,
            "contract": "contracts/FleekERC721.sol:FleekERC721",
            "label": "external_url",
            "offset": 0,
            "slot": "0",
            "type": "t_bytes32"
          },
          {
            "astId": 3121,
            "contract": "contracts/FleekERC721.sol:FleekERC721",
            "label": "ENS",
            "offset": 0,
            "slot": "1",
            "type": "t_bytes32"
          },
          {
            "astId": 3123,
            "contract": "contracts/FleekERC721.sol:FleekERC721",
            "label": "current_build",
            "offset": 0,
            "slot": "2",
            "type": "t_uint256"
          },
          {
            "astId": 3128,
            "contract": "contracts/FleekERC721.sol:FleekERC721",
            "label": "builds",
            "offset": 0,
            "slot": "3",
            "type": "t_mapping(t_uint256,t_struct(Build)3117_storage)"
          }
        ],
        "numberOfBytes": "128"
      },
      "t_uint256": {
        "encoding": "inplace",
        "label": "uint256",
        "numberOfBytes": "32"
      }
    }
  }
}