{
  "abi": [
    {
      "inputs": [],
      "stateMutability": "nonpayable",
      "type": "constructor"
    },
    {
      "anonymous": false,
      "inputs": [
        {
          "indexed": true,
          "internalType": "enum FleekAccessControl.Roles",
          "name": "role",
          "type": "uint8"
        },
        {
          "indexed": true,
          "internalType": "address",
          "name": "toAddress",
          "type": "address"
        },
        {
          "indexed": false,
          "internalType": "address",
          "name": "byAddress",
          "type": "address"
        }
      ],
      "name": "CollectionRoleGranted",
      "type": "event"
    },
    {
      "anonymous": false,
      "inputs": [
        {
          "indexed": true,
          "internalType": "enum FleekAccessControl.Roles",
          "name": "role",
          "type": "uint8"
        },
        {
          "indexed": true,
          "internalType": "address",
          "name": "toAddress",
          "type": "address"
        },
        {
          "indexed": false,
          "internalType": "address",
          "name": "byAddress",
          "type": "address"
        }
      ],
      "name": "CollectionRoleRevoked",
      "type": "event"
    },
    {
      "anonymous": false,
      "inputs": [
        {
          "indexed": true,
          "internalType": "uint256",
          "name": "tokenId",
          "type": "uint256"
        },
        {
          "indexed": true,
          "internalType": "enum FleekAccessControl.Roles",
          "name": "role",
          "type": "uint8"
        },
        {
          "indexed": true,
          "internalType": "address",
          "name": "toAddress",
          "type": "address"
        },
        {
          "indexed": false,
          "internalType": "address",
          "name": "byAddress",
          "type": "address"
        }
      ],
      "name": "TokenRoleGranted",
      "type": "event"
    },
    {
      "anonymous": false,
      "inputs": [
        {
          "indexed": true,
          "internalType": "uint256",
          "name": "tokenId",
          "type": "uint256"
        },
        {
          "indexed": true,
          "internalType": "enum FleekAccessControl.Roles",
          "name": "role",
          "type": "uint8"
        },
        {
          "indexed": true,
          "internalType": "address",
          "name": "toAddress",
          "type": "address"
        },
        {
          "indexed": false,
          "internalType": "address",
          "name": "byAddress",
          "type": "address"
        }
      ],
      "name": "TokenRoleRevoked",
      "type": "event"
    },
    {
      "inputs": [
        {
          "internalType": "enum FleekAccessControl.Roles",
          "name": "role",
          "type": "uint8"
        }
      ],
      "name": "getCollectionRoleMembers",
      "outputs": [
        {
          "internalType": "address[]",
          "name": "",
          "type": "address[]"
        }
      ],
      "stateMutability": "view",
      "type": "function"
    },
    {
      "inputs": [
        {
          "internalType": "uint256",
          "name": "tokenId",
          "type": "uint256"
        },
        {
          "internalType": "enum FleekAccessControl.Roles",
          "name": "role",
          "type": "uint8"
        }
      ],
      "name": "getTokenRoleMembers",
      "outputs": [
        {
          "internalType": "address[]",
          "name": "",
          "type": "address[]"
        }
      ],
      "stateMutability": "view",
      "type": "function"
    },
    {
      "inputs": [
        {
          "internalType": "enum FleekAccessControl.Roles",
          "name": "role",
          "type": "uint8"
        },
        {
          "internalType": "address",
          "name": "account",
          "type": "address"
        }
      ],
      "name": "grantCollectionRole",
      "outputs": [],
      "stateMutability": "nonpayable",
      "type": "function"
    },
    {
      "inputs": [
        {
          "internalType": "uint256",
          "name": "tokenId",
          "type": "uint256"
        },
        {
          "internalType": "enum FleekAccessControl.Roles",
          "name": "role",
          "type": "uint8"
        },
        {
          "internalType": "address",
          "name": "account",
          "type": "address"
        }
      ],
      "name": "grantTokenRole",
      "outputs": [],
      "stateMutability": "nonpayable",
      "type": "function"
    },
    {
      "inputs": [
        {
          "internalType": "enum FleekAccessControl.Roles",
          "name": "role",
          "type": "uint8"
        },
        {
          "internalType": "address",
          "name": "account",
          "type": "address"
        }
      ],
      "name": "hasCollectionRole",
      "outputs": [
        {
          "internalType": "bool",
          "name": "",
          "type": "bool"
        }
      ],
      "stateMutability": "view",
      "type": "function"
    },
    {
      "inputs": [
        {
          "internalType": "uint256",
          "name": "tokenId",
          "type": "uint256"
        },
        {
          "internalType": "enum FleekAccessControl.Roles",
          "name": "role",
          "type": "uint8"
        },
        {
          "internalType": "address",
          "name": "account",
          "type": "address"
        }
      ],
      "name": "hasTokenRole",
      "outputs": [
        {
          "internalType": "bool",
          "name": "",
          "type": "bool"
        }
      ],
      "stateMutability": "view",
      "type": "function"
    },
    {
      "inputs": [
        {
          "internalType": "enum FleekAccessControl.Roles",
          "name": "role",
          "type": "uint8"
        },
        {
          "internalType": "address",
          "name": "account",
          "type": "address"
        }
      ],
      "name": "revokeCollectionRole",
      "outputs": [],
      "stateMutability": "nonpayable",
      "type": "function"
    },
    {
      "inputs": [
        {
          "internalType": "uint256",
          "name": "tokenId",
          "type": "uint256"
        },
        {
          "internalType": "enum FleekAccessControl.Roles",
          "name": "role",
          "type": "uint8"
        },
        {
          "internalType": "address",
          "name": "account",
          "type": "address"
        }
      ],
      "name": "revokeTokenRole",
      "outputs": [],
      "stateMutability": "nonpayable",
      "type": "function"
    }
  ],
  "bytecode": {
    "object": "0x6080604090808252346101025760008054815260206001815283822082805281528382203383528082528483205415610069575b507fcf081ed2b728e3115904be00eb8927b2375ff3401839b37f7accfa1bb2bee15c903384523393a35161095090816101088239f35b600181018054680100000000000000008110156100ee57600181018083558110156100da578185528385200180546001600160a01b031916339081179091559054908452908252848320557fcf081ed2b728e3115904be00eb8927b2375ff3401839b37f7accfa1bb2bee15c610033565b634e487b7160e01b85526032600452602485fd5b634e487b7160e01b85526041600452602485fd5b600080fdfe6040608081526004908136101561001557600080fd5b600091823560e01c90816301468deb146104d45781632d957aad146104175781632f1e8f0a1461035b578163353b07a4146102965781638c3c0a44146101c1578163a27d0b27146100f657508063b42dbe38146100c05763e94472501461007b57600080fd5b346100bc57806020926100a2610090366105bb565b919083548452600187528484206106ed565b6001600160a01b0390911682528452205490519015158152f35b5080fd5b50346100bc57806020926100a26100d636610583565b9291845260028752848420546003885285852090855287528484206106ed565b9050346101bd5761010636610583565b939092610113338461071b565b80156101a8575b61012390610690565b82865260026020528186205460036020528287209087526020526101528561014d86858a206106ed565b610789565b60028410156101955750513381526001600160a01b03909316927f0bf5a13b362503fcc74b8b9b1598aba2f3a9af85d05ba7978f7e9f447f22c23990602090a480f35b634e487b7160e01b865260219052602485fd5b506101236101b6338561071b565b905061011a565b8280fd5b8383346100bc576101d1366105bb565b9183549081855260209160018352818620868052835281862033875283528186205415801590610273575b6102059061062e565b8552600182526102208461021b858489206106ed565b61082f565b600283101561026057513381526001600160a01b03909316927faeff57f0f5e4d3d10a37d4a70fde8ed67a95e67b251d5c512c0ea98c380d2f959190a380f35b634e487b7160e01b855260218652602485fd5b5080865260018352818620868052835281862033875283528186205415156101fc565b8383346100bc57602090816003193601126101bd578335600281101561035757916102cf928454855260019384918284528487206106ed565b01908251938482845491828152019387528287209287905b828210610339575050505050829003601f01601f191682019267ffffffffffffffff84118385101761032657508291826103229252826105ea565b0390f35b634e487b7160e01b815260418552602490fd5b84546001600160a01b031686529485019493830193908301906102e7565b8380fd5b8383346100bc57806003193601126100bc576024359060028210156101bd576103a69184358452602090600282528285205460038352838620908652825260019384918487206106ed565b01908251938482845491828152019387528287209287905b8282106103f9575050505050829003601f01601f191682019267ffffffffffffffff84118385101761032657508291826103229252826105ea565b84546001600160a01b031686529485019493830193908301906103be565b8383346100bc57610427366105bb565b91835490818552602091600183528186208680528352818620338752835281862054158015906104b1575b61045b9061062e565b8552600182526104718461014d858489206106ed565b600283101561026057513381526001600160a01b03909316927fcf081ed2b728e3115904be00eb8927b2375ff3401839b37f7accfa1bb2bee15c9190a380f35b508086526001835281862086805283528186203387528352818620541515610452565b9050346101bd576104e436610583565b9390926104f1338461071b565b801561056e575b61050190610690565b828652600260205281862054600360205282872090875260205261052b8561021b86858a206106ed565b60028410156101955750513381526001600160a01b03909316927fe52d746e4c78c98c6bfa291b273406905c3e8550b7d911a6bea686368c2dc79d90602090a480f35b5061050161057c338561071b565b90506104f8565b60609060031901126105b6576004359060243560028110156105b657906044356001600160a01b03811681036105b65790565b600080fd5b60409060031901126105b65760043560028110156105b657906024356001600160a01b03811681036105b65790565b6020908160408183019282815285518094520193019160005b828110610611575050505090565b83516001600160a01b031685529381019392810192600101610603565b1561063557565b60405162461bcd60e51b815260206004820152602d60248201527f466c65656b416363657373436f6e74726f6c3a206d757374206861766520636f60448201526c6c6c656374696f6e20726f6c6560981b6064820152608490fd5b1561069757565b60405162461bcd60e51b815260206004820152602860248201527f466c65656b416363657373436f6e74726f6c3a206d757374206861766520746f6044820152676b656e20726f6c6560c01b6064820152608490fd5b90600281101561070557600052602052604060002090565b634e487b7160e01b600052602160045260246000fd5b60009081526002602090815260408083205460038352818420908452825280832083805282528083206001600160a01b0390941683529290522054151590565b80548210156107735760005260206000200190600090565b634e487b7160e01b600052603260045260246000fd5b6001600160a01b03821660008181526020839052604081205493949391929091156107b6575b5050509050565b6001810180546801000000000000000081101561081b5760409495966107e5826001610809940185558461075b565b90919082549060031b9160018060a01b039283811b93849216901b16911916179055565b549382526020522055803880806107af565b634e487b7160e01b84526041600452602484fd5b6001600160a01b03918216600081815260208390526040812054909390610857575b50505050565b60408420546000198082019180831161090657600186019283548381019081116108f2576107e5918661088d61089e938861075b565b90549060031b1c169283918761075b565b8752856020526040872055815480156108de5701916108bd838361075b565b909182549160031b1b19169055558252602052604081205538808080610851565b634e487b7160e01b87526031600452602487fd5b634e487b7160e01b89526011600452602489fd5b634e487b7160e01b87526011600452602487fdfea26469706673582212203489fc91de21a46c9748b2cad60a578adea985a9c61129d1922a82531d8c848064736f6c63430008110033",
    "linkReferences": {}
  },
  "methodIdentifiers": {
    "getCollectionRoleMembers(uint8)": "353b07a4",
    "getTokenRoleMembers(uint256,uint8)": "2f1e8f0a",
    "grantCollectionRole(uint8,address)": "2d957aad",
    "grantTokenRole(uint256,uint8,address)": "a27d0b27",
    "hasCollectionRole(uint8,address)": "e9447250",
    "hasTokenRole(uint256,uint8,address)": "b42dbe38",
    "revokeCollectionRole(uint8,address)": "8c3c0a44",
    "revokeTokenRole(uint256,uint8,address)": "01468deb"
  },
  "id": 0
}