{
  "abi": [
    {
      "inputs": [
        {
          "internalType": "string",
          "name": "_name",
          "type": "string"
        },
        {
          "internalType": "string",
          "name": "_symbol",
          "type": "string"
        }
      ],
      "stateMutability": "nonpayable",
      "type": "constructor"
    },
    {
      "anonymous": false,
      "inputs": [
        {
          "indexed": true,
          "internalType": "address",
          "name": "owner",
          "type": "address"
        },
        {
          "indexed": true,
          "internalType": "address",
          "name": "approved",
          "type": "address"
        },
        {
          "indexed": true,
          "internalType": "uint256",
          "name": "tokenId",
          "type": "uint256"
        }
      ],
      "name": "Approval",
      "type": "event"
    },
    {
      "anonymous": false,
      "inputs": [
        {
          "indexed": true,
          "internalType": "address",
          "name": "owner",
          "type": "address"
        },
        {
          "indexed": true,
          "internalType": "address",
          "name": "operator",
          "type": "address"
        },
        {
          "indexed": false,
          "internalType": "bool",
          "name": "approved",
          "type": "bool"
        }
      ],
      "name": "ApprovalForAll",
      "type": "event"
    },
    {
      "anonymous": false,
      "inputs": [
        {
          "indexed": true,
          "internalType": "uint256",
          "name": "token",
          "type": "uint256"
        },
        {
          "indexed": true,
          "internalType": "string",
          "name": "commit_hash",
          "type": "string"
        }
      ],
      "name": "NewBuild",
      "type": "event"
    },
    {
      "anonymous": false,
      "inputs": [
        {
          "indexed": true,
          "internalType": "uint256",
          "name": "token",
          "type": "uint256"
        },
        {
          "indexed": true,
          "internalType": "string",
          "name": "description",
          "type": "string"
        }
      ],
      "name": "NewTokenDescription",
      "type": "event"
    },
    {
      "anonymous": false,
      "inputs": [
        {
          "indexed": true,
          "internalType": "uint256",
          "name": "token",
          "type": "uint256"
        },
        {
          "indexed": true,
          "internalType": "string",
          "name": "ENS",
          "type": "string"
        }
      ],
      "name": "NewTokenENS",
      "type": "event"
    },
    {
      "anonymous": false,
      "inputs": [
        {
          "indexed": true,
          "internalType": "uint256",
          "name": "token",
          "type": "uint256"
        },
        {
          "indexed": true,
          "internalType": "string",
          "name": "external_url",
          "type": "string"
        }
      ],
      "name": "NewTokenExternalURL",
      "type": "event"
    },
    {
      "anonymous": false,
      "inputs": [
        {
          "indexed": true,
          "internalType": "uint256",
          "name": "token",
          "type": "uint256"
        },
        {
          "indexed": true,
          "internalType": "string",
          "name": "image",
          "type": "string"
        }
      ],
      "name": "NewTokenImage",
      "type": "event"
    },
    {
      "anonymous": false,
      "inputs": [
        {
          "indexed": true,
          "internalType": "uint256",
          "name": "token",
          "type": "uint256"
        },
        {
          "indexed": true,
          "internalType": "string",
          "name": "name",
          "type": "string"
        }
      ],
      "name": "NewTokenName",
      "type": "event"
    },
    {
      "anonymous": false,
      "inputs": [
        {
          "indexed": true,
          "internalType": "bytes32",
          "name": "role",
          "type": "bytes32"
        },
        {
          "indexed": true,
          "internalType": "bytes32",
          "name": "previousAdminRole",
          "type": "bytes32"
        },
        {
          "indexed": true,
          "internalType": "bytes32",
          "name": "newAdminRole",
          "type": "bytes32"
        }
      ],
      "name": "RoleAdminChanged",
      "type": "event"
    },
    {
      "anonymous": false,
      "inputs": [
        {
          "indexed": true,
          "internalType": "bytes32",
          "name": "role",
          "type": "bytes32"
        },
        {
          "indexed": true,
          "internalType": "address",
          "name": "account",
          "type": "address"
        },
        {
          "indexed": true,
          "internalType": "address",
          "name": "sender",
          "type": "address"
        }
      ],
      "name": "RoleGranted",
      "type": "event"
    },
    {
      "anonymous": false,
      "inputs": [
        {
          "indexed": true,
          "internalType": "bytes32",
          "name": "role",
          "type": "bytes32"
        },
        {
          "indexed": true,
          "internalType": "address",
          "name": "account",
          "type": "address"
        },
        {
          "indexed": true,
          "internalType": "address",
          "name": "sender",
          "type": "address"
        }
      ],
      "name": "RoleRevoked",
      "type": "event"
    },
    {
      "anonymous": false,
      "inputs": [
        {
          "indexed": true,
          "internalType": "address",
          "name": "from",
          "type": "address"
        },
        {
          "indexed": true,
          "internalType": "address",
          "name": "to",
          "type": "address"
        },
        {
          "indexed": true,
          "internalType": "uint256",
          "name": "tokenId",
          "type": "uint256"
        }
      ],
      "name": "Transfer",
      "type": "event"
    },
    {
      "inputs": [],
      "name": "COLLECTION_CONTROLLER_ROLE",
      "outputs": [
        {
          "internalType": "bytes32",
          "name": "",
          "type": "bytes32"
        }
      ],
      "stateMutability": "view",
      "type": "function"
    },
    {
      "inputs": [],
      "name": "COLLECTION_OWNER_ROLE",
      "outputs": [
        {
          "internalType": "bytes32",
          "name": "",
          "type": "bytes32"
        }
      ],
      "stateMutability": "view",
      "type": "function"
    },
    {
      "inputs": [],
      "name": "DEFAULT_ADMIN_ROLE",
      "outputs": [
        {
          "internalType": "bytes32",
          "name": "",
          "type": "bytes32"
        }
      ],
      "stateMutability": "view",
      "type": "function"
    },
    {
      "inputs": [
        {
          "internalType": "uint256",
          "name": "tokenId",
          "type": "uint256"
        },
        {
          "internalType": "address",
          "name": "controller",
          "type": "address"
        }
      ],
      "name": "addTokenController",
      "outputs": [],
      "stateMutability": "nonpayable",
      "type": "function"
    },
    {
      "inputs": [
        {
          "internalType": "address",
          "name": "to",
          "type": "address"
        },
        {
          "internalType": "uint256",
          "name": "tokenId",
          "type": "uint256"
        }
      ],
      "name": "approve",
      "outputs": [],
      "stateMutability": "nonpayable",
      "type": "function"
    },
    {
      "inputs": [
        {
          "internalType": "address",
          "name": "owner",
          "type": "address"
        }
      ],
      "name": "balanceOf",
      "outputs": [
        {
          "internalType": "uint256",
          "name": "",
          "type": "uint256"
        }
      ],
      "stateMutability": "view",
      "type": "function"
    },
    {
      "inputs": [
        {
          "internalType": "uint256",
          "name": "tokenId",
          "type": "uint256"
        }
      ],
      "name": "burn",
      "outputs": [],
      "stateMutability": "nonpayable",
      "type": "function"
    },
    {
      "inputs": [
        {
          "internalType": "uint256",
          "name": "tokenId",
          "type": "uint256"
        }
      ],
      "name": "getApproved",
      "outputs": [
        {
          "internalType": "address",
          "name": "",
          "type": "address"
        }
      ],
      "stateMutability": "view",
      "type": "function"
    },
    {
      "inputs": [
        {
          "internalType": "bytes32",
          "name": "role",
          "type": "bytes32"
        }
      ],
      "name": "getRoleAdmin",
      "outputs": [
        {
          "internalType": "bytes32",
          "name": "",
          "type": "bytes32"
        }
      ],
      "stateMutability": "view",
      "type": "function"
    },
    {
      "inputs": [
        {
          "internalType": "bytes32",
          "name": "role",
          "type": "bytes32"
        },
        {
          "internalType": "address",
          "name": "account",
          "type": "address"
        }
      ],
      "name": "grantRole",
      "outputs": [],
      "stateMutability": "nonpayable",
      "type": "function"
    },
    {
      "inputs": [
        {
          "internalType": "bytes32",
          "name": "role",
          "type": "bytes32"
        },
        {
          "internalType": "address",
          "name": "account",
          "type": "address"
        }
      ],
      "name": "hasRole",
      "outputs": [
        {
          "internalType": "bool",
          "name": "",
          "type": "bool"
        }
      ],
      "stateMutability": "view",
      "type": "function"
    },
    {
      "inputs": [
        {
          "internalType": "address",
          "name": "owner",
          "type": "address"
        },
        {
          "internalType": "address",
          "name": "operator",
          "type": "address"
        }
      ],
      "name": "isApprovedForAll",
      "outputs": [
        {
          "internalType": "bool",
          "name": "",
          "type": "bool"
        }
      ],
      "stateMutability": "view",
      "type": "function"
    },
    {
      "inputs": [
        {
          "internalType": "address",
          "name": "to",
          "type": "address"
        },
        {
          "internalType": "string",
          "name": "name",
          "type": "string"
        },
        {
          "internalType": "string",
          "name": "description",
          "type": "string"
        },
        {
          "internalType": "string",
          "name": "image",
          "type": "string"
        },
        {
          "internalType": "string",
          "name": "external_url",
          "type": "string"
        },
        {
          "internalType": "string",
          "name": "ENS",
          "type": "string"
        },
        {
          "internalType": "string",
          "name": "commit_hash",
          "type": "string"
        },
        {
          "internalType": "string",
          "name": "git_repository",
          "type": "string"
        }
      ],
      "name": "mint",
      "outputs": [
        {
          "internalType": "uint256",
          "name": "",
          "type": "uint256"
        }
      ],
      "stateMutability": "payable",
      "type": "function"
    },
    {
      "inputs": [],
      "name": "name",
      "outputs": [
        {
          "internalType": "string",
          "name": "",
          "type": "string"
        }
      ],
      "stateMutability": "view",
      "type": "function"
    },
    {
      "inputs": [
        {
          "internalType": "uint256",
          "name": "tokenId",
          "type": "uint256"
        }
      ],
      "name": "ownerOf",
      "outputs": [
        {
          "internalType": "address",
          "name": "",
          "type": "address"
        }
      ],
      "stateMutability": "view",
      "type": "function"
    },
    {
      "inputs": [
        {
          "internalType": "uint256",
          "name": "tokenId",
          "type": "uint256"
        },
        {
          "internalType": "address",
          "name": "controller",
          "type": "address"
        }
      ],
      "name": "removeTokenController",
      "outputs": [],
      "stateMutability": "nonpayable",
      "type": "function"
    },
    {
      "inputs": [
        {
          "internalType": "bytes32",
          "name": "role",
          "type": "bytes32"
        },
        {
          "internalType": "address",
          "name": "account",
          "type": "address"
        }
      ],
      "name": "renounceRole",
      "outputs": [],
      "stateMutability": "nonpayable",
      "type": "function"
    },
    {
      "inputs": [
        {
          "internalType": "bytes32",
          "name": "role",
          "type": "bytes32"
        },
        {
          "internalType": "address",
          "name": "account",
          "type": "address"
        }
      ],
      "name": "revokeRole",
      "outputs": [],
      "stateMutability": "nonpayable",
      "type": "function"
    },
    {
      "inputs": [
        {
          "internalType": "address",
          "name": "from",
          "type": "address"
        },
        {
          "internalType": "address",
          "name": "to",
          "type": "address"
        },
        {
          "internalType": "uint256",
          "name": "tokenId",
          "type": "uint256"
        }
      ],
      "name": "safeTransferFrom",
      "outputs": [],
      "stateMutability": "nonpayable",
      "type": "function"
    },
    {
      "inputs": [
        {
          "internalType": "address",
          "name": "from",
          "type": "address"
        },
        {
          "internalType": "address",
          "name": "to",
          "type": "address"
        },
        {
          "internalType": "uint256",
          "name": "tokenId",
          "type": "uint256"
        },
        {
          "internalType": "bytes",
          "name": "data",
          "type": "bytes"
        }
      ],
      "name": "safeTransferFrom",
      "outputs": [],
      "stateMutability": "nonpayable",
      "type": "function"
    },
    {
      "inputs": [
        {
          "internalType": "address",
          "name": "operator",
          "type": "address"
        },
        {
          "internalType": "bool",
          "name": "approved",
          "type": "bool"
        }
      ],
      "name": "setApprovalForAll",
      "outputs": [],
      "stateMutability": "nonpayable",
      "type": "function"
    },
    {
      "inputs": [
        {
          "internalType": "uint256",
          "name": "tokenId",
          "type": "uint256"
        },
        {
          "internalType": "string",
          "name": "_commit_hash",
          "type": "string"
        },
        {
          "internalType": "string",
          "name": "_git_repository",
          "type": "string"
        }
      ],
      "name": "setTokenBuild",
      "outputs": [],
      "stateMutability": "nonpayable",
      "type": "function"
    },
    {
      "inputs": [
        {
          "internalType": "uint256",
          "name": "tokenId",
          "type": "uint256"
        },
        {
          "internalType": "string",
          "name": "_tokenDescription",
          "type": "string"
        }
      ],
      "name": "setTokenDescription",
      "outputs": [],
      "stateMutability": "nonpayable",
      "type": "function"
    },
    {
      "inputs": [
        {
          "internalType": "uint256",
          "name": "tokenId",
          "type": "uint256"
        },
        {
          "internalType": "string",
          "name": "_tokenENS",
          "type": "string"
        }
      ],
      "name": "setTokenENS",
      "outputs": [],
      "stateMutability": "nonpayable",
      "type": "function"
    },
    {
      "inputs": [
        {
          "internalType": "uint256",
          "name": "tokenId",
          "type": "uint256"
        },
        {
          "internalType": "string",
          "name": "_tokenExternalURL",
          "type": "string"
        }
      ],
      "name": "setTokenExternalURL",
      "outputs": [],
      "stateMutability": "nonpayable",
      "type": "function"
    },
    {
      "inputs": [
        {
          "internalType": "uint256",
          "name": "tokenId",
          "type": "uint256"
        },
        {
          "internalType": "string",
          "name": "_tokenImage",
          "type": "string"
        }
      ],
      "name": "setTokenImage",
      "outputs": [],
      "stateMutability": "nonpayable",
      "type": "function"
    },
    {
      "inputs": [
        {
          "internalType": "uint256",
          "name": "tokenId",
          "type": "uint256"
        },
        {
          "internalType": "string",
          "name": "_tokenName",
          "type": "string"
        }
      ],
      "name": "setTokenName",
      "outputs": [],
      "stateMutability": "nonpayable",
      "type": "function"
    },
    {
      "inputs": [
        {
          "internalType": "bytes4",
          "name": "interfaceId",
          "type": "bytes4"
        }
      ],
      "name": "supportsInterface",
      "outputs": [
        {
          "internalType": "bool",
          "name": "",
          "type": "bool"
        }
      ],
      "stateMutability": "view",
      "type": "function"
    },
    {
      "inputs": [],
      "name": "symbol",
      "outputs": [
        {
          "internalType": "string",
          "name": "",
          "type": "string"
        }
      ],
      "stateMutability": "view",
      "type": "function"
    },
    {
      "inputs": [
        {
          "internalType": "uint256",
          "name": "tokenId",
          "type": "uint256"
        }
      ],
      "name": "tokenURI",
      "outputs": [
        {
          "internalType": "string",
          "name": "",
          "type": "string"
        }
      ],
      "stateMutability": "view",
      "type": "function"
    },
    {
      "inputs": [
        {
          "internalType": "address",
          "name": "from",
          "type": "address"
        },
        {
          "internalType": "address",
          "name": "to",
          "type": "address"
        },
        {
          "internalType": "uint256",
          "name": "tokenId",
          "type": "uint256"
        }
      ],
      "name": "transferFrom",
      "outputs": [],
      "stateMutability": "nonpayable",
      "type": "function"
    },
    {
      "inputs": [
        {
          "internalType": "uint256",
          "name": "tokenId",
          "type": "uint256"
        },
        {
          "internalType": "string",
          "name": "commit",
          "type": "string"
        },
        {
          "internalType": "string",
          "name": "repository",
          "type": "string"
        }
      ],
      "name": "upgradeTokenBuild",
      "outputs": [],
      "stateMutability": "payable",
      "type": "function"
    }
  ],
  "bytecode": {
    "object": "0x60406080815234620003da5762003b9d90813803806200001f81620003df565b93843982018183820312620003da5782516001600160401b0390818111620003da57826200004f91860162000405565b9360209283820151838111620003da576200006b920162000405565b93805191808311620003c4576000928354906001938483811c93168015620003b9575b87841014620003a5578190601f9384811162000352575b508790848311600114620002ee578792620002e2575b5050600019600383901b1c191690841b1784555b8651918211620002ce5782548381811c91168015620002c3575b86821014620002af5781811162000267575b508490821160011462000204578394959682939492620001f8575b5050600019600383901b1c191690821b1781555b7fcac50f86c292f6863f130b9e1133a5f875e8e957fed41745b8fa2498550cbdfc92838352600681528282868220015481848882200155857fbd79b86ffe0ab8e8776151514217cd7cacd52c909f66475c3af44e129f0b00ff8380a4848320338452815260ff858420541615620001ab575b84516137259081620004788239f35b8383526006815284832090338452528382209060ff1982541617905533917f2f8788117e7eff1d82e926ec794901d17c78024a50270940304540a733656f0d339280a4388080806200019c565b01519050388062000116565b82845284842090601f198316855b818110620002515750978385969798991062000237575b505050811b0181556200012a565b015160001960f88460031b161c1916905538808062000229565b8983015184559285019291870191870162000212565b8385528585208280850160051c820192888610620002a5575b0160051c019084905b82811062000299575050620000fb565b86815501849062000289565b9250819262000280565b634e487b7160e01b85526022600452602485fd5b90607f1690620000e9565b634e487b7160e01b84526041600452602484fd5b015190503880620000bb565b8780528888208794509190601f198416895b8b8282106200033b575050841162000321575b505050811b018455620000cf565b015160001960f88460031b161c1916905538808062000313565b8385015186558a9790950194938401930162000300565b9091508680528787208480850160051c8201928a86106200039b575b918891869594930160051c01915b8281106200038c575050620000a5565b8981558594508891016200037c565b925081926200036e565b634e487b7160e01b86526022600452602486fd5b92607f16926200008e565b634e487b7160e01b600052604160045260246000fd5b600080fd5b6040519190601f01601f191682016001600160401b03811183821017620003c457604052565b919080601f84011215620003da5782516001600160401b038111620003c4576020906200043b601f8201601f19168301620003df565b92818452828287010111620003da5760005b8181106200046357508260009394955001015290565b85810183015184820184015282016200044d56fe608080604052600436101561001357600080fd5b60003560e01c90816301ffc9a7146127455750806306fdde03146126a2578063081812fc14612684578063095ea7b31461250a57806323b872dd146124e1578063246a908b14612365578063248a9ca3146123365780632f2ff15d146122fc57806336568abe1461226a5780633806f15214611ff557806342842e0e14611fcd57806342966c6814611e825780636352211e14611e5257806364140ec014611cdf57806370a0823114611c4857806378278cca14611ad557806391d1485414611a8857806395d89b41146119a9578063987c26fd1461168f57806398b7079314611654578063a217fddf14611638578063a22cb46514611566578063b543be1214610b34578063b88d4fde14610ad5578063befaa6a314610ab3578063c87b56dd1461061f578063cdb0e89e1461048b578063d547741f1461044c578063dcd78186146103d5578063e46f29c81461039a578063e985e9c5146103445763f93151771461017f57600080fd5b3461033f5761018d3661293a565b9061019f610199612ace565b82612af4565b6000526020916006835260406000203360005283526101c560ff60406000205416612b3f565b6000828152600260205260409020546101e8906001600160a01b03161515612f02565b816000526008835260036040600020018151936001600160401b0385116103295761021382546129af565b601f81116102ee575b5080601f8611600114610284575093806102519495600091610279575b508160011b916000199060031b1c1916179055612b9c565b907f9f284fd257fb85bc33901e673c078261b0222fbcc4b52c74784c9566808e3cfc600080a3005b905083015138610239565b90601f1986168360005282600020926000905b8282106102d65750509186916102519697600194106102bd575b5050811b019055612b9c565b85015160001960f88460031b161c1916905538806102b1565b80600185968294968a01518155019501930190610297565b610319908360005282600020601f880160051c81019184891061031f575b601f0160051c01906129e9565b3861021c565b909150819061030c565b634e487b7160e01b600052604160045260246000fd5b600080fd5b3461033f57604036600319011261033f5761035d612812565b610365612828565b9060018060a01b03809116600052600560205260406000209116600052602052602060ff604060002054166040519015158152f35b3461033f57600036600319011261033f5760206040517f54812023c8fe13756580f3420840aeb566f69714bea27346e22e4c654756d77e8152f35b3461033f57604036600319011261033f5761044a6004356104456103f7612828565b916104146001600160a01b0361040c83612f4e565b163314612a00565b600081815260026020526040902054610437906001600160a01b03161515612f02565b61043f612ace565b90612af4565b612e12565b005b3461033f57604036600319011261033f5761044a60043561046b612828565b90806000526006602052610486600160406000200154612c08565b612e8c565b3461033f576104993661293a565b906104a5610199612ace565b6000526020916006835260406000203360005283526104cb60ff60406000205416612b3f565b6000828152600260205260409020546104ee906001600160a01b03161515612f02565b816000526008835260406000208151936001600160401b0385116103295761051682546129af565b601f81116105ef575b5080601f861160011461058657509380610553949560009161057b57508160011b916000199060031b1c1916179055612b9c565b907fabf44020991f188f6b302a14e4b7a3dc94de10ed2140a6c03e16f4213d11b1c9600080a3005b905083015186610239565b90601f1986168360005282600020926000905b8282106105d75750509186916105539697600194106105be575050811b019055612b9c565b85015160001960f88460031b161c1916905586806102b1565b80600185968294968a01518155019501930190610599565b610619908360005282600020601f880160051c81019184891061031f57601f0160051c01906129e9565b8561051f565b3461033f5760208060031936011261033f5760043560008181526002602052604090205490919061065a906001600160a01b03161515612f02565b61066382612f4e565b600092835260088252604090922091610684906001600160a01b03166135e1565b60058301546000818152600685018452604081206001958694938583019190807a184f03e93ff9f4daa797ed6e38ed64bf6a1f0100000000000000008181811015610aa5575b5050886d04ee2d6d415b85acef810000000080841015610a97575b5050662386f26fc1000080831015610a88575b506305f5e10080831015610a79575b5061271080831015610a6a575b506064821015610a5a575b600a978880931015610a50575b6021610739828901613432565b97880101905b610a21575b5050604051607b60f81b8982015267113730b6b2911d1160c11b60218201529889969091506107766029880184612a4b565b61088b60f21b8082526e113232b9b1b934b83a34b7b7111d1160891b6002830152926107a791601101908501612a4b565b828152681137bbb732b9111d1160b91b60028201528151916107d1908390600b8401908d016127ca565b0181600b8201526f1132bc3a32b93730b62fbab936111d1160811b600d820152601d01600383019061080291612a4b565b818152681134b6b0b3b2911d1160b91b6002820152600b01600283019061082891612a4b565b9081526e2261747472696275746573223a205b60881b60028201527f7b2274726169745f74797065223a2022454e53222c202276616c7565223a2200601182015261087b91603090910190600401612a4b565b62089f4b60ea1b8082527f7b2274726169745f74797065223a2022436f6d6d69742048617368222c20227660038301526630b63ab2911d1160c91b6023830152926108c991602a0190612a4b565b828152600381017f7b2274726169745f74797065223a20225265706f7369746f7279222c20227661905265363ab2911d1160d11b602382015260290161090e91612a4b565b9081527f7b2274726169745f74797065223a202256657273696f6e222c202276616c7565600382015262111d1160e91b6023820152815191610958908390602684019088016127ca565b0161227d60f01b602682015260288101605d60f81b905260298101607d60f81b9052039081018352602a0161098d90836128a9565b8060405161099a81612873565b601d8152818101937f646174613a6170706c69636174696f6e2f6a736f6e3b6261736536342c00000085526109ce90613464565b6040519485925190818585016109e3926127ca565b820181519182858084019201916109f9926127ca565b010380845201610a0990836128a9565b6040519181839283528201610a1d916127ed565b0390f35b600019019082906f181899199a1a9b1b9c1cb0b131b232b360811b8282061a835304908a8261073f5750610744565b909501948961072c565b949060646002910491019461071f565b6004919692049101948a610714565b6008919692049101948a610707565b6010919692049101948a6106f8565b96019590910490888b6106e5565b604097500491508a806106ca565b3461033f57604036600319011261033f5761044a6004356104866103f7612828565b3461033f57608036600319011261033f57610aee612812565b610af6612828565b606435916001600160401b03831161033f573660238401121561033f57610b2a61044a9336906024816004013591016128e5565b9160443591613011565b61010036600319011261033f57610b49612812565b6024356001600160401b03811161033f57610b6890369060040161291c565b906044356001600160401b03811161033f57610b8890369060040161291c565b906064356001600160401b03811161033f57610ba890369060040161291c565b926084356001600160401b03811161033f57610bc890369060040161291c565b60a4356001600160401b03811161033f57610be790369060040161291c565b9060c4356001600160401b03811161033f57610c0790369060040161291c565b9560e4356001600160401b03811161033f57610c2790369060040161291c565b3360009081527f6ba1fb09f226a75e067af9a8d207c51e8b8b2c4d25e3ce897223f4dfedce79fd602052604090205490969060ff161561150557600754956001600160a01b038116156114c157600087815260026020526040902054610d589190610c9e906001600160a01b031615155b1561310a565b600088815260026020526040902054610cc1906001600160a01b03161515610c98565b6001600160a01b0381166000818152600360209081526040808320805460010190558b83526002909152812080546001600160a01b031916831790558991907fddf252ad1be2c89b69c2b068fc378daa952ba7f163c4a11628f55a4df523b3ef8180a4600088815260026020526040902054610d47906001600160a01b03161515612f02565b610445610d52612ace565b89612af4565b6001600754016007558560005260086020526040600020948051906001600160401b038211610329578190610d8d88546129af565b601f811161148f575b50602090601f831160011461142357600092611418575b50508160011b916000199060031b1c19161785555b8051906001600160401b038211610329578190610de260018801546129af565b601f81116113e3575b50602090601f831160011461137157600092611366575b50508160011b916000199060031b1c19161760018501555b8051906001600160401b038211610329578190610e3a60028701546129af565b601f8111611331575b50602090601f83116001146112bf576000926112b4575b50508160011b916000199060031b1c19161760028401555b8051906001600160401b038211610329578190610e9260038601546129af565b601f811161127f575b50602090601f831160011461120d57600092611202575b50508160011b916000199060031b1c19161760038301555b8051906001600160401b03821161032957610ee860048401546129af565b601f81116111cd575b50602090601f831160011461115a5760069392916000918361114f575b50508160011b916000199060031b1c19161760048201555b6000600582015560405194610f3a86612873565b8552602085019384526000805201602052604060002092519283516001600160401b03811161032957610f6d82546129af565b601f811161111d575b506020601f82116001146110b357819060019495966000926110a8575b5050600019600383901b1c191690831b1781555b019151908151926001600160401b03841161032957602093610fc982546129af565b601f8111611078575b508493601f821160011461101557938192939460009261100a575b50508160011b916000199060031b1c19161790555b604051908152f35b015190508580610fed565b601f1982169483600052866000209160005b878110611061575083600195969710611048575b505050811b019055611002565b015160001960f88460031b161c1916905585808061103b565b919288600181928685015181550194019201611027565b6110a2908360005286600020601f840160051c81019188851061031f57601f0160051c01906129e9565b85610fd2565b015190508680610f93565b601f198216958360005260206000209660005b81811061110557509160019596979184879594106110ec575b505050811b018155610fa7565b015160001960f88460031b161c191690558680806110df565b838301518955600190980197602093840193016110c6565b61114990836000526020600020601f840160051c8101916020851061031f57601f0160051c01906129e9565b85610f76565b015190508780610f0e565b906004840160005260206000209160005b601f19851681106111b5575091839160019360069695601f1981161061119c575b505050811b016004820155610f26565b015160001960f88460031b161c1916905587808061118c565b9192602060018192868501518155019401920161116b565b6111fc90600485016000526020600020601f850160051c8101916020861061031f57601f0160051c01906129e9565b86610ef1565b015190508780610eb2565b9250600385016000526020600020906000935b601f1984168510611264576001945083601f1981161061124b575b505050811b016003830155610eca565b015160001960f88460031b161c1916905587808061123b565b81810151835560209485019460019093019290910190611220565b6112ae90600387016000526020600020601f850160051c8101916020861061031f57601f0160051c01906129e9565b88610e9b565b015190508880610e5a565b9250600286016000526020600020906000935b601f1984168510611316576001945083601f198116106112fd575b505050811b016002840155610e72565b015160001960f88460031b161c191690558880806112ed565b818101518355602094850194600190930192909101906112d2565b61136090600288016000526020600020601f850160051c8101916020861061031f57601f0160051c01906129e9565b89610e43565b015190508980610e02565b9250600187016000526020600020906000935b601f19841685106113c8576001945083601f198116106113af575b505050811b016001850155610e1a565b015160001960f88460031b161c1916905589808061139f565b81810151835560209485019460019093019290910190611384565b61141290600189016000526020600020601f850160051c8101916020861061031f57601f0160051c01906129e9565b8a610deb565b015190508a80610dad565b9250876000526020600020906000935b601f1984168510611474576001945083601f1981161061145b575b505050811b018555610dc2565b015160001960f88460031b161c191690558a808061144e565b81810151835560209485019460019093019290910190611433565b6114bb90896000526020600020601f850160051c8101916020861061031f57601f0160051c01906129e9565b8b610d96565b606460405162461bcd60e51b815260206004820152602060248201527f4552433732313a206d696e7420746f20746865207a65726f20616464726573736044820152fd5b60405162461bcd60e51b815260206004820152603360248201527f466c65656b416363657373436f6e74726f6c3a206d757374206861766520636f6044820152726c6c656374696f6e206f776e657220726f6c6560681b6064820152608490fd5b3461033f57604036600319011261033f5761157f612812565b6024359081151580920361033f576001600160a01b0316903382146115f357336000526005602052604060002082600052602052604060002060ff1981541660ff83161790556040519081527f17307eab39ab6107e8899845ad3d59bd9653f200f220920489ca2b5937696c3160203392a3005b60405162461bcd60e51b815260206004820152601960248201527f4552433732313a20617070726f766520746f2063616c6c6572000000000000006044820152606490fd5b3461033f57600036600319011261033f57602060405160008152f35b3461033f57600036600319011261033f5760206040517fcac50f86c292f6863f130b9e1133a5f875e8e957fed41745b8fa2498550cbdfc8152f35b61169836612969565b91906116ae6001600160a01b0361040c84612f4e565b6000828152600260205260409020546116d1906001600160a01b03161515612f02565b6116e26116dc612ace565b83612af4565b60005260209260068452604060002033600052845261170860ff60406000205416612b3f565b60008381526002602052604090205461172b906001600160a01b03161515612f02565b60405161173781612873565b828152848101918252836000526008855260066040600020016005604060002001908154906000199283831461199357600180930180915560005287526040600020925180516001600160401b039485821161032957839161179982546129af565b93601f948c868211611964575b50508b908583116001146118fe5760009190836118f3575b50508682851b9260031b1c19161781555b019451978851948511610329576117e686546129af565b8281116118bb575b50809185116001146118525750839291839161181f9899600095611847575b50501b9260031b1c1916179055612b9c565b907ff0cd0ce9d5882a10e2780d2d9c805c18e7536b9b2c6412f7bfb7f163656dd0f6600080a3005b01519350898061180d565b91939290601f198416988660005283600020936000905b8b82106118a45750508461181f999a1061188c575b50505050811b019055612b9c565b01519060f88460031b161c191690558680808061187e565b808885978294968601518155019601930190611869565b6118e49087600052826000208480890160051c820192858a106118ea575b0160051c01906129e9565b896117ee565b925081926118d9565b015190508c806117be565b60008481528d8120929190601f198516908f5b82821061194b5750509084879594939210611934575b505050811b0181556117cf565b01518860f88460031b161c191690558c8080611927565b8484015186558a98909501949384019390810190611911565b61198c918560005287826000209181870160051c83019387106118ea570160051c01906129e9565b8c8c6117a6565b634e487b7160e01b600052601160045260246000fd5b3461033f57600036600319011261033f57604051600060018054906119cd826129af565b80855291818116908115611a615750600114611a08575b610a1d846119f4818603826128a9565b6040519182916020835260208301906127ed565b600081815292507fb10e2d527612073b26eecdfd717e6a320cf44b4afac2b0732d9fcbe2b7fa0cf65b828410611a495750505081016020016119f4826119e4565b80546020858701810191909152909301928101611a31565b60ff191660208087019190915292151560051b850190920192506119f491508390506119e4565b3461033f57604036600319011261033f57611aa1612828565b600435600052600660205260406000209060018060a01b0316600052602052602060ff604060002054166040519015158152f35b3461033f57611ae33661293a565b90611aef610199612ace565b600052602091600683526040600020336000528352611b1560ff60406000205416612b3f565b600082815260026020526040902054611b38906001600160a01b03161515612f02565b816000526008835260046040600020018151936001600160401b03851161032957611b6382546129af565b601f8111611c18575b5080601f8611600114611bc857509380611ba0949560009161057b57508160011b916000199060031b1c1916179055612b9c565b907fc1b5a2141fc60537be795a8771f5e8c80188922acb5399a6e463ea95aa852f31600080a3005b90601f1986168360005282600020926000905b828210611c00575050918691611ba09697600194106105be575050811b019055612b9c565b80600185968294968a01518155019501930190611bdb565b611c42908360005282600020601f880160051c81019184891061031f57601f0160051c01906129e9565b85611b6c565b3461033f57602036600319011261033f576001600160a01b03611c69612812565b168015611c885760005260036020526020604060002054604051908152f35b60405162461bcd60e51b815260206004820152602960248201527f4552433732313a2061646472657373207a65726f206973206e6f7420612076616044820152683634b21037bbb732b960b91b6064820152608490fd5b3461033f57611ced3661293a565b90611cf9610199612ace565b600052602091600683526040600020336000528352611d1f60ff60406000205416612b3f565b600082815260026020526040902054611d42906001600160a01b03161515612f02565b816000526008835260026040600020018151936001600160401b03851161032957611d6d82546129af565b601f8111611e22575b5080601f8611600114611dd257509380611daa949560009161057b57508160011b916000199060031b1c1916179055612b9c565b907fb041870856ebefdd6a3cb1ac665eb6739281b855c912ff622e814dbf91c96bb6600080a3005b90601f1986168360005282600020926000905b828210611e0a575050918691611daa9697600194106105be575050811b019055612b9c565b80600185968294968a01518155019501930190611de5565b611e4c908360005282600020601f880160051c81019184891061031f57601f0160051c01906129e9565b85611d76565b3461033f57602036600319011261033f576020611e70600435612f4e565b6040516001600160a01b039091168152f35b3461033f5760208060031936011261033f5760043590611ea36116dc612ace565b600052600681526040600020336000528152611ec660ff60406000205416612b3f565b8160006001600160a01b03611ee63382611edf86612f4e565b1614612a00565b611eef83612f4e565b50611ef983612f4e565b908383526004855260408320916bffffffffffffffffffffffff60a01b92838154169055169081835260038552604083208319815401905583835260028552604083209081541690557fddf252ad1be2c89b69c2b068fc378daa952ba7f163c4a11628f55a4df523b3ef8280a460088152611f7b6003604060002001546129af565b611f8157005b600891600052526000600560408220611f9981612bbc565b611fa560018201612bbc565b611fb160028201612bbc565b611fbd60038201612bbc565b611fc960048201612bbc565b0155005b3461033f5761044a611fde3661283e565b9060405192611fec8461288e565b60008452613011565b3461033f5761200336612969565b91906120106116dc612ace565b60005260209260068452604060002033600052845261203660ff60406000205416612b3f565b600083815260026020526040902054612059906001600160a01b03161515612f02565b60405161206581612873565b828152848101918252836000526008855260066040600020016005604060002001908154906000199283831461199357600180930180915560005287526040600020925180516001600160401b03948582116103295783916120c782546129af565b93601f948c86821161223b575b50508b908583116001146121d55760009190836121ca575b50508682851b9260031b1c19161781555b0194519788519485116103295761211486546129af565b82811161219c575b508091851160011461214c5750839291839161181f98996000956118475750501b9260031b1c1916179055612b9c565b91939290601f198416988660005283600020936000905b8b82106121855750508461181f999a1061188c5750505050811b019055612b9c565b808885978294968601518155019601930190612163565b6121c49087600052826000208480890160051c820192858a106118ea570160051c01906129e9565b8961211c565b015190508c806120ec565b60008481528d8120929190601f198516908f5b828210612222575050908487959493921061220b575b505050811b0181556120fd565b01518860f88460031b161c191690558c80806121fe565b8484015186558a989095019493840193908101906121e8565b612263918560005287826000209181870160051c83019387106118ea570160051c01906129e9565b8c8c6120d4565b3461033f57604036600319011261033f57612283612828565b336001600160a01b0382160361229f5761044a90600435612e8c565b60405162461bcd60e51b815260206004820152602f60248201527f416363657373436f6e74726f6c3a2063616e206f6e6c792072656e6f756e636560448201526e103937b632b9903337b91039b2b63360891b6064820152608490fd5b3461033f57604036600319011261033f5761044a60043561231b612828565b90806000526006602052610445600160406000200154612c08565b3461033f57602036600319011261033f5760043560005260066020526020600160406000200154604051908152f35b3461033f576123733661293a565b9061237f610199612ace565b6000526020916006835260406000203360005283526123a560ff60406000205416612b3f565b6000828152600260205260409020546123c8906001600160a01b03161515612f02565b8160005260088352600180604060002001908251906001600160401b038211610329576123f583546129af565b601f81116124b1575b5085601f831160011461246457508180916124319697600093612459575b501b916000199060031b1c1916179055612b9c565b907f9b3089e7af95b8d43fdceb16eb9cbf620a0cb486e1a291b15121a44e0f69127a600080a3005b86015192508861241c565b601f929192198216968460005281600020916000905b89821061249a575050826124319798106105be575050811b019055612b9c565b808684958294958b0151815501940192019061247a565b6124db908460005287600020601f850160051c81019189861061031f57601f0160051c01906129e9565b866123fe565b3461033f5761044a6124f23661283e565b91612505612500843361309c565b612faf565b6131b0565b3461033f57604036600319011261033f57612523612812565b602435906001600160a01b03808061253a85612f4e565b1692169180831461263557803314908115612610575b50156125a557600083815260046020526040902080546001600160a01b0319168317905561257d83612f4e565b167f8c5be1e5ebec7d5bd14f71427d1e84f3dd0314c0f7b2291e5b200ac8c7c3b925600080a4005b60405162461bcd60e51b815260206004820152603d60248201527f4552433732313a20617070726f76652063616c6c6572206973206e6f7420746f60448201527f6b656e206f776e6572206f7220617070726f76656420666f7220616c6c0000006064820152608490fd5b9050600052600560205260406000203360005260205260ff6040600020541684612550565b60405162461bcd60e51b815260206004820152602160248201527f4552433732313a20617070726f76616c20746f2063757272656e74206f776e656044820152603960f91b6064820152608490fd5b3461033f57602036600319011261033f576020611e70600435612f71565b3461033f57600036600319011261033f57604051600080546126c3816129af565b80845290600190818116908115611a6157506001146126ec57610a1d846119f4818603826128a9565b600080805292507f290decd9548b62a8d60345a988386fc84ba6bc95484008f6362f93160ef3e5635b82841061272d5750505081016020016119f4826119e4565b80546020858701810191909152909301928101612715565b3461033f57602036600319011261033f576004359063ffffffff60e01b821680920361033f57602091637965db0b60e01b8114908115612787575b5015158152f35b6380ac58cd60e01b8114915081156127b9575b81156127a8575b5083612780565b6301ffc9a760e01b149050836127a1565b635b5e139f60e01b8114915061279a565b60005b8381106127dd5750506000910152565b81810151838201526020016127cd565b90602091612806815180928185528580860191016127ca565b601f01601f1916010190565b600435906001600160a01b038216820361033f57565b602435906001600160a01b038216820361033f57565b606090600319011261033f576001600160a01b0390600435828116810361033f5791602435908116810361033f579060443590565b604081019081106001600160401b0382111761032957604052565b602081019081106001600160401b0382111761032957604052565b90601f801991011681019081106001600160401b0382111761032957604052565b6001600160401b03811161032957601f01601f191660200190565b9291926128f1826128ca565b916128ff60405193846128a9565b82948184528183011161033f578281602093846000960137010152565b9080601f8301121561033f57816020612937933591016128e5565b90565b90604060031983011261033f5760043591602435906001600160401b03821161033f576129379160040161291c565b606060031982011261033f57600435916001600160401b0360243581811161033f57836129989160040161291c565b9260443591821161033f576129379160040161291c565b90600182811c921680156129df575b60208310146129c957565b634e487b7160e01b600052602260045260246000fd5b91607f16916129be565b8181106129f4575050565b600081556001016129e9565b15612a0757565b606460405162461bcd60e51b815260206004820152602060248201527f466c65656b4552433732313a206d75737420626520746f6b656e206f776e65726044820152fd5b600092918154612a5a816129af565b92600191808316908115612ab35750600114612a77575b50505050565b90919293945060005260209081600020906000915b858310612aa25750505050019038808080612a71565b805485840152918301918101612a8c565b60ff1916845250505081151590910201915038808080612a71565b60405190612adb82612873565b600a82526921a7a72a2927a62622a960b11b6020830152565b612b3960466040518093602082019565544f4b454e5f60d01b8752612b238151809260206026870191016127ca565b82019060268201520360268101845201826128a9565b51902090565b15612b4657565b60405162461bcd60e51b815260206004820152602860248201527f466c65656b416363657373436f6e74726f6c3a206d757374206861766520746f6044820152676b656e20726f6c6560c01b6064820152608490fd5b612bb4906020604051928284809451938492016127ca565b810103902090565b612bc681546129af565b9081612bd0575050565b81601f60009311600114612be2575055565b81835260208320612bfe91601f0160051c8101906001016129e9565b8160208120915555565b60009080825260209060068252604092838120338252835260ff848220541615612c325750505050565b612c3b336135e1565b91845190608082018281106001600160401b03821117612dfe57865260428252848201926060368537825115612dea5760308453825190600191821015612dea5790607860218501536041915b818311612d7c57505050612d3a576048612d36938693612d1a93612d0b98519889937f416363657373436f6e74726f6c3a206163636f756e74200000000000000000008a860152612ce2815180928c6037890191016127ca565b8401917001034b99036b4b9b9b4b733903937b6329607d1b6037840152518093868401906127ca565b010360288101875201856128a9565b5192839262461bcd60e51b8452600484015260248301906127ed565b0390fd5b60648486519062461bcd60e51b825280600483015260248201527f537472696e67733a20686578206c656e67746820696e73756666696369656e746044820152fd5b909192600f81166010811015612dd6576f181899199a1a9b1b9c1cb0b131b232b360811b901a612dac85876135ba565b5360041c928015612dc257600019019190612c88565b634e487b7160e01b82526011600452602482fd5b634e487b7160e01b83526032600452602483fd5b634e487b7160e01b81526032600452602490fd5b634e487b7160e01b84526041600452602484fd5b906000918083526006602052604083209160018060a01b03169182845260205260ff60408420541615612e4457505050565b80835260066020526040832082845260205260408320600160ff198254161790557f2f8788117e7eff1d82e926ec794901d17c78024a50270940304540a733656f0d339380a4565b906000918083526006602052604083209160018060a01b03169182845260205260ff604084205416612ebd57505050565b8083526006602052604083208284526020526040832060ff1981541690557ff6391f5c32d9c69d2a47ea670b442974b53935d1edc7fd64eb21e047a839171b339380a4565b15612f0957565b60405162461bcd60e51b815260206004820152601860248201527f4552433732313a20696e76616c696420746f6b656e20494400000000000000006044820152606490fd5b6000908152600260205260409020546001600160a01b0316612937811515612f02565b600081815260026020526040902054612f94906001600160a01b03161515612f02565b6000908152600460205260409020546001600160a01b031690565b15612fb657565b60405162461bcd60e51b815260206004820152602d60248201527f4552433732313a2063616c6c6572206973206e6f7420746f6b656e206f776e6560448201526c1c881bdc88185c1c1c9bdd9959609a1b6064820152608490fd5b90613035939291613025612500843361309c565b6130308383836131b0565b6132c6565b1561303c57565b60405162461bcd60e51b815260206004820152603260248201527f4552433732313a207472616e7366657220746f206e6f6e20455243373231526560448201527131b2b4bb32b91034b6b83632b6b2b73a32b960711b6064820152608490fd5b906001600160a01b0380806130b084612f4e565b169316918383149384156130e3575b5083156130cd575b50505090565b6130d991929350612f71565b16143880806130c7565b909350600052600560205260406000208260005260205260ff6040600020541692386130bf565b1561311157565b60405162461bcd60e51b815260206004820152601c60248201527f4552433732313a20746f6b656e20616c7265616479206d696e746564000000006044820152606490fd5b1561315d57565b60405162461bcd60e51b815260206004820152602560248201527f4552433732313a207472616e736665722066726f6d20696e636f72726563742060448201526437bbb732b960d91b6064820152608490fd5b906131d8916131be84612f4e565b6001600160a01b0393918416928492909183168414613156565b1691821561327557816131f5916131ee86612f4e565b1614613156565b7fddf252ad1be2c89b69c2b068fc378daa952ba7f163c4a11628f55a4df523b3ef60008481526004602052604081206bffffffffffffffffffffffff60a01b9081815416905583825260036020526040822060001981540190558482526040822060018154019055858252600260205284604083209182541617905580a4565b60405162461bcd60e51b8152602060048201526024808201527f4552433732313a207472616e7366657220746f20746865207a65726f206164646044820152637265737360e01b6064820152608490fd5b9293600093909291803b15613427579484916133209660405180948193630a85bd0160e11b9788845233600485015260018060a01b0380921660248501526044840152608060648401528260209b8c9760848301906127ed565b0393165af18491816133e3575b506133d2575050503d6000146133ca573d613347816128ca565b9061335560405192836128a9565b81528091833d92013e5b805191826133c75760405162461bcd60e51b815260206004820152603260248201527f4552433732313a207472616e7366657220746f206e6f6e20455243373231526560448201527131b2b4bb32b91034b6b83632b6b2b73a32b960711b6064820152608490fd5b01fd5b50606061335f565b6001600160e01b0319161492509050565b9091508581813d8311613420575b6133fb81836128a9565b8101031261341c57516001600160e01b03198116810361341c57903861332d565b8480fd5b503d6133f1565b505050915050600190565b9061343c826128ca565b61344960405191826128a9565b828152809261345a601f19916128ca565b0190602036910137565b8051156135a657604051606081018181106001600160401b0382111761032957604052604081527f4142434445464748494a4b4c4d4e4f505152535455565758595a61626364656660208201527f6768696a6b6c6d6e6f707172737475767778797a303132333435363738392b2f60408201528151600292838201809211611993576003918290046001600160fe1b038116810361199357613509908594951b613432565b936020850193829183518401925b838110613555575050505051068060011461354257600214613537575090565b603d90600019015390565b50603d9081600019820153600119015390565b85600491979293949701918251600190603f9082828260121c16880101518453828282600c1c16880101518385015382828260061c1688010151888501531685010151878201530195929190613517565b506040516135b38161288e565b6000815290565b9081518110156135cb570160200190565b634e487b7160e01b600052603260045260246000fd5b60405190606082018281106001600160401b0382111761032957604052602a82526020820160403682378251156135cb576030905381516001908110156135cb57607860218401536029905b80821161368157505061363d5790565b606460405162461bcd60e51b815260206004820152602060248201527f537472696e67733a20686578206c656e67746820696e73756666696369656e746044820152fd5b9091600f811660108110156136da576f181899199a1a9b1b9c1cb0b131b232b360811b901a6136b084866135ba565b5360041c9180156136c557600019019061362d565b60246000634e487b7160e01b81526011600452fd5b60246000634e487b7160e01b81526032600452fdfea2646970667358221220f990373a6ee4218bd529d7377a3ea71fd58a85d8659b6121af366d013cd8bb9264736f6c63430008110033",
    "linkReferences": {}
  },
  "methodIdentifiers": {
    "COLLECTION_CONTROLLER_ROLE()": "e46f29c8",
    "COLLECTION_OWNER_ROLE()": "98b70793",
    "DEFAULT_ADMIN_ROLE()": "a217fddf",
    "addTokenController(uint256,address)": "dcd78186",
    "approve(address,uint256)": "095ea7b3",
    "balanceOf(address)": "70a08231",
    "burn(uint256)": "42966c68",
    "getApproved(uint256)": "081812fc",
    "getRoleAdmin(bytes32)": "248a9ca3",
    "grantRole(bytes32,address)": "2f2ff15d",
    "hasRole(bytes32,address)": "91d14854",
    "isApprovedForAll(address,address)": "e985e9c5",
    "mint(address,string,string,string,string,string,string,string)": "b543be12",
    "name()": "06fdde03",
    "ownerOf(uint256)": "6352211e",
    "removeTokenController(uint256,address)": "befaa6a3",
    "renounceRole(bytes32,address)": "36568abe",
    "revokeRole(bytes32,address)": "d547741f",
    "safeTransferFrom(address,address,uint256)": "42842e0e",
    "safeTransferFrom(address,address,uint256,bytes)": "b88d4fde",
    "setApprovalForAll(address,bool)": "a22cb465",
    "setTokenBuild(uint256,string,string)": "3806f152",
    "setTokenDescription(uint256,string)": "246a908b",
    "setTokenENS(uint256,string)": "78278cca",
    "setTokenExternalURL(uint256,string)": "f9315177",
    "setTokenImage(uint256,string)": "64140ec0",
    "setTokenName(uint256,string)": "cdb0e89e",
    "supportsInterface(bytes4)": "01ffc9a7",
    "symbol()": "95d89b41",
    "tokenURI(uint256)": "c87b56dd",
    "transferFrom(address,address,uint256)": "23b872dd",
    "upgradeTokenBuild(uint256,string,string)": "987c26fd"
  },
  "id": 1
}