{
  "abi": [
    {
      "inputs": [
        {
          "internalType": "string",
          "name": "_name",
          "type": "string"
        },
        {
          "internalType": "string",
          "name": "_symbol",
          "type": "string"
        }
      ],
      "stateMutability": "nonpayable",
      "type": "constructor"
    },
    {
      "anonymous": false,
      "inputs": [
        {
          "indexed": true,
          "internalType": "address",
          "name": "owner",
          "type": "address"
        },
        {
          "indexed": true,
          "internalType": "address",
          "name": "approved",
          "type": "address"
        },
        {
          "indexed": true,
          "internalType": "uint256",
          "name": "tokenId",
          "type": "uint256"
        }
      ],
      "name": "Approval",
      "type": "event"
    },
    {
      "anonymous": false,
      "inputs": [
        {
          "indexed": true,
          "internalType": "address",
          "name": "owner",
          "type": "address"
        },
        {
          "indexed": true,
          "internalType": "address",
          "name": "operator",
          "type": "address"
        },
        {
          "indexed": false,
          "internalType": "bool",
          "name": "approved",
          "type": "bool"
        }
      ],
      "name": "ApprovalForAll",
      "type": "event"
    },
    {
      "anonymous": false,
      "inputs": [
        {
          "indexed": true,
          "internalType": "string",
          "name": "apName",
          "type": "string"
        },
        {
          "indexed": false,
          "internalType": "uint256",
          "name": "tokenId",
          "type": "uint256"
        },
        {
          "indexed": true,
          "internalType": "bool",
          "name": "verified",
          "type": "bool"
        },
        {
          "indexed": true,
          "internalType": "address",
          "name": "triggeredBy",
          "type": "address"
        }
      ],
      "name": "ChangeAccessPointContentVerify",
      "type": "event"
    },
    {
      "anonymous": false,
      "inputs": [
        {
          "indexed": true,
          "internalType": "string",
          "name": "apName",
          "type": "string"
        },
        {
          "indexed": false,
          "internalType": "uint256",
          "name": "tokenId",
          "type": "uint256"
        },
        {
          "indexed": true,
          "internalType": "bool",
          "name": "verified",
          "type": "bool"
        },
        {
          "indexed": true,
          "internalType": "address",
          "name": "triggeredBy",
          "type": "address"
        }
      ],
      "name": "ChangeAccessPointNameVerify",
      "type": "event"
    },
    {
      "anonymous": false,
      "inputs": [
        {
          "indexed": true,
          "internalType": "string",
          "name": "apName",
          "type": "string"
        },
        {
          "indexed": true,
          "internalType": "uint256",
          "name": "tokenId",
          "type": "uint256"
        },
        {
          "indexed": false,
          "internalType": "uint256",
          "name": "score",
          "type": "uint256"
        },
        {
          "indexed": true,
          "internalType": "address",
          "name": "triggeredBy",
          "type": "address"
        }
      ],
      "name": "ChangeAccessPointScore",
      "type": "event"
    },
    {
      "anonymous": false,
      "inputs": [
        {
          "indexed": true,
          "internalType": "enum FleekAccessControl.Roles",
          "name": "role",
          "type": "uint8"
        },
        {
          "indexed": true,
          "internalType": "address",
          "name": "toAddress",
          "type": "address"
        },
        {
          "indexed": false,
          "internalType": "address",
          "name": "byAddress",
          "type": "address"
        }
      ],
      "name": "CollectionRoleGranted",
      "type": "event"
    },
    {
      "anonymous": false,
      "inputs": [
        {
          "indexed": true,
          "internalType": "enum FleekAccessControl.Roles",
          "name": "role",
          "type": "uint8"
        },
        {
          "indexed": true,
          "internalType": "address",
          "name": "toAddress",
          "type": "address"
        },
        {
          "indexed": false,
          "internalType": "address",
          "name": "byAddress",
          "type": "address"
        }
      ],
      "name": "CollectionRoleRevoked",
      "type": "event"
    },
    {
      "anonymous": false,
      "inputs": [
        {
          "indexed": true,
          "internalType": "string",
          "name": "apName",
          "type": "string"
        },
        {
          "indexed": true,
          "internalType": "uint256",
          "name": "tokenId",
          "type": "uint256"
        },
        {
          "indexed": true,
          "internalType": "address",
          "name": "owner",
          "type": "address"
        }
      ],
      "name": "NewAccessPoint",
      "type": "event"
    },
    {
      "anonymous": false,
      "inputs": [
        {
          "indexed": true,
          "internalType": "uint256",
          "name": "token",
          "type": "uint256"
        },
        {
          "indexed": true,
          "internalType": "string",
          "name": "commitHash",
          "type": "string"
        },
        {
          "indexed": true,
          "internalType": "address",
          "name": "triggeredBy",
          "type": "address"
        }
      ],
      "name": "NewBuild",
      "type": "event"
    },
    {
      "anonymous": false,
      "inputs": [
        {
          "indexed": true,
          "internalType": "uint256",
          "name": "token",
          "type": "uint256"
        },
        {
          "indexed": true,
          "internalType": "string",
          "name": "description",
          "type": "string"
        },
        {
          "indexed": true,
          "internalType": "address",
          "name": "triggeredBy",
          "type": "address"
        }
      ],
      "name": "NewTokenDescription",
      "type": "event"
    },
    {
      "anonymous": false,
      "inputs": [
        {
          "indexed": true,
          "internalType": "uint256",
          "name": "token",
          "type": "uint256"
        },
        {
          "indexed": true,
          "internalType": "string",
          "name": "ENS",
          "type": "string"
        },
        {
          "indexed": true,
          "internalType": "address",
          "name": "triggeredBy",
          "type": "address"
        }
      ],
      "name": "NewTokenENS",
      "type": "event"
    },
    {
      "anonymous": false,
      "inputs": [
        {
          "indexed": true,
          "internalType": "uint256",
          "name": "token",
          "type": "uint256"
        },
        {
          "indexed": true,
          "internalType": "string",
          "name": "externalURL",
          "type": "string"
        },
        {
          "indexed": true,
          "internalType": "address",
          "name": "triggeredBy",
          "type": "address"
        }
      ],
      "name": "NewTokenExternalURL",
      "type": "event"
    },
    {
      "anonymous": false,
      "inputs": [
        {
          "indexed": true,
          "internalType": "uint256",
          "name": "token",
          "type": "uint256"
        },
        {
          "indexed": true,
          "internalType": "string",
          "name": "image",
          "type": "string"
        },
        {
          "indexed": true,
          "internalType": "address",
          "name": "triggeredBy",
          "type": "address"
        }
      ],
      "name": "NewTokenImage",
      "type": "event"
    },
    {
      "anonymous": false,
      "inputs": [
        {
          "indexed": true,
          "internalType": "uint256",
          "name": "token",
          "type": "uint256"
        },
        {
          "indexed": true,
          "internalType": "string",
          "name": "name",
          "type": "string"
        },
        {
          "indexed": true,
          "internalType": "address",
          "name": "triggeredBy",
          "type": "address"
        }
      ],
      "name": "NewTokenName",
      "type": "event"
    },
    {
      "anonymous": false,
      "inputs": [
        {
          "indexed": true,
          "internalType": "string",
          "name": "apName",
          "type": "string"
        },
        {
          "indexed": true,
          "internalType": "uint256",
          "name": "tokenId",
          "type": "uint256"
        },
        {
          "indexed": true,
          "internalType": "address",
          "name": "owner",
          "type": "address"
        }
      ],
      "name": "RemoveAccessPoint",
      "type": "event"
    },
    {
      "anonymous": false,
      "inputs": [
        {
          "indexed": true,
          "internalType": "uint256",
          "name": "tokenId",
          "type": "uint256"
        },
        {
          "indexed": true,
          "internalType": "enum FleekAccessControl.Roles",
          "name": "role",
          "type": "uint8"
        },
        {
          "indexed": true,
          "internalType": "address",
          "name": "toAddress",
          "type": "address"
        },
        {
          "indexed": false,
          "internalType": "address",
          "name": "byAddress",
          "type": "address"
        }
      ],
      "name": "TokenRoleGranted",
      "type": "event"
    },
    {
      "anonymous": false,
      "inputs": [
        {
          "indexed": true,
          "internalType": "uint256",
          "name": "tokenId",
          "type": "uint256"
        },
        {
          "indexed": true,
          "internalType": "enum FleekAccessControl.Roles",
          "name": "role",
          "type": "uint8"
        },
        {
          "indexed": true,
          "internalType": "address",
          "name": "toAddress",
          "type": "address"
        },
        {
          "indexed": false,
          "internalType": "address",
          "name": "byAddress",
          "type": "address"
        }
      ],
      "name": "TokenRoleRevoked",
      "type": "event"
    },
    {
      "anonymous": false,
      "inputs": [
        {
          "indexed": true,
          "internalType": "address",
          "name": "from",
          "type": "address"
        },
        {
          "indexed": true,
          "internalType": "address",
          "name": "to",
          "type": "address"
        },
        {
          "indexed": true,
          "internalType": "uint256",
          "name": "tokenId",
          "type": "uint256"
        }
      ],
      "name": "Transfer",
      "type": "event"
    },
    {
      "inputs": [
        {
          "internalType": "uint256",
          "name": "tokenId",
          "type": "uint256"
        },
        {
          "internalType": "string",
          "name": "apName",
          "type": "string"
        }
      ],
      "name": "addAccessPoint",
      "outputs": [],
      "stateMutability": "payable",
      "type": "function"
    },
    {
      "inputs": [
        {
          "internalType": "uint256",
          "name": "tokenId",
          "type": "uint256"
        }
      ],
      "name": "appAccessPoints",
      "outputs": [
        {
          "internalType": "string[]",
          "name": "",
          "type": "string[]"
        }
      ],
      "stateMutability": "view",
      "type": "function"
    },
    {
      "inputs": [
        {
          "internalType": "address",
          "name": "to",
          "type": "address"
        },
        {
          "internalType": "uint256",
          "name": "tokenId",
          "type": "uint256"
        }
      ],
      "name": "approve",
      "outputs": [],
      "stateMutability": "nonpayable",
      "type": "function"
    },
    {
      "inputs": [
        {
          "internalType": "address",
          "name": "owner",
          "type": "address"
        }
      ],
      "name": "balanceOf",
      "outputs": [
        {
          "internalType": "uint256",
          "name": "",
          "type": "uint256"
        }
      ],
      "stateMutability": "view",
      "type": "function"
    },
    {
      "inputs": [
        {
          "internalType": "uint256",
          "name": "tokenId",
          "type": "uint256"
        }
      ],
      "name": "burn",
      "outputs": [],
      "stateMutability": "nonpayable",
      "type": "function"
    },
    {
      "inputs": [
        {
          "internalType": "string",
          "name": "apName",
          "type": "string"
        }
      ],
      "name": "decreaseAccessPointScore",
      "outputs": [],
      "stateMutability": "nonpayable",
      "type": "function"
    },
    {
      "inputs": [
        {
          "internalType": "string",
          "name": "apName",
          "type": "string"
        }
      ],
      "name": "getAccessPointJSON",
      "outputs": [
        {
          "internalType": "string",
          "name": "",
          "type": "string"
        }
      ],
      "stateMutability": "view",
      "type": "function"
    },
    {
      "inputs": [
        {
          "internalType": "uint256",
          "name": "tokenId",
          "type": "uint256"
        }
      ],
      "name": "getApproved",
      "outputs": [
        {
          "internalType": "address",
          "name": "",
          "type": "address"
        }
      ],
      "stateMutability": "view",
      "type": "function"
    },
    {
      "inputs": [
        {
          "internalType": "enum FleekAccessControl.Roles",
          "name": "role",
          "type": "uint8"
        }
      ],
      "name": "getCollectionRoleMembers",
      "outputs": [
        {
          "internalType": "address[]",
          "name": "",
          "type": "address[]"
        }
      ],
      "stateMutability": "view",
      "type": "function"
    },
    {
      "inputs": [
        {
          "internalType": "uint256",
          "name": "tokenId",
          "type": "uint256"
        },
        {
          "internalType": "enum FleekAccessControl.Roles",
          "name": "role",
          "type": "uint8"
        }
      ],
      "name": "getTokenRoleMembers",
      "outputs": [
        {
          "internalType": "address[]",
          "name": "",
          "type": "address[]"
        }
      ],
      "stateMutability": "view",
      "type": "function"
    },
    {
      "inputs": [
        {
          "internalType": "enum FleekAccessControl.Roles",
          "name": "role",
          "type": "uint8"
        },
        {
          "internalType": "address",
          "name": "account",
          "type": "address"
        }
      ],
      "name": "grantCollectionRole",
      "outputs": [],
      "stateMutability": "nonpayable",
      "type": "function"
    },
    {
      "inputs": [
        {
          "internalType": "uint256",
          "name": "tokenId",
          "type": "uint256"
        },
        {
          "internalType": "enum FleekAccessControl.Roles",
          "name": "role",
          "type": "uint8"
        },
        {
          "internalType": "address",
          "name": "account",
          "type": "address"
        }
      ],
      "name": "grantTokenRole",
      "outputs": [],
      "stateMutability": "nonpayable",
      "type": "function"
    },
    {
      "inputs": [
        {
          "internalType": "enum FleekAccessControl.Roles",
          "name": "role",
          "type": "uint8"
        },
        {
          "internalType": "address",
          "name": "account",
          "type": "address"
        }
      ],
      "name": "hasCollectionRole",
      "outputs": [
        {
          "internalType": "bool",
          "name": "",
          "type": "bool"
        }
      ],
      "stateMutability": "view",
      "type": "function"
    },
    {
      "inputs": [
        {
          "internalType": "uint256",
          "name": "tokenId",
          "type": "uint256"
        },
        {
          "internalType": "enum FleekAccessControl.Roles",
          "name": "role",
          "type": "uint8"
        },
        {
          "internalType": "address",
          "name": "account",
          "type": "address"
        }
      ],
      "name": "hasTokenRole",
      "outputs": [
        {
          "internalType": "bool",
          "name": "",
          "type": "bool"
        }
      ],
      "stateMutability": "view",
      "type": "function"
    },
    {
      "inputs": [
        {
          "internalType": "string",
          "name": "apName",
          "type": "string"
        }
      ],
      "name": "increaseAccessPointScore",
      "outputs": [],
      "stateMutability": "nonpayable",
      "type": "function"
    },
    {
      "inputs": [
        {
          "internalType": "string",
          "name": "apName",
          "type": "string"
        }
      ],
      "name": "isAccessPointNameVerified",
      "outputs": [
        {
          "internalType": "bool",
          "name": "",
          "type": "bool"
        }
      ],
      "stateMutability": "view",
      "type": "function"
    },
    {
      "inputs": [
        {
          "internalType": "address",
          "name": "owner",
          "type": "address"
        },
        {
          "internalType": "address",
          "name": "operator",
          "type": "address"
        }
      ],
      "name": "isApprovedForAll",
      "outputs": [
        {
          "internalType": "bool",
          "name": "",
          "type": "bool"
        }
      ],
      "stateMutability": "view",
      "type": "function"
    },
    {
      "inputs": [
        {
          "internalType": "address",
          "name": "to",
          "type": "address"
        },
        {
          "internalType": "string",
          "name": "name",
          "type": "string"
        },
        {
          "internalType": "string",
          "name": "description",
          "type": "string"
        },
        {
          "internalType": "string",
          "name": "externalURL",
          "type": "string"
        },
        {
          "internalType": "string",
          "name": "ENS",
          "type": "string"
        },
        {
          "internalType": "string",
          "name": "commitHash",
          "type": "string"
        },
        {
          "internalType": "string",
          "name": "gitRepository",
          "type": "string"
        }
      ],
      "name": "mint",
      "outputs": [
        {
          "internalType": "uint256",
          "name": "",
          "type": "uint256"
        }
      ],
      "stateMutability": "payable",
      "type": "function"
    },
    {
      "inputs": [],
      "name": "name",
      "outputs": [
        {
          "internalType": "string",
          "name": "",
          "type": "string"
        }
      ],
      "stateMutability": "view",
      "type": "function"
    },
    {
      "inputs": [
        {
          "internalType": "uint256",
          "name": "tokenId",
          "type": "uint256"
        }
      ],
      "name": "ownerOf",
      "outputs": [
        {
          "internalType": "address",
          "name": "",
          "type": "address"
        }
      ],
      "stateMutability": "view",
      "type": "function"
    },
    {
      "inputs": [
        {
          "internalType": "string",
          "name": "apName",
          "type": "string"
        }
      ],
      "name": "removeAccessPoint",
      "outputs": [],
      "stateMutability": "nonpayable",
      "type": "function"
    },
    {
      "inputs": [
        {
          "internalType": "enum FleekAccessControl.Roles",
          "name": "role",
          "type": "uint8"
        },
        {
          "internalType": "address",
          "name": "account",
          "type": "address"
        }
      ],
      "name": "revokeCollectionRole",
      "outputs": [],
      "stateMutability": "nonpayable",
      "type": "function"
    },
    {
      "inputs": [
        {
          "internalType": "uint256",
          "name": "tokenId",
          "type": "uint256"
        },
        {
          "internalType": "enum FleekAccessControl.Roles",
          "name": "role",
          "type": "uint8"
        },
        {
          "internalType": "address",
          "name": "account",
          "type": "address"
        }
      ],
      "name": "revokeTokenRole",
      "outputs": [],
      "stateMutability": "nonpayable",
      "type": "function"
    },
    {
      "inputs": [
        {
          "internalType": "address",
          "name": "from",
          "type": "address"
        },
        {
          "internalType": "address",
          "name": "to",
          "type": "address"
        },
        {
          "internalType": "uint256",
          "name": "tokenId",
          "type": "uint256"
        }
      ],
      "name": "safeTransferFrom",
      "outputs": [],
      "stateMutability": "nonpayable",
      "type": "function"
    },
    {
      "inputs": [
        {
          "internalType": "address",
          "name": "from",
          "type": "address"
        },
        {
          "internalType": "address",
          "name": "to",
          "type": "address"
        },
        {
          "internalType": "uint256",
          "name": "tokenId",
          "type": "uint256"
        },
        {
          "internalType": "bytes",
          "name": "data",
          "type": "bytes"
        }
      ],
      "name": "safeTransferFrom",
      "outputs": [],
      "stateMutability": "nonpayable",
      "type": "function"
    },
    {
      "inputs": [
        {
          "internalType": "string",
          "name": "apName",
          "type": "string"
        },
        {
          "internalType": "bool",
          "name": "verified",
          "type": "bool"
        }
      ],
      "name": "setAccessPointContentVerify",
      "outputs": [],
      "stateMutability": "nonpayable",
      "type": "function"
    },
    {
      "inputs": [
        {
          "internalType": "string",
          "name": "apName",
          "type": "string"
        },
        {
          "internalType": "bool",
          "name": "verified",
          "type": "bool"
        }
      ],
      "name": "setAccessPointNameVerify",
      "outputs": [],
      "stateMutability": "nonpayable",
      "type": "function"
    },
    {
      "inputs": [
        {
          "internalType": "address",
          "name": "operator",
          "type": "address"
        },
        {
          "internalType": "bool",
          "name": "approved",
          "type": "bool"
        }
      ],
      "name": "setApprovalForAll",
      "outputs": [],
      "stateMutability": "nonpayable",
      "type": "function"
    },
    {
      "inputs": [
        {
          "internalType": "uint256",
          "name": "tokenId",
          "type": "uint256"
        },
        {
          "internalType": "string",
          "name": "_commitHash",
          "type": "string"
        },
        {
          "internalType": "string",
          "name": "_gitRepository",
          "type": "string"
        }
      ],
      "name": "setTokenBuild",
      "outputs": [],
      "stateMutability": "nonpayable",
      "type": "function"
    },
    {
      "inputs": [
        {
          "internalType": "uint256",
          "name": "tokenId",
          "type": "uint256"
        },
        {
          "internalType": "string",
          "name": "_tokenDescription",
          "type": "string"
        }
      ],
      "name": "setTokenDescription",
      "outputs": [],
      "stateMutability": "nonpayable",
      "type": "function"
    },
    {
      "inputs": [
        {
          "internalType": "uint256",
          "name": "tokenId",
          "type": "uint256"
        },
        {
          "internalType": "string",
          "name": "_tokenENS",
          "type": "string"
        }
      ],
      "name": "setTokenENS",
      "outputs": [],
      "stateMutability": "nonpayable",
      "type": "function"
    },
    {
      "inputs": [
        {
          "internalType": "uint256",
          "name": "tokenId",
          "type": "uint256"
        },
        {
          "internalType": "string",
          "name": "_tokenExternalURL",
          "type": "string"
        }
      ],
      "name": "setTokenExternalURL",
      "outputs": [],
      "stateMutability": "nonpayable",
      "type": "function"
    },
    {
      "inputs": [
        {
          "internalType": "uint256",
          "name": "tokenId",
          "type": "uint256"
        },
        {
          "internalType": "string",
          "name": "_tokenName",
          "type": "string"
        }
      ],
      "name": "setTokenName",
      "outputs": [],
      "stateMutability": "nonpayable",
      "type": "function"
    },
    {
      "inputs": [
        {
          "internalType": "bytes4",
          "name": "interfaceId",
          "type": "bytes4"
        }
      ],
      "name": "supportsInterface",
      "outputs": [
        {
          "internalType": "bool",
          "name": "",
          "type": "bool"
        }
      ],
      "stateMutability": "view",
      "type": "function"
    },
    {
      "inputs": [],
      "name": "symbol",
      "outputs": [
        {
          "internalType": "string",
          "name": "",
          "type": "string"
        }
      ],
      "stateMutability": "view",
      "type": "function"
    },
    {
      "inputs": [
        {
          "internalType": "uint256",
          "name": "tokenId",
          "type": "uint256"
        }
      ],
      "name": "tokenURI",
      "outputs": [
        {
          "internalType": "string",
          "name": "",
          "type": "string"
        }
      ],
      "stateMutability": "view",
      "type": "function"
    },
    {
      "inputs": [
        {
          "internalType": "address",
          "name": "from",
          "type": "address"
        },
        {
          "internalType": "address",
          "name": "to",
          "type": "address"
        },
        {
          "internalType": "uint256",
          "name": "tokenId",
          "type": "uint256"
        }
      ],
      "name": "transferFrom",
      "outputs": [],
      "stateMutability": "nonpayable",
      "type": "function"
    }
  ],
  "bytecode": {
    "object": "0x60406080815234620003e8576200457190813803806200001f81620003ed565b93843982018183820312620003e85782516001600160401b0390818111620003e857826200004f91860162000413565b9360209283820151838111620003e8576200006b920162000413565b93805191808311620003d2576000928354906001938483811c93168015620003c7575b87841014620003b3578190601f9384811162000360575b508790848311600114620002fc578792620002f0575b5050600019600383901b1c191690841b1784555b8651918211620002dc5782548381811c91168015620002d1575b86821014620002bd5781811162000275575b50849082116001146200021257839495968293949262000206575b5050600019600383901b1c191690821b1781555b60065482526007835283822082805283528382209033835281845284832054156200018a575b50507fcf081ed2b728e3115904be00eb8927b2375ff3401839b37f7accfa1bb2bee15c8351923384523393a3516140eb9081620004868239f35b8082019081549068010000000000000000821015620001f2578101808355811015620001de578184528484200180546001600160a01b03191633908117909155905490835290835283822055388062000150565b634e487b7160e01b84526032600452602484fd5b634e487b7160e01b85526041600452602485fd5b01519050388062000116565b82845284842090601f198316855b8181106200025f5750978385969798991062000245575b505050811b0181556200012a565b015160001960f88460031b161c1916905538808062000237565b8983015184559285019291870191870162000220565b8385528585208280850160051c820192888610620002b3575b0160051c019084905b828110620002a7575050620000fb565b86815501849062000297565b925081926200028e565b634e487b7160e01b85526022600452602485fd5b90607f1690620000e9565b634e487b7160e01b84526041600452602484fd5b015190503880620000bb565b8780528888208794509190601f198416895b8b8282106200034957505084116200032f575b505050811b018455620000cf565b015160001960f88460031b161c1916905538808062000321565b8385015186558a979095019493840193016200030e565b9091508680528787208480850160051c8201928a8610620003a9575b918891869594930160051c01915b8281106200039a575050620000a5565b8981558594508891016200038a565b925081926200037c565b634e487b7160e01b86526022600452602486fd5b92607f16926200008e565b634e487b7160e01b600052604160045260246000fd5b600080fd5b6040519190601f01601f191682016001600160401b03811183821017620003d257604052565b919080601f84011215620003e85782516001600160401b038111620003d25760209062000449601f8201601f19168301620003ed565b92818452828287010111620003e85760005b8181106200047157508260009394955001015290565b85810183015184820184015282016200045b56fe6040608081526004908136101561001557600080fd5b600091823560e01c90816301468deb14612c1d57816301ffc9a714612baf57816306fdde0314612b07578163081812fc14612ae7578163095ea7b31461297957816323b872dd1461294f578163246a908b1461290757816327dc5cec146127095781632d957aad1461264b5781632f1e8f0a146125b2578163353b07a4146125205781633806f152146123f557816342842e0e146123cc57816342966c681461220c57816342e44bbf146121695781636352211e1461213857816370a08231146120a25781637469a03b14611e1a57816378278cca14611dd25781638c3c0a4414611cfc57816394ec65c514611c4157816395d89b4114611b5e578163a22cb46514611a89578163a27d0b27146119d4578163a397c8301461187d578163aba8112514611586578163b20b94f114611461578163b30437a014611245578163b42dbe381461120e578163b88d4fde146111a7578163c87b56dd14610567578163cdb0e89e146104bc578163d7a75be114610416578163e9447250146103d2578163e985e9c514610384578163f6be6b781461026a575063f9315177146101ba57600080fd5b346102665760029061021f6101ce36612e8a565b938491936101dc3386613093565b8015610251575b6101ec90612fc8565b60008581526002602052604090205461020f906001600160a01b03161515613782565b848752600b602052862001613402565b6102293392613553565b907fedbf1209b3baa7c1b5c43052ce5c511e243b3241d9f67733141d14f1da88cba18480a480f35b506101ec61025f3387613053565b90506101e3565b5080fd5b8391503461026657602090816003193601126103805780356000818152600260205260409020546102a5906001600160a01b03161515613782565b8352600b8252600684842001918254916001600160401b03831161036d575092908451906102d8858260051b0183612df9565b8082528482018094845285842084915b83831061034957505050508451938085019181865251809252858501958260051b8601019392955b82871061031d5785850386f35b909192938280610339600193603f198a82030186528851612d53565b9601920196019592919092610310565b600188819261035b859b98999b6135e4565b815201920192019190969493966102e8565b634e487b7160e01b855260419052602484fd5b8280fd5b50503461026657806003193601126102665760ff816020936103a4612ccc565b6103ac612ce7565b6001600160a01b0391821683526005875283832091168252855220549151911615158152f35b50503461026657806020926103fc6103e936612eb9565b9190600654845260078752848420613025565b6001600160a01b0390911682528452205490519015158152f35b8284346104b95760203660031901126104b9578235906001600160401b0382116104b9575060036104a06020610452819660ff95369101612e6c565b855190610490815192868584019461046b818488612d30565b600c9083019081528290038601909120015460101c6001600160a01b03161515613598565b8651938492839251928391612d30565b8101600c815203019020015460081c1690519015158152f35b80fd5b50503461026657610520906104d036612e8a565b809391926104de3385613093565b8015610552575b6104ee90612fc8565b600084815260026020526040902054610511906001600160a01b03161515613782565b838652600b6020528520613402565b61052a3392613553565b907ffbbfca16a2770c7ca6e7063ab1a7eea5fe441ffef818325db51752066a6b128a8480a480f35b506104ee6105603386613053565b90506104e5565b9190503461038057602091826003193601126111a35780356000818152600260205260409020548492906001600160a01b031615156105a590613782565b6105ae826137ce565b918652600b83528386208451926105c484612dad565b601d84527f646174613a6170706c69636174696f6e2f6a736f6e3b6261736536342c000000858501818152989091610604906001600160a01b0316613f96565b60038401610611856135e4565b61061a826135e4565b8a517f3c73766720786d6c6e733d22687474703a2f2f7777772e77332e6f72672f3230818c01527f30302f7376672220786d6c6e733a786c696e6b3d22687474703a2f2f7777772e818d01527f77332e6f72672f313939392f786c696e6b222076657273696f6e3d22312e312260608201527f2077696474683d2236343022206865696768743d22343830222076696577426f60808201527f783d2230203020363430203438302220786d6c3a73706163653d22707265736560a082015264393b32911f60d91b60c0820152651e3232b3399f60d11b60c5820152661e17b232b3399f60c91b60cb8201527f3c67207472616e73666f726d3d226d617472697828332e34322030203020332e60d2820152741a1910199818171c9c10191a99171c9c149110101f60591b60f28201527f3c706f6c79676f6e207374796c653d227374726f6b653a2072676228302c302c6101078201527f30293b207374726f6b652d77696474683a20383b207374726f6b652d646173686101278201527f61727261793a206e6f6e653b207374726f6b652d6c696e656361703a206275746101478201527f743b207374726f6b652d646173686f66667365743a20303b207374726f6b652d6101678201527f6c696e656a6f696e3a206d697465723b207374726f6b652d6d697465726c696d6101878201527f69743a20343b2066696c6c3a20726762283135322c3135322c313833293b20666101a78201527f696c6c2d72756c653a206e6f6e7a65726f3b206f7061636974793a20313b22206101c78201527f766563746f722d6566666563743d226e6f6e2d7363616c696e672d7374726f6b6101e78201527f65222020706f696e74733d222d35302c2d3530202d35302c35302035302c35306102078201526b101a9816169a98101110179f60a11b610227820152631e17b39f60e11b61023382018190527f3c67207472616e73666f726d3d226d61747269782831203020302031203330336102378301527f2e35203131352e36372922207374796c653d222220203e0000000000000000006102578301527f3c7465787420786d6c3a73706163653d2270726573657276652220666f6e742d61026e83018190527f66616d696c793d224f70656e2053616e732220666f6e742d73697a653d22323461028e8401527f2220666f6e742d7374796c653d226e6f726d616c2220666f6e742d77656967686102ae84018190527f743d226e6f726d616c22207374796c653d227374726f6b653a206e6f6e653b206102ce85018190527f7374726f6b652d77696474683a20313b207374726f6b652d64617368617272616102ee86018190527f793a206e6f6e653b207374726f6b652d6c696e656361703a20627574743b207361030e87018190527f74726f6b652d646173686f66667365743a20303b207374726f6b652d6c696e6561032e88018190527f6a6f696e3a206d697465723b207374726f6b652d6d697465726c696d69743a2061034e89018190527f343b2066696c6c3a2072676228302c302c30293b2066696c6c2d72756c653a2061036e8a018190527f6e6f6e7a65726f3b206f7061636974793a20313b2077686974652d737061636561038e8b018190527f3a207072653b22203e3c747370616e20783d222d34352e372220793d22352e366103ae8c01527f3522207374796c653d227374726f6b652d77696474683a20313b20666f6e742d6103ce8c01527f66616d696c793a20224f70656e2053616e73222c2073616e732d73657269663b6103ee8c01527f20666f6e742d73697a653a20313870783b20666f6e742d7374796c653a206e6f61040e8c01527f726d616c3b20666f6e742d7765696768743a206e6f726d616c3b2066696c6c3a61042e8c01527f2072676228302c302c30293b20223e466c65656b204e4641733c2f747370616e61044e8c0152671f1e17ba32bc3a1f60c11b61046e8c01526104768b018a90527f3c67207472616e73666f726d3d226d617472697828312030203020312033303261047a8c01527410191b18971a1b94911039ba3cb6329e911110101f60591b61049a8c01526104af8b01989098527f66616d696c793d224f70656e2053616e732220666f6e742d73697a653d2232386104cf8b01526104ef8a019690965261050f89019490945261052f88019290925261054f87015261056f86015261058f8501526105af8401526105cf8301527f3a207072653b22203e3c747370616e20783d222d34342e32362220793d222d366105ef8301527f2e313422207374796c653d227374726f6b652d77696474683a20313b20666f6e61060f8301527f742d66616d696c793a20224f70656e2053616e73222c2073616e732d7365726961062f8301527f663b20666f6e742d73697a653a20313870783b20666f6e742d7374796c653a2061064f8301527f6e6f726d616c3b20666f6e742d7765696768743a206e6f726d616c3b2066696c61066f83015270361d103933b1141816181618149d90111f60791b61068f8301528351919384938d9390916106a09190610d65908290848901908801612d30565b7f3c2f747370616e3e3c747370616e20783d222d33372e31342220793d2231372e908601918201527f343522207374796c653d227374726f6b652d77696474683a20313b20666f6e746106c08201527f2d66616d696c793a20224f70656e2053616e73222c2073616e732d73657269666106e08201527f3b20666f6e742d73697a653a20313870783b20666f6e742d7374796c653a206e6107008201527f6f726d616c3b20666f6e742d7765696768743a206e6f726d616c3b2066696c6c6107208201526f1d103933b1141816181618149d90111f60811b6107408201528151610750949092610e5b9184918785019101612d30565b019182016e1e17ba39b830b71f1e17ba32bc3a1f60891b905261075f8201526107638101651e17b9bb339f60d11b9052036107498101825261076901610ea19082612df9565b610eaa90613cfd565b95895180978a8201968752805190818c603d8501920191610eca92612d30565b810103601d81018852603d01610ee09088612df9565b8501549182845260058601895289808520942060010192610f0090613e53565b8a51607b60f81b8b82015267113730b6b2911d1160c11b60218201529788979196918b610f3060298b01836136ba565b61088b60f21b8082526e113232b9b1b934b83a34b7b7111d1160891b60028301529590610f6390601101600185016136ba565b868152681137bbb732b9111d1160b91b60028201528151929091610f8e918491600b85019101612d30565b0184600b8201526f1132bc3a32b93730b62fbab936111d1160811b600d820152601d019060020190610fbf916136ba565b90838252681134b6b0b3b2911d1160b91b6002830152519182600b8301610fe592612d30565b0190600b8201526e2261747472696275746573223a205b60881b600d820152601c81017f7b2274726169745f74797065223a2022454e53222c202276616c7565223a22009052603b01611037916136ba565b62089f4b60ea1b8082527f7b2274726169745f74797065223a2022436f6d6d69742048617368222c20227660038301526630b63ab2911d1160c91b60238301529261108591602a01906136ba565b828152600381017f7b2274726169745f74797065223a20225265706f7369746f7279222c20227661905265363ab2911d1160d11b60238201526029016110ca916136ba565b9081527f7b2274726169745f74797065223a202256657273696f6e222c202276616c7565600382015262111d1160e91b602382015281519161111490839060268401908901612d30565b0161227d60f01b602682015260288101605d60f81b905260298101607d60f81b905203600a81018252602a0161114a9082612df9565b61115390613cfd565b835195869251908185850161116792612d30565b8201815191828580840192019161117d92612d30565b01038085520161118d9084612df9565b51918183928352820161119f91612d53565b0390f35b8380fd5b839034610266576080366003190112610266576111c2612ccc565b6111ca612ce7565b906064356001600160401b03811161120a573660238201121561120a57611207938160246111fd93369301359101612e35565b9160443591613891565b80f35b8480fd5b50503461026657806020926103fc61122536612cfd565b929184526008875284842054600988528585209085528752848420613025565b91905061125136612e8a565b6000828152600260205260409020549093919290611279906001600160a01b03161515613782565b80518451602091600383880192611291818486612d30565b600c9083019081528290038401909120015460101c6001600160a01b031661141f57848752600b8252600683882001549083519160c083018381106001600160401b0382111761140c57946113748a61135d6003600b978599978e978e60069d8952835289830190815261132c8a89850193888552606086019b898d5260808701998a5260a087019b338d5251938492839251928391612d30565b8101600c815203019020925183555160018301555160028201550194511515859060ff801983541691151516179055565b51835461ff00191690151560081b61ff0016178355565b51815462010000600160b01b03191660109190911b62010000600160b01b031617905585885252852001805491600160401b8310156113f957506113c282859260016113c8950181556131f7565b90613573565b6113d23392613553565b7f8140554c907b4ba66a04ea1f43b882cba992d3db4cd5c49298a56402d7b36ca28480a480f35b634e487b7160e01b865260419052602485fd5b634e487b7160e01b8a526041875260248afd5b50905162461bcd60e51b815291820152601e60248201527f466c65656b4552433732313a20415020616c72656164792065786973747300006044820152606490fd5b5050346102665761147136612f2c565b917fe2e598f7ff2dfd4bc3bd989635401b4c56846b7893cb7eace51d099f21e69bff6114db6115666115558451865160209485926003848b01936114b6818487612d30565b600c9083019081528290038501909120015460101c6001600160a01b03161515613598565b611512875183818b516114ef818388612d30565b8101600c815203019020546115043382613093565b908115611574575b50612fc8565b611545896003895185818d5161152981838a612d30565b8101600c815203019020019060ff801983541691151516179055565b8651809381928a51928391612d30565b8101600c8152030190205494613553565b92519384523394151593a480f35b61158091503390613053565b3861150c565b90508260e03660031901126104b95761159d612ccc565b926001600160401b0391602435838111610266576115be9036908601612e6c565b604435848111610380576115d59036908701612e6c565b946064358581116111a3576115ed9036908301612e6c565b9460843581811161120a576116059036908401612e6c565b9660a4358281116118795761161d9036908501612e6c565b9060c435838111611875576116359036908601612e6c565b600654998a885260209a60078c528989208980528c52898920338a528c528989205415801590611850575b61166a9150612f66565b600a54996001600160a01b038d1693841561180f578b8d9e6116a4829f9d9e600052600260205260018060a01b0360406000205416151590565b156116ae9061399a565b6116b791613199565b60008d8152600260205260409020546116d9906001600160a01b03161561399a565b848a5260038b528c8c8b209560019c878e809954019055828d52600290528d8c20816bffffffffffffffffffffffff60a01b8254161790558b7fddf252ad1be2c89b69c2b068fc378daa952ba7f163c4a11628f55a4df523b3ef8180a48d85600a5401600a55600b90528b8a2098611751908a613402565b61175d90898601613402565b61176a9060028901613402565b6117779060038801613402565b868587015588519261178884612dad565b83528a8301908152868052600586018b5288872092516117a89084613402565b519101906117b591613402565b8551918883019182118383101761036d575060069291849187525201918254828455806117e6575b50505251908152f35b838352868320908101905b8181106117fe57506117dd565b806118098492613506565b016117f1565b6064888e808e519262461bcd60e51b845283015260248201527f4552433732313a206d696e7420746f20746865207a65726f20616464726573736044820152fd5b50885260078b528888208880528b528888203389528b5261166a898920541515611660565b8680fd5b8580fd5b90503461038057602091826003193601126111a35781356001600160401b03811161120a576118af9036908401612e6c565b928151926118ca8551946003848801966114b681848a612d30565b60028351838188516118dd81838b612d30565b8101600c81520301902001541561199357507f3ea1c0fcf71b86fca8f96ccac3cf26fba8983d3bbbe7bd720f1865d67fbaee4390600283518281885161192481838b612d30565b8101600c8152030190200161193981546136ad565b905561198860026119768361195a81898b8a51938492839251928391612d30565b8101600c81520301902054978751809381928c51928391612d30565b8101600c815203019020015495613553565b92519485523394a480f35b915162461bcd60e51b815291820181905260248201527f466c65656b4552433732313a2073636f72652063616e74206265206c6f7765726044820152606490fd5b905034610380576119e436612cfd565b9390926119f13384613053565b8015611a74575b611a0190612fc8565b8286526008602052818620546009602052828720908752602052611a3085611a2b86858a20613025565b613225565b6002841015611a615750513381526001600160a01b039093169260008051602061409683398151915290602090a480f35b634e487b7160e01b865260219052602485fd5b50611a01611a823385613053565b90506119f8565b91905034610380578060031936011261038057611aa4612ccc565b9060243580151592838203611879576001600160a01b031693338514611b1b5750611aee9033865260056020528286208587526020528286209060ff801983541691151516179055565b519081527f17307eab39ab6107e8899845ad3d59bd9653f200f220920489ca2b5937696c3160203392a380f35b606490602084519162461bcd60e51b8352820152601960248201527f4552433732313a20617070726f766520746f2063616c6c6572000000000000006044820152fd5b505034610266578160031936011261026657805190826001805491611b82836133b1565b80865292828116908115611c195750600114611bbd575b505050611bab8261119f940383612df9565b51918291602083526020830190612d53565b94508085527fb10e2d527612073b26eecdfd717e6a320cf44b4afac2b0732d9fcbe2b7fa0cf65b828610611c0157505050611bab82602061119f9582010194611b99565b80546020878701810191909152909501948101611be4565b61119f975086935060209250611bab94915060ff191682840152151560051b82010194611b99565b90503461038057602090816003193601126111a3578035906001600160401b03821161120a57611c7391369101612e6c565b917f3ea1c0fcf71b86fca8f96ccac3cf26fba8983d3bbbe7bd720f1865d67fbaee43815192611cd4855194600383880196611caf81848a612d30565b600c9083019081528290038401909120015460101c6001600160a01b03161515613598565b6002835182818851611ce781838b612d30565b8101600c815203019020016119398154613688565b83833461026657611d0c36612eb9565b916006549081855260209160078352818620868052835281862033875283528186205415801590611daf575b611d4190612f66565b855260078252611d5c84611d5785848920613025565b6132c6565b6002831015611d9c57513381526001600160a01b03909316927faeff57f0f5e4d3d10a37d4a70fde8ed67a95e67b251d5c512c0ea98c380d2f959190a380f35b634e487b7160e01b855260218652602485fd5b508086526007835281862086805283528186203387528352818620541515611d38565b50503461026657600390611de86101ce36612e8a565b611df23392613553565b907f91ce7fcd4462481791c3fe849f7049373c5b43ef44aed48e7f1ecce781586e158480a480f35b905034610380576020806003193601126111a35781356001600160401b03811161120a57611e4b9036908401612e6c565b92805184519183860192611e60818486612d30565b600c9083018181528390038501909220600301546001600160a01b0390611e8d9060101c82161515613598565b6003825186818a51611ea081838b612d30565b810187815203019020015460101c16330361206057805184818851611ec6818389612d30565b8101858152030190205494858852600b855281882060066001845188818c51611ef081838d612d30565b81018981520301902001549101805490916000199182810190811161204d57611f4889611f28611f22600194886131f7565b506135e4565b611f36816113c2878a6131f7565b81895193828580945193849201612d30565b81018a81520301902001558154801561203a570191611f6783836131f7565b91909161202857509260039592611fa095928b86611f87829b98546133b1565b80611feb575b5050505551809481938a51928391612d30565b8201908152030190208281558260018201558260028201550155611fc43392613553565b7fef2f6bed86b96d79b41799f5285f73b31274bb303ebe5d55a3cb48c567ab2db08480a480f35b601f81116001146120015750555b883880611f8d565b81835288832061201c91601f0160051c8101906001016133eb565b81888120915555611ff9565b634e487b7160e01b8b528a905260248afd5b634e487b7160e01b8b526031845260248bfd5b634e487b7160e01b8c526011855260248cfd5b5162461bcd60e51b8152808501849052601d60248201527f466c65656b4552433732313a206d757374206265204150206f776e65720000006044820152606490fd5b83915034610266576020366003190112610266576001600160a01b036120c6612ccc565b169081156120e35760208480858581526003845220549051908152f35b608490602085519162461bcd60e51b8352820152602960248201527f4552433732313a2061646472657373207a65726f206973206e6f7420612076616044820152683634b21037bbb732b960b91b6064820152fd5b8284346104b95760203660031901126104b95750612158602092356137ce565b90516001600160a01b039091168152f35b5050346102665761217936612f2c565b917f17bd9b465aa0cdc6b308874903e9c38b13f561ecb1f2edaa8bf3969fe603d11c6121be6115666115558451865160209485926003848b01936114b6818487612d30565b6121d2875183818b516114ef818388612d30565b611545896003895185818d516121e981838a612d30565b8101600c815203019020019061ff00825491151560081b169061ff001916179055565b9190503461038057602090816003193601126111a35782359061222f3383613053565b80156123b7575b61223f90612fc8565b81856001600160a01b0380612253846137ce565b16158015806123b0575b15612383575061227d836000526008602052604060002060018154019055565b612286836130d4565b61228f836137ce565b83835287875284832080546001600160a01b031990811690915591168083526003875284832080546000190190558383526002875284832080549092169091557fddf252ad1be2c89b69c2b068fc378daa952ba7f163c4a11628f55a4df523b3ef8280a4600b8352612306600282872001546133b1565b61230e578480f35b6006918552600b8352842061232281613506565b84600194612331868401613506565b61233d60028401613506565b61234960038401613506565b82015501908154918481558261235d578480f35b84528320908101905b81811061237257808480f35b8061237d8492613506565b01612366565b1561239657612391836130d4565b612286565b612391836000526008602052604060002060018154019055565b508261225d565b5061223f6123c53384613053565b9050612236565b50503461026657611207906123e036612d78565b919251926123ed84612dde565b858452613891565b9190503461038057606036600319011261038057813590602435926001600160401b03938481116118795761242d9036908301612e6c565b93604435908111611879576124d9926124d161244e60019336908601612e6c565b916124593388613093565b801561250b575b61246990612fc8565b60008781526002602052604090205461248c906001600160a01b03161515613782565b80519461249886612dad565b88865260208601938452878a52600b6020526005828b200190828b20016124bf8154613688565b8091558a526020528820935184613402565b519101613402565b6124e33392613553565b907f73b929bf4db6be678cdbc6d41a5fe0a2cbb84ca95572062c4a978d8bd80a41b18480a480f35b506124696125193389613053565b9050612460565b9190503461038057602091826003193601126111a3573560028110156111a3579261255b936006548252600784526001948591848420613025565b019382518094808754928381520196845280842093905b8282106125945761119f878761258a828c0383612df9565b5191829182612ee8565b84546001600160a01b03168852968701969383019390830190612572565b919050346103805780600319360112610380576024359160028310156111a357926125fe9335815260209260088452828220546009855283832090835284526001948591848420613025565b019382518094808754928381520196845280842093905b82821061262d5761119f878761258a828c0383612df9565b84546001600160a01b03168852968701969383019390830190612615565b8383346102665761265b36612eb9565b9160065490818552602091600783528186208680528352818620338752835281862054158015906126e6575b61269090612f66565b8552600782526126a684611a2b85848920613025565b6002831015611d9c57513381526001600160a01b03909316927fcf081ed2b728e3115904be00eb8927b2375ff3401839b37f7accfa1bb2bee15c9190a380f35b508086526007835281862086805283528186203387528352818620541515612687565b8391503461026657602091826003193601126104b9578135906001600160401b0382116104b9575061119f9161274191369101612e6c565b926128f860636127888584519780519061049083820192612763818d86612d30565b8b01600c815260038c8660018060a01b039e8f9403019020015460101c161515613598565b8101600c81520301902061279c8154613e53565b9060036127ac6002830154613e53565b910154906127d96127c260ff8460081c1661373c565b996127cf60ff851661373c565b9360101c16613f96565b918651998a94607b60f81b8b87015269113a37b5b2b724b2111d60b11b602187015261280e815180928d602b8a019101612d30565b850192600b60fa1b9384602b820152671139b1b7b932911d60c11b602c8201526128428c8351938491603485019101612d30565b018360348201526e113730b6b2ab32b934b334b2b2111d60891b6035820152612874825180938d604485019101612d30565b01826044820152711131b7b73a32b73a2b32b934b334b2b2111d60711b60458201526128a9825180938c605785019101612d30565b01906057820152681137bbb732b9111d1160b91b60588201526128d5825180938a606185019101612d30565b01601160f91b6061820152607d60f81b6062820152036043810187520185612df9565b51928284938452830190612d53565b5050346102665760019061291d6101ce36612e8a565b6129273392613553565b907fd771eaa1c1382b0a9867125fcd921fdeddd211538b5381353a877abfbe3b50a48480a480f35b83346104b95761120761296136612d78565b9161297461296f843361392c565b61382f565b613a40565b905034610380578160031936011261038057612993612ccc565b6024359290916001600160a01b03919082806129ae876137ce565b16941693808514612a9a57803314908115612a7b575b5015612a1357848652602052842080546001600160a01b031916831790556129eb836137ce565b167f8c5be1e5ebec7d5bd14f71427d1e84f3dd0314c0f7b2291e5b200ac8c7c3b9258480a480f35b6020608492519162461bcd60e51b8352820152603d60248201527f4552433732313a20617070726f76652063616c6c6572206973206e6f7420746f60448201527f6b656e206f776e6572206f7220617070726f76656420666f7220616c6c0000006064820152fd5b90508652600560205281862033875260205260ff8287205416386129c4565b506020608492519162461bcd60e51b8352820152602160248201527f4552433732313a20617070726f76616c20746f2063757272656e74206f776e656044820152603960f91b6064820152fd5b8284346104b95760203660031901126104b95750612158602092356137f1565b505034610266578160031936011261026657805190828054612b28816133b1565b80855291600191808316908115611c195750600114612b5357505050611bab8261119f940383612df9565b80809650527f290decd9548b62a8d60345a988386fc84ba6bc95484008f6362f93160ef3e5635b828610612b9757505050611bab82602061119f9582010194611b99565b80546020878701810191909152909501948101612b7a565b90503461038057602036600319011261038057359063ffffffff60e01b821680920361038057602092506380ac58cd60e01b8214918215612c0c575b8215612bfb575b50519015158152f35b6301ffc9a760e01b14915038612bf2565b635b5e139f60e01b81149250612beb565b90503461038057612c2d36612cfd565b939092612c3a3384613053565b8015612cb7575b612c4a90612fc8565b8286526008602052818620546009602052828720908752602052612c7485611d5786858a20613025565b6002841015611a615750513381526001600160a01b03909316927fe52d746e4c78c98c6bfa291b273406905c3e8550b7d911a6bea686368c2dc79d90602090a480f35b50612c4a612cc53385613053565b9050612c41565b600435906001600160a01b0382168203612ce257565b600080fd5b602435906001600160a01b0382168203612ce257565b6060906003190112612ce257600435906024356002811015612ce257906044356001600160a01b0381168103612ce25790565b60005b838110612d435750506000910152565b8181015183820152602001612d33565b90602091612d6c81518092818552858086019101612d30565b601f01601f1916010190565b6060906003190112612ce2576001600160a01b03906004358281168103612ce257916024359081168103612ce2579060443590565b604081019081106001600160401b03821117612dc857604052565b634e487b7160e01b600052604160045260246000fd5b602081019081106001600160401b03821117612dc857604052565b90601f801991011681019081106001600160401b03821117612dc857604052565b6001600160401b038111612dc857601f01601f191660200190565b929192612e4182612e1a565b91612e4f6040519384612df9565b829481845281830111612ce2578281602093846000960137010152565b9080601f83011215612ce257816020612e8793359101612e35565b90565b906040600319830112612ce25760043591602435906001600160401b038211612ce257612e8791600401612e6c565b6040906003190112612ce2576004356002811015612ce257906024356001600160a01b0381168103612ce25790565b6020908160408183019282815285518094520193019160005b828110612f0f575050505090565b83516001600160a01b031685529381019392810192600101612f01565b6040600319820112612ce257600435906001600160401b038211612ce257612f5691600401612e6c565b906024358015158103612ce25790565b15612f6d57565b60405162461bcd60e51b815260206004820152602d60248201527f466c65656b416363657373436f6e74726f6c3a206d757374206861766520636f60448201526c6c6c656374696f6e20726f6c6560981b6064820152608490fd5b15612fcf57565b60405162461bcd60e51b815260206004820152602860248201527f466c65656b416363657373436f6e74726f6c3a206d757374206861766520746f6044820152676b656e20726f6c6560c01b6064820152608490fd5b90600281101561303d57600052602052604060002090565b634e487b7160e01b600052602160045260246000fd5b60009081526008602090815260408083205460098352818420908452825280832083805282528083206001600160a01b0390941683529290522054151590565b6000908152600860209081526040808320546009835281842090845282528083206001845282528083206001600160a01b0390941683529290522054151590565b6000818192825260206008815260408084205460098352818520908552825280842084805282528084208083528185205415613124575b50906000805160206140968339815191529151338152a4565b9091929350600181018054600160401b811015613185579160008051602061409683398151915293916131608460018a999896018355826131f7565b81549060018060a01b039060031b1b191690555490868052835281862055909161310b565b634e487b7160e01b87526041600452602487fd5b60009080825260086020526040822054600960205260408320908352602052604082208280526020526131cf8360408420613225565b6040513381526001600160a01b039093169260008051602061409683398151915290602090a4565b805482101561320f5760005260206000200190600090565b634e487b7160e01b600052603260045260246000fd5b6001600160a01b0382166000818152602083905260408120549394939192909115613252575b5050509050565b600181018054600160401b8110156132b257604094959661327c8260016132a094018555846131f7565b90919082549060031b9160018060a01b039283811b93849216901b16911916179055565b5493825260205220558038808061324b565b634e487b7160e01b84526041600452602484fd5b6001600160a01b039182166000818152602083905260408120549093906132ee575b50505050565b60408420546000198082019180831161339d57600186019283548381019081116133895761327c918661332461333593886131f7565b90549060031b1c16928391876131f7565b87528560205260408720558154801561337557019161335483836131f7565b909182549160031b1b191690555582526020526040812055388080806132e8565b634e487b7160e01b87526031600452602487fd5b634e487b7160e01b89526011600452602489fd5b634e487b7160e01b87526011600452602487fd5b90600182811c921680156133e1575b60208310146133cb57565b634e487b7160e01b600052602260045260246000fd5b91607f16916133c0565b8181106133f6575050565b600081556001016133eb565b91909182516001600160401b038111612dc85761341f82546133b1565b601f81116134c9575b50602080601f831160011461346557508192939460009261345a575b50508160011b916000199060031b1c1916179055565b015190503880613444565b90601f198316958460005282600020926000905b8882106134b157505083600195969710613498575b505050811b019055565b015160001960f88460031b161c1916905538808061348e565b80600185968294968601518155019501930190613479565b6134f690836000526020600020601f840160051c810191602085106134fc575b601f0160051c01906133eb565b38613428565b90915081906134e9565b61351081546133b1565b908161351a575050565b81601f6000931160011461352d5750555b565b8183526020832061354991601f0160051c8101906001016133eb565b8160208120915555565b61356b90602060405192828480945193849201612d30565b810103902090565b91906135825761352b91613402565b634e487b7160e01b600052600060045260246000fd5b1561359f57565b60405162461bcd60e51b815260206004820152601760248201527f466c65656b4552433732313a20696e76616c69642041500000000000000000006044820152606490fd5b90604051918260008254926135f8846133b1565b9081845260019485811690816000146136655750600114613622575b505061352b92500383612df9565b9093915060005260209081600020936000915b81831061364d57505061352b93508201013880613614565b85548884018501529485019487945091830191613635565b91505061352b94506020925060ff191682840152151560051b8201013880613614565b60001981146136975760010190565b634e487b7160e01b600052601160045260246000fd5b8015613697576000190190565b6000929181546136c9816133b1565b9260019180831690811561372157506001146136e55750505050565b90919293945060005260209081600020906000915b85831061371057505050500190388080806132e8565b8054858401529183019181016136fa565b60ff19168452505050811515909102019150388080806132e8565b156137615760405161374d81612dad565b60048152637472756560e01b602082015290565b60405161376d81612dad565b600581526466616c736560d81b602082015290565b1561378957565b60405162461bcd60e51b815260206004820152601860248201527f4552433732313a20696e76616c696420746f6b656e20494400000000000000006044820152606490fd5b6000908152600260205260409020546001600160a01b0316612e87811515613782565b600081815260026020526040902054613814906001600160a01b03161515613782565b6000908152600460205260409020546001600160a01b031690565b1561383657565b60405162461bcd60e51b815260206004820152602d60248201527f4552433732313a2063616c6c6572206973206e6f7420746f6b656e206f776e6560448201526c1c881bdc88185c1c1c9bdd9959609a1b6064820152608490fd5b906138b59392916138a561296f843361392c565b6138b0838383613a40565b613baa565b156138bc57565b60405162461bcd60e51b8152806138d5600482016138d9565b0390fd5b60809060208152603260208201527f4552433732313a207472616e7366657220746f206e6f6e20455243373231526560408201527131b2b4bb32b91034b6b83632b6b2b73a32b960711b60608201520190565b906001600160a01b038080613940846137ce565b16931691838314938415613973575b50831561395d575b50505090565b613969919293506137f1565b1614388080613957565b909350600052600560205260406000208260005260205260ff60406000205416923861394f565b156139a157565b60405162461bcd60e51b815260206004820152601c60248201527f4552433732313a20746f6b656e20616c7265616479206d696e746564000000006044820152606490fd5b156139ed57565b60405162461bcd60e51b815260206004820152602560248201527f4552433732313a207472616e736665722066726f6d20696e636f72726563742060448201526437bbb732b960d91b6064820152608490fd5b613a49836137ce565b6001600160a01b039182169190613a6390821683146139e6565b808316928315613b5957613ab79183918215801580613b51575b15613b375750613aa790613aa1886000526008602052604060002060018154019055565b87613199565b613ab0866137ce565b16146139e6565b7fddf252ad1be2c89b69c2b068fc378daa952ba7f163c4a11628f55a4df523b3ef60008481526004602052604081206bffffffffffffffffffffffff60a01b9081815416905583825260036020526040822060001981540190558482526040822060018154019055858252600260205284604083209182541617905580a4565b15613b4b57613b469087613199565b613aa7565b50613aa7565b506001613a7d565b60405162461bcd60e51b8152602060048201526024808201527f4552433732313a207472616e7366657220746f20746865207a65726f206164646044820152637265737360e01b6064820152608490fd5b9293600093909291803b15613cc057948491613c049660405180948193630a85bd0160e11b9788845233600485015260018060a01b0380921660248501526044840152608060648401528260209b8c976084830190612d53565b0393165af1849181613c80575b50613c6f575050503d600014613c67573d613c2b81612e1a565b90613c396040519283612df9565b81528091833d92013e5b80519182613c645760405162461bcd60e51b8152806138d5600482016138d9565b01fd5b506060613c43565b6001600160e01b0319161492509050565b9091508581813d8311613cb9575b613c988183612df9565b8101031261120a57516001600160e01b03198116810361120a579038613c11565b503d613c8e565b505050915050600190565b90613cd582612e1a565b613ce26040519182612df9565b8281528092613cf3601f1991612e1a565b0190602036910137565b805115613e3f57604051606081018181106001600160401b03821117612dc857604052604081527f4142434445464748494a4b4c4d4e4f505152535455565758595a61626364656660208201527f6768696a6b6c6d6e6f707172737475767778797a303132333435363738392b2f60408201528151600292838201809211613697576003918290046001600160fe1b038116810361369757613da2908594951b613ccb565b936020850193829183518401925b838110613dee5750505050510680600114613ddb57600214613dd0575090565b603d90600019015390565b50603d9081600019820153600119015390565b85600491979293949701918251600190603f9082828260121c16880101518453828282600c1c16880101518385015382828260061c1688010151888501531685010151878201530195929190613db0565b50604051613e4c81612dde565b6000815290565b806000917a184f03e93ff9f4daa797ed6e38ed64bf6a1f01000000000000000080821015613f88575b506d04ee2d6d415b85acef810000000080831015613f79575b50662386f26fc1000080831015613f6a575b506305f5e10080831015613f5b575b5061271080831015613f4c575b506064821015613f3c575b600a80921015613f32575b600190816021613eea828701613ccb565b95860101905b613efc575b5050505090565b600019019083906f181899199a1a9b1b9c1cb0b131b232b360811b8282061a835304918215613f2d57919082613ef0565b613ef5565b9160010191613ed9565b9190606460029104910191613ece565b60049193920491019138613ec3565b60089193920491019138613eb6565b60109193920491019138613ea7565b60209193920491019138613e95565b604093508104915038613e7c565b60405190606082018281106001600160401b03821117612dc857604052602a8252602090818301604036823783511561320f5760309053825160019081101561320f57607860218501536029905b808211614038575050613ff5575090565b6064906040519062461bcd60e51b825280600483015260248201527f537472696e67733a20686578206c656e67746820696e73756666696369656e746044820152fd5b9091600f81169060108210156140805785518410156140805761407a916f181899199a1a9b1b9c1cb0b131b232b360811b901a86850186015360041c926136ad565b90613fe4565b60246000634e487b7160e01b81526032600452fdfe0bf5a13b362503fcc74b8b9b1598aba2f3a9af85d05ba7978f7e9f447f22c239a2646970667358221220d5d11a598b138f312871b4337fca87fd32d2738bed6cc177ca4033a4d7cc690a64736f6c63430008110033",
    "linkReferences": {}
  },
  "methodIdentifiers": {
    "addAccessPoint(uint256,string)": "b30437a0",
    "appAccessPoints(uint256)": "f6be6b78",
    "approve(address,uint256)": "095ea7b3",
    "balanceOf(address)": "70a08231",
    "burn(uint256)": "42966c68",
    "decreaseAccessPointScore(string)": "a397c830",
    "getAccessPointJSON(string)": "27dc5cec",
    "getApproved(uint256)": "081812fc",
    "getCollectionRoleMembers(uint8)": "353b07a4",
    "getTokenRoleMembers(uint256,uint8)": "2f1e8f0a",
    "grantCollectionRole(uint8,address)": "2d957aad",
    "grantTokenRole(uint256,uint8,address)": "a27d0b27",
    "hasCollectionRole(uint8,address)": "e9447250",
    "hasTokenRole(uint256,uint8,address)": "b42dbe38",
    "increaseAccessPointScore(string)": "94ec65c5",
    "isAccessPointNameVerified(string)": "d7a75be1",
    "isApprovedForAll(address,address)": "e985e9c5",
    "mint(address,string,string,string,string,string,string)": "aba81125",
    "name()": "06fdde03",
    "ownerOf(uint256)": "6352211e",
    "removeAccessPoint(string)": "7469a03b",
    "revokeCollectionRole(uint8,address)": "8c3c0a44",
    "revokeTokenRole(uint256,uint8,address)": "01468deb",
    "safeTransferFrom(address,address,uint256)": "42842e0e",
    "safeTransferFrom(address,address,uint256,bytes)": "b88d4fde",
    "setAccessPointContentVerify(string,bool)": "b20b94f1",
    "setAccessPointNameVerify(string,bool)": "42e44bbf",
    "setApprovalForAll(address,bool)": "a22cb465",
    "setTokenBuild(uint256,string,string)": "3806f152",
    "setTokenDescription(uint256,string)": "246a908b",
    "setTokenENS(uint256,string)": "78278cca",
    "setTokenExternalURL(uint256,string)": "f9315177",
    "setTokenName(uint256,string)": "cdb0e89e",
    "supportsInterface(bytes4)": "01ffc9a7",
    "symbol()": "95d89b41",
    "tokenURI(uint256)": "c87b56dd",
    "transferFrom(address,address,uint256)": "23b872dd"
  },
  "id": 1
}