{
  "abi": [
    {
      "inputs": [
        {
          "internalType": "string",
          "name": "_name",
          "type": "string"
        },
        {
          "internalType": "string",
          "name": "_symbol",
          "type": "string"
        }
      ],
      "stateMutability": "nonpayable",
      "type": "constructor"
    },
    {
      "anonymous": false,
      "inputs": [
        {
          "indexed": true,
          "internalType": "address",
          "name": "owner",
          "type": "address"
        },
        {
          "indexed": true,
          "internalType": "address",
          "name": "approved",
          "type": "address"
        },
        {
          "indexed": true,
          "internalType": "uint256",
          "name": "tokenId",
          "type": "uint256"
        }
      ],
      "name": "Approval",
      "type": "event"
    },
    {
      "anonymous": false,
      "inputs": [
        {
          "indexed": true,
          "internalType": "address",
          "name": "owner",
          "type": "address"
        },
        {
          "indexed": true,
          "internalType": "address",
          "name": "operator",
          "type": "address"
        },
        {
          "indexed": false,
          "internalType": "bool",
          "name": "approved",
          "type": "bool"
        }
      ],
      "name": "ApprovalForAll",
      "type": "event"
    },
    {
      "anonymous": false,
      "inputs": [
        {
          "indexed": true,
          "internalType": "uint256",
          "name": "token",
          "type": "uint256"
        },
        {
          "indexed": true,
          "internalType": "string",
          "name": "commit_hash",
          "type": "string"
        }
      ],
      "name": "NewBuild",
      "type": "event"
    },
    {
      "anonymous": false,
      "inputs": [
        {
          "indexed": true,
          "internalType": "uint256",
          "name": "token",
          "type": "uint256"
        },
        {
          "indexed": true,
          "internalType": "string",
          "name": "description",
          "type": "string"
        }
      ],
      "name": "NewTokenDescription",
      "type": "event"
    },
    {
      "anonymous": false,
      "inputs": [
        {
          "indexed": true,
          "internalType": "uint256",
          "name": "token",
          "type": "uint256"
        },
        {
          "indexed": true,
          "internalType": "string",
          "name": "ENS",
          "type": "string"
        }
      ],
      "name": "NewTokenENS",
      "type": "event"
    },
    {
      "anonymous": false,
      "inputs": [
        {
          "indexed": true,
          "internalType": "uint256",
          "name": "token",
          "type": "uint256"
        },
        {
          "indexed": true,
          "internalType": "string",
          "name": "external_url",
          "type": "string"
        }
      ],
      "name": "NewTokenExternalURL",
      "type": "event"
    },
    {
      "anonymous": false,
      "inputs": [
        {
          "indexed": true,
          "internalType": "uint256",
          "name": "token",
          "type": "uint256"
        },
        {
          "indexed": true,
          "internalType": "string",
          "name": "image",
          "type": "string"
        }
      ],
      "name": "NewTokenImage",
      "type": "event"
    },
    {
      "anonymous": false,
      "inputs": [
        {
          "indexed": true,
          "internalType": "uint256",
          "name": "token",
          "type": "uint256"
        },
        {
          "indexed": true,
          "internalType": "string",
          "name": "name",
          "type": "string"
        }
      ],
      "name": "NewTokenName",
      "type": "event"
    },
    {
      "anonymous": false,
      "inputs": [
        {
          "indexed": true,
          "internalType": "bytes32",
          "name": "role",
          "type": "bytes32"
        },
        {
          "indexed": true,
          "internalType": "bytes32",
          "name": "previousAdminRole",
          "type": "bytes32"
        },
        {
          "indexed": true,
          "internalType": "bytes32",
          "name": "newAdminRole",
          "type": "bytes32"
        }
      ],
      "name": "RoleAdminChanged",
      "type": "event"
    },
    {
      "anonymous": false,
      "inputs": [
        {
          "indexed": true,
          "internalType": "bytes32",
          "name": "role",
          "type": "bytes32"
        },
        {
          "indexed": true,
          "internalType": "address",
          "name": "account",
          "type": "address"
        },
        {
          "indexed": true,
          "internalType": "address",
          "name": "sender",
          "type": "address"
        }
      ],
      "name": "RoleGranted",
      "type": "event"
    },
    {
      "anonymous": false,
      "inputs": [
        {
          "indexed": true,
          "internalType": "bytes32",
          "name": "role",
          "type": "bytes32"
        },
        {
          "indexed": true,
          "internalType": "address",
          "name": "account",
          "type": "address"
        },
        {
          "indexed": true,
          "internalType": "address",
          "name": "sender",
          "type": "address"
        }
      ],
      "name": "RoleRevoked",
      "type": "event"
    },
    {
      "anonymous": false,
      "inputs": [
        {
          "indexed": true,
          "internalType": "address",
          "name": "from",
          "type": "address"
        },
        {
          "indexed": true,
          "internalType": "address",
          "name": "to",
          "type": "address"
        },
        {
          "indexed": true,
          "internalType": "uint256",
          "name": "tokenId",
          "type": "uint256"
        }
      ],
      "name": "Transfer",
      "type": "event"
    },
    {
      "inputs": [],
      "name": "COLLECTION_CONTROLLER_ROLE",
      "outputs": [
        {
          "internalType": "bytes32",
          "name": "",
          "type": "bytes32"
        }
      ],
      "stateMutability": "view",
      "type": "function"
    },
    {
      "inputs": [],
      "name": "COLLECTION_OWNER_ROLE",
      "outputs": [
        {
          "internalType": "bytes32",
          "name": "",
          "type": "bytes32"
        }
      ],
      "stateMutability": "view",
      "type": "function"
    },
    {
      "inputs": [],
      "name": "DEFAULT_ADMIN_ROLE",
      "outputs": [
        {
          "internalType": "bytes32",
          "name": "",
          "type": "bytes32"
        }
      ],
      "stateMutability": "view",
      "type": "function"
    },
    {
      "inputs": [
        {
          "internalType": "uint256",
          "name": "tokenId",
          "type": "uint256"
        },
        {
          "internalType": "address",
          "name": "controller",
          "type": "address"
        }
      ],
      "name": "addTokenController",
      "outputs": [],
      "stateMutability": "nonpayable",
      "type": "function"
    },
    {
      "inputs": [
        {
          "internalType": "address",
          "name": "to",
          "type": "address"
        },
        {
          "internalType": "uint256",
          "name": "tokenId",
          "type": "uint256"
        }
      ],
      "name": "approve",
      "outputs": [],
      "stateMutability": "nonpayable",
      "type": "function"
    },
    {
      "inputs": [
        {
          "internalType": "address",
          "name": "owner",
          "type": "address"
        }
      ],
      "name": "balanceOf",
      "outputs": [
        {
          "internalType": "uint256",
          "name": "",
          "type": "uint256"
        }
      ],
      "stateMutability": "view",
      "type": "function"
    },
    {
      "inputs": [
        {
          "internalType": "uint256",
          "name": "tokenId",
          "type": "uint256"
        }
      ],
      "name": "burn",
      "outputs": [],
      "stateMutability": "nonpayable",
      "type": "function"
    },
    {
      "inputs": [
        {
          "internalType": "uint256",
          "name": "tokenId",
          "type": "uint256"
        }
      ],
      "name": "getApproved",
      "outputs": [
        {
          "internalType": "address",
          "name": "",
          "type": "address"
        }
      ],
      "stateMutability": "view",
      "type": "function"
    },
    {
      "inputs": [
        {
          "internalType": "bytes32",
          "name": "role",
          "type": "bytes32"
        }
      ],
      "name": "getRoleAdmin",
      "outputs": [
        {
          "internalType": "bytes32",
          "name": "",
          "type": "bytes32"
        }
      ],
      "stateMutability": "view",
      "type": "function"
    },
    {
      "inputs": [
        {
          "internalType": "bytes32",
          "name": "role",
          "type": "bytes32"
        },
        {
          "internalType": "address",
          "name": "account",
          "type": "address"
        }
      ],
      "name": "grantRole",
      "outputs": [],
      "stateMutability": "nonpayable",
      "type": "function"
    },
    {
      "inputs": [
        {
          "internalType": "bytes32",
          "name": "role",
          "type": "bytes32"
        },
        {
          "internalType": "address",
          "name": "account",
          "type": "address"
        }
      ],
      "name": "hasRole",
      "outputs": [
        {
          "internalType": "bool",
          "name": "",
          "type": "bool"
        }
      ],
      "stateMutability": "view",
      "type": "function"
    },
    {
      "inputs": [
        {
          "internalType": "address",
          "name": "owner",
          "type": "address"
        },
        {
          "internalType": "address",
          "name": "operator",
          "type": "address"
        }
      ],
      "name": "isApprovedForAll",
      "outputs": [
        {
          "internalType": "bool",
          "name": "",
          "type": "bool"
        }
      ],
      "stateMutability": "view",
      "type": "function"
    },
    {
      "inputs": [
        {
          "internalType": "address",
          "name": "to",
          "type": "address"
        },
        {
          "internalType": "string",
          "name": "name",
          "type": "string"
        },
        {
          "internalType": "string",
          "name": "description",
          "type": "string"
        },
        {
          "internalType": "string",
          "name": "image",
          "type": "string"
        },
        {
          "internalType": "string",
          "name": "external_url",
          "type": "string"
        },
        {
          "internalType": "string",
          "name": "ENS",
          "type": "string"
        },
        {
          "internalType": "string",
          "name": "commit_hash",
          "type": "string"
        },
        {
          "internalType": "string",
          "name": "git_repository",
          "type": "string"
        }
      ],
      "name": "mint",
      "outputs": [
        {
          "internalType": "uint256",
          "name": "",
          "type": "uint256"
        }
      ],
      "stateMutability": "payable",
      "type": "function"
    },
    {
      "inputs": [],
      "name": "name",
      "outputs": [
        {
          "internalType": "string",
          "name": "",
          "type": "string"
        }
      ],
      "stateMutability": "view",
      "type": "function"
    },
    {
      "inputs": [
        {
          "internalType": "uint256",
          "name": "tokenId",
          "type": "uint256"
        }
      ],
      "name": "ownerOf",
      "outputs": [
        {
          "internalType": "address",
          "name": "",
          "type": "address"
        }
      ],
      "stateMutability": "view",
      "type": "function"
    },
    {
      "inputs": [
        {
          "internalType": "uint256",
          "name": "tokenId",
          "type": "uint256"
        },
        {
          "internalType": "address",
          "name": "controller",
          "type": "address"
        }
      ],
      "name": "removeTokenController",
      "outputs": [],
      "stateMutability": "nonpayable",
      "type": "function"
    },
    {
      "inputs": [
        {
          "internalType": "bytes32",
          "name": "role",
          "type": "bytes32"
        },
        {
          "internalType": "address",
          "name": "account",
          "type": "address"
        }
      ],
      "name": "renounceRole",
      "outputs": [],
      "stateMutability": "nonpayable",
      "type": "function"
    },
    {
      "inputs": [
        {
          "internalType": "bytes32",
          "name": "role",
          "type": "bytes32"
        },
        {
          "internalType": "address",
          "name": "account",
          "type": "address"
        }
      ],
      "name": "revokeRole",
      "outputs": [],
      "stateMutability": "nonpayable",
      "type": "function"
    },
    {
      "inputs": [
        {
          "internalType": "address",
          "name": "from",
          "type": "address"
        },
        {
          "internalType": "address",
          "name": "to",
          "type": "address"
        },
        {
          "internalType": "uint256",
          "name": "tokenId",
          "type": "uint256"
        }
      ],
      "name": "safeTransferFrom",
      "outputs": [],
      "stateMutability": "nonpayable",
      "type": "function"
    },
    {
      "inputs": [
        {
          "internalType": "address",
          "name": "from",
          "type": "address"
        },
        {
          "internalType": "address",
          "name": "to",
          "type": "address"
        },
        {
          "internalType": "uint256",
          "name": "tokenId",
          "type": "uint256"
        },
        {
          "internalType": "bytes",
          "name": "data",
          "type": "bytes"
        }
      ],
      "name": "safeTransferFrom",
      "outputs": [],
      "stateMutability": "nonpayable",
      "type": "function"
    },
    {
      "inputs": [
        {
          "internalType": "address",
          "name": "operator",
          "type": "address"
        },
        {
          "internalType": "bool",
          "name": "approved",
          "type": "bool"
        }
      ],
      "name": "setApprovalForAll",
      "outputs": [],
      "stateMutability": "nonpayable",
      "type": "function"
    },
    {
      "inputs": [
        {
          "internalType": "uint256",
          "name": "tokenId",
          "type": "uint256"
        },
        {
          "internalType": "string",
          "name": "_commit_hash",
          "type": "string"
        },
        {
          "internalType": "string",
          "name": "_git_repository",
          "type": "string"
        }
      ],
      "name": "setTokenBuild",
      "outputs": [],
      "stateMutability": "nonpayable",
      "type": "function"
    },
    {
      "inputs": [
        {
          "internalType": "uint256",
          "name": "tokenId",
          "type": "uint256"
        },
        {
          "internalType": "string",
          "name": "_tokenDescription",
          "type": "string"
        }
      ],
      "name": "setTokenDescription",
      "outputs": [],
      "stateMutability": "nonpayable",
      "type": "function"
    },
    {
      "inputs": [
        {
          "internalType": "uint256",
          "name": "tokenId",
          "type": "uint256"
        },
        {
          "internalType": "string",
          "name": "_tokenENS",
          "type": "string"
        }
      ],
      "name": "setTokenENS",
      "outputs": [],
      "stateMutability": "nonpayable",
      "type": "function"
    },
    {
      "inputs": [
        {
          "internalType": "uint256",
          "name": "tokenId",
          "type": "uint256"
        },
        {
          "internalType": "string",
          "name": "_tokenExternalURL",
          "type": "string"
        }
      ],
      "name": "setTokenExternalURL",
      "outputs": [],
      "stateMutability": "nonpayable",
      "type": "function"
    },
    {
      "inputs": [
        {
          "internalType": "uint256",
          "name": "tokenId",
          "type": "uint256"
        },
        {
          "internalType": "string",
          "name": "_tokenImage",
          "type": "string"
        }
      ],
      "name": "setTokenImage",
      "outputs": [],
      "stateMutability": "nonpayable",
      "type": "function"
    },
    {
      "inputs": [
        {
          "internalType": "uint256",
          "name": "tokenId",
          "type": "uint256"
        },
        {
          "internalType": "string",
          "name": "_tokenName",
          "type": "string"
        }
      ],
      "name": "setTokenName",
      "outputs": [],
      "stateMutability": "nonpayable",
      "type": "function"
    },
    {
      "inputs": [
        {
          "internalType": "bytes4",
          "name": "interfaceId",
          "type": "bytes4"
        }
      ],
      "name": "supportsInterface",
      "outputs": [
        {
          "internalType": "bool",
          "name": "",
          "type": "bool"
        }
      ],
      "stateMutability": "view",
      "type": "function"
    },
    {
      "inputs": [],
      "name": "symbol",
      "outputs": [
        {
          "internalType": "string",
          "name": "",
          "type": "string"
        }
      ],
      "stateMutability": "view",
      "type": "function"
    },
    {
      "inputs": [
        {
          "internalType": "uint256",
          "name": "tokenId",
          "type": "uint256"
        }
      ],
      "name": "tokenURI",
      "outputs": [
        {
          "internalType": "string",
          "name": "",
          "type": "string"
        }
      ],
      "stateMutability": "view",
      "type": "function"
    },
    {
      "inputs": [
        {
          "internalType": "address",
          "name": "from",
          "type": "address"
        },
        {
          "internalType": "address",
          "name": "to",
          "type": "address"
        },
        {
          "internalType": "uint256",
          "name": "tokenId",
          "type": "uint256"
        }
      ],
      "name": "transferFrom",
      "outputs": [],
      "stateMutability": "nonpayable",
      "type": "function"
    },
    {
      "inputs": [
        {
          "internalType": "uint256",
          "name": "tokenId",
          "type": "uint256"
        },
        {
          "internalType": "string",
          "name": "commit",
          "type": "string"
        },
        {
          "internalType": "string",
          "name": "repository",
          "type": "string"
        }
      ],
      "name": "upgradeTokenBuild",
      "outputs": [],
      "stateMutability": "payable",
      "type": "function"
    }
  ],
  "bytecode": {
    "object": "0x60406080815234620003da5762003bb190813803806200001f81620003df565b93843982018183820312620003da5782516001600160401b0390818111620003da57826200004f91860162000405565b9360209283820151838111620003da576200006b920162000405565b93805191808311620003c4576000928354906001938483811c93168015620003b9575b87841014620003a5578190601f9384811162000352575b508790848311600114620002ee578792620002e2575b5050600019600383901b1c191690841b1784555b8651918211620002ce5782548381811c91168015620002c3575b86821014620002af5781811162000267575b508490821160011462000204578394959682939492620001f8575b5050600019600383901b1c191690821b1781555b7fcac50f86c292f6863f130b9e1133a5f875e8e957fed41745b8fa2498550cbdfc92838352600681528282868220015481848882200155857fbd79b86ffe0ab8e8776151514217cd7cacd52c909f66475c3af44e129f0b00ff8380a4848320338452815260ff858420541615620001ab575b84516137399081620004788239f35b8383526006815284832090338452528382209060ff1982541617905533917f2f8788117e7eff1d82e926ec794901d17c78024a50270940304540a733656f0d339280a4388080806200019c565b01519050388062000116565b82845284842090601f198316855b818110620002515750978385969798991062000237575b505050811b0181556200012a565b015160001960f88460031b161c1916905538808062000229565b8983015184559285019291870191870162000212565b8385528585208280850160051c820192888610620002a5575b0160051c019084905b82811062000299575050620000fb565b86815501849062000289565b9250819262000280565b634e487b7160e01b85526022600452602485fd5b90607f1690620000e9565b634e487b7160e01b84526041600452602484fd5b015190503880620000bb565b8780528888208794509190601f198416895b8b8282106200033b575050841162000321575b505050811b018455620000cf565b015160001960f88460031b161c1916905538808062000313565b8385015186558a9790950194938401930162000300565b9091508680528787208480850160051c8201928a86106200039b575b918891869594930160051c01915b8281106200038c575050620000a5565b8981558594508891016200037c565b925081926200036e565b634e487b7160e01b86526022600452602486fd5b92607f16926200008e565b634e487b7160e01b600052604160045260246000fd5b600080fd5b6040519190601f01601f191682016001600160401b03811183821017620003c457604052565b919080601f84011215620003da5782516001600160401b038111620003c4576020906200043b601f8201601f19168301620003df565b92818452828287010111620003da5760005b8181106200046357508260009394955001015290565b85810183015184820184015282016200044d56fe608080604052600436101561001357600080fd5b60003560e01c90816301ffc9a7146127595750806306fdde03146126b6578063081812fc14612698578063095ea7b31461251e57806323b872dd146124f5578063246a908b14612379578063248a9ca31461234a5780632f2ff15d1461231057806336568abe1461227e5780633806f1521461200957806342842e0e14611fe157806342966c6814611e965780636352211e14611e6657806364140ec014611cf357806370a0823114611c5c57806378278cca14611ae957806391d1485414611a9c57806395d89b41146119bd578063987c26fd146116a357806398b7079314611668578063a217fddf1461164c578063a22cb4651461157a578063b543be1214610b34578063b88d4fde14610ad5578063befaa6a314610ab3578063c87b56dd1461061f578063cdb0e89e1461048b578063d547741f1461044c578063dcd78186146103d5578063e46f29c81461039a578063e985e9c5146103445763f93151771461017f57600080fd5b3461033f5761018d3661294e565b9061019f610199612ae2565b82612b08565b6000526020916006835260406000203360005283526101c560ff60406000205416612b53565b6000828152600260205260409020546101e8906001600160a01b03161515612f16565b816000526008835260036040600020018151936001600160401b0385116103295761021382546129c3565b601f81116102ee575b5080601f8611600114610284575093806102519495600091610279575b508160011b916000199060031b1c1916179055612bb0565b907f9f284fd257fb85bc33901e673c078261b0222fbcc4b52c74784c9566808e3cfc600080a3005b905083015138610239565b90601f1986168360005282600020926000905b8282106102d65750509186916102519697600194106102bd575b5050811b019055612bb0565b85015160001960f88460031b161c1916905538806102b1565b80600185968294968a01518155019501930190610297565b610319908360005282600020601f880160051c81019184891061031f575b601f0160051c01906129fd565b3861021c565b909150819061030c565b634e487b7160e01b600052604160045260246000fd5b600080fd5b3461033f57604036600319011261033f5761035d612826565b61036561283c565b9060018060a01b03809116600052600560205260406000209116600052602052602060ff604060002054166040519015158152f35b3461033f57600036600319011261033f5760206040517f54812023c8fe13756580f3420840aeb566f69714bea27346e22e4c654756d77e8152f35b3461033f57604036600319011261033f5761044a6004356104456103f761283c565b916104146001600160a01b0361040c83612f62565b163314612a14565b600081815260026020526040902054610437906001600160a01b03161515612f16565b61043f612ae2565b90612b08565b612e26565b005b3461033f57604036600319011261033f5761044a60043561046b61283c565b90806000526006602052610486600160406000200154612c1c565b612ea0565b3461033f576104993661294e565b906104a5610199612ae2565b6000526020916006835260406000203360005283526104cb60ff60406000205416612b53565b6000828152600260205260409020546104ee906001600160a01b03161515612f16565b816000526008835260406000208151936001600160401b0385116103295761051682546129c3565b601f81116105ef575b5080601f861160011461058657509380610553949560009161057b57508160011b916000199060031b1c1916179055612bb0565b907fabf44020991f188f6b302a14e4b7a3dc94de10ed2140a6c03e16f4213d11b1c9600080a3005b905083015186610239565b90601f1986168360005282600020926000905b8282106105d75750509186916105539697600194106105be575050811b019055612bb0565b85015160001960f88460031b161c1916905586806102b1565b80600185968294968a01518155019501930190610599565b610619908360005282600020601f880160051c81019184891061031f57601f0160051c01906129fd565b8561051f565b3461033f5760208060031936011261033f5760043560008181526002602052604090205490919061065a906001600160a01b03161515612f16565b61066382612f62565b600092835260088252604090922091610684906001600160a01b03166135f5565b60058301546000818152600685018452604081206001958694938583019190807a184f03e93ff9f4daa797ed6e38ed64bf6a1f0100000000000000008181811015610aa5575b5050886d04ee2d6d415b85acef810000000080841015610a97575b5050662386f26fc1000080831015610a88575b506305f5e10080831015610a79575b5061271080831015610a6a575b506064821015610a5a575b600a978880931015610a50575b6021610739828901613446565b97880101905b610a21575b5050604051607b60f81b8982015267113730b6b2911d1160c11b60218201529889969091506107766029880184612a5f565b61088b60f21b8082526e113232b9b1b934b83a34b7b7111d1160891b6002830152926107a791601101908501612a5f565b828152681137bbb732b9111d1160b91b60028201528151916107d1908390600b8401908d016127de565b0181600b8201526f1132bc3a32b93730b62fbab936111d1160811b600d820152601d01600383019061080291612a5f565b818152681134b6b0b3b2911d1160b91b6002820152600b01600283019061082891612a5f565b9081526e2261747472696275746573223a205b60881b60028201527f7b2274726169745f74797065223a2022454e53222c202276616c7565223a2200601182015261087b91603090910190600401612a5f565b62089f4b60ea1b8082527f7b2274726169745f74797065223a2022436f6d6d69742048617368222c20227660038301526630b63ab2911d1160c91b6023830152926108c991602a0190612a5f565b828152600381017f7b2274726169745f74797065223a20225265706f7369746f7279222c20227661905265363ab2911d1160d11b602382015260290161090e91612a5f565b9081527f7b2274726169745f74797065223a202256657273696f6e222c202276616c7565600382015262111d1160e91b6023820152815191610958908390602684019088016127de565b0161227d60f01b602682015260288101605d60f81b905260298101607d60f81b9052039081018352602a0161098d90836128bd565b8060405161099a81612887565b601d8152818101937f646174613a6170706c69636174696f6e2f6a736f6e3b6261736536342c00000085526109ce90613478565b6040519485925190818585016109e3926127de565b820181519182858084019201916109f9926127de565b010380845201610a0990836128bd565b6040519181839283528201610a1d91612801565b0390f35b600019019082906f181899199a1a9b1b9c1cb0b131b232b360811b8282061a835304908a8261073f5750610744565b909501948961072c565b949060646002910491019461071f565b6004919692049101948a610714565b6008919692049101948a610707565b6010919692049101948a6106f8565b96019590910490888b6106e5565b604097500491508a806106ca565b3461033f57604036600319011261033f5761044a6004356104866103f761283c565b3461033f57608036600319011261033f57610aee612826565b610af661283c565b606435916001600160401b03831161033f573660238401121561033f57610b2a61044a9336906024816004013591016128f9565b9160443591613025565b61010036600319011261033f57610b49612826565b6024356001600160401b03811161033f57610b68903690600401612930565b906044356001600160401b03811161033f57610b88903690600401612930565b906064356001600160401b03811161033f57610ba8903690600401612930565b926084356001600160401b03811161033f57610bc8903690600401612930565b60a4356001600160401b03811161033f57610be7903690600401612930565b9060c4356001600160401b03811161033f57610c07903690600401612930565b9560e4356001600160401b03811161033f57610c27903690600401612930565b3360009081527f6ba1fb09f226a75e067af9a8d207c51e8b8b2c4d25e3ce897223f4dfedce79fd602052604090205490969060ff161561151957600754956001600160a01b038116156114d557600087815260026020526040902054610d6c9190610c9e906001600160a01b031615155b1561311e565b600088815260026020526040902054610cc1906001600160a01b03161515610c98565b6001600160a01b0381166000818152600360209081526040808320805460010190558b83526002909152812080546001600160a01b031916831790558991907fddf252ad1be2c89b69c2b068fc378daa952ba7f163c4a11628f55a4df523b3ef8180a4610d386001600160a01b0361040c8a612f62565b600088815260026020526040902054610d5b906001600160a01b03161515612f16565b610445610d66612ae2565b89612b08565b6001600754016007558560005260086020526040600020948051906001600160401b038211610329578190610da188546129c3565b601f81116114a3575b50602090601f83116001146114375760009261142c575b50508160011b916000199060031b1c19161785555b8051906001600160401b038211610329578190610df660018801546129c3565b601f81116113f7575b50602090601f83116001146113855760009261137a575b50508160011b916000199060031b1c19161760018501555b8051906001600160401b038211610329578190610e4e60028701546129c3565b601f8111611345575b50602090601f83116001146112d3576000926112c8575b50508160011b916000199060031b1c19161760028401555b8051906001600160401b038211610329578190610ea660038601546129c3565b601f8111611293575b50602090601f831160011461122157600092611216575b50508160011b916000199060031b1c19161760038301555b8051906001600160401b03821161032957610efc60048401546129c3565b601f81116111e1575b50602090601f831160011461116e57600693929160009183611163575b50508160011b916000199060031b1c19161760048201555b6000600582015560405194610f4e86612887565b8552602085019384526000805201602052604060002092519283516001600160401b03811161032957610f8182546129c3565b601f8111611131575b506020601f82116001146110c757819060019495966000926110bc575b5050600019600383901b1c191690831b1781555b019151908151926001600160401b03841161032957602093610fdd82546129c3565b601f811161108c575b508493601f821160011461102957938192939460009261101e575b50508160011b916000199060031b1c19161790555b604051908152f35b015190508580611001565b601f1982169483600052866000209160005b87811061107557508360019596971061105c575b505050811b019055611016565b015160001960f88460031b161c1916905585808061104f565b91928860018192868501518155019401920161103b565b6110b6908360005286600020601f840160051c81019188851061031f57601f0160051c01906129fd565b85610fe6565b015190508680610fa7565b601f198216958360005260206000209660005b8181106111195750916001959697918487959410611100575b505050811b018155610fbb565b015160001960f88460031b161c191690558680806110f3565b838301518955600190980197602093840193016110da565b61115d90836000526020600020601f840160051c8101916020851061031f57601f0160051c01906129fd565b85610f8a565b015190508780610f22565b906004840160005260206000209160005b601f19851681106111c9575091839160019360069695601f198116106111b0575b505050811b016004820155610f3a565b015160001960f88460031b161c191690558780806111a0565b9192602060018192868501518155019401920161117f565b61121090600485016000526020600020601f850160051c8101916020861061031f57601f0160051c01906129fd565b86610f05565b015190508780610ec6565b9250600385016000526020600020906000935b601f1984168510611278576001945083601f1981161061125f575b505050811b016003830155610ede565b015160001960f88460031b161c1916905587808061124f565b81810151835560209485019460019093019290910190611234565b6112c290600387016000526020600020601f850160051c8101916020861061031f57601f0160051c01906129fd565b88610eaf565b015190508880610e6e565b9250600286016000526020600020906000935b601f198416851061132a576001945083601f19811610611311575b505050811b016002840155610e86565b015160001960f88460031b161c19169055888080611301565b818101518355602094850194600190930192909101906112e6565b61137490600288016000526020600020601f850160051c8101916020861061031f57601f0160051c01906129fd565b89610e57565b015190508980610e16565b9250600187016000526020600020906000935b601f19841685106113dc576001945083601f198116106113c3575b505050811b016001850155610e2e565b015160001960f88460031b161c191690558980806113b3565b81810151835560209485019460019093019290910190611398565b61142690600189016000526020600020601f850160051c8101916020861061031f57601f0160051c01906129fd565b8a610dff565b015190508a80610dc1565b9250876000526020600020906000935b601f1984168510611488576001945083601f1981161061146f575b505050811b018555610dd6565b015160001960f88460031b161c191690558a8080611462565b81810151835560209485019460019093019290910190611447565b6114cf90896000526020600020601f850160051c8101916020861061031f57601f0160051c01906129fd565b8b610daa565b606460405162461bcd60e51b815260206004820152602060248201527f4552433732313a206d696e7420746f20746865207a65726f20616464726573736044820152fd5b60405162461bcd60e51b815260206004820152603360248201527f466c65656b416363657373436f6e74726f6c3a206d757374206861766520636f6044820152726c6c656374696f6e206f776e657220726f6c6560681b6064820152608490fd5b3461033f57604036600319011261033f57611593612826565b6024359081151580920361033f576001600160a01b03169033821461160757336000526005602052604060002082600052602052604060002060ff1981541660ff83161790556040519081527f17307eab39ab6107e8899845ad3d59bd9653f200f220920489ca2b5937696c3160203392a3005b60405162461bcd60e51b815260206004820152601960248201527f4552433732313a20617070726f766520746f2063616c6c6572000000000000006044820152606490fd5b3461033f57600036600319011261033f57602060405160008152f35b3461033f57600036600319011261033f5760206040517fcac50f86c292f6863f130b9e1133a5f875e8e957fed41745b8fa2498550cbdfc8152f35b6116ac3661297d565b91906116c26001600160a01b0361040c84612f62565b6000828152600260205260409020546116e5906001600160a01b03161515612f16565b6116f66116f0612ae2565b83612b08565b60005260209260068452604060002033600052845261171c60ff60406000205416612b53565b60008381526002602052604090205461173f906001600160a01b03161515612f16565b60405161174b81612887565b82815284810191825283600052600885526006604060002001600560406000200190815490600019928383146119a757600180930180915560005287526040600020925180516001600160401b03948582116103295783916117ad82546129c3565b93601f948c868211611978575b50508b90858311600114611912576000919083611907575b50508682851b9260031b1c19161781555b019451978851948511610329576117fa86546129c3565b8281116118cf575b508091851160011461186657508392918391611833989960009561185b575b50501b9260031b1c1916179055612bb0565b907ff0cd0ce9d5882a10e2780d2d9c805c18e7536b9b2c6412f7bfb7f163656dd0f6600080a3005b015193508980611821565b91939290601f198416988660005283600020936000905b8b82106118b857505084611833999a106118a0575b50505050811b019055612bb0565b01519060f88460031b161c1916905586808080611892565b80888597829496860151815501960193019061187d565b6118f89087600052826000208480890160051c820192858a106118fe575b0160051c01906129fd565b89611802565b925081926118ed565b015190508c806117d2565b60008481528d8120929190601f198516908f5b82821061195f5750509084879594939210611948575b505050811b0181556117e3565b01518860f88460031b161c191690558c808061193b565b8484015186558a98909501949384019390810190611925565b6119a0918560005287826000209181870160051c83019387106118fe570160051c01906129fd565b8c8c6117ba565b634e487b7160e01b600052601160045260246000fd5b3461033f57600036600319011261033f57604051600060018054906119e1826129c3565b80855291818116908115611a755750600114611a1c575b610a1d84611a08818603826128bd565b604051918291602083526020830190612801565b600081815292507fb10e2d527612073b26eecdfd717e6a320cf44b4afac2b0732d9fcbe2b7fa0cf65b828410611a5d575050508101602001611a08826119f8565b80546020858701810191909152909301928101611a45565b60ff191660208087019190915292151560051b85019092019250611a0891508390506119f8565b3461033f57604036600319011261033f57611ab561283c565b600435600052600660205260406000209060018060a01b0316600052602052602060ff604060002054166040519015158152f35b3461033f57611af73661294e565b90611b03610199612ae2565b600052602091600683526040600020336000528352611b2960ff60406000205416612b53565b600082815260026020526040902054611b4c906001600160a01b03161515612f16565b816000526008835260046040600020018151936001600160401b03851161032957611b7782546129c3565b601f8111611c2c575b5080601f8611600114611bdc57509380611bb4949560009161057b57508160011b916000199060031b1c1916179055612bb0565b907fc1b5a2141fc60537be795a8771f5e8c80188922acb5399a6e463ea95aa852f31600080a3005b90601f1986168360005282600020926000905b828210611c14575050918691611bb49697600194106105be575050811b019055612bb0565b80600185968294968a01518155019501930190611bef565b611c56908360005282600020601f880160051c81019184891061031f57601f0160051c01906129fd565b85611b80565b3461033f57602036600319011261033f576001600160a01b03611c7d612826565b168015611c9c5760005260036020526020604060002054604051908152f35b60405162461bcd60e51b815260206004820152602960248201527f4552433732313a2061646472657373207a65726f206973206e6f7420612076616044820152683634b21037bbb732b960b91b6064820152608490fd5b3461033f57611d013661294e565b90611d0d610199612ae2565b600052602091600683526040600020336000528352611d3360ff60406000205416612b53565b600082815260026020526040902054611d56906001600160a01b03161515612f16565b816000526008835260026040600020018151936001600160401b03851161032957611d8182546129c3565b601f8111611e36575b5080601f8611600114611de657509380611dbe949560009161057b57508160011b916000199060031b1c1916179055612bb0565b907fb041870856ebefdd6a3cb1ac665eb6739281b855c912ff622e814dbf91c96bb6600080a3005b90601f1986168360005282600020926000905b828210611e1e575050918691611dbe9697600194106105be575050811b019055612bb0565b80600185968294968a01518155019501930190611df9565b611e60908360005282600020601f880160051c81019184891061031f57601f0160051c01906129fd565b85611d8a565b3461033f57602036600319011261033f576020611e84600435612f62565b6040516001600160a01b039091168152f35b3461033f5760208060031936011261033f5760043590611eb76116f0612ae2565b600052600681526040600020336000528152611eda60ff60406000205416612b53565b8160006001600160a01b03611efa3382611ef386612f62565b1614612a14565b611f0383612f62565b50611f0d83612f62565b908383526004855260408320916bffffffffffffffffffffffff60a01b92838154169055169081835260038552604083208319815401905583835260028552604083209081541690557fddf252ad1be2c89b69c2b068fc378daa952ba7f163c4a11628f55a4df523b3ef8280a460088152611f8f6003604060002001546129c3565b611f9557005b600891600052526000600560408220611fad81612bd0565b611fb960018201612bd0565b611fc560028201612bd0565b611fd160038201612bd0565b611fdd60048201612bd0565b0155005b3461033f5761044a611ff236612852565b9060405192612000846128a2565b60008452613025565b3461033f576120173661297d565b91906120246116f0612ae2565b60005260209260068452604060002033600052845261204a60ff60406000205416612b53565b60008381526002602052604090205461206d906001600160a01b03161515612f16565b60405161207981612887565b82815284810191825283600052600885526006604060002001600560406000200190815490600019928383146119a757600180930180915560005287526040600020925180516001600160401b03948582116103295783916120db82546129c3565b93601f948c86821161224f575b50508b908583116001146121e95760009190836121de575b50508682851b9260031b1c19161781555b0194519788519485116103295761212886546129c3565b8281116121b0575b508091851160011461216057508392918391611833989960009561185b5750501b9260031b1c1916179055612bb0565b91939290601f198416988660005283600020936000905b8b821061219957505084611833999a106118a05750505050811b019055612bb0565b808885978294968601518155019601930190612177565b6121d89087600052826000208480890160051c820192858a106118fe570160051c01906129fd565b89612130565b015190508c80612100565b60008481528d8120929190601f198516908f5b828210612236575050908487959493921061221f575b505050811b018155612111565b01518860f88460031b161c191690558c8080612212565b8484015186558a989095019493840193908101906121fc565b612277918560005287826000209181870160051c83019387106118fe570160051c01906129fd565b8c8c6120e8565b3461033f57604036600319011261033f5761229761283c565b336001600160a01b038216036122b35761044a90600435612ea0565b60405162461bcd60e51b815260206004820152602f60248201527f416363657373436f6e74726f6c3a2063616e206f6e6c792072656e6f756e636560448201526e103937b632b9903337b91039b2b63360891b6064820152608490fd5b3461033f57604036600319011261033f5761044a60043561232f61283c565b90806000526006602052610445600160406000200154612c1c565b3461033f57602036600319011261033f5760043560005260066020526020600160406000200154604051908152f35b3461033f576123873661294e565b90612393610199612ae2565b6000526020916006835260406000203360005283526123b960ff60406000205416612b53565b6000828152600260205260409020546123dc906001600160a01b03161515612f16565b8160005260088352600180604060002001908251906001600160401b0382116103295761240983546129c3565b601f81116124c5575b5085601f83116001146124785750818091612445969760009361246d575b501b916000199060031b1c1916179055612bb0565b907f9b3089e7af95b8d43fdceb16eb9cbf620a0cb486e1a291b15121a44e0f69127a600080a3005b860151925088612430565b601f929192198216968460005281600020916000905b8982106124ae575050826124459798106105be575050811b019055612bb0565b808684958294958b0151815501940192019061248e565b6124ef908460005287600020601f850160051c81019189861061031f57601f0160051c01906129fd565b86612412565b3461033f5761044a61250636612852565b9161251961251484336130b0565b612fc3565b6131c4565b3461033f57604036600319011261033f57612537612826565b602435906001600160a01b03808061254e85612f62565b1692169180831461264957803314908115612624575b50156125b957600083815260046020526040902080546001600160a01b0319168317905561259183612f62565b167f8c5be1e5ebec7d5bd14f71427d1e84f3dd0314c0f7b2291e5b200ac8c7c3b925600080a4005b60405162461bcd60e51b815260206004820152603d60248201527f4552433732313a20617070726f76652063616c6c6572206973206e6f7420746f60448201527f6b656e206f776e6572206f7220617070726f76656420666f7220616c6c0000006064820152608490fd5b9050600052600560205260406000203360005260205260ff6040600020541684612564565b60405162461bcd60e51b815260206004820152602160248201527f4552433732313a20617070726f76616c20746f2063757272656e74206f776e656044820152603960f91b6064820152608490fd5b3461033f57602036600319011261033f576020611e84600435612f85565b3461033f57600036600319011261033f57604051600080546126d7816129c3565b80845290600190818116908115611a75575060011461270057610a1d84611a08818603826128bd565b600080805292507f290decd9548b62a8d60345a988386fc84ba6bc95484008f6362f93160ef3e5635b828410612741575050508101602001611a08826119f8565b80546020858701810191909152909301928101612729565b3461033f57602036600319011261033f576004359063ffffffff60e01b821680920361033f57602091637965db0b60e01b811490811561279b575b5015158152f35b6380ac58cd60e01b8114915081156127cd575b81156127bc575b5083612794565b6301ffc9a760e01b149050836127b5565b635b5e139f60e01b811491506127ae565b60005b8381106127f15750506000910152565b81810151838201526020016127e1565b9060209161281a815180928185528580860191016127de565b601f01601f1916010190565b600435906001600160a01b038216820361033f57565b602435906001600160a01b038216820361033f57565b606090600319011261033f576001600160a01b0390600435828116810361033f5791602435908116810361033f579060443590565b604081019081106001600160401b0382111761032957604052565b602081019081106001600160401b0382111761032957604052565b90601f801991011681019081106001600160401b0382111761032957604052565b6001600160401b03811161032957601f01601f191660200190565b929192612905826128de565b9161291360405193846128bd565b82948184528183011161033f578281602093846000960137010152565b9080601f8301121561033f5781602061294b933591016128f9565b90565b90604060031983011261033f5760043591602435906001600160401b03821161033f5761294b91600401612930565b606060031982011261033f57600435916001600160401b0360243581811161033f57836129ac91600401612930565b9260443591821161033f5761294b91600401612930565b90600182811c921680156129f3575b60208310146129dd57565b634e487b7160e01b600052602260045260246000fd5b91607f16916129d2565b818110612a08575050565b600081556001016129fd565b15612a1b57565b606460405162461bcd60e51b815260206004820152602060248201527f466c65656b4552433732313a206d75737420626520746f6b656e206f776e65726044820152fd5b600092918154612a6e816129c3565b92600191808316908115612ac75750600114612a8b575b50505050565b90919293945060005260209081600020906000915b858310612ab65750505050019038808080612a85565b805485840152918301918101612aa0565b60ff1916845250505081151590910201915038808080612a85565b60405190612aef82612887565b600a82526921a7a72a2927a62622a960b11b6020830152565b612b4d60466040518093602082019565544f4b454e5f60d01b8752612b378151809260206026870191016127de565b82019060268201520360268101845201826128bd565b51902090565b15612b5a57565b60405162461bcd60e51b815260206004820152602860248201527f466c65656b416363657373436f6e74726f6c3a206d757374206861766520746f6044820152676b656e20726f6c6560c01b6064820152608490fd5b612bc8906020604051928284809451938492016127de565b810103902090565b612bda81546129c3565b9081612be4575050565b81601f60009311600114612bf6575055565b81835260208320612c1291601f0160051c8101906001016129fd565b8160208120915555565b60009080825260209060068252604092838120338252835260ff848220541615612c465750505050565b612c4f336135f5565b91845190608082018281106001600160401b03821117612e1257865260428252848201926060368537825115612dfe5760308453825190600191821015612dfe5790607860218501536041915b818311612d9057505050612d4e576048612d4a938693612d2e93612d1f98519889937f416363657373436f6e74726f6c3a206163636f756e74200000000000000000008a860152612cf6815180928c6037890191016127de565b8401917001034b99036b4b9b9b4b733903937b6329607d1b6037840152518093868401906127de565b010360288101875201856128bd565b5192839262461bcd60e51b845260048401526024830190612801565b0390fd5b60648486519062461bcd60e51b825280600483015260248201527f537472696e67733a20686578206c656e67746820696e73756666696369656e746044820152fd5b909192600f81166010811015612dea576f181899199a1a9b1b9c1cb0b131b232b360811b901a612dc085876135ce565b5360041c928015612dd657600019019190612c9c565b634e487b7160e01b82526011600452602482fd5b634e487b7160e01b83526032600452602483fd5b634e487b7160e01b81526032600452602490fd5b634e487b7160e01b84526041600452602484fd5b906000918083526006602052604083209160018060a01b03169182845260205260ff60408420541615612e5857505050565b80835260066020526040832082845260205260408320600160ff198254161790557f2f8788117e7eff1d82e926ec794901d17c78024a50270940304540a733656f0d339380a4565b906000918083526006602052604083209160018060a01b03169182845260205260ff604084205416612ed157505050565b8083526006602052604083208284526020526040832060ff1981541690557ff6391f5c32d9c69d2a47ea670b442974b53935d1edc7fd64eb21e047a839171b339380a4565b15612f1d57565b60405162461bcd60e51b815260206004820152601860248201527f4552433732313a20696e76616c696420746f6b656e20494400000000000000006044820152606490fd5b6000908152600260205260409020546001600160a01b031661294b811515612f16565b600081815260026020526040902054612fa8906001600160a01b03161515612f16565b6000908152600460205260409020546001600160a01b031690565b15612fca57565b60405162461bcd60e51b815260206004820152602d60248201527f4552433732313a2063616c6c6572206973206e6f7420746f6b656e206f776e6560448201526c1c881bdc88185c1c1c9bdd9959609a1b6064820152608490fd5b9061304993929161303961251484336130b0565b6130448383836131c4565b6132da565b1561305057565b60405162461bcd60e51b815260206004820152603260248201527f4552433732313a207472616e7366657220746f206e6f6e20455243373231526560448201527131b2b4bb32b91034b6b83632b6b2b73a32b960711b6064820152608490fd5b906001600160a01b0380806130c484612f62565b169316918383149384156130f7575b5083156130e1575b50505090565b6130ed91929350612f85565b16143880806130db565b909350600052600560205260406000208260005260205260ff6040600020541692386130d3565b1561312557565b60405162461bcd60e51b815260206004820152601c60248201527f4552433732313a20746f6b656e20616c7265616479206d696e746564000000006044820152606490fd5b1561317157565b60405162461bcd60e51b815260206004820152602560248201527f4552433732313a207472616e736665722066726f6d20696e636f72726563742060448201526437bbb732b960d91b6064820152608490fd5b906131ec916131d284612f62565b6001600160a01b039391841692849290918316841461316a565b1691821561328957816132099161320286612f62565b161461316a565b7fddf252ad1be2c89b69c2b068fc378daa952ba7f163c4a11628f55a4df523b3ef60008481526004602052604081206bffffffffffffffffffffffff60a01b9081815416905583825260036020526040822060001981540190558482526040822060018154019055858252600260205284604083209182541617905580a4565b60405162461bcd60e51b8152602060048201526024808201527f4552433732313a207472616e7366657220746f20746865207a65726f206164646044820152637265737360e01b6064820152608490fd5b9293600093909291803b1561343b579484916133349660405180948193630a85bd0160e11b9788845233600485015260018060a01b0380921660248501526044840152608060648401528260209b8c976084830190612801565b0393165af18491816133f7575b506133e6575050503d6000146133de573d61335b816128de565b9061336960405192836128bd565b81528091833d92013e5b805191826133db5760405162461bcd60e51b815260206004820152603260248201527f4552433732313a207472616e7366657220746f206e6f6e20455243373231526560448201527131b2b4bb32b91034b6b83632b6b2b73a32b960711b6064820152608490fd5b01fd5b506060613373565b6001600160e01b0319161492509050565b9091508581813d8311613434575b61340f81836128bd565b8101031261343057516001600160e01b031981168103613430579038613341565b8480fd5b503d613405565b505050915050600190565b90613450826128de565b61345d60405191826128bd565b828152809261346e601f19916128de565b0190602036910137565b8051156135ba57604051606081018181106001600160401b0382111761032957604052604081527f4142434445464748494a4b4c4d4e4f505152535455565758595a61626364656660208201527f6768696a6b6c6d6e6f707172737475767778797a303132333435363738392b2f604082015281516002928382018092116119a7576003918290046001600160fe1b03811681036119a75761351d908594951b613446565b936020850193829183518401925b83811061356957505050505106806001146135565760021461354b575090565b603d90600019015390565b50603d9081600019820153600119015390565b85600491979293949701918251600190603f9082828260121c16880101518453828282600c1c16880101518385015382828260061c168801015188850153168501015187820153019592919061352b565b506040516135c7816128a2565b6000815290565b9081518110156135df570160200190565b634e487b7160e01b600052603260045260246000fd5b60405190606082018281106001600160401b0382111761032957604052602a82526020820160403682378251156135df576030905381516001908110156135df57607860218401536029905b8082116136955750506136515790565b606460405162461bcd60e51b815260206004820152602060248201527f537472696e67733a20686578206c656e67746820696e73756666696369656e746044820152fd5b9091600f811660108110156136ee576f181899199a1a9b1b9c1cb0b131b232b360811b901a6136c484866135ce565b5360041c9180156136d9576000190190613641565b60246000634e487b7160e01b81526011600452fd5b60246000634e487b7160e01b81526032600452fdfea26469706673582212203dba85c3f8a5ea44ed4e11e06a0ce04d8f24a1b12f7e59a91b9900f3329f942364736f6c63430008110033",
    "linkReferences": {}
  },
  "methodIdentifiers": {
    "COLLECTION_CONTROLLER_ROLE()": "e46f29c8",
    "COLLECTION_OWNER_ROLE()": "98b70793",
    "DEFAULT_ADMIN_ROLE()": "a217fddf",
    "addTokenController(uint256,address)": "dcd78186",
    "approve(address,uint256)": "095ea7b3",
    "balanceOf(address)": "70a08231",
    "burn(uint256)": "42966c68",
    "getApproved(uint256)": "081812fc",
    "getRoleAdmin(bytes32)": "248a9ca3",
    "grantRole(bytes32,address)": "2f2ff15d",
    "hasRole(bytes32,address)": "91d14854",
    "isApprovedForAll(address,address)": "e985e9c5",
    "mint(address,string,string,string,string,string,string,string)": "b543be12",
    "name()": "06fdde03",
    "ownerOf(uint256)": "6352211e",
    "removeTokenController(uint256,address)": "befaa6a3",
    "renounceRole(bytes32,address)": "36568abe",
    "revokeRole(bytes32,address)": "d547741f",
    "safeTransferFrom(address,address,uint256)": "42842e0e",
    "safeTransferFrom(address,address,uint256,bytes)": "b88d4fde",
    "setApprovalForAll(address,bool)": "a22cb465",
    "setTokenBuild(uint256,string,string)": "3806f152",
    "setTokenDescription(uint256,string)": "246a908b",
    "setTokenENS(uint256,string)": "78278cca",
    "setTokenExternalURL(uint256,string)": "f9315177",
    "setTokenImage(uint256,string)": "64140ec0",
    "setTokenName(uint256,string)": "cdb0e89e",
    "supportsInterface(bytes4)": "01ffc9a7",
    "symbol()": "95d89b41",
    "tokenURI(uint256)": "c87b56dd",
    "transferFrom(address,address,uint256)": "23b872dd",
    "upgradeTokenBuild(uint256,string,string)": "987c26fd"
  },
  "id": 1
}