{
  "_format": "hh-sol-artifact-1",
  "contractName": "FleekERC721",
  "sourceName": "contracts/FleekERC721.sol",
  "abi": [
    {
      "inputs": [
        {
          "internalType": "string",
          "name": "_name",
          "type": "string"
        },
        {
          "internalType": "string",
          "name": "_symbol",
          "type": "string"
        }
      ],
      "stateMutability": "nonpayable",
      "type": "constructor"
    },
    {
      "anonymous": false,
      "inputs": [
        {
          "indexed": true,
          "internalType": "address",
          "name": "owner",
          "type": "address"
        },
        {
          "indexed": true,
          "internalType": "address",
          "name": "approved",
          "type": "address"
        },
        {
          "indexed": true,
          "internalType": "uint256",
          "name": "tokenId",
          "type": "uint256"
        }
      ],
      "name": "Approval",
      "type": "event"
    },
    {
      "anonymous": false,
      "inputs": [
        {
          "indexed": true,
          "internalType": "address",
          "name": "owner",
          "type": "address"
        },
        {
          "indexed": true,
          "internalType": "address",
          "name": "operator",
          "type": "address"
        },
        {
          "indexed": false,
          "internalType": "bool",
          "name": "approved",
          "type": "bool"
        }
      ],
      "name": "ApprovalForAll",
      "type": "event"
    },
    {
      "anonymous": false,
      "inputs": [
        {
          "indexed": true,
          "internalType": "enum FleekAccessControl.Roles",
          "name": "role",
          "type": "uint8"
        },
        {
          "indexed": true,
          "internalType": "address",
          "name": "toAddress",
          "type": "address"
        },
        {
          "indexed": false,
          "internalType": "address",
          "name": "byAddress",
          "type": "address"
        }
      ],
      "name": "CollectionRoleGranted",
      "type": "event"
    },
    {
      "anonymous": false,
      "inputs": [
        {
          "indexed": true,
          "internalType": "enum FleekAccessControl.Roles",
          "name": "role",
          "type": "uint8"
        },
        {
          "indexed": true,
          "internalType": "address",
          "name": "toAddress",
          "type": "address"
        },
        {
          "indexed": false,
          "internalType": "address",
          "name": "byAddress",
          "type": "address"
        }
      ],
      "name": "CollectionRoleRevoked",
      "type": "event"
    },
    {
      "anonymous": false,
      "inputs": [
        {
          "indexed": true,
          "internalType": "uint256",
          "name": "token",
          "type": "uint256"
        },
        {
          "indexed": true,
          "internalType": "string",
          "name": "commitHash",
          "type": "string"
        },
        {
          "indexed": true,
          "internalType": "address",
          "name": "triggeredBy",
          "type": "address"
        }
      ],
      "name": "NewBuild",
      "type": "event"
    },
    {
      "anonymous": false,
      "inputs": [
        {
          "indexed": true,
          "internalType": "uint256",
          "name": "tokenId",
          "type": "uint256"
        },
        {
          "indexed": true,
          "internalType": "address",
          "name": "owner",
          "type": "address"
        },
        {
          "indexed": true,
          "internalType": "address",
          "name": "triggeredBy",
          "type": "address"
        }
      ],
      "name": "NewMint",
      "type": "event"
    },
    {
      "anonymous": false,
      "inputs": [
        {
          "indexed": true,
          "internalType": "uint256",
          "name": "token",
          "type": "uint256"
        },
        {
          "indexed": true,
          "internalType": "string",
          "name": "description",
          "type": "string"
        },
        {
          "indexed": true,
          "internalType": "address",
          "name": "triggeredBy",
          "type": "address"
        }
      ],
      "name": "NewTokenDescription",
      "type": "event"
    },
    {
      "anonymous": false,
      "inputs": [
        {
          "indexed": true,
          "internalType": "uint256",
          "name": "token",
          "type": "uint256"
        },
        {
          "indexed": true,
          "internalType": "string",
          "name": "ENS",
          "type": "string"
        },
        {
          "indexed": true,
          "internalType": "address",
          "name": "triggeredBy",
          "type": "address"
        }
      ],
      "name": "NewTokenENS",
      "type": "event"
    },
    {
      "anonymous": false,
      "inputs": [
        {
          "indexed": true,
          "internalType": "uint256",
          "name": "token",
          "type": "uint256"
        },
        {
          "indexed": true,
          "internalType": "string",
          "name": "externalURL",
          "type": "string"
        },
        {
          "indexed": true,
          "internalType": "address",
          "name": "triggeredBy",
          "type": "address"
        }
      ],
      "name": "NewTokenExternalURL",
      "type": "event"
    },
    {
      "anonymous": false,
      "inputs": [
        {
          "indexed": true,
          "internalType": "uint256",
          "name": "token",
          "type": "uint256"
        },
        {
          "indexed": true,
          "internalType": "string",
          "name": "image",
          "type": "string"
        },
        {
          "indexed": true,
          "internalType": "address",
          "name": "triggeredBy",
          "type": "address"
        }
      ],
      "name": "NewTokenImage",
      "type": "event"
    },
    {
      "anonymous": false,
      "inputs": [
        {
          "indexed": true,
          "internalType": "uint256",
          "name": "token",
          "type": "uint256"
        },
        {
          "indexed": true,
          "internalType": "string",
          "name": "name",
          "type": "string"
        },
        {
          "indexed": true,
          "internalType": "address",
          "name": "triggeredBy",
          "type": "address"
        }
      ],
      "name": "NewTokenName",
      "type": "event"
    },
    {
      "anonymous": false,
      "inputs": [
        {
          "indexed": true,
          "internalType": "uint256",
          "name": "tokenId",
          "type": "uint256"
        },
        {
          "indexed": true,
          "internalType": "enum FleekAccessControl.Roles",
          "name": "role",
          "type": "uint8"
        },
        {
          "indexed": true,
          "internalType": "address",
          "name": "toAddress",
          "type": "address"
        },
        {
          "indexed": false,
          "internalType": "address",
          "name": "byAddress",
          "type": "address"
        }
      ],
      "name": "TokenRoleGranted",
      "type": "event"
    },
    {
      "anonymous": false,
      "inputs": [
        {
          "indexed": true,
          "internalType": "uint256",
          "name": "tokenId",
          "type": "uint256"
        },
        {
          "indexed": true,
          "internalType": "enum FleekAccessControl.Roles",
          "name": "role",
          "type": "uint8"
        },
        {
          "indexed": true,
          "internalType": "address",
          "name": "toAddress",
          "type": "address"
        },
        {
          "indexed": false,
          "internalType": "address",
          "name": "byAddress",
          "type": "address"
        }
      ],
      "name": "TokenRoleRevoked",
      "type": "event"
    },
    {
      "anonymous": false,
      "inputs": [
        {
          "indexed": true,
          "internalType": "address",
          "name": "from",
          "type": "address"
        },
        {
          "indexed": true,
          "internalType": "address",
          "name": "to",
          "type": "address"
        },
        {
          "indexed": true,
          "internalType": "uint256",
          "name": "tokenId",
          "type": "uint256"
        }
      ],
      "name": "Transfer",
      "type": "event"
    },
    {
      "inputs": [
        {
          "internalType": "address",
          "name": "to",
          "type": "address"
        },
        {
          "internalType": "uint256",
          "name": "tokenId",
          "type": "uint256"
        }
      ],
      "name": "approve",
      "outputs": [],
      "stateMutability": "nonpayable",
      "type": "function"
    },
    {
      "inputs": [
        {
          "internalType": "address",
          "name": "owner",
          "type": "address"
        }
      ],
      "name": "balanceOf",
      "outputs": [
        {
          "internalType": "uint256",
          "name": "",
          "type": "uint256"
        }
      ],
      "stateMutability": "view",
      "type": "function"
    },
    {
      "inputs": [
        {
          "internalType": "uint256",
          "name": "tokenId",
          "type": "uint256"
        }
      ],
      "name": "burn",
      "outputs": [],
      "stateMutability": "nonpayable",
      "type": "function"
    },
    {
      "inputs": [
        {
          "internalType": "uint256",
          "name": "tokenId",
          "type": "uint256"
        }
      ],
      "name": "getApproved",
      "outputs": [
        {
          "internalType": "address",
          "name": "",
          "type": "address"
        }
      ],
      "stateMutability": "view",
      "type": "function"
    },
    {
      "inputs": [
        {
          "internalType": "enum FleekAccessControl.Roles",
          "name": "role",
          "type": "uint8"
        }
      ],
      "name": "getCollectionRoleMembers",
      "outputs": [
        {
          "internalType": "address[]",
          "name": "",
          "type": "address[]"
        }
      ],
      "stateMutability": "view",
      "type": "function"
    },
    {
      "inputs": [
        {
          "internalType": "uint256",
          "name": "tokenId",
          "type": "uint256"
        },
        {
          "internalType": "enum FleekAccessControl.Roles",
          "name": "role",
          "type": "uint8"
        }
      ],
      "name": "getTokenRoleMembers",
      "outputs": [
        {
          "internalType": "address[]",
          "name": "",
          "type": "address[]"
        }
      ],
      "stateMutability": "view",
      "type": "function"
    },
    {
      "inputs": [
        {
          "internalType": "enum FleekAccessControl.Roles",
          "name": "role",
          "type": "uint8"
        },
        {
          "internalType": "address",
          "name": "account",
          "type": "address"
        }
      ],
      "name": "grantCollectionRole",
      "outputs": [],
      "stateMutability": "nonpayable",
      "type": "function"
    },
    {
      "inputs": [
        {
          "internalType": "uint256",
          "name": "tokenId",
          "type": "uint256"
        },
        {
          "internalType": "enum FleekAccessControl.Roles",
          "name": "role",
          "type": "uint8"
        },
        {
          "internalType": "address",
          "name": "account",
          "type": "address"
        }
      ],
      "name": "grantTokenRole",
      "outputs": [],
      "stateMutability": "nonpayable",
      "type": "function"
    },
    {
      "inputs": [
        {
          "internalType": "enum FleekAccessControl.Roles",
          "name": "role",
          "type": "uint8"
        },
        {
          "internalType": "address",
          "name": "account",
          "type": "address"
        }
      ],
      "name": "hasCollectionRole",
      "outputs": [
        {
          "internalType": "bool",
          "name": "",
          "type": "bool"
        }
      ],
      "stateMutability": "view",
      "type": "function"
    },
    {
      "inputs": [
        {
          "internalType": "uint256",
          "name": "tokenId",
          "type": "uint256"
        },
        {
          "internalType": "enum FleekAccessControl.Roles",
          "name": "role",
          "type": "uint8"
        },
        {
          "internalType": "address",
          "name": "account",
          "type": "address"
        }
      ],
      "name": "hasTokenRole",
      "outputs": [
        {
          "internalType": "bool",
          "name": "",
          "type": "bool"
        }
      ],
      "stateMutability": "view",
      "type": "function"
    },
    {
      "inputs": [
        {
          "internalType": "address",
          "name": "owner",
          "type": "address"
        },
        {
          "internalType": "address",
          "name": "operator",
          "type": "address"
        }
      ],
      "name": "isApprovedForAll",
      "outputs": [
        {
          "internalType": "bool",
          "name": "",
          "type": "bool"
        }
      ],
      "stateMutability": "view",
      "type": "function"
    },
    {
      "inputs": [
        {
          "internalType": "address",
          "name": "to",
          "type": "address"
        },
        {
          "internalType": "string",
          "name": "name",
          "type": "string"
        },
        {
          "internalType": "string",
          "name": "description",
          "type": "string"
        },
        {
          "internalType": "string",
          "name": "image",
          "type": "string"
        },
        {
          "internalType": "string",
          "name": "externalURL",
          "type": "string"
        },
        {
          "internalType": "string",
          "name": "ENS",
          "type": "string"
        },
        {
          "internalType": "string",
          "name": "commitHash",
          "type": "string"
        },
        {
          "internalType": "string",
          "name": "gitRepository",
          "type": "string"
        }
      ],
      "name": "mint",
      "outputs": [
        {
          "internalType": "uint256",
          "name": "",
          "type": "uint256"
        }
      ],
      "stateMutability": "payable",
      "type": "function"
    },
    {
      "inputs": [],
      "name": "name",
      "outputs": [
        {
          "internalType": "string",
          "name": "",
          "type": "string"
        }
      ],
      "stateMutability": "view",
      "type": "function"
    },
    {
      "inputs": [
        {
          "internalType": "uint256",
          "name": "tokenId",
          "type": "uint256"
        }
      ],
      "name": "ownerOf",
      "outputs": [
        {
          "internalType": "address",
          "name": "",
          "type": "address"
        }
      ],
      "stateMutability": "view",
      "type": "function"
    },
    {
      "inputs": [
        {
          "internalType": "enum FleekAccessControl.Roles",
          "name": "role",
          "type": "uint8"
        },
        {
          "internalType": "address",
          "name": "account",
          "type": "address"
        }
      ],
      "name": "revokeCollectionRole",
      "outputs": [],
      "stateMutability": "nonpayable",
      "type": "function"
    },
    {
      "inputs": [
        {
          "internalType": "uint256",
          "name": "tokenId",
          "type": "uint256"
        },
        {
          "internalType": "enum FleekAccessControl.Roles",
          "name": "role",
          "type": "uint8"
        },
        {
          "internalType": "address",
          "name": "account",
          "type": "address"
        }
      ],
      "name": "revokeTokenRole",
      "outputs": [],
      "stateMutability": "nonpayable",
      "type": "function"
    },
    {
      "inputs": [
        {
          "internalType": "address",
          "name": "from",
          "type": "address"
        },
        {
          "internalType": "address",
          "name": "to",
          "type": "address"
        },
        {
          "internalType": "uint256",
          "name": "tokenId",
          "type": "uint256"
        }
      ],
      "name": "safeTransferFrom",
      "outputs": [],
      "stateMutability": "nonpayable",
      "type": "function"
    },
    {
      "inputs": [
        {
          "internalType": "address",
          "name": "from",
          "type": "address"
        },
        {
          "internalType": "address",
          "name": "to",
          "type": "address"
        },
        {
          "internalType": "uint256",
          "name": "tokenId",
          "type": "uint256"
        },
        {
          "internalType": "bytes",
          "name": "data",
          "type": "bytes"
        }
      ],
      "name": "safeTransferFrom",
      "outputs": [],
      "stateMutability": "nonpayable",
      "type": "function"
    },
    {
      "inputs": [
        {
          "internalType": "address",
          "name": "operator",
          "type": "address"
        },
        {
          "internalType": "bool",
          "name": "approved",
          "type": "bool"
        }
      ],
      "name": "setApprovalForAll",
      "outputs": [],
      "stateMutability": "nonpayable",
      "type": "function"
    },
    {
      "inputs": [
        {
          "internalType": "uint256",
          "name": "tokenId",
          "type": "uint256"
        },
        {
          "internalType": "string",
          "name": "_commitHash",
          "type": "string"
        },
        {
          "internalType": "string",
          "name": "_gitRepository",
          "type": "string"
        }
      ],
      "name": "setTokenBuild",
      "outputs": [],
      "stateMutability": "nonpayable",
      "type": "function"
    },
    {
      "inputs": [
        {
          "internalType": "uint256",
          "name": "tokenId",
          "type": "uint256"
        },
        {
          "internalType": "string",
          "name": "_tokenDescription",
          "type": "string"
        }
      ],
      "name": "setTokenDescription",
      "outputs": [],
      "stateMutability": "nonpayable",
      "type": "function"
    },
    {
      "inputs": [
        {
          "internalType": "uint256",
          "name": "tokenId",
          "type": "uint256"
        },
        {
          "internalType": "string",
          "name": "_tokenENS",
          "type": "string"
        }
      ],
      "name": "setTokenENS",
      "outputs": [],
      "stateMutability": "nonpayable",
      "type": "function"
    },
    {
      "inputs": [
        {
          "internalType": "uint256",
          "name": "tokenId",
          "type": "uint256"
        },
        {
          "internalType": "string",
          "name": "_tokenExternalURL",
          "type": "string"
        }
      ],
      "name": "setTokenExternalURL",
      "outputs": [],
      "stateMutability": "nonpayable",
      "type": "function"
    },
    {
      "inputs": [
        {
          "internalType": "uint256",
          "name": "tokenId",
          "type": "uint256"
        },
        {
          "internalType": "string",
          "name": "_tokenImage",
          "type": "string"
        }
      ],
      "name": "setTokenImage",
      "outputs": [],
      "stateMutability": "nonpayable",
      "type": "function"
    },
    {
      "inputs": [
        {
          "internalType": "uint256",
          "name": "tokenId",
          "type": "uint256"
        },
        {
          "internalType": "string",
          "name": "_tokenName",
          "type": "string"
        }
      ],
      "name": "setTokenName",
      "outputs": [],
      "stateMutability": "nonpayable",
      "type": "function"
    },
    {
      "inputs": [
        {
          "internalType": "bytes4",
          "name": "interfaceId",
          "type": "bytes4"
        }
      ],
      "name": "supportsInterface",
      "outputs": [
        {
          "internalType": "bool",
          "name": "",
          "type": "bool"
        }
      ],
      "stateMutability": "view",
      "type": "function"
    },
    {
      "inputs": [],
      "name": "symbol",
      "outputs": [
        {
          "internalType": "string",
          "name": "",
          "type": "string"
        }
      ],
      "stateMutability": "view",
      "type": "function"
    },
    {
      "inputs": [
        {
          "internalType": "uint256",
          "name": "tokenId",
          "type": "uint256"
        }
      ],
      "name": "tokenURI",
      "outputs": [
        {
          "internalType": "string",
          "name": "",
          "type": "string"
        }
      ],
      "stateMutability": "view",
      "type": "function"
    },
    {
      "inputs": [
        {
          "internalType": "address",
          "name": "from",
          "type": "address"
        },
        {
          "internalType": "address",
          "name": "to",
          "type": "address"
        },
        {
          "internalType": "uint256",
          "name": "tokenId",
          "type": "uint256"
        }
      ],
      "name": "transferFrom",
      "outputs": [],
      "stateMutability": "nonpayable",
      "type": "function"
    }
  ],
  "bytecode": "0x60806040523480156200001157600080fd5b5060405162005da238038062005da28339818101604052810190620000379190620003ab565b81818160009080519060200190620000519291906200027d565b5080600190805190602001906200006a9291906200027d565b505050620000806000336200008860201b60201c565b505062000645565b6000620000a160066200016d60201b62001bf11760201c565b905062000102600760008381526020019081526020016000206000856001811115620000d257620000d162000593565b5b6001811115620000e757620000e662000593565b5b8152602001908152602001600020836200017b60201b60201c565b8173ffffffffffffffffffffffffffffffffffffffff168360018111156200012f576200012e62000593565b5b7fcf081ed2b728e3115904be00eb8927b2375ff3401839b37f7accfa1bb2bee15c3360405162000160919062000441565b60405180910390a3505050565b600081600001549050919050565b60008260000160008373ffffffffffffffffffffffffffffffffffffffff1673ffffffffffffffffffffffffffffffffffffffff168152602001908152602001600020541415620002795781600101819080600181540180825580915050600190039060005260206000200160009091909190916101000a81548173ffffffffffffffffffffffffffffffffffffffff021916908373ffffffffffffffffffffffffffffffffffffffff16021790555081600101805490508260000160008373ffffffffffffffffffffffffffffffffffffffff1673ffffffffffffffffffffffffffffffffffffffff168152602001908152602001600020819055505b5050565b8280546200028b9062000527565b90600052602060002090601f016020900481019282620002af5760008555620002fb565b82601f10620002ca57805160ff1916838001178555620002fb565b82800160010185558215620002fb579182015b82811115620002fa578251825591602001919060010190620002dd565b5b5090506200030a91906200030e565b5090565b5b80821115620003295760008160009055506001016200030f565b5090565b6000620003446200033e8462000487565b6200045e565b90508281526020810184848401111562000363576200036262000625565b5b62000370848285620004f1565b509392505050565b600082601f83011262000390576200038f62000620565b5b8151620003a28482602086016200032d565b91505092915050565b60008060408385031215620003c557620003c46200062f565b5b600083015167ffffffffffffffff811115620003e657620003e56200062a565b5b620003f48582860162000378565b925050602083015167ffffffffffffffff8111156200041857620004176200062a565b5b620004268582860162000378565b9150509250929050565b6200043b81620004bd565b82525050565b600060208201905062000458600083018462000430565b92915050565b60006200046a6200047d565b90506200047882826200055d565b919050565b6000604051905090565b600067ffffffffffffffff821115620004a557620004a4620005f1565b5b620004b08262000634565b9050602081019050919050565b6000620004ca82620004d1565b9050919050565b600073ffffffffffffffffffffffffffffffffffffffff82169050919050565b60005b8381101562000511578082015181840152602081019050620004f4565b8381111562000521576000848401525b50505050565b600060028204905060018216806200054057607f821691505b60208210811415620005575762000556620005c2565b5b50919050565b620005688262000634565b810181811067ffffffffffffffff821117156200058a5762000589620005f1565b5b80604052505050565b7f4e487b7100000000000000000000000000000000000000000000000000000000600052602160045260246000fd5b7f4e487b7100000000000000000000000000000000000000000000000000000000600052602260045260246000fd5b7f4e487b7100000000000000000000000000000000000000000000000000000000600052604160045260246000fd5b600080fd5b600080fd5b600080fd5b600080fd5b6000601f19601f8301169050919050565b61574d80620006556000396000f3fe6080604052600436106101c25760003560e01c806364140ec0116100f7578063b42dbe3811610095578063cdb0e89e11610064578063cdb0e89e14610673578063e94472501461069c578063e985e9c5146106d9578063f931517714610716576101c2565b8063b42dbe38146105a0578063b543be12146105dd578063b88d4fde1461060d578063c87b56dd14610636576101c2565b80638c3c0a44116100d15780638c3c0a44146104fa57806395d89b4114610523578063a22cb4651461054e578063a27d0b2714610577576101c2565b806364140ec01461046b57806370a082311461049457806378278cca146104d1576101c2565b80632d957aad116101645780633806f1521161013e5780633806f152146103b357806342842e0e146103dc57806342966c68146104055780636352211e1461042e576101c2565b80632d957aad146103105780632f1e8f0a14610339578063353b07a414610376576101c2565b8063081812fc116101a0578063081812fc14610258578063095ea7b31461029557806323b872dd146102be578063246a908b146102e7576101c2565b806301468deb146101c757806301ffc9a7146101f057806306fdde031461022d575b600080fd5b3480156101d357600080fd5b506101ee60048036038101906101e99190613f39565b61073f565b005b3480156101fc57600080fd5b5061021760048036038101906102129190613e05565b6107b1565b6040516102249190614896565b60405180910390f35b34801561023957600080fd5b506102426107c3565b60405161024f91906148b1565b60405180910390f35b34801561026457600080fd5b5061027f600480360381019061027a9190613ecc565b610855565b60405161028c919061480d565b60405180910390f35b3480156102a157600080fd5b506102bc60048036038101906102b79190613dc5565b61089b565b005b3480156102ca57600080fd5b506102e560048036038101906102e09190613b35565b6109b3565b005b3480156102f357600080fd5b5061030e60048036038101906103099190613f8c565b610a13565b005b34801561031c57600080fd5b5061033760048036038101906103329190613e8c565b610b07565b005b34801561034557600080fd5b50610360600480360381019061035b9190613ef9565b610b73565b60405161036d9190614874565b60405180910390f35b34801561038257600080fd5b5061039d60048036038101906103989190613e5f565b610c7e565b6040516103aa9190614874565b60405180910390f35b3480156103bf57600080fd5b506103da60048036038101906103d59190613fe8565b610d66565b005b3480156103e857600080fd5b5061040360048036038101906103fe9190613b35565b610ed1565b005b34801561041157600080fd5b5061042c60048036038101906104279190613ecc565b610ef1565b005b34801561043a57600080fd5b5061045560048036038101906104509190613ecc565b610ff8565b604051610462919061480d565b60405180910390f35b34801561047757600080fd5b50610492600480360381019061048d9190613f8c565b61107f565b005b3480156104a057600080fd5b506104bb60048036038101906104b69190613ac8565b611173565b6040516104c89190614a93565b60405180910390f35b3480156104dd57600080fd5b506104f860048036038101906104f39190613f8c565b61122b565b005b34801561050657600080fd5b50610521600480360381019061051c9190613e8c565b61131f565b005b34801561052f57600080fd5b5061053861138b565b60405161054591906148b1565b60405180910390f35b34801561055a57600080fd5b5061057560048036038101906105709190613c0b565b61141d565b005b34801561058357600080fd5b5061059e60048036038101906105999190613f39565b611433565b005b3480156105ac57600080fd5b506105c760048036038101906105c29190613f39565b6114a5565b6040516105d49190614896565b60405180910390f35b6105f760048036038101906105f29190613c4b565b61156d565b6040516106049190614a93565b60405180910390f35b34801561061957600080fd5b50610634600480360381019061062f9190613b88565b61175f565b005b34801561064257600080fd5b5061065d60048036038101906106589190613ecc565b6117c1565b60405161066a91906148b1565b60405180910390f35b34801561067f57600080fd5b5061069a60048036038101906106959190613f8c565b6118d0565b005b3480156106a857600080fd5b506106c360048036038101906106be9190613e8c565b6119c4565b6040516106d09190614896565b60405180910390f35b3480156106e557600080fd5b5061070060048036038101906106fb9190613af5565b611a69565b60405161070d9190614896565b60405180910390f35b34801561072257600080fd5b5061073d60048036038101906107389190613f8c565b611afd565b005b82600061074d8282336114a5565b80610760575061075f826000336114a5565b5b61079f576040517f08c379a000000000000000000000000000000000000000000000000000000000815260040161079690614a73565b60405180910390fd5b6107aa858585611bff565b5050505050565b60006107bc82611ce8565b9050919050565b6060600080546107d290614dbb565b80601f01602080910402602001604051908101604052809291908181526020018280546107fe90614dbb565b801561084b5780601f106108205761010080835404028352916020019161084b565b820191906000526020600020905b81548152906001019060200180831161082e57829003601f168201915b5050505050905090565b600061086082611dca565b6004600083815260200190815260200160002060009054906101000a900473ffffffffffffffffffffffffffffffffffffffff169050919050565b60006108a682610ff8565b90508073ffffffffffffffffffffffffffffffffffffffff168373ffffffffffffffffffffffffffffffffffffffff161415610917576040517f08c379a000000000000000000000000000000000000000000000000000000000815260040161090e90614a33565b60405180910390fd5b8073ffffffffffffffffffffffffffffffffffffffff16610936611e15565b73ffffffffffffffffffffffffffffffffffffffff16148061096557506109648161095f611e15565b611a69565b5b6109a4576040517f08c379a000000000000000000000000000000000000000000000000000000000815260040161099b90614a53565b60405180910390fd5b6109ae8383611e1d565b505050565b6109c46109be611e15565b82611ed6565b610a03576040517f08c379a00000000000000000000000000000000000000000000000000000000081526004016109fa906148f3565b60405180910390fd5b610a0e838383611f6b565b505050565b816001610a218282336114a5565b80610a345750610a33826000336114a5565b5b610a73576040517f08c379a0000000000000000000000000000000000000000000000000000000008152600401610a6a90614a73565b60405180910390fd5b610a7c84611dca565b82600b60008681526020019081526020016000206001019080519060200190610aa6929190613887565b503373ffffffffffffffffffffffffffffffffffffffff1683604051610acc9190614661565b6040518091039020857fd771eaa1c1382b0a9867125fcd921fdeddd211538b5381353a877abfbe3b50a460405160405180910390a450505050565b6000610b1381336119c4565b80610b255750610b246000336119c4565b5b610b64576040517f08c379a0000000000000000000000000000000000000000000000000000000008152600401610b5b90614973565b60405180910390fd5b610b6e8383612265565b505050565b60606000610b9260086000868152602001908152602001600020611bf1565b90506009600085815260200190815260200160002060008281526020019081526020016000206000846001811115610bcd57610bcc614ec5565b5b6001811115610bdf57610bde614ec5565b5b8152602001908152602001600020600101805480602002602001604051908101604052809291908181526020018280548015610c7057602002820191906000526020600020905b8160009054906101000a900473ffffffffffffffffffffffffffffffffffffffff1673ffffffffffffffffffffffffffffffffffffffff1681526020019060010190808311610c26575b505050505091505092915050565b60606000610c8c6006611bf1565b9050600760008281526020019081526020016000206000846001811115610cb657610cb5614ec5565b5b6001811115610cc857610cc7614ec5565b5b8152602001908152602001600020600101805480602002602001604051908101604052809291908181526020018280548015610d5957602002820191906000526020600020905b8160009054906101000a900473ffffffffffffffffffffffffffffffffffffffff1673ffffffffffffffffffffffffffffffffffffffff1681526020019060010190808311610d0f575b5050505050915050919050565b826001610d748282336114a5565b80610d875750610d86826000336114a5565b5b610dc6576040517f08c379a0000000000000000000000000000000000000000000000000000000008152600401610dbd90614a73565b60405180910390fd5b610dcf85611dca565b604051806040016040528085815260200184815250600b60008781526020019081526020016000206006016000600b600089815260200190815260200160002060050160008154610e1f90614e1e565b91905081905581526020019081526020016000206000820151816000019080519060200190610e4f929190613887565b506020820151816001019080519060200190610e6c929190613887565b509050503373ffffffffffffffffffffffffffffffffffffffff1684604051610e959190614661565b6040518091039020867f73b929bf4db6be678cdbc6d41a5fe0a2cbb84ca95572062c4a978d8bd80a41b160405160405180910390a45050505050565b610eec8383836040518060200160405280600081525061175f565b505050565b806000610eff8282336114a5565b80610f125750610f11826000336114a5565b5b610f51576040517f08c379a0000000000000000000000000000000000000000000000000000000008152600401610f4890614a73565b60405180910390fd5b610f5a8361232a565b6000600b60008581526020019081526020016000206003018054610f7d90614dbb565b905014610ff357600b600084815260200190815260200160002060008082016000610fa8919061390d565b600182016000610fb8919061390d565b600282016000610fc8919061390d565b600382016000610fd8919061390d565b600482016000610fe8919061390d565b600582016000905550505b505050565b60008061100483612478565b9050600073ffffffffffffffffffffffffffffffffffffffff168173ffffffffffffffffffffffffffffffffffffffff161415611076576040517f08c379a000000000000000000000000000000000000000000000000000000000815260040161106d90614a13565b60405180910390fd5b80915050919050565b81600161108d8282336114a5565b806110a0575061109f826000336114a5565b5b6110df576040517f08c379a00000000000000000000000000000000000000000000000000000000081526004016110d690614a73565b60405180910390fd5b6110e884611dca565b82600b60008681526020019081526020016000206002019080519060200190611112929190613887565b503373ffffffffffffffffffffffffffffffffffffffff16836040516111389190614661565b6040518091039020857f80f081796a13b5a4269815447e37462c5739a69ea7f1460301b595e0c4003d8360405160405180910390a450505050565b60008073ffffffffffffffffffffffffffffffffffffffff168273ffffffffffffffffffffffffffffffffffffffff1614156111e4576040517f08c379a00000000000000000000000000000000000000000000000000000000081526004016111db906149d3565b60405180910390fd5b600360008373ffffffffffffffffffffffffffffffffffffffff1673ffffffffffffffffffffffffffffffffffffffff168152602001908152602001600020549050919050565b8160016112398282336114a5565b8061124c575061124b826000336114a5565b5b61128b576040517f08c379a000000000000000000000000000000000000000000000000000000000815260040161128290614a73565b60405180910390fd5b61129484611dca565b82600b600086815260200190815260200160002060040190805190602001906112be929190613887565b503373ffffffffffffffffffffffffffffffffffffffff16836040516112e49190614661565b6040518091039020857f91ce7fcd4462481791c3fe849f7049373c5b43ef44aed48e7f1ecce781586e1560405160405180910390a450505050565b600061132b81336119c4565b8061133d575061133c6000336119c4565b5b61137c576040517f08c379a000000000000000000000000000000000000000000000000000000000815260040161137390614973565b60405180910390fd5b61138683836124b5565b505050565b60606001805461139a90614dbb565b80601f01602080910402602001604051908101604052809291908181526020018280546113c690614dbb565b80156114135780601f106113e857610100808354040283529160200191611413565b820191906000526020600020905b8154815290600101906020018083116113f657829003601f168201915b5050505050905090565b61142f611428611e15565b838361257a565b5050565b8260006114418282336114a5565b806114545750611453826000336114a5565b5b611493576040517f08c379a000000000000000000000000000000000000000000000000000000000815260040161148a90614a73565b60405180910390fd5b61149e8585856126e7565b5050505050565b6000806114c360086000878152602001908152602001600020611bf1565b905060006009600087815260200190815260200160002060008381526020019081526020016000206000866001811115611500576114ff614ec5565b5b600181111561151257611511614ec5565b5b815260200190815260200160002060000160008573ffffffffffffffffffffffffffffffffffffffff1673ffffffffffffffffffffffffffffffffffffffff1681526020019081526020016000205414159150509392505050565b60008061157a81336119c4565b8061158c575061158b6000336119c4565b5b6115cb576040517f08c379a00000000000000000000000000000000000000000000000000000000081526004016115c290614973565b60405180910390fd5b60006115d7600a611bf1565b90506115e38b826127d0565b6115ed600a6129ee565b6000600b600083815260200190815260200160002090508a81600001908051906020019061161c929190613887565b5089816001019080519060200190611635929190613887565b508881600201908051906020019061164e929190613887565b5087816003019080519060200190611667929190613887565b5086816004019080519060200190611680929190613887565b506000816005018190555060405180604001604052808781526020018681525081600601600080815260200190815260200160002060008201518160000190805190602001906116d1929190613887565b5060208201518160010190805190602001906116ee929190613887565b509050503373ffffffffffffffffffffffffffffffffffffffff168c73ffffffffffffffffffffffffffffffffffffffff16837f2b319e5f508e6088cda837890a32c32fd72f99295fb6f7d14522e19f4241d7b560405160405180910390a481935050505098975050505050505050565b61177061176a611e15565b83611ed6565b6117af576040517f08c379a00000000000000000000000000000000000000000000000000000000081526004016117a6906148f3565b60405180910390fd5b6117bb84848484612a04565b50505050565b60606117cc82611dca565b60006117d783610ff8565b90506000600b600085815260200190815260200160002090506000816000018260010161181b8573ffffffffffffffffffffffffffffffffffffffff166014612a60565b846003018560020186600401876006016000896005015481526020019081526020016000206000018860060160008a60050154815260200190815260200160002060010161186c8a60050154612c9c565b6040516020016118849998979695949392919061469c565b604051602081830303815290604052905061189d612d74565b6118a682612db1565b6040516020016118b7929190614678565b6040516020818303038152906040529350505050919050565b8160016118de8282336114a5565b806118f157506118f0826000336114a5565b5b611930576040517f08c379a000000000000000000000000000000000000000000000000000000000815260040161192790614a73565b60405180910390fd5b61193984611dca565b82600b60008681526020019081526020016000206000019080519060200190611963929190613887565b503373ffffffffffffffffffffffffffffffffffffffff16836040516119899190614661565b6040518091039020857ffbbfca16a2770c7ca6e7063ab1a7eea5fe441ffef818325db51752066a6b128a60405160405180910390a450505050565b6000806119d16006611bf1565b905060006007600083815260200190815260200160002060008660018111156119fd576119fc614ec5565b5b6001811115611a0f57611a0e614ec5565b5b815260200190815260200160002060000160008573ffffffffffffffffffffffffffffffffffffffff1673ffffffffffffffffffffffffffffffffffffffff16815260200190815260200160002054141591505092915050565b6000600560008473ffffffffffffffffffffffffffffffffffffffff1673ffffffffffffffffffffffffffffffffffffffff16815260200190815260200160002060008373ffffffffffffffffffffffffffffffffffffffff1673ffffffffffffffffffffffffffffffffffffffff16815260200190815260200160002060009054906101000a900460ff16905092915050565b816001611b0b8282336114a5565b80611b1e5750611b1d826000336114a5565b5b611b5d576040517f08c379a0000000000000000000000000000000000000000000000000000000008152600401611b5490614a73565b60405180910390fd5b611b6684611dca565b82600b60008681526020019081526020016000206003019080519060200190611b90929190613887565b503373ffffffffffffffffffffffffffffffffffffffff1683604051611bb69190614661565b6040518091039020857fedbf1209b3baa7c1b5c43052ce5c511e243b3241d9f67733141d14f1da88cba160405160405180910390a450505050565b600081600001549050919050565b6000611c1c60086000868152602001908152602001600020611bf1565b9050611c806009600086815260200190815260200160002060008381526020019081526020016000206000856001811115611c5a57611c59614ec5565b5b6001811115611c6c57611c6b614ec5565b5b815260200190815260200160002083612f15565b8173ffffffffffffffffffffffffffffffffffffffff16836001811115611caa57611ca9614ec5565b5b857fe52d746e4c78c98c6bfa291b273406905c3e8550b7d911a6bea686368c2dc79d33604051611cda919061480d565b60405180910390a450505050565b60007f80ac58cd000000000000000000000000000000000000000000000000000000007bffffffffffffffffffffffffffffffffffffffffffffffffffffffff1916827bffffffffffffffffffffffffffffffffffffffffffffffffffffffff19161480611db357507f5b5e139f000000000000000000000000000000000000000000000000000000007bffffffffffffffffffffffffffffffffffffffffffffffffffffffff1916827bffffffffffffffffffffffffffffffffffffffffffffffffffffffff1916145b80611dc35750611dc282613154565b5b9050919050565b611dd3816131be565b611e12576040517f08c379a0000000000000000000000000000000000000000000000000000000008152600401611e0990614a13565b60405180910390fd5b50565b600033905090565b816004600083815260200190815260200160002060006101000a81548173ffffffffffffffffffffffffffffffffffffffff021916908373ffffffffffffffffffffffffffffffffffffffff160217905550808273ffffffffffffffffffffffffffffffffffffffff16611e9083610ff8565b73ffffffffffffffffffffffffffffffffffffffff167f8c5be1e5ebec7d5bd14f71427d1e84f3dd0314c0f7b2291e5b200ac8c7c3b92560405160405180910390a45050565b600080611ee283610ff8565b90508073ffffffffffffffffffffffffffffffffffffffff168473ffffffffffffffffffffffffffffffffffffffff161480611f245750611f238185611a69565b5b80611f6257508373ffffffffffffffffffffffffffffffffffffffff16611f4a84610855565b73ffffffffffffffffffffffffffffffffffffffff16145b91505092915050565b8273ffffffffffffffffffffffffffffffffffffffff16611f8b82610ff8565b73ffffffffffffffffffffffffffffffffffffffff1614611fe1576040517f08c379a0000000000000000000000000000000000000000000000000000000008152600401611fd890614933565b60405180910390fd5b600073ffffffffffffffffffffffffffffffffffffffff168273ffffffffffffffffffffffffffffffffffffffff161415612051576040517f08c379a000000000000000000000000000000000000000000000000000000000815260040161204890614993565b60405180910390fd5b61205e83838360016131ff565b8273ffffffffffffffffffffffffffffffffffffffff1661207e82610ff8565b73ffffffffffffffffffffffffffffffffffffffff16146120d4576040517f08c379a00000000000000000000000000000000000000000000000000000000081526004016120cb90614933565b60405180910390fd5b6004600082815260200190815260200160002060006101000a81549073ffffffffffffffffffffffffffffffffffffffff02191690556001600360008573ffffffffffffffffffffffffffffffffffffffff1673ffffffffffffffffffffffffffffffffffffffff168152602001908152602001600020600082825403925050819055506001600360008473ffffffffffffffffffffffffffffffffffffffff1673ffffffffffffffffffffffffffffffffffffffff16815260200190815260200160002060008282540192505081905550816002600083815260200190815260200160002060006101000a81548173ffffffffffffffffffffffffffffffffffffffff021916908373ffffffffffffffffffffffffffffffffffffffff160217905550808273ffffffffffffffffffffffffffffffffffffffff168473ffffffffffffffffffffffffffffffffffffffff167fddf252ad1be2c89b69c2b068fc378daa952ba7f163c4a11628f55a4df523b3ef60405160405180910390a46122608383836001613316565b505050565b60006122716006611bf1565b90506122c460076000838152602001908152602001600020600085600181111561229e5761229d614ec5565b5b60018111156122b0576122af614ec5565b5b81526020019081526020016000208361331c565b8173ffffffffffffffffffffffffffffffffffffffff168360018111156122ee576122ed614ec5565b5b7fcf081ed2b728e3115904be00eb8927b2375ff3401839b37f7accfa1bb2bee15c3360405161231d919061480d565b60405180910390a3505050565b600061233582610ff8565b90506123458160008460016131ff565b61234e82610ff8565b90506004600083815260200190815260200160002060006101000a81549073ffffffffffffffffffffffffffffffffffffffff02191690556001600360008373ffffffffffffffffffffffffffffffffffffffff1673ffffffffffffffffffffffffffffffffffffffff168152602001908152602001600020600082825403925050819055506002600083815260200190815260200160002060006101000a81549073ffffffffffffffffffffffffffffffffffffffff021916905581600073ffffffffffffffffffffffffffffffffffffffff168273ffffffffffffffffffffffffffffffffffffffff167fddf252ad1be2c89b69c2b068fc378daa952ba7f163c4a11628f55a4df523b3ef60405160405180910390a4612474816000846001613316565b5050565b60006002600083815260200190815260200160002060009054906101000a900473ffffffffffffffffffffffffffffffffffffffff169050919050565b60006124c16006611bf1565b90506125146007600083815260200190815260200160002060008560018111156124ee576124ed614ec5565b5b6001811115612500576124ff614ec5565b5b815260200190815260200160002083612f15565b8173ffffffffffffffffffffffffffffffffffffffff1683600181111561253e5761253d614ec5565b5b7faeff57f0f5e4d3d10a37d4a70fde8ed67a95e67b251d5c512c0ea98c380d2f953360405161256d919061480d565b60405180910390a3505050565b8173ffffffffffffffffffffffffffffffffffffffff168373ffffffffffffffffffffffffffffffffffffffff1614156125e9576040517f08c379a00000000000000000000000000000000000000000000000000000000081526004016125e0906149b3565b60405180910390fd5b80600560008573ffffffffffffffffffffffffffffffffffffffff1673ffffffffffffffffffffffffffffffffffffffff16815260200190815260200160002060008473ffffffffffffffffffffffffffffffffffffffff1673ffffffffffffffffffffffffffffffffffffffff16815260200190815260200160002060006101000a81548160ff0219169083151502179055508173ffffffffffffffffffffffffffffffffffffffff168373ffffffffffffffffffffffffffffffffffffffff167f17307eab39ab6107e8899845ad3d59bd9653f200f220920489ca2b5937696c31836040516126da9190614896565b60405180910390a3505050565b600061270460086000868152602001908152602001600020611bf1565b9050612768600960008681526020019081526020016000206000838152602001908152602001600020600085600181111561274257612741614ec5565b5b600181111561275457612753614ec5565b5b81526020019081526020016000208361331c565b8173ffffffffffffffffffffffffffffffffffffffff1683600181111561279257612791614ec5565b5b857f0bf5a13b362503fcc74b8b9b1598aba2f3a9af85d05ba7978f7e9f447f22c239336040516127c2919061480d565b60405180910390a450505050565b600073ffffffffffffffffffffffffffffffffffffffff168273ffffffffffffffffffffffffffffffffffffffff161415612840576040517f08c379a0000000000000000000000000000000000000000000000000000000008152600401612837906149f3565b60405180910390fd5b612849816131be565b15612889576040517f08c379a000000000000000000000000000000000000000000000000000000000815260040161288090614953565b60405180910390fd5b6128976000838360016131ff565b6128a0816131be565b156128e0576040517f08c379a00000000000000000000000000000000000000000000000000000000081526004016128d790614953565b60405180910390fd5b6001600360008473ffffffffffffffffffffffffffffffffffffffff1673ffffffffffffffffffffffffffffffffffffffff16815260200190815260200160002060008282540192505081905550816002600083815260200190815260200160002060006101000a81548173ffffffffffffffffffffffffffffffffffffffff021916908373ffffffffffffffffffffffffffffffffffffffff160217905550808273ffffffffffffffffffffffffffffffffffffffff16600073ffffffffffffffffffffffffffffffffffffffff167fddf252ad1be2c89b69c2b068fc378daa952ba7f163c4a11628f55a4df523b3ef60405160405180910390a46129ea600083836001613316565b5050565b6001816000016000828254019250508190555050565b612a0f848484611f6b565b612a1b8484848461341d565b612a5a576040517f08c379a0000000000000000000000000000000000000000000000000000000008152600401612a5190614913565b60405180910390fd5b50505050565b606060006002836002612a739190614c4d565b612a7d9190614bc6565b67ffffffffffffffff811115612a9657612a95614f81565b5b6040519080825280601f01601f191660200182016040528015612ac85781602001600182028036833780820191505090505b5090507f300000000000000000000000000000000000000000000000000000000000000081600081518110612b0057612aff614f52565b5b60200101907effffffffffffffffffffffffffffffffffffffffffffffffffffffffffffff1916908160001a9053507f780000000000000000000000000000000000000000000000000000000000000081600181518110612b6457612b63614f52565b5b60200101907effffffffffffffffffffffffffffffffffffffffffffffffffffffffffffff1916908160001a90535060006001846002612ba49190614c4d565b612bae9190614bc6565b90505b6001811115612c4e577f3031323334353637383961626364656600000000000000000000000000000000600f861660108110612bf057612bef614f52565b5b1a60f81b828281518110612c0757612c06614f52565b5b60200101907effffffffffffffffffffffffffffffffffffffffffffffffffffffffffffff1916908160001a905350600485901c945080612c4790614d91565b9050612bb1565b5060008414612c92576040517f08c379a0000000000000000000000000000000000000000000000000000000008152600401612c89906148d3565b60405180910390fd5b8091505092915050565b606060006001612cab846135b4565b01905060008167ffffffffffffffff811115612cca57612cc9614f81565b5b6040519080825280601f01601f191660200182016040528015612cfc5781602001600182028036833780820191505090505b509050600082602001820190505b600115612d69578080600190039150507f3031323334353637383961626364656600000000000000000000000000000000600a86061a8153600a8581612d5357612d52614e96565b5b0494506000851415612d6457612d69565b612d0a565b819350505050919050565b60606040518060400160405280601d81526020017f646174613a6170706c69636174696f6e2f6a736f6e3b6261736536342c000000815250905090565b6060600082511415612dd457604051806020016040528060008152509050612f10565b60006040518060600160405280604081526020016156d86040913990506000600360028551612e039190614bc6565b612e0d9190614c1c565b6004612e199190614c4d565b67ffffffffffffffff811115612e3257612e31614f81565b5b6040519080825280601f01601f191660200182016040528015612e645781602001600182028036833780820191505090505b509050600182016020820185865187015b80821015612ed0576003820191508151603f8160121c168501518453600184019350603f81600c1c168501518453600184019350603f8160061c168501518453600184019350603f8116850151845360018401935050612e75565b5050600386510660018114612eec5760028114612eff57612f07565b603d6001830353603d6002830353612f07565b603d60018303535b50505080925050505b919050565b60008260000160008373ffffffffffffffffffffffffffffffffffffffff1673ffffffffffffffffffffffffffffffffffffffff168152602001908152602001600020541461315057600060018360000160008473ffffffffffffffffffffffffffffffffffffffff1673ffffffffffffffffffffffffffffffffffffffff16815260200190815260200160002054612fae9190614ca7565b9050600060018460010180549050612fc69190614ca7565b90506000846001018281548110612fe057612fdf614f52565b5b9060005260206000200160009054906101000a900473ffffffffffffffffffffffffffffffffffffffff1690508085600101848154811061302457613023614f52565b5b9060005260206000200160006101000a81548173ffffffffffffffffffffffffffffffffffffffff021916908373ffffffffffffffffffffffffffffffffffffffff1602179055506001836130799190614bc6565b8560000160008373ffffffffffffffffffffffffffffffffffffffff1673ffffffffffffffffffffffffffffffffffffffff16815260200190815260200160002081905550846001018054806130d2576130d1614f23565b5b6001900381819060005260206000200160006101000a81549073ffffffffffffffffffffffffffffffffffffffff021916905590558460000160008573ffffffffffffffffffffffffffffffffffffffff1673ffffffffffffffffffffffffffffffffffffffff168152602001908152602001600020600090555050505b5050565b60007f01ffc9a7000000000000000000000000000000000000000000000000000000007bffffffffffffffffffffffffffffffffffffffffffffffffffffffff1916827bffffffffffffffffffffffffffffffffffffffffffffffffffffffff1916149050919050565b60008073ffffffffffffffffffffffffffffffffffffffff166131e083612478565b73ffffffffffffffffffffffffffffffffffffffff1614159050919050565b600073ffffffffffffffffffffffffffffffffffffffff168473ffffffffffffffffffffffffffffffffffffffff16141580156132695750600073ffffffffffffffffffffffffffffffffffffffff168373ffffffffffffffffffffffffffffffffffffffff1614155b1561327d576132788284613707565b613304565b600073ffffffffffffffffffffffffffffffffffffffff168473ffffffffffffffffffffffffffffffffffffffff1614156132c3576132be826000856126e7565b613303565b600073ffffffffffffffffffffffffffffffffffffffff168373ffffffffffffffffffffffffffffffffffffffff1614156133025761330182613720565b5b5b5b6133108484848461373e565b50505050565b50505050565b60008260000160008373ffffffffffffffffffffffffffffffffffffffff1673ffffffffffffffffffffffffffffffffffffffff1681526020019081526020016000205414156134195781600101819080600181540180825580915050600190039060005260206000200160009091909190916101000a81548173ffffffffffffffffffffffffffffffffffffffff021916908373ffffffffffffffffffffffffffffffffffffffff16021790555081600101805490508260000160008373ffffffffffffffffffffffffffffffffffffffff1673ffffffffffffffffffffffffffffffffffffffff168152602001908152602001600020819055505b5050565b600061343e8473ffffffffffffffffffffffffffffffffffffffff16613864565b156135a7578373ffffffffffffffffffffffffffffffffffffffff1663150b7a02613467611e15565b8786866040518563ffffffff1660e01b81526004016134899493929190614828565b602060405180830381600087803b1580156134a357600080fd5b505af19250505080156134d457506040513d601f19601f820116820180604052508101906134d19190613e32565b60015b613557573d8060008114613504576040519150601f19603f3d011682016040523d82523d6000602084013e613509565b606091505b5060008151141561354f576040517f08c379a000000000000000000000000000000000000000000000000000000000815260040161354690614913565b60405180910390fd5b805181602001fd5b63150b7a0260e01b7bffffffffffffffffffffffffffffffffffffffffffffffffffffffff1916817bffffffffffffffffffffffffffffffffffffffffffffffffffffffff1916149150506135ac565b600190505b949350505050565b600080600090507a184f03e93ff9f4daa797ed6e38ed64bf6a1f0100000000000000008310613612577a184f03e93ff9f4daa797ed6e38ed64bf6a1f010000000000000000838161360857613607614e96565b5b0492506040810190505b6d04ee2d6d415b85acef8100000000831061364f576d04ee2d6d415b85acef8100000000838161364557613644614e96565b5b0492506020810190505b662386f26fc10000831061367e57662386f26fc10000838161367457613673614e96565b5b0492506010810190505b6305f5e10083106136a7576305f5e100838161369d5761369c614e96565b5b0492506008810190505b61271083106136cc5761271083816136c2576136c1614e96565b5b0492506004810190505b606483106136ef57606483816136e5576136e4614e96565b5b0492506002810190505b600a83106136fe576001810190505b80915050919050565b61371082613720565b61371c826000836126e7565b5050565b61373b600860008381526020019081526020016000206129ee565b50565b600181111561385e57600073ffffffffffffffffffffffffffffffffffffffff168473ffffffffffffffffffffffffffffffffffffffff16146137d25780600360008673ffffffffffffffffffffffffffffffffffffffff1673ffffffffffffffffffffffffffffffffffffffff16815260200190815260200160002060008282546137ca9190614ca7565b925050819055505b600073ffffffffffffffffffffffffffffffffffffffff168373ffffffffffffffffffffffffffffffffffffffff161461385d5780600360008573ffffffffffffffffffffffffffffffffffffffff1673ffffffffffffffffffffffffffffffffffffffff16815260200190815260200160002060008282546138559190614bc6565b925050819055505b5b50505050565b6000808273ffffffffffffffffffffffffffffffffffffffff163b119050919050565b82805461389390614dbb565b90600052602060002090601f0160209004810192826138b557600085556138fc565b82601f106138ce57805160ff19168380011785556138fc565b828001600101855582156138fc579182015b828111156138fb5782518255916020019190600101906138e0565b5b509050613909919061394d565b5090565b50805461391990614dbb565b6000825580601f1061392b575061394a565b601f016020900490600052602060002090810190613949919061394d565b5b50565b5b8082111561396657600081600090555060010161394e565b5090565b600061397d61397884614ad3565b614aae565b90508281526020810184848401111561399957613998614fb5565b5b6139a4848285614d4f565b509392505050565b60006139bf6139ba84614b04565b614aae565b9050828152602081018484840111156139db576139da614fb5565b5b6139e6848285614d4f565b509392505050565b6000813590506139fd8161566b565b92915050565b600081359050613a1281615682565b92915050565b600081359050613a2781615699565b92915050565b600081519050613a3c81615699565b92915050565b600082601f830112613a5757613a56614fb0565b5b8135613a6784826020860161396a565b91505092915050565b600081359050613a7f816156b0565b92915050565b600082601f830112613a9a57613a99614fb0565b5b8135613aaa8482602086016139ac565b91505092915050565b600081359050613ac2816156c0565b92915050565b600060208284031215613ade57613add614fbf565b5b6000613aec848285016139ee565b91505092915050565b60008060408385031215613b0c57613b0b614fbf565b5b6000613b1a858286016139ee565b9250506020613b2b858286016139ee565b9150509250929050565b600080600060608486031215613b4e57613b4d614fbf565b5b6000613b5c868287016139ee565b9350506020613b6d868287016139ee565b9250506040613b7e86828701613ab3565b9150509250925092565b60008060008060808587031215613ba257613ba1614fbf565b5b6000613bb0878288016139ee565b9450506020613bc1878288016139ee565b9350506040613bd287828801613ab3565b925050606085013567ffffffffffffffff811115613bf357613bf2614fba565b5b613bff87828801613a42565b91505092959194509250565b60008060408385031215613c2257613c21614fbf565b5b6000613c30858286016139ee565b9250506020613c4185828601613a03565b9150509250929050565b600080600080600080600080610100898b031215613c6c57613c6b614fbf565b5b6000613c7a8b828c016139ee565b985050602089013567ffffffffffffffff811115613c9b57613c9a614fba565b5b613ca78b828c01613a85565b975050604089013567ffffffffffffffff811115613cc857613cc7614fba565b5b613cd48b828c01613a85565b965050606089013567ffffffffffffffff811115613cf557613cf4614fba565b5b613d018b828c01613a85565b955050608089013567ffffffffffffffff811115613d2257613d21614fba565b5b613d2e8b828c01613a85565b94505060a089013567ffffffffffffffff811115613d4f57613d4e614fba565b5b613d5b8b828c01613a85565b93505060c089013567ffffffffffffffff811115613d7c57613d7b614fba565b5b613d888b828c01613a85565b92505060e089013567ffffffffffffffff811115613da957613da8614fba565b5b613db58b828c01613a85565b9150509295985092959890939650565b60008060408385031215613ddc57613ddb614fbf565b5b6000613dea858286016139ee565b9250506020613dfb85828601613ab3565b9150509250929050565b600060208284031215613e1b57613e1a614fbf565b5b6000613e2984828501613a18565b91505092915050565b600060208284031215613e4857613e47614fbf565b5b6000613e5684828501613a2d565b91505092915050565b600060208284031215613e7557613e74614fbf565b5b6000613e8384828501613a70565b91505092915050565b60008060408385031215613ea357613ea2614fbf565b5b6000613eb185828601613a70565b9250506020613ec2858286016139ee565b9150509250929050565b600060208284031215613ee257613ee1614fbf565b5b6000613ef084828501613ab3565b91505092915050565b60008060408385031215613f1057613f0f614fbf565b5b6000613f1e85828601613ab3565b9250506020613f2f85828601613a70565b9150509250929050565b600080600060608486031215613f5257613f51614fbf565b5b6000613f6086828701613ab3565b9350506020613f7186828701613a70565b9250506040613f82868287016139ee565b9150509250925092565b60008060408385031215613fa357613fa2614fbf565b5b6000613fb185828601613ab3565b925050602083013567ffffffffffffffff811115613fd257613fd1614fba565b5b613fde85828601613a85565b9150509250929050565b60008060006060848603121561400157614000614fbf565b5b600061400f86828701613ab3565b935050602084013567ffffffffffffffff8111156140305761402f614fba565b5b61403c86828701613a85565b925050604084013567ffffffffffffffff81111561405d5761405c614fba565b5b61406986828701613a85565b9150509250925092565b600061407f838361408b565b60208301905092915050565b61409481614cdb565b82525050565b6140a381614cdb565b82525050565b60006140b482614b5a565b6140be8185614b88565b93506140c983614b35565b8060005b838110156140fa5781516140e18882614073565b97506140ec83614b7b565b9250506001810190506140cd565b5085935050505092915050565b61411081614ced565b82525050565b600061412182614b65565b61412b8185614b99565b935061413b818560208601614d5e565b61414481614fc4565b840191505092915050565b600061415a82614b70565b6141648185614baa565b9350614174818560208601614d5e565b61417d81614fc4565b840191505092915050565b600061419382614b70565b61419d8185614bbb565b93506141ad818560208601614d5e565b80840191505092915050565b600081546141c681614dbb565b6141d08186614bbb565b945060018216600081146141eb57600181146141fc5761422f565b60ff1983168652818601935061422f565b61420585614b45565b60005b8381101561422757815481890152600182019150602081019050614208565b838801955050505b50505092915050565b6000614245602083614baa565b915061425082614fd5565b602082019050919050565b6000614268602d83614baa565b915061427382614ffe565b604082019050919050565b600061428b601083614bbb565b91506142968261504d565b601082019050919050565b60006142ae603283614baa565b91506142b982615076565b604082019050919050565b60006142d1600f83614bbb565b91506142dc826150c5565b600f82019050919050565b60006142f4600283614bbb565b91506142ff826150ee565b600282019050919050565b6000614317602583614baa565b915061432282615117565b604082019050919050565b600061433a602383614bbb565b915061434582615166565b602382019050919050565b600061435d601c83614baa565b9150614368826151b5565b602082019050919050565b6000614380600383614bbb565b915061438b826151de565b600382019050919050565b60006143a3602d83614baa565b91506143ae82615207565b604082019050919050565b60006143c6602483614baa565b91506143d182615256565b604082019050919050565b60006143e9601983614baa565b91506143f4826152a5565b602082019050919050565b600061440c602683614bbb565b9150614417826152ce565b602682019050919050565b600061442f600883614bbb565b915061443a8261531d565b600882019050919050565b6000614452602983614baa565b915061445d82615346565b604082019050919050565b6000614475600983614bbb565b915061448082615395565b600982019050919050565b6000614498600283614bbb565b91506144a3826153be565b600282019050919050565b60006144bb602083614baa565b91506144c6826153e7565b602082019050919050565b60006144de600183614bbb565b91506144e982615410565b600182019050919050565b6000614501600183614bbb565b915061450c82615439565b600182019050919050565b6000614524600f83614bbb565b915061452f82615462565b600f82019050919050565b6000614547600983614bbb565b91506145528261548b565b600982019050919050565b600061456a601883614baa565b9150614575826154b4565b602082019050919050565b600061458d601f83614bbb565b9150614598826154dd565b601f82019050919050565b60006145b0600183614bbb565b91506145bb82615506565b600182019050919050565b60006145d3602183614baa565b91506145de8261552f565b604082019050919050565b60006145f6602783614bbb565b91506146018261557e565b602782019050919050565b6000614619603d83614baa565b9150614624826155cd565b604082019050919050565b600061463c602883614baa565b91506146478261561c565b604082019050919050565b61465b81614d45565b82525050565b600061466d8284614188565b915081905092915050565b60006146848285614188565b91506146908284614188565b91508190509392505050565b60006146a7826144f4565b91506146b282614422565b91506146be828c6141b9565b91506146c9826142e7565b91506146d4826142c4565b91506146e0828b6141b9565b91506146eb826142e7565b91506146f68261453a565b9150614702828a614188565b915061470d826142e7565b91506147188261427e565b915061472482896141b9565b915061472f826142e7565b915061473a82614468565b915061474682886141b9565b9150614751826142e7565b915061475c82614517565b915061476782614580565b915061477382876141b9565b915061477e82614373565b9150614789826145e9565b915061479582866141b9565b91506147a082614373565b91506147ab826143ff565b91506147b782856141b9565b91506147c282614373565b91506147cd8261432d565b91506147d98284614188565b91506147e48261448b565b91506147ef826145a3565b91506147fa826144d1565b91508190509a9950505050505050505050565b6000602082019050614822600083018461409a565b92915050565b600060808201905061483d600083018761409a565b61484a602083018661409a565b6148576040830185614652565b81810360608301526148698184614116565b905095945050505050565b6000602082019050818103600083015261488e81846140a9565b905092915050565b60006020820190506148ab6000830184614107565b92915050565b600060208201905081810360008301526148cb818461414f565b905092915050565b600060208201905081810360008301526148ec81614238565b9050919050565b6000602082019050818103600083015261490c8161425b565b9050919050565b6000602082019050818103600083015261492c816142a1565b9050919050565b6000602082019050818103600083015261494c8161430a565b9050919050565b6000602082019050818103600083015261496c81614350565b9050919050565b6000602082019050818103600083015261498c81614396565b9050919050565b600060208201905081810360008301526149ac816143b9565b9050919050565b600060208201905081810360008301526149cc816143dc565b9050919050565b600060208201905081810360008301526149ec81614445565b9050919050565b60006020820190508181036000830152614a0c816144ae565b9050919050565b60006020820190508181036000830152614a2c8161455d565b9050919050565b60006020820190508181036000830152614a4c816145c6565b9050919050565b60006020820190508181036000830152614a6c8161460c565b9050919050565b60006020820190508181036000830152614a8c8161462f565b9050919050565b6000602082019050614aa86000830184614652565b92915050565b6000614ab8614ac9565b9050614ac48282614ded565b919050565b6000604051905090565b600067ffffffffffffffff821115614aee57614aed614f81565b5b614af782614fc4565b9050602081019050919050565b600067ffffffffffffffff821115614b1f57614b1e614f81565b5b614b2882614fc4565b9050602081019050919050565b6000819050602082019050919050565b60008190508160005260206000209050919050565b600081519050919050565b600081519050919050565b600081519050919050565b6000602082019050919050565b600082825260208201905092915050565b600082825260208201905092915050565b600082825260208201905092915050565b600081905092915050565b6000614bd182614d45565b9150614bdc83614d45565b9250827fffffffffffffffffffffffffffffffffffffffffffffffffffffffffffffffff03821115614c1157614c10614e67565b5b828201905092915050565b6000614c2782614d45565b9150614c3283614d45565b925082614c4257614c41614e96565b5b828204905092915050565b6000614c5882614d45565b9150614c6383614d45565b9250817fffffffffffffffffffffffffffffffffffffffffffffffffffffffffffffffff0483118215151615614c9c57614c9b614e67565b5b828202905092915050565b6000614cb282614d45565b9150614cbd83614d45565b925082821015614cd057614ccf614e67565b5b828203905092915050565b6000614ce682614d25565b9050919050565b60008115159050919050565b60007fffffffff0000000000000000000000000000000000000000000000000000000082169050919050565b600073ffffffffffffffffffffffffffffffffffffffff82169050919050565b6000819050919050565b82818337600083830152505050565b60005b83811015614d7c578082015181840152602081019050614d61565b83811115614d8b576000848401525b50505050565b6000614d9c82614d45565b91506000821415614db057614daf614e67565b5b600182039050919050565b60006002820490506001821680614dd357607f821691505b60208210811415614de757614de6614ef4565b5b50919050565b614df682614fc4565b810181811067ffffffffffffffff82111715614e1557614e14614f81565b5b80604052505050565b6000614e2982614d45565b91507fffffffffffffffffffffffffffffffffffffffffffffffffffffffffffffffff821415614e5c57614e5b614e67565b5b600182019050919050565b7f4e487b7100000000000000000000000000000000000000000000000000000000600052601160045260246000fd5b7f4e487b7100000000000000000000000000000000000000000000000000000000600052601260045260246000fd5b7f4e487b7100000000000000000000000000000000000000000000000000000000600052602160045260246000fd5b7f4e487b7100000000000000000000000000000000000000000000000000000000600052602260045260246000fd5b7f4e487b7100000000000000000000000000000000000000000000000000000000600052603160045260246000fd5b7f4e487b7100000000000000000000000000000000000000000000000000000000600052603260045260246000fd5b7f4e487b7100000000000000000000000000000000000000000000000000000000600052604160045260246000fd5b600080fd5b600080fd5b600080fd5b600080fd5b6000601f19601f8301169050919050565b7f537472696e67733a20686578206c656e67746820696e73756666696369656e74600082015250565b7f4552433732313a2063616c6c6572206973206e6f7420746f6b656e206f776e6560008201527f72206f7220617070726f76656400000000000000000000000000000000000000602082015250565b7f2265787465726e616c5f75726c223a2200000000000000000000000000000000600082015250565b7f4552433732313a207472616e7366657220746f206e6f6e20455243373231526560008201527f63656976657220696d706c656d656e7465720000000000000000000000000000602082015250565b7f226465736372697074696f6e223a220000000000000000000000000000000000600082015250565b7f222c000000000000000000000000000000000000000000000000000000000000600082015250565b7f4552433732313a207472616e736665722066726f6d20696e636f72726563742060008201527f6f776e6572000000000000000000000000000000000000000000000000000000602082015250565b7f7b2274726169745f74797065223a202256657273696f6e222c202276616c756560008201527f223a220000000000000000000000000000000000000000000000000000000000602082015250565b7f4552433732313a20746f6b656e20616c7265616479206d696e74656400000000600082015250565b7f227d2c0000000000000000000000000000000000000000000000000000000000600082015250565b7f466c65656b416363657373436f6e74726f6c3a206d757374206861766520636f60008201527f6c6c656374696f6e20726f6c6500000000000000000000000000000000000000602082015250565b7f4552433732313a207472616e7366657220746f20746865207a65726f2061646460008201527f7265737300000000000000000000000000000000000000000000000000000000602082015250565b7f4552433732313a20617070726f766520746f2063616c6c657200000000000000600082015250565b7f7b2274726169745f74797065223a20225265706f7369746f7279222c2022766160008201527f6c7565223a220000000000000000000000000000000000000000000000000000602082015250565b7f226e616d65223a22000000000000000000000000000000000000000000000000600082015250565b7f4552433732313a2061646472657373207a65726f206973206e6f74206120766160008201527f6c6964206f776e65720000000000000000000000000000000000000000000000602082015250565b7f22696d616765223a220000000000000000000000000000000000000000000000600082015250565b7f227d000000000000000000000000000000000000000000000000000000000000600082015250565b7f4552433732313a206d696e7420746f20746865207a65726f2061646472657373600082015250565b7f7d00000000000000000000000000000000000000000000000000000000000000600082015250565b7f7b00000000000000000000000000000000000000000000000000000000000000600082015250565b7f2261747472696275746573223a205b0000000000000000000000000000000000600082015250565b7f226f776e6572223a220000000000000000000000000000000000000000000000600082015250565b7f4552433732313a20696e76616c696420746f6b656e2049440000000000000000600082015250565b7f7b2274726169745f74797065223a2022454e53222c202276616c7565223a2200600082015250565b7f5d00000000000000000000000000000000000000000000000000000000000000600082015250565b7f4552433732313a20617070726f76616c20746f2063757272656e74206f776e6560008201527f7200000000000000000000000000000000000000000000000000000000000000602082015250565b7f7b2274726169745f74797065223a2022436f6d6d69742048617368222c20227660008201527f616c7565223a2200000000000000000000000000000000000000000000000000602082015250565b7f4552433732313a20617070726f76652063616c6c6572206973206e6f7420746f60008201527f6b656e206f776e6572206f7220617070726f76656420666f7220616c6c000000602082015250565b7f466c65656b416363657373436f6e74726f6c3a206d757374206861766520746f60008201527f6b656e20726f6c65000000000000000000000000000000000000000000000000602082015250565b61567481614cdb565b811461567f57600080fd5b50565b61568b81614ced565b811461569657600080fd5b50565b6156a281614cf9565b81146156ad57600080fd5b50565b600281106156bd57600080fd5b50565b6156c981614d45565b81146156d457600080fd5b5056fe4142434445464748494a4b4c4d4e4f505152535455565758595a6162636465666768696a6b6c6d6e6f707172737475767778797a303132333435363738392b2fa2646970667358221220fb36049b812474a250f37265fc2a1b1859cba302ce4109e65f4f138bbc0d04fc64736f6c63430008070033",
  "linkReferences": {},
  "deployedLinkReferences": {}
}