{
  "_format": "hh-sol-artifact-1",
  "contractName": "FleekERC721",
  "sourceName": "contracts/FleekERC721.sol",
  "abi": [
    {
      "inputs": [
        {
          "internalType": "string",
          "name": "_name",
          "type": "string"
        },
        {
          "internalType": "string",
          "name": "_symbol",
          "type": "string"
        }
      ],
      "stateMutability": "nonpayable",
      "type": "constructor"
    },
    {
      "anonymous": false,
      "inputs": [
        {
          "indexed": true,
          "internalType": "address",
          "name": "owner",
          "type": "address"
        },
        {
          "indexed": true,
          "internalType": "address",
          "name": "approved",
          "type": "address"
        },
        {
          "indexed": true,
          "internalType": "uint256",
          "name": "tokenId",
          "type": "uint256"
        }
      ],
      "name": "Approval",
      "type": "event"
    },
    {
      "anonymous": false,
      "inputs": [
        {
          "indexed": true,
          "internalType": "address",
          "name": "owner",
          "type": "address"
        },
        {
          "indexed": true,
          "internalType": "address",
          "name": "operator",
          "type": "address"
        },
        {
          "indexed": false,
          "internalType": "bool",
          "name": "approved",
          "type": "bool"
        }
      ],
      "name": "ApprovalForAll",
      "type": "event"
    },
    {
      "anonymous": false,
      "inputs": [
        {
          "indexed": true,
          "internalType": "string",
          "name": "apName",
          "type": "string"
        },
        {
          "indexed": false,
          "internalType": "uint256",
          "name": "tokenId",
          "type": "uint256"
        },
        {
          "indexed": true,
          "internalType": "bool",
          "name": "verified",
          "type": "bool"
        },
        {
          "indexed": true,
          "internalType": "address",
          "name": "triggeredBy",
          "type": "address"
        }
      ],
      "name": "ChangeAccessPointContentVerify",
      "type": "event"
    },
    {
      "anonymous": false,
      "inputs": [
        {
          "indexed": true,
          "internalType": "string",
          "name": "apName",
          "type": "string"
        },
        {
          "indexed": false,
          "internalType": "uint256",
          "name": "tokenId",
          "type": "uint256"
        },
        {
          "indexed": true,
          "internalType": "bool",
          "name": "verified",
          "type": "bool"
        },
        {
          "indexed": true,
          "internalType": "address",
          "name": "triggeredBy",
          "type": "address"
        }
      ],
      "name": "ChangeAccessPointNameVerify",
      "type": "event"
    },
    {
      "anonymous": false,
      "inputs": [
        {
          "indexed": true,
          "internalType": "string",
          "name": "apName",
          "type": "string"
        },
        {
          "indexed": true,
          "internalType": "uint256",
          "name": "tokenId",
          "type": "uint256"
        },
        {
          "indexed": false,
          "internalType": "uint256",
          "name": "score",
          "type": "uint256"
        },
        {
          "indexed": true,
          "internalType": "address",
          "name": "triggeredBy",
          "type": "address"
        }
      ],
      "name": "ChangeAccessPointScore",
      "type": "event"
    },
    {
      "anonymous": false,
      "inputs": [
        {
          "indexed": true,
          "internalType": "enum FleekAccessControl.Roles",
          "name": "role",
          "type": "uint8"
        },
        {
          "indexed": true,
          "internalType": "address",
          "name": "toAddress",
          "type": "address"
        },
        {
          "indexed": false,
          "internalType": "address",
          "name": "byAddress",
          "type": "address"
        }
      ],
      "name": "CollectionRoleGranted",
      "type": "event"
    },
    {
      "anonymous": false,
      "inputs": [
        {
          "indexed": true,
          "internalType": "enum FleekAccessControl.Roles",
          "name": "role",
          "type": "uint8"
        },
        {
          "indexed": true,
          "internalType": "address",
          "name": "toAddress",
          "type": "address"
        },
        {
          "indexed": false,
          "internalType": "address",
          "name": "byAddress",
          "type": "address"
        }
      ],
      "name": "CollectionRoleRevoked",
      "type": "event"
    },
    {
      "anonymous": false,
      "inputs": [
        {
          "indexed": true,
          "internalType": "string",
          "name": "apName",
          "type": "string"
        },
        {
          "indexed": true,
          "internalType": "uint256",
          "name": "tokenId",
          "type": "uint256"
        },
        {
          "indexed": true,
          "internalType": "address",
          "name": "owner",
          "type": "address"
        }
      ],
      "name": "NewAccessPoint",
      "type": "event"
    },
    {
      "anonymous": false,
      "inputs": [
        {
          "indexed": true,
          "internalType": "uint256",
          "name": "token",
          "type": "uint256"
        },
        {
          "indexed": true,
          "internalType": "string",
          "name": "commitHash",
          "type": "string"
        },
        {
          "indexed": true,
          "internalType": "address",
          "name": "triggeredBy",
          "type": "address"
        }
      ],
      "name": "NewBuild",
      "type": "event"
    },
    {
      "anonymous": false,
      "inputs": [
        {
          "indexed": true,
          "internalType": "uint256",
          "name": "token",
          "type": "uint256"
        },
        {
          "indexed": true,
          "internalType": "string",
          "name": "description",
          "type": "string"
        },
        {
          "indexed": true,
          "internalType": "address",
          "name": "triggeredBy",
          "type": "address"
        }
      ],
      "name": "NewTokenDescription",
      "type": "event"
    },
    {
      "anonymous": false,
      "inputs": [
        {
          "indexed": true,
          "internalType": "uint256",
          "name": "token",
          "type": "uint256"
        },
        {
          "indexed": true,
          "internalType": "string",
          "name": "ENS",
          "type": "string"
        },
        {
          "indexed": true,
          "internalType": "address",
          "name": "triggeredBy",
          "type": "address"
        }
      ],
      "name": "NewTokenENS",
      "type": "event"
    },
    {
      "anonymous": false,
      "inputs": [
        {
          "indexed": true,
          "internalType": "uint256",
          "name": "token",
          "type": "uint256"
        },
        {
          "indexed": true,
          "internalType": "string",
          "name": "externalURL",
          "type": "string"
        },
        {
          "indexed": true,
          "internalType": "address",
          "name": "triggeredBy",
          "type": "address"
        }
      ],
      "name": "NewTokenExternalURL",
      "type": "event"
    },
    {
      "anonymous": false,
      "inputs": [
        {
          "indexed": true,
          "internalType": "uint256",
          "name": "token",
          "type": "uint256"
        },
        {
          "indexed": true,
          "internalType": "string",
          "name": "image",
          "type": "string"
        },
        {
          "indexed": true,
          "internalType": "address",
          "name": "triggeredBy",
          "type": "address"
        }
      ],
      "name": "NewTokenImage",
      "type": "event"
    },
    {
      "anonymous": false,
      "inputs": [
        {
          "indexed": true,
          "internalType": "uint256",
          "name": "token",
          "type": "uint256"
        },
        {
          "indexed": true,
          "internalType": "string",
          "name": "name",
          "type": "string"
        },
        {
          "indexed": true,
          "internalType": "address",
          "name": "triggeredBy",
          "type": "address"
        }
      ],
      "name": "NewTokenName",
      "type": "event"
    },
    {
      "anonymous": false,
      "inputs": [
        {
          "indexed": true,
          "internalType": "string",
          "name": "apName",
          "type": "string"
        },
        {
          "indexed": true,
          "internalType": "uint256",
          "name": "tokenId",
          "type": "uint256"
        },
        {
          "indexed": true,
          "internalType": "address",
          "name": "owner",
          "type": "address"
        }
      ],
      "name": "RemoveAccessPoint",
      "type": "event"
    },
    {
      "anonymous": false,
      "inputs": [
        {
          "indexed": true,
          "internalType": "uint256",
          "name": "tokenId",
          "type": "uint256"
        },
        {
          "indexed": true,
          "internalType": "enum FleekAccessControl.Roles",
          "name": "role",
          "type": "uint8"
        },
        {
          "indexed": true,
          "internalType": "address",
          "name": "toAddress",
          "type": "address"
        },
        {
          "indexed": false,
          "internalType": "address",
          "name": "byAddress",
          "type": "address"
        }
      ],
      "name": "TokenRoleGranted",
      "type": "event"
    },
    {
      "anonymous": false,
      "inputs": [
        {
          "indexed": true,
          "internalType": "uint256",
          "name": "tokenId",
          "type": "uint256"
        },
        {
          "indexed": true,
          "internalType": "enum FleekAccessControl.Roles",
          "name": "role",
          "type": "uint8"
        },
        {
          "indexed": true,
          "internalType": "address",
          "name": "toAddress",
          "type": "address"
        },
        {
          "indexed": false,
          "internalType": "address",
          "name": "byAddress",
          "type": "address"
        }
      ],
      "name": "TokenRoleRevoked",
      "type": "event"
    },
    {
      "anonymous": false,
      "inputs": [
        {
          "indexed": true,
          "internalType": "address",
          "name": "from",
          "type": "address"
        },
        {
          "indexed": true,
          "internalType": "address",
          "name": "to",
          "type": "address"
        },
        {
          "indexed": true,
          "internalType": "uint256",
          "name": "tokenId",
          "type": "uint256"
        }
      ],
      "name": "Transfer",
      "type": "event"
    },
    {
      "inputs": [
        {
          "internalType": "uint256",
          "name": "tokenId",
          "type": "uint256"
        },
        {
          "internalType": "string",
          "name": "apName",
          "type": "string"
        }
      ],
      "name": "addAccessPoint",
      "outputs": [],
      "stateMutability": "payable",
      "type": "function"
    },
    {
      "inputs": [
        {
          "internalType": "uint256",
          "name": "tokenId",
          "type": "uint256"
        }
      ],
      "name": "appAccessPoints",
      "outputs": [
        {
          "internalType": "string[]",
          "name": "",
          "type": "string[]"
        }
      ],
      "stateMutability": "view",
      "type": "function"
    },
    {
      "inputs": [
        {
          "internalType": "address",
          "name": "to",
          "type": "address"
        },
        {
          "internalType": "uint256",
          "name": "tokenId",
          "type": "uint256"
        }
      ],
      "name": "approve",
      "outputs": [],
      "stateMutability": "nonpayable",
      "type": "function"
    },
    {
      "inputs": [
        {
          "internalType": "address",
          "name": "owner",
          "type": "address"
        }
      ],
      "name": "balanceOf",
      "outputs": [
        {
          "internalType": "uint256",
          "name": "",
          "type": "uint256"
        }
      ],
      "stateMutability": "view",
      "type": "function"
    },
    {
      "inputs": [
        {
          "internalType": "uint256",
          "name": "tokenId",
          "type": "uint256"
        }
      ],
      "name": "burn",
      "outputs": [],
      "stateMutability": "nonpayable",
      "type": "function"
    },
    {
      "inputs": [
        {
          "internalType": "string",
          "name": "apName",
          "type": "string"
        }
      ],
      "name": "decreaseAccessPointScore",
      "outputs": [],
      "stateMutability": "nonpayable",
      "type": "function"
    },
    {
      "inputs": [
        {
          "internalType": "string",
          "name": "apName",
          "type": "string"
        }
      ],
      "name": "getAccessPointJSON",
      "outputs": [
        {
          "internalType": "string",
          "name": "",
          "type": "string"
        }
      ],
      "stateMutability": "view",
      "type": "function"
    },
    {
      "inputs": [
        {
          "internalType": "uint256",
          "name": "tokenId",
          "type": "uint256"
        }
      ],
      "name": "getApproved",
      "outputs": [
        {
          "internalType": "address",
          "name": "",
          "type": "address"
        }
      ],
      "stateMutability": "view",
      "type": "function"
    },
    {
      "inputs": [
        {
          "internalType": "enum FleekAccessControl.Roles",
          "name": "role",
          "type": "uint8"
        }
      ],
      "name": "getCollectionRoleMembers",
      "outputs": [
        {
          "internalType": "address[]",
          "name": "",
          "type": "address[]"
        }
      ],
      "stateMutability": "view",
      "type": "function"
    },
    {
      "inputs": [
        {
          "internalType": "uint256",
          "name": "tokenId",
          "type": "uint256"
        },
        {
          "internalType": "enum FleekAccessControl.Roles",
          "name": "role",
          "type": "uint8"
        }
      ],
      "name": "getTokenRoleMembers",
      "outputs": [
        {
          "internalType": "address[]",
          "name": "",
          "type": "address[]"
        }
      ],
      "stateMutability": "view",
      "type": "function"
    },
    {
      "inputs": [
        {
          "internalType": "enum FleekAccessControl.Roles",
          "name": "role",
          "type": "uint8"
        },
        {
          "internalType": "address",
          "name": "account",
          "type": "address"
        }
      ],
      "name": "grantCollectionRole",
      "outputs": [],
      "stateMutability": "nonpayable",
      "type": "function"
    },
    {
      "inputs": [
        {
          "internalType": "uint256",
          "name": "tokenId",
          "type": "uint256"
        },
        {
          "internalType": "enum FleekAccessControl.Roles",
          "name": "role",
          "type": "uint8"
        },
        {
          "internalType": "address",
          "name": "account",
          "type": "address"
        }
      ],
      "name": "grantTokenRole",
      "outputs": [],
      "stateMutability": "nonpayable",
      "type": "function"
    },
    {
      "inputs": [
        {
          "internalType": "enum FleekAccessControl.Roles",
          "name": "role",
          "type": "uint8"
        },
        {
          "internalType": "address",
          "name": "account",
          "type": "address"
        }
      ],
      "name": "hasCollectionRole",
      "outputs": [
        {
          "internalType": "bool",
          "name": "",
          "type": "bool"
        }
      ],
      "stateMutability": "view",
      "type": "function"
    },
    {
      "inputs": [
        {
          "internalType": "uint256",
          "name": "tokenId",
          "type": "uint256"
        },
        {
          "internalType": "enum FleekAccessControl.Roles",
          "name": "role",
          "type": "uint8"
        },
        {
          "internalType": "address",
          "name": "account",
          "type": "address"
        }
      ],
      "name": "hasTokenRole",
      "outputs": [
        {
          "internalType": "bool",
          "name": "",
          "type": "bool"
        }
      ],
      "stateMutability": "view",
      "type": "function"
    },
    {
      "inputs": [
        {
          "internalType": "string",
          "name": "apName",
          "type": "string"
        }
      ],
      "name": "increaseAccessPointScore",
      "outputs": [],
      "stateMutability": "nonpayable",
      "type": "function"
    },
    {
      "inputs": [
        {
          "internalType": "string",
          "name": "apName",
          "type": "string"
        }
      ],
      "name": "isAccessPointNameVerified",
      "outputs": [
        {
          "internalType": "bool",
          "name": "",
          "type": "bool"
        }
      ],
      "stateMutability": "view",
      "type": "function"
    },
    {
      "inputs": [
        {
          "internalType": "address",
          "name": "owner",
          "type": "address"
        },
        {
          "internalType": "address",
          "name": "operator",
          "type": "address"
        }
      ],
      "name": "isApprovedForAll",
      "outputs": [
        {
          "internalType": "bool",
          "name": "",
          "type": "bool"
        }
      ],
      "stateMutability": "view",
      "type": "function"
    },
    {
      "inputs": [
        {
          "internalType": "address",
          "name": "to",
          "type": "address"
        },
        {
          "internalType": "string",
          "name": "name",
          "type": "string"
        },
        {
          "internalType": "string",
          "name": "description",
          "type": "string"
        },
        {
          "internalType": "string",
          "name": "externalURL",
          "type": "string"
        },
        {
          "internalType": "string",
          "name": "ENS",
          "type": "string"
        },
        {
          "internalType": "string",
          "name": "commitHash",
          "type": "string"
        },
        {
          "internalType": "string",
          "name": "gitRepository",
          "type": "string"
        }
      ],
      "name": "mint",
      "outputs": [
        {
          "internalType": "uint256",
          "name": "",
          "type": "uint256"
        }
      ],
      "stateMutability": "payable",
      "type": "function"
    },
    {
      "inputs": [],
      "name": "name",
      "outputs": [
        {
          "internalType": "string",
          "name": "",
          "type": "string"
        }
      ],
      "stateMutability": "view",
      "type": "function"
    },
    {
      "inputs": [
        {
          "internalType": "uint256",
          "name": "tokenId",
          "type": "uint256"
        }
      ],
      "name": "ownerOf",
      "outputs": [
        {
          "internalType": "address",
          "name": "",
          "type": "address"
        }
      ],
      "stateMutability": "view",
      "type": "function"
    },
    {
      "inputs": [
        {
          "internalType": "string",
          "name": "apName",
          "type": "string"
        }
      ],
      "name": "removeAccessPoint",
      "outputs": [],
      "stateMutability": "nonpayable",
      "type": "function"
    },
    {
      "inputs": [
        {
          "internalType": "enum FleekAccessControl.Roles",
          "name": "role",
          "type": "uint8"
        },
        {
          "internalType": "address",
          "name": "account",
          "type": "address"
        }
      ],
      "name": "revokeCollectionRole",
      "outputs": [],
      "stateMutability": "nonpayable",
      "type": "function"
    },
    {
      "inputs": [
        {
          "internalType": "uint256",
          "name": "tokenId",
          "type": "uint256"
        },
        {
          "internalType": "enum FleekAccessControl.Roles",
          "name": "role",
          "type": "uint8"
        },
        {
          "internalType": "address",
          "name": "account",
          "type": "address"
        }
      ],
      "name": "revokeTokenRole",
      "outputs": [],
      "stateMutability": "nonpayable",
      "type": "function"
    },
    {
      "inputs": [
        {
          "internalType": "address",
          "name": "from",
          "type": "address"
        },
        {
          "internalType": "address",
          "name": "to",
          "type": "address"
        },
        {
          "internalType": "uint256",
          "name": "tokenId",
          "type": "uint256"
        }
      ],
      "name": "safeTransferFrom",
      "outputs": [],
      "stateMutability": "nonpayable",
      "type": "function"
    },
    {
      "inputs": [
        {
          "internalType": "address",
          "name": "from",
          "type": "address"
        },
        {
          "internalType": "address",
          "name": "to",
          "type": "address"
        },
        {
          "internalType": "uint256",
          "name": "tokenId",
          "type": "uint256"
        },
        {
          "internalType": "bytes",
          "name": "data",
          "type": "bytes"
        }
      ],
      "name": "safeTransferFrom",
      "outputs": [],
      "stateMutability": "nonpayable",
      "type": "function"
    },
    {
      "inputs": [
        {
          "internalType": "string",
          "name": "apName",
          "type": "string"
        },
        {
          "internalType": "bool",
          "name": "verified",
          "type": "bool"
        }
      ],
      "name": "setAccessPointContentVerify",
      "outputs": [],
      "stateMutability": "nonpayable",
      "type": "function"
    },
    {
      "inputs": [
        {
          "internalType": "string",
          "name": "apName",
          "type": "string"
        },
        {
          "internalType": "bool",
          "name": "verified",
          "type": "bool"
        }
      ],
      "name": "setAccessPointNameVerify",
      "outputs": [],
      "stateMutability": "nonpayable",
      "type": "function"
    },
    {
      "inputs": [
        {
          "internalType": "address",
          "name": "operator",
          "type": "address"
        },
        {
          "internalType": "bool",
          "name": "approved",
          "type": "bool"
        }
      ],
      "name": "setApprovalForAll",
      "outputs": [],
      "stateMutability": "nonpayable",
      "type": "function"
    },
    {
      "inputs": [
        {
          "internalType": "uint256",
          "name": "tokenId",
          "type": "uint256"
        },
        {
          "internalType": "string",
          "name": "_commitHash",
          "type": "string"
        },
        {
          "internalType": "string",
          "name": "_gitRepository",
          "type": "string"
        }
      ],
      "name": "setTokenBuild",
      "outputs": [],
      "stateMutability": "nonpayable",
      "type": "function"
    },
    {
      "inputs": [
        {
          "internalType": "uint256",
          "name": "tokenId",
          "type": "uint256"
        },
        {
          "internalType": "string",
          "name": "_tokenDescription",
          "type": "string"
        }
      ],
      "name": "setTokenDescription",
      "outputs": [],
      "stateMutability": "nonpayable",
      "type": "function"
    },
    {
      "inputs": [
        {
          "internalType": "uint256",
          "name": "tokenId",
          "type": "uint256"
        },
        {
          "internalType": "string",
          "name": "_tokenENS",
          "type": "string"
        }
      ],
      "name": "setTokenENS",
      "outputs": [],
      "stateMutability": "nonpayable",
      "type": "function"
    },
    {
      "inputs": [
        {
          "internalType": "uint256",
          "name": "tokenId",
          "type": "uint256"
        },
        {
          "internalType": "string",
          "name": "_tokenExternalURL",
          "type": "string"
        }
      ],
      "name": "setTokenExternalURL",
      "outputs": [],
      "stateMutability": "nonpayable",
      "type": "function"
    },
    {
      "inputs": [
        {
          "internalType": "uint256",
          "name": "tokenId",
          "type": "uint256"
        },
        {
          "internalType": "string",
          "name": "_tokenName",
          "type": "string"
        }
      ],
      "name": "setTokenName",
      "outputs": [],
      "stateMutability": "nonpayable",
      "type": "function"
    },
    {
      "inputs": [
        {
          "internalType": "bytes4",
          "name": "interfaceId",
          "type": "bytes4"
        }
      ],
      "name": "supportsInterface",
      "outputs": [
        {
          "internalType": "bool",
          "name": "",
          "type": "bool"
        }
      ],
      "stateMutability": "view",
      "type": "function"
    },
    {
      "inputs": [],
      "name": "symbol",
      "outputs": [
        {
          "internalType": "string",
          "name": "",
          "type": "string"
        }
      ],
      "stateMutability": "view",
      "type": "function"
    },
    {
      "inputs": [
        {
          "internalType": "uint256",
          "name": "tokenId",
          "type": "uint256"
        }
      ],
      "name": "tokenURI",
      "outputs": [
        {
          "internalType": "string",
          "name": "",
          "type": "string"
        }
      ],
      "stateMutability": "view",
      "type": "function"
    },
    {
      "inputs": [
        {
          "internalType": "address",
          "name": "from",
          "type": "address"
        },
        {
          "internalType": "address",
          "name": "to",
          "type": "address"
        },
        {
          "internalType": "uint256",
          "name": "tokenId",
          "type": "uint256"
        }
      ],
      "name": "transferFrom",
      "outputs": [],
      "stateMutability": "nonpayable",
      "type": "function"
    }
  ],
  "bytecode": "0x608060405234620001a85762004bf4803803806200001d81620001c4565b9283398101604082820312620001a15781516001600160401b0391908281116200019857816200004f918501620001f9565b92602091828201518481116200018d576200006b9201620001f9565b9183519081116200017d575b60009162000091826200008b85546200029f565b620002de565b80601f8311600114620000ef57508190620000c8958492620000e3575b50508160011b916000199060031b1c191617905562000392565b620000d33362000494565b60405161465e9081620005968239f35b015190503880620000ae565b600080529194601f1986167f290decd9548b62a8d60345a988386fc84ba6bc95484008f6362f93160ef3e5639385905b82821062000164575050916001939187620000c89894106200014a575b505050811b01905562000392565b015160001960f88460031b161c191690553880806200013c565b806001869782949787015181550196019401906200011f565b62000187620001ad565b62000077565b505050505050600080fd5b50505050600080fd5b5050600080fd5b600080fd5b50634e487b7160e01b600052604160045260246000fd5b6040519190601f01601f191682016001600160401b03811183821017620001ea57604052565b620001f4620001ad565b604052565b81601f8201121562000297578051906001600160401b03821162000287575b6020906200022f601f8401601f19168301620001c4565b938385528284830101116200027d5782906000905b8383831062000264575050116200025a57505090565b6000918301015290565b8193508281939201015182828801015201839162000244565b5050505050600080fd5b62000291620001ad565b62000218565b505050600080fd5b90600182811c92168015620002d3575b6020831014620002bb57565b5050634e487b7160e01b600052602260045260246000fd5b91607f1691620002af565b601f8111620002eb575050565b60009081805260208220906020601f850160051c830194106200032b575b601f0160051c01915b8281106200031f57505050565b81815560010162000312565b909250829062000309565b90601f821162000344575050565b60019160009083825260208220906020601f850160051c8301941062000387575b601f0160051c01915b8281106200037c5750505050565b81815583016200036e565b909250829062000365565b80519091906001600160401b03811162000484575b600190620003c181620003bb84546200029f565b62000336565b602080601f8311600114620003ff575081929394600092620003f3575b5050600019600383901b1c191690821b179055565b015190503880620003de565b6001600052601f198316959091907fb10e2d527612073b26eecdfd717e6a320cf44b4afac2b0732d9fcbe2b7fa0cf6926000905b8882106200046c575050838596971062000452575b505050811b019055565b015160001960f88460031b161c1916905538808062000448565b80878596829496860151815501950193019062000433565b6200048e620001ad565b620003a7565b600654600090815260076020908152604080832083805282528083206001600160a01b0385168452918290528220541562000506575b506040513381526001600160a01b0392909216917fcf081ed2b728e3115904be00eb8927b2375ff3401839b37f7accfa1bb2bee15c90602090a3565b6001810180546801000000000000000081101562000585575b600181018083558110156200056b57818452602080852090910180546001600160a01b0319166001600160a01b03871690811790915591546000928352929052604090205538620004ca565b5050634e487b7160e01b8252506032600452602492509050fd5b6200058f620001ad565b6200051f56fe6040608081526004361015610015575b50600080fd5b600090813560e01c806301468deb1461063f57806301ffc9a71461062357806306fdde0314610607578063081812fc146105eb578063095ea7b3146105d357806323b872dd146105bb578063246a908b146105a357806327dc5cec146105875780632d957aad1461056f5780632f1e8f0a1461050b578063353b07a4146104e45780633806f152146104cc57806342842e0e146104b457806342966c681461049d57806342e44bbf146104855780636352211e1461045057806370a08231146104345780637469a03b1461041d57806378278cca146104055780638c3c0a44146103ed57806394ec65c5146103d657806395d89b41146103ba578063a22cb465146103a2578063a27d0b271461038a578063a397c83014610373578063aba8112514610346578063b20b94f11461032e578063b30437a01461031b578063b42dbe38146102fe578063b88d4fde146102e3578063c87b56dd146102bc578063cdb0e89e146102a4578063d7a75be114610288578063e94472501461026b578063e985e9c514610202578063f6be6b78146101d75763f9315177146101b9575061000f565b346101d3576101d06101ca36610900565b90612914565b51f35b5080fd5b50346101d3576101fe91506101f36101ee36610761565b61341c565b905191829182610c5c565b0390f35b50346101d3576101fe915061025a61025361023c61021f36610c29565b6001600160a01b0390911660009081526005602052604090209091565b9060018060a01b0316600052602052604060002090565b5460ff1690565b905190151581529081906020820190565b50346101d3576101fe915061025a61028236610959565b90611aec565b50346101d3576101fe915061025a61029f3661092f565b613154565b50346101d3576101d06102b636610900565b90612a74565b50346101d3576101fe91506102d86102d336610761565b6124fc565b905191829182610750565b50346101d3576101d06102f536610bb9565b929190916112c7565b50346101d3576101fe915061025a61031536610675565b91611b88565b506101d061032836610900565b90612c8a565b50346101d3576101d061034036610a4d565b906132e3565b506101fe915061036461035836610adc565b95949094939193612011565b90519081529081906020820190565b50346101d3576101d06103853661092f565b613208565b50346101d3576101d061039c36610675565b916118b1565b50346101d3576101d06103b436610aab565b90611131565b50346101d3576101fe91506103ce366106e8565b6102d8610e97565b50346101d3576101d06103e83661092f565b61317c565b50346101d3576101d06103ff36610959565b9061196c565b50346101d3576101d061041736610900565b906129d4565b50346101d3576101d061042f3661092f565b612e09565b50346101d3576101fe915061036461044b36610a88565b610cbe565b50346101d3576101fe915061046c61046736610761565b610d84565b90516001600160a01b0390911681529081906020820190565b50346101d3576101d061049736610a4d565b90613395565b50346101d3576101d06104af36610761565b6135a8565b50346101d3576101d06104c63661079a565b9161128d565b50346101d3576101d06104de36610a07565b916134bc565b50346101d3576101fe91506105006104fb366109ec565b611c12565b9051918291826109a8565b50346101d3576101fe9150610500600161056961056461052a36610989565b9190610555610543826000526008602052604060002090565b54916000526009602052604060002090565b90600052602052604060002090565b611aa0565b01611bba565b50346101d3576101d061058136610959565b906117a8565b50346101d3576101fe91506102d861059e3661092f565b612fdf565b50346101d3576101d06105b536610900565b90612b11565b50346101d3576101d06105cd3661079a565b9161125d565b50346101d3576101d06105e536610773565b90610fcd565b50346101d3576101fe915061046c61060236610761565b6110f3565b50346101d3576101fe915061061b366106e8565b6102d8610de3565b50346101d3576101fe915061025a61063a366106cd565b612855565b50346101d3576101d061065136610675565b916119fe565b600435906001600160a01b03821682141561066e57565b5050600080fd5b606090600319011261000f576004359060243560028110156106b257906044356001600160a01b0381168114156106a95790565b50505050600080fd5b505050600080fd5b6001600160e01b03198116141561000f57565b602090600319011261000f576004356106e5816106ba565b90565b600090600319011261000f57565b918091926000905b82821061071657501161070f575050565b6000910152565b915080602091830151818601520182916106fe565b90602091610744815180928185528580860191016106f6565b601f01601f1916010190565b9060206106e592818152019061072b565b602090600319011261000f5760043590565b604090600319011261000f576004356001600160a01b03811681141561066e579060243590565b606090600319011261000f576001600160a01b03906004358281168114156106b257916024359081168114156106b2579060443590565b50634e487b7160e01b600052604160045260246000fd5b604081019081106001600160401b0382111761080357604052565b61080b6107d1565b604052565b602081019081106001600160401b0382111761080357604052565b90601f801991011681019081106001600160401b0382111761080357604052565b60405190610859826107e8565b565b6040519060c082018281106001600160401b0382111761080357604052565b6020906001600160401b038111610897575b601f01601f19160190565b61089f6107d1565b61088c565b9291926108b08261087a565b916108be604051938461082b565b8294818452818301116108db578281602093846000960137010152565b5050505050600080fd5b9080601f830112156106b2578160206106e5933591016108a4565b90604060031983011261066e5760043591602435906001600160401b0382116106a9576106e5916004016108e5565b602060031982011261066e57600435906001600160401b0382116106b2576106e5916004016108e5565b604090600319011261000f57600435600281101561066e57906024356001600160a01b0381168114156106b25790565b604090600319011261000f576004359060243560028110156106b25790565b6020908160408183019282815285518094520193019160005b8281106109cf575050505090565b83516001600160a01b0316855293810193928101926001016109c1565b602090600319011261000f57600435600281101561066e5790565b606060031982011261066e57600435916001600160401b036024358181116108db5783610a36916004016108e5565b926044359182116108db576106e5916004016108e5565b604060031982011261066e57600435906001600160401b0382116106b257610a77916004016108e5565b906024358015158114156106b25790565b602090600319011261000f576004356001600160a01b03811681141561066e5790565b604090600319011261000f576004356001600160a01b03811681141561066e57906024358015158114156106b25790565b60e060031982011261066e57610af0610657565b916024356001600160401b03928382116108db57610b128160049384016108e5565b93604435818111610bad5782610b299185016108e5565b93606435828111610ba05783610b409186016108e5565b93608435838111610b925784610b579183016108e5565b9360a435848111610b835781610b6e9184016108e5565b9360c435908111610b83576106e592016108e5565b50505050505050505050600080fd5b505050505050505050600080fd5b5050505050505050600080fd5b50505050505050600080fd5b90608060031983011261066e576001600160a01b03916004358381168114156106a957926024359081168114156106a9579160443591606435906001600160401b038211610c1e5780602383011215610c1e578160246106e5936004013591016108a4565b505050505050600080fd5b604090600319011261000f576001600160a01b03906004358281168114156106b257916024359081168114156106b25790565b602080820190808352835180925260408301928160408460051b8301019501936000915b848310610c905750505050505090565b9091929394958480610cae600193603f198682030187528a5161072b565b9801930193019194939290610c80565b6001600160a01b03168015610cde57600052600360205260406000205490565b505060405162461bcd60e51b815260206004820152602960248201527f4552433732313a2061646472657373207a65726f206973206e6f7420612076616044820152683634b21037bbb732b960b91b6064820152608490fd5b15610d3e57565b5060405162461bcd60e51b815260206004820152601860248201527f4552433732313a20696e76616c696420746f6b656e20494400000000000000006044820152606490fd5b6000908152600260205260409020546001600160a01b03166106e5811515610d37565b90600182811c92168015610dd9575b6020831014610dc157565b5050634e487b7160e01b600052602260045260246000fd5b91607f1691610db6565b60405190600082815491610df683610da7565b80835292600190818116908115610e7a5750600114610e1d575b506108599250038361082b565b600080805291507f290decd9548b62a8d60345a988386fc84ba6bc95484008f6362f93160ef3e5635b848310610e5f5750610859935050810160200138610e10565b81935090816020925483858a01015201910190918592610e46565b94505050505060ff19166020830152610859826040810138610e10565b60405190600082600191825492610ead84610da7565b80845293818116908115610e7a5750600114610ed057506108599250038361082b565b600081815291507fb10e2d527612073b26eecdfd717e6a320cf44b4afac2b0732d9fcbe2b7fa0cf65b848310610f125750610859935050810160200138610e10565b81935090816020925483858a01015201910190918592610ef9565b9060405191826000825492610f4184610da7565b908184526001948581169081600014610fae5750600114610f6b575b50506108599250038361082b565b9093915060005260209081600020936000915b818310610f9657505061085993508201013880610f5d565b85548884018501529485019487945091830191610f7e565b9550505050505060ff1916602083015261085982604081013880610f5d565b90610fd781610d84565b6001600160a01b0381811690841681146110a0573314908115611072575b501561100457610859916115b1565b505060405162461bcd60e51b815260206004820152603d60248201527f4552433732313a20617070726f76652063616c6c6572206973206e6f7420746f60448201527f6b656e206f776e6572206f7220617070726f76656420666f7220616c6c000000606482015260849150fd5b6001600160a01b0316600090815260056020526040902060ff915061109890339061023c565b541638610ff5565b5050505050608460405162461bcd60e51b815260206004820152602160248201527f4552433732313a20617070726f76616c20746f2063757272656e74206f776e656044820152603960f91b6064820152fd5b600081815260026020526040902054611116906001600160a01b03161515610d37565b6000908152600460205260409020546001600160a01b031690565b6001600160a01b03811691903383146111b257816111716111829233600052600560205260406000209060018060a01b0316600052602052604060002090565b9060ff801983541691151516179055565b60405190151581527f17307eab39ab6107e8899845ad3d59bd9653f200f220920489ca2b5937696c3160203392a3565b50505050606460405162461bcd60e51b815260206004820152601960248201527f4552433732313a20617070726f766520746f2063616c6c6572000000000000006044820152fd5b1561120157565b5060405162461bcd60e51b815260206004820152602d60248201527f4552433732313a2063616c6c6572206973206e6f7420746f6b656e206f776e6560448201526c1c881bdc88185c1c1c9bdd9959609a1b6064820152608490fd5b9061085992916112756112708433611363565b6111fa565b611436565b6040519061128782610810565b60008252565b90916108599260405192602084018481106001600160401b038211176112ba575b604052600084526112c7565b6112c26107d1565b6112ae565b906112eb9392916112db6112708433611363565b6112e6838383611436565b61168d565b156112f257565b5060405162461bcd60e51b81528061130c60048201611310565b0390fd5b60809060208152603260208201527f4552433732313a207472616e7366657220746f206e6f6e20455243373231526560408201527131b2b4bb32b91034b6b83632b6b2b73a32b960711b60608201520190565b6001600160a01b038061137584610d84565b1692818316928484149485156113ab575b50508315611395575b50505090565b6113a1919293506110f3565b161438808061138f565b60009081526005602090815260408083206001600160a01b03949094168352929052205460ff1693503880611386565b156113e257565b5060405162461bcd60e51b815260206004820152602560248201527f4552433732313a207472616e736665722066726f6d20696e636f72726563742060448201526437bbb732b960d91b6064820152608490fd5b61145a9061144384610d84565b6001600160a01b03828116939091821684146113db565b831692831561155b576114d882611475878461153296612899565b611497856114916114858a610d84565b6001600160a01b031690565b146113db565b6114be6114ae886000526004602052604060002090565b80546001600160a01b0319169055565b6001600160a01b0316600090815260036020526040902090565b80546000190190556001600160a01b038116600090815260036020526040902060018154019055611513856000526002602052604060002090565b80546001600160a01b0319166001600160a01b03909216919091179055565b7fddf252ad1be2c89b69c2b068fc378daa952ba7f163c4a11628f55a4df523b3ef6000604051a4565b505050505050608460405162461bcd60e51b8152602060048201526024808201527f4552433732313a207472616e7366657220746f20746865207a65726f206164646044820152637265737360e01b6064820152fd5b600082815260046020526040902080546001600160a01b0319166001600160a01b0383161790556001600160a01b03806115ea84610d84565b169116907f8c5be1e5ebec7d5bd14f71427d1e84f3dd0314c0f7b2291e5b200ac8c7c3b9256000604051a4565b9081602091031261066e57516106e5816106ba565b6001600160a01b0391821681529116602082015260408101919091526080606082018190526106e59291019061072b565b3d15611688573d9061166e8261087a565b9161167c604051938461082b565b82523d6000602084013e565b606090565b92909190823b1561173c576116c0926020926000604051809681958294630a85bd0160e11b9a8b8552336004860161162c565b03926001600160a01b03165af16000918161171c575b5061170e575050506116e661165d565b8051908161170957505060405162461bcd60e51b81528061130c60048201611310565b602001fd5b6001600160e01b0319161490565b61173591925061172c3d8261082b565b3d810190611617565b90386116d6565b50505050600190565b1561174c57565b5060405162461bcd60e51b815260206004820152602d60248201527f466c65656b416363657373436f6e74726f6c3a206d757374206861766520636f60448201526c6c6c656374696f6e20726f6c6560981b6064820152608490fd5b6117b133611ab8565b801561183f575b6117c190611745565b60065460005260076020526117e3826117de836040600020611aa0565b611de9565b6002811015611826576040513381526001600160a01b03909216917fcf081ed2b728e3115904be00eb8927b2375ff3401839b37f7accfa1bb2bee15c90602090a3565b505050634e487b7160e01b600052602160045260246000fd5b506117c161184c33611ab8565b90506117b8565b1561185a57565b5060405162461bcd60e51b815260206004820152602860248201527f466c65656b416363657373436f6e74726f6c3a206d757374206861766520746f6044820152676b656e20726f6c6560c01b6064820152608490fd5b6118bb3382611b09565b8015611957575b6118cb90611853565b6000818152600860205260408120546009602052604082209082526020526118fa846117de8560408520611aa0565b600283101561193e57506040513381526001600160a01b03909316927f0bf5a13b362503fcc74b8b9b1598aba2f3a9af85d05ba7978f7e9f447f22c23990602090a4565b634e487b7160e01b815260216004526024945092505050fd5b506118cb6119653383611b09565b90506118c2565b61197533611ab8565b80156119ea575b61198590611745565b60065460005260076020526119a7826119a2836040600020611aa0565b611eec565b6002811015611826576040513381526001600160a01b03909216917faeff57f0f5e4d3d10a37d4a70fde8ed67a95e67b251d5c512c0ea98c380d2f9590602090a3565b506119856119f733611ab8565b905061197c565b611a083382611b09565b8015611a8b575b611a1890611853565b600081815260086020526040812054600960205260408220908252602052611a47846119a28560408520611aa0565b600283101561193e57506040513381526001600160a01b03909316927fe52d746e4c78c98c6bfa291b273406905c3e8550b7d911a6bea686368c2dc79d90602090a4565b50611a18611a993383611b09565b9050611a0f565b90600281101561182657600052602052604060002090565b600654600090815260076020908152604080832083805282528083206001600160a01b039094168352929052205b54151590565b9061023c611ae69260065460005260076020526040600020611aa0565b60009081526008602090815260408083205460098352818420908452825280832083805282528083206001600160a01b03909416835292905220611ae6565b6000908152600860209081526040808320546009835281842090845282528083206001845282528083206001600160a01b03909416835292905220611ae6565b611ae6929161023c91600052600860205260406000205460096020526040600020906000526020526040600020611aa0565b9060405191828154918282526020928383019160005283600020936000905b828210611bef575050506108599250038361082b565b85546001600160a01b031684526001958601958895509381019390910190611bd9565b611c32906006546000526020906007825260019283916040600020611aa0565b01604051918293849382845491828152019360005282600020926000905b828210611c68575050505050906106e591038261082b565b84546001600160a01b03168652879650948501949383019390830190611c50565b600081819282527f0bf5a13b362503fcc74b8b9b1598aba2f3a9af85d05ba7978f7e9f447f22c23960206008815260408085205460098352818620908652825280852085805282528085208083528186205415611ce9575b5051338152a4565b60018101611d0b8154600160401b811015611d2f575b60018101835582611dc3565b81549060018060a01b039060031b1b19169055549086805283528186205538611ce1565b611d376107d1565b611cff565b6000908082526008602052604082205460096020526040832090835260205260408220828052602052611d728360408420611de9565b6040513381526001600160a01b03909316927f0bf5a13b362503fcc74b8b9b1598aba2f3a9af85d05ba7978f7e9f447f22c23990602090a4565b50634e487b7160e01b600052603260045260246000fd5b8054821015611ddc575b60005260206000200190600090565b611de4611dac565b611dcd565b6001600160a01b03821660009081526020829052604090209091905415611e0e575050565b611e759060018301611e5c82611e388354600160401b811015611e78575b60018101855584611dc3565b90919082549060031b9160018060a01b039283811b93849216901b16911916179055565b54929060018060a01b0316600052602052604060002090565b55565b611e806107d1565b611e2c565b50634e487b7160e01b600052601160045260246000fd5b60018110611eac575b6000190190565b611eb4611e85565b611ea5565b6002906002198111611ec9570190565b611ed1611e85565b0190565b50634e487b7160e01b600052603160045260246000fd5b6001600160a01b038216600090815260208290526040902054611f0d575050565b6001600160a01b03821660009081526020829052604081209092611e759290915460018110612004575b841990818101916001840191611fa2611f5c83855460018110611ff7575b0185611dc3565b90546001600160a01b039660039290921b1c861690611f7f82611e388389611dc3565b60011910611fea575b6001600160a01b0316600090815260208790526040902090565b5581548015611fdd575b0191611fb88383611dc3565b909182549160031b1b19169055559060018060a01b0316600052602052604060002090565b611fe5611ed5565b611fac565b611ff2611e85565b611f88565b611fff611e85565b611f55565b61200c611e85565b611f37565b9294919590939561202133611ab8565b80156121ea575b61203190611745565b600a54966001600160a01b03851694851561219c576106e597612147612159948b61218b996120ea6121509661208b61208661208286600052600260205260018060a01b0360406000205416151590565b1590565b61249c565b6120958185611d3c565b6000848152600260205260409020546120b7906001600160a01b03161561249c565b6001600160a01b038116600090815260036020526040902060018154019055611513846000526002602052604060002090565b60007fddf252ad1be2c89b69c2b068fc378daa952ba7f163c4a11628f55a4df523b3ef81604051a46121206001600a5401600a55565b61213e6121378d600052600b602052604060002090565b9a8b612271565b60018a01612271565b60028801612271565b60038601612271565b6000600485015561216861084c565b91825260208201526121866005840160008052602052604060002090565b61234d565b6006612195612369565b9101612408565b50505050505050505050606460405162461bcd60e51b815260206004820152602060248201527f4552433732313a206d696e7420746f20746865207a65726f20616464726573736044820152fd5b506120316121f733611ab8565b9050612028565b50634e487b7160e01b600052600060045260246000fd5b818110612220575050565b60008155600101612215565b9190601f811161223b57505050565b610859926000526020600020906020601f840160051c83019310612267575b601f0160051c0190612215565b909150819061225a565b91909182516001600160401b038111612340575b612299816122938454610da7565b8461222c565b602080601f83116001146122d55750819293946000926122ca575b50508160011b916000199060031b1c1916179055565b0151905038806122b4565b90601f198316956122eb85600052602060002090565b926000905b8882106123285750508360019596971061230f575b505050811b019055565b015160001960f88460031b161c19169055388080612305565b806001859682949686015181550195019301906122f0565b6123486107d1565b612285565b6001602061085993612360815185612271565b01519101612271565b60405161237581610810565b6000815290565b6001600160fe1b038111600116612394575b60021b90565b61239c611e85565b61238e565b6123ab8154610da7565b90816123b5575050565b81601f600093116001146123c7575055565b818352602083206123e391601f0160051c810190600101612215565b8160208120915555565b61085992916123fb57612271565b6124036121fe565b612271565b815191600160401b831161248f575b8154838355808410612460575b50602080910191600052806000206000925b848410612444575050505050565b6001838261245483945186612271565b01920193019290612436565b8260005283602060002091820191015b81811061247d5750612424565b806124896001926123a1565b01612470565b6124976107d1565b612417565b156124a357565b5060405162461bcd60e51b815260206004820152601c60248201527f4552433732313a20746f6b656e20616c7265616479206d696e746564000000006044820152606490fd5b90611ed1602092828151948592016106f6565b6000818152600260205260409020546001600160a01b0316151561251f90610d37565b61252881610d84565b90600052600b602052604060002060405191612543836107e8565b601d83527f646174613a6170706c69636174696f6e2f6a736f6e3b6261736536342c000000602084015261257f906001600160a01b0316613b88565b6003820161258c83610f2d565b61259582610f2d565b61259e91613c37565b9060058401600485015491816125bf84809490600052602052604060002090565b926125d39190600052602052604060002090565b600101926125e0906139da565b604051607b60f81b602082015267113730b6b2911d1160c11b6021820152968796919591612611602989018361395d565b61088b60f21b81526002016e113232b9b1b934b83a34b7b7111d1160891b8152600f01612641906001840161395d565b61088b60f21b8152600201681137bbb732b9111d1160b91b8152600901612667916124e9565b61088b60f21b81526002016f1132bc3a32b93730b62fbab936111d1160811b81526010016126979160020161395d565b61088b60f21b8152600201681134b6b0b3b2911d1160b91b81526009016126bd916124e9565b61088b60f21b81526002016e2261747472696275746573223a205b60881b8152600f017f7b2274726169745f74797065223a2022454e53222c202276616c7565223a22008152601f0161270f9161395d565b62089f4b60ea1b81526003017f7b2274726169745f74797065223a2022436f6d6d69742048617368222c20227681526630b63ab2911d1160c91b602082015260270161275a9161395d565b62089f4b60ea1b81526003017f7b2274726169745f74797065223a20225265706f7369746f7279222c20227661815265363ab2911d1160d11b60208201526026016127a49161395d565b62089f4b60ea1b81526003017f7b2274726169745f74797065223a202256657273696f6e222c202276616c7565815262111d1160e91b60208201526023016127eb916124e9565b61227d60f01b8152600201605d60f81b8152600101607d60f81b81526001010390601f1991828101825261281f908261082b565b61282890613882565b916040519283916020830161283c916124e9565b612845916124e9565b0390810182526106e5908261082b565b63ffffffff60e01b166380ac58cd60e01b8114908115612888575b811561287a575090565b6301ffc9a760e01b14919050565b635b5e139f60e01b81149150612870565b6001600160a01b0390811615801580612909575b156128d7575050816128d2610859936000526008602052604060002060018154019055565b611d3c565b156128e6575061085991611d3c565b16156128ef5750565b610859906000526008602052604060002060018154019055565b5081831615156128ad565b61291e3382611b48565b801561299f575b61292e90611853565b600081815260026020526040902054612951906001600160a01b03161515610d37565b80600052600b60205261296b826002604060002001612271565b61297533926129b4565b907fedbf1209b3baa7c1b5c43052ce5c511e243b3241d9f67733141d14f1da88cba16000604051a4565b5061292e6129ad3383611b09565b9050612925565b6129cc906020604051928284809451938492016106f6565b810103902090565b6129de3382611b48565b8015612a5f575b6129ee90611853565b600081815260026020526040902054612a11906001600160a01b03161515610d37565b80600052600b602052612a2b826003604060002001612271565b612a3533926129b4565b907f91ce7fcd4462481791c3fe849f7049373c5b43ef44aed48e7f1ecce781586e156000604051a4565b506129ee612a6d3383611b09565b90506129e5565b612a7e3382611b48565b8015612afc575b612a8e90611853565b600081815260026020526040902054612ab1906001600160a01b03161515610d37565b80600052600b602052612ac8826040600020612271565b612ad233926129b4565b907ffbbfca16a2770c7ca6e7063ab1a7eea5fe441ffef818325db51752066a6b128a6000604051a4565b50612a8e612b0a3383611b09565b9050612a85565b612b1b3382611b48565b8015612b9c575b612b2b90611853565b600081815260026020526040902054612b4e906001600160a01b03161515610d37565b80600052600b602052612b68826001604060002001612271565b612b7233926129b4565b907fd771eaa1c1382b0a9867125fcd921fdeddd211538b5381353a877abfbe3b50a46000604051a4565b50612b2b612baa3383611b09565b9050612b22565b6020612bca9181604051938285809451938492016106f6565b8101600c81520301902090565b600360a0918351815560208401516001820155604084015160028201550191612c1260608201511515849060ff801983541691151516179055565b6080810151835461ff00191690151560081b61ff00161783550151815462010000600160b01b03191660109190911b62010000600160b01b0316179055565b90612c7461085992805490600160401b821015612c7d575b600182018155611dc3565b6123fb57612271565b612c856107d1565b612c69565b600081815260026020526040902054612cad906001600160a01b03161515610d37565b6001600160a01b036003612cc084612bb1565b015460101c16612d7457612d216006612ce383600052600b602052604060002090565b0154612ced61085b565b83815260208101919091526000604082018190526060820181905260808201523360a0820152612d1c84612bb1565b612bd7565b612d41826006612d3b84600052600b602052604060002090565b01612c51565b612d4b33926129b4565b7f8140554c907b4ba66a04ea1f43b882cba992d3db4cd5c49298a56402d7b36ca26000604051a4565b505060405162461bcd60e51b815260206004820152601e60248201527f466c65656b4552433732313a20415020616c7265616479206578697374730000604482015260649150fd5b15612dc357565b5060405162461bcd60e51b815260206004820152601760248201527f466c65656b4552433732313a20696e76616c69642041500000000000000000006044820152606490fd5b6001600160a01b03612e2d816003612e2085612bb1565b015460101c161515612dbc565b6003612e3883612bb1565b015460101c16331415612f1257612ee6612e5182612bb1565b5491612ebd612e6a84600052600b602052604060002090565b60066001612e7785612bb1565b01549101906001612eb6612e9d612e97612e918654611e9c565b86611dc3565b50610f2d565b612eb181612eab8688611dc3565b906123ed565b612bb1565b0155612f59565b612ee1612ec982612bb1565b60036000918281558260018201558260028201550155565b6129b4565b9033917fef2f6bed86b96d79b41799f5285f73b31274bb303ebe5d55a3cb48c567ab2db06000604051a4565b505060405162461bcd60e51b815260206004820152601d60248201527f466c65656b4552433732313a206d757374206265204150206f776e65720000006044820152606490fd5b80548015612fd2575b6000190190612f718282611dc3565b612fc5575b612f808154610da7565b9081612f8b57505055565b81601f60009311600114612f9e57505555565b81835260208320612fba91601f0160051c810190600101612215565b816020812091555555565b612fcd6121fe565b612f76565b612fda611ed5565b612f62565b6001600160a01b039081612ff282612bb1565b6003015460101c16151561300590612dbc565b61300e90612bb1565b90815461301a906139da565b906002830154613029906139da565b92600301548060081c60ff1661303e906145d4565b9161304b60ff83166145d4565b9160101c1661305990613b88565b604051607b60f81b60208201529485949193916021860169113a37b5b2b724b2111d60b11b8152600a0161308c916124e9565b600b60fa1b8152600101671139b1b7b932911d60c11b81526008016130b0916124e9565b600b60fa1b81526001016e113730b6b2ab32b934b334b2b2111d60891b8152600f016130db916124e9565b600b60fa1b8152600101711131b7b73a32b73a2b32b934b334b2b2111d60711b8152601201613109916124e9565b600b60fa1b8152600101681137bbb732b9111d1160b91b815260090161312e916124e9565b601160f91b8152600101607d60f81b815260010103601f19810182526106e5908261082b565b60ff9060039061317390612eb16001600160a01b0384612e2084612bb1565b015460081c1690565b6131926001600160a01b036003612e2084612bb1565b600261319d82612bb1565b016131a881546131f8565b90556131b381612bb1565b546131ca60026131c284612bb1565b0154926129b4565b6040519283527f3ea1c0fcf71b86fca8f96ccac3cf26fba8983d3bbbe7bd720f1865d67fbaee4360203394a4565b6001906000198114611ec9570190565b61321e6001600160a01b036003612e2084612bb1565b600261322982612bb1565b01541561329057600261323b82612bb1565b0161324681546132d6565b905561325181612bb1565b5461326060026131c284612bb1565b60405192835233927f3ea1c0fcf71b86fca8f96ccac3cf26fba8983d3bbbe7bd720f1865d67fbaee4390602090a4565b5050606460405162461bcd60e51b815260206004820152602060248201527f466c65656b4552433732313a2073636f72652063616e74206265206c6f7765726044820152fd5b8015611eac576000190190565b6132f96001600160a01b036003612e2084612bb1565b61331e61330582612bb1565b546133103382611b48565b908115613383575b50611853565b61333f82600361332d84612bb1565b019060ff801983541691151516179055565b61335261334b82612bb1565b54916129b4565b6040519182527fe2e598f7ff2dfd4bc3bd989635401b4c56846b7893cb7eace51d099f21e69bff60203394151593a4565b61338f91503390611b09565b38613318565b6133ab6001600160a01b036003612e2084612bb1565b6133b761330582612bb1565b6133df8260036133c684612bb1565b019061ff00825491151560081b169061ff001916179055565b6133eb61334b82612bb1565b6040519182527f17bd9b465aa0cdc6b308874903e9c38b13f561ecb1f2edaa8bf3969fe603d11c60203394151593a4565b60008181526002602052604090205461343f906001600160a01b03161515610d37565b6000526020600b815260066040600020018054906001600160401b0382116134af575b60405192613475818460051b018561082b565b82845260009182528082208185015b84841061349357505050505090565b60018381926134a185610f2d565b815201920193019290613484565b6134b76107d1565b613462565b9190916134c93382611b48565b8015613593575b6134d990611853565b6000818152600260205260409020546134fc906001600160a01b03161515610d37565b7f73b929bf4db6be678cdbc6d41a5fe0a2cbb84ca95572062c4a978d8bd80a41b16040928351908482018281106001600160401b03821117613586575b85528582526020820152613577600091848352600b60205260058684200160048785200161356781546131f8565b809155845260205285832061234d565b61358133956129b4565b9351a4565b61358e6107d1565b613539565b506134d96135a13383611b09565b90506134d0565b6135b23382611b09565b8015613706575b6135c290611853565b806001600160a01b03806135d583610d84565b16158015806136fe575b156136d157506135ff826000526008602052604060002060018154019055565b61360882611c89565b61361182610d84565b600083815260046020526040812080546001600160a01b0319169055911680825260036020526040822060001981540190558282526002602052613669604083206bffffffffffffffffffffffff60a01b8154169055565b7fddf252ad1be2c89b69c2b068fc378daa952ba7f163c4a11628f55a4df523b3ef82604051a46136ae60026136a883600052600b602052604060002090565b0161371b565b6136b55750565b6136cc61085991600052600b602052604060002090565b613725565b156136e4576136df82611c89565b613608565b6136df826000526008602052604060002060018154019055565b5060006135df565b506135c26137143383611b09565b90506135b9565b6106e59054610da7565b61372e816123a1565b600660019161373e8382016123a1565b61374a600282016123a1565b613756600382016123a1565b6000600482015501805490600081558161376f57505050565b6000526020600020908101905b81811061378857505050565b8061379384926123a1565b0161377c565b60405190606082018281106001600160401b03821117613809575b604052604082527f6768696a6b6c6d6e6f707172737475767778797a303132333435363738392b2f6040837f4142434445464748494a4b4c4d4e4f505152535455565758595a61626364656660208201520152565b6138116107d1565b6137b4565b60405190606082018281106001600160401b03821117613843575b604052602a8252604082602036910137565b61384b6107d1565b613831565b9061385a8261087a565b613867604051918261082b565b8281528092613878601f199161087a565b0190602036910137565b80511561395457613891613799565b6138b56138b06138ab6138a48551611eb9565b6003900490565b61237c565b613850565b9160208301918182518301915b828210613902575050506003905106806001146138ef576002146138e4575090565b603d90600019015390565b50603d9081600019820153600119015390565b9091936004906003809401938451600190603f9082828260121c16880101518553828282600c1c16880101518386015382828260061c16880101516002860153168501015190820153019391906138c2565b506106e561127a565b60009291815461396c81610da7565b926001918083169081156139c55750600114613989575b50505050565b90919293945060005260209081600020906000915b8583106139b45750505050019038808080613983565b80548584015291830191810161399e565b60ff1916845250505001915038808080613983565b806000917a184f03e93ff9f4daa797ed6e38ed64bf6a1f01000000000000000080821015613b0f575b506d04ee2d6d415b85acef810000000080831015613b00575b50662386f26fc1000080831015613af1575b506305f5e10080831015613ae2575b5061271080831015613ad3575b506064821015613ac3575b600a80921015613ab9575b600190816021613a71828701613850565b95860101905b613a83575b5050505090565b600019019083906f181899199a1a9b1b9c1cb0b131b232b360811b8282061a835304918215613ab457919082613a77565b613a7c565b9160010191613a60565b9190606460029104910191613a55565b60049193920491019138613a4a565b60089193920491019138613a3d565b60109193920491019138613a2e565b60209193920491019138613a1c565b604093508104915038613a03565b906020918051821015613b2f57010190565b613b37611dac565b010190565b15613b4357565b50606460405162461bcd60e51b815260206004820152602060248201527f537472696e67733a20686578206c656e67746820696e73756666696369656e746044820152fd5b613b90613816565b90815115613c2a575b603060208301538151600190811015613c1d575b90607860218401536029915b808311613bcc57506106e5915015613b3c565b9080600f613c0992166010811015613c10575b6f181899199a1a9b1b9c1cb0b131b232b360811b901a613bff8587613b1d565b5360041c926132d6565b9190613bb9565b613c18611dac565b613bdf565b613c25611dac565b613bad565b613c32611dac565b613b99565b604080517f3c73766720786d6c6e733d22687474703a2f2f7777772e77332e6f72672f323060208201527f30302f7376672220786d6c6e733a786c696e6b3d22687474703a2f2f7777772e918101919091527f77332e6f72672f313939392f786c696e6b222076657273696f6e3d22312e312260608201527f2077696474683d2236343022206865696768743d22343830222076696577426f60808201527f783d2230203020363430203438302220786d6c3a73706163653d22707265736560a082015264393b32911f60d91b60c0820152651e3232b3399f60d11b60c582015291829160cb8301661e17b232b3399f60c91b81526007017f3c67207472616e73666f726d3d226d617472697828332e34322030203020332e8152741a1910199818171c9c10191a99171c9c149110101f60591b60208201526035017f3c706f6c79676f6e207374796c653d227374726f6b653a2072676228302c302c81527f30293b207374726f6b652d77696474683a20383b207374726f6b652d6461736860208201527f61727261793a206e6f6e653b207374726f6b652d6c696e656361703a2062757460408201527f743b207374726f6b652d646173686f66667365743a20303b207374726f6b652d60608201527f6c696e656a6f696e3a206d697465723b207374726f6b652d6d697465726c696d60808201527f69743a20343b2066696c6c3a20726762283135322c3135322c313833293b206660a08201527f696c6c2d72756c653a206e6f6e7a65726f3b206f7061636974793a20313b222060c08201527f766563746f722d6566666563743d226e6f6e2d7363616c696e672d7374726f6b60e08201527f65222020706f696e74733d222d35302c2d3530202d35302c35302035302c35306101008201526b101a9816169a98101110179f60a11b61012082015261012c01631e17b39f60e11b81526004017f3c67207472616e73666f726d3d226d617472697828312030203020312033303381527f2e35203131352e36372922207374796c653d222220203e00000000000000000060208201526037017f3c7465787420786d6c3a73706163653d2270726573657276652220666f6e742d81527f66616d696c793d224f70656e2053616e732220666f6e742d73697a653d22323460208201527f2220666f6e742d7374796c653d226e6f726d616c2220666f6e742d776569676860408201527f743d226e6f726d616c22207374796c653d227374726f6b653a206e6f6e653b2060608201527f7374726f6b652d77696474683a20313b207374726f6b652d646173686172726160808201527f793a206e6f6e653b207374726f6b652d6c696e656361703a20627574743b207360a08201527f74726f6b652d646173686f66667365743a20303b207374726f6b652d6c696e6560c08201527f6a6f696e3a206d697465723b207374726f6b652d6d697465726c696d69743a2060e08201527f343b2066696c6c3a2072676228302c302c30293b2066696c6c2d72756c653a206101008201527f6e6f6e7a65726f3b206f7061636974793a20313b2077686974652d73706163656101208201527f3a207072653b22203e3c747370616e20783d222d34352e372220793d22352e366101408201527f3522207374796c653d227374726f6b652d77696474683a20313b20666f6e742d6101608201527f66616d696c793a20224f70656e2053616e73222c2073616e732d73657269663b6101808201527f20666f6e742d73697a653a20313870783b20666f6e742d7374796c653a206e6f6101a08201527f726d616c3b20666f6e742d7765696768743a206e6f726d616c3b2066696c6c3a6101c08201527f2072676228302c302c30293b20223e466c65656b204e4641733c2f747370616e6101e0820152671f1e17ba32bc3a1f60c11b61020082015261020801631e17b39f60e11b81526004017f3c67207472616e73666f726d3d226d617472697828312030203020312033303281527410191b18971a1b94911039ba3cb6329e911110101f60591b60208201526035017f3c7465787420786d6c3a73706163653d2270726573657276652220666f6e742d81527f66616d696c793d224f70656e2053616e732220666f6e742d73697a653d22323860208201527f2220666f6e742d7374796c653d226e6f726d616c2220666f6e742d776569676860408201527f743d226e6f726d616c22207374796c653d227374726f6b653a206e6f6e653b2060608201527f7374726f6b652d77696474683a20313b207374726f6b652d646173686172726160808201527f793a206e6f6e653b207374726f6b652d6c696e656361703a20627574743b207360a08201527f74726f6b652d646173686f66667365743a20303b207374726f6b652d6c696e6560c08201527f6a6f696e3a206d697465723b207374726f6b652d6d697465726c696d69743a2060e08201527f343b2066696c6c3a2072676228302c302c30293b2066696c6c2d72756c653a206101008201527f6e6f6e7a65726f3b206f7061636974793a20313b2077686974652d73706163656101208201527f3a207072653b22203e3c747370616e20783d222d34342e32362220793d222d366101408201527f2e313422207374796c653d227374726f6b652d77696474683a20313b20666f6e6101608201527f742d66616d696c793a20224f70656e2053616e73222c2073616e732d736572696101808201527f663b20666f6e742d73697a653a20313870783b20666f6e742d7374796c653a206101a08201527f6e6f726d616c3b20666f6e742d7765696768743a206e6f726d616c3b2066696c6101c082015270361d103933b1141816181618149d90111f60791b6101e08201526101f10161446c916124e9565b7f3c2f747370616e3e3c747370616e20783d222d33372e31342220793d2231372e81527f343522207374796c653d227374726f6b652d77696474683a20313b20666f6e7460208201527f2d66616d696c793a20224f70656e2053616e73222c2073616e732d736572696660408201527f3b20666f6e742d73697a653a20313870783b20666f6e742d7374796c653a206e60608201527f6f726d616c3b20666f6e742d7765696768743a206e6f726d616c3b2066696c6c60808201526f1d103933b1141816181618149d90111f60811b60a082015260b00161454c916124e9565b6e1e17ba39b830b71f1e17ba32bc3a1f60891b8152600f01631e17b39f60e11b8152600401651e17b9bb339f60d11b81526006010390601f19918281018252614595908261082b565b61459e90613882565b6040517f646174613a6170706c69636174696f6e2f6a736f6e3b6261736536342c000000602082015291908290603d820161283c565b156145f9576040516145e5816107e8565b60048152637472756560e01b602082015290565b604051614605816107e8565b600581526466616c736560d81b60208201529056fea364697066735822122068c2c48eb3ccede8f14a554da8bfac0598abe0dcf3e1d816e4b1ceb4e255c8866c6578706572696d656e74616cf564736f6c634300080c0041",
  "linkReferences": {},
  "deployedLinkReferences": {}
}